AZANA22 ZANDER GP940 V1.25
HFDTE160813
HFFXA050
HFPLT Pilot             :Benjamin.Bachmaier                      
HFGTY Glider type       :Discus 2                                
HFGID Glider ID         :D-3770    
HFDTM100 GPS Datum      :WGS84
HFRFW Firmware Version  :1.25
HFRHW Hardware version  :A
HFFTY FR Type           :ZANDER GP940
HFGPS                   :Motorola,VP ONCORE,8,30000
HFPRS Press Alt Sensor  :Motorola,MPX100A,10000
HFCCL Competition Class :Standard                                
HFCID Competition ID    :2D        
I023638IAS3941ENL
J020810WDI1113WVE
LZAN 105054 PowerOn
C160813095012160813000104
C5208650N01240100E 001SPLUESSE 
C5208650N01240100E 001SPLUESSE 
C5214950N01215366E 246ZIESAR   
C5133483N01300666E 213TORGAU   
C5132016N01355583E 192SPEEDSITZ
C5209483N01246883E 010CP24     
C5208650N01240100E 001SPLUESSE 
C5208650N01240100E 001SPLUESSE 
B1050585208695N01240575EV0001500000022000
B1051025208695N01240575EV0001400000022000
B1051065208695N01240575EV0001400000023000
B1051105208695N01240575EV0001400000022000
B1051145208695N01240575EV0001400000022000
B1051185208695N01240575EV0001400000022000
B1051225208695N01240575EV0001400000023000
B1051265208695N01240575EV0001300000023000
B1051305208695N01240575EV0001300000022000
B1051345208695N01240575EA0001400000022000
B1051385208695N01240575EA0001400000024000
B1051425208691N01240570EA0001400000023000
B1051465208691N01240570EA0001400000022000
B1051505208691N01240570EA0001400000021000
B1051545208691N01240570EA0001300000007000
B1051585208691N01240570EA0001400000012000
B1052025208691N01240570EA0001300000012000
B1052065208691N01240570EA0001300000012000
B1052105208691N01240570EA0001400000007000
B1052145208691N01240570EA0001300000007000
B1052185208691N01240570EA0001400000009000
C160813105217160813000104
C5208650N01240100E 001SPLUESSE 
C5208650N01240100E 001SPLUESSE 
C5214950N01215366E 246ZIESAR   
C5133483N01300666E 213TORGAU   
C5144016N01336633E 107KLEINSNIK
C5209483N01246883E 010CP24     
C5208650N01240100E 001SPLUESSE 
C5208650N01240100E 001SPLUESSE 
B1052225208691N01240570EA0001400000007000
B1052265208691N01240570EA0001400000000000
B1052305208691N01240570EA0001400000000000
B1052345208695N01240575EA0001300000012000
B1052385208700N01240575EA0001400064012000
B1052425208700N01240575EA0001300064007000
B1052465208700N01240575EA0001400064009000
B1052505208700N01240575EA0001400064000000
B1052545208700N01240575EA0001300064007000
B1052585208700N01240575EA0001300064000000
B1053025208700N01240575EA0001200064000000
B1053065208700N01240575EA0001200064000000
B1053105208700N01240575EA0001200064000000
B1053145208700N01240575EA0001200064000000
B1053185208700N01240575EA0001200072000000
B1053225208700N01240575EA0001200072000000
B1053265208700N01240575EA0001200072000000
B1053305208700N01240575EA0001200064000000
B1053345208700N01240575EA0001200072000000
B1053385208700N01240575EA0001200072000000
B1053425208700N01240575EA0001200072000000
B1053465208700N01240575EA0001200064000000
B1053505208700N01240575EA0001200064000000
B1053545208700N01240575EA0001200072000000
B1053585208700N01240575EA0001200072000000
B1054025208700N01240575EA0001200072000000
B1054065208700N01240575EA0001200072000000
B1054105208700N01240575EA0001200072000000
B1054145208700N01240575EA0001200072000000
B1054185208700N01240575EA0001200072000000
B1054225208700N01240575EA0001200072000000
B1054265208700N01240575EA0001200072000000
B1054305208700N01240575EA0001200072000000
B1054345208700N01240575EA0001200072000000
B1054385208700N01240575EA0001200072000000
B1054425208700N01240575EA0001200072000000
B1054465208700N01240575EA0001200072000000
B1054505208700N01240575EA0001200072000000
B1054545208700N01240575EA0001200072000000
B1054585208700N01240575EA0001200072000000
B1055025208700N01240575EA0001100072000000
B1055065208700N01240575EA0001100072000000
B1055105208700N01240575EA0001100072000000
B1055145208700N01240575EA0001100072000000
B1055185208700N01240575EA0001200072000000
B1055225208700N01240575EA0001100072000000
B1055265208700N01240575EA0001100072000000
B1055305208700N01240575EA0001100072000000
B1055345208700N01240575EA0001000072000000
B1055385208700N01240575EA0001000064009000
B1055425208700N01240575EA0001000064000000
B1055465208700N01240575EA0001000064000000
B1055505208700N01240575EA0001000072000000
B1055545208700N01240575EA0001000064000000
B1055585208700N01240575EA0001100072000000
B1056025208700N01240575EA0001100064000000
B1056065208700N01240575EA0001100064000000
B1056105208700N01240575EA0001100064000000
B1056145208700N01240575EA0001100064000000
B1056185208700N01240575EA0001100064000000
B1056225208700N01240575EA0001200072000000
B1056265208700N01240575EA0001100064000000
B1056305208700N01240575EA0001100064000000
B1056345208700N01240575EA0001100072012000
B1056385208700N01240575EA0001200064000000
B1056425208700N01240575EA0001200064009000
B1056465208700N01240575EA0001300064000000
B1056505208700N01240575EA0001200064015000
B1056545208700N01240575EA0001200064021000
B1056585208700N01240575EA0001200064007000
B1057025208700N01240575EA0001200064009000
B1057065208700N01240575EA0001100072015000
B1057105208700N01240575EA0001100064009000
B1057145208700N01240575EA0001100064012000
B1057185208700N01240575EA0001200072012000
B1057225208700N01240575EA0001100072014000
B1057265208700N01240575EA0001200072007000
B1057305208700N01240575EA0001200072007000
B1057345208700N01240575EA0001200064009000
B1057385208700N01240575EA0001200064009000
B1057425208700N01240575EA0001200064007000
B1057465208700N01240575EA0001200064000000
B1057505208700N01240575EA0001200064012000
B1057545208700N01240575EA0001200064000000
B1057585208700N01240575EA0001200064000000
B1058025208700N01240575EA0001200064000000
B1058065208700N01240575EA0001100064000000
B1058105208700N01240575EA0001200064000000
B1058145208700N01240575EA0001200064000000
B1058185208700N01240575EA0001200064000000
B1058225208700N01240575EA0001200064000000
B1058265208700N01240575EA0001200072000000
B1058305208700N01240575EA0001200072000000
B1058345208700N01240575EA0001200064015000
B1058385208700N01240575EA0001200064007000
B1058425208700N01240575EA0001200072007000
B1058465208700N01240575EA0001200072000000
B1058505208700N01240575EA0001200072000000
B1058545208700N01240575EA0001200072000000
B1058585208700N01240575EA0001200072007000
B1059025208700N01240575EA0001200072000000
B1059065208700N01240575EA0001200072000000
B1059105208700N01240575EA0001200072000000
B1059145208700N01240575EA0001200072000000
B1059185208700N01240575EA0001200072000000
B1059225208700N01240575EA0001200072000000
B1059265208700N01240575EA0001200072007000
B1059305208700N01240575EA0001200072000000
B1059345208700N01240575EA0001200072000000
B1059385208700N01240575EA0001200072007000
B1059425208700N01240575EA0001200072000000
B1059465208700N01240575EA0001200072007000
B1059505208700N01240575EA0001200072000000
B1059545208700N01240575EA0001200072000000
B1059585208700N01240575EA0001200072000000
B1100025208700N01240575EA0001200072000000
B1100065208700N01240575EA0001200072000000
B1100105208700N01240575EA0001200072000000
B1100145208700N01240575EA0001200072000000
B1100185208700N01240575EA0001300072000000
B1100225208700N01240575EA0001300072000000
B1100265208700N01240575EA0001200072000000
B1100305208700N01240575EA0001300072000000
B1100345208700N01240575EA0001300072000000
B1100385208700N01240575EA0001200072000000
B1100425208700N01240575EA0001200072000000
B1100465208700N01240575EA0001200072000000
B1100505208700N01240575EA0001300072000000
B1100545208700N01240575EA0001300072007000
B1100585208700N01240575EA0001300072000000
B1101025208700N01240575EA0001200072000000
B1101065208700N01240575EA0001200072000000
B1101105208700N01240575EA0001200072000000
B1101145208700N01240575EA0001200072000000
B1101185208700N01240575EA0001200072012000
B1101225208700N01240575EA0001300072000000
B1101265208700N01240575EA0001300072000000
B1101305208700N01240575EA0001300072000000
B1101345208700N01240575EA0001200072000000
B1101385208700N01240575EA0001300072000000
B1101425208700N01240575EA0001200072012000
B1101465208700N01240575EA0001300072000000
B1101505208700N01240575EA0001300072000000
B1101545208700N01240575EA0001200072000000
B1101585208700N01240575EA0001200072000000
B1102025208700N01240575EA0001300072012000
B1102065208700N01240575EA0001200072009000
B1102105208700N01240575EA0001200072007000
B1102145208695N01240575EA0001200072007000
B1102185208695N01240575EA0001200072007000
B1102225208695N01240575EA0001300072015000
B1102265208695N01240575EA0001200072015000
B1102305208695N01240575EA0001300072015000
B1102345208695N01240575EA0001300072009000
B1102385208695N01240575EA0001300072015000
B1102425208695N01240575EA0001300072014000
B1102465208695N01240575EA0001300072012000
B1102505208695N01240575EA0001300072012000
B1102545208695N01240575EA0001300072009000
B1102585208695N01240575EA0001300072007000
B1103025208700N01240575EA0001300072021000
B1103065208700N01240575EA0001300072015000
B1103105208700N01240575EA0001300072009000
B1103145208700N01240575EA0001400072015000
B1103185208700N01240575EA0001300072014000
B1103225208700N01240575EA0001200072017000
B1103265208700N01240575EA0001300072009000
B1103305208700N01240575EA0001300072014000
B1103345208700N01240575EA0001300072012000
B1103385208700N01240575EA0001300072012000
B1103425208700N01240575EA0001300072007000
B1103465208700N01240575EA0001300072014000
B1103505208695N01240575EA0001400072015000
B1103545208695N01240575EA0001300072012000
B1103585208695N01240575EA0001300072014000
B1104025208695N01240575EA0001200072015000
B1104065208695N01240575EA0001300072007000
B1104105208695N01240575EA0001300072000000
B1104145208695N01240575EA0001300072014000
B1104185208695N01240575EA0001300072012000
B1104225208695N01240575EA0001300072020000
B1104265208695N01240575EA0001300072000000
B1104305208695N01240575EA0001300072000000
B1104345208695N01240575EA0001300072014000
B1104385208695N01240575EA0001300072014000
B1104425208695N01240575EA0001300072007000
B1104465208695N01240575EA0001300072014000
B1104505208695N01240575EA0001400072000000
B1104545208695N01240575EA0001400072007000
B1104585208695N01240575EA0001300072000000
B1105025208695N01240575EA0001300072009000
B1105065208695N01240575EA0001300072000000
B1105105208695N01240575EA0001300072009000
B1105145208695N01240575EA0001300072000000
B1105185208695N01240575EA0001300072000000
B1105225208695N01240575EA0001300072000000
B1105265208695N01240575EA0001300072000000
B1105305208695N01240575EA0001200072007000
B1105345208695N01240575EA0001200072007000
B1105385208695N01240575EA0001300072000000
B1105425208695N01240575EA0001300072000000
B1105465208695N01240575EA0001200072000000
B1105505208700N01240575EA0001200072009000
B1105545208700N01240575EA0001200072000000
B1105585208695N01240575EA0001200072000000
B1106025208700N01240575EA0001200072000000
B1106065208700N01240575EA0001200072000000
B1106105208700N01240575EA0001200072000000
B1106145208700N01240575EA0001200072014000
B1106185208695N01240575EA0001200072000000
B1106225208695N01240575EA0001200072007000
B1106265208700N01240575EA0001200072000000
B1106305208700N01240575EA0001200072000000
B1106345208700N01240575EA0001200072000000
B1106385208700N01240575EA0001200072000000
B1106425208695N01240575EA0001200072000000
B1106465208695N01240575EA0001200072000000
B1106505208695N01240575EA0001100072000000
B1106545208700N01240575EA0001200072007000
B1106585208700N01240575EA0001200072000000
B1107025208700N01240575EA0001200072007000
B1107065208700N01240575EA0001200072000000
B1107105208700N01240575EA0001200072007000
B1107145208700N01240575EA0001200072014000
B1107185208700N01240575EA0001200072014000
B1107225208700N01240575EA0001200072012000
B1107265208700N01240575EA0001200072015000
B1107305208700N01240575EA0001100072000000
B1107345208700N01240575EA0001000072000000
B1107385208700N01240575EA0001200072000000
B1107425208700N01240575EA0001200072000000
B1107465208700N01240575EA0001100072000000
B1107505208700N01240575EA0001100072000000
B1107545208700N01240575EA0001100072000000
B1107585208700N01240575EA0001100072000000
B1108025208700N01240575EA0001100072014000
B1108065208700N01240575EA0001200072000000
B1108105208700N01240575EA0001100072000000
B1108145208700N01240575EA0001100072000000
B1108185208700N01240575EA0001200072007000
B1108225208700N01240575EA0001200072000000
B1108265208700N01240575EA0001100072000000
B1108305208700N01240575EA0001100072000000
B1108345208700N01240575EA0001200072000000
B1108385208700N01240575EA0001200072000000
B1108425208700N01240575EA0001200072007000
B1108465208700N01240575EA0001200072009000
B1108505208700N01240575EA0001200072000000
B1108545208700N01240575EA0001200072000000
B1108585208700N01240575EA0001200072009000
B1109025208700N01240575EA0001200072009000
B1109065208700N01240575EA0001200072017000
B1109105208700N01240575EA0001200072012000
B1109145208700N01240575EA0001200072007000
B1109185208700N01240575EA0001300072009000
B1109225208700N01240575EA0001200072007000
B1109265208700N01240575EA0001300072012000
B1109305208700N01240575EA0001300072014000
B1109345208700N01240575EA0001200072007000
B1109385208700N01240575EA0001300072009000
B1109425208700N01240575EA0001300072007000
B1109465208700N01240575EA0001300072000000
B1109505208700N01240575EA0001300072012000
B1109545208700N01240575EA0001300072012000
B1109585208700N01240575EA0001300072000000
B1110025208700N01240575EA0001300072000000
B1110065208700N01240575EA0001400072007000
B1110105208700N01240575EA0001400064000000
B1110145208700N01240575EA0001400072009000
B1110185208700N01240575EA0001400064007000
B1110225208700N01240575EA0001400064000000
B1110265208700N01240575EA0001400072012000
B1110305208700N01240575EA0001400064014000
B1110345208700N01240575EA0001400064000000
B1110385208700N01240575EA0001400064007000
B1110425208700N01240575EA0001400064000000
B1110465208700N01240575EA0001400064007000
B1110505208700N01240575EA0001400064000000
B1110545208700N01240575EA0001500064000000
B1110585208700N01240575EA0001400064000000
B1111025208700N01240575EA0001400064012000
B1111065208700N01240575EA0001400064009000
B1111105208700N01240575EA0001400064009000
B1111145208700N01240575EA0001500064007000
B1111185208700N01240575EA0001400064000000
B1111225208700N01240575EA0001500064000000
B1111265208700N01240575EA0001500064000000
B1111305208700N01240575EA0001500064000000
B1111345208700N01240575EA0001500064000000
B1111385208700N01240575EA0001500064000000
B1111425208700N01240575EA0001500064000000
B1111465208700N01240575EA0001500064000000
B1111505208700N01240575EA0001500064000000
B1111545208700N01240575EA0001500064000000
B1111585208700N01240575EA0001500064000000
B1112025208700N01240575EA0001500064000000
B1112065208700N01240575EA0001500064000000
B1112105208700N01240575EA0001500064000000
B1112145208700N01240575EA0001500064000000
B1112185208700N01240575EA0001600064000000
B1112225208700N01240575EA0001600064000000
B1112265208700N01240575EA0001500064000000
B1112305208700N01240575EA0001600064000000
B1112345208700N01240575EA0001500064000000
B1112385208700N01240575EA0001500064000000
B1112425208700N01240575EA0001500064000000
B1112465208700N01240575EA0001600064000000
B1112505208700N01240575EA0001600064000000
B1112545208700N01240575EA0001500064000000
B1112585208700N01240575EA0001600064000000
B1113025208700N01240575EA0001500064000000
B1113065208700N01240575EA0001500064000000
B1113105208700N01240575EA0001500064000000
B1113145208700N01240575EA0001500064000000
B1113185208700N01240575EA0001500064000000
B1113225208700N01240575EA0001600064000000
B1113265208700N01240575EA0001500064000000
B1113305208700N01240575EA0001500064000000
B1113345208700N01240575EA0001500064000000
B1113385208700N01240575EA0001500064000000
B1113425208700N01240575EA0001600064000000
B1113465208700N01240575EA0001500064000000
B1113505208700N01240575EA0001600064000000
B1113545208700N01240575EA0001600064000000
B1113585208700N01240575EA0001600064000000
B1114025208700N01240575EA0001600064000000
B1114065208700N01240575EA0001600064000000
B1114105208700N01240575EA0001500064000000
B1114145208700N01240575EA0001600064000000
B1114185208700N01240575EA0001600064000000
B1114225208700N01240575EA0001600064000000
B1114265208700N01240575EA0001600064000000
B1114305208700N01240575EA0001600064007000
B1114345208700N01240575EA0001600064000000
B1114385208700N01240575EA0001600064007000
B1114425208700N01240575EA0001700064007000
B1114465208700N01240575EA0001600064009000
B1114505208700N01240575EA0001600064012000
B1114545208700N01240575EA0001700064000000
B1114585208700N01240575EA0001600064007000
B1115025208700N01240575EA0001600064000000
B1115065208700N01240575EA0001600064000000
B1115105208700N01240575EA0001600064000000
B1115145208700N01240575EA0001600064000000
B1115185208700N01240575EA0001600064000000
B1115225208700N01240575EA0001600064000000
B1115265208700N01240575EA0001600064000000
B1115305208700N01240575EA0001600064000000
B1115345208700N01240575EA0001600064000000
B1115385208700N01240575EA0001600064000000
B1115425208700N01240575EA0001600064000000
B1115465208700N01240575EA0001600064000000
B1115505208700N01240575EA0001600064000000
B1115545208700N01240575EA0001600064000000
B1115585208700N01240575EA0001600064000000
B1116025208700N01240575EA0001600064007000
B1116065208700N01240575EA0001600064000000
B1116105208700N01240575EA0001600064000000
B1116145208700N01240575EA0001600064007000
B1116185208700N01240575EA0001600064000000
B1116225208700N01240575EA0001600064009000
B1116265208700N01240575EA0001600064007000
B1116305208700N01240575EA0001600064007000
B1116345208700N01240575EA0001600064000000
B1116385208700N01240575EA0001600064000000
B1116425208700N01240575EA0001600064009000
B1116465208700N01240575EA0001600064014000
B1116505208700N01240575EA0001600064000000
B1116545208700N01240575EA0001600064007000
B1116585208700N01240575EA0001600064000000
B1117025208700N01240575EA0001600064000000
B1117065208700N01240575EA0001600064000000
B1117105208700N01240575EA0001600064000000
B1117145208700N01240575EA0001700064012000
B1117185208700N01240575EA0001600064000000
B1117225208700N01240575EA0001600064000000
B1117265208700N01240575EA0001700064014000
B1117305208700N01240575EA0001600064007000
B1117345208700N01240575EA0001600064009000
B1117385208700N01240575EA0001600064000000
B1117425208700N01240575EA0001600064007000
B1117465208700N01240575EA0001600064000000
B1117505208700N01240575EA0001600064009000
B1117545208700N01240575EA0001600064009000
B1117585208700N01240575EA0001600064000000
B1118025208700N01240575EA0001600064012000
B1118065208700N01240575EA0001600064007000
B1118105208700N01240575EA0001600064000000
B1118145208700N01240575EA0001600064000000
B1118185208700N01240575EA0001700064007000
B1118225208700N01240575EA0001600064000000
B1118265208700N01240575EA0001500064012000
B1118305208700N01240575EA0001500064014000
B1118345208700N01240575EA0001500064014000
B1118385208700N01240575EA0001500064009000
B1118425208700N01240575EA0001500064000000
B1118465208700N01240575EA0001600064007000
B1118505208700N01240575EA0001600064009000
B1118545208700N01240575EA0001600064009000
B1118585208700N01240575EA0001600064009000
B1119025208700N01240575EA0001600064000000
B1119065208700N01240575EA0001500064000000
B1119105208700N01240575EA0001500064000000
B1119145208700N01240575EA0001500064000000
B1119185208700N01240575EA0001600064000000
B1119225208700N01240575EA0001600064000000
B1119265208700N01240575EA0001600064000000
B1119305208700N01240575EA0001600064000000
B1119345208700N01240575EA0001600064000000
B1119385208700N01240575EA0001600064000000
B1119425208700N01240575EA0001600064000000
B1119465208700N01240575EA0001700064000000
B1119505208700N01240575EA0001600064000000
B1119545208700N01240575EA0001600064009000
B1119585208700N01240575EA0001600064007000
B1120025208700N01240575EA0001600064009000
B1120065208700N01240575EA0001600064007000
B1120105208700N01240575EA0001600064007000
B1120145208700N01240575EA0001600064000000
B1120185208700N01240575EA0001700064007000
B1120225208700N01240575EA0001700064000000
B1120265208700N01240575EA0001600064007000
B1120305208700N01240575EA0001700064009000
B1120345208700N01240575EA0001600064012000
B1120385208700N01240575EA0001500064007000
B1120425208700N01240575EA0001600064007000
B1120465208700N01240575EA0001500064000000
B1120505208700N01240575EA0001600064000000
B1120545208700N01240575EA0001600064000000
B1120585208700N01240575EA0001600064009000
B1121025208700N01240575EA0001600064000000
B1121065208700N01240575EA0001600064014000
B1121105208700N01240575EA0001600064000000
B1121145208700N01240575EA0001600064000000
B1121185208700N01240575EA0001500064000000
B1121225208700N01240575EA0001600064000000
B1121265208700N01240575EA0001600064000000
B1121305208700N01240575EA0001600064000000
B1121345208700N01240575EA0001500064000000
B1121385208700N01240575EA0001500064000000
B1121425208700N01240575EA0001500064000000
B1121465208700N01240575EA0001500064000000
B1121505208700N01240575EA0001600064000000
B1121545208700N01240575EA0001500064000000
B1121585208700N01240575EA0001600064000000
B1122025208700N01240575EA0001500064000000
B1122065208700N01240575EA0001500064000000
B1122105208700N01240575EA0001500064000000
B1122145208700N01240575EA0001500064000000
B1122185208700N01240575EA0001500064007000
B1122225208700N01240575EA0001500064012000
B1122265208700N01240575EA0001600064007000
B1122305208700N01240575EA0001600064009000
B1122345208700N01240575EA0001600064009000
B1122385208700N01240575EA0001600064000000
B1122425208700N01240575EA0001600064000000
B1122465208700N01240575EA0001500064000000
B1122505208700N01240575EA0001500064000000
B1122545208700N01240575EA0001500064000000
B1122585208700N01240575EA0001500064000000
B1123025208700N01240575EA0001600064000000
B1123065208700N01240575EA0001500064000000
B1123105208700N01240575EA0001500064000000
B1123145208700N01240575EA0001400064007000
B1123185208700N01240575EA0001500064000000
B1123225208700N01240575EA0001500064000000
B1123265208700N01240575EA0001500064000000
B1123305208700N01240575EA0001500064000000
B1123345208700N01240575EA0001500064000000
B1123385208700N01240575EA0001500064000000
B1123425208700N01240575EA0001500064000000
B1123465208700N01240575EA0001500064000000
B1123505208700N01240575EA0001500064000000
B1123545208700N01240575EA0001500064000000
B1123585208700N01240575EA0001500064000000
B1124025208700N01240575EA0001500064000000
B1124065208700N01240575EA0001600064000000
B1124105208700N01240575EA0001500064000000
B1124145208700N01240575EA0001500064000000
B1124185208700N01240575EA0001400064000000
B1124225208700N01240575EA0001500064000000
B1124265208700N01240575EA0001400064000000
B1124305208700N01240575EA0001400064000000
B1124345208700N01240575EA0001400064000000
B1124385208700N01240575EA0001400064000000
B1124425208700N01240575EA0001400064000000
B1124465208700N01240575EA0001400064000000
B1124505208700N01240575EA0001400064000000
B1124545208700N01240575EA0001500064000000
B1124585208700N01240575EA0001400064000000
B1125025208700N01240575EA0001400064000000
B1125065208700N01240575EA0001500064000000
B1125105208700N01240575EA0001400064000000
B1125145208700N01240575EA0001400064000000
B1125185208700N01240575EA0001400064000000
B1125225208700N01240575EA0001400064000000
B1125265208700N01240575EA0001400064000000
B1125305208700N01240575EA0001400064000000
B1125345208700N01240575EA0001400064000000
B1125385208700N01240575EA0001400064000000
B1125425208700N01240575EA0001400064000000
B1125465208700N01240575EA0001400064000000
B1125505208700N01240575EA0001400064000000
B1125545208700N01240575EA0001400064000000
B1125585208700N01240575EA0001400064000000
B1126025208700N01240575EA0001400064000000
B1126065208700N01240575EA0001400064000000
B1126105208700N01240575EA0001400064000000
B1126145208700N01240575EA0001400064000000
B1126185208700N01240575EA0001400064000000
B1126225208700N01240575EA0001600064000000
B1126265208700N01240575EA0001400064000000
B1126305208700N01240575EA0001400064000000
B1126345208700N01240575EA0001500064000000
B1126385208700N01240575EA0001500064000000
B1126425208700N01240575EA0001400064000000
B1126465208700N01240575EA0001500064000000
B1126505208700N01240575EA0001500064000000
B1126545208700N01240575EA0001500064000000
B1126585208700N01240575EA0001500064000000
B1127025208704N01240575EA0001600064000000
B1127065208704N01240575EA0001500064000000
B1127105208700N01240575EA0001600064000000
B1127145208704N01240575EA0001600064000000
B1127185208700N01240575EA0001600064000000
B1127225208700N01240575EA0001500064007000
B1127265208700N01240575EA0001500064000000
B1127305208700N01240575EA0001600064000000
B1127345208700N01240575EA0001600064000000
B1127385208700N01240575EA0001600064000000
B1127425208700N01240575EA0001500064000000
B1127465208700N01240575EA0001600064000000
B1127505208700N01240575EA0001600064000000
B1127545208700N01240575EA0001500064000000
B1127585208700N01240575EA0001500064000000
B1128025208700N01240575EA0001500064000000
B1128065208700N01240575EA0001500064000000
B1128105208700N01240575EA0001600064000000
B1128145208700N01240575EA0001700064000000
B1128185208700N01240575EA0001600064000000
B1128225208700N01240575EA0001600064000000
B1128265208700N01240575EA0001600064000000
B1128305208700N01240575EA0001600064000000
B1128345208700N01240575EA0001600064000000
B1128385208700N01240575EA0001600064000000
B1128425208700N01240575EA0001600064000000
B1128465208700N01240575EA0001600064000000
B1128505208700N01240575EA0001600064007000
B1128545208700N01240575EA0001700064000000
B1128585208700N01240575EA0001600064012000
B1129025208700N01240575EA0001600064007000
B1129065208700N01240575EA0001600064000000
B1129105208700N01240575EA0001600064000000
B1129145208700N01240575EA0001600064015000
B1129185208700N01240575EA0001600064009000
B1129225208700N01240575EA0001600064009000
B1129265208700N01240575EA0001600064000000
B1129305208700N01240575EA0001700064000000
B1129345208700N01240575EA0001700064000000
B1129385208700N01240575EA0001600064000000
B1129425208700N01240575EA0001700064000000
B1129465208700N01240575EA0001600064000000
B1129505208700N01240575EA0001700064000000
B1129545208700N01240575EA0001600064012000
B1129585208700N01240575EA0001600064012000
B1130025208700N01240575EA0001600064009000
B1130065208700N01240575EA0001700064000000
B1130105208700N01240575EA0001700064015000
B1130145208700N01240575EA0001700064007000
B1130185208700N01240575EA0001600064014000
B1130225208700N01240575EA0001600064012000
B1130265208700N01240575EA0001700064012000
B1130305208700N01240575EA0001600064000000
B1130345208700N01240575EA0001600064009000
B1130385208700N01240575EA0001600064000000
B1130425208700N01240575EA0001700064000000
B1130465208700N01240575EA0001700064000000
B1130505208700N01240575EA0001700064000000
B1130545208700N01240575EA0001700064000000
B1130585208700N01240575EA0001700064014000
B1131025208700N01240575EA0001700064000000
B1131065208700N01240575EA0001700064000000
B1131105208700N01240575EA0001700064000000
B1131145208700N01240575EA0001600064014000
B1131185208700N01240575EA0001700064000000
B1131225208700N01240575EA0001600064015000
B1131265208700N01240575EA0001700064000000
B1131305208700N01240575EA0001700064000000
B1131345208700N01240575EA0001700064000000
B1131385208700N01240575EA0001700056000000
B1131425208700N01240575EA0001700064000000
B1131465208700N01240575EA0001700056000000
B1131505208700N01240575EA0001700056007000
B1131545208700N01240575EA0001700056000000
B1131585208700N01240575EA0001700056000000
B1132025208700N01240575EA0001700056000000
B1132065208700N01240575EA0001700056000000
B1132105208700N01240575EA0001700056000000
B1132145208700N01240575EA0001700056000000
B1132185208700N01240575EA0001700056000000
B1132225208700N01240575EA0001700056000000
B1132265208700N01240575EA0001700056000000
B1132305208700N01240575EA0001700056000000
B1132345208700N01240575EA0001700056000000
B1132385208700N01240575EA0001700056000000
B1132425208700N01240575EA0001700056009000
B1132465208700N01240575EA0001800056000000
B1132505208695N01240575EA0001700056000000
B1132545208695N01240575EA0001700056000000
B1132585208695N01240575EA0001700056007000
B1133025208695N01240575EA0001700056000000
B1133065208695N01240570EA0001700056000000
B1133105208695N01240570EA0001800056000000
B1133145208695N01240570EA0001700056000000
B1133185208695N01240570EA0001700056000000
B1133225208695N01240570EA0001700056000000
B1133265208695N01240570EA0001700056007000
B1133305208695N01240570EA0001700056000000
B1133345208695N01240570EA0001700056000000
B1133385208695N01240570EA0001700056000000
B1133425208695N01240570EA0001700056000000
B1133465208695N01240570EA0001700056000000
B1133505208695N01240570EA0001700056000000
B1133545208695N01240570EA0001700056000000
B1133585208695N01240570EA0001700056000000
B1134025208695N01240570EA0001700056000000
B1134065208695N01240570EA0001700056000000
B1134105208695N01240570EA0001700056000000
B1134145208695N01240570EA0001700056000000
B1134185208695N01240570EA0001700056000000
B1134225208695N01240570EA0001700056000000
B1134265208695N01240570EA0001700056000000
B1134305208695N01240570EA0001700056000000
B1134345208695N01240570EA0001700056000000
B1134385208695N01240570EA0001800056000000
B1134425208695N01240570EA0001700056000000
B1134465208695N01240570EA0001700056000000
B1134505208695N01240570EA0001800056000000
B1134545208695N01240570EA0001700056000000
B1134585208695N01240570EA0001600056000000
B1135025208695N01240570EA0001700056000000
B1135065208695N01240570EA0001700056000000
B1135105208695N01240570EA0001700056000000
B1135145208695N01240570EA0001700056000000
B1135185208695N01240570EA0001700056000000
B1135225208695N01240570EA0001600056000000
B1135265208695N01240570EA0001700056000000
B1135305208695N01240570EA0001700056000000
B1135345208695N01240570EA0001600056000000
B1135385208695N01240570EA0001700056000000
B1135425208695N01240570EA0001700056000000
B1135465208695N01240570EA0001700056000000
B1135505208695N01240570EA0001700056000000
B1135545208695N01240570EA0001700056000000
B1135585208695N01240570EA0001700056000000
B1136025208695N01240570EA0001600056000000
B1136065208695N01240570EA0001600056000000
B1136105208695N01240570EA0001600056000000
B1136145208695N01240570EA0001600056000000
B1136185208695N01240570EA0001600056000000
B1136225208695N01240570EA0001600056000000
B1136265208695N01240570EA0001600056007000
B1136305208695N01240570EA0001600056000000
B1136345208695N01240570EA0001600056000000
B1136385208695N01240570EA0001600056000000
B1136425208695N01240570EA0001500056000000
B1136465208695N01240570EA0001500056000000
B1136505208695N01240570EA0001600056009000
B1136545208695N01240570EA0001500056009000
B1136585208695N01240570EA0001600056012000
B1137025208695N01240570EA0001600056012000
B1137065208695N01240570EA0001500056017000
B1137105208695N01240570EA0001500056017000
B1137145208695N01240570EA0001500056014000
B1137185208695N01240570EA0001500056012000
B1137225208695N01240570EA0001600056012000
B1137265208695N01240570EA0001600056000000
B1137305208695N01240570EA0001500056012000
B1137345208695N01240570EA0001500056007000
B1137385208695N01240570EA0001500056007000
B1137425208695N01240570EA0001500056009000
B1137465208695N01240570EA0001500056007000
B1137505208695N01240570EA0001500056007000
B1137545208695N01240570EA0001500056000000
B1137585208695N01240570EA0001500056000000
B1138025208695N01240570EA0001500056009000
B1138065208695N01240570EA0001500056000000
B1138105208695N01240570EA0001500056000000
B1138145208695N01240570EA0001500056007000
B1138185208695N01240570EA0001500056000000
B1138225208695N01240570EA0001500056000000
B1138265208695N01240570EA0001500056000000
B1138305208695N01240575EA0001500056000000
B1138345208695N01240575EA0001500056000000
B1138385208695N01240575EA0001500056014000
B1138425208695N01240575EA0001600056000000
B1138465208695N01240575EA0001500056007000
B1138505208695N01240575EA0001500056000000
B1138545208695N01240575EA0001600056000000
B1138585208695N01240575EA0001600056007000
B1139025208695N01240575EA0001600056012000
B1139065208695N01240575EA0001600056014000
B1139105208695N01240575EA0001600056012000
B1139145208695N01240575EA0001700056000000
B1139185208695N01240575EA0001700056000000
B1139225208695N01240575EA0001700056017000
B1139265208695N01240575EA0001600056012000
B1139305208695N01240575EA0001700056014000
B1139345208695N01240575EA0001600056014000
B1139385208695N01240575EA0001700064009000
B1139425208695N01240575EA0001700064000000
B1139465208695N01240575EA0001700064000000
B1139505208695N01240575EA0001700064000000
B1139545208695N01240575EA0001700064000000
B1139585208695N01240575EA0001700064012000
B1140025208695N01240575EA0001700064000000
B1140065208695N01240575EA0001700064009000
B1140105208695N01240575EA0001700064007000
B1140145208695N01240575EA0001700064000000
B1140185208695N01240575EA0001700064007000
B1140225208695N01240575EA0001700064007000
B1140265208695N01240575EA0001700064000000
B1140305208695N01240575EA0001700064000000
B1140345208695N01240575EA0001700064007000
B1140385208695N01240575EA0001800064000000
B1140425208695N01240575EA0001800064007000
B1140465208695N01240570EA0001800064000000
B1140505208695N01240570EA0001800072012000
B1140545208695N01240570EA0001800072000000
B1140585208695N01240570EA0001800072009000
B1141025208695N01240570EA0001800072012000
B1141065208695N01240575EA0001800072000000
B1141105208695N01240575EA0001800072007000
B1141145208695N01240575EA0001800072000000
B1141185208695N01240570EA0001800072000000
B1141225208695N01240570EA0001800072000000
B1141265208695N01240570EA0001800072000000
B1141305208695N01240570EA0001800072000000
B1141345208695N01240570EA0001800072000000
B1141385208700N01240570EA0001800072000000
B1141425208700N01240570EA0001800072000000
B1141465208700N01240570EA0001900072000000
B1141505208700N01240570EA0001900072000000
B1141545208700N01240570EA0001900072009000
B1141585208700N01240570EA0001900072007000
B1142025208700N01240570EA0001900072012000
B1142065208700N01240570EA0001900072000000
B1142105208700N01240570EA0001900072007000
B1142145208700N01240570EA0001900072000000
B1142185208700N01240570EA0001900072007000
B1142225208700N01240570EA0001900072000000
B1142265208700N01240570EA0001900072000000
B1142305208700N01240570EA0001900072000000
B1142345208700N01240570EA0001900072000000
B1142385208700N01240570EA0001900072000000
B1142425208700N01240570EA0001900072000000
B1142465208700N01240570EA0001800072000000
B1142505208700N01240570EA0001900072000000
B1142545208700N01240570EA0001900072000000
B1142585208700N01240570EA0001900072000000
B1143025208700N01240570EA0001900072000000
B1143065208700N01240570EA0001900072000000
B1143105208700N01240570EA0001900072000000
B1143145208700N01240570EA0001900072000000
B1143185208700N01240570EA0001900072000000
B1143225208700N01240570EA0001900072000000
B1143265208700N01240570EA0001900072000000
B1143305208700N01240570EA0001900072000000
B1143345208700N01240570EA0001900072000000
B1143385208700N01240570EA0001900072000000
B1143425208700N01240570EA0001900072000000
B1143465208700N01240570EA0001900072000000
B1143505208700N01240570EA0001900072000000
B1143545208700N01240570EA0001900072007000
B1143585208700N01240570EA0001900072000000
B1144025208700N01240570EA0001900072007000
B1144065208700N01240570EA0001900072000000
B1144105208700N01240570EA0001900072009000
B1144145208700N01240570EA0001900072007000
B1144185208700N01240570EA0001900072007000
B1144225208700N01240570EA0001900072000000
B1144265208700N01240570EA0001900072000000
B1144305208700N01240570EA0001900072000000
B1144345208700N01240570EA0001900072000000
B1144385208700N01240570EA0001900072000000
B1144425208700N01240570EA0001900072000000
B1144465208700N01240570EA0001900072000000
B1144505208700N01240570EA0001900072000000
B1144545208700N01240570EA0001900072000000
B1144585208700N01240570EA0001900072000000
B1145025208700N01240570EA0001900072000000
B1145065208700N01240570EA0001900072000000
B1145105208700N01240570EA0001900072000000
B1145145208700N01240570EA0001900072007000
B1145185208700N01240570EA0001900072000000
B1145225208700N01240570EA0001900072000000
B1145265208700N01240570EA0001900072000000
B1145305208700N01240570EA0001900072000000
B1145345208700N01240570EA0001900072000000
B1145385208700N01240570EA0001900072000000
B1145425208700N01240570EA0001900072007000
B1145465208700N01240570EA0001900072007000
B1145505208700N01240570EA0001900072000000
B1145545208700N01240570EA0001900072007000
B1145585208700N01240570EA0001900072000000
B1146025208700N01240570EA0001900072000000
B1146065208700N01240570EA0001900072000000
B1146105208700N01240570EA0001900072000000
B1146145208700N01240570EA0001900072000000
B1146185208700N01240570EA0001900072000000
B1146225208700N01240570EA0001900072000000
B1146265208700N01240570EA0001900072000000
B1146305208700N01240570EA0001900072000000
B1146345208700N01240570EA0001900072000000
B1146385208700N01240570EA0001900072000000
B1146425208700N01240570EA0001900072000000
B1146465208700N01240570EA0001900072000000
B1146505208700N01240570EA0001900072007000
B1146545208700N01240570EA0001900072000000
B1146585208700N01240570EA0001900072000000
B1147025208700N01240570EA0001900072000000
B1147065208700N01240570EA0001900072000000
B1147105208700N01240570EA0001900072000000
B1147145208700N01240570EA0001900072007000
B1147185208700N01240570EA0001900072000000
B1147225208700N01240570EA0001900072000000
B1147265208700N01240570EA0001900072000000
B1147305208700N01240570EA0001900072000000
B1147345208700N01240570EA0001900072000000
B1147385208700N01240570EA0001900072000000
B1147425208700N01240570EA0001900072000000
B1147465208700N01240570EA0001900072007000
B1147505208700N01240570EA0001900072000000
B1147545208700N01240570EA0001900072000000
B1147585208700N01240570EA0001900072000000
B1148025208700N01240570EA0001900072000000
B1148065208700N01240570EA0001900072014000
B1148105208700N01240570EA0001900072009000
B1148145208700N01240570EA0001900072000000
B1148185208700N01240570EA0001900072000000
B1148225208700N01240570EA0001900072000000
B1148265208700N01240570EA0001900072000000
B1148305208700N01240570EA0001900072000000
B1148345208700N01240570EA0001900072000000
B1148385208700N01240570EA0001900072007000
B1148425208700N01240570EA0001900072012000
B1148465208700N01240570EA0001900072007000
B1148505208700N01240570EA0001900072007000
B1148545208700N01240570EA0002000072000000
B1148585208700N01240570EA0001900072000000
B1149025208700N01240570EA0001900072000000
B1149065208700N01240570EA0001900072000000
B1149105208700N01240570EA0001900072000000
B1149145208700N01240570EA0001900072000000
B1149185208700N01240570EA0001900072007000
B1149225208700N01240570EA0001900072000000
B1149265208700N01240570EA0001900072000000
B1149305208700N01240570EA0001900072007000
B1149345208700N01240570EA0002000072000000
B1149385208700N01240570EA0002000072000000
B1149425208700N01240570EA0002000064000000
B1149465208700N01240570EA0002000072000000
B1149505208700N01240570EA0001900072007000
B1149545208700N01240570EA0002000072000000
B1149585208700N01240570EA0001900064000000
B1150025208700N01240570EA0002000064007000
B1150065208700N01240570EA0001900064000000
B1150105208700N01240570EA0001900064000000
B1150145208700N01240570EA0001900064000000
B1150185208700N01240570EA0001900064017000
B1150225208700N01240570EA0001900064007000
B1150265208700N01240570EA0001900064007000
B1150305208700N01240570EA0001900064007000
B1150345208700N01240570EA0001900064000000
B1150385208700N01240570EA0001900064000000
B1150425208700N01240570EA0001900064000000
B1150465208700N01240570EA0001900064000000
B1150505208700N01240570EA0001900064000000
B1150545208700N01240570EA0001900064000000
B1150585208700N01240570EA0001900064000000
B1151025208700N01240570EA0001900064000000
B1151065208700N01240570EA0001900064000000
B1151105208700N01240570EA0001800064000000
B1151145208700N01240570EA0001900064000000
B1151185208700N01240570EA0001900064000000
B1151225208700N01240570EA0001800064000000
B1151265208700N01240570EA0001900064000000
B1151305208700N01240570EA0001900064000000
B1151345208700N01240570EA0001900064000000
B1151385208700N01240570EA0001900064000000
B1151425208700N01240570EA0001800064000000
B1151465208700N01240570EA0001800064007000
B1151505208700N01240570EA0001900064000000
B1151545208700N01240570EA0001900064007000
B1151585208700N01240570EA0001800064009000
B1152025208700N01240570EA0001900064009000
B1152065208700N01240570EA0001900064007000
B1152105208700N01240570EA0001800064000000
B1152145208700N01240570EA0001800064007000
B1152185208700N01240570EA0001800064000000
B1152225208700N01240570EA0001800064009000
B1152265208700N01240570EA0001800064000000
B1152305208700N01240570EA0001700064000000
B1152345208700N01240570EA0001700064000000
B1152385208700N01240570EA0001800064009000
B1152425208700N01240570EA0001700064000000
B1152465208700N01240570EA0001800064000000
B1152505208700N01240570EA0001800064009000
B1152545208700N01240570EA0001800064009000
B1152585208700N01240570EA0001800064012000
B1153025208700N01240570EA0001800064009000
B1153065208700N01240570EA0001800064007000
B1153105208700N01240570EA0001800064012000
B1153145208700N01240570EA0001700064009000
B1153185208700N01240570EA0001700064012000
B1153225208700N01240570EA0001700064017000
B1153265208700N01240570EA0001700064014000
B1153305208700N01240570EA0001700064000000
B1153345208700N01240570EA0001700064000000
B1153385208700N01240570EA0001700064012000
B1153425208700N01240570EA0001700064009000
B1153465208700N01240570EA0001800064009000
B1153505208700N01240570EA0001800064026000
B1153545208700N01240570EA0001800064017000
B1153585208700N01240570EA0001700064015000
B1154025208700N01240570EA0001700064014000
B1154065208700N01240570EA0001700064012000
B1154105208700N01240570EA0001700064007000
B1154145208700N01240570EA0001700064007000
B1154185208700N01240570EA0001700064000000
B1154225208700N01240570EA0001700064007000
B1154265208700N01240570EA0001700064007000
B1154305208700N01240570EA0001700064009000
B1154345208700N01240570EA0001700064012000
B1154385208700N01240570EA0001700064009000
B1154425208700N01240570EA0001700064007000
B1154465208700N01240575EA0001700064007000
B1154505208700N01240575EA0001700064009000
B1154545208700N01240575EA0001700064007000
B1154585208700N01240575EA0001600064009000
B1155025208700N01240570EA0001700064007000
B1155065208700N01240570EA0001600064007000
B1155105208700N01240570EA0001700064000000
B1155145208700N01240570EA0001600064007000
B1155185208700N01240570EA0001600064007000
B1155225208700N01240570EA0001700064000000
B1155265208700N01240575EA0001700064000000
B1155305208700N01240570EA0001700064000000
B1155345208700N01240570EA0001700064000000
B1155385208700N01240570EA0001700064000000
B1155425208700N01240570EA0001700064000000
B1155465208700N01240570EA0001800064009000
B1155505208700N01240570EA0001700064007000
B1155545208700N01240570EA0001700064007000
B1155585208700N01240570EA0001700064009000
B1156025208700N01240570EA0001700064000000
B1156065208700N01240570EA0001700064009000
B1156105208700N01240575EA0001700064000000
B1156145208700N01240575EA0001700064007000
B1156185208700N01240575EA0001700064007000
B1156225208700N01240575EA0001700064007000
B1156265208700N01240575EA0001800064000000
B1156305208700N01240575EA0001700064000000
B1156345208700N01240575EA0001800064000000
B1156385208700N01240575EA0001700064000000
B1156425208700N01240575EA0001700064000000
B1156465208700N01240575EA0001800064000000
B1156505208700N01240575EA0001800064000000
B1156545208700N01240575EA0001700064009000
B1156585208700N01240575EA0001800064000000
B1157025208700N01240575EA0001800064000000
B1157065208700N01240575EA0001800064000000
B1157105208700N01240575EA0001900064000000
B1157145208700N01240575EA0001800064000000
B1157185208700N01240575EA0001900064000000
B1157225208700N01240575EA0001900064000000
B1157265208700N01240575EA0002000064000000
B1157305208700N01240575EA0001900064000000
B1157345208700N01240575EA0001800064000000
B1157385208700N01240575EA0001900064000000
B1157425208700N01240575EA0001800064000000
B1157465208700N01240575EA0001800064000000
B1157505208700N01240575EA0001800064000000
B1157545208700N01240575EA0001800064000000
B1157585208700N01240575EA0001800064000000
B1158025208700N01240575EA0001800064000000
B1158065208700N01240575EA0001800064000000
B1158105208700N01240575EA0001800064000000
B1158145208700N01240575EA0001900064000000
B1158185208700N01240575EA0001800064000000
B1158225208700N01240575EA0001900064000000
B1158265208700N01240575EA0001800064000000
B1158305208700N01240575EA0001800064000000
B1158345208700N01240575EA0001800064000000
B1158385208700N01240575EA0001800064000000
B1158425208700N01240575EA0001800064000000
B1158465208700N01240575EA0001800056000000
B1158505208700N01240575EA0001800056000000
B1158545208700N01240575EA0001800056000000
B1158585208700N01240575EA0001800056000000
B1159025208700N01240575EA0001900064000000
B1159065208700N01240575EA0001900056000000
B1159105208700N01240575EA0001900056000000
B1159145208700N01240575EA0001900056000000
B1159185208700N01240575EA0001800064000000
B1159225208700N01240575EA0001800064000000
B1159265208700N01240575EA0001800064000000
B1159305208700N01240575EA0001800064000000
B1159345208700N01240575EA0001800064000000
B1159385208700N01240575EA0001800064000000
B1159425208700N01240575EA0001800064000000
B1159465208700N01240575EA0001800064000000
B1159505208700N01240575EA0001800064000000
B1159545208700N01240575EA0001800064000000
B1159585208700N01240575EA0001800064000000
B1200025208700N01240575EA0001800064000000
B1200065208700N01240575EA0001800064000000
B1200105208700N01240575EA0001800064000000
B1200145208700N01240575EA0001800064000000
B1200185208700N01240575EA0001900064000000
B1200225208700N01240575EA0001900064000000
B1200265208700N01240575EA0001900064000000
B1200305208700N01240575EA0001900064000000
B1200345208700N01240575EA0001900064000000
B1200385208700N01240575EA0001900064000000
B1200425208700N01240575EA0001900064000000
B1200465208700N01240575EA0001900064000000
B1200505208700N01240575EA0001900064000000
B1200545208700N01240575EA0001800064000000
B1200585208700N01240575EA0001900064000000
B1201025208700N01240575EA0001900064000000
B1201065208700N01240575EA0001900064000000
B1201105208700N01240575EA0001900064000000
B1201145208700N01240575EA0001800064000000
B1201185208700N01240575EA0001900064000000
B1201225208700N01240575EA0001800064000000
B1201265208700N01240575EA0001900064000000
B1201305208700N01240575EA0001900064000000
B1201345208700N01240575EA0001900064000000
B1201385208700N01240575EA0001900064000000
B1201425208700N01240575EA0001900064000000
B1201465208700N01240575EA0001800064000000
B1201505208700N01240575EA0001900064000000
B1201545208700N01240575EA0001900064000000
B1201585208700N01240575EA0001900064000000
B1202025208700N01240575EA0001900064000000
B1202065208700N01240575EA0001900064000000
B1202105208700N01240575EA0001900064000000
B1202145208700N01240575EA0001900064000000
B1202185208700N01240575EA0001800064000000
B1202225208700N01240575EA0001900064000000
B1202265208700N01240575EA0001800064000000
B1202305208700N01240575EA0001800064000000
B1202345208700N01240575EA0001800064000000
B1202385208700N01240575EA0001800064000000
B1202425208700N01240575EA0001800064000000
B1202465208700N01240575EA0001900064000000
B1202505208700N01240575EA0001800064000000
B1202545208700N01240575EA0001800064000000
B1202585208700N01240575EA0001800064000000
B1203025208700N01240575EA0001800064000000
B1203065208700N01240575EA0001800064000000
B1203105208700N01240575EA0001800064000000
B1203145208700N01240575EA0001900064000000
B1203185208700N01240575EA0001900064000000
B1203225208700N01240575EA0001800064000000
B1203265208700N01240575EA0001800064000000
B1203305208700N01240575EA0001800064000000
B1203345208700N01240575EA0001800064000000
B1203385208700N01240575EA0001900064000000
B1203425208700N01240575EA0001800064000000
B1203465208700N01240575EA0001900064000000
B1203505208700N01240575EA0001900064000000
B1203545208700N01240575EA0001900064000000
B1203585208700N01240575EA0001800064000000
B1204025208700N01240575EA0001900064000000
B1204065208700N01240575EA0001800064000000
B1204105208700N01240575EA0001900064000000
B1204145208700N01240575EA0001900064000000
B1204185208700N01240575EA0001800064000000
B1204225208700N01240575EA0001900064000000
B1204265208700N01240575EA0001800064000000
B1204305208700N01240575EA0001900064000000
B1204345208700N01240575EA0001800064000000
B1204385208700N01240575EA0001900064000000
B1204425208700N01240575EA0001900064000000
B1204465208700N01240575EA0001900064000000
B1204505208700N01240575EA0001800064000000
B1204545208700N01240575EA0001800064000000
B1204585208700N01240575EA0001800064000000
B1205025208700N01240575EA0001800064000000
B1205065208700N01240575EA0001800064000000
B1205105208700N01240575EA0001800064000000
B1205145208700N01240575EA0001700064000000
B1205185208700N01240575EA0001700064000000
B1205225208700N01240575EA0001800064000000
B1205265208700N01240575EA0001700064000000
B1205305208700N01240575EA0001800064000000
B1205345208700N01240575EA0001700064000000
B1205385208700N01240575EA0001700064000000
B1205425208700N01240575EA0001800064000000
B1205465208700N01240575EA0001800064000000
B1205505208700N01240575EA0001800064000000
B1205545208700N01240575EA0001700064007000
B1205585208700N01240575EA0001700064000000
B1206025208700N01240575EA0001700064009000
B1206065208700N01240575EA0001700064007000
B1206105208700N01240575EA0001700064007000
B1206145208700N01240575EA0001700064000000
B1206185208700N01240575EA0001700064007000
B1206225208700N01240575EA0001700064007000
B1206265208700N01240575EA0001700064007000
B1206305208700N01240575EA0001700064007000
B1206345208700N01240575EA0001700064009000
B1206385208700N01240575EA0001700064007000
B1206425208700N01240575EA0001700064007000
B1206465208700N01240575EA0001700064007000
B1206505208700N01240575EA0001700064007000
B1206545208700N01240575EA0001700064012000
B1206585208700N01240575EA0001700064000000
B1207025208700N01240575EA0001700064000000
B1207065208700N01240575EA0001700064000000
B1207105208700N01240575EA0001700064007000
B1207145208700N01240575EA0001700064007000
B1207185208700N01240575EA0001700064007000
B1207225208700N01240575EA0001700064009000
B1207265208700N01240575EA0001700064007000
B1207305208700N01240575EA0001700064021000
B1207345208700N01240575EA0001700064017000
B1207385208700N01240575EA0001700064022000
B1207425208700N01240575EA0001700064000000
B1207465208695N01240570EA0001700064042030
B1207505208691N01240545EA0001400064056200
B1207545208679N01240495EA0001300064089375
B1207585208658N01240425EA0001200064118100
B1208025208633N01240333EA0001400064128100
K120802000005
B1208065208604N01240229EA0001700064136010
B1208105208570N01240116EA0002100072140000
B1208145208541N01240000EA0003100088142000
B1208185208512N01239887EA0004800104138000
B1208225208491N01239779EA0006400112127000
K120822000013
B1208265208466N01239675EA0007000128129010
B1208305208441N01239566EA0008100136126010
B1208345208412N01239454EA0009400152130000
B1208385208375N01239350EA0010200160134000
B1208425208337N01239254EA0011100168125000
K120842000012
B1208465208291N01239166EA0012500184131000
B1208505208241N01239083EA0014300200151010
B1208545208195N01239000EA0016100216132010
B1208585208141N01238925EA0017700240133010
B1209025208087N01238850EA0019000248134010
K120902000017
B1209065208033N01238779EA0020000264127000
B1209105207979N01238716EA0020900272124000
B1209145207929N01238645EA0022000280125010
B1209185207879N01238570EA0023100288127010
B1209225207833N01238500EA0024300304128000
K120922000020
B1209265207787N01238416EA0025700320131010
B1209305207737N01238333EA0027300336144010
B1209345207695N01238245EA0029100352134010
B1209385207654N01238158EA0030700368137000
B1209425207612N01238066EA0032200384132020
K120942000023
B1209465207570N01237970EA0033100400132020
B1209505207529N01237875EA0034000408132000
B1209545207495N01237779EA0035100416126000
B1209585207475N01237670EA0036200432122000
B1210025207458N01237558EA0036800440121000
K121002000019
B1210065207441N01237445EA0037100440124000
B1210105207425N01237333EA0037600440122000
B1210145207404N01237225EA0038700456126010
B1210185207379N01237108EA0039000456127000
B1210225207345N01237004EA0039900464123000
K121022000011
B1210265207304N01236916EA0040900480121000
B1210305207254N01236858EA0042100488128010
B1210345207191N01236816EA0043400504126000
B1210385207129N01236795EA0044300512123000
B1210425207062N01236791EA0046000528137020
K121042000011
B1210465206995N01236820EA0047200544126010
B1210505206937N01236879EA0048700560122000
B1210545206883N01236954EA0050500576126010
B1210585206841N01237058EA0052100592125020
B1211025206816N01237170EA0053100600125000
K121102000011
B1211065206812N01237295EA0053800608121000
B1211105206820N01237420EA0054600616117010
B1211145206850N01237541EA0055600624122000
B1211185206887N01237658EA0056000632120000
B1211225206933N01237766EA0056800640116000
K121122000011
B1211265206991N01237866EA0056700640119000
B1211305207058N01237954EA0057100640117010
B1211345207116N01238045EA0057800648126000
B1211385207166N01238145EA0059300664122010
B1211425207220N01238250EA0059900672118000
K121142180001
B1211465207266N01238354EA0060500680101010
B1211505207291N01238454EA0059800672096000
B1211545207308N01238570EA0058400664108000
B1211585207362N01238662EA0059000664108000
B1212025207433N01238679EA0058400656105000
K121202180012
B1212065207512N01238650EA0056500632111000
B1212105207587N01238604EA0054800616117000
B1212145207666N01238554EA0053700608119000
B1212185207745N01238500EA0052800600117000
B1212225207829N01238450EA0052600592115000
K121222180016
B1212265207908N01238408EA0051800584116000
B1212305207987N01238362EA0051000576117000
B1212345208070N01238325EA0051200576109000
B1212385208150N01238283EA0049900568111000
B1212425208229N01238245EA0050100568101000
K121242180023
B1212465208304N01238208EA0050400568095000
B1212505208375N01238150EA0050700576103000
B1212545208454N01238129EA0051000576096000
B1212585208520N01238195EA0051200576096000
B1213025208566N01238300EA0051500584100000
K121302180026
B1213065208583N01238412EA0051500584095000
B1213105208550N01238487EA0051500584095000
B1213145208500N01238479EA0051600584099000
B1213185208491N01238395EA0052400592096000
B1213225208533N01238316EA0052400592098000
K121322180026
B1213265208608N01238308EA0052900600092000
B1213305208658N01238395EA0052800600095000
B1213345208650N01238504EA0052300592102000
B1213385208600N01238550EA0052400592108000
B1213425208550N01238545EA0052700592104000
K121342204024
B1213465208512N01238487EA0052900600099000
B1213505208537N01238391EA0053000600099000
B1213545208612N01238383EA0053300600096000
B1213585208666N01238475EA0053600600099000
B1214025208695N01238583EA0053400600098000
K121402196025
B1214065208720N01238700EA0053600600095000
B1214105208737N01238820EA0053700608100000
B1214145208737N01238937EA0053900608097000
B1214185208712N01239029EA0053500608093000
B1214225208662N01239062EA0052400592100000
K121422200025
B1214265208604N01239058EA0052800592108000
B1214305208550N01239083EA0053000600100000
B1214345208520N01239170EA0054300608094000
B1214385208554N01239275EA0054300608102000
B1214425208641N01239254EA0054200000116000
K121442180026
B1214465208625N01239158EA0055500616107000
B1214505208575N01239212EA0056200624107000
B1214545208608N01239316EA0057300000102000
B1214585208683N01239308EA0058100624110000
B1215025208695N01239212EA0059300632101000
K121502186019
B1215065208645N01239208EA0059100632107000
B1215105208633N01239312EA0060200000100000
B1215145208691N01239395EA0061000648111000
B1215185208762N01239341EA0061900000104000
B1215225208733N01239270EA0062500664103000
K121522198021
B1215265208683N01239333EA0063500672103000
B1215305208691N01239445EA0064100000107000
B1215345208762N01239479EA0064100680114000
B1215385208770N01239375EA0065000696105000
B1215425208716N01239395EA0066500712101000
K121542196014
B1215465208725N01239508EA0067600720098000
B1215505208791N01239545EA0067700720103000
B1215545208820N01239450EA0067700000110000
B1215585208766N01239429EA0068400744104000
B1216025208758N01239545EA0069100744110000
K121602214015
B1216065208825N01239595EA0070200752105000
B1216105208862N01239512EA0070500000101000
B1216145208816N01239454EA0070900760111000
B1216185208762N01239487EA0072300776103000
B1216225208762N01239604EA0072100000111000
K121622204020
B1216265208841N01239604EA0073100000103000
B1216305208845N01239504EA0073500784107000
B1216345208787N01239491EA0074600792103000
B1216385208750N01239570EA0075600808099000
B1216425208795N01239670EV0075300000113000
K121642196021
B1216465208829N01239587EA0075700000108000
B1216505208800N01239508EA0077500840101000
B1216545208750N01239487EA0079100856099000
B1216585208720N01239579EA0077800000111010
B1217025208800N01239641EA0078700856111000
K121702180026
B1217065208841N01239545EA0081000000101000
B1217105208795N01239512EA0081400872087000
B1217145208775N01239600EA0081200856094000
B1217185208841N01239654EA0081700856111000
B1217225208887N01239558EA0083600000101000
K121722170018
B1217265208841N01239512EA0084800896094000
B1217305208812N01239595EA0084500904107000
B1217345208866N01239675EA0085100904100000
B1217385208929N01239600EA0085700000103000
B1217425208904N01239512EA0086900000103000
K121742176018
B1217465208854N01239558EA0087900936097000
B1217505208879N01239662EA0087900936105000
B1217545208958N01239641EA0089300000102000
B1217585208970N01239537EA0090400952101000
B1218025208916N01239529EA0090900960105000
K121802182020
B1218065208912N01239641EA0091100960112000
B1218105208991N01239650EA0092400968103000
B1218145209004N01239545EA0093200976101000
B1218185208954N01239537EA0093900992099000
B1218225208933N01239629EA0094700992103000
K121822184019
B1218265208991N01239695EA0094500992101000
B1218305209054N01239604EA0096100000102000
B1218345209016N01239545EA0097101024099000
B1218385208975N01239608EA0097901024101000
B1218425209016N01239695EA0098301032097000
K121842180026
B1218465209087N01239666EA0098500000104000
B1218505209091N01239566EA0099800000103000
B1218545209037N01239562EA0100701056101000
B1218585209025N01239658EA0101301064104000
B1219025209091N01239708EA0101901056105000
K121902180026
B1219065209129N01239612EA0102400000108000
B1219105209083N01239566EA0103301088102000
B1219145209054N01239645EA0104401096100000
B1219185209112N01239725EA0104601088102000
B1219225209170N01239666EA0105000000105000
K121922186017
B1219265209154N01239579EA0106200000102000
B1219305209104N01239583EA0107201128095000
B1219345209058N01239641EA0107801136097000
B1219385209079N01239741EA0107300000101000
B1219425209150N01239754EA0107901136098000
K121942190016
B1219465209191N01239658EA0108300000099000
B1219505209166N01239575EA0108600000098000
B1219545209116N01239629EA0108701152105000
B1219585209150N01239725EA0109401160101000
K121958184018
B1220025209220N01239708EA0110600000093000
B1220065209241N01239612EA0110400000097000
B1220105209191N01239570EA0110801184099000
B1220145209158N01239641EA0111101184100000
B1220185209200N01239725EA0111101184107000
K122018180015
B1220225209270N01239683EA0111500000100000
B1220265209270N01239583EA0111900000100000
B1220305209216N01239579EA0111801192101000
B1220345209208N01239687EA0112501200098000
B1220385209270N01239737EA0113101208098000
K122038182017
B1220425209325N01239662EA0113200000101000
B1220465209295N01239575EA0113000000103000
B1220505209245N01239625EA0113601216102000
B1220545209262N01239725EA0114600000097000
B1220585209329N01239754EA0115101232090000
K122058184012
B1221025209370N01239670EA0114500000101000
B1221065209333N01239591EA0114001216106000
B1221105209287N01239654EA0115101232100000
B1221145209300N01239754EA0115401232100000
B1221185209375N01239779EA0115501224099000
K122118182013
B1221225209412N01239691EA0115300000099000
B1221265209391N01239600EA0115701240098000
B1221305209337N01239616EA0115801240098000
B1221345209329N01239720EA0115500000101000
B1221385209395N01239766EA0115701232103000
K122138186014
B1221425209445N01239683EA0115900000105000
B1221465209420N01239591EA0116000000102000
B1221505209362N01239616EA0116701240097000
B1221545209362N01239725EA0115801232105000
B1221585209437N01239766EA0116801240098000
K122158180017
B1222025209491N01239691EA0117600000094000
B1222065209470N01239600EA0117000000104000
B1222105209416N01239600EA0117901264096000
B1222145209387N01239695EA0117301256102000
B1222185209437N01239779EA0117401256104000
K122218184016
B1222225209508N01239741EA0118200000097000
B1222265209525N01239637EA0117900000105000
B1222305209475N01239587EA0118701272098000
B1222345209425N01239641EA0118801272098000
B1222385209429N01239750EA0118800000101000
K122238188015
B1222425209483N01239820EA0119801280094000
B1222465209545N01239854EA0120501280088000
B1222505209612N01239841EA0120101280093000
B1222545209670N01239770EA0118801264106000
B1222585209716N01239670EA0119301272103000
K122258196011
B1223025209758N01239575EA0120101280103000
B1223065209812N01239491EA0121101288096000
B1223105209887N01239500EA0121001288096000
B1223145209925N01239595EA0121101296093000
B1223185209904N01239695EA0121301296099000
K122318180026
B1223225209850N01239725EA0121701304102000
B1223265209816N01239654EA0122801312093000
B1223305209845N01239562EA0123101320091000
B1223345209920N01239541EA0122801320093000
B1223385209979N01239620EA0123501328098000
K122338186018
B1223425209987N01239729EA0124001328096000
B1223465209933N01239766EA0123901328093000
B1223505209908N01239687EA0125201336090000
B1223545209945N01239604EA0125401344092000
B1223585210016N01239591EA0125501344096000
K122358188017
B1224025210070N01239679EA0125601352099000
B1224065210054N01239783EA0126201352099000
B1224105210004N01239787EA0126901360094000
B1224145209987N01239700EA0127001360096000
B1224185210037N01239620EA0127201360095000
K122418194016
B1224225210112N01239637EA0127701376100000
B1224265210150N01239733EA0128701384093000
B1224305210125N01239816EA0128901384097000
B1224345210075N01239800EA0129001392094000
B1224385210062N01239708EA0129501392091000
K122438186019
B1224425210108N01239625EA0129901400091000
B1224465210183N01239616EA0130201400091000
B1224505210245N01239679EA0130401408096000
B1224545210241N01239783EA0130001400102000
B1224585210187N01239791EA0131001408092000
K122458180015
B1225025210162N01239712EA0131501416085000
B1225065210175N01239612EA0131401416093000
B1225105210225N01239533EA0131601416090000
B1225145210295N01239516EA0131701416094000
B1225185210345N01239595EA0132201424090000
K122518182014
B1225225210337N01239695EA0132501424098000
B1225265210291N01239737EA0132901424095000
B1225305210245N01239691EA0133201432093000
B1225345210233N01239600EA0133601432091000
B1225385210266N01239508EA0133601432093000
K122538176019
B1225425210329N01239475EA0133701440087000
B1225465210395N01239500EA0133601440089000
B1225505210454N01239566EA0133201432096000
B1225545210491N01239662EA0133201432093000
B1225585210508N01239766EA0133401432097000
K122558176018
B1226025210483N01239854EA0133201432099000
B1226065210429N01239854EA0133701440094000
B1226105210379N01239816EA0133801440096000
B1226145210329N01239787EA0133601432100000
B1226185210287N01239725EA0133201432101000
K122618180026
B1226225210241N01239687EA0133601432094000
B1226265210191N01239725EA0132801432096000
B1226305210158N01239808EA0132601424100000
B1226345210141N01239908EA0131501416108000
B1226385210120N01240012EA0130501400106000
K122638180025
B1226425210104N01240125EA0131001408105000
B1226465210083N01240229EA0130401400119000
B1226505210079N01240333EA0132301416098000
B1226545210125N01240416EA0132601416099000
B1226585210200N01240379EA0131300000107000
K122658180010
B1227025210195N01240270EA0131000000103000
B1227065210137N01240233EA0131301408102000
B1227105210079N01240237EA0131501408100000
B1227145210025N01240258EA0130801408104000
B1227185209970N01240270EA0130601400106000
K122718180010
B1227225209912N01240270EA0129501392105000
B1227265209854N01240300EA0128701384109000
B1227305209804N01240362EA0128201376110000
B1227345209762N01240454EA0126501360125000
B1227385209716N01240554EA0126201360125000
K122738180010
B1227425209675N01240645EA0125201344123000
B1227465209629N01240737EA0124801344126000
B1227505209583N01240825EA0124001336121000
B1227545209537N01240908EA0123301328122000
B1227585209491N01241000EA0123201328119000
K122758000008
B1228025209450N01241087EA0122401320121000
B1228065209408N01241183EA0121501312125000
B1228105209366N01241283EA0120701304122000
B1228145209329N01241387EA0119501288122000
B1228185209291N01241491EA0119101288118000
K122818000006
B1228225209254N01241591EA0118701280119000
B1228265209208N01241695EA0115801248133000
B1228305209154N01241808EA0114101232144000
B1228345209095N01241908EA0114101232137000
B1228385209050N01242020EA0114401240130000
K122838000005
B1228425209004N01242129EA0113701232133000
B1228465208975N01242254EA0113101224130000
B1228505208962N01242391EA0112601216132000
B1228545208950N01242529EA0112401216130000
B1228585208941N01242662EA0113701224122000
K122858000003
B1229025208966N01242779EA0114401232111000
B1229065209000N01242887EA0113901232111000
B1229105209029N01243004EA0112201216119000
B1229145209037N01243137EA0112001216120000
B1229185209025N01243258EA0111601208119000
K122918000002
B1229225208987N01243358EA0111301208115000
B1229265208937N01243433EA0110401192124000
B1229305208900N01243533EA0110701200120000
B1229345208866N01243629EA0110101192123000
B1229385208829N01243733EA0108701176128000
K122938000002
B1229425208808N01243850EA0108101176119000
B1229465208787N01243962EA0109101184112000
B1229505208766N01244066EA0110201192103000
B1229545208750N01244162EA0110801200097000
B1229585208733N01244266EA0111101200097000
K122958180001
B1230025208712N01244366EA0111001200101000
B1230065208683N01244458EA0110501200104000
B1230105208645N01244533EA0109701192106000
B1230145208595N01244595EA0109301184111000
B1230185208545N01244645EA0107501168118000
K123018180000
B1230225208483N01244691EA0106801160125000
B1230265208425N01244754EA0105701152119000
B1230305208366N01244808EA0104501136117000
B1230345208300N01244795EA0103201128124000
B1230385208245N01244725EA0101201104135000
K123038180000
B1230425208183N01244641EA0097401064156000
B1230465208112N01244537EA0093501024184000
B1230505208041N01244420EA0093201024176000
B1230545207979N01244308EA0092801016169000
B1230585207912N01244191EA0091601008172000
K123058000016
B1231025207850N01244070EA0089600984180000
B1231065207779N01243945EA0090000992165010
B1231105207712N01243837EA0092801016152000
B1231145207654N01243733EA0093501024155000
B1231185207595N01243629EA0093201024145000
K123118000013
B1231225207554N01243512EA0092201008144000
B1231265207504N01243391EA0092801016143000
B1231305207450N01243316EA0098001064104000
B1231345207408N01243291EA0098501072097000
B1231385207375N01243366EA0098601072095000
K123138000013
B1231425207391N01243475EA0098701072094000
B1231465207450N01243545EA0099001080098000
B1231505207529N01243550EA0099901088098000
B1231545207562N01243458EA0099801080096000
B1231585207520N01243395EA0099901080106000
K123158190020
B1232025207487N01243470EA0101301096090000
B1232065207525N01243570EA0101301096103000
B1232105207600N01243575EA0101901096100000
B1232145207625N01243475EA0102201104101000
B1232185207587N01243404EA0102701104098000
K123218184016
B1232225207545N01243454EA0103601112095000
B1232265207554N01243558EA0104001112096000
B1232305207583N01243662EA0104801120092000
B1232345207654N01243691EA0104501120108000
B1232385207687N01243591EA0104901120105000
K123238172013
B1232425207650N01243520EA0106201136097000
B1232465207608N01243575EA0106601144098000
B1232505207625N01243683EA0106901144102000
B1232545207683N01243758EA0108001152100000
B1232585207754N01243795EA0108501160091000
K123258000013
B1233025207816N01243737EA0107001144095000
B1233065207808N01243629EA0106801136107000
B1233105207758N01243562EA0108001144104000
B1233145207712N01243512EA0108001144103000
B1233185207666N01243587EA0108401152107000
K123318000013
B1233225207704N01243687EA0108501152101000
B1233265207770N01243679EA0109201144099000
B1233305207791N01243575EA0109801152097000
B1233345207741N01243537EA0109500000103000
B1233385207708N01243616EA0109401152100000
K123338184015
B1233425207745N01243704EA0109501152094000
B1233465207812N01243754EA0110101160100000
B1233505207879N01243808EA0110501168096000
B1233545207916N01243895EA0109301152098000
B1233585207912N01244004EA0108401144104000
K123358000013
B1234025207891N01244095EA0108301144100000
B1234065207866N01244183EA0108801152098000
B1234105207820N01244237EA0108601152098000
B1234145207766N01244254EA0109201160095000
B1234185207716N01244262EA0109401160095000
K123418000013
B1234225207670N01244212EA0109001160095000
B1234265207683N01244112EA0109001160091000
B1234305207750N01244066EA0109001168094000
B1234345207820N01244112EA0109601168091000
B1234385207879N01244191EA0109901176096000
K123438000013
B1234425207945N01244250EA0109901176096000
B1234465208004N01244183EA0108401160107000
B1234505207970N01244087EA0108401152105000
B1234545207916N01244112EA0111001176095000
B1234585207920N01244220EA0110901176102000
K123458000013
B1235025208000N01244258EA0110401176107000
B1235065208041N01244162EA0111101184093000
B1235105208000N01244087EA0110900000111000
B1235145207941N01244066EA0112701200105000
B1235185207904N01244137EA0112501200104000
K123518176021
B1235225207962N01244229EA0111701184110000
B1235265208029N01244158EA0113301208100000
B1235305208008N01244070EA0114201216097000
B1235345207954N01244083EA0114301216093000
B1235385207962N01244195EA0113901208106000
K123538186026
B1235425208041N01244212EA0114101208106000
B1235465208083N01244120EA0115401224101000
B1235505208045N01244045EA0115300000102000
B1235545208000N01244116EA0115301224109000
B1235585208058N01244208EA0116100000103000
K123558194032
B1236025208129N01244158EA0116401232104000
B1236065208116N01244058EA0116700000104000
B1236105208062N01244020EA0117901248106000
B1236145208012N01244058EA0117001248112000
B1236185208050N01244166EA0116301240108000
K123618000013
B1236225208129N01244133EA0117501240102000
B1236265208162N01244037EA0119001256091000
B1236305208191N01243945EA0119101264094000
B1236345208266N01243950EA0117801240098000
B1236385208279N01244058EA0116801232111000
K123638000013
B1236425208225N01244120EA0117701240101000
B1236465208175N01244162EA0118301256097000
B1236505208120N01244175EA0119101264093000
B1236545208070N01244179EA0119101264097000
B1236585208016N01244170EA0118801264097000
K123658000013
B1237025207962N01244158EA0117501248106000
B1237065207908N01244095EA0116401240111000
B1237105207883N01244004EA0116601240104000
B1237145207904N01243895EA0116001232104000
B1237185207962N01243808EA0115001224106000
K123718000014
B1237225208033N01243758EA0113801224111000
B1237265208120N01243750EA0112801208114000
B1237305208204N01243787EA0113701216106000
B1237345208283N01243825EA0114001216102000
B1237385208362N01243845EA0115001232098000
K123738000013
B1237425208437N01243883EA0115101232106000
B1237465208466N01243987EA0115001232097000
B1237505208425N01244062EA0114401224103000
B1237545208370N01244116EA0115101232113000
B1237585208316N01244120EA0115201232103000
K123758000010
B1238025208325N01244016EA0115101232100000
B1238065208391N01243954EA0114801232108000
B1238105208450N01243866EA0115101232103000
B1238145208475N01243754EA0114901232108000
B1238185208504N01243637EA0115601240104000
K123818000010
B1238225208529N01243525EA0116101248106000
B1238265208533N01243412EA0116301240098000
B1238305208504N01243308EA0116601248105000
B1238345208537N01243204EA0116901248100000
B1238385208612N01243216EA0116901248095000
K123838000008
B1238425208633N01243312EA0116101240099000
B1238465208600N01243391EA0116501248103000
B1238505208550N01243429EA0116501248099000
B1238545208491N01243425EA0116601248107000
B1238585208437N01243395EA0116901256097000
K123858000008
B1239025208412N01243300EA0117501264097000
B1239065208395N01243204EA0117301256101000
B1239105208345N01243166EA0116801248105000
B1239145208287N01243179EA0115001232122000
B1239185208216N01243200EA0112101200143000
K123918000008
B1239225208145N01243225EA0110701192143000
B1239265208066N01243254EA0109301176147000
B1239305207987N01243283EA0106901152161000
B1239345207900N01243316EA0104501128171000
B1239385207808N01243350EA0102101104178000
K123938000025
B1239425207712N01243383EA0101601096177000
B1239465207616N01243420EA0102501112170000
B1239505207525N01243458EA0103501120162000
B1239545207437N01243495EA0103501120156000
B1239585207354N01243537EA0105001128145000
K123958000014
B1240025207275N01243575EA0109101176130000
B1240065207216N01243579EA0113001208096000
B1240105207204N01243487EA0113901224092000
B1240145207258N01243416EA0114001224103000
B1240185207325N01243458EA0114901232091000
K124018000011
B1240225207341N01243562EA0115201232102000
B1240265207312N01243650EA0116601248091000
B1240305207254N01243637EA0116901256110000
B1240345207266N01243525EA0117501256100000
B1240385207341N01243516EA0119001272095000
K124038164019
B1240425207379N01243612EA0119901280097000
B1240465207345N01243691EA0120901288101000
B1240505207291N01243658EA0121101296110000
B1240545207312N01243550EA0122801312091000
B1240585207379N01243533EA0123801320096000
K124058162017
B1241025207420N01243629EA0123401320100000
B1241065207379N01243695EA0124401328105000
B1241105207333N01243629EA0125701344097000
B1241145207350N01243529EA0127101352086000
B1241185207416N01243491EA0126401344102000
K124118166010
B1241225207475N01243566EA0127501360099000
B1241265207475N01243670EA0128701368102000
B1241305207412N01243670EA0128101368113000
B1241345207416N01243562EA0130001384093000
B1241385207479N01243533EA0131101392091000
K124138154018
B1241425207529N01243612EA0131101392103000
B1241465207529N01243716EA0132301408096000
B1241505207475N01243754EA0131501400108000
B1241545207450N01243654EA0133301416098000
B1241585207504N01243587EA0134401432090000
K124158140015
B1242025207575N01243612EA0134701432093000
B1242065207608N01243704EA0135401440095000
B1242105207587N01243800EA0136201448098000
B1242145207529N01243825EA0135601440104000
B1242185207508N01243729EA0137001456101000
K124218156014
B1242225207537N01243633EA0138201464091000
B1242265207604N01243591EA0138201464095000
B1242305207662N01243654EA0138401464092000
B1242345207662N01243762EA0138601472106000
B1242385207608N01243779EA0139701472095000
K124238164010
B1242425207591N01243679EA0140001480100000
B1242465207650N01243608EA0140701488096000
B1242505207716N01243654EA0140901488092000
B1242545207733N01243762EA0141201488101000
B1242585207691N01243841EA0141801504104000
K124258176011
B1243025207637N01243808EA0142001504083000
B1243065207633N01243695EA0142101504110000
B1243105207666N01243587EA0143301512104000
B1243145207720N01243512EA0144601528087000
B1243185207791N01243537EA0144401528100000
K124318180012
B1243225207854N01243612EA0145901536099000
B1243265207862N01243720EA0146001544103000
B1243305207808N01243745EA0146701552100000
B1243345207779N01243658EA0147501560096000
B1243385207816N01243570EA0147801560098000
K124338000011
B1243425207887N01243520EA0149001576093000
B1243465207958N01243529EA0149101576092000
B1243505208004N01243620EA0149401576100000
B1243545207966N01243700EA0149601584103000
B1243585207920N01243637EA0150701592102000
K124358176015
B1244025207937N01243533EA0151701608101000
B1244065208008N01243491EA0151901608096000
B1244105208070N01243562EA0151901608097000
B1244145208079N01243666EA0152901616095000
B1244185208041N01243729EA0153201624101000
K124418174020
B1244225207995N01243670EA0153701632098000
B1244265208000N01243566EA0154601632098000
B1244305208058N01243495EA0155001632092000
B1244345208133N01243516EA0154801632098000
B1244385208183N01243608EA0154801632100000
K124438172020
B1244425208170N01243712EA0155201640098000
B1244465208125N01243758EA0156101648100000
B1244505208070N01243720EA0156401656097000
B1244545208054N01243620EA0156901656098000
B1244585208100N01243525EA0157401664097000
K124458172019
B1245025208170N01243495EA0157501672092000
B1245065208241N01243545EA0156901664100000
B1245105208291N01243633EA0157601672094000
B1245145208300N01243741EA0157401664097000
B1245185208266N01243816EA0158001680096000
K124518174019
B1245225208212N01243808EA0158401688097000
B1245265208179N01243729EA0159201688097000
B1245305208191N01243620EA0159201688101000
B1245345208250N01243541EA0159601696093000
B1245385208325N01243550EA0159201696096000
K124538176019
B1245425208375N01243641EA0159301696093000
B1245465208366N01243741EA0158901688097000
B1245505208325N01243816EA0159001688097000
B1245545208270N01243837EA0159801704097000
B1245585208225N01243783EA0160401704090000
K124558176017
B1246025208229N01243683EA0160801712090000
B1246065208283N01243612EA0160401712093000
B1246105208358N01243629EA0160401712093000
B1246145208400N01243720EA0160701712091000
B1246185208400N01243825EA0160401712093000
K124618184015
B1246225208362N01243904EA0160401712103000
B1246265208304N01243920EA0161001720100000
B1246305208258N01243862EA0161101720095000
B1246345208254N01243758EA0160501712098000
B1246385208295N01243662EA0160401712098000
K124638188017
B1246425208370N01243633EA0160701712095000
B1246465208437N01243675EA0160301712097000
B1246505208475N01243775EA0159801704098000
B1246545208462N01243883EA0160101704102000
B1246585208420N01243954EA0160601712100000
K124658188016
B1247025208362N01243970EA0160801720100000
B1247065208320N01243908EA0160801720099000
B1247105208320N01243804EA0160701712096000
B1247145208370N01243720EA0160901712095000
B1247185208445N01243708EA0161201720096000
K124718186016
B1247225208508N01243766EA0161301720094000
B1247265208525N01243875EA0161101720098000
B1247305208495N01243966EA0161101720100000
B1247345208437N01243979EA0161401720100000
B1247385208391N01243929EA0160501712100000
K124738188017
B1247425208379N01243829EA0160601712099000
B1247465208416N01243737EA0160901720093000
B1247505208487N01243708EA0160801720096000
B1247545208558N01243750EA0161501720091000
B1247585208587N01243850EA0160801720096000
K124758186017
B1248025208566N01243950EA0160101712097000
B1248065208520N01244008EA0160201704098000
B1248105208462N01244004EA0159701704098000
B1248145208412N01243941EA0159701704101000
B1248185208379N01243854EA0160701712100000
K124818178015
B1248225208358N01243754EA0161901720094000
B1248265208370N01243650EA0162001728097000
B1248305208433N01243595EA0162001720097000
B1248345208500N01243641EA0162401728095000
B1248385208533N01243737EA0162701728089000
K124838180014
B1248425208516N01243837EA0161501720103000
B1248465208458N01243875EA0161501720105000
B1248505208395N01243837EA0162001728104000
B1248545208366N01243745EA0162101728100000
B1248585208370N01243633EA0162301728100000
K124858170012
B1249025208412N01243541EA0162101728098000
B1249065208479N01243504EA0161801720095000
B1249105208541N01243554EA0161801720098000
B1249145208558N01243658EA0162301728098000
B1249185208537N01243750EA0163001736093000
K124918168010
B1249225208483N01243791EA0163301736098000
B1249265208420N01243762EA0162401728109000
B1249305208387N01243662EA0162501728108000
B1249345208412N01243541EA0161001712116000
B1249385208487N01243491EA0161001712106000
K124938172015
B1249425208558N01243516EA0161801720097000
B1249465208600N01243595EA0162201728094000
B1249505208600N01243704EA0161901720101000
B1249545208554N01243770EA0163201736101000
B1249585208491N01243766EA0163701744098000
K124958166011
B1250025208450N01243687EA0164601752093000
B1250065208454N01243583EA0163901744095000
B1250105208500N01243500EA0162701736101000
B1250145208570N01243475EA0162301736098000
B1250185208637N01243520EA0161901728096000
K125018142007
B1250225208675N01243616EA0162001728100000
B1250265208675N01243716EA0163801744093000
B1250305208637N01243787EA0163601744102000
B1250345208579N01243800EA0164301752096000
B1250385208525N01243758EA0164201752098000
K125038160010
B1250425208487N01243662EA0163101736104000
B1250465208491N01243545EA0162801736098000
B1250505208533N01243454EA0161901728096000
B1250545208600N01243408EA0160701712100000
B1250585208662N01243458EA0160401712096000
K125058160012
B1251025208708N01243545EA0160301704101000
B1251065208741N01243641EA0160801712101000
B1251105208762N01243745EA0162201728093000
B1251145208750N01243845EA0162801736093000
B1251185208700N01243883EA0162801736097000
K125118162011
B1251225208650N01243820EA0163501744093000
B1251265208662N01243720EA0164001752091000
B1251305208720N01243666EA0163701744097000
B1251345208787N01243712EA0164201752094000
B1251385208800N01243816EA0165301760094000
K125138170009
B1251425208762N01243891EA0165401760095000
B1251465208700N01243887EA0166001768092000
B1251505208666N01243812EA0165601768090000
B1251545208691N01243708EA0165001760097000
B1251585208758N01243679EA0165301760096000
K125158168010
B1252025208816N01243745EA0166101768091000
B1252065208833N01243850EA0166501776096000
B1252105208800N01243937EA0166701776098000
B1252145208737N01243958EA0167001776095000
B1252185208691N01243891EA0166501776093000
K125218176009
B1252225208700N01243783EA0165601760097000
B1252265208758N01243729EA0166201768094000
B1252305208825N01243762EA0166701776093000
B1252345208854N01243854EA0166901776094000
B1252385208825N01243950EA0166601776097000
K125238172007
B1252425208762N01243970EA0166901776094000
B1252465208716N01243908EA0166301768100000
B1252505208712N01243804EA0164801760097000
B1252545208775N01243741EA0163901744099000
B1252585208841N01243770EA0164301752096000
K125258176005
B1253025208891N01243850EA0164901760094000
B1253065208916N01243950EA0165001760095000
B1253105208895N01244050EA0164401752098000
B1253145208837N01244095EA0163901744097000
B1253185208775N01244070EA0163401744094000
K125318182005
B1253225208745N01243979EA0162501736097000
B1253265208770N01243883EA0161101720093000
B1253305208837N01243845EA0159501704101000
B1253345208900N01243900EA0159601704099000
B1253385208925N01244004EA0159501704092000
K125338208006
B1253425208895N01244100EA0159001696097000
B1253465208833N01244137EA0158401688096000
B1253505208787N01244079EA0157901688098000
B1253545208783N01243975EA0157001680100000
B1253585208825N01243891EA0155501664098000
K125358218006
B1254025208895N01243862EA0154301648103000
B1254065208970N01243879EA0153901648102000
B1254105209033N01243929EA0154001648096000
B1254145209070N01244020EA0154401648097000
B1254185209075N01244125EA0155001656096000
K125418216006
B1254225209029N01244183EA0153901640095000
B1254265208975N01244129EA0152301624101000
B1254305208970N01244025EA0151801624094000
B1254345209016N01243941EA0150601608096000
B1254385209083N01243895EA0149601600096000
K125438168009
B1254425209154N01243904EA0149701600094000
B1254465209220N01243941EA0150801616095000
B1254505209287N01243983EA0152201624094000
B1254545209345N01244037EA0152401632093000
B1254585209362N01244145EA0152301624102000
K125458000011
B1255025209316N01244208EA0153001632094000
B1255065209266N01244166EA0153001632092000
B1255105209270N01244062EA0153201632096000
B1255145209333N01244008EA0154301648094000
B1255185209395N01244058EA0154601648093000
K125518180010
B1255225209416N01244162EA0155001656092000
B1255265209379N01244237EA0154701648089000
B1255305209320N01244220EA0154601648096000
B1255345209300N01244125EA0154701648091000
B1255385209333N01244029EA0154801648094000
K125538190010
B1255425209400N01244000EA0155401656096000
B1255465209458N01244062EA0155801664096000
B1255505209462N01244166EA0155501664091000
B1255545209412N01244225EA0155601664093000
B1255585209358N01244183EA0155401664093000
K125558196010
B1256025209341N01244083EA0154801656095000
B1256065209366N01243979EA0155001656100000
B1256105209416N01243895EA0155501664097000
B1256145209487N01243845EA0156301672104000
B1256185209554N01243829EA0156801672085000
K125618190011
B1256225209629N01243845EA0156201672101000
B1256265209683N01243920EA0157301680090000
B1256305209683N01244025EA0157601680094000
B1256345209654N01244108EA0156701672100000
B1256385209604N01244170EA0157001680097000
K125638168011
B1256425209550N01244195EA0157201680095000
B1256465209487N01244183EA0156501672099000
B1256505209445N01244116EA0156501672096000
B1256545209425N01244012EA0156201672100000
B1256585209429N01243900EA0156401672100000
K125658168012
B1257025209462N01243800EA0156701672097000
B1257065209529N01243758EA0157401680092000
B1257105209600N01243762EA0157301680098000
B1257145209658N01243820EA0158201688093000
B1257185209691N01243912EA0158401696092000
K125718164012
B1257225209695N01244020EA0158501696094000
B1257265209666N01244112EA0158001688101000
B1257305209612N01244154EA0158101688100000
B1257345209554N01244145EA0158201688095000
B1257385209508N01244075EA0156601672104000
K125738176012
B1257425209491N01243954EA0156301672111000
B1257465209525N01243850EA0156801680103000
B1257505209587N01243791EA0156601672098000
B1257545209662N01243770EA0156601672095000
B1257585209733N01243791EA0156201672104000
K125758176012
B1258025209800N01243862EA0156601680105000
B1258065209829N01243970EA0157301688097000
B1258105209816N01244079EA0156401672105000
B1258145209758N01244137EA0156401672108000
B1258185209695N01244137EA0156401672107000
K125818178014
B1258225209645N01244075EA0156501672102000
B1258265209629N01243966EA0156201672100000
B1258305209650N01243858EA0156101664103000
B1258345209704N01243783EA0156301680099000
B1258385209775N01243745EA0156001672097000
K125838176013
B1258425209854N01243750EA0156201672099000
B1258465209916N01243812EA0156501680095000
B1258505209954N01243908EA0156801680092000
B1258545209958N01244012EA0156101672094000
B1258585209929N01244108EA0154501656106000
K125858176014
B1259025209875N01244162EA0154801656105000
B1259065209816N01244183EA0155201664097000
B1259105209758N01244170EA0154901656096000
B1259145209704N01244125EA0154301648097000
B1259185209670N01244037EA0153501640097000
K125918178014
B1259225209670N01243929EA0152201624099000
B1259265209704N01243825EA0150501608109000
B1259305209741N01243716EA0149901600111000
B1259345209770N01243612EA0150801616104000
B1259385209800N01243504EA0150401608106000
K125938000005
B1259425209825N01243387EA0147301576119000
B1259465209845N01243245EA0145401560127000
B1259505209870N01243104EA0144501552130000
B1259545209891N01242962EA0143001528140000
B1259585209916N01242820EA0143801544128000
K125958180005
B1300025209941N01242683EA0142901536130000
B1300065209962N01242545EA0143201536125000
B1300105209987N01242412EA0142701528125000
B1300145210016N01242279EA0142101520128000
B1300185210045N01242145EA0141601520126000
K130018180007
B1300225210075N01242012EA0141101512127000
B1300265210100N01241879EA0140901512130000
B1300305210120N01241750EA0141201512125000
B1300345210141N01241616EA0141101512125000
B1300385210162N01241491EA0141101512122000
K130038180003
B1300425210183N01241366EA0141001512121000
B1300465210204N01241245EA0140401504122000
B1300505210225N01241120EA0139501496124000
B1300545210250N01240991EA0138401488130000
B1300585210275N01240862EA0138101480129000
K130058000001
B1301025210304N01240741EA0137501472129000
B1301065210329N01240620EA0137001464122000
B1301105210350N01240500EA0136801464116000
B1301145210370N01240387EA0138301480111000
B1301185210391N01240283EA0138601488104000
K130118000002
B1301225210416N01240179EA0138501488109000
B1301265210420N01240062EA0138301480110000
B1301305210408N01239958EA0139301496098000
B1301345210375N01239875EA0139001488102000
B1301385210320N01239820EA0139101488100000
K130138000003
B1301425210262N01239829EA0139301488101000
B1301465210220N01239895EA0138201480100000
B1301505210208N01240000EA0137201472101000
B1301545210250N01240104EA0136601464101000
B1301585210312N01240179EA0136801464100000
K130158000003
B1302025210383N01240220EA0136901464095000
B1302065210462N01240250EA0136901464107000
B1302105210537N01240229EA0137501472096000
B1302145210570N01240137EA0137501480095000
B1302185210554N01240041EA0137501480098000
K130218188016
B1302225210504N01240008EA0137601480099000
B1302265210462N01240075EA0137701480099000
B1302305210466N01240183EA0137101472100000
B1302345210520N01240270EA0136701472098000
B1302385210595N01240316EA0136701464100000
K130238188018
B1302425210675N01240287EA0137101472103000
B1302465210716N01240195EA0136901472097000
B1302505210708N01240095EA0135701456100000
B1302545210666N01240020EA0135701456100000
B1302585210608N01239995EA0135701456107000
K130258186019
B1303025210545N01239995EA0136001456105000
B1303065210491N01240008EA0135701448102000
B1303105210454N01240091EA0135401448102000
B1303145210479N01240208EA0134801440103000
B1303185210554N01240258EA0135201448103000
K130318000003
B1303225210625N01240208EA0135201440103000
B1303265210650N01240100EA0135201440104000
B1303305210620N01240012EA0134801440097000
B1303345210562N01239987EA0134301432105000
B1303385210508N01240012EA0133801432106000
K130338184023
B1303425210454N01240054EA0132601416115000
B1303465210395N01240091EA0131501408117000
B1303505210333N01240116EA0132601416112000
B1303545210270N01240141EA0132701416107000
B1303585210208N01240133EA0133701432106000
K130358000006
B1304025210154N01240091EA0134501440102000
B1304065210091N01240050EA0133801432118000
B1304105210029N01240016EA0133501432108000
B1304145209962N01239995EA0133001424116000
B1304185209895N01240016EA0134501440107000
K130418000007
B1304225209841N01240058EA0136401456104000
B1304265209816N01240154EA0136601464100000
B1304305209850N01240262EA0137701472094000
B1304345209925N01240291EA0138201472102000
B1304385209979N01240212EA0139101488101000
K130438000007
B1304425209962N01240112EA0140301496098000
K130442000007
B1304465209912N01240070EA0141201496095000
B1304505209866N01240120EA0142301512095000
B1304545209870N01240229EA0142401512097000
B1304585209937N01240300EA0142401512099000
B1305025210012N01240295EA0143800000099000
K130502188016
B1305065210062N01240212EA0144201528100000
B1305105210041N01240116EA0144000000105000
B1305145209983N01240095EA0145201536107000
B1305185209941N01240162EA0146501552098000
B1305225209958N01240270EA0146801552098000
K130522196018
B1305265210025N01240337EA0146701544102000
B1305305210100N01240300EA0147901560100000
B1305345210133N01240204EA0148201560104000
B1305385210108N01240112EA0148200000103000
B1305425210050N01240100EA0149101568100000
K130542194017
B1305465210008N01240162EA0149701576099000
B1305505210004N01240270EA0149701576101000
B1305545210050N01240370EA0150001584098000
B1305585210129N01240400EA0150301584100000
B1306025210195N01240341EA0151001584099000
K130602190019
B1306065210212N01240233EA0151300000104000
B1306105210191N01240133EA0151401592101000
B1306145210141N01240083EA0151501592102000
B1306185210091N01240129EA0152301600097000
B1306225210079N01240233EA0152401600102000
K130622192017
B1306265210125N01240333EA0153101616096000
B1306305210200N01240370EA0153201608096000
B1306345210266N01240312EA0153301616102000
B1306385210287N01240204EA0153401616099000
B1306425210262N01240112EA0153101616106000
K130642188019
B1306465210208N01240070EA0153701624106000
B1306505210158N01240116EA0155001640095000
B1306545210158N01240216EA0155301640090000
B1306585210204N01240312EA0154501632097000
B1307025210283N01240358EA0154901632101000
K130702190016
B1307065210350N01240304EA0155801648091000
B1307105210387N01240204EA0154401632100000
B1307145210362N01240104EA0153701624108000
B1307185210300N01240066EA0153601624110000
B1307225210241N01240087EA0154901640106000
K130722190018
B1307265210204N01240175EA0154901640106000
B1307305210208N01240300EA0155301640106000
B1307345210258N01240400EA0155701648100000
B1307385210337N01240437EA0155001640106000
B1307425210416N01240391EA0154801640107000
K130742190022
B1307465210466N01240295EA0155201640107000
B1307505210475N01240179EA0154701640108000
B1307545210437N01240091EA0153601624111000
B1307585210379N01240050EA0154201640109000
B1308025210316N01240070EA0154801640106000
K130802194019
B1308065210275N01240145EA0155201648106000
B1308105210258N01240258EA0155201648106000
B1308145210279N01240383EA0154901640109000
B1308185210333N01240475EA0155501648100000
B1308225210408N01240491EA0154501640101000
K130822194018
B1308265210483N01240433EA0152801632110000
B1308305210512N01240320EA0152801632106000
B1308345210516N01240200EA0153201632107000
B1308385210487N01240100EA0153601640108000
B1308425210437N01240033EA0154301640108000
K130842188016
B1308465210379N01240025EA0154501648108000
B1308505210333N01240100EA0154401640106000
B1308545210333N01240212EA0154901648096000
B1308585210379N01240312EA0154201640106000
B1309025210454N01240350EA0155401648103000
K130902186015
B1309065210520N01240304EA0155801648100000
B1309105210562N01240204EA0155601648103000
B1309145210558N01240087EA0156101656113000
B1309185210533N01239991EA0156801664105000
B1309225210479N01239941EA0157101664104000
K130922188014
B1309265210429N01239975EA0157201664101000
B1309305210404N01240079EA0156101656108000
B1309345210429N01240200EA0155901648111000
B1309385210491N01240279EA0156801664109000
B1309425210570N01240283EA0157201664103000
K130942182016
B1309465210633N01240208EA0157401664101000
B1309505210650N01240095EA0157101656103000
B1309545210612N01240008EA0156901656109000
B1309585210554N01240016EA0157201656104000
B1310025210516N01240108EA0156501648106000
K131002182018
B1310065210529N01240229EA0156101648110000
B1310105210587N01240316EA0156101648104000
B1310145210666N01240337EA0157001656103000
B1310185210725N01240270EA0157401656102000
B1310225210741N01240158EA0157101656102000
K131022182017
B1310265210712N01240062EA0157101656112000
B1310305210654N01240020EA0157301656106000
B1310345210604N01240070EA0157701664097000
B1310385210583N01240179EA0156401648111000
B1310425210554N01240287EA0155901648113000
K131042000007
B1310465210512N01240383EA0154901640115000
B1310505210450N01240445EA0153701624123000
B1310545210383N01240495EA0153701624115000
B1310585210316N01240520EA0153401624121000
B1311025210250N01240541EA0152901624123000
K131102000009
B1311065210179N01240562EA0152501616122000
B1311105210112N01240583EA0152101608125000
B1311145210045N01240604EA0151401608123000
B1311185209983N01240625EA0150901600127000
B1311225209916N01240645EA0149701592130000
K131122000022
B1311265209850N01240662EA0148701576124000
B1311305209783N01240675EA0147501568118000
B1311345209712N01240675EA0146701560120000
B1311385209641N01240679EA0147401568116000
B1311425209575N01240687EA0147601568114000
K131142000016
B1311465209508N01240683EA0148001576114000
B1311505209445N01240670EA0148601576109000
B1311545209383N01240637EA0148601576109000
B1311585209337N01240566EA0150001592107000
B1312025209320N01240462EA0150601600107000
K131202000013
B1312065209362N01240370EA0151901616092000
B1312105209437N01240341EA0152501624096000
B1312145209504N01240412EA0153701632104000
B1312185209516N01240529EA0155101648101000
B1312225209479N01240612EA0155901656098000
K131222000013
B1312265209420N01240620EA0156501664098000
B1312305209379N01240550EA0157501672098000
B1312345209391N01240450EA0158201680092000
B1312385209450N01240379EA0157701672100000
B1312425209529N01240375EA0158701688098000
K131242194015
B1312465209595N01240445EA0160001704096000
B1312505209612N01240562EA0160201704102000
B1312545209583N01240650EA0161201712097000
B1312585209525N01240658EA0161801720098000
B1313025209495N01240579EA0162001720098000
K131302194018
B1313065209508N01240475EA0162001720099000
B1313105209566N01240404EA0163001736097000
B1313145209641N01240416EA0164001744094000
B1313185209700N01240495EA0164301744093000
B1313225209704N01240608EA0164501744101000
K131322198019
B1313265209662N01240679EA0164701752098000
B1313305209608N01240666EA0164801752096000
B1313345209575N01240587EA0164901752100000
B1313385209587N01240483EA0164701752098000
B1313425209641N01240412EA0164701752101000
K131342194019
B1313465209720N01240416EA0165301760095000
B1313505209775N01240500EA0166101768093000
B1313545209787N01240612EA0166001768092000
B1313585209758N01240712EA0164601752106000
B1314025209695N01240741EA0165701760104000
K131402192019
B1314065209654N01240679EA0166201768096000
B1314105209650N01240579EA0165501760102000
B1314145209687N01240479EA0165401760098000
B1314185209754N01240433EA0165901760098000
B1314225209829N01240462EA0166001760100000
K131422196019
B1314265209875N01240562EA0166701768099000
B1314305209862N01240670EA0167401776097000
B1314345209812N01240733EA0167501776103000
B1314385209762N01240704EA0167601784099000
B1314425209745N01240608EA0166501768103000
K131442198020
B1314465209770N01240504EA0166201768101000
B1314505209833N01240433EA0166401768101000
B1314545209912N01240433EA0167101776102000
B1314585209979N01240491EA0167601784097000
B1315025210008N01240604EA0167501784098000
K131502196019
B1315065209987N01240700EA0167401776097000
B1315105209933N01240741EA0167501776101000
B1315145209883N01240708EA0167701784099000
B1315185209850N01240625EA0167001776107000
B1315225209850N01240516EA0166801776100000
K131522190020
B1315265209895N01240429EA0166401776103000
B1315305209970N01240400EA0166801776102000
B1315345210050N01240404EA0167501776095000
B1315385210116N01240462EA0167201776103000
B1315425210158N01240566EA0167901784094000
K131542192020
B1315465210158N01240683EA0167701784100000
B1315505210141N01240795EA0166101768113000
B1315545210112N01240908EA0165401760116000
B1315585210075N01241008EA0164801760110000
B1316025210033N01241100EA0163701744108000
K131602000010
B1316065209983N01241170EA0163901744109000
B1316105209925N01241212EA0163701744104000
B1316145209862N01241208EA0162601728103000
B1316185209808N01241150EA0162801736111000
B1316225209762N01241083EA0162801736104000
K131622000008
B1316265209729N01241000EA0160201704110000
B1316305209716N01240887EA0158101680120000
B1316345209725N01240762EA0156701672117000
B1316385209741N01240637EA0155601656121000
B1316425209762N01240512EA0153801640124000
K131642000008
B1316465209783N01240379EA0152901632125000
B1316505209800N01240250EA0152001624125000
B1316545209820N01240116EA0151501616128000
B1316585209841N01239987EA0150301600128000
B1317025209862N01239850EA0149101592133000
K131702000001
B1317065209883N01239704EA0147901576136000
B1317105209908N01239558EA0147501576138000
B1317145209925N01239412EA0147601576138000
B1317185209937N01239266EA0147101568138000
B1317225209945N01239120EA0146901568136000
K131722180003
B1317265209950N01238975EA0147401576135000
B1317305209950N01238841EA0149301592122000
B1317345209954N01238716EA0149701592111000
B1317385209945N01238591EA0147001568135000
B1317425209929N01238462EA0146901568134000
K131742000001
B1317465209916N01238333EA0146601560129000
B1317505209925N01238195EA0146301560132000
B1317545209937N01238062EA0146001560134000
B1317585209950N01237925EA0145001544134000
B1318025209966N01237787EA0144001536137000
K131802000004
B1318065209987N01237650EA0142501520144000
B1318105210008N01237504EA0142001520139000
B1318145210029N01237362EA0141301512141000
B1318185210054N01237216EA0140501504141000
B1318225210079N01237070EA0139901496141000
K131822000002
B1318265210104N01236925EA0138801480146000
B1318305210141N01236783EA0139201488139000
B1318345210187N01236654EA0138101472135000
B1318385210233N01236520EA0138301480137000
B1318425210279N01236391EA0137901472135000
K131842180001
B1318465210320N01236258EA0137601472137000
B1318505210366N01236129EA0136801464138000
B1318545210412N01235991EA0136001456140000
B1318585210454N01235858EA0135701456138000
B1319025210495N01235716EA0134301440139000
K131902180006
