AZAN1IX ZANDER/SDI GP941 V2.11
HFDTE160813
HFFXA050
HFPLT Pilot             :Markus Schieber                         
HFGTY Glider type       :Discus 2a                               
HFGID Glider ID         :D-9889    
HFDTM100 GPS Datum      :WGS84
HFRFW Firmware Version  :11
HFRHW Hardware version  :2
HFFTY FR Type           :ZANDER/SDI GP941
HFGPS                   :Garmin,GPS25,12,30000
HFPRS Press Alt Sensor  :Intersema,MS5534A,10000
HFCCL Competition Class :Standard                                
HFCID Competition ID    :4N        
I023638IAS3941ENL
J020810WDI1113WVE
LZAN 095344 PowerOn
C150813084815150813000103
C5208650N01240100E 001 SP1LUESS
C5206783N01227233E 005 SP5WSNBR
C5133483N01300666E 213 TORGAU  
C5140316N01450183E 217 TUPLICE 
C5209483N01246883E 010 CP24    
C5209066N01243550E ZIEL 24     
C5209066N01243550E ZIEL 24     
B0953485208554N01239870EV0001200000000000
B0953525208554N01239870EV0001200000009000
B0953565208554N01239870EV0001200000000000
B0954005208554N01239870EV0001200000000000
B0954045208554N01239870EV0001200000000000
B0954085208554N01239870EV0001200000000000
B0954125208554N01239870EV0001200000000000
B0954165208554N01239870EV0001200000000000
B0954205208554N01239870EV0001200000000000
B0954245208708N01240562EA0001200080000000
B0954285208708N01240562EA0001200072000000
B0954325208708N01240562EA0001300072000000
B0954365208712N01240562EA0001300064000000
B0954405208712N01240562EA0001300064000000
B0954445208712N01240562EA0001300064000000
B0954485208712N01240562EA0001300064000000
B0954525208712N01240562EA0001300064000000
B0954565208712N01240562EA0001300064000000
B0955005208712N01240562EA0001300064000000
B0955045208712N01240562EA0001300056000000
B0955085208712N01240562EA0001300056000000
B0955125208712N01240562EA0001300056000008
B0955165208712N01240562EA0001300056000004
B0955205208712N01240562EA0001300056000004
B0955245208712N01240562EA0001300056000008
B0955285208712N01240562EA0001300056006000
B0955325208712N01240562EA0001300056002000
B0955365208712N01240562EA0001200056000000
B0955405208712N01240562EA0001200056003000
B0955445208712N01240562EA0001200056000004
B0955485208712N01240562EA0001200056000000
B0955525208712N01240562EA0001200056000000
B0955565208712N01240562EA0001200056000000
B0956005208712N01240562EA0001200056000000
B0956045208712N01240562EA0001200056000000
B0956085208712N01240562EA0001200056000000
B0956125208712N01240562EA0001300064000000
B0956165208712N01240562EA0001300064000004
B0956205208712N01240562EA0001300064000000
B0956245208712N01240562EA0001300056004000
B0956285208712N01240562EA0001300056002000
B0956325208712N01240562EA0001300056000004
B0956365208712N01240562EA0001300056000000
B0956405208712N01240562EA0001300056000008
B0956445208712N01240562EA0001300056000008
B0956485208712N01240562EA0001300056000004
B0956525208712N01240562EA0001300056000008
B0956565208712N01240562EA0001300056000000
B0957005208712N01240562EA0001300056000000
B0957045208712N01240562EA0001300064000000
B0957085208712N01240562EA0001300064000000
B0957125208712N01240562EA0001300064000000
B0957165208712N01240562EA0001300064000000
B0957205208712N01240562EA0001300064000000
B0957245208712N01240562EA0001300064000000
B0957285208712N01240562EA0001300064003000
B0957325208712N01240562EA0001300064000000
B0957365208712N01240562EA0001300064000000
B0957405208712N01240562EA0001300064000000
B0957445208712N01240562EA0001300064000004
B0957485208712N01240562EA0001300064000000
B0957525208712N01240562EA0001300064000008
B0957565208712N01240562EA0001300064000008
B0958005208712N01240562EA0001300064000004
B0958045208712N01240562EA0001300064000008
B0958085208712N01240562EA0001300064000004
B0958125208712N01240562EA0001300064000004
B0958165208712N01240562EA0001300064000008
C160813095815160813000103
C5208650N01240100E 001 SP1LUESS
C5208650N01240100E 001 SP1LUESS
C5214950N01215366E 246 ZIESAR  
C5133483N01300666E 213 TORGAU  
C5132016N01355583E 192 SPDWLSTZ
C5209483N01246883E 010 CP24    
C5209066N01243550E ZIEL 24     
B0958205208712N01240562EA0001300064000008
B0958245208712N01240562EA0001300064000012
B0958285208712N01240562EA0001300064000008
B0958325208712N01240562EA0001300064000008
B0958365208712N01240562EA0001300064000008
B0958405208712N01240562EA0001300064000008
B0958445208712N01240562EA0001300064000008
B0958485208712N01240562EA0001300064000028
B0958525208712N01240562EA0001300064000016
B0958565208712N01240562EA0001300064000000
B0959005208712N01240558EA0001300064000016
B0959045208712N01240558EA0001300064000012
B0959085208712N01240558EA0001300064000008
B0959125208712N01240558EA0001300056000012
B0959165208712N01240558EA0001300056000012
B0959205208712N01240558EA0001300056000012
B0959245208712N01240558EA0001200056000012
B0959285208712N01240558EA0001200056000008
B0959325208712N01240558EA0001200056000008
B0959365208712N01240558EA0001200056000012
B0959405208712N01240562EA0001200056000008
B0959445208712N01240562EA0001200056000012
B0959485208712N01240562EA0001200056000012
B0959525208712N01240562EA0001200056000000
B0959565208712N01240562EA0001200056000008
B1000005208712N01240562EA0001200056000000
B1000045208712N01240562EA0001200056000000
B1000085208712N01240562EA0001200056000000
B1000125208712N01240562EA0001200056000000
B1000165208712N01240562EA0001200056000000
B1000205208712N01240562EA0001200056000000
B1000245208712N01240562EA0001200056000000
B1000285208712N01240562EA0001200056000000
B1000325208712N01240562EA0001200056000000
B1000365208712N01240562EA0001200056000000
B1000405208712N01240562EA0001200056000020
B1000445208712N01240562EA0001200056000008
B1000485208716N01240562EA0001200056000000
B1000525208716N01240562EA0001200056000008
B1000565208716N01240562EA0001200056000004
B1001005208716N01240562EA0001200056000000
B1001045208716N01240562EA0001200056000008
B1001085208716N01240562EA0001200056000008
B1001125208716N01240562EA0001200056000000
B1001165208716N01240562EA0001200056000004
B1001205208716N01240562EA0001200056000000
B1001245208716N01240562EA0001200056000000
B1001285208716N01240562EA0001200056000000
B1001325208716N01240562EA0001200056000000
B1001365208716N01240562EA0001200056000000
B1001405208716N01240562EA0001200056000000
B1001445208716N01240562EA0001200056000000
B1001485208716N01240562EA0001200056000000
B1001525208716N01240562EA0001200056000000
B1001565208716N01240562EA0001200056000000
B1002005208716N01240562EA0001200056000000
B1002045208716N01240562EA0001200056000000
B1002085208716N01240562EA0001200056000000
B1002125208716N01240562EA0001200056000000
B1002165208716N01240562EA0001200056000000
B1002205208716N01240562EA0001200056000000
B1002245208716N01240562EA0001200056000000
B1002285208716N01240562EA0001200056000000
B1002325208716N01240562EA0001200056000000
B1002365208716N01240562EA0001200056000000
B1002405208716N01240562EA0001200056000000
B1002445208716N01240562EA0001200056000000
B1002485208716N01240562EA0001200056000000
B1002525208716N01240562EA0001200056000000
B1002565208716N01240562EA0001200056000000
B1003005208716N01240562EA0001200056000000
B1003045208716N01240562EA0001200056000000
B1003085208716N01240562EA0001200056000000
B1003125208716N01240562EA0001200064000000
B1003165208716N01240562EA0001200064000000
B1003205208716N01240562EA0001200056000000
B1003245208716N01240562EA0001200056000000
B1003285208716N01240562EA0001200056000000
B1003325208716N01240562EA0001200064000000
B1003365208716N01240562EA0001200064000000
B1003405208716N01240562EA0001200064000000
B1003445208716N01240562EA0001200056000000
B1003485208716N01240562EA0001200056000000
B1003525208716N01240562EA0001200056000000
B1003565208716N01240562EA0001200056000000
B1004005208716N01240562EA0001200056000000
B1004045208716N01240562EA0001200056000000
B1004085208716N01240562EA0001200056000000
B1004125208716N01240562EA0001200056000000
B1004165208716N01240562EA0001200056000000
B1004205208716N01240562EA0001200056000000
B1004245208716N01240562EA0001200064000000
B1004285208716N01240562EA0001200064000000
B1004325208716N01240562EA0001200064000000
B1004365208716N01240562EA0001200064000000
B1004405208716N01240562EA0001200064000000
B1004445208716N01240562EA0001200064000000
B1004485208716N01240562EA0001200064000000
B1004525208716N01240562EA0001200064000000
B1004565208716N01240562EA0001200064000000
B1005005208716N01240562EA0001200064000000
B1005045208716N01240562EA0001200064000000
B1005085208716N01240562EA0001200064000000
B1005125208716N01240562EA0001200064000000
B1005165208716N01240562EA0001200064000000
B1005205208716N01240562EA0001200064000000
B1005245208716N01240562EA0001200064000000
B1005285208716N01240562EA0001200064000000
B1005325208716N01240562EA0001200064000000
B1005365208716N01240562EA0001200064000000
B1005405208716N01240562EA0001200064000000
B1005445208716N01240562EA0001200064000000
B1005485208716N01240562EA0001200064000000
B1005525208716N01240562EA0001200064000000
B1005565208716N01240562EA0001200064000000
B1006005208716N01240562EA0001200064000000
B1006045208716N01240562EA0001200064000000
B1006085208716N01240562EA0001200064000000
B1006125208716N01240562EA0001200064000000
B1006165208716N01240562EA0001200064000004
B1006205208716N01240562EA0001200064000000
B1006245208716N01240562EA0001200064000000
B1006285208716N01240562EA0001200064000000
B1006325208716N01240562EA0001200064000000
B1006365208716N01240562EA0001200064000000
B1006405208716N01240562EA0001200064000000
B1006445208716N01240562EA0001200064000000
B1006485208716N01240562EA0001200064000000
B1006525208716N01240562EA0001200064000000
B1006565208716N01240562EA0001200064000000
B1007005208716N01240562EA0001200064000000
B1007045208716N01240562EA0001200064000000
B1007085208716N01240562EA0001200064000000
B1007125208716N01240562EA0001200064000000
B1007165208716N01240562EA0001200064000000
B1007205208716N01240562EA0001200064000000
B1007245208716N01240562EA0001200064000000
B1007285208716N01240562EA0001200064000000
B1007325208716N01240562EA0001200064000000
B1007365208716N01240562EA0001200064000000
B1007405208716N01240562EA0001200064000000
B1007445208716N01240562EA0001200064000000
B1007485208716N01240562EA0001200064000000
B1007525208716N01240562EA0001200064000000
B1007565208716N01240562EA0001200064000000
B1008005208716N01240562EA0001200064000000
B1008045208716N01240562EA0001200064000000
B1008085208716N01240562EA0001200064000000
B1008125208716N01240562EA0001200064000000
B1008165208716N01240562EA0001200064000000
B1008205208716N01240562EA0001200064000000
B1008245208716N01240562EA0001200064000000
B1008285208716N01240562EA0001200064000000
B1008325208716N01240562EA0001300064000000
B1008365208716N01240562EA0001300064000000
B1008405208716N01240562EA0001300064000000
B1008445208716N01240562EA0001300064000000
B1008485208716N01240562EA0001300064000000
B1008525208716N01240562EA0001300064000000
B1008565208716N01240562EA0001300064000000
B1009005208716N01240562EA0001300064000000
B1009045208716N01240562EA0001300064000000
B1009085208716N01240562EA0001300064000000
B1009125208716N01240562EA0001300064000000
B1009165208716N01240562EA0001300064000000
B1009205208716N01240562EA0001300064000000
B1009245208716N01240562EA0001300064000000
B1009285208716N01240562EA0001300064000000
B1009325208716N01240562EA0001300064000000
B1009365208716N01240562EA0001300064000000
B1009405208716N01240562EA0001300064000000
B1009445208716N01240562EA0001300064000000
B1009485208716N01240562EA0001300064000000
B1009525208716N01240562EA0001300064000000
B1009565208716N01240562EA0001300064000000
B1010005208716N01240562EA0001300064000000
B1010045208716N01240562EA0001300064000000
B1010085208716N01240562EA0001300064000000
B1010125208716N01240562EA0001300064000000
B1010165208716N01240562EA0001300064000000
B1010205208716N01240562EA0001300064000000
B1010245208716N01240562EA0001300064000000
B1010285208716N01240562EA0001300064000000
B1010325208716N01240562EA0001300064000000
B1010365208716N01240562EA0001300064000000
B1010405208716N01240562EA0001300064000000
B1010445208716N01240562EA0001300064000000
B1010485208716N01240562EA0001300064000000
B1010525208716N01240558EA0001300064000000
B1010565208716N01240558EA0001300064000000
B1011005208716N01240558EA0001300064000000
B1011045208716N01240558EA0001300064000000
B1011085208716N01240558EA0001300064000000
B1011125208716N01240558EA0001300064000000
B1011165208716N01240558EA0001300064000000
B1011205208716N01240558EA0001300064000000
B1011245208716N01240558EA0001300064000000
B1011285208716N01240562EA0001300064000000
B1011325208716N01240562EA0001300064000000
B1011365208716N01240562EA0001300064000000
B1011405208716N01240562EA0001300064000000
B1011445208716N01240562EA0001300064000000
B1011485208716N01240562EA0001300064000000
B1011525208716N01240562EA0001300064000000
B1011565208716N01240562EA0001300064000000
B1012005208716N01240562EA0001300064000000
B1012045208716N01240562EA0001300064000000
B1012085208716N01240562EA0001300064000000
B1012125208716N01240562EA0001300064000000
B1012165208716N01240562EA0001300064000000
B1012205208716N01240562EA0001400064000000
B1012245208716N01240562EA0001400064000000
B1012285208716N01240562EA0001400064000000
B1012325208716N01240562EA0001400064000000
B1012365208716N01240562EA0001400064000000
B1012405208716N01240562EA0001400064000000
B1012445208716N01240562EA0001400064000000
B1012485208716N01240562EA0001400064000000
B1012525208716N01240562EA0001400064000000
B1012565208716N01240562EA0001400064000000
B1013005208716N01240562EA0001400064000000
B1013045208716N01240562EA0001400064000000
B1013085208716N01240562EA0001400064000000
B1013125208716N01240562EA0001400064000000
B1013165208716N01240562EA0001400064000000
B1013205208716N01240562EA0001400064000000
B1013245208716N01240562EA0001400064000000
B1013285208716N01240562EA0001400064000000
B1013325208716N01240562EA0001300064000000
B1013365208716N01240562EA0001300064000000
B1013405208716N01240562EA0001300064000000
B1013445208716N01240562EA0001300064000000
B1013485208716N01240562EA0001300064000000
B1013525208716N01240562EA0001300064000000
B1013565208716N01240562EA0001300064000000
B1014005208716N01240562EA0001300064000000
B1014045208716N01240562EA0001300064000000
B1014085208716N01240562EA0001300064000000
B1014125208716N01240562EA0001300064000000
B1014165208716N01240562EA0001300064000000
B1014205208716N01240562EA0001300064000000
B1014245208716N01240562EA0001300064000000
B1014285208716N01240562EA0001300064000000
B1014325208716N01240562EA0001300064000000
B1014365208716N01240562EA0001300064000000
B1014405208716N01240562EA0001300064000000
B1014445208716N01240562EA0001300064000000
B1014485208716N01240562EA0001300064000000
B1014525208716N01240562EA0001300064000000
B1014565208716N01240562EA0001300064000000
B1015005208716N01240562EA0001300064000000
B1015045208716N01240562EA0001300064000000
B1015085208716N01240562EA0001300064000000
B1015125208716N01240562EA0001300064000000
B1015165208716N01240562EA0001300064000000
B1015205208716N01240562EA0001300064000000
B1015245208716N01240562EA0001300064000000
B1015285208716N01240562EA0001300064000000
B1015325208716N01240562EA0001300064000000
B1015365208716N01240562EA0001300064000000
B1015405208716N01240562EA0001300072000000
B1015445208716N01240562EA0001300072000000
B1015485208716N01240562EA0001300072000000
B1015525208716N01240562EA0001300072000000
B1015565208716N01240562EA0001300072000000
B1016005208716N01240562EA0001300072000000
B1016045208716N01240562EA0001300072000000
B1016085208716N01240562EA0001300064000000
B1016125208716N01240562EA0001300064000000
B1016165208716N01240562EA0001300064000000
B1016205208716N01240562EA0001300064000000
B1016245208716N01240562EA0001300064000000
B1016285208716N01240562EA0001300072000000
B1016325208716N01240562EA0001300072000000
B1016365208716N01240562EA0001300072000000
B1016405208716N01240562EA0001300072000000
B1016445208716N01240562EA0001300072000000
B1016485208716N01240562EA0001300072000000
B1016525208716N01240562EA0001300072000000
B1016565208716N01240562EA0001300072000000
B1017005208716N01240562EA0001300072000000
B1017045208716N01240562EA0001300072000000
B1017085208716N01240562EA0001300072000000
B1017125208716N01240562EA0001300072000000
B1017165208716N01240562EA0001300072000000
B1017205208716N01240562EA0001300072000000
B1017245208716N01240562EA0001300072000000
B1017285208716N01240562EA0001300072000000
B1017325208716N01240562EA0001300072000000
B1017365208716N01240562EA0001300072000000
B1017405208716N01240562EA0001300072000000
B1017445208716N01240562EA0001300072000000
B1017485208716N01240562EA0001300072000000
B1017525208716N01240562EA0001300072000000
B1017565208712N01240562EA0001300072000000
B1018005208712N01240562EA0001300072000000
B1018045208712N01240562EA0001300072000000
B1018085208712N01240562EA0001300072000004
B1018125208712N01240562EA0001300072000000
B1018165208712N01240562EA0001300072000004
B1018205208712N01240562EA0001300072000004
B1018245208712N01240562EA0001300072000004
B1018285208712N01240562EA0001300072000004
B1018325208712N01240562EA0001300072000000
B1018365208712N01240562EA0001300072000000
B1018405208712N01240562EA0001300072000004
B1018445208712N01240562EA0001300072000000
B1018485208712N01240562EA0001300072000000
B1018525208712N01240562EA0001300072000000
B1018565208712N01240562EA0001300072000000
B1019005208712N01240562EA0001300072000000
B1019045208712N01240562EA0001300072000000
B1019085208712N01240562EA0001300072000000
B1019125208716N01240562EA0001300072000000
B1019165208716N01240562EA0001300072000000
B1019205208716N01240562EA0001300072000000
B1019245208716N01240562EA0001300072000000
B1019285208716N01240562EA0001300072000000
B1019325208716N01240562EA0001300072000000
B1019365208716N01240562EA0001300072000000
B1019405208716N01240562EA0001300072000000
B1019445208716N01240562EA0001300072000000
B1019485208716N01240562EA0001300072000000
B1019525208716N01240562EA0001300072000000
B1019565208716N01240562EA0001300072000000
B1020005208716N01240562EA0001400072000000
B1020045208716N01240562EA0001300072000000
B1020085208716N01240562EA0001300064000000
B1020125208716N01240562EA0001300064000000
B1020165208716N01240562EA0001300064000000
B1020205208716N01240562EA0001300064000000
B1020245208716N01240562EA0001300064000000
B1020285208716N01240562EA0001300064000000
B1020325208716N01240562EA0001400064000000
B1020365208716N01240562EA0001400072000000
B1020405208716N01240562EA0001400072000000
B1020445208716N01240562EA0001300072000000
B1020485208716N01240562EA0001300072000000
B1020525208716N01240562EA0001300072000000
B1020565208716N01240562EA0001300072000000
B1021005208716N01240562EA0001300072000000
B1021045208716N01240562EA0001300072000000
B1021085208716N01240562EA0001300072000000
B1021125208716N01240562EA0001300072000000
B1021165208716N01240562EA0001300072000000
B1021205208716N01240562EA0001300072000000
B1021245208716N01240562EA0001300072000000
B1021285208716N01240562EA0001300072000000
B1021325208716N01240562EA0001300072000000
B1021365208716N01240562EA0001300072000000
B1021405208716N01240562EA0001300072000000
B1021445208716N01240562EA0001300072000000
B1021485208716N01240562EA0001300072000000
B1021525208716N01240562EA0001300072000000
B1021565208716N01240562EA0001300072000000
B1022005208716N01240562EA0001400072000004
B1022045208716N01240562EA0001400072000000
B1022085208716N01240562EA0001400072000004
B1022125208716N01240562EA0001400072000004
B1022165208716N01240562EA0001400072000004
B1022205208716N01240562EA0001400072000004
B1022245208716N01240562EA0001400072000004
B1022285208716N01240562EA0001400072000004
B1022325208716N01240562EA0001400072000008
B1022365208716N01240562EA0001400072000008
B1022405208716N01240562EA0001400072000008
B1022445208716N01240562EA0001400072000008
B1022485208716N01240562EA0001400072000008
B1022525208716N01240562EA0001400072000008
B1022565208716N01240562EA0001400072000008
B1023005208716N01240562EA0001400072000008
B1023045208716N01240562EA0001400072000008
B1023085208716N01240562EA0001400072000008
B1023125208716N01240562EA0001400072000008
B1023165208716N01240562EA0001400072000008
B1023205208716N01240562EA0001400072000028
B1023245208716N01240562EA0001300072000016
B1023285208716N01240562EA0001300072000016
B1023325208716N01240562EA0001300072000024
B1023365208716N01240562EA0001300072000016
B1023405208716N01240562EA0001300072000016
B1023445208716N01240562EA0001300072000016
B1023485208716N01240562EA0001300072000016
B1023525208716N01240562EA0001300072000020
B1023565208716N01240562EA0001300072000016
B1024005208716N01240562EA0001300072000016
B1024045208716N01240562EA0001300072000016
B1024085208716N01240562EA0001300072000016
B1024125208716N01240562EA0001300072000016
B1024165208716N01240562EA0001300072000024
B1024205208716N01240562EA0001300072000020
B1024245208716N01240562EA0001300072000004
B1024285208716N01240562EA0001300072000016
B1024325208716N01240562EA0001300072000012
B1024365208716N01240562EA0001300072000008
B1024405208716N01240562EA0001300072000028
B1024445208716N01240562EA0001300072000020
B1024485208716N01240562EA0001300072000000
B1024525208716N01240562EA0001300072000016
B1024565208716N01240562EA0001300072000008
B1025005208716N01240562EA0001300072000004
B1025045208716N01240562EA0001300072000012
B1025085208716N01240562EA0001300072000008
B1025125208716N01240562EA0001300072000012
B1025165208716N01240562EA0001300072000012
B1025205208716N01240562EA0001300072000008
B1025245208716N01240562EA0001300072000008
B1025285208716N01240562EA0001300072000008
B1025325208716N01240562EA0001300072000008
B1025365208716N01240562EA0001300072000008
B1025405208716N01240562EA0001400072000008
B1025445208716N01240562EA0001400072000012
B1025485208716N01240562EA0001400072000008
B1025525208716N01240562EA0001400072000008
B1025565208716N01240562EA0001400072000008
B1026005208716N01240562EA0001400072000004
B1026045208716N01240562EA0001400072000008
B1026085208716N01240562EA0001400072000004
B1026125208716N01240562EA0001400072000004
B1026165208716N01240562EA0001400072000004
B1026205208716N01240562EA0001400072000004
B1026245208716N01240562EA0001400072000004
B1026285208716N01240562EA0001400072000004
B1026325208716N01240562EA0001400072000004
B1026365208716N01240562EA0001400072000004
B1026405208716N01240562EA0001400072000000
B1026445208716N01240562EA0001400072000000
B1026485208716N01240562EA0001400072000004
B1026525208716N01240562EA0001400072000000
B1026565208716N01240562EA0001400072000004
B1027005208716N01240562EA0001400072000004
B1027045208716N01240562EA0001400072000004
B1027085208716N01240562EA0001400072000004
B1027125208716N01240562EA0001400072000004
B1027165208716N01240562EA0001400072000004
B1027205208716N01240562EA0001400072000000
B1027245208716N01240562EA0001400072000000
B1027285208716N01240562EA0001400072000000
B1027325208716N01240562EA0001400072000000
B1027365208716N01240562EA0001400072000000
B1027405208716N01240562EA0001400072000000
B1027445208716N01240562EA0001400072000000
B1027485208716N01240562EA0001400072000000
B1027525208716N01240562EA0001400072000000
B1027565208716N01240562EA0001400072000000
B1028005208716N01240562EA0001400072000000
B1028045208716N01240562EA0001400072000000
B1028085208716N01240562EA0001400072000000
B1028125208716N01240562EA0001400072000000
B1028165208716N01240562EA0001400072000000
B1028205208716N01240562EA0001400072000000
B1028245208716N01240562EA0001400072000000
B1028285208716N01240562EA0001400072000000
B1028325208716N01240562EA0001400072000000
B1028365208716N01240562EA0001400072000000
B1028405208716N01240562EA0001400072000000
B1028445208716N01240562EA0001400072000000
B1028485208716N01240562EA0001400072000000
B1028525208716N01240562EA0001400072000000
B1028565208716N01240562EA0001400072000000
B1029005208716N01240562EA0001400072000000
B1029045208716N01240562EA0001400072000000
B1029085208716N01240562EA0001400072000000
B1029125208716N01240562EA0001400072000000
B1029165208716N01240562EA0001400072000000
B1029205208716N01240562EA0001400072000000
B1029245208716N01240562EA0001400072000000
B1029285208716N01240562EA0001400072000000
B1029325208716N01240562EA0001400072000000
B1029365208716N01240562EA0001400072000000
B1029405208716N01240562EA0001400072000000
B1029445208716N01240562EA0001400072000000
B1029485208716N01240562EA0001400072000000
B1029525208716N01240562EA0001400072000000
B1029565208716N01240562EA0001400072000000
B1030005208716N01240562EA0001400072000000
B1030045208716N01240562EA0001400072000000
B1030085208716N01240562EA0001400072000000
B1030125208716N01240562EA0001400072000000
B1030165208716N01240562EA0001400072000000
B1030205208716N01240562EA0001400072000000
B1030245208716N01240562EA0001400072000000
B1030285208716N01240562EA0001400072000000
B1030325208716N01240562EA0001400072000000
B1030365208716N01240562EA0001400072000000
B1030405208716N01240562EA0001400072000000
B1030445208716N01240562EA0001400072000000
B1030485208716N01240562EA0001400072000000
B1030525208716N01240562EA0001400072000000
B1030565208716N01240562EA0001400072000000
B1031005208716N01240562EA0001400072000000
B1031045208716N01240562EA0001400072000000
B1031085208716N01240562EA0001400072000000
B1031125208716N01240562EA0001400072000000
B1031165208716N01240562EA0001400072000000
B1031205208716N01240562EA0001400072000000
B1031245208716N01240562EA0001400072000000
B1031285208716N01240562EA0001400072000000
B1031325208716N01240562EA0001400072000000
B1031365208716N01240562EA0001400072000000
B1031405208716N01240562EA0001400072000000
B1031445208716N01240562EA0001400072000000
B1031485208716N01240562EA0001400072000000
B1031525208716N01240562EA0001400072000000
B1031565208716N01240562EA0001400072000000
B1032005208716N01240562EA0001400072000000
B1032045208716N01240562EA0001400072000000
B1032085208716N01240562EA0001400072000000
B1032125208716N01240562EA0001400072000000
B1032165208716N01240562EA0001400072000000
B1032205208716N01240562EA0001400072000000
B1032245208716N01240562EA0001400072000000
B1032285208716N01240562EA0001400072000000
B1032325208716N01240562EA0001400072000000
B1032365208716N01240562EA0001400072000000
B1032405208716N01240562EA0001400072000000
B1032445208716N01240562EA0001400072000000
B1032485208716N01240562EA0001400072000000
B1032525208716N01240562EA0001400072000000
B1032565208716N01240562EA0001400072000000
B1033005208716N01240562EA0001400072000000
B1033045208716N01240562EA0001400072000000
B1033085208716N01240562EA0001300072000000
B1033125208716N01240562EA0001300072000000
B1033165208716N01240562EA0001400072000000
B1033205208716N01240562EA0001400072000000
B1033245208716N01240562EA0001400072000000
B1033285208716N01240562EA0001400072000000
B1033325208716N01240562EA0001400072000000
B1033365208716N01240562EA0001400072000000
B1033405208716N01240562EA0001400072000000
B1033445208716N01240562EA0001400072000000
B1033485208716N01240562EA0001400072000000
B1033525208716N01240562EA0001400072000000
B1033565208716N01240562EA0001400072000000
B1034005208716N01240562EA0001400072000000
B1034045208716N01240562EA0001400072000000
B1034085208716N01240562EA0001400072000000
B1034125208716N01240562EA0001400072000000
B1034165208716N01240562EA0001400072000000
B1034205208716N01240562EA0001400072000000
B1034245208716N01240562EA0001400072000000
B1034285208716N01240562EA0001400072000000
B1034325208716N01240562EA0001400072000000
B1034365208716N01240562EA0001400072000000
B1034405208716N01240562EA0001400072000000
B1034445208716N01240562EA0001400072000000
B1034485208716N01240562EA0001400072000004
B1034525208716N01240562EA0001400072000000
B1034565208716N01240562EA0001400072000000
B1035005208716N01240562EA0001400072000000
B1035045208716N01240562EA0001400072000000
B1035085208716N01240562EA0001400072000000
B1035125208716N01240562EA0001400072000000
B1035165208716N01240562EA0001400072000000
B1035205208716N01240562EA0001400072000000
B1035245208716N01240562EA0001400072000000
B1035285208716N01240562EA0001400072000000
B1035325208716N01240562EA0001400072000000
B1035365208716N01240562EA0001400072000000
B1035405208716N01240562EA0001400072000000
B1035445208716N01240562EA0001400072000000
B1035485208716N01240562EA0001400072000000
B1035525208716N01240562EA0001400072000000
B1035565208716N01240562EA0001400072000000
B1036005208716N01240562EA0001400072000000
B1036045208716N01240562EA0001400072000000
B1036085208716N01240562EA0001400072000000
B1036125208716N01240562EA0001400072000000
B1036165208716N01240562EA0001400072000000
B1036205208716N01240562EA0001400072000000
B1036245208716N01240562EA0001400072000000
B1036285208716N01240562EA0001400072000000
B1036325208716N01240562EA0001400072000000
B1036365208716N01240562EA0001400072000000
B1036405208716N01240562EA0001400072000000
B1036445208716N01240562EA0001400072000000
B1036485208716N01240562EA0001400072000000
B1036525208716N01240562EA0001400072000000
B1036565208716N01240562EA0001400072000000
B1037005208716N01240562EA0001400072000000
B1037045208716N01240562EA0001400072000000
B1037085208716N01240562EA0001400072000000
B1037125208716N01240562EA0001400072000000
B1037165208716N01240562EA0001400072000000
B1037205208716N01240562EA0001400072000000
B1037245208716N01240562EA0001400072000000
B1037285208716N01240562EA0001400072000000
B1037325208716N01240562EA0001400072000000
B1037365208716N01240562EA0001300072000000
B1037405208716N01240562EA0001300072000000
B1037445208716N01240562EA0001300072000000
B1037485208716N01240562EA0001300072000000
B1037525208716N01240562EA0001300072000000
B1037565208716N01240562EA0001300072000000
B1038005208716N01240562EA0001300072000000
B1038045208716N01240562EA0001300072000000
B1038085208716N01240562EA0001300072000000
B1038125208716N01240562EA0001300072000000
B1038165208716N01240562EA0001300072000000
B1038205208716N01240562EA0001300072000000
B1038245208716N01240562EA0001300072000000
B1038285208716N01240562EA0001300072000000
B1038325208716N01240562EA0001300072000000
B1038365208716N01240562EA0001300072000000
B1038405208716N01240562EA0001300072000000
B1038445208716N01240562EA0001300072000000
B1038485208716N01240562EA0001300072000000
B1038525208716N01240562EA0001300072000000
B1038565208716N01240562EA0001300072000000
B1039005208716N01240562EA0001300072000000
B1039045208716N01240562EA0001300072000000
B1039085208716N01240562EA0001300072000000
B1039125208716N01240562EA0001300072000000
B1039165208716N01240562EA0001300072000000
B1039205208716N01240562EA0001300072000000
B1039245208716N01240562EA0001300072000000
B1039285208716N01240562EA0001300072000000
B1039325208716N01240562EA0001300072000000
B1039365208716N01240562EA0001300072000000
B1039405208716N01240562EA0001300072000000
B1039445208716N01240562EA0001300064000000
B1039485208716N01240562EA0001300064000000
B1039525208716N01240562EA0001300064000000
B1039565208716N01240562EA0001300064000000
B1040005208716N01240562EA0001300064000000
B1040045208716N01240562EA0001300064000000
B1040085208716N01240562EA0001300064000000
B1040125208716N01240562EA0001300064000000
B1040165208716N01240562EA0001300064000000
B1040205208716N01240562EA0001300072000000
B1040245208716N01240562EA0001300072000000
B1040285208716N01240562EA0001300072000000
B1040325208716N01240562EA0001300072000000
B1040365208716N01240562EA0001300072000000
B1040405208716N01240562EA0001300072000000
B1040445208716N01240562EA0001300072000000
B1040485208716N01240562EA0001300072000000
B1040525208716N01240562EA0001300072000000
B1040565208716N01240562EA0001300072000000
B1041005208716N01240562EA0001300072000000
B1041045208716N01240562EA0001300072000000
B1041085208716N01240562EA0001300072000000
B1041125208716N01240562EA0001300072000000
B1041165208716N01240562EA0001300072000000
B1041205208716N01240562EA0001300072000000
B1041245208716N01240562EA0001300072000000
B1041285208716N01240562EA0001300072000000
B1041325208716N01240562EA0001300072000000
B1041365208716N01240562EA0001300072000000
B1041405208716N01240562EA0001300072000000
B1041445208716N01240562EA0001300072000000
B1041485208716N01240562EA0001300072000000
B1041525208716N01240562EA0001300072000000
B1041565208716N01240562EA0001300072000000
B1042005208716N01240562EA0001300072000000
B1042045208716N01240562EA0001300072000000
B1042085208716N01240562EA0001300072000000
B1042125208716N01240562EA0001300072000000
B1042165208716N01240562EA0001300072000000
B1042205208716N01240562EA0001300072000000
B1042245208716N01240562EA0001300072000000
B1042285208716N01240562EA0001300072000000
B1042325208716N01240562EA0001300072000000
B1042365208716N01240562EA0001300072000000
B1042405208716N01240562EA0001300072000000
B1042445208716N01240562EA0001300072000000
B1042485208716N01240562EA0001300072000000
B1042525208716N01240562EA0001300072000000
B1042565208716N01240562EA0001300072000000
B1043005208716N01240562EA0001300072000000
B1043045208716N01240562EA0001300072000000
B1043085208716N01240562EA0001300072000000
B1043125208716N01240562EA0001300072000000
B1043165208716N01240562EA0001300072000000
B1043205208716N01240562EA0001300072000000
B1043245208716N01240562EA0001300072000000
B1043285208716N01240562EA0001300072000000
B1043325208716N01240562EA0001300072000000
B1043365208716N01240562EA0001300072000000
B1043405208716N01240562EA0001300072000000
B1043445208716N01240562EA0001300072000000
B1043485208716N01240562EA0001300072000000
B1043525208716N01240562EA0001300072000000
B1043565208716N01240562EA0001300072000000
B1044005208716N01240562EA0001300072000000
B1044045208716N01240562EA0001300072000000
B1044085208716N01240562EA0001300072000000
B1044125208716N01240562EA0001300072000000
B1044165208716N01240562EA0001400072000000
B1044205208716N01240562EA0001400064000000
B1044245208716N01240562EA0001400064000000
B1044285208716N01240562EA0001400064000000
B1044325208716N01240562EA0001400064000000
B1044365208716N01240562EA0001400064000000
B1044405208716N01240562EA0001400064000000
B1044445208716N01240562EA0001400064000000
B1044485208716N01240562EA0001400064000000
B1044525208716N01240562EA0001400064000000
B1044565208716N01240562EA0001400064000000
B1045005208716N01240562EA0001400064000000
B1045045208716N01240562EA0001400064000000
B1045085208716N01240562EA0001400064000000
B1045125208716N01240562EA0001400064000000
B1045165208716N01240562EA0001400064000000
B1045205208716N01240562EA0001400064000000
B1045245208716N01240562EA0001400064000000
B1045285208716N01240562EA0001400064000000
B1045325208716N01240562EA0001400064000000
B1045365208716N01240562EA0001400064000000
B1045405208716N01240562EA0001400064000000
B1045445208716N01240562EA0001400072000000
B1045485208716N01240562EA0001400072000000
B1045525208716N01240562EA0001400072000000
B1045565208716N01240562EA0001400072000000
B1046005208716N01240562EA0001400072000000
B1046045208716N01240562EA0001400072000000
B1046085208716N01240562EA0001400072000000
B1046125208716N01240562EA0001400072000000
B1046165208716N01240562EA0001400072000000
B1046205208716N01240562EA0001400072000000
B1046245208716N01240562EA0001400072000000
B1046285208716N01240562EA0001400072000000
B1046325208716N01240562EA0001400072000000
B1046365208716N01240562EA0001400072000000
B1046405208716N01240562EA0001400072000000
B1046445208716N01240562EA0001400072000000
B1046485208716N01240562EA0001400072000000
B1046525208716N01240562EA0001400072000000
B1046565208716N01240562EA0001400072000000
B1047005208716N01240562EA0001400072000000
B1047045208716N01240562EA0001400072000000
B1047085208716N01240562EA0001400072000000
B1047125208716N01240562EA0001400072000000
B1047165208716N01240562EA0001400072000000
B1047205208716N01240562EA0001400072000000
B1047245208716N01240562EA0001400072000000
B1047285208716N01240562EA0001400072000000
B1047325208716N01240562EA0001400072000000
B1047365208716N01240562EA0001400072000000
B1047405208716N01240562EA0001400072000000
B1047445208716N01240562EA0001400072000000
B1047485208716N01240562EA0001400072000000
B1047525208716N01240562EA0001400072000000
B1047565208716N01240562EA0001400072000000
B1048005208716N01240562EA0001400072000000
B1048045208716N01240562EA0001400072000000
B1048085208716N01240562EA0001400072000000
B1048125208716N01240562EA0001400072000000
B1048165208716N01240562EA0001400072000000
B1048205208716N01240562EA0001400072000000
B1048245208716N01240562EA0001400072000000
B1048285208716N01240562EA0001400072000000
B1048325208716N01240562EA0001400072000000
B1048365208716N01240562EA0001400072000000
B1048405208716N01240562EA0001400072000000
B1048445208716N01240562EA0001400072000000
B1048485208716N01240562EA0001400072000000
B1048525208716N01240562EA0001400072000000
B1048565208716N01240562EA0001400072000000
B1049005208716N01240562EA0001400072000000
B1049045208716N01240562EA0001400072000000
B1049085208716N01240562EA0001400072000000
B1049125208716N01240562EA0001400072000000
B1049165208716N01240562EA0001400072000000
B1049205208716N01240562EA0001400072000000
B1049245208716N01240562EA0001400072000000
B1049285208716N01240562EA0001400072000000
B1049325208716N01240562EA0001400072000000
B1049365208716N01240562EA0001400072000000
B1049405208716N01240562EA0001400072000000
B1049445208716N01240562EA0001400072000000
B1049485208716N01240562EA0001400072000000
B1049525208716N01240562EA0001400072000000
B1049565208716N01240562EA0001400072000000
B1050005208716N01240562EA0001400072000000
B1050045208716N01240562EA0001400072000000
B1050085208716N01240562EA0001400072000000
B1050125208716N01240562EA0001400072000000
B1050165208716N01240562EA0001400072000000
B1050205208716N01240562EA0001400072000000
B1050245208716N01240562EA0001400072000020
B1050285208716N01240562EA0001400072000008
B1050325208716N01240562EA0001400072000004
B1050365208716N01240562EA0001400072009012
B1050405208716N01240562EA0001400072008000
B1050445208716N01240562EA0001400072009000
B1050485208716N01240562EA0001400080007000
B1050525208716N01240562EA0001400080009000
B1050565208712N01240562EA0001400080004000
B1051005208712N01240562EA0001400080001000
B1051045208712N01240562EA0001400080005000
B1051085208712N01240562EA0001400080003000
B1051125208712N01240562EA0001400080000000
B1051165208712N01240566EA0001400080000000
B1051205208712N01240566EA0001400080002000
B1051245208712N01240566EA0001400080000000
B1051285208712N01240566EA0001400080000000
B1051325208712N01240566EA0001400080000000
B1051365208712N01240566EA0001400080005000
B1051405208712N01240566EA0001400080009000
B1051445208712N01240566EA0001400080000000
B1051485208712N01240566EA0001400080000000
B1051525208712N01240566EA0001400080002000
B1051565208712N01240566EA0001400080000000
B1052005208712N01240566EA0001400080007000
B1052045208712N01240566EA0001400080000000
B1052085208712N01240566EA0001400080000004
B1052125208712N01240566EA0001400080000000
B1052165208712N01240566EA0001400080004004
B1052205208712N01240566EA0001400080006004
B1052245208712N01240566EA0001400080000000
B1052285208712N01240566EA0001400080000000
B1052325208712N01240566EA0001400080006000
B1052365208712N01240566EA0001400080004000
B1052405208712N01240566EA0001400080004000
B1052445208712N01240566EA0001400080001000
B1052485208712N01240566EA0001400080011004
B1052525208712N01240566EA0001400080012000
B1052565208712N01240566EA0001400080012000
B1053005208712N01240566EA0001400080012000
B1053045208712N01240566EA0001400080009008
B1053085208712N01240566EA0001400080011004
B1053125208712N01240566EA0001400080000012
B1053165208712N01240566EA0001400080000008
B1053205208712N01240566EA0001400080000012
B1053245208712N01240566EA0001400080000012
B1053285208712N01240566EA0001400080000012
B1053325208712N01240566EA0001400080000012
B1053365208712N01240566EA0001400080000012
B1053405208712N01240566EA0001400080000012
B1053445208712N01240562EA0001400080000008
B1053485208712N01240562EA0001400080000008
B1053525208712N01240562EA0001400080000008
B1053565208712N01240562EA0001400080000008
B1054005208712N01240562EA0001400080000008
B1054045208712N01240562EA0001400080000008
B1054085208712N01240562EA0001400080000004
B1054125208712N01240562EA0001400080000008
B1054165208712N01240562EA0001400080000004
B1054205208712N01240562EA0001400080000004
B1054245208712N01240562EA0001400080000004
B1054285208712N01240562EA0001400080000004
B1054325208712N01240562EA0001400080000004
B1054365208712N01240562EA0001400080000004
B1054405208712N01240566EA0001400080000004
B1054445208712N01240566EA0001400080000004
C160813105443160813000103
C5208650N01240100E 001 SP1LUESS
C5208650N01240100E 001 SP1LUESS
C5214950N01215366E 246 ZIESAR  
C5133483N01300666E 213 TORGAU  
C5144016N01336633E 107 KLNKRSNK
C5209483N01246883E 010 CP24    
C5209066N01243550E ZIEL 24     
B1054485208712N01240566EA0001400080000000
B1054525208712N01240566EA0001400080000000
B1054565208712N01240566EA0001400080000000
B1055005208712N01240566EA0001400080004000
B1055045208712N01240566EA0001400080000004
B1055085208712N01240562EA0001400080000000
B1055125208712N01240562EA0001400080000004
B1055165208712N01240562EA0001400080000004
B1055205208712N01240562EA0001400080000004
B1055245208712N01240562EA0001400080000004
B1055285208712N01240566EA0001400080000004
B1055325208712N01240566EA0001400080000004
B1055365208712N01240566EA0001500080000004
B1055405208712N01240566EA0001400080000004
B1055445208712N01240566EA0001400080000008
B1055485208712N01240566EA0001400080000008
B1055525208712N01240566EA0001400080000008
B1055565208712N01240566EA0001400080000008
B1056005208712N01240566EA0001400080000000
B1056045208712N01240566EA0001400080000004
B1056085208712N01240566EA0001400080000000
B1056125208712N01240566EA0001400080000000
B1056165208712N01240566EA0001500080000000
B1056205208712N01240566EA0001500080000000
B1056245208712N01240566EA0001500080000000
B1056285208712N01240566EA0001500080000000
B1056325208712N01240566EA0001500080000000
B1056365208712N01240566EA0001500080000000
B1056405208712N01240566EA0001500080000000
B1056445208712N01240566EA0001500080000000
B1056485208712N01240566EA0001500080000020
B1056525208712N01240566EA0001500080000008
B1056565208712N01240566EA0001500080000040
B1057005208712N01240566EA0001500080000032
B1057045208712N01240566EA0001500080000008
B1057085208712N01240566EA0001500072000024
B1057125208712N01240566EA0001500072000012
B1057165208712N01240566EA0001500072000008
B1057205208712N01240566EA0001500072000008
B1057245208712N01240566EA0001500072000008
B1057285208712N01240566EA0001500072000004
B1057325208712N01240566EA0001500072000008
B1057365208712N01240566EA0001500072000004
B1057405208712N01240566EA0001500072000004
B1057445208712N01240566EA0001500072000004
B1057485208712N01240566EA0001500072000004
B1057525208712N01240566EA0001500072000004
B1057565208712N01240566EA0001500072000004
B1058005208716N01240566EA0001500072000000
B1058045208716N01240566EA0001500072000000
B1058085208712N01240566EA0001500072000000
B1058125208712N01240566EA0001500072000000
B1058165208712N01240566EA0001500072000004
B1058205208712N01240566EA0001500072000000
B1058245208712N01240566EA0001500072000004
B1058285208712N01240566EA0001500072000004
B1058325208712N01240566EA0001500072000004
B1058365208712N01240566EA0001500072000004
B1058405208712N01240566EA0001500072000004
B1058445208712N01240566EA0001500072000004
B1058485208712N01240566EA0001500072000004
B1058525208712N01240566EA0001500072000004
B1058565208712N01240566EA0001500072000004
B1059005208712N01240562EA0001500072000004
B1059045208712N01240562EA0001500072000000
B1059085208712N01240562EA0001500072000000
B1059125208712N01240566EA0001500072000000
B1059165208712N01240566EA0001500072000000
B1059205208712N01240566EA0001500072000000
B1059245208712N01240566EA0001500072000000
B1059285208712N01240566EA0001500072000000
B1059325208712N01240566EA0001500072000000
B1059365208712N01240566EA0001500072000000
B1059405208712N01240566EA0001500072000000
B1059445208712N01240566EA0001500072000004
B1059485208712N01240566EA0001500072000000
B1059525208712N01240566EA0001500072000004
B1059565208712N01240566EA0001500072000004
B1100005208712N01240566EA0001500072000000
B1100045208712N01240566EA0001500072000000
B1100085208712N01240566EA0001500072000000
B1100125208712N01240566EA0001500072000000
B1100165208712N01240566EA0001500072000000
B1100205208712N01240566EA0001500072000000
B1100245208712N01240566EA0001500072000004
B1100285208712N01240566EA0001500072000000
B1100325208712N01240566EA0001500072000004
B1100365208712N01240566EA0001500072000004
B1100405208712N01240566EA0001500072000000
B1100445208712N01240566EA0001500072000000
B1100485208712N01240566EA0001500072000004
B1100525208712N01240566EA0001500072000000
B1100565208712N01240566EA0001500072000004
B1101005208712N01240566EA0001500072000004
B1101045208712N01240566EA0001500072000008
B1101085208712N01240566EA0001500072000008
B1101125208712N01240566EA0001500072000008
B1101165208712N01240566EA0001500072000008
B1101205208712N01240566EA0001500072000004
B1101245208712N01240566EA0001500072000008
B1101285208712N01240566EA0001500072000004
B1101325208712N01240566EA0001500072000004
B1101365208712N01240566EA0001500072000004
B1101405208712N01240566EA0001500072000004
B1101445208712N01240566EA0001500072000004
B1101485208712N01240566EA0001500072000004
B1101525208712N01240566EA0001500072000000
B1101565208712N01240566EA0001500072000000
B1102005208712N01240566EA0001500072000004
B1102045208712N01240566EA0001500072000000
B1102085208712N01240566EA0001500072000004
B1102125208712N01240566EA0001500072000004
B1102165208712N01240566EA0001500072000008
B1102205208712N01240566EA0001500072000008
B1102245208712N01240566EA0001500072000008
B1102285208712N01240566EA0001500072000008
B1102325208712N01240566EA0001500072000004
B1102365208712N01240566EA0001500072000008
B1102405208712N01240566EA0001500072000008
B1102445208712N01240566EA0001500072000008
B1102485208712N01240566EA0001500072000004
B1102525208712N01240566EA0001500072000008
B1102565208712N01240566EA0001500072000004
B1103005208712N01240566EA0001500072000004
B1103045208712N01240566EA0001500072000004
B1103085208712N01240566EA0001500072000004
B1103125208712N01240566EA0001500072000004
B1103165208712N01240566EA0001500072000004
B1103205208712N01240566EA0001500072000004
B1103245208712N01240566EA0001500072000004
B1103285208712N01240566EA0001500072000004
B1103325208712N01240566EA0001500072000004
B1103365208712N01240566EA0001500072000004
B1103405208712N01240566EA0001500072000004
B1103445208712N01240566EA0001500072000004
B1103485208712N01240566EA0001500072000004
B1103525208712N01240566EA0001500072000004
B1103565208712N01240566EA0001500072000004
B1104005208712N01240566EA0001500072000004
B1104045208712N01240566EA0001500072000004
B1104085208712N01240566EA0001500072000004
B1104125208712N01240566EA0001500072000004
B1104165208712N01240566EA0001500072000004
B1104205208712N01240566EA0001500072000004
B1104245208712N01240566EA0001500072000004
B1104285208712N01240566EA0001500072000004
B1104325208712N01240566EA0001500072000008
B1104365208712N01240566EA0001500072000008
B1104405208712N01240566EA0001500072000008
B1104445208712N01240566EA0001500072000008
B1104485208712N01240566EA0001500072000004
B1104525208712N01240566EA0001500072000008
B1104565208712N01240566EA0001500072000004
B1105005208712N01240566EA0001500072000004
B1105045208712N01240566EA0001500072000004
B1105085208712N01240566EA0001500072000004
B1105125208712N01240566EA0001500072000004
B1105165208712N01240566EA0001500072000004
B1105205208712N01240566EA0001500072000004
B1105245208712N01240566EA0001500072000004
B1105285208712N01240566EA0001500072000004
B1105325208712N01240566EA0001500072000004
B1105365208712N01240566EA0001500072000000
B1105405208712N01240566EA0001500072000000
B1105445208712N01240566EA0001500072000000
B1105485208712N01240566EA0001500072000000
B1105525208712N01240566EA0001500072000000
B1105565208712N01240566EA0001500072000000
B1106005208712N01240566EA0001500072000000
B1106045208712N01240566EA0001500072000000
B1106085208712N01240566EA0001500072000000
B1106125208712N01240566EA0001500072000000
B1106165208712N01240566EA0001500072000000
B1106205208712N01240566EA0001500072000000
B1106245208712N01240566EA0001500072000000
B1106285208712N01240566EA0001500072000000
B1106325208712N01240566EA0001500072000004
B1106365208712N01240566EA0001500072000000
B1106405208712N01240566EA0001500072000004
B1106445208712N01240566EA0001500072000004
B1106485208712N01240566EA0001500072000000
B1106525208712N01240566EA0001500072000000
B1106565208712N01240566EA0001500072000000
B1107005208712N01240566EA0001500072000000
B1107045208712N01240566EA0001500072000000
B1107085208712N01240566EA0001500072000000
B1107125208712N01240566EA0001500072000000
B1107165208712N01240566EA0001500072000000
B1107205208712N01240566EA0001500072000000
B1107245208712N01240566EA0001500072000000
B1107285208712N01240566EA0001500072000000
B1107325208712N01240566EA0001500072000000
B1107365208712N01240566EA0001500072000000
B1107405208712N01240566EA0001500072000000
B1107445208712N01240566EA0001500072000000
B1107485208712N01240566EA0001500072000000
B1107525208712N01240566EA0001500072000004
B1107565208712N01240566EA0001500072000000
B1108005208712N01240566EA0001500072000000
B1108045208712N01240566EA0001500072000000
B1108085208712N01240566EA0001500072000000
B1108125208712N01240566EA0001500072000000
B1108165208712N01240566EA0001500072000000
B1108205208712N01240566EA0001500072000000
B1108245208712N01240566EA0001500072000000
B1108285208712N01240566EA0001500072000000
B1108325208712N01240566EA0001500072000000
B1108365208712N01240566EA0001500072000000
B1108405208712N01240566EA0001500072000000
B1108445208712N01240566EA0001500072000000
B1108485208712N01240566EA0001500072000000
B1108525208712N01240566EA0001500072000000
B1108565208712N01240566EA0001500072000000
B1109005208712N01240566EA0001500072000000
B1109045208712N01240566EA0001500072000000
B1109085208712N01240566EA0001500072000000
B1109125208712N01240566EA0001500072000004
B1109165208712N01240566EA0001500072000000
B1109205208712N01240566EA0001500072000008
B1109245208712N01240566EA0001500072000008
B1109285208712N01240566EA0001400072000008
B1109325208712N01240566EA0001400072000008
B1109365208712N01240566EA0001400072000004
B1109405208712N01240566EA0001400072000008
B1109445208712N01240566EA0001400072000004
B1109485208712N01240566EA0001400072000004
B1109525208712N01240566EA0001400072000004
B1109565208712N01240566EA0001400072000004
B1110005208712N01240566EA0001400072000000
B1110045208712N01240566EA0001400072000000
B1110085208712N01240566EA0001400072000004
B1110125208712N01240566EA0001400072000000
B1110165208712N01240566EA0001400072000004
B1110205208712N01240566EA0001400072000004
B1110245208712N01240566EA0001400072000000
B1110285208712N01240566EA0001400072000000
B1110325208712N01240566EA0001400072000004
B1110365208712N01240566EA0001400072000000
B1110405208712N01240566EA0001400072000004
B1110445208712N01240566EA0001400072000004
B1110485208712N01240566EA0001400072000004
B1110525208712N01240566EA0001400072000004
B1110565208712N01240566EA0001400072000004
B1111005208712N01240566EA0001500072000004
B1111045208712N01240566EA0001500072000004
B1111085208712N01240566EA0001500072000004
B1111125208712N01240566EA0001500072000024
B1111165208712N01240566EA0001500072000016
B1111205208712N01240566EA0001500072000000
B1111245208712N01240566EA0001500072000012
B1111285208712N01240566EA0001500072000004
B1111325208712N01240566EA0001500072000000
B1111365208712N01240566EA0001500072000004
B1111405208712N01240566EA0001500072000004
B1111445208712N01240566EA0001500072000000
B1111485208712N01240566EA0001500072000000
B1111525208712N01240566EA0001500072000000
B1111565208712N01240566EA0001500072000000
B1112005208712N01240566EA0001500072000000
B1112045208712N01240566EA0001500072000000
B1112085208712N01240566EA0001500072000000
B1112125208712N01240566EA0001500072000000
B1112165208712N01240566EA0001500072000000
B1112205208712N01240566EA0001500072000000
B1112245208712N01240566EA0001500072000000
B1112285208712N01240566EA0001500072000000
B1112325208712N01240566EA0001500072000000
B1112365208712N01240566EA0001500072000000
B1112405208712N01240566EA0001500072000000
B1112445208712N01240566EA0001500072000000
B1112485208712N01240566EA0001500072000000
B1112525208712N01240566EA0001500072000000
B1112565208712N01240566EA0001500072000000
B1113005208712N01240566EA0001500072000000
B1113045208712N01240566EA0001500072000000
B1113085208712N01240566EA0001500072000000
B1113125208712N01240566EA0001500072000000
B1113165208712N01240566EA0001500072000000
B1113205208712N01240566EA0001500072000000
B1113245208712N01240566EA0001500072000000
B1113285208712N01240566EA0001500072000000
B1113325208712N01240566EA0001500072000000
B1113365208712N01240566EA0001500072000000
B1113405208712N01240566EA0001500072000000
B1113445208712N01240566EA0001500072000000
B1113485208712N01240566EA0001500072000000
B1113525208712N01240566EA0001500072000000
B1113565208712N01240566EA0001500072000000
B1114005208712N01240566EA0001500072000000
B1114045208712N01240566EA0001500072000000
B1114085208712N01240566EA0001500072000000
B1114125208712N01240566EA0001500072000000
B1114165208712N01240566EA0001500072000000
B1114205208712N01240566EA0001500072000000
B1114245208712N01240566EA0001500072000000
B1114285208712N01240566EA0001500072000000
B1114325208712N01240566EA0001500072000000
B1114365208712N01240566EA0001500072000000
B1114405208712N01240566EA0001500072000000
B1114445208712N01240566EA0001500072000000
B1114485208712N01240566EA0001500072000000
B1114525208712N01240566EA0001500072000000
B1114565208712N01240566EA0001500072000000
B1115005208712N01240566EA0001500072000000
B1115045208712N01240566EA0001500072000000
B1115085208712N01240566EA0001500072000000
B1115125208712N01240566EA0001500072000000
B1115165208712N01240566EA0001500072000000
B1115205208712N01240566EA0001500072000000
B1115245208712N01240566EA0001500072000000
B1115285208712N01240566EA0001500072000000
B1115325208712N01240566EA0001500072000000
B1115365208712N01240566EA0001500072000000
B1115405208712N01240566EA0001500072000000
B1115445208712N01240566EA0001500072000000
B1115485208712N01240566EA0001500072000000
B1115525208712N01240566EA0001500072000000
B1115565208712N01240566EA0001500072000000
B1116005208712N01240566EA0001500072000000
B1116045208712N01240566EA0001500072000000
B1116085208712N01240566EA0001500072000000
B1116125208712N01240566EA0001500072000000
B1116165208712N01240566EA0001500072000000
B1116205208712N01240566EA0001500072000000
B1116245208712N01240566EA0001500072000000
B1116285208712N01240566EA0001500072000000
B1116325208712N01240566EA0001500072000000
B1116365208712N01240566EA0001500072000000
B1116405208712N01240566EA0001500072000000
B1116445208712N01240566EA0001500072000000
B1116485208712N01240566EA0001500072000000
B1116525208712N01240566EA0001500072000000
B1116565208712N01240566EA0001500072000000
B1117005208712N01240566EA0001500072000000
B1117045208712N01240566EA0001500072000000
B1117085208712N01240566EA0001500072000000
B1117125208712N01240566EA0001500072000000
B1117165208712N01240566EA0001500072000000
B1117205208712N01240566EA0001500072000000
B1117245208712N01240566EA0001500072000000
B1117285208712N01240566EA0001500072000000
B1117325208712N01240566EA0001500072000000
B1117365208712N01240566EA0001500072000000
B1117405208712N01240566EA0001500072000000
B1117445208712N01240566EA0001500072000000
B1117485208712N01240566EA0001500072000000
B1117525208712N01240566EA0001500072000000
B1117565208712N01240566EA0001500072000000
B1118005208712N01240566EA0001500072000000
B1118045208712N01240566EA0001500072000000
B1118085208712N01240566EA0001500072000004
B1118125208712N01240566EA0001500072000000
B1118165208712N01240566EA0001500072000028
B1118205208712N01240566EA0001500072000016
B1118245208712N01240566EA0001400072000000
B1118285208712N01240566EA0001400072000016
B1118325208712N01240566EA0001400072000008
B1118365208712N01240566EA0001400072000004
B1118405208712N01240566EA0001500072000004
B1118445208712N01240566EA0001500072000008
B1118485208712N01240566EA0001500072000004
B1118525208712N01240566EA0001500072000004
B1118565208712N01240566EA0001500072000004
B1119005208712N01240566EA0001500072000004
B1119045208712N01240566EA0001500072000000
B1119085208712N01240566EA0001500072000000
B1119125208712N01240566EA0001500072000000
B1119165208712N01240566EA0001500072000000
B1119205208712N01240566EA0001500072000004
B1119245208712N01240566EA0001500072000000
B1119285208712N01240566EA0001500072000004
B1119325208712N01240566EA0001500072000004
B1119365208712N01240566EA0001500072000004
B1119405208712N01240566EA0001600072000004
B1119445208712N01240566EA0001600072000008
B1119485208712N01240566EA0001600072000008
B1119525208712N01240566EA0001600072000008
B1119565208712N01240566EA0001600072000008
B1120005208712N01240566EA0001600072000008
B1120045208712N01240566EA0001600072000008
B1120085208712N01240566EA0001600072000012
B1120125208712N01240566EA0001600072000008
B1120165208712N01240566EA0001600072000012
B1120205208712N01240566EA0001600072000012
B1120245208712N01240566EA0001600072000012
B1120285208712N01240566EA0001600072000012
B1120325208712N01240566EA0001600072000012
B1120365208712N01240566EA0001600072000012
B1120405208712N01240566EA0001600072000012
B1120445208712N01240566EA0001600072000012
B1120485208712N01240566EA0001600072000012
B1120525208712N01240566EA0001600072000012
B1120565208712N01240566EA0001600072000028
B1121005208712N01240566EA0001600072000020
B1121045208712N01240566EA0001600072000032
B1121085208712N01240566EA0001600072000032
B1121125208712N01240566EA0001600072000020
B1121165208712N01240566EA0001600072000024
B1121205208712N01240566EA0001600072000028
B1121245208712N01240566EA0001600072000024
B1121285208712N01240566EA0001600072000004
B1121325208712N01240566EA0001600072000016
B1121365208712N01240566EA0001600072000028
B1121405208712N01240566EA0001600072000016
B1121445208712N01240566EA0001600072000016
B1121485208712N01240566EA0001600072000024
B1121525208712N01240566EA0001600072000044
B1121565208712N01240566EA0001600072000032
B1122005208712N01240566EA0001600072000020
B1122045208712N01240566EA0001600072000032
B1122085208712N01240566EA0001600072000004
B1122125208712N01240566EA0001600072000012
B1122165208712N01240566EA0001600072000012
B1122205208712N01240566EA0001600072000008
B1122245208712N01240566EA0001600072000028
B1122285208712N01240566EA0001600072000020
B1122325208712N01240566EA0001600072000000
B1122365208712N01240566EA0001600072000016
B1122405208712N01240566EA0001600072000028
B1122445208712N01240566EA0001600072000016
B1122485208712N01240566EA0001600072000000
B1122525208712N01240566EA0001600072000016
B1122565208712N01240566EA0001600072000028
B1123005208712N01240566EA0001600072000016
B1123045208712N01240566EA0001600072000000
B1123085208712N01240566EA0001600072000016
B1123125208712N01240566EA0001600072000012
B1123165208712N01240566EA0001600072000008
B1123205208712N01240566EA0001600072000028
B1123245208712N01240566EA0001600072000020
B1123285208712N01240566EA0001600072000000
B1123325208712N01240566EA0001600072000016
B1123365208712N01240566EA0001600072000004
B1123405208712N01240566EA0001600072000000
B1123445208712N01240566EA0001600072000000
B1123485208712N01240566EA0001600072000000
B1123525208712N01240566EA0001600072000004
B1123565208712N01240566EA0001600072000000
B1124005208712N01240566EA0001600072000008
B1124045208712N01240566EA0001600072000008
B1124085208712N01240566EA0001600072000008
B1124125208712N01240566EA0001600072000008
B1124165208712N01240566EA0001600072000028
B1124205208712N01240566EA0001600072000016
B1124245208712N01240566EA0001600072000004
B1124285208712N01240566EA0001600072000016
B1124325208712N01240566EA0001600072000008
B1124365208712N01240566EA0001600072000008
B1124405208712N01240566EA0001600072000000
B1124445208712N01240566EA0001600072000004
B1124485208712N01240566EA0001600072000000
B1124525208712N01240566EA0001600072000000
B1124565208712N01240566EA0001600072000000
B1125005208712N01240566EA0001600072000000
B1125045208712N01240566EA0001600072000000
B1125085208712N01240566EA0001600072000000
B1125125208712N01240566EA0001600072000000
B1125165208712N01240566EA0001600072000000
B1125205208712N01240566EA0001600072000000
B1125245208712N01240566EA0001600072000000
B1125285208712N01240566EA0001600072000000
B1125325208712N01240566EA0001600072000000
B1125365208712N01240566EA0001600072000000
B1125405208712N01240566EA0001600072000000
B1125445208712N01240566EA0001600072000000
B1125485208712N01240566EA0001600072000000
B1125525208712N01240566EA0001600072000000
B1125565208712N01240566EA0001600072000000
B1126005208712N01240566EA0001600072000000
B1126045208712N01240566EA0001600072000000
B1126085208712N01240566EA0001600072000000
B1126125208712N01240566EA0001600072000000
B1126165208712N01240566EA0001600072000000
B1126205208712N01240566EA0001600072000000
B1126245208712N01240566EA0001600072000000
B1126285208712N01240566EA0001600072000000
B1126325208712N01240566EA0001600072000000
B1126365208712N01240566EA0001600072000000
B1126405208712N01240566EA0001600072000000
B1126445208712N01240566EA0001600072000000
B1126485208712N01240566EA0001600072000000
B1126525208712N01240566EA0001600072000000
B1126565208712N01240566EA0001600072000000
B1127005208712N01240566EA0001600072000000
B1127045208712N01240566EA0001600072000000
B1127085208712N01240566EA0001600072000000
B1127125208712N01240566EA0001600072000000
B1127165208712N01240566EA0001600072000000
B1127205208712N01240566EA0001600072000000
B1127245208712N01240566EA0001600072000000
B1127285208712N01240566EA0001600072000000
B1127325208712N01240566EA0001600072000000
B1127365208712N01240566EA0001600072000000
B1127405208712N01240566EA0001600072000000
B1127445208712N01240566EA0001600072000000
B1127485208716N01240566EA0001600072000000
B1127525208716N01240566EA0001600072000000
B1127565208716N01240566EA0001600072000000
B1128005208716N01240566EA0001600072000000
B1128045208716N01240566EA0001600072000000
B1128085208716N01240566EA0001600072000004
B1128125208716N01240566EA0001600072000000
B1128165208716N01240566EA0001600072000004
B1128205208716N01240566EA0001600072000004
B1128245208716N01240566EA0001600072000024
B1128285208716N01240566EA0001600072000016
B1128325208716N01240566EA0001600072000000
B1128365208716N01240566EA0001600072000012
B1128405208716N01240566EA0001600072000012
B1128445208716N01240566EA0001600072000008
B1128485208716N01240566EA0001600072000004
B1128525208712N01240566EA0001600072000008
B1128565208712N01240566EA0001600072000004
B1129005208712N01240566EA0001600072000004
B1129045208712N01240566EA0001600072000008
B1129085208716N01240566EA0001600072000008
B1129125208716N01240566EA0001600072000008
B1129165208716N01240566EA0001600072000008
B1129205208716N01240566EA0001600072000008
B1129245208716N01240566EA0001600072000008
B1129285208716N01240566EA0001600072000008
B1129325208712N01240566EA0001600072000008
B1129365208712N01240566EA0001600072000024
B1129405208716N01240566EA0001600072000016
B1129445208712N01240566EA0001600072000016
B1129485208712N01240566EA0001600072000020
B1129525208712N01240566EA0001600072000004
B1129565208712N01240566EA0001600072000008
B1130005208712N01240566EA0001600072000028
B1130045208712N01240566EA0001600072000016
B1130085208712N01240566EA0001600072000000
B1130125208712N01240566EA0001600072000016
B1130165208712N01240566EA0001600072000012
B1130205208712N01240566EA0001600072000008
B1130245208712N01240566EA0001700072000004
B1130285208712N01240566EA0001700072000008
B1130325208712N01240566EA0001700072000004
B1130365208712N01240566EA0001700072000004
B1130405208712N01240566EA0001700072000004
B1130445208712N01240566EA0001700072000004
B1130485208712N01240566EA0001700072000020
B1130525208712N01240566EA0001700072000012
B1130565208712N01240566EA0001700072000004
B1131005208716N01240566EA0001700072000012
B1131045208716N01240566EA0001700072000012
B1131085208716N01240566EA0001700072000008
B1131125208716N01240566EA0001700072000008
B1131165208712N01240566EA0001700072000008
B1131205208712N01240566EA0001700072000004
B1131245208712N01240566EA0001700072000008
B1131285208712N01240566EA0001700072000004
B1131325208716N01240566EA0001700072000004
B1131365208716N01240566EA0001700072000004
B1131405208716N01240566EA0001700072000004
B1131445208716N01240566EA0001700072000000
B1131485208712N01240566EA0001700072000000
B1131525208716N01240566EA0001700072000004
B1131565208716N01240566EA0001700072000000
B1132005208716N01240566EA0001700072000004
B1132045208716N01240566EA0001700072000004
B1132085208716N01240566EA0001700072000000
B1132125208716N01240566EA0001700072000000
B1132165208716N01240566EA0001700072000000
B1132205208716N01240566EA0001700072000000
B1132245208716N01240566EA0001700072000000
B1132285208716N01240566EA0001700072000000
B1132325208716N01240566EA0001700072000000
B1132365208716N01240566EA0001700072000000
B1132405208716N01240566EA0001700072000000
B1132445208716N01240566EA0001700072000000
B1132485208716N01240566EA0001700072000000
B1132525208716N01240566EA0001700072000000
B1132565208716N01240566EA0001700072000000
B1133005208716N01240566EA0001700072000000
B1133045208716N01240566EA0001700072000000
B1133085208716N01240566EA0001700072000000
B1133125208716N01240566EA0001700072000000
B1133165208716N01240566EA0001700072000000
B1133205208716N01240566EA0001700072000000
B1133245208716N01240566EA0001700072000000
B1133285208716N01240566EA0001700072000000
B1133325208716N01240566EA0001700072000000
B1133365208716N01240566EA0001700072000000
B1133405208716N01240566EA0001700072000000
B1133445208716N01240566EA0001700072000000
B1133485208716N01240566EA0001700072000000
B1133525208716N01240566EA0001700072000008
B1133565208716N01240566EA0001700072000004
B1134005208716N01240566EA0001700072000004
B1134045208716N01240566EA0001700064000008
B1134085208716N01240566EA0001700064000008
B1134125208716N01240566EA0001700064000008
B1134165208716N01240566EA0001700072000024
B1134205208716N01240566EA0001700072000016
B1134245208716N01240566EA0001700072000004
B1134285208716N01240566EA0001700072000016
B1134325208716N01240566EA0001700072000008
B1134365208716N01240566EA0001700072000008
B1134405208716N01240566EA0001700072000004
B1134445208716N01240566EA0001700072000008
B1134485208716N01240566EA0001700072000004
B1134525208716N01240566EA0001700072000004
B1134565208716N01240566EA0001600072000004
B1135005208716N01240566EA0001600072000004
B1135045208712N01240566EA0001600072000004
B1135085208712N01240566EA0001600072000004
B1135125208712N01240566EA0001600072000008
B1135165208716N01240566EA0001600072000008
B1135205208712N01240566EA0001600072000012
B1135245208712N01240566EA0001600072000008
B1135285208712N01240566EA0001600072000008
B1135325208712N01240566EA0001600072000008
B1135365208712N01240566EA0001600072000004
B1135405208712N01240566EA0001600072000008
B1135445208712N01240566EA0001600072000004
B1135485208712N01240566EA0001600072000004
B1135525208712N01240566EA0001600072000008
B1135565208712N01240566EA0001600072000008
B1136005208712N01240566EA0001600072000024
B1136045208712N01240566EA0001600072000016
B1136085208712N01240566EA0001600072000016
B1136125208712N01240566EA0001600072000020
B1136165208712N01240566EA0001600072000000
B1136205208712N01240566EA0001600072000008
B1136245208712N01240566EA0001600072000008
B1136285208712N01240566EA0001600072000004
B1136325208712N01240566EA0001600072000004
B1136365208712N01240566EA0001600072000008
B1136405208712N01240566EA0001600072000008
B1136445208712N01240566EA0001600072000008
B1136485208712N01240566EA0001600072000008
B1136525208712N01240566EA0001600072000008
B1136565208712N01240566EA0001600072000024
B1137005208712N01240566EA0001600072000016
B1137045208712N01240566EA0001600072000004
B1137085208712N01240566EA0001600072000016
B1137125208712N01240566EA0001600072000008
B1137165208712N01240566EA0001600072000008
B1137205208712N01240566EA0001600072000004
B1137245208712N01240566EA0001600072000008
B1137285208712N01240566EA0001600072000004
B1137325208712N01240566EA0001600072000004
B1137365208712N01240566EA0001600072000024
B1137405208712N01240566EA0001600072000016
B1137445208712N01240566EA0001600072000016
B1137485208712N01240566EA0001600072000020
B1137525208712N01240566EA0001600072000000
B1137565208712N01240566EA0001600072000008
B1138005208712N01240566EA0001600072000004
B1138045208712N01240566EA0001600072000000
B1138085208712N01240566EA0001600072000000
B1138125208712N01240566EA0001600072000000
B1138165208712N01240566EA0001600072000000
B1138205208712N01240566EA0001600072000000
B1138245208712N01240566EA0001600072000000
B1138285208712N01240566EA0001600072000000
B1138325208712N01240566EA0001600072000000
B1138365208712N01240566EA0001600072000000
B1138405208712N01240566EA0001600072000004
B1138445208712N01240566EA0001600072000000
B1138485208712N01240566EA0001600072000012
B1138525208712N01240566EA0001600072000008
B1138565208712N01240566EA0001600072000008
B1139005208712N01240566EA0001600072000008
B1139045208712N01240566EA0001700072000008
B1139085208712N01240566EA0001700072000008
B1139125208712N01240566EA0001700072000004
B1139165208712N01240566EA0001700072000008
B1139205208712N01240566EA0001700072000008
B1139245208712N01240566EA0001700072000008
B1139285208712N01240566EA0001700072000004
B1139325208716N01240566EA0001700072000008
B1139365208712N01240566EA0001700072000004
B1139405208712N01240566EA0001700072000004
B1139445208712N01240566EA0001700072000028
B1139485208712N01240566EA0001700072000016
B1139525208712N01240566EA0001700072000024
B1139565208712N01240566EA0001700072000024
B1140005208712N01240566EA0001700072000000
B1140045208712N01240566EA0001700072000012
B1140085208712N01240566EA0001700072000008
B1140125208712N01240566EA0001700072000004
B1140165208712N01240566EA0001700072000008
B1140205208712N01240566EA0001700072000008
B1140245208712N01240566EA0001700072000008
B1140285208712N01240566EA0001700072000008
B1140325208712N01240566EA0001700072000008
B1140365208712N01240566EA0001700072000008
B1140405208712N01240566EA0001700072000004
B1140445208712N01240566EA0001700072000008
B1140485208712N01240566EA0001700072000004
B1140525208712N01240566EA0001700072000004
B1140565208712N01240566EA0001700072000004
B1141005208712N01240566EA0001700072000004
B1141045208712N01240566EA0001700072000004
B1141085208712N01240566EA0001700072000004
B1141125208712N01240566EA0001700072000004
B1141165208712N01240566EA0001700072000004
B1141205208712N01240566EA0001700072000004
B1141245208712N01240566EA0001700072000004
B1141285208712N01240566EA0001700072000000
B1141325208712N01240566EA0001700072000000
B1141365208712N01240566EA0001700072000000
B1141405208712N01240566EA0001700072000000
B1141445208712N01240566EA0001700072000000
B1141485208712N01240566EA0001700072000000
B1141525208712N01240566EA0001700072000020
B1141565208712N01240566EA0001700072000008
B1142005208712N01240566EA0001700072000004
B1142045208712N01240566EA0001700072000012
B1142085208712N01240566EA0001700072000008
B1142125208712N01240566EA0001700072000008
B1142165208712N01240566EA0001700072000000
B1142205208712N01240566EA0001700072000004
B1142245208712N01240566EA0001700072000000
B1142285208712N01240566EA0001700072000000
B1142325208712N01240566EA0001700072000004
B1142365208712N01240566EA0001700072000000
B1142405208712N01240566EA0001700072000008
B1142445208712N01240566EA0001700072000008
B1142485208712N01240566EA0001700072000012
B1142525208712N01240566EA0001700072000008
B1142565208712N01240566EA0001700072000004
B1143005208712N01240566EA0001700072000008
B1143045208712N01240566EA0001700072000012
B1143085208712N01240566EA0001700072000008
B1143125208712N01240566EA0001700072000028
B1143165208712N01240566EA0001700072000020
B1143205208712N01240566EA0001700072000024
B1143245208712N01240566EA0001700072000024
B1143285208712N01240566EA0001700072000000
B1143325208712N01240566EA0001700072000012
B1143365208712N01240566EA0001700072000008
B1143405208712N01240566EA0001700072000004
B1143445208712N01240566EA0001700072000028
B1143485208712N01240566EA0001700072000016
B1143525208712N01240566EA0001700072000000
B1143565208712N01240566EA0001700072000016
B1144005208712N01240566EA0001700072000004
B1144045208712N01240566EA0001700072000000
B1144085208712N01240566EA0001700072000020
B1144125208712N01240566EA0001700072000012
B1144165208712N01240566EA0001700072000016
B1144205208712N01240566EA0001700072000016
B1144245208712N01240566EA0001700072000000
B1144285208712N01240566EA0001700072000008
B1144325208712N01240566EA0001700072000004
B1144365208712N01240566EA0001700072000000
B1144405208712N01240566EA0001700072000000
B1144445208712N01240566EA0001700072000000
B1144485208712N01240566EA0001700072000000
B1144525208712N01240566EA0001700072000000
B1144565208712N01240566EA0001700072000000
B1145005208712N01240566EA0001700072000000
B1145045208712N01240566EA0001700072000000
B1145085208712N01240566EA0001700072000000
B1145125208712N01240566EA0001700072000004
B1145165208712N01240566EA0001700072000000
B1145205208712N01240566EA0001700072000004
B1145245208712N01240566EA0001700072000004
B1145285208712N01240566EA0001700072000012
B1145325208712N01240566EA0001700072000008
B1145365208712N01240566EA0001700072000024
B1145405208712N01240566EA0001700072000016
B1145445208712N01240566EA0001700072000052
B1145485208712N01240566EA0001700072000040
B1145525208712N01240566EA0001700072000016
B1145565208712N01240566EA0001700072000032
B1146005208712N01240566EA0001700072000012
B1146045208712N01240566EA0001700072000016
B1146085208712N01240566EA0001700072000008
B1146125208712N01240566EA0001700072000008
B1146165208712N01240566EA0001700072000012
B1146205208712N01240566EA0001700072000008
B1146245208712N01240566EA0001700072000008
B1146285208712N01240566EA0001700072000008
B1146325208712N01240566EA0001700072000008
B1146365208712N01240566EA0001700072000008
B1146405208712N01240566EA0001700072000008
B1146445208712N01240566EA0001700072000008
B1146485208712N01240566EA0001700072000008
B1146525208712N01240566EA0001700072000008
B1146565208712N01240566EA0001700072000008
B1147005208712N01240566EA0001700072000008
B1147045208712N01240566EA0001700072000008
B1147085208712N01240566EA0001700072000008
B1147125208712N01240566EA0001700072000028
B1147165208712N01240566EA0001700072000016
B1147205208712N01240566EA0001700072000004
B1147245208712N01240566EA0001700072000016
B1147285208712N01240566EA0001700072000012
B1147325208712N01240566EA0001700072000008
B1147365208712N01240566EA0001700072000028
B1147405208712N01240566EA0001700072000020
B1147445208712N01240566EA0001700072000036
B1147485208712N01240566EA0001700072000032
B1147525208712N01240566EA0001700072000052
B1147565208712N01240566EA0001700072000044
B1148005208712N01240566EA0001700072000028
B1148045208712N01240566EA0001700072000040
B1148085208712N01240566EA0001700072000012
B1148125208712N01240566EA0001700072000020
B1148165208712N01240566EA0001700072000008
B1148205208712N01240566EA0001700072000008
B1148245208712N01240566EA0001700072000008
B1148285208712N01240566EA0001700072000008
B1148325208712N01240566EA0001700072000008
B1148365208712N01240566EA0001700072000008
B1148405208712N01240562EA0001700072000024
B1148445208712N01240562EA0001700072000016
B1148485208712N01240562EA0001700072000020
B1148525208712N01240562EA0001700072000024
B1148565208712N01240562EA0001700072000004
B1149005208712N01240562EA0001700072000012
B1149045208712N01240562EA0001700072000028
B1149085208712N01240562EA0001700072000016
B1149125208712N01240562EA0001700072000020
B1149165208712N01240562EA0001700072000024
B1149205208712N01240562EA0001700072000036
B1149245208712N01240562EA0001700072000028
B1149285208712N01240562EA0001700072000020
B1149325208712N01240562EA0001700072000028
B1149365208712N01240562EA0001700072000024
B1149405208712N01240562EA0001700072000024
B1149445208712N01240562EA0001700072000068
B1149485208712N01240562EA0001700072000048
B1149525208712N01240562EA0001700072000056
B1149565208712N01240562EA0001700072000064
B1150005208712N01240562EA0001700072000092
B1150045208712N01240562EA0001700072000072
B1150085208712N01240562EA0001700072000068
B1150125208712N01240562EA0001700072000080
B1150165208712N01240562EA0001700072000020
B1150205208712N01240562EA0001700072000044
B1150245208712N01240562EA0001700072000008
B1150285208712N01240562EA0001700072000016
B1150325208712N01240562EA0001700072000024
B1150365208712N01240562EA0001700072000016
B1150405208712N01240562EA0001700072000016
B1150445208712N01240562EA0001700072004020
B1150485208712N01240562EA0001700072005036
B1150525208712N01240562EA0001700072005024
B1150565208712N01240562EA0001700072001056
B1151005208712N01240562EA0001700072001048
B1151045208712N01240562EA0001700072000052
B1151085208712N01240562EA0001700072000056
B1151125208712N01240562EA0001700072000064
B1151165208712N01240562EA0001700072000056
B1151205208712N01240562EA0001700072000084
B1151245208712N01240562EA0001700072006072
B1151285208712N01240562EA0001700072004080
B1151325208712N01240562EA0001700072006080
B1151365208712N01240562EA0001700072010056
B1151405208712N01240562EA0001700072010068
B1151445208712N01240562EA0001700072005016
B1151485208712N01240566EA0001700072001036
B1151525208712N01240566EA0001700064000012
B1151565208712N01240566EA0001700064000016
B1152005208712N01240566EA0001700064007008
B1152045208712N01240562EA0001700064008008
B1152085208712N01240562EA0001700064009004
B1152125208712N01240562EA0001700064002008
B1152165208712N01240562EA0001700064004024
B1152205208712N01240562EA0001700064007016
B1152245208712N01240562EA0001700064006016
B1152285208712N01240562EA0001700064000020
B1152325208712N01240562EA0001700064000016
B1152365208712N01240562EA0001700064003016
B1152405208712N01240562EA0001700064005020
B1152445208712N01240562EA0001700064000016
B1152485208712N01240562EA0001700064007016
B1152525208712N01240562EA0001700064005016
B1152565208712N01240562EA0001700064001020
B1153005208712N01240562EA0001700064000016
B1153045208712N01240562EA0001700064006016
B1153085208712N01240562EA0001900064005016
B1153125208712N01240562EA0001900064002016
B1153165208712N01240562EA0001900064002016
B1153205208712N01240566EA0001900064000032
B1153245208712N01240566EA0001900064008024
B1153285208712N01240566EA0001900064006016
B1153325208712N01240566EA0001900064001024
B1153365208712N01240566EA0001900064003000
B1153405208712N01240566EA0001900064000008
B1153445208712N01240566EA0001900064000008
B1153485208712N01240566EA0001900064015004
B1153525208712N01240566EA0001900064014024
B1153565208712N01240566EA0001900064017016
B1154005208712N01240566EA0001900064017052
B1154045208712N01240566EA0001900064016040
B1154085208712N01240566EA0001900064014076
B1154125208712N01240566EA0001900064011064
B1154165208712N01240566EA0001900064012036
B1154205208712N01240566EA0001800064005056
B1154245208712N01240566EA0001800064005028
B1154285208712N01240566EA0001800064006032
B1154325208712N01240566EA0001800072007040
B1154365208712N01240566EA0001800072002032
B1154405208712N01240566EA0001800072002028
B1154445208712N01240566EA0001800072000032
B1154485208712N01240566EA0001800072000028
B1154525208712N01240570EA0001800072000028
B1154565208712N01240570EA0001800072000024
B1155005208712N01240570EA0001800072000024
B1155045208712N01240570EA0001800072000040
B1155085208712N01240566EA0001800072000032
B1155125208712N01240566EA0001800072000044
B1155165208712N01240570EA0001800072000040
B1155205208712N01240570EA0001800072000088
B1155245208712N01240570EA0001800072000064
B1155285208712N01240570EA0001800072000092
B1155325208712N01240566EA0001800072000088
B1155365208712N01240566EA0001800072000016
B1155405208712N01240566EA0001800072000056
B1155445208712N01240566EA0001800072000024
B1155485208712N01240566EA0001800072000020
B1155525208712N01240566EA0001800072000028
B1155565208712N01240566EA0001800072000024
B1156005208712N01240566EA0001800072000020
B1156045208712N01240566EA0001800072000024
B1156085208712N01240566EA0001800072000060
B1156125208712N01240566EA0001800072000040
B1156165208712N01240566EA0001800072000016
B1156205208712N01240566EA0001800072000040
B1156245208712N01240566EA0001800072000036
B1156285208712N01240566EA0001800072002024
B1156325208712N01240566EA0001800072005080
B1156365208712N01240570EA0001800072000056
B1156405208712N01240570EA0001800072000072
B1156445208712N01240570EA0001800072000076
B1156485208712N01240570EA0001800072000020
B1156525208712N01240570EA0001800072000048
B1156565208712N01240570EA0001800072000004
B1157005208712N01240570EA0001800072000012
B1157045208712N01240570EA0001800072000004
B1157085208712N01240570EA0001800072000004
B1157125208712N01240570EA0001900072006004
B1157165208712N01240570EA0001900072007004
B1157205208712N01240570EA0001900072000124
B1157245208712N01240570EA0001900072000064
B1157285208712N01240570EA0001900072000048
B1157325208712N01240570EA0001900072000088
B1157365208712N01240570EA0001900072000008
B1157405208712N01240570EA0001900072000028
B1157445208712N01240570EA0001900072000008
B1157485208712N01240570EA0001900072000008
B1157525208712N01240570EA0001900072000004
B1157565208712N01240570EA0001900072000008
B1158005208712N01240570EA0001900072000004
B1158045208712N01240570EA0001900072000004
B1158085208712N01240570EA0001900072000008
B1158125208712N01240570EA0001900072000008
B1158165208712N01240570EA0001900072000008
B1158205208712N01240566EA0001900072000008
B1158245208712N01240566EA0001900072000004
B1158285208712N01240566EA0001900072000008
B1158325208712N01240566EA0001900072000024
B1158365208712N01240566EA0001900072000016
B1158405208712N01240566EA0001900072000016
B1158445208712N01240566EA0001900072000020
B1158485208712N01240566EA0001900072000016
B1158525208712N01240566EA0001900072000016
B1158565208712N01240566EA0001900072000000
B1159005208712N01240566EA0001900072000008
B1159045208712N01240566EA0001900072006024
B1159085208712N01240566EA0001900072003012
B1159125208712N01240566EA0001900072001016
B1159165208712N01240566EA0001900072008020
B1159205208712N01240566EA0001900072012068
B1159245208712N01240566EA0001900072009040
B1159285208712N01240566EA0001900072000088
B1159325208712N01240566EA0001900072000080
B1159365208712N01240566EA0001900072000096
B1159405208712N01240566EA0001900072000092
B1159445208712N01240566EA0001900072000064
B1159485208712N01240566EA0001900072001080
B1159525208712N01240566EA0001900072000032
B1159565208712N01240566EA0001900072000048
B1200005208712N01240566EA0001900072000040
B1200045208712N01240566EA0001900072000036
B1200085208712N01240566EA0001900072000056
B1200125208712N01240566EA0001900072000048
B1200165208712N01240566EA0001900072000016
B1200205208712N01240566EA0001900072000036
B1200245208712N01240566EA0001900072000008
B1200285208712N01240566EA0001900072000012
B1200325208712N01240566EA0001800072000024
B1200365208712N01240566EA0001800072000016
B1200405208712N01240566EA0001800072000004
B1200445208712N01240566EA0001800072000016
B1200485208712N01240566EA0001800072000012
B1200525208712N01240566EA0001800072000008
B1200565208712N01240566EA0001800072000028
B1201005208712N01240566EA0001800072000020
B1201045208712N01240566EA0001800072000024
B1201085208712N01240566EA0001800072000024
B1201125208712N01240566EA0001800072000020
B1201165208712N01240566EA0001800072000024
B1201205208712N01240566EA0001800072000052
B1201245208712N01240566EA0001800072000036
B1201285208712N01240566EA0001800072000076
B1201325208712N01240566EA0001800072000064
B1201365208712N01240566EA0001800072000036
B1201405208712N01240566EA0001800072000056
B1201445208712N01240566EA0001800072000024
B1201485208712N01240566EA0001800072000032
B1201525208712N01240566EA0001800072000028
B1201565208712N01240566EA0001800072000024
B1202005208712N01240566EA0001800072000016
B1202045208712N01240566EA0001800072000024
B1202085208712N01240566EA0001800072000004
B1202125208712N01240566EA0001800072000008
B1202165208712N01240566EA0001800072000008
B1202205208712N01240566EA0001800072000008
B1202245208712N01240566EA0001800072000008
B1202285208712N01240566EA0001800072000008
B1202325208712N01240566EA0001800072000008
B1202365208712N01240566EA0001800072000008
B1202405208712N01240566EA0001800072000012
B1202445208712N01240566EA0001800072000008
B1202485208712N01240566EA0001800072000060
B1202525208712N01240566EA0001800072000036
B1202565208712N01240566EA0001800072000096
B1203005208712N01240566EA0001800072000080
B1203045208712N01240566EA0001800072000052
B1203085208712N01240566EA0001800072000072
B1203125208712N01240566EA0001800072000060
B1203165208712N01240566EA0001800072000056
B1203205208712N01240566EA0001700072000056
B1203245208712N01240566EA0001700072000056
B1203285208712N01240566EA0001700072000084
B1203325208712N01240566EA0001700072000072
B1203365208712N01240566EA0001700072000116
B1203405208712N01240566EA0001700072000100
B1203445208712N01240566EA0001700072000064
B1203485208712N01240566EA0001700072000088
B1203525208712N01240566EA0001700072000024
B1203565208712N01240566EA0001900072005044
B1204005208712N01240558EA0001800072022036
B1204045208704N01240529EA0001700072045212
B1204085208691N01240487EA0001700072050568
B1204125208670N01240425EA0002000072077872
B1204165208650N01240350EA0001900072096856
B1204205208625N01240262EA0002300072106528
B1204245208595N01240162EA0002500072120304
K120424000012
B1204285208566N01240062EA0003300088129260
B1204325208541N01239958EA0004800096122228
B1204365208516N01239854EA0006200112121248
B1204405208491N01239750EA0007400120120292
B1204445208466N01239645EA0008700136123304
K120444000012
B1204485208441N01239541EA0010000144124276
B1204525208420N01239437EA0011100160127248
B1204565208395N01239333EA0012500176124248
B1205005208370N01239233EA0012500184124248
B1205045208341N01239125EA0013500192131264
K120504000015
B1205085208316N01239020EA0014100208129256
B1205125208295N01238916EA0014600216127164
B1205165208270N01238812EA0015500216128164
B1205205208241N01238708EA0016300224129140
B1205245208212N01238604EA0017200240129144
K120524000017
B1205285208183N01238495EA0019400256127156
B1205325208158N01238391EA0021000272133164
B1205365208133N01238291EA0022600296130140
B1205405208108N01238191EA0023700304126140
B1205445208087N01238083EA0023900312130084
K120544000019
B1205485208062N01237975EA0024700320131112
B1205525208033N01237870EA0025700328127124
B1205565208000N01237770EA0026500336127104
B1206005207970N01237670EA0027400344128124
B1206045207937N01237570EA0027800344129124
K120604000017
B1206085207895N01237479EA0029100360134168
B1206125207858N01237391EA0030300376129172
B1206165207816N01237304EA0031500384127172
B1206205207775N01237212EA0033500400128196
B1206245207737N01237120EA0034500416125164
K120624000019
B1206285207700N01237033EA0035100424126164
B1206325207654N01236945EA0035400424127116
B1206365207604N01236866EA0036200432130148
B1206405207550N01236804EA0037100440128148
B1206445207491N01236758EA0037600448126132
K120644000019
B1206485207425N01236720EA0038600456125140
B1206525207362N01236700EA0038900464125132
B1206565207300N01236691EA0039300464126136
B1207005207233N01236691EA0040000472127164
B1207045207166N01236700EA0040600480124140
K120704000021
B1207085207100N01236720EA0041300488126140
B1207125207033N01236741EA0042100496128116
B1207165206966N01236766EA0043000504131132
B1207205206900N01236779EA0043700512122116
B1207245206833N01236795EA0043900512124144
K120724000018
B1207285206762N01236820EA0043800512128180
B1207325206691N01236850EA0044600520130176
B1207365206616N01236895EA0045800528137208
B1207405206545N01236933EA0047600552135188
B1207445206479N01236975EA0048900568130144
K120744000015
B1207485206412N01237016EA0049900576128144
B1207525206350N01237058EA0050900584130128
B1207565206287N01237112EA0051700592129128
B1208005206237N01237191EA0052300600130084
B1208045206200N01237300EA0052600608133104
K120804000019
B1208085206183N01237425EA0053400608134108
B1208125206187N01237554EA0054900624129096
B1208165206200N01237691EA0056300640124128
B1208205206229N01237825EA0057200648125160
B1208245206270N01237954EA0058500656127140
K120824000019
B1208285206316N01238079EA0059000664124140
B1208325206375N01238200EA0060200672126176
B1208365206437N01238308EA0060900688128148
B1208405206508N01238404EA0061800696128108
B1208445206587N01238495EA0062900704136132
K120844180016
B1208485206658N01238583EA0064400720131144
B1208525206729N01238675EA0065200728130144
B1208565206783N01238775EA0067300744112108
B1209005206829N01238862EA0067400752101128
B1209045206900N01238904EA0066800736103036
K120904180015
B1209085206975N01238895EA0066200736106072
B1209125207045N01238850EA0065200728111024
B1209165207116N01238783EA0063900712114032
B1209205207187N01238720EA0062900696118024
B1209245207258N01238654EA0061700688118024
K120924180015
B1209285207333N01238591EA0060400680118028
B1209325207408N01238529EA0059400664119024
B1209365207483N01238466EA0059100664117044
B1209405207558N01238391EA0058500656120036
B1209445207625N01238308EA0057800648121016
K120944180015
B1209485207691N01238233EA0057800648115032
B1209525207762N01238166EA0058200656112044
B1209565207841N01238145EA0060200672106032
B1210005207895N01238212EA0061700688098032
B1210045207904N01238312EA0062100688099040
K121004180018
B1210085207866N01238366EA0062400696101016
B1210125207820N01238341EA0062500696102024
B1210165207808N01238254EA0062500696098028
B1210205207845N01238166EA0062500696100024
B1210245207916N01238133EA0063100696103028
K121024184022
B1210285207979N01238187EA0064400712095028
B1210325207987N01238287EA0064900720099028
B1210365207950N01238337EA0065600728101028
B1210405207912N01238295EA0066600736097024
B1210445207933N01238204EA0067000736101024
K121044188024
B1210485208004N01238170EA0067100744106044
B1210525208054N01238245EA0068700752099032
B1210565208041N01238329EA0068900760103036
B1211005207991N01238316EA0069600768103040
B1211045207995N01238225EA0070300776102032
K121104188021
B1211085208058N01238175EA0071100776104032
B1211125208120N01238225EA0071900784100036
B1211165208129N01238320EA0072400800098032
B1211205208087N01238354EA0072800800102032
B1211245208066N01238283EA0073300800101032
K121124188022
B1211285208116N01238208EA0073800808106032
B1211325208183N01238250EA0074600816103032
B1211365208183N01238345EA0075100824103036
B1211405208137N01238358EA0076200824105032
B1211445208112N01238287EA0077300840094020
K121144180018
B1211485208150N01238200EA0077300840098028
B1211525208225N01238187EA0077300840104044
B1211565208270N01238266EA0077800848102032
B1212005208245N01238350EA0078100848106032
B1212045208195N01238354EA0079200864102040
K121204174016
B1212085208175N01238279EA0079900872097036
B1212125208208N01238187EA0080100872099032
B1212165208279N01238170EA0080500880103032
B1212205208329N01238250EA0080900880105032
B1212245208320N01238345EA0080900880106032
K121224176018
B1212285208270N01238366EA0082100896107032
B1212325208241N01238291EA0082600896098032
B1212365208270N01238195EA0082500896103032
B1212405208345N01238170EA0082800896100032
B1212445208400N01238241EA0083100904104032
K121244176018
B1212485208395N01238341EA0083200904105032
B1212525208345N01238375EA0084400912103032
B1212565208320N01238295EA0084800920101032
B1213005208358N01238204EA0084800920101032
B1213045208433N01238195EA0084900920101032
K121304186019
B1213085208483N01238279EA0085000920101032
B1213125208470N01238379EA0085000920109016
B1213165208416N01238395EA0086300936101024
B1213205208391N01238316EA0086900944095044
B1213245208433N01238229EA0086900936102032
K121324184018
B1213285208508N01238225EA0087300944101032
B1213325208558N01238304EA0087500944099040
B1213365208545N01238404EA0087300944106032
B1213405208491N01238425EA0088300952103032
B1213445208462N01238354EA0088700960099032
K121344186018
B1213485208491N01238258EA0088700960103032
B1213525208562N01238229EA0088700960106016
B1213565208620N01238304EA0089400968100024
B1214005208616N01238400EA0089100968097028
B1214045208566N01238437EA0088900960111024
K121404186019
B1214085208516N01238400EA0090500976099044
B1214125208525N01238304EA0090200968102036
B1214165208591N01238258EA0090200976105032
B1214205208658N01238312EA0090500976103040
B1214245208662N01238420EA0091000984105032
K121424190016
B1214285208612N01238462EA0091400992105032
B1214325208570N01238404EA0091600992104036
B1214365208575N01238308EA0091800992098032
B1214405208629N01238245EA0091800992096016
B1214445208700N01238262EA0091600992100024
K121444184018
B1214485208750N01238354EA0091600992105028
B1214525208754N01238470EA0092400992104024
B1214565208725N01238550EA0093201008098028
B1215005208675N01238570EA0093601008097028
B1215045208637N01238516EA0093601008096028
K121504198017
B1215085208629N01238429EA0092201000095028
B1215125208633N01238325EA0091000984107024
B1215165208637N01238216EA0090300976109024
B1215205208650N01238108EA0089800976110028
B1215245208662N01238000EA0088700960113024
K121524180018
B1215285208683N01237891EA0087900952117028
B1215325208700N01237779EA0087300944113028
B1215365208725N01237666EA0086600936113028
B1215405208745N01237554EA0086000936113028
B1215445208770N01237437EA0085000920116028
K121544000001
B1215485208795N01237316EA0083900912120028
B1215525208820N01237191EA0083200904123044
B1215565208841N01237070EA0082800904124036
B1216005208866N01236950EA0082600896119032
B1216045208891N01236829EA0081600888120040
K121604180001
B1216085208912N01236708EA0080700880122032
B1216125208933N01236583EA0080300872123032
B1216165208954N01236462EA0079800872123032
B1216205208970N01236341EA0079100864119032
B1216245208987N01236225EA0078600856121032
K121624000001
B1216285209004N01236104EA0078300856122032
B1216325209020N01235987EA0077800848117032
B1216365209033N01235866EA0077300840119032
B1216405209045N01235745EA0077300840121032
B1216445209054N01235633EA0077900848124032
K121644000004
B1216485209062N01235529EA0078200856109032
B1216525209066N01235425EA0078200856110032
B1216565209066N01235320EA0078200856109016
B1217005209066N01235216EA0078500856108024
B1217045209066N01235108EA0078500856107028
K121704000007
B1217085209066N01235004EA0078500856107024
B1217125209066N01234895EA0078400856107028
B1217165209066N01234787EA0078300856107028
B1217205209075N01234670EA0078000848110028
B1217245209083N01234558EA0078200856110028
K121724000001
B1217285209095N01234445EA0078800864111024
B1217325209104N01234337EA0080400880098024
B1217365209133N01234237EA0081400888098028
B1217405209195N01234179EA0082100888099024
B1217445209266N01234200EA0082300896092024
K121744180003
B1217485209304N01234291EA0082000888096024
B1217525209291N01234387EA0081800888104024
B1217565209254N01234441EA0083500904097024
B1218005209208N01234437EA0083900912096028
B1218045209179N01234366EA0084800920093024
K121804180003
B1218085209191N01234266EA0085500928096028
B1218125209254N01234208EA0086300936097028
B1218165209325N01234254EA0086300936098044
B1218205209345N01234362EA0086500936105036
B1218245209308N01234433EA0087300944104032
K121824178020
B1218285209258N01234395EA0088300960102040
B1218325209266N01234291EA0089000960101036
B1218365209329N01234225EA0090300968099032
B1218405209395N01234266EA0090700976097032
B1218445209416N01234375EA0090300976107032
K121844178021
B1218485209387N01234462EA0091500984105032
B1218525209333N01234462EA0092501000101032
B1218565209316N01234370EA0092701000100032
B1219005209366N01234283EA0093101008100032
B1219045209441N01234295EA0093301008099032
K121904182021
B1219085209479N01234404EA0093701008105032
B1219125209458N01234500EA0094601016106032
B1219165209404N01234504EA0095401032105032
B1219205209383N01234412EA0096001032102032
B1219245209416N01234316EA0097001040098032
K121924182021
B1219285209491N01234287EA0097401048093016
B1219325209554N01234354EA0097401048098024
B1219365209570N01234466EA0097101048108044
B1219405209545N01234562EA0098201056105032
B1219445209495N01234583EA0099101064101020
K121944182023
B1219485209462N01234516EA0099201072101032
B1219525209491N01234416EA0099401072103028
B1219565209562N01234379EA0099901072100024
B1220005209625N01234437EA0100001080097028
B1220045209658N01234541EA0100401080100028
K122004188022
B1220085209645N01234641EA0101001088104028
B1220125209600N01234695EA0101901096104028
B1220165209558N01234679EA0102801104096028
B1220205209541N01234595EA0103501112096028
B1220245209579N01234500EA0103801112098024
K122024186021
B1220285209650N01234479EA0103801120097024
B1220325209708N01234545EA0104701120097028
B1220365209704N01234645EA0104701120103024
B1220405209654N01234645EA0105001120107044
B1220445209645N01234554EA0106401136096036
K122044172024
B1220485209695N01234479EA0106501144095016
B1220525209766N01234495EA0107101144096032
B1220565209795N01234595EA0107301144101044
B1221005209770N01234675EA0107301152108032
B1221045209720N01234654EA0108301152103032
K122104174021
B1221085209712N01234554EA0108601160101040
B1221125209770N01234483EA0109101168098032
B1221165209841N01234508EA0109301168098032
B1221205209870N01234612EA0109401168099032
B1221245209845N01234695EA0109801176105032
K122124178022
B1221285209795N01234700EA0110301184101016
B1221325209770N01234620EA0110601184101024
B1221365209791N01234520EA0111701192098028
B1221405209854N01234470EA0111901200094024
B1221445209920N01234504EA0111401192099028
K122144178022
B1221485209958N01234600EA0111701192098028
B1221525209950N01234695EA0112201200101028
B1221565209908N01234733EA0112801208097028
B1222005209866N01234695EA0112801200098028
B1222045209854N01234604EA0112901208101028
K122204178023
B1222085209900N01234516EA0113401208097028
B1222125209970N01234500EA0113701216096028
B1222165210033N01234550EA0113701216092028
B1222205210075N01234641EA0114801224094028
B1222245210079N01234737EA0114701224098024
K122224180023
B1222285210045N01234795EA0114801224098024
B1222325210000N01234791EA0114901224095024
B1222365209970N01234729EA0115401232094024
B1222405209970N01234633EA0115801240094024
B1222445210012N01234550EA0116201240092024
K122244174024
B1222485210083N01234529EA0116101240093024
B1222525210145N01234583EA0115801232096024
B1222565210170N01234679EA0116201240097040
B1223005210145N01234750EA0116501240095032
B1223045210100N01234758EA0116501240090016
K122304174023
B1223085210058N01234725EA0116701248092028
B1223125210025N01234662EA0117201248095028
B1223165210008N01234583EA0117701256094024
B1223205209995N01234491EA0116901248101024
B1223245209979N01234395EA0116701248108024
K122324174023
B1223285209962N01234295EA0117501256105024
B1223325209954N01234200EA0118101264098024
B1223365209941N01234112EA0118201264098028
B1223405209916N01234025EA0117901256105024
B1223445209870N01233970EA0117601248108024
K122344180003
B1223485209816N01233991EA0117001248105024
B1223525209775N01234066EA0116601240106028
B1223565209745N01234158EA0116601248105024
B1224005209712N01234245EA0116601248105028
B1224045209679N01234337EA0116401240109028
K122404180003
B1224085209641N01234429EA0116601248108028
B1224125209608N01234520EA0117501256106028
B1224165209570N01234600EA0118401264101028
B1224205209525N01234645EA0119501272094028
B1224245209479N01234616EA0119801272095028
K122424000006
B1224285209470N01234533EA0119801280096028
B1224325209520N01234466EA0120401280097028
B1224365209587N01234491EA0121001288097028
B1224405209616N01234595EA0121101288103044
B1224445209579N01234670EA0121601296103036
K122444000006
B1224485209533N01234637EA0121901296098032
B1224525209537N01234550EA0122201296098040
B1224565209591N01234487EA0122901304094032
B1225005209658N01234516EA0123101312095032
B1225045209691N01234620EA0123601312099016
K122504202021
B1225085209666N01234704EA0124201320097024
