ACAM3YF
HFDTE160813
HFFXA050
HFPLTPILOT:Arne Thielemann         
HFGTYGLIDERTYPE:LS8         
HFGIDGLIDERID:D-3605      
HFDTM100GPSDATUM:
HFRFWFIRMWAREVERSION:F2.6
HFRHWHARDWAREVERSION:300 Series Version 2
HFFTYFRTYPE:CAMBRIDGE AERO INSTRUMENTS, 302+
HFGPS:GARMIN,LVS-25,12,18000
HFPRSPRESSALTSENSOR:INTERSEMA, MS5534-AP, 20000
I033638FXA3941ENL4247REX
LCAMSBVER:5FWVER:F26300
C010513110908010513000102
C0000000N00000000WTAKEOFF     
C5116466N01430433E006 AL6ZLKRS
C5224200N01209383E067 Genthin 
C5237916N01109583E108 Kloetze 
C5116283N01435483E004 AL4Olbas
C0000000N00000000WLANDING     
B1208085208707N01240568EA0002000067000008000000
B1208105208707N01240568EA0002000067000008000000
B1208125208707N01240568EA0001900067000008000000
B1208145208707N01240568EA0001900067000008000000
B1208165208707N01240568EA0001900067000008000000
B1208185208707N01240568EA0001900067000008000000
B1208205208707N01240568EA0002000067000008000000
B1208225208707N01240568EA0001900067000008000000
B1208245208707N01240568EA0001900067000008000000
B1208265208707N01240568EA0001900067000008000000
B1208285208707N01240568EA0001900067000008000000
B1208305208707N01240568EA0001900067000008000000
B1208325208707N01240568EA0001900067000008000000
B1208345208707N01240567EA0001900067000012000000
B1208365208705N01240562EA0001900067000012000000
B1208375208704N01240556EA0001900067000012000000
B1208415208695N01240528EA0002000067000012000000
B1208455208682N01240482EA0002100067000012000000
B1208495208665N01240422EA0002200067000012000000
B1208535208644N01240350EA0002200067000012000000
B1208575208620N01240266EA0002400069000012000000
B1209015208598N01240170EA0002700072000012000000
B1209055208572N01240069EA0002900077000012000000
B1209095208548N01239966EA0003500090000012000000
B1209135208521N01239866EA0004500101000012000000
B1209175208499N01239763EA0005600112000012000000
B1209215208469N01239663EA0006300116000012000000
B1209255208440N01239561EA0007000127000012000000
B1209295208406N01239455EA0007600130000012000000
B1209335208370N01239351EA0008100141000012000000
B1209375208336N01239246EA0009600158000012000000
B1209415208304N01239145EA0011100173000012000000
B1209455208270N01239044EA0012800188000012000000
B1209495208234N01238942EA0014000201000012000000
B1209535208198N01238849EA0015600220000012000000
B1209575208161N01238761EA0017000230000012000000
B1210015208122N01238671EA0018100239000012000000
B1210055208085N01238574EA0018900250000012000000
B1210095208045N01238483EA0019900263000012000000
B1210135208006N01238389EA0021100276000012000000
B1210175207970N01238298EA0022800297000012000000
B1210215207933N01238210EA0024700317000012000000
B1210255207897N01238123EA0026800337000012000000
B1210295207862N01238037EA0029000359000012000000
B1210335207832N01237945EA0030800373000012000000
B1210375207805N01237847EA0031500376000012000000
B1210415207771N01237751EA0031600380000012000000
B1210455207736N01237655EA0032300387000012000000
B1210495207702N01237562EA0032900394000012000000
B1210535207669N01237469EA0033500400000012000000
B1210575207636N01237377EA0034600413000012000000
B1211015207602N01237287EA0035500424000012000000
B1211055207567N01237195EA0036700437000012000000
B1211095207532N01237100EA0038000447000012000000
B1211135207494N01237005EA0038200448000012000000
B1211175207454N01236909EA0038500452000012000000
B1211215207417N01236812EA0039300466000012000000
B1211255207381N01236720EA0041100490000012000000
B1211295207346N01236628EA0043700506000012000000
B1211335207314N01236526EA0044000505000012000000
B1211375207279N01236429EA0043900508000012000000
B1211415207238N01236343EA0044500517000012000000
B1211455207187N01236285EA0045800533000012000000
B1211495207130N01236253EA0047500547000012000000
B1211535207070N01236249EA0048300551000012000000
B1211575207008N01236260EA0048800556000012000000
B1212015206945N01236294EA0049600565000012000000
B1212055206885N01236334EA0050200571000012000000
B1212095206830N01236385EA0051100580000012000000
B1212135206778N01236444EA0051500588000012000000
B1212175206726N01236506EA0052600600000012000000
B1212215206675N01236569EA0053800612000012000000
B1212255206625N01236636EA0055100626000012000000
B1212295206585N01236723EA0056400636000012000000
B1212335206551N01236828EA0057200646000012000000
B1212375206536N01236949EA0058600660000012000000
B1212415206538N01237072EA0059800667000012000000
B1212455206558N01237198EA0060400675000012000000
B1212495206589N01237318EA0061400685000012000000
B1212535206640N01237423EA0061600685000012000000
B1212575206697N01237529EA0061700686000012000000
B1213015206755N01237629EA0062300698000012000000
B1213055206800N01237733EA0063000704000012000000
B1213095206827N01237842EA0063100701000012000000
B1213135206848N01237952EA0062600696000012000000
B1213175206869N01238064EA0062000688000012000000
B1213215206883N01238176EA0061000677000012000000
B1213255206893N01238293EA0060100671000012000000
B1213295206908N01238409EA0060400678000012000000
B1213335206914N01238523EA0061000687000012000000
B1213375206896N01238623EA0062000699000012000000
B1213415206848N01238664EA0062900704000012000000
B1213455206806N01238614EA0063500716000012000000
B1213495206810N01238514EA0064500723000012000000
B1213535206863N01238426EA0065100728000012000000
B1213575206944N01238414EA0066100744000012000000
B1214015207002N01238491EA0067600757000012000000
B1214055207006N01238600EA0068400762000012000000
B1214095206966N01238669EA0069000769000012000000
B1214135206915N01238660EA0069900784000012000000
B1214175206904N01238576EA0071500796000012000000
B1214215206948N01238485EA0071800794000012000000
B1214255207025N01238457EA0072300808000012000000
B1214295207091N01238514EA0073600817000012000000
B1214335207106N01238623EA0074200822000012000000
B1214375207071N01238699EA0075000831000012000000
B1214415207021N01238683EA0075600841000012000000
B1214455207005N01238602EA0077300856000012000000
B1214495207047N01238519EA0077900857000012000000
B1214535207122N01238496EA0078000862000012000000
B1214575207194N01238550EA0078800872000012000000
B1215015207222N01238654EA0079800884000012000000
B1215055207200N01238744EA0080700887000012000000
B1215095207147N01238760EA0080900892000012000000
B1215135207110N01238697EA0082200909000012000000
B1215175207117N01238609EA0084000923000012000000
B1215215207179N01238557EA0084200921000012000000
B1215255207255N01238596EA0084200926000012000000
B1215295207282N01238703EA0085100938000012000000
B1215335207244N01238773EA0085500937000012000000
B1215375207195N01238738EA0086000953000012000000
B1215415207197N01238648EA0088300972000012000000
B1215455207260N01238596EA0088900968000012000000
B1215495207337N01238632EA0088700975000012000000
B1215535207366N01238739EA0090000988000016000000
B1215575207337N01238817EA0090600989000020000000
B1216015207285N01238804EA0090700993000028000000
B1216055207268N01238717EA0092401014000032000000
B1216095207307N01238632EA0093701024000032000000
B1216135207381N01238615EA0094301028000032000000
B1216175207437N01238696EA0094801036000032000000
B1216215207433N01238799EA0095501039000032000000
B1216255207383N01238836EA0095501040000032000000
B1216295207339N01238784EA0096401059000032000000
B1216335207340N01238695EA0098501071000032000000
B1216375207395N01238621EA0098401068000028000000
B1216415207474N01238638EA0099101081000028000000
B1216455207515N01238735EA0100101088000028000000
B1216495207498N01238835EA0100401090000028000000
B1216535207448N01238860EA0100801093000024000000
B1216575207413N01238792EA0101101098000024000000
B1217015207441N01238693EA0102101108000024000000
B1217055207512N01238656EA0102701110000024000000
B1217095207580N01238719EA0103101119000024000000
B1217135207591N01238829EA0103701122000020000000
B1217175207555N01238900EA0104101126000020000000
B1217215207504N01238882EA0103801123000020000000
B1217255207490N01238792EA0104501131000024000000
B1217295207533N01238705EA0104701135000020000000
B1217335207611N01238692EA0105101139000024000000
B1217375207665N01238779EA0105801149000028000000
B1217415207662N01238887EA0106101145000028000000
B1217455207610N01238935EA0105801144000028000000
B1217495207556N01238892EA0106201151000028000000
B1217535207547N01238791EA0106801158000032000000
B1217575207597N01238703EA0107501162000028000000
B1218015207678N01238701EA0107401165000028000000
B1218055207728N01238800EA0108301178000028000000
B1218095207720N01238909EA0109401182000024000000
B1218135207664N01238935EA0109301180000024000000
B1218175207621N01238872EA0110101195000024000000
B1218215207633N01238768EA0110901196000024000000
B1218255207702N01238708EA0110801197000024000000
B1218295207779N01238749EA0111501206000020000000
B1218335207801N01238864EA0112301212000020000000
B1218375207766N01238948EA0112601215000020000000
B1218415207708N01238957EA0112901221000020000000
B1218455207671N01238887EA0113901231000020000000
B1218495207693N01238784EA0114401234000020000000
B1218535207764N01238745EA0115001244000016000000
B1218575207832N01238799EA0115301241000020000000
B1219015207858N01238912EA0115701253000020000000
B1219055207841N01239015EA0116501254000020000000
B1219095207792N01239067EA0116301256000020000000
B1219135207741N01239022EA0117001263000020000000
B1219175207747N01238918EA0117601272000016000000
B1219215207807N01238844EA0118101273000020000000
B1219255207888N01238821EA0118401280000016000000
B1219295207955N01238879EA0119601294000012000000
B1219335207977N01238986EA0120301289000016000000
B1219375207949N01239077EA0119401285000016000000
B1219415207897N01239106EA0119601288000016000000
B1219455207844N01239077EA0120001293000020000000
B1219495207825N01238989EA0121001304000020000000
B1219535207864N01238900EA0121501304000016000000
B1219575207942N01238895EA0121201302000016000000
B1220015207992N01238985EA0121601310000016000000
B1220055207976N01239085EA0121801311000016000000
B1220095207923N01239108EA0122301319000016000000
B1220135207886N01239044EA0123001326000016000000
B1220175207906N01238946EA0123601324000012000000
B1220215207975N01238890EA0122801321000012000000
B1220255208049N01238926EA0123701332000016000000
B1220295208078N01239033EA0124201330000016000000
B1220335208048N01239124EA0123601328000016000000
B1220375207994N01239132EA0124201334000016000000
B1220415207959N01239059EA0124501340000016000000
B1220455207976N01238957EA0125101343000016000000
B1220495208041N01238898EA0125101340000016000000
B1220535208114N01238937EA0125101348000016000000
B1220575208140N01239043EA0126101355000016000000
B1221015208111N01239134EA0126001351000020000000
B1221055208054N01239159EA0126001355000020000000
B1221095208005N01239107EA0126701363000020000000
B1221135207998N01239002EA0127401370000020000000
B1221175208046N01238912EA0128301377000020000000
B1221215208123N01238911EA0128101372000020000000
B1221255208176N01238995EA0127801371000020000000
B1221295208184N01239111EA0127801373000016000000
B1221335208150N01239200EA0128001374000016000000
B1221375208092N01239210EA0128301382000016000000
B1221415208053N01239133EA0129801399000012000000
B1221455208072N01239029EA0130701401000012000000
B1221495208146N01238989EA0131201412000012000000
B1221535208209N01239046EA0131501406000012000000
B1221575208221N01239163EA0130801399000012000000
B1222015208180N01239246EA0130801411000012000000
B1222055208124N01239224EA0132001421000012000000
B1222095208104N01239132EA0133301435000012000000
B1222135208137N01239033EA0133901431000012000000
B1222175208214N01239008EA0133801439000016000000
B1222215208276N01239078EA0134201436000016000000
B1222255208291N01239193EA0133901435000016000000
B1222295208258N01239281EA0134201441000016000000
B1222335208204N01239290EA0135201449000016000000
B1222375208166N01239221EA0135601449000016000000
B1222415208167N01239115EA0135701454000016000000
B1222455208213N01239028EA0136101453000020000000
B1222495208292N01239003EA0135301447000020000000
B1222535208364N01239060EA0135301448000020000000
B1222575208395N01239171EA0135501451000020000000
B1223015208378N01239278EA0135401447000020000000
B1223055208323N01239325EA0135301451000020000000
B1223095208267N01239295EA0136101459000020000000
B1223135208240N01239207EA0136801463000020000000
B1223175208258N01239096EA0137001468000020000000
B1223215208319N01239026EA0137301468000020000000
B1223255208397N01239030EA0136801460000020000000
B1223295208464N01239103EA0136001453000020000000
B1223335208496N01239212EA0136001455000020000000
B1223375208482N01239324EA0135501448000024000000
B1223415208431N01239392EA0135401452000024000000
B1223455208374N01239398EA0136801469000020000000
B1223495208328N01239343EA0137401468000024000000
B1223535208310N01239247EA0136901464000024000000
B1223575208335N01239145EA0137001469000024000000
B1224015208399N01239091EA0137401466000020000000
B1224055208475N01239113EA0137101467000020000000
B1224095208521N01239203EA0137501474000020000000
B1224135208523N01239308EA0137801472000020000000
B1224175208482N01239380EA0137501468000020000000
B1224215208423N01239375EA0137501473000020000000
B1224255208383N01239302EA0137501470000020000000
B1224295208387N01239191EA0137101468000020000000
B1224335208436N01239104EA0137201472000020000000
B1224375208505N01239069EA0137601470000020000000
B1224415208582N01239083EA0137101463000020000000
B1224455208652N01239145EA0136501460000016000000
B1224495208700N01239239EA0136501461000016000000
B1224535208718N01239354EA0136201460000016000000
B1224575208698N01239454EA0136601461000012000000
B1225015208647N01239498EA0136401461000016000000
B1225055208592N01239477EA0136601463000012000000
B1225095208559N01239401EA0136701460000016000000
B1225135208565N01239291EA0136201456000016000000
B1225175208609N01239199EA0136301463000016000000
B1225215208682N01239163EA0136901466000016000000
B1225255208754N01239208EA0136901463000016000000
B1225295208791N01239311EA0136501460000016000000
B1225335208783N01239420EA0136601464000016000000
B1225375208741N01239488EA0136801464000020000000
B1225415208685N01239501EA0136701461000016000000
B1225455208635N01239455EA0136501458000016000000
B1225495208605N01239367EA0136101454000016000000
B1225535208620N01239255EA0135501445000016000000
B1225575208679N01239168EA0134401439000016000000
B1226015208759N01239159EA0134901445000012000000
B1226055208819N01239228EA0135401449000012000000
B1226095208835N01239340EA0135001442000012000000
B1226135208808N01239441EA0134801447000012000000
B1226175208755N01239484EA0135201448000012000000
B1226215208704N01239436EA0135201445000012000000
B1226255208691N01239333EA0134801442000012000000
B1226295208718N01239224EA0134801443000012000000
B1226335208786N01239160EA0134501438000012000000
B1226375208865N01239172EA0134101434000012000000
B1226415208924N01239256EA0134001437000012000000
B1226455208946N01239368EA0134401440000012000000
B1226495208930N01239479EA0134101437000012000000
B1226535208894N01239570EA0134201440000008000000
B1226575208847N01239642EA0134101434000012000000
B1227015208795N01239711EA0133301424000012000000
B1227055208738N01239782EA0131701406000008000000
B1227095208676N01239837EA0131001410000008000000
B1227135208612N01239884EA0131501418000012000000
B1227175208549N01239926EA0132401426000012000000
B1227215208490N01239969EA0133101428000012000000
B1227255208431N01240018EA0133101424000012000000
B1227295208379N01240078EA0132401417000012000000
B1227335208325N01240134EA0131601409000012000000
B1227375208266N01240182EA0130901404000012000000
B1227415208208N01240225EA0130501404000012000000
B1227455208161N01240294EA0131001409000012000000
B1227495208150N01240408EA0131501414000012000000
B1227535208172N01240529EA0132001421000012000000
B1227575208219N01240629EA0133101432000012000000
B1228015208289N01240677EA0134101437000012000000
B1228055208364N01240646EA0134401441000012000000
B1228095208410N01240556EA0134801445000012000000
B1228135208416N01240455EA0135501449000012000000
B1228175208380N01240380EA0135101440000008000000
B1228215208325N01240365EA0134601437000012000000
B1228255208271N01240415EA0134301437000012000000
B1228295208241N01240507EA0134901442000012000000
B1228335208254N01240619EA0135101443000012000000
B1228375208309N01240706EA0135101442000012000000
B1228415208386N01240731EA0135101446000012000000
B1228455208455N01240685EA0135701450000012000000
B1228495208495N01240590EA0135901450000012000000
B1228535208491N01240482EA0136001453000012000000
B1228575208452N01240408EA0136201455000012000000
B1229015208395N01240406EA0136001449000012000000
B1229055208351N01240478EA0135701447000012000000
B1229095208338N01240586EA0135801452000012000000
B1229135208361N01240697EA0136201453000012000000
B1229175208426N01240767EA0136001449000012000000
B1229215208504N01240749EA0135701454000012000000
B1229255208551N01240662EA0136601464000012000000
B1229295208555N01240556EA0137201468000012000000
B1229335208526N01240468EA0137701471000012000000
B1229375208471N01240426EA0137201462000012000000
B1229415208410N01240464EA0136801461000012000000
B1229455208382N01240569EA0136801459000012000000
B1229495208405N01240690EA0136601456000012000000
B1229535208474N01240768EA0136401459000012000000
B1229575208555N01240772EA0136801458000012000000
B1230015208616N01240695EA0136701462000012000000
B1230055208626N01240590EA0137901475000012000000
B1230095208591N01240510EA0138301476000008000000
B1230135208533N01240486EA0138601479000012000000
B1230175208481N01240538EA0138701479000008000000
B1230215208470N01240649EA0138501477000012000000
B1230255208513N01240747EA0138401474000012000000
B1230295208588N01240784EA0138101474000012000000
B1230335208660N01240751EA0138301474000008000000
B1230375208700N01240662EA0137901468000012000000
B1230415208691N01240560EA0137901473000012000000
B1230455208644N01240508EA0138401477000012000000
B1230495208588N01240539EA0138301473000012000000
B1230535208564N01240643EA0137501465000012000000
B1230575208592N01240762EA0137101461000012000000
B1231015208657N01240837EA0137201465000012000000
B1231055208734N01240853EA0137401465000012000000
B1231095208795N01240796EA0137401465000012000000
B1231135208816N01240697EA0137701467000012000000
B1231175208799N01240602EA0137901472000012000000
B1231215208755N01240542EA0138401475000012000000
B1231255208695N01240542EA0138301473000012000000
B1231295208652N01240615EA0138001472000012000000
B1231335208652N01240725EA0138101469000012000000
B1231375208695N01240825EA0137501460000012000000
B1231415208767N01240877EA0136801460000012000000
B1231455208841N01240872EA0137201461000012000000
B1231495208903N01240814EA0136601452000012000000
B1231535208934N01240716EA0136201451000012000000
B1231575208937N01240614EA0136201454000012000000
B1232015208903N01240534EA0136301452000012000000
B1232055208847N01240520EA0136401457000012000000
B1232095208806N01240589EA0136401452000012000000
B1232135208816N01240702EA0135901445000012000000
B1232175208873N01240785EA0135201440000012000000
B1232215208950N01240792EA0135301445000012000000
B1232255209012N01240740EA0135801447000012000000
B1232295209046N01240649EA0135901449000012000000
B1232335209046N01240549EA0136001449000012000000
B1232375209021N01240463EA0136001447000012000000
B1232415208984N01240393EA0135801448000012000000
B1232455208938N01240331EA0136401453000012000000
B1232495208891N01240273EA0137001444000012000000
B1232535208842N01240205EA0136001437000012000000
B1232575208791N01240140EA0135801439000012000000
B1233015208741N01240075EA0136101443000012000000
B1233055208690N01240008EA0136101441000012000000
B1233095208638N01239944EA0135901439000012000000
B1233135208590N01239875EA0135701435000012000000
B1233175208546N01239800EA0135001431000012000000
B1233215208503N01239719EA0134501424000012000000
B1233255208458N01239641EA0134001422000016000000
B1233295208416N01239567EA0133801417000016000000
B1233335208370N01239494EA0133001406000016000000
B1233375208321N01239420EA0132001401000016000000
B1233415208275N01239343EA0131801399000020000000
B1233455208231N01239262EA0131201392000016000000
B1233495208188N01239176EA0130501384000016000000
B1233535208152N01239082EA0129101376000016000000
B1233575208120N01238982EA0128501374000016000000
B1234015208088N01238886EA0128701376000012000000
B1234055208045N01238805EA0129201385000012000000
B1234095207988N01238781EA0131001406000012000000
B1234135207944N01238846EA0132301414000012000000
B1234175207948N01238959EA0132701412000012000000
B1234215208005N01239042EA0131501396000012000000
B1234255208084N01239042EA0130601402000012000000
B1234295208141N01238979EA0131801408000012000000
B1234335208166N01238882EA0131801407000012000000
B1234375208162N01238782EA0131901408000012000000
B1234415208127N01238697EA0132201416000012000000
B1234455208074N01238671EA0134101435000012000000
B1234495208049N01238761EA0135301443000012000000
B1234535208093N01238856EA0136301456000012000000
B1234575208166N01238860EA0137101464000012000000
B1235015208206N01238773EA0138001475000012000000
B1235055208178N01238692EA0139101485000012000000
B1235095208126N01238722EA0140101497000012000000
B1235135208130N01238831EA0141101504000012000000
B1235175208201N01238891EA0141601508000012000000
B1235215208265N01238829EA0142501524000012000000
B1235255208260N01238730EA0144001534000012000000
B1235295208204N01238718EA0144801544000012000000
B1235335208183N01238816EA0146001555000012000000
B1235375208237N01238908EA0146801560000012000000
B1235415208314N01238888EA0147701575000012000000
B1235455208336N01238792EA0149301586000012000000
B1235495208291N01238738EA0149601590000012000000
B1235535208244N01238795EA0150601607000012000000
B1235575208266N01238905EA0151701610000012000000
B1236015208344N01238938EA0151701612000012000000
B1236055208400N01238860EA0152501623000012000000
B1236095208395N01238757EA0153501633000012000000
B1236135208343N01238719EA0154501642000012000000
B1236175208302N01238790EA0155301651000012000000
B1236215208326N01238900EA0156501662000012000000
B1236255208399N01238946EA0157001666000012000000
B1236295208466N01238890EA0157701674000012000000
B1236335208481N01238787EA0158201679000012000000
B1236375208442N01238719EA0158601680000012000000
B1236415208388N01238748EA0158801685000012000000
B1236455208382N01238856EA0159601697000012000000
B1236495208439N01238940EA0160901706000012000000
B1236535208517N01238931EA0161501712000012000000
B1236575208560N01238843EA0162201719000012000000
B1237015208547N01238745EA0162301716000012000000
B1237055208496N01238703EA0162001716000012000000
B1237095208443N01238744EA0162301723000012000000
B1237135208432N01238849EA0163101729000012000000
B1237175208481N01238944EA0163701732000012000000
B1237215208562N01238965EA0163901736000012000000
B1237255208625N01238895EA0164601744000012000000
B1237295208639N01238794EA0165101744000012000000
B1237335208607N01238719EA0164401736000012000000
B1237375208551N01238706EA0164301740000012000000
B1237415208510N01238778EA0164901747000012000000
B1237455208523N01238891EA0165401752000012000000
B1237495208594N01238952EA0165601748000012000000
B1237535208668N01238903EA0165301750000012000000
B1237575208689N01238799EA0165801754000012000000
B1238015208656N01238722EA0165701750000012000000
B1238055208599N01238732EA0165701757000012000000
B1238095208566N01238817EA0166901770000012000000
B1238135208585N01238926EA0167501769000012000000
B1238175208656N01238985EA0167001763000012000000
B1238215208735N01238956EA0167101769000012000000
B1238255208778N01238868EA0167401771000012000000
B1238295208780N01238762EA0167401766000012000000
B1238335208742N01238688EA0166701763000012000000
B1238375208686N01238677EA0167401775000012000000
B1238415208642N01238738EA0168401780000012000000
B1238455208622N01238843EA0168401777000012000000
B1238495208647N01238959EA0167801770000012000000
B1238535208707N01239044EA0167801772000012000000
B1238575208785N01239076EA0167701772000012000000
B1239015208861N01239046EA0167801771000012000000
B1239055208912N01238964EA0167401765000012000000
B1239095208928N01238856EA0166901761000012000000
B1239135208910N01238758EA0166401754000012000000
B1239175208867N01238691EA0165801751000012000000
B1239215208809N01238688EA0166101761000012000000
B1239255208761N01238749EA0167401770000012000000
B1239295208742N01238853EA0168001775000012000000
B1239335208764N01238965EA0167601768000012000000
B1239375208822N01239052EA0167601773000012000000
B1239415208902N01239077EA0167801770000012000000
B1239455208976N01239038EA0167401764000012000000
B1239495209019N01238946EA0167001764000012000000
B1239535209024N01238842EA0166601755000012000000
B1239575208995N01238752EA0165701750000012000000
B1240015208945N01238716EA0166301762000008000000
B1240055208893N01238748EA0167501771000012000000
B1240095208865N01238835EA0168301777000012000000
B1240135208874N01238943EA0168301774000012000000
B1240175208926N01239031EA0168201773000012000000
B1240215209004N01239044EA0167901776000012000000
B1240255209064N01238977EA0168101772000012000000
B1240295209086N01238870EA0167401765000012000000
B1240335209072N01238768EA0167201767000012000000
B1240375209033N01238693EA0167601772000012000000
B1240415208977N01238677EA0168001771000012000000
B1240455208928N01238731EA0167101759000012000000
B1240495208904N01238834EA0166401756000012000000
B1240535208913N01238944EA0166601760000012000000
B1240575208954N01239039EA0166401749000012000000
B1241015209024N01239100EA0165501749000012000000
B1241055209102N01239109EA0165801755000012000000
B1241095209163N01239052EA0166401759000012000000
B1241135209192N01238956EA0166401755000012000000
B1241175209181N01238856EA0165501749000012000000
B1241215209140N01238790EA0165701753000012000000
B1241255209088N01238783EA0166401758000012000000
B1241295209043N01238835EA0166501757000012000000
B1241335209024N01238935EA0166301754000012000000
B1241375209038N01239054EA0165501747000012000000
B1241415209081N01239160EA0165101745000012000000
B1241455209145N01239236EA0165401751000012000000
B1241495209219N01239269EA0165701751000012000000
B1241535209293N01239247EA0165301744000012000000
B1241575209353N01239180EA0164201735000012000000
B1242015209387N01239085EA0163601728000012000000
B1242055209397N01238982EA0163201723000012000000
B1242095209385N01238882EA0162601714000012000000
B1242135209349N01238803EA0161801712000012000000
B1242175209297N01238758EA0161901712000012000000
B1242215209238N01238753EA0161601705000012000000
B1242255209180N01238782EA0161201707000012000000
B1242295209132N01238844EA0161601711000012000000
B1242335209101N01238938EA0161501706000012000000
B1242375209095N01239052EA0160701698000012000000
B1242415209115N01239171EA0160701703000012000000
B1242455209158N01239273EA0161101706000012000000
B1242495209225N01239345EA0161201707000012000000
B1242535209302N01239371EA0161201705000012000000
B1242575209376N01239342EA0160901702000012000000
B1243015209435N01239275EA0160901702000012000000
B1243055209467N01239178EA0160501695000012000000
B1243095209475N01239074EA0160001693000012000000
B1243135209463N01238974EA0159601688000012000000
B1243175209431N01238888EA0159301685000012000000
B1243215209385N01238823EA0159001686000012000000
B1243255209331N01238792EA0159301688000012000000
B1243295209275N01238809EA0159601693000012000000
B1243335209235N01238881EA0160201699000012000000
B1243375209223N01238983EA0160601701000012000000
B1243415209242N01239093EA0160401696000012000000
B1243455209293N01239184EA0159801692000012000000
B1243495209366N01239221EA0159601691000012000000
B1243535209439N01239197EA0159201687000012000000
B1243575209493N01239125EA0159301689000012000000
B1244015209519N01239029EA0159501691000012000000
B1244055209510N01238935EA0159601691000012000000
B1244095209470N01238874EA0159301689000012000000
B1244135209415N01238865EA0159301688000012000000
B1244175209366N01238924EA0159101686000012000000
B1244215209348N01239030EA0159201691000012000000
B1244255209374N01239138EA0159901696000012000000
B1244295209439N01239193EA0160301700000012000000
B1244335209509N01239173EA0160201693000012000000
B1244375209560N01239095EA0159301690000012000000
B1244415209574N01238994EA0159401693000012000000
B1244455209554N01238904EA0159801696000012000000
B1244495209510N01238847EA0159901694000012015000
B1244535209453N01238849EA0159601694000012000000
B1244575209409N01238920EA0159701693000012000000
B1245015209398N01239031EA0159201686000012000000
B1245055209420N01239150EA0158901684000012000000
B1245095209483N01239220EA0158901690000012000000
B1245135209556N01239204EA0159301693000012000000
B1245175209605N01239128EA0159601697000012000000
B1245215209626N01239028EA0160201699000012015000
B1245255209619N01238925EA0160301703000012000000
B1245295209587N01238846EA0160901705000012015000
B1245335209534N01238825EA0161001707000012000000
B1245375209484N01238874EA0160901705000012000000
B1245415209453N01238963EA0160601704000012000000
B1245455209436N01239067EA0160401699000012000000
B1245495209427N01239177EA0159701694000012000000
B1245535209417N01239290EA0159201690000012000000
B1245575209401N01239405EA0158601680000012000000
B1246015209383N01239520EA0158201668000008000000
B1246055209363N01239641EA0157801663000012000000
B1246095209346N01239762EA0157601662000012000000
B1246135209332N01239884EA0157401660000012000000
B1246175209318N01240005EA0157301658000012000000
B1246215209303N01240123EA0157001656000012000000
B1246255209288N01240240EA0156501646000012000000
B1246295209271N01240361EA0155401637000012000000
B1246335209250N01240484EA0154601631000012000000
B1246375209231N01240606EA0153901626000012000000
B1246415209212N01240731EA0153501622000012000000
B1246455209197N01240857EA0153001618000012000000
B1246495209181N01240981EA0152601615000012000000
B1246535209164N01241105EA0152301613000012000000
B1246575209147N01241227EA0152101608000012000000
B1247015209129N01241349EA0151501604000012000000
B1247055209112N01241470EA0151301602000012000000
B1247095209094N01241589EA0151201600000012000000
B1247135209079N01241707EA0150901597000012000000
B1247175209062N01241825EA0150601594000012000000
B1247215209043N01241943EA0150301590000012000000
B1247255209025N01242059EA0149901586000012000000
B1247295209006N01242176EA0149501582000012000000
B1247335208984N01242292EA0149001576000012000000
B1247375208959N01242409EA0148301567000012000000
B1247415208934N01242528EA0147401559000012000000
B1247455208907N01242647EA0146801553000012000000
B1247495208877N01242759EA0146401549000012000000
B1247535208846N01242868EA0146201544000012000000
B1247575208813N01242976EA0145401536000012000000
B1248015208781N01243087EA0144701529000012000000
B1248055208751N01243198EA0144501528000012000000
B1248095208718N01243308EA0144001527000012000000
B1248135208685N01243414EA0143001524000012000000
B1248175208655N01243522EA0142301524000012000000
B1248215208630N01243630EA0142501528000012000000
B1248255208609N01243735EA0143401541000012000000
B1248295208575N01243822EA0144501544000012015000
B1248335208521N01243870EA0144601544000012015000
B1248375208458N01243870EA0144501548000012015000
B1248415208404N01243822EA0145501563000012015000
B1248455208367N01243735EA0146601569000012015000
B1248495208366N01243623EA0147401578000012015000
B1248535208410N01243529EA0147901582000012000000
B1248575208483N01243505EA0148701591000012000000
B1249015208544N01243561EA0149001591000012000000
B1249055208565N01243667EA0148701591000012000000
B1249095208542N01243762EA0150001610000012015000
B1249135208490N01243813EA0151101621000012015000
B1249175208429N01243808EA0152201628000012015000
B1249215208387N01243728EA0152801633000012015000
B1249255208391N01243617EA0152901632000012015000
B1249295208431N01243518EA0153001630000012015000
B1249335208501N01243477EA0152801629000012000000
B1249375208572N01243516EA0152401630000012000000
B1249415208613N01243615EA0152701639000016000000
B1249455208618N01243724EA0153801652000012015000
B1249495208595N01243819EA0155201663000012015000
B1249535208539N01243861EA0156201673000012015000
B1249575208481N01243836EA0157401685000012015000
B1250015208442N01243756EA0157801683000012015000
B1250055208438N01243645EA0157701681000012015000
B1250095208475N01243548EA0157401676000012015000
B1250135208538N01243484EA0157001674000012015000
B1250175208609N01243466EA0157401675000012015000
B1250215208678N01243496EA0157501679000012015000
B1250255208724N01243574EA0158301684000012015000
B1250295208733N01243675EA0157901675000012015000
B1250335208709N01243771EA0157701682000012015000
B1250375208663N01243836EA0158601688000012015000
B1250415208600N01243847EA0159101695000012015000
B1250455208540N01243810EA0160001703000012015000
B1250495208500N01243726EA0160001696000012015000
B1250535208492N01243607EA0159001690000012015000
B1250575208526N01243507EA0158601681000012015000
B1251015208594N01243474EA0157701667000012015000
B1251055208660N01243515EA0156801667000012015000
B1251095208696N01243606EA0157101669000012015000
B1251135208705N01243713EA0157401674000012015000
B1251175208686N01243815EA0158001682000012015000
B1251215208642N01243890EA0158801684000012015000
B1251255208577N01243906EA0158401679000012015000
B1251295208523N01243848EA0158101678000012015000
B1251335208513N01243745EA0157301666000012015000
B1251375208547N01243648EA0156201654000012015000
B1251415208607N01243587EA0155401648000012015000
B1251455208677N01243562EA0154801644000012015000
B1251495208746N01243566EA0154901648000012015000
B1251535208808N01243606EA0155301650000012015000
B1251575208854N01243689EA0155301652000012015000
B1252015208869N01243797EA0155901659000012015000
B1252055208846N01243899EA0156401663000012015000
B1252095208798N01243966EA0157001671000012015000
B1252135208735N01243978EA0157501675000012015000
B1252175208692N01243904EA0157601669000012015000
B1252215208704N01243797EA0156601654000012015000
B1252255208763N01243730EA0155701657000012015000
B1252295208830N01243736EA0156401662000012015000
B1252335208874N01243822EA0156901668000012015000
B1252375208865N01243932EA0157401672000012015000
B1252415208812N01243997EA0157701675000012015000
B1252455208751N01243965EA0157601669000012015000
B1252495208734N01243861EA0156601660000012015000
B1252535208782N01243786EA0156101652000012015000
B1252575208851N01243806EA0155201647000012015000
B1253015208885N01243906EA0155501655000012015000
B1253055208874N01244016EA0156001657000012015000
B1253095208828N01244096EA0156201656000012015000
B1253135208763N01244112EA0155401645000012015000
B1253175208716N01244043EA0155101644000012015000
B1253215208709N01243938EA0155401633000012015000
B1253255208742N01243828EA0153801614000012015000
B1253295208791N01243723EA0152101592000012015000
B1253335208850N01243623EA0150501581000012015000
B1253375208902N01243518EA0149701572000012015000
B1253415208946N01243399EA0148401553000012015000
B1253455208997N01243279EA0146501536000012015000
B1253495209053N01243158EA0144701518000012015000
B1253535209114N01243042EA0143401508000012015000
B1253575209179N01242928EA0142001488000012015000
B1254015209250N01242811EA0139901469000012015000
B1254055209326N01242700EA0139301471000012015000
B1254095209401N01242600EA0139601471000012015000
B1254135209476N01242504EA0139201467000012015000
B1254175209554N01242413EA0138701462000012015000
B1254215209631N01242323EA0138301458000012015000
B1254255209705N01242231EA0138101461000012015000
B1254295209777N01242140EA0138101458000012015000
B1254335209847N01242047EA0137701453000012015000
B1254375209918N01241955EA0137101449000012015000
B1254415209990N01241862EA0136601443000012015000
B1254455210063N01241769EA0136401440000012015000
B1254495210135N01241680EA0135901437000012015000
B1254535210208N01241590EA0135601431000012015000
B1254575210281N01241496EA0135001423000012015000
B1255015210354N01241399EA0134101414000012015000
B1255055210429N01241301EA0133601411000012015000
B1255095210503N01241206EA0133401411000012015000
B1255135210571N01241106EA0133301411000012015000
B1255175210632N01241002EA0133301407000012015000
B1255215210691N01240892EA0132701397000012015000
B1255255210750N01240777EA0131601386000012015000
B1255295210810N01240659EA0130701377000012015000
B1255335210870N01240541EA0130101371000012015000
B1255375210928N01240420EA0129601365000012015000
B1255415210983N01240295EA0128901359000012015000
B1255455211035N01240169EA0128401352000012015000
B1255495211086N01240040EA0127901346000012015000
B1255535211134N01239909EA0127601346000012015000
B1255575211182N01239782EA0127701349000012015000
B1256015211230N01239657EA0127901350000012015000
B1256055211277N01239533EA0127901349000012000000
B1256095211322N01239408EA0128101360000012000000
B1256135211361N01239299EA0130401388000012000000
B1256175211396N01239206EA0131901396000012000000
B1256215211434N01239109EA0131401381000012000000
B1256255211481N01239000EA0129701363000012000000
B1256295211533N01238885EA0129001364000012000000
B1256335211585N01238768EA0129601373000012000000
B1256375211630N01238656EA0130701387000012000000
B1256415211672N01238543EA0130701375000012000000
B1256455211718N01238422EA0129501365000012000000
B1256495211764N01238294EA0128901363000012000000
B1256535211812N01238170EA0128901365000012000000
B1256575211864N01238047EA0128901364000012000000
B1257015211915N01237932EA0129101366000012000000
B1257055211966N01237813EA0128801357000012000000
B1257095212019N01237690EA0128101353000012000000
B1257135212076N01237565EA0127601348000012000000
B1257175212132N01237439EA0127101345000012000000
B1257215212187N01237312EA0126801337000012000000
B1257255212239N01237179EA0125701327000012000000
B1257295212292N01237046EA0124901317000012000000
B1257335212344N01236914EA0124201310000012000000
B1257375212394N01236782EA0123501305000012000000
B1257415212448N01236658EA0123101302000012000000
B1257455212505N01236539EA0122501290000012000000
B1257495212568N01236420EA0121401282000012000000
B1257535212628N01236300EA0120801278000012000000
B1257575212687N01236186EA0120401276000012000000
B1258015212748N01236074EA0120301273000012000000
B1258055212808N01235961EA0119501262000012000000
B1258095212868N01235846EA0118501252000016000000
B1258135212927N01235727EA0117301242000012000000
B1258175212984N01235607EA0116801244000012000000
B1258215213038N01235493EA0117201247000012000000
B1258255213094N01235382EA0117401249000012000000
B1258295213150N01235272EA0117501250000012000000
B1258335213201N01235161EA0117501247000016000000
B1258375213252N01235051EA0116401227000016000000
B1258415213307N01234930EA0114501209000016000000
B1258455213365N01234805EA0113301203000012000000
B1258495213422N01234682EA0112501188000016000000
B1258535213482N01234557EA0110801177000012000000
B1258575213539N01234432EA0110101167000012000000
B1259015213596N01234302EA0108501145000012000000
B1259055213653N01234167EA0107501146000016000000
B1259095213708N01234036EA0107401140000016000000
B1259135213761N01233908EA0106901142000012000000
B1259175213812N01233785EA0107201146000012000000
B1259215213855N01233677EA0108701175000012000000
B1259255213894N01233582EA0110501179000012000000
B1259295213937N01233479EA0109401153000012000000
B1259335213981N01233358EA0107401138000012000000
B1259375214021N01233231EA0106301138000012000000
B1259415214056N01233102EA0106201131000012000000
B1259455214087N01232972EA0105701132000012000000
B1259495214123N01232856EA0106701145000012000000
B1259535214175N01232767EA0107101142000012000000
B1259575214236N01232687EA0105701133000012000000
B1300015214305N01232622EA0105301141000016000000
B1300055214368N01232564EA0106301150000012000000
B1300095214409N01232476EA0106401143000012000000
B1300135214419N01232368EA0105401134000016000000
B1300175214423N01232256EA0104701134000016000000
B1300215214442N01232149EA0105101133000016000000
B1300255214467N01232040EA0105501123000012000000
B1300295214487N01231923EA0104601117000012000000
B1300335214502N01231805EA0103601097000012000000
B1300375214516N01231676EA0101801084000012000000
B1300415214536N01231546EA0101001074000012000000
B1300455214565N01231416EA0100001066000012000000
B1300495214600N01231290EA0099301058000012000000
B1300535214643N01231168EA0098501051000012000000
B1300575214685N01231044EA0097701039000012000000
B1301015214731N01230921EA0096501027000012000000
B1301055214776N01230799EA0095501019000012000000
B1301095214826N01230678EA0094701012000012000000
B1301135214878N01230561EA0094301015000012000000
B1301175214930N01230445EA0094801017000012000000
B1301215214973N01230324EA0094801017000016000000
B1301255215001N01230201EA0095001021000012000000
B1301295215027N01230082EA0095701033000012000000
B1301335215055N01229976EA0096701041000012000000
B1301375215079N01229874EA0097001031000016000000
B1301415215113N01229770EA0095201015000016000000
B1301455215155N01229661EA0094301006000016000000
B1301495215199N01229545EA0092900989000020000000
B1301535215242N01229427EA0091800982000016000000
B1301575215287N01229314EA0091200976000016000000
B1302015215335N01229203EA0090300965000016000000
B1302055215384N01229089EA0089000951000016000000
B1302095215424N01228964EA0087700939000016000000
B1302135215458N01228834EA0087100940000016000000
B1302175215494N01228711EA0087300937000016000000
B1302215215528N01228585EA0087200957000016000000
B1302255215537N01228472EA0089100979000012000000
B1302295215484N01228430EA0090100983000012015000
B1302335215451N01228521EA0090900992000012015000
B1302375215501N01228616EA0091300994000012015000
B1302415215576N01228603EA0091601001000012000000
B1302455215608N01228514EA0092601010000012015000
B1302495215580N01228433EA0092601009000012000000
B1302535215524N01228453EA0093201023000012015000
B1302575215517N01228560EA0094001022000012015000
B1303015215575N01228639EA0093801020000012015000
B1303055215653N01228638EA0094001026000012000000
B1303095215701N01228566EA0095501042000012000000
B1303135215685N01228474EA0095601039000012000000
B1303175215625N01228470EA0095801050000012000000
B1303215215603N01228570EA0097301062000012015000
B1303255215657N01228656EA0097801062000012000000
B1303295215727N01228622EA0098201071000012000000
B1303335215735N01228524EA0099001077000012000000
B1303375215686N01228473EA0099501083000012000000
B1303415215640N01228535EA0100701095000012000000
B1303455215663N01228641EA0101301097000008000000
B1303495215737N01228669EA0100601090000012015000
B1303535215790N01228595EA0101401104000008000000
B1303575215772N01228505EA0102201107000008000000
B1304015215716N01228507EA0102501115000008000000
B1304055215699N01228608EA0103301123000008000000
B1304095215755N01228681EA0103901122000008000000
B1304135215823N01228642EA0103501124000008000000
B1304175215844N01228544EA0104301131000008000000
B1304215215828N01228443EA0104401131000008000000
B1304255215796N01228352EA0104901139000008000000
B1304295215740N01228303EA0105801150000008000000
B1304335215692N01228349EA0107101162000008000000
B1304375215710N01228456EA0107201155000012000000
B1304415215785N01228501EA0106501155000012000000
B1304455215858N01228464EA0107401174000012000000
B1304495215896N01228373EA0109001186000012000000
B1304535215880N01228279EA0109501187000012000000
B1304575215826N01228273EA0110301201000012000000
B1305015215809N01228368EA0111401209000012015000
B1305055215861N01228452EA0111801208000012000000
B1305095215937N01228435EA0111801214000012000000
B1305135215975N01228335EA0112801224000012000000
B1305175215948N01228240EA0113301227000012000000
B1305215215892N01228253EA0114301243000012015000
B1305255215888N01228358EA0115801252000012000000
B1305295215954N01228427EA0116101258000012000000
B1305335216021N01228374EA0117101275000008000000
B1305375216023N01228267EA0118401277000008000000
B1305415215970N01228232EA0118901287000004000000
B1305455215939N01228317EA0120001300000004015000
B1305495215980N01228410EA0120901302000004000000
B1305535216058N01228390EA0120901309000008000000
B1305575216079N01228282EA0122201322000008000000
B1306015216036N01228219EA0122701327000008000000
B1306055215995N01228279EA0124101344000012015000
B1306095216024N01228379EA0125201344000008000000
B1306135216102N01228378EA0124701346000008000000
B1306175216134N01228274EA0125901357000008015000
B1306215216096N01228201EA0126301361000012015000
B1306255216044N01228249EA0127301372000012015000
B1306295216060N01228360EA0128001376000012000000
B1306335216136N01228382EA0127601371000012000000
B1306375216184N01228283EA0127901377000012000000
B1306415216179N01228170EA0128101379000012000000
B1306455216130N01228105EA0129201390000012015000
B1306495216083N01228148EA0129601390000012015000
B1306535216110N01228249EA0129601393000016015000
B1306575216188N01228266EA0129901395000020015000
B1307015216249N01228189EA0130801410000020000000
B1307055216244N01228084EA0132001416000020000000
B1307095216191N01228056EA0131701405000016015000
B1307135216167N01228145EA0131101409000016015000
B1307175216210N01228230EA0132701423000012015000
B1307215216286N01228235EA0133501431000012000000
B1307255216326N01228140EA0134301439000012000000
B1307295216286N01228071EA0134601440000012015000
B1307335216242N01228127EA0134601439000012015000
B1307375216275N01228223EA0135301450000012000000
B1307415216352N01228228EA0136201458000012000000
B1307455216401N01228136EA0136901465000012000000
B1307495216396N01228023EA0137601473000012000000
B1307535216368N01227920EA0137101451000012000000
B1307575216336N01227805EA0135401426000012000000
B1308015216307N01227677EA0133601411000012000000
B1308055216274N01227549EA0132501400000012000000
B1308095216238N01227421EA0131801396000012000000
B1308135216201N01227298EA0131301387000012000000
B1308175216160N01227177EA0130501381000012000000
B1308215216114N01227061EA0130001375000012000000
B1308255216070N01226952EA0129601373000012000000
B1308295216023N01226845EA0129301367000012000000
B1308335215972N01226741EA0128601362000012000000
B1308375215920N01226639EA0127901353000012000000
B1308415215867N01226531EA0126901344000012000000
B1308455215813N01226421EA0126301339000012000000
B1308495215759N01226314EA0125701333000012000000
B1308535215705N01226206EA0125101328000016000000
B1308575215649N01226100EA0124601323000016000000
B1309015215594N01225996EA0124201318000012000000
B1309055215538N01225892EA0123701310000012000000
B1309095215485N01225782EA0122501296000012000000
B1309135215433N01225666EA0121401289000012000000
B1309175215382N01225549EA0120801281000012000000
B1309215215329N01225436EA0120201278000008000000
B1309255215277N01225331EA0120101279000012000000
B1309295215229N01225227EA0120001274000012000000
B1309335215186N01225115EA0119301265000012000000
B1309375215140N01224999EA0117901246000012000000
B1309415215091N01224882EA0116101232000012000000
B1309455215038N01224773EA0115301227000012000000
B1309495214983N01224668EA0114901223000012000000
B1309535214929N01224564EA0114401218000012000000
B1309575214877N01224460EA0113501211000012000000
B1310015214825N01224354EA0112801205000012000000
B1310055214776N01224244EA0112601199000012000000
B1310095214724N01224143EA0111901195000012000000
B1310135214669N01224052EA0111801194000012000000
B1310175214615N01223962EA0111601193000012000000
B1310215214570N01223862EA0111001181000012000000
B1310255214532N01223743EA0109901172000012000000
B1310295214511N01223610EA0109101166000012000000
B1310335214505N01223468EA0108701161000012000000
B1310375214510N01223321EA0107701151000012000000
B1310415214520N01223173EA0107401144000012000000
B1310455214527N01223025EA0106601134000012000000
B1310495214533N01222879EA0105901130000012000000
B1310535214549N01222736EA0105401124000012000000
B1310575214571N01222598EA0105001123000012000000
B1311015214597N01222467EA0105301126000012000000
B1311055214626N01222333EA0105601131000012000000
B1311095214650N01222208EA0106201153000012000000
B1311135214653N01222103EA0107801166000012000000
B1311175214646N01221999EA0107801164000012000000
B1311215214652N01221888EA0107801157000012000000
B1311255214654N01221770EA0106401147000012000000
B1311295214649N01221658EA0106401157000012000000
B1311335214636N01221567EA0108201170000012000000
B1311375214615N01221476EA0108201159000012000000
B1311415214594N01221374EA0106901148000012000000
B1311455214587N01221260EA0106901141000012000000
B1311495214594N01221137EA0106101124000012000000
B1311535214617N01221007EA0104401107000012000000
B1311575214643N01220877EA0103001098000012000000
B1312015214666N01220746EA0102501096000012000000
B1312055214688N01220616EA0102401097000012000000
B1312095214704N01220487EA0102501092000008000000
B1312135214719N01220356EA0101601081000008000000
B1312175214732N01220222EA0100401072000008000000
B1312215214743N01220085EA0100301073000008000000
B1312255214741N01219950EA0100101068000008000000
B1312295214735N01219814EA0099801067000008000000
B1312335214731N01219680EA0099801069000012000000
B1312375214727N01219550EA0099701063000012000000
B1312415214724N01219417EA0098501044000012000000
B1312455214721N01219275EA0096601027000012000000
B1312495214721N01219130EA0095701023000012000000
B1312535214724N01218984EA0095101016000012000000
B1312575214723N01218839EA0094501012000008000000
B1313015214723N01218698EA0094301013000008000000
B1313055214721N01218560EA0094201008000012000000
B1313095214721N01218419EA0093701005000012000000
B1313135214721N01218280EA0093601007000012000000
B1313175214718N01218143EA0093901009000012000000
B1313215214714N01218005EA0094101014000012000000
B1313255214715N01217877EA0095301034000012000000
B1313295214717N01217761EA0096301035000012000000
B1313335214718N01217637EA0095601019000012000000
B1313375214717N01217509EA0094801016000012000000
B1313415214710N01217376EA0094201005000012000000
B1313455214709N01217240EA0093201000000012000000
B1313495214714N01217102EA0092900996000012000000
B1313535214723N01216964EA0092600994000012000000
B1313575214740N01216829EA0092400990000012000000
B1314015214756N01216690EA0091400974000012000000
B1314055214763N01216551EA0090300970000012000000
B1314095214771N01216415EA0090300973000008000000
B1314135214776N01216283EA0090100965000012000000
B1314175214779N01216146EA0089300957000008000000
B1314215214784N01216008EA0088700954000008000000
B1314255214802N01215876EA0088700954000008000000
B1314295214843N01215758EA0088700951000008000000
B1314335214899N01215655EA0088000939000012000000
B1314375214914N01215539EA0087000935000012015000
B1314415214865N01215478EA0086300925000012000000
B1314455214804N01215500EA0085300917000012015000
B1314495214748N01215556EA0085000918000012015000
B1314535214695N01215624EA0084700913000012000000
B1314575214643N01215700EA0084300909000012000000
B1315015214592N01215785EA0084100904000012000000
B1315055214545N01215877EA0083600896000008000000
B1315095214498N01215972EA0082500883000008000000
B1315135214448N01216070EA0081000869000008000000
B1315175214394N01216163EA0080000862000008000000
B1315215214338N01216250EA0079600862000008000000
B1315255214281N01216336EA0079300857000008000000
B1315295214223N01216424EA0079100856000008000000
B1315335214169N01216514EA0079200865000012000000
B1315375214129N01216606EA0080200884000008000000
B1315415214091N01216697EA0079700866000008000000
B1315455214043N01216790EA0077800851000008000000
B1315495213989N01216869EA0077200844000008000000
B1315535213930N01216935EA0076600839000004000000
B1315575213869N01216996EA0075800826000004000000
B1316015213807N01217054EA0074400816000004000000
B1316055213739N01217086EA0075000811000008000000
B1316095213669N01217095EA0074100801000008000000
B1316135213597N01217082EA0072900789000008000000
B1316175213527N01217051EA0071800780000008000000
B1316215213460N01217007EA0071200772000008000000
B1316255213392N01216960EA0070600768000008000000
B1316295213324N01216913EA0070500772000008000000
B1316335213257N01216868EA0071000774000012000000
B1316375213190N01216825EA0070700770000012000000
B1316415213125N01216786EA0070300763000012000000
B1316455213059N01216749EA0069300749000012000000
B1316495212990N01216713EA0067800734000012000000
B1316535212920N01216671EA0066700720000012000000
B1316575212851N01216627EA0065600713000012000000
B1317015212781N01216592EA0064800705000012000000
B1317055212712N01216570EA0064100701000012000000
B1317095212642N01216565EA0063500696000012000000
B1317135212576N01216564EA0063700706000012000000
B1317175212516N01216579EA0063300706000012000000
B1317215212461N01216606EA0063100700000012000000
B1317255212404N01216626EA0062100691000012000000
B1317295212344N01216617EA0061800690000012000000
B1317335212287N01216591EA0061700683000012000000
B1317375212234N01216539EA0060600671000012000000
B1317415212183N01216462EA0059600664000016000000
B1317455212135N01216378EA0059600669000016000000
B1317495212089N01216297EA0060100674000016000000
B1317535212041N01216223EA0060900685000012000000
B1317575211985N01216174EA0062100697000012000000
B1318015211935N01216120EA0063300709000012000000
B1318055211928N01216020EA0064100713000012000000
B1318095211984N01215947EA0064300714000012000000
B1318135212057N01215982EA0064500716000012015000
B1318175212093N01216083EA0064500727000012015000
B1318215212076N01216174EA0066300738000012015000
B1318255212018N01216181EA0066700744000012015000
B1318295211991N01216094EA0067800754000012015000
B1318335212032N01216006EA0068300755000012015000
B1318375212105N01216018EA0068400757000012015000
B1318415212144N01216114EA0069100768000012015000
B1318455212118N01216197EA0070100775000012015000
B1318495212065N01216162EA0070600782000012000000
B1318535212067N01216054EA0071400793000012015000
B1318575212131N01216011EA0072200800000012015000
B1319015212184N01216084EA0072500802000012015000
B1319055212166N01216179EA0073400815000012015000
B1319095212110N01216170EA0074400823000012000000
B1319135212097N01216070EA0075500837000012015000
B1319175212150N01216005EA0076700842000012000000
B1319215212213N01216059EA0076600844000012000000
B1319255212210N01216158EA0077800859000012000000
B1319295212156N01216172EA0078700865000012000000
B1319335212131N01216081EA0079300873000012015000
B1319375212179N01216002EA0080200882000012015000
B1319415212243N01216041EA0081000889000012015000
B1319455212248N01216146EA0081200897000012000000
B1319495212195N01216179EA0082400907000012000000
B1319535212162N01216098EA0083100914000012015000
B1319575212195N01216005EA0084100925000012015000
B1320015212265N01216011EA0084800928000012000000
B1320055212300N01216106EA0085300938000012000000
B1320095212269N01216187EA0086600948000012015000
B1320135212214N01216163EA0086900950000012015000
B1320175212201N01216062EA0087100953000012015000
B1320215212252N01215986EA0087900961000012015000
B1320255212316N01216031EA0088600968000012015000
B1320295212317N01216133EA0089100975000012000000
B1320335212266N01216179EA0089500979000012000000
B1320375212221N01216120EA0089900979000012015000
B1320415212228N01216014EA0090100988000012000000
B1320455212287N01215968EA0091801001000012000000
B1320495212339N01216034EA0092201002000012000000
B1320535212325N01216133EA0092601009000012000000
B1320575212267N01216153EA0093201013000012000000
B1321015212232N01216077EA0093701021000012000000
B1321055212264N01215988EA0094801033000012015000
B1321095212331N01215992EA0095501035000008000000
B1321135212361N01216090EA0095701041000008015000
B1321175212319N01216167EA0096201044000008000000
B1321215212267N01216128EA0096301049000012000000
B1321255212273N01216028EA0097501063000012000000
B1321295212336N01215984EA0098501069000012000000
B1321335212394N01216051EA0099301080000012000000
B1321375212382N01216154EA0100001083000012000000
B1321415212325N01216174EA0100201086000012000000
B1321455212296N01216092EA0100901096000012000000
B1321495212335N01216008EA0101801100000012000000
B1321535212407N01216023EA0101901107000012015000
B1321575212436N01216123EA0102901117000012015000
B1322015212401N01216203EA0103401115000012000000
B1322055212342N01216190EA0103201121000008000000
B1322095212316N01216102EA0104501134000012000000
B1322135212345N01216005EA0105701149000012000000
B1322175212413N01215988EA0107201160000008000000
B1322215212453N01216072EA0107901165000008000000
B1322255212425N01216162EA0107801165000008015000
B1322295212368N01216153EA0108001172000004000000
B1322335212355N01216059EA0109301185000008000000
B1322375212405N01215985EA0110501195000008015000
B1322415212475N01216018EA0111501207000012015000
B1322455212486N01216122EA0112401211000012000000
B1322495212438N01216181EA0112301213000012000000
B1322535212388N01216137EA0113301227000012000000
B1322575212400N01216042EA0115201244000012000000
B1323015212472N01216018EA0116201252000012000000
B1323055212521N01216101EA0117001261000012000000
B1323095212503N01216200EA0117101256000012000000
B1323135212446N01216236EA0117101267000012000000
B1323175212405N01216184EA0118601271000008000000
B1323215212421N01216084EA0118101267000012000000
B1323255212495N01216049EA0119001291000012015000
B1323295212546N01216136EA0121101308000012015000
B1323335212517N01216226EA0122301315000012015000
B1323375212468N01216196EA0122901320000012000000
B1323415212479N01216099EA0123501326000012000000
B1323455212552N01216062EA0124601346000012000000
B1323495212621N01216112EA0126401360000012000000
B1323535212634N01216218EA0126801356000012000000
B1323575212587N01216280EA0126201358000012000000
B1324015212537N01216245EA0127101361000012000000
B1324055212546N01216137EA0127001368000012000000
B1324095212615N01216086EA0128601389000012000000
B1324135212674N01216162EA0130301398000012000000
B1324175212672N01216270EA0130901402000012000000
B1324215212616N01216300EA0131101404000008000000
B1324255212581N01216223EA0131701411000012000000
B1324295212618N01216123EA0132001417000008000000
B1324335212696N01216112EA0133801441000008015000
B1324375212745N01216203EA0134401444000008015000
B1324415212722N01216309EA0134601443000012000000
B1324455212661N01216319EA0135001457000008000000
B1324495212633N01216235EA0136301461000012000000
B1324535212674N01216135EA0136401467000012015000
B1324575212754N01216137EA0137801483000012015000
B1325015212785N01216241EA0138801487000012000000
B1325055212742N01216317EA0138701488000012000000
B1325095212693N01216268EA0140201509000012000000
B1325135212704N01216163EA0141601516000012000000
B1325175212774N01216118EA0142601531000012015000
B1325215212836N01216187EA0143701538000012000000
B1325255212829N01216293EA0144101538000012000000
B1325295212772N01216315EA0144301546000012000000
B1325335212738N01216236EA0145801559000012000000
B1325375212769N01216132EA0146401572000012015000
B1325415212842N01216102EA0148301585000012000000
B1325455212901N01216174EA0148901590000012000000
B1325495212893N01216280EA0149301592000012000000
B1325535212836N01216313EA0149301592000012000000
B1325575212786N01216253EA0150001606000012000000
B1326015212790N01216149EA0151201610000012000000
B1326055212855N01216093EA0152001622000012000000
B1326095212919N01216141EA0153301634000012000000
B1326135212917N01216245EA0153901637000012000000
B1326175212862N01216272EA0153601630000012000000
B1326215212826N01216183EA0153701638000012015000
B1326255212854N01216081EA0154901651000012015000
B1326295212928N01216063EA0155201654000012000000
B1326335212976N01216150EA0156301665000012000000
B1326375212950N01216245EA0157001672000012000000
B1326415212890N01216236EA0157801675000008000000
B1326455212878N01216133EA0157801677000008000000
B1326495212937N01216055EA0158001681000008000000
B1326535213012N01216093EA0158901692000012000000
B1326575213028N01216206EA0160201704000016000000
B1327015212977N01216265EA0160601704000012000000
B1327055212927N01216197EA0160801709000012000000
B1327095212938N01216088EA0161301713000012000000
B1327135213006N01216019EA0161201711000012000000
B1327175213088N01216018EA0161901728000012000000
B1327215213140N01216106EA0163401738000012000000
B1327255213119N01216206EA0163801738000012000000
B1327295213058N01216214EA0164001743000012000000
B1327335213021N01216127EA0164701750000012000000
B1327375213050N01216023EA0165401758000008000000
B1327415213125N01216005EA0166401770000012000000
B1327455213177N01216089EA0167601785000012000000
B1327495213171N01216193EA0168701789000012000000
B1327535213118N01216232EA0168701791000012000000
B1327575213077N01216157EA0169101795000012000000
B1328015213101N01216045EA0169401800000012000000
B1328055213174N01215994EA0169901808000008015000
B1328095213245N01216041EA0171201824000008000000
B1328135213262N01216144EA0172501827000004000000
B1328175213216N01216211EA0172201822000004000000
B1328215213158N01216166EA0172201829000008000000
B1328255213162N01216059EA0173801845000008000000
B1328295213227N01216002EA0174501847000008000000
B1328335213296N01216051EA0174801854000004000000
B1328375213311N01216155EA0175701864000004000000
B1328415213268N01216220EA0176201863000004000000
B1328455213214N01216177EA0176001865000004000000
B1328495213224N01216076EA0177201881000004000000
B1328535213292N01216047EA0178001880000008000000
B1328575213337N01216135EA0177801882000008000000
B1329015213307N01216224EA0178201885000012000000
B1329055213241N01216248EA0177501873000012000000
B1329095213164N01216232EA0177001862000012000000
B1329135213086N01216206EA0176801853000012000000
B1329175213003N01216175EA0174701828000012000000
B1329215212916N01216149EA0173301814000012000000
B1329255212828N01216124EA0172501815000012000000
B1329295212743N01216102EA0172901817000016000000
B1329335212660N01216077EA0172801814000016000000
B1329375212577N01216050EA0172201805000016000000
B1329415212490N01216025EA0171301796000016000000
B1329455212401N01216006EA0170601789000016000000
B1329495212314N01215993EA0170301792000016000000
B1329535212230N01215977EA0170401791000016000000
B1329575212147N01215962EA0169801785000012000000
B1330015212065N01215951EA0169401781000012000000
B1330055211984N01215945EA0169001779000012000000
B1330095211905N01215943EA0168701774000012000000
B1330135211824N01215950EA0168401772000012000000
B1330175211746N01215959EA0168201771000012000000
B1330215211666N01215966EA0167901764000012000000
B1330255211581N01215968EA0167501765000012000000
B1330295211497N01215979EA0168001774000012000000
B1330335211415N01215986EA0168601778000012000000
B1330375211335N01215976EA0169001783000012000000
B1330415211259N01215936EA0169401783000012000000
B1330455211187N01215875EA0169401788000012000000
B1330495211123N01215798EA0170401803000012000000
B1330535211062N01215737EA0172101815000012000000
B1330575210996N01215694EA0171401797000012000000
B1331015210917N01215673EA0169001770000012000000
B1331055210830N01215669EA0167101753000012000000
B1331095210743N01215670EA0166201749000012000000
B1331135210654N01215669EA0165801742000012000000
B1331175210566N01215669EA0165001734000012000000
B1331215210476N01215678EA0164301728000012000000
B1331255210388N01215691EA0163501719000012000000
B1331295210301N01215712EA0163101718000012000000
B1331335210215N01215730EA0162701713000012000000
B1331375210129N01215750EA0162401710000012000000
B1331415210043N01215773EA0161901703000012000000
B1331455209957N01215804EA0161301696000012000000
B1331495209869N01215833EA0160301680000012000000
B1331535209781N01215863EA0158801670000012000000
B1331575209693N01215898EA0158101663000012000000
B1332015209610N01215934EA0157901667000008000000
B1332055209532N01215966EA0158601671000008000000
B1332095209456N01215997EA0158401668000008000000
B1332135209380N01216024EA0157601658000012000000
B1332175209301N01216045EA0156801646000012000000
B1332215209219N01216064EA0155501632000012000000
B1332255209134N01216081EA0154401627000012000000
B1332295209049N01216094EA0154101626000016000000
B1332335208964N01216112EA0154301630000020000000
B1332375208882N01216124EA0154801635000016000000
B1332415208799N01216131EA0155001637000016000000
B1332455208720N01216144EA0155401646000016000000
B1332495208643N01216158EA0156101653000016000000
B1332535208570N01216150EA0155901661000012000000
B1332575208508N01216103EA0156601671000012000000
B1333015208462N01216031EA0157501680000012000000
B1333055208439N01215937EA0158301684000012000000
B1333095208457N01215837EA0158601684000008000000
B1333135208516N01215784EA0158401685000012000000
B1333175208578N01215813EA0158901690000008000000
B1333215208612N01215897EA0158801683000012000000
B1333255208605N01215994EA0157801675000012000000
B1333295208565N01216076EA0157501662000012000000
B1333335208505N01216133EA0156901653000012000000
B1333375208435N01216161EA0156101639000012000000
B1333415208357N01216163EA0154301621000012000000
B1333455208275N01216151EA0153201612000012000000
B1333495208192N01216144EA0152401606000012000000
B1333535208113N01216153EA0152201610000012000000
B1333575208036N01216183EA0152001602000012000000
B1334015207961N01216229EA0151201593000012000000
B1334055207886N01216289EA0150401588000012000000
B1334095207814N01216354EA0150101585000012000000
B1334135207745N01216421EA0149501579000012000000
B1334175207676N01216487EA0149101572000012000000
B1334215207607N01216556EA0148001559000012000000
B1334255207534N01216621EA0146901548000012000000
B1334295207460N01216684EA0146001539000012000000
B1334335207386N01216749EA0145301533000012000000
B1334375207311N01216814EA0144901529000012000000
B1334415207238N01216883EA0144301521000012000000
B1334455207165N01216963EA0143701518000012000000
B1334495207099N01217048EA0143601518000012000000
B1334535207032N01217138EA0143201511000012000000
B1334575206967N01217233EA0142701506000012000000
B1335015206902N01217324EA0142501507000012000000
B1335055206836N01217410EA0142201501000012000000
B1335095206770N01217493EA0141801497000012000000
B1335135206702N01217575EA0141201491000008000000
B1335175206636N01217656EA0140801489000008000000
B1335215206573N01217735EA0140701491000012000000
B1335255206512N01217815EA0140601484000008000000
B1335295206451N01217903EA0139901478000008000000
B1335335206389N01217987EA0139201472000008000000
B1335375206321N01218060EA0138701467000008000000
B1335415206250N01218120EA0138101459000004000000
B1335455206176N01218176EA0137401450000008000000
B1335495206099N01218229EA0136801444000008000000
B1335535206024N01218285EA0136201438000008000000
B1335575205952N01218351EA0135801440000012000000
B1336015205886N01218423EA0136001439000012000000
B1336055205827N01218504EA0135901439000012000000
B1336095205780N01218605EA0135801439000012000000
B1336135205739N01218709EA0135901441000012000000
B1336175205699N01218814EA0135601433000012000000
B1336215205662N01218926EA0134601419000012000000
B1336255205624N01219043EA0133501413000012000000
B1336295205587N01219160EA0133201415000012000000
B1336335205548N01219273EA0133801425000012000000
B1336375205509N01219375EA0134901436000012000000
B1336415205467N01219473EA0135401436000012000000
B1336455205427N01219568EA0135501439000012000000
B1336495205387N01219665EA0134901449000012000000
B1336535205351N01219756EA0135801464000012000000
B1336575205322N01219845EA0137201470000012000000
B1337015205290N01219931EA0137401464000012000000
B1337055205246N01220006EA0136301452000012000000
B1337095205198N01220087EA0134901433000012000000
B1337135205154N01220187EA0134001419000012000000
B1337175205112N01220297EA0133201413000012000000
B1337215205068N01220405EA0133001410000012000000
B1337255205023N01220516EA0133001414000012000000
B1337295204984N01220618EA0134101429000012000000
B1337335204943N01220725EA0133301400000012000000
B1337375204896N01220842EA0131301387000012000000
B1337415204848N01220960EA0130601384000012000000
B1337455204803N01221078EA0130401384000012000000
B1337495204755N01221193EA0130301381000012000000
B1337535204707N01221307EA0129801372000012000000
B1337575204653N01221423EA0128601357000012000000
B1338015204596N01221539EA0127001344000012000000
B1338055204538N01221653EA0126001334000012000000
B1338095204474N01221760EA0125001329000012000000
B1338135204409N01221861EA0124801327000012000000
B1338175204347N01221957EA0124901333000012000000
B1338215204287N01222051EA0125201331000012000000
B1338255204231N01222143EA0125001333000012000000
B1338295204174N01222220EA0125601339000012000000
B1338335204110N01222280EA0125001326000012000000
B1338375204040N01222337EA0123801312000012000000
B1338415203968N01222394EA0123101311000012000000
B1338455203907N01222467EA0123401316000012000000
B1338495203856N01222558EA0123401311000012000000
B1338535203804N01222649EA0122601302000012000000
B1338575203749N01222736EA0122001297000012000000
B1339015203691N01222819EA0121601293000012000000
B1339055203629N01222895EA0121101285000012000000
B1339095203564N01222960EA0120301274000012000000
B1339135203498N01223023EA0119401268000012000000
B1339175203431N01223091EA0118901263000012000000
B1339215203366N01223160EA0118501260000012000000
B1339255203304N01223233EA0118001253000012000000
B1339295203240N01223311EA0117001237000012000000
B1339335203177N01223399EA0115601230000012000000
B1339375203118N01223487EA0115501238000012000000
B1339415203056N01223534EA0116501247000012000000
B1339455202993N01223525EA0117201253000012000000
B1339495202935N01223506EA0117401257000012000000
B1339535202878N01223513EA0116701255000012000000
B1339575202822N01223552EA0116001245000012000000
B1340015202777N01223629EA0114801233000012000000
B1340055202742N01223724EA0114201228000008000000
B1340095202714N01223829EA0113801226000008000000
B1340135202679N01223928EA0113601223000008000000
B1340175202634N01224009EA0113201218000008000000
B1340215202580N01224065EA0112801212000008000000
B1340255202519N01224105EA0112001202000008000000
B1340295202459N01224159EA0111001196000008000000
B1340335202406N01224234EA0110501189000008000000
B1340375202360N01224322EA0110501185000008000000
B1340415202320N01224421EA0110701185000012000000
B1340455202281N01224520EA0110601180000012000000
B1340495202241N01224621EA0110001175000008000000
B1340535202192N01224712EA0109201163000008000000
B1340575202134N01224793EA0108001151000004000000
B1341015202070N01224865EA0107001141000008000000
B1341055202007N01224939EA0106101131000008000000
B1341095201943N01225017EA0105401127000008000000
B1341135201883N01225099EA0104901120000008000000
B1341175201825N01225184EA0104301114000008000000
B1341215201767N01225274EA0103701109000008000000
B1341255201714N01225368EA0103301105000008000000
B1341295201665N01225467EA0103001103000008000000
B1341335201618N01225566EA0102701100000012000000
B1341375201571N01225661EA0102401098000012000000
B1341415201523N01225753EA0102101091000008000000
B1341455201472N01225840EA0101401084000008000000
B1341495201420N01225933EA0100801083000008000000
B1341535201375N01226030EA0101201090000012000000
B1341575201340N01226135EA0102001101000008000000
B1342015201308N01226237EA0103201112000008000000
B1342055201273N01226321EA0103701112000008000000
B1342095201233N01226411EA0102101086000008000000
B1342135201185N01226507EA0100201072000012000000
B1342175201133N01226600EA0099801071000008000000
B1342215201085N01226691EA0099701071000008000000
B1342255201037N01226778EA0099601068000012000000
B1342295200986N01226863EA0099001059000012000000
B1342335200931N01226943EA0098001048000012000000
B1342375200870N01227017EA0096801034000012000000
B1342415200805N01227090EA0095501020000012000000
B1342455200740N01227165EA0094701017000012000000
B1342495200677N01227237EA0094201011000012000000
B1342535200618N01227309EA0094301020000012000000
B1342575200573N01227387EA0095001026000012000000
B1343015200527N01227454EA0094901018000012000000
B1343055200470N01227495EA0094301015000012000000
B1343095200410N01227528EA0094401020000012000000
B1343135200353N01227542EA0095101024000012000000
B1343175200296N01227543EA0094801017000008000000
B1343215200236N01227550EA0094101011000012000000
B1343255200172N01227559EA0094201021000012000000
B1343295200112N01227575EA0094801037000012000000
B1343335200068N01227633EA0096101044000008000000
B1343375200097N01227744EA0096401049000008000000
B1343415200176N01227736EA0097501067000008000000
B1343455200190N01227634EA0099101073000008000000
B1343495200133N01227603EA0099201078000008000000
B1343535200107N01227695EA0101001100000008000000
B1343575200161N01227777EA0102401110000008000000
B1344015200229N01227736EA0103301121000008000000
B1344055200227N01227633EA0103901124000008000000
B1344095200175N01227619EA0104801139000012000000
B1344135200153N01227711EA0105801145000012000000
B1344175200201N01227802EA0106501156000008000000
B1344215200274N01227777EA0107601162000008000000
B1344255200284N01227675EA0107901167000008000000
B1344295200237N01227637EA0108901179000004000000
B1344335200201N01227710EA0109701181000004000000
B1344375200232N01227819EA0109901188000004000000
B1344415200307N01227835EA0111101199000004000000
B1344455200357N01227758EA0112101209000008000000
B1344495200348N01227666EA0112401208000008000000
B1344535200294N01227647EA0112701218000012000000
B1344575200267N01227731EA0113901228000008000000
B1345015200311N01227823EA0114401228000008000000
B1345055200388N01227810EA0114601236000008000000
B1345095200422N01227714EA0115601243000008000000
B1345135200388N01227637EA0115901245000008000000
B1345175200336N01227675EA0116801260000008000000
B1345215200346N01227781EA0118401271000008000000
B1345255200419N01227827EA0118901278000008000000
B1345295200479N01227757EA0119901290000008000000
B1345335200475N01227658EA0120601293000008000000
B1345375200422N01227638EA0121001298000004000000
B1345415200404N01227734EA0121501305000004000000
B1345455200465N01227810EA0122701323000004000000
B1345495200534N01227763EA0124401334000004000000
B1345535200543N01227659EA0124801335000004000000
B1345575200493N01227619EA0125201344000004000000
B1346015200461N01227698EA0126101352000008000000
B1346055200504N01227792EA0127101363000008000000
B1346095200579N01227775EA0128301372000008000000
B1346135200610N01227676EA0129101382000008000000
B1346175200578N01227603EA0129801385000008000000
B1346215200532N01227655EA0130501397000012000000
B1346255200557N01227755EA0131501406000012000000
B1346295200630N01227763EA0132301416000008000000
B1346335200666N01227664EA0133001419000008000000
B1346375200626N01227595EA0133201425000008000000
B1346415200582N01227653EA0134301440000004000000
B1346455200603N01227755EA0135501446000004000000
B1346495200675N01227785EA0136201457000004000000
B1346535200720N01227697EA0136901461000004000000
B1346575200687N01227612EA0136901468000004000000
B1347015200640N01227655EA0138101478000004000000
B1347055200658N01227759EA0138701484000004000000
B1347095200729N01227793EA0140101500000004000000
B1347135200778N01227716EA0141101503000008000000
B1347175200757N01227624EA0141101503000008000000
B1347215200704N01227641EA0141001502000004000000
B1347255200697N01227746EA0141201508000004000000
B1347295200751N01227822EA0142601522000004000000
B1347335200820N01227788EA0143401529000004000000
B1347375200835N01227684EA0143501529000004000000
B1347415200786N01227634EA0143501527000004000000
B1347455200738N01227692EA0143401528000004000000
B1347495200734N01227801EA0144101537000004000000
B1347535200786N01227880EA0145201547000004000000
B1347575200855N01227853EA0145801551000004000000
B1348015200876N01227753EA0146301558000004000000
B1348055200837N01227685EA0146401557000004000000
B1348095200779N01227702EA0146801562000004000000
B1348135200748N01227785EA0147001562000004000000
B1348175200781N01227879EA0146801562000004000000
B1348215200853N01227890EA0147101568000004000000
B1348255200900N01227812EA0148101577000004000000
B1348295200886N01227716EA0148701579000004000000
B1348335200829N01227699EA0148601580000008000000
B1348375200791N01227777EA0148901581000008000000
B1348415200813N01227877EA0148601576000008000000
B1348455200879N01227922EA0148801583000008000000
B1348495200941N01227870EA0149501592000008000000
B1348535200938N01227768EA0150101596000008000000
B1348575200881N01227751EA0150201600000008000000
B1349015200853N01227840EA0151301608000004000000
B1349055200894N01227928EA0151701612000004000000
B1349095200963N01227910EA0152201617000008000000
B1349135200980N01227809EA0152501619000008000000
B1349175200933N01227754EA0153301632000008000000
B1349215200891N01227812EA0153901628000008000000
B1349255200908N01227916EA0152801617000008000000
B1349295200970N01227971EA0153001629000008000000
B1349335201037N01227948EA0154101637000008000000
B1349375201059N01227851EA0154501637000008000000
B1349415201012N01227796EA0154401641000008000000
B1349455200963N01227853EA0154901643000008000000
B1349495200946N01227957EA0154701633000004000000
B1349535200929N01228071EA0154201623000004000000
B1349575200905N01228187EA0153101605000008000000
B1350015200874N01228303EA0151601597000004000000
B1350055200842N01228416EA0150901590000004000000
B1350095200807N01228525EA0150501587000008000000
B1350135200760N01228612EA0150101584000004000000
B1350175200704N01228676EA0149601579000004000000
B1350215200640N01228722EA0149301573000004000000
B1350255200574N01228763EA0148601565000004000000
B1350295200502N01228797EA0147801557000000000000
B1350335200431N01228825EA0147301553000004000000
B1350375200357N01228851EA0146901550000004000000
B1350415200284N01228877EA0146901549000004000000
B1350455200213N01228901EA0146501541000004000000
B1350495200138N01228924EA0145401529000004000000
B1350535200066N01228946EA0144901528000004000000
B1350575159994N01228968EA0144401523000004000000
B1351015159921N01228992EA0143901518000004000000
B1351055159847N01229011EA0143601515000004000000
B1351095159774N01229029EA0143301510000004000000
B1351135159700N01229044EA0142801504000004000000
B1351175159625N01229049EA0141901492000004000000
B1351215159543N01229064EA0140201474000004000000
B1351255159455N01229088EA0139401470000004000000
B1351295159370N01229106EA0139601486000004000000
B1351335159300N01229124EA0141801513000004000000
B1351375159240N01229145EA0143501517000004000000
B1351415159178N01229177EA0142601512000004000000
B1351455159115N01229223EA0142401524000004000000
B1351495159100N01229318EA0143701534000004000000
B1351535159161N01229387EA0143901529000000000000
B1351575159235N01229343EA0143401529000004000000
B1352015159287N01229248EA0144101540000004000000
B1352055159316N01229140EA0145601552000004000000
B1352095159310N01229037EA0146201555000004000000
B1352135159267N01228966EA0146101554000004000000
B1352175159210N01228959EA0146101555000004000000
B1352215159171N01229028EA0145901549000004000000
B1352255159161N01229131EA0145401544000004000000
B1352295159150N01229236EA0145001546000004000000
B1352335159135N01229339EA0145401552000004000000
B1352375159121N01229436EA0146501563000000000000
B1352415159100N01229522EA0146901559000004000000
B1352455159065N01229597EA0145701543000004000000
B1352495159017N01229664EA0144901546000004000000
B1352535158966N01229722EA0145701551000000000000
B1352575158915N01229779EA0145901553000000000000
B1353015158862N01229843EA0145501544000004000000
B1353055158812N01229924EA0145801533000004000000
B1353095158764N01230009EA0144601524000004000000
B1353135158711N01230093EA0143601514000004000000
B1353175158655N01230172EA0142701505000004000000
B1353215158599N01230258EA0141801497000004000000
B1353255158549N01230351EA0141101490000004000000
B1353295158499N01230454EA0140201481000004000000
B1353335158450N01230558EA0139701477000004000000
B1353375158398N01230653EA0139401474000004000000
B1353415158342N01230737EA0138901466000004000000
B1353455158279N01230817EA0138101458000004000000
B1353495158214N01230890EA0137601453000004000000
B1353535158146N01230953EA0137201453000000000000
B1353575158081N01231013EA0137501455000000000000
B1354015158017N01231078EA0137101447000004000000
B1354055157952N01231144EA0136301441000000000000
B1354095157888N01231213EA0135901435000004000000
B1354135157827N01231282EA0135401430000000000000
B1354175157763N01231352EA0134601421000004000000
B1354215157698N01231424EA0133801413000004000000
B1354255157635N01231497EA0133301410000004000000
B1354295157572N01231564EA0133101411000004000000
B1354335157509N01231632EA0133001406000004000000
B1354375157446N01231701EA0132501403000000000000
B1354415157384N01231767EA0132501403000000000000
B1354455157321N01231824EA0132301399000000000000
B1354495157256N01231874EA0131701393000000000000
B1354535157191N01231923EA0130801400000000000000
B1354575157137N01231983EA0131701419000000000000
B1355015157100N01232058EA0133301422000000000000
B1355055157063N01232134EA0132701414000000000000
B1355095157012N01232197EA0132201412000004000000
B1355135156956N01232245EA0132601423000004000000
B1355175156904N01232258EA0133501426000004000000
B1355215156853N01232226EA0132501408000004000000
B1355255156792N01232208EA0130201386000004000000
B1355295156723N01232197EA0129401375000004000000
B1355335156653N01232180EA0129601371000004000000
B1355375156580N01232160EA0128901369000004000000
B1355415156513N01232140EA0129601380000004000000
B1355455156448N01232122EA0129901374000004000000
B1355495156380N01232100EA0129101367000004000000
B1355535156310N01232075EA0127901354000004000000
B1355575156237N01232050EA0126801343000004000000
B1356015156163N01232018EA0125901330000004000000
B1356055156089N01231971EA0124901325000004000000
B1356095156016N01231920EA0124701330000004000000
B1356135155946N01231874EA0125401333000000000000
B1356175155876N01231837EA0125901346000000000000
B1356215155811N01231823EA0127401361000000000000
B1356255155750N01231811EA0127801362000000000000
B1356295155692N01231776EA0127301365000000000000
B1356335155635N01231748EA0127301363000004000000
B1356375155578N01231737EA0126901357000004000000
B1356415155521N01231754EA0125601339000004000000
B1356455155468N01231806EA0124301327000004000000
B1356495155417N01231874EA0123001309000004000000
B1356535155366N01231953EA0121301295000004000000
B1356575155318N01232040EA0121201284000004000000
B1357015155269N01232132EA0120001271000000000000
B1357055155217N01232229EA0118701258000000000000
B1357095155162N01232323EA0118001254000000000000
B1357135155109N01232418EA0117601249000004000000
B1357175155055N01232513EA0116701241000004000000
B1357215155000N01232608EA0116201236000004000000
B1357255154944N01232699EA0115901235000004000000
B1357295154890N01232791EA0116001237000004000000
B1357335154841N01232881EA0116101240000004000000
B1357375154794N01232972EA0116501241000004000000
B1357415154749N01233067EA0115701229000004000000
B1357455154702N01233166EA0114601218000004000000
B1357495154649N01233261EA0113701206000004000000
B1357535154593N01233353EA0112701201000004000000
B1357575154534N01233441EA0112501202000004000000
B1358015154476N01233529EA0112801208000004000000
B1358055154417N01233616EA0113201207000000000000
B1358095154361N01233704EA0112701200000000000000
B1358135154304N01233795EA0112101195000004000000
B1358175154247N01233887EA0111601188000004000000
B1358215154190N01233980EA0110801180000004000000
B1358255154129N01234069EA0110201175000004000000
B1358295154067N01234156EA0109901170000004000000
B1358335154006N01234241EA0109201165000004000000
B1358375153944N01234319EA0108801159000004000000
B1358415153880N01234397EA0107901149000004000000
B1358455153818N01234479EA0107201145000004000000
B1358495153754N01234562EA0106901142000004000000
B1358535153690N01234641EA0106901144000004000000
B1358575153629N01234721EA0107301149000004000000
B1359015153571N01234799EA0106901160000004000000
B1359055153519N01234864EA0108201181000004000000
B1359095153469N01234905EA0110101190000004000000
B1359135153415N01234935EA0109601172000004000000
B1359175153349N01234956EA0107701155000004000000
B1359215153276N01234972EA0107201138000004000000
B1359255153196N01234986EA0105901126000004000000
B1359295153115N01234996EA0105201119000004000000
B1359335153033N01235009EA0104501114000004000000
B1359375152951N01235024EA0104101109000004000000
B1359415152866N01235037EA0103401101000004000000
B1359455152783N01235047EA0102801095000004000000
B1359495152697N01235055EA0101601077000004000000
B1359535152610N01235064EA0100401069000004000000
B1359575152524N01235074EA0100001066000004000000
B1400015152441N01235081EA0099801065000004000000
B1400055152359N01235085EA0099501063000004000000
B1400095152279N01235085EA0099401061000000000000
B1400135152197N01235083EA0098901054000004000000
B1400175152115N01235081EA0097901038000004000000
B1400215152029N01235076EA0096301025000004000000
B1400255151945N01235083EA0095201016000004000000
B1400295151859N01235095EA0094101001000004000000
B1400335151772N01235105EA0092700989000004000000
B1400375151683N01235116EA0092200985000004000000
B1400415151596N01235125EA0091600980000004000000
B1400455151508N01235131EA0091200980000004000000
B1400495151425N01235134EA0092400994000004000000
B1400535151343N01235134EA0092800993000004000000
B1400575151262N01235133EA0092901001000004000000
B1401015151189N01235121EA0093701024000004000000
B1401055151127N01235126EA0095201036000004000000
B1401095151072N01235168EA0096101045000004000000
B1401135151053N01235255EA0097201055000004000000
B1401175151094N01235339EA0097501052000004000000
B1401215151165N01235333EA0097401051000004000000
B1401255151210N01235245EA0097301053000004000000
B1401295151214N01235134EA0097101048000004000000
B1401335151180N01235040EA0096901050000004000000
B1401375151128N01234992EA0097401054000004000000
B1401415151074N01234995EA0097401052000004000000
B1401455151031N01235048EA0097301051000004000000
B1401495151011N01235137EA0097101049000004000000
B1401535151019N01235238EA0096801049000004000000
B1401575151067N01235323EA0097601058000004000000
B1402015151137N01235354EA0098301064000004000000
B1402055151202N01235303EA0098701071000004000000
B1402095151218N01235202EA0099501074000004000000
B1402135151179N01235137EA0099401075000004000000
B1402175151128N01235144EA0099701076000004000000
B1402215151087N01235196EA0099501076000004000000
B1402255151068N01235282EA0100001084000004000000
B1402295151085N01235375EA0100801093000004000000
B1402335151142N01235420EA0101401095000004000000
B1402375151205N01235363EA0101301096000004000000
B1402415151209N01235261EA0101801102000004000000
B1402455151167N01235199EA0102201105000004000000
B1402495151113N01235191EA0102701117000004000000
B1402535151063N01235203EA0104001124000004000000
B1402575151010N01235224EA0103701114000004000000
B1403015150947N01235255EA0103001108000004000000
B1403055150882N01235287EA0102801091000004000000
B1403095150814N01235326EA0101601081000004000000
B1403135150743N01235367EA0100501070000004000000
B1403175150672N01235407EA0099301057000004000000
B1403215150598N01235450EA0098001044000004000000
B1403255150524N01235490EA0096801032000004000000
B1403295150448N01235529EA0095901020000004000000
B1403335150373N01235571EA0094601005000004000000
B1403375150296N01235615EA0093300996000004000000
B1403415150222N01235657EA0092700990000004000000
B1403455150148N01235696EA0092000987000004000000
B1403495150074N01235722EA0092400993000004000000
B1403535150000N01235744EA0092700996000004000000
B1403575149928N01235774EA0092800993000004000000
B1404015149853N01235800EA0092300988000004000000
B1404055149779N01235818EA0091900982000004000000
B1404095149703N01235822EA0091200974000004000000
B1404135149627N01235817EA0090100962000000000000
B1404175149547N01235813EA0089400958000000000000
B1404215149469N01235815EA0089300959000004000000
B1404255149394N01235830EA0089400961000000000000
B1404295149322N01235846EA0089800965000000000000
B1404335149254N01235874EA0089600959000004000000
B1404375149182N01235902EA0088700950000000000000
B1404415149108N01235928EA0088100939000004000000
B1404455149033N01235954EA0086900927000000000000
B1404495148958N01235983EA0085800918000000000000
B1404535148886N01236009EA0085000912000004000000
B1404575148814N01236023EA0084800912000004000000
B1405015148744N01236031EA0084400908000004000000
B1405055148674N01236028EA0084100903000004000000
B1405095148602N01236025EA0083400896000000000000
B1405135148532N01236032EA0082800887000000000000
B1405175148461N01236054EA0081900877000004000000
B1405215148389N01236087EA0080900866000004000000
B1405255148318N01236126EA0079900857000004000000
B1405295148246N01236170EA0078700845000004000000
B1405335148173N01236213EA0077800835000004000000
B1405375148099N01236253EA0077000826000004000000
B1405415148026N01236292EA0075900816000004000000
B1405455147954N01236322EA0075400815000004000000
B1405495147883N01236347EA0075200811000004000000
B1405535147814N01236369EA0074600801000004000000
B1405575147743N01236389EA0073600790000000000000
B1406015147669N01236408EA0072500781000000000000
B1406055147596N01236428EA0071400772000004000000
B1406095147523N01236447EA0070900767000004000000
B1406135147450N01236464EA0070600764000004000000
B1406175147380N01236480EA0070200762000004000000
B1406215147313N01236499EA0070000755000004000000
B1406255147245N01236521EA0069200748000004000000
B1406295147176N01236543EA0068500741000004000000
B1406335147105N01236564EA0067800732000000000000
B1406375147034N01236586EA0067200729000004000000
B1406415146966N01236608EA0067000725000004000000
B1406455146895N01236625EA0066800729000004000000
B1406495146826N01236630EA0067500735000004000000
B1406535146758N01236639EA0068100744000004000000
B1406575146696N01236656EA0068700767000008000000
B1407015146643N01236684EA0070100770000008000000
B1407055146587N01236693EA0070100773000008000000
B1407095146534N01236715EA0070700777000008000000
B1407135146485N01236763EA0070800777000012000000
B1407175146429N01236790EA0070900786000008000000
B1407215146374N01236779EA0072000795000008000000
B1407255146336N01236710EA0072600795000012000000
B1407295146351N01236607EA0072200790000008000000
B1407335146421N01236563EA0071800788000008000000
B1407375146490N01236608EA0072500803000008000000
B1407415146521N01236699EA0073800811000008000000
B1407455146509N01236798EA0073500805000012000000
B1407495146470N01236883EA0073700813000012000000
B1407535146414N01236910EA0074700821000012000000
B1407575146375N01236841EA0075000825000012000000
B1408015146407N01236749EA0075400832000012000000
B1408055146475N01236747EA0076200838000012000000
B1408095146516N01236833EA0076700843000012000000
B1408135146500N01236929EA0077400850000008000000
B1408175146444N01236962EA0077400845000008000000
B1408215146399N01236898EA0077600852000008000000
B1408255146397N01236797EA0078600864000012000000
B1408295146449N01236734EA0079600872000012000000
B1408335146513N01236775EA0079700872000008000000
B1408375146538N01236876EA0079800878000008000000
B1408415146504N01236959EA0080500884000008000000
B1408455146447N01236954EA0080700883000008000000
B1408495146416N01236864EA0080700886000008000000
B1408535146443N01236763EA0081800901000008000000
B1408575146511N01236745EA0082800904000008000000
B1409015146565N01236824EA0082700906000008000000
B1409055146566N01236933EA0083500915000008000000
B1409095146518N01236997EA0084200921000012000000
B1409135146464N01236955EA0084400923000012000000
B1409175146429N01236862EA0084800928000012000000
B1409215146368N01236851EA0085400937000012000000
B1409255146344N01236948EA0086700950000012000000
B1409295146395N01237029EA0087700958000012000000
B1409335146466N01237006EA0088600965000012000000
B1409375146486N01236906EA0089000973000012000000
B1409415146440N01236847EA0090000982000012000000
B1409455146392N01236897EA0090900992000012000000
B1409495146392N01237000EA0091900997000012000000
B1409535146451N01237066EA0092301004000012000000
B1409575146517N01237024EA0093001011000012000000
B1410015146520N01236924EA0093401013000012000000
B1410055146468N01236881EA0093901020000012000000
B1410095146420N01236936EA0094801030000012000000
B1410135146429N01237041EA0095501034000012000000
B1410175146494N01237088EA0096201044000012000000
B1410215146548N01237022EA0096501043000012000000
B1410255146534N01236923EA0096901049000012000000
B1410295146477N01236901EA0097501057000012000000
B1410335146438N01236977EA0098301063000012000000
B1410375146457N01237079EA0098901068000012000000
B1410415146525N01237120EA0099301073000012000000
B1410455146585N01237062EA0099901078000012000000
B1410495146586N01236958EA0099801077000012000000
B1410535146533N01236915EA0100301086000012000000
B1410575146485N01236975EA0101201093000012000000
B1411015146486N01237080EA0101701098000012000000
B1411055146539N01237145EA0102201105000012000000
B1411095146611N01237135EA0102401104000012000000
B1411135146656N01237054EA0102901113000012000000
B1411175146639N01236963EA0103301111000012000000
B1411215146581N01236942EA0103201116000012000000
B1411255146537N01237007EA0104101125000008000000
B1411295146552N01237107EA0104801132000008000000
B1411335146620N01237139EA0105101131000008000000
B1411375146677N01237072EA0105201137000012000000
B1411415146670N01236975EA0105801141000012000000
B1411455146615N01236948EA0105801141000012000000
B1411495146576N01237023EA0106201148000012000000
B1411535146604N01237119EA0106901153000012000000
B1411575146674N01237149EA0107001155000012000000
B1412015146743N01237115EA0107901164000012000000
B1412055146765N01237022EA0108301162000012000000
B1412095146720N01236962EA0107901163000008000000
B1412135146668N01237005EA0108301169000008000000
B1412175146673N01237107EA0109201177000012000000
B1412215146741N01237150EA0109501178000012000000
B1412255146800N01237085EA0109901187000012000000
B1412295146799N01236984EA0110601189000012000000
B1412335146743N01236953EA0110301188000012000000
B1412375146702N01237027EA0110901196000012000000
B1412415146728N01237127EA0111701204000012000000
B1412455146799N01237150EA0112401208000012000000
B1412495146854N01237078EA0112901215000012000000
B1412535146842N01236979EA0113201215000012000000
B1412575146786N01236967EA0113201217000012000000
B1413015146763N01237057EA0113701224000012000000
B1413055146804N01237146EA0114301228000012000000
B1413095146878N01237166EA0114501233000012000000
B1413135146941N01237102EA0115201239000012000000
B1413175146947N01236998EA0115601244000012000000
B1413215146897N01236951EA0116101247000012000000
B1413255146855N01237018EA0116401252000012000000
B1413295146880N01237119EA0117101261000012000000
B1413335146947N01237153EA0118001268000008000000
B1413375147007N01237089EA0118201269000012000000
B1413415147010N01236985EA0118701275000008000000
B1413455146962N01236935EA0119201279000012000000
B1413495146914N01236984EA0119301283000008000000
B1413535146915N01237087EA0120001290000008000000
B1413575146967N01237163EA0120301290000012000000
B1414015147041N01237174EA0120601296000008000000
B1414055147101N01237113EA0121401304000012000000
B1414095147112N01237011EA0121701303000012000000
B1414135147068N01236945EA0121301301000012000000
B1414175147010N01236967EA0121501306000012000000
B1414215146984N01237059EA0122401316000012000000
B1414255147002N01237161EA0123001322000012000000
B1414295147064N01237214EA0123801328000012000000
B1414335147136N01237183EA0124101332000012000000
B1414375147164N01237087EA0124701338000012000000
B1414415147142N01236996EA0124601335000012000000
B1414455147089N01236944EA0124201329000012000000
B1414495147027N01236925EA0124701328000012000000
B1414535146960N01236923EA0124501320000012000000
B1414575146890N01236925EA0123501307000012000000
B1415015146813N01236923EA0122501300000012000000
B1415055146734N01236922EA0122001296000012000000
B1415095146654N01236922EA0121201287000012000000
B1415135146572N01236925EA0121001287000012000000
B1415175146494N01236929EA0120801285000012000000
B1415215146414N01236935EA0120401279000012000000
B1415255146335N01236941EA0120001277000012000000
B1415295146257N01236948EA0119701275000012000000
B1415335146180N01236946EA0119801277000012000000
B1415375146106N01236944EA0120001281000008000000
B1415415146039N01236950EA0120801289000008000000
B1415455145972N01236951EA0121001292000012000000
B1415495145906N01236944EA0121201290000012000000
B1415535145838N01236937EA0120801287000012000000
B1415575145768N01236935EA0120601279000012000000
B1416015145697N01236927EA0119601274000012000000
B1416055145625N01236903EA0119101281000012000000
B1416095145567N01236862EA0120501300000012000000
B1416135145512N01236823EA0121101298000012000000
B1416175145455N01236797EA0120601290000012000000
B1416215145395N01236803EA0119501276000012000000
B1416255145331N01236829EA0118501257000012000000
B1416295145263N01236863EA0117701247000012000000
B1416335145188N01236898EA0116501233000012000000
B1416375145112N01236938EA0115001222000012000000
B1416415145034N01236983EA0114301215000012000000
B1416455144957N01237029EA0113701210000012000000
B1416495144882N01237080EA0113301208000008000000
B1416535144806N01237133EA0113001202000012000000
B1416575144731N01237183EA0112301195000012000000
B1417015144654N01237228EA0111701187000012000000
B1417055144576N01237275EA0110801180000012000000
B1417095144501N01237322EA0110501178000008000000
B1417135144428N01237373EA0110201176000008000000
B1417175144358N01237427EA0109701166000008000000
B1417215144284N01237478EA0108801159000008000000
B1417255144211N01237527EA0107901160000008000000
B1417295144145N01237586EA0108301167000008000000
B1417335144077N01237622EA0108901178000008000000
B1417375144012N01237640EA0109701181000008000000
B1417415143944N01237656EA0109001167000012000000
B1417455143874N01237679EA0107201153000012000000
B1417495143801N01237712EA0105701137000012000000
B1417535143730N01237754EA0104901125000012000000
B1417575143656N01237798EA0104301109000012000000
B1418015143579N01237842EA0103401104000012000000
B1418055143508N01237891EA0103001101000012000000
B1418085143456N01237934EA0102601094000008000000
B1418135143370N01238011EA0101901086000012000000
B1418175143301N01238072EA0101101081000012000000
B1418215143231N01238121EA0101001079000012000000
B1418255143158N01238151EA0100601074000012000000
B1418295143084N01238177EA0100001069000012000000
B1418335143010N01238207EA0099901069000012000000
B1418375142934N01238241EA0100001072000012000000
B1418415142865N01238274EA0100801092000008000000
B1418455142800N01238294EA0101901107000012000000
B1418495142739N01238285EA0102401102000008000000
B1418535142677N01238274EA0101701097000008000000
B1418575142613N01238275EA0101101089000008000000
B1419015142551N01238310EA0101201080000008000000
B1419055142494N01238368EA0100301068000008000000
B1419095142438N01238445EA0098701048000008000000
B1419135142380N01238530EA0097201035000008000000
B1419175142321N01238609EA0096101025000008000000
B1419215142257N01238680EA0095201018000008000000
B1419255142192N01238745EA0094801011000008000000
B1419295142128N01238808EA0094201005000008000000
B1419335142066N01238877EA0093000992000008000000
B1419375142010N01238964EA0092000984000008000000
B1419415141962N01239063EA0091300974000008000000
B1419455141919N01239171EA0090500969000012000000
B1419495141876N01239277EA0089900962000012000000
B1419535141827N01239377EA0089500961000012000000
B1419575141772N01239462EA0089400963000012000000
B1420015141715N01239533EA0089700962000012000000
B1420055141652N01239590EA0089300959000012000000
B1420095141584N01239624EA0089200956000012000000
B1420135141511N01239641EA0087500954000012000000
B1420175141439N01239644EA0087800961000012000000
B1420215141372N01239636EA0088300961000012000000
B1420255141308N01239620EA0088400963000012000000
B1420295141251N01239645EA0088800966000012000000
B1420335141213N01239727EA0088800967000012000000
B1420375141209N01239828EA0089100970000012000000
B1420415141247N01239913EA0089500973000012000000
B1420455141309N01239936EA0090100980000012000000
B1420495141360N01239880EA0091000988000012000000
B1420535141369N01239785EA0091000982000012000000
B1420575141333N01239711EA0090400981000012000000
B1421015141277N01239681EA0090500981000008000000
B1421055141216N01239684EA0090400981000012000000
B1421095141155N01239696EA0090400981000012000000
B1421135141092N01239705EA0090600984000012000000
B1421175141032N01239724EA0091000992000012000000
B1421215140979N01239761EA0092201002000012000000
B1421255140953N01239841EA0093001005000012000000
B1421295140992N01239925EA0092701005000012000000
B1421335141054N01239896EA0093201015000012000000
B1421375141066N01239796EA0094001019000012000000
B1421415141015N01239743EA0094201020000012000000
B1421455140966N01239791EA0094901035000008000000
B1421495140974N01239888EA0095801036000008000000
B1421535141038N01239930EA0095901042000012000000
B1421575141088N01239862EA0097301056000012000000
B1422015141070N01239771EA0097901058000012000000
B1422055141014N01239767EA0098301065000012000000
B1422095140996N01239862EA0098901073000012000000
B1422135141044N01239940EA0099401075000012000000
B1422175141113N01239921EA0100001086000008000000
B1422215141136N01239824EA0101101095000012000000
B1422255141095N01239759EA0101601095000012000000
B1422295141040N01239796EA0101501097000012000000
B1422335141036N01239896EA0102601111000012000000
B1422375141091N01239958EA0103301113000012000000
B1422415141153N01239914EA0103901121000012000000
B1422455141153N01239815EA0104401126000012000000
