AZAN5KP ZANDER/SDI GP941 V2.11
HFDTE160813
HFFXA050
HFPLT Pilot             :MARIO KIESSLING AK                      
HFGTY Glider type       :                                        
HFGID Glider ID         :          
HFDTM100 GPS Datum      :WGS84
HFRFW Firmware Version  :11
HFRHW Hardware version  :2
HFFTY FR Type           :ZANDER/SDI GP941
HFGPS                   :Garmin,GPS25,12,30000
HFPRS Press Alt Sensor  :Intersema,MS5534A,10000
HFCCL Competition Class :                                        
HFCID Competition ID    :          
I023638IAS3941ENL
J020810WDI1113WVE
LZAN 114906 PowerOn
C250512093744250512000102
C4837916N00925750E HAHNWEIDEK  
C4837416N00939150E AP3GRUEBIN  
C5036633N01038766E SUHLBABDR   
C4907516N01259100E ARNBRUCK    
C4837416N00939150E AP3GRUEBIN  
C4837916N00925750E HAHNWEIDEK  
B1149105208570N01240666EV0001500000000000
B1149145208570N01240666EV0001500000000000
B1149185208570N01240666EV0001500000000000
B1149225208570N01240662EA0001500064000008
B1149265208570N01240662EA0001500064000004
B1149275208570N01240662EA0001500064000012
B1149285208570N01240662EA0001500064000008
B1149295208570N01240662EA0001500064000008
B1149305208570N01240662EA0001500064000008
B1149315208570N01240662EA0001500064000008
B1149325208570N01240662EA0001500064000008
B1149335208570N01240662EA0001500064000004
B1149345208570N01240662EA0001500064000008
B1149355208570N01240662EA0001500064000004
B1149365208570N01240662EA0001500064000004
B1149385208570N01240662EA0001500064000004
B1149425208570N01240662EA0001600064000004
B1149465208570N01240662EA0001600072000004
B1149475208570N01240662EA0001600072000004
B1149485208570N01240662EA0001600072000008
B1149495208570N01240662EA0001600072000008
B1149505208570N01240662EA0001600072000008
B1149515208570N01240662EA0001600072000008
B1149525208570N01240662EA0001600072000008
B1149535208570N01240662EA0001600072000008
B1149545208570N01240662EA0001600072000008
B1149555208570N01240666EA0001600072000008
B1149565208570N01240666EA0001600072000004
B1149585208570N01240666EA0001600072000008
B1150005208570N01240666EA0001600072000004
B1150015208570N01240666EA0001600072000004
B1150025208570N01240666EA0001600072000004
B1150035208570N01240666EA0001600072000004
B1150045208570N01240666EA0001600072000004
B1150055208570N01240666EA0001600072000004
B1150065208570N01240666EA0001600072000004
B1150075208570N01240666EA0001600072000004
B1150085208570N01240666EA0001600072000004
B1150095208570N01240666EA0001600072000004
B1150105208570N01240666EA0001600072000000
B1150115208570N01240666EA0001600072000000
B1150145208570N01240666EA0001600072000000
B1150185208570N01240666EA0001600072000000
B1150225208570N01240666EA0001600072000000
B1150265208570N01240666EA0001600072000000
B1150305208570N01240666EA0001600072000000
B1150345208570N01240666EA0001600072000000
B1150385208570N01240666EA0001600064000004
B1150425208570N01240666EA0001600064000000
B1150465208570N01240666EA0001600064000004
B1150505208570N01240666EA0001600064000004
B1150545208570N01240666EA0001600064000004
B1150585208570N01240666EA0001600064000004
B1151025208570N01240666EA0001600064000004
B1151065208570N01240666EA0001600064000004
B1151105208570N01240666EA0001600064000004
B1151145208570N01240666EA0001600064000004
B1151185208570N01240666EA0001600064000004
B1151225208570N01240666EA0001600064000004
B1151265208570N01240666EA0001600064000004
B1151305208570N01240666EA0001600072000004
B1151345208570N01240666EA0001700072000004
B1151385208570N01240666EA0001700072000004
B1151425208570N01240666EA0001700072000020
B1151465208570N01240666EA0001700072000012
B1151505208570N01240666EA0001700072000000
B1151545208570N01240666EA0001700072000008
B1151585208570N01240666EA0001700072000008
B1152025208570N01240666EA0001700064000004
B1152065208570N01240666EA0001700064000000
B1152105208570N01240666EA0001700064000004
B1152145208570N01240662EA0001700064000000
B1152185208570N01240662EA0001700064000000
B1152225208570N01240662EA0001700064000000
B1152265208570N01240662EA0001700064000000
B1152305208570N01240666EA0001700064000000
B1152345208570N01240666EA0001700064000000
B1152385208570N01240666EA0001700064000000
B1152425208570N01240666EA0001700064000000
B1152465208570N01240666EA0001700064000000
B1152505208570N01240666EA0001700064000000
B1152545208570N01240666EA0001700064000000
B1152585208570N01240662EA0001700064000000
B1153025208570N01240666EA0001700064000000
B1153065208570N01240666EA0001700064000000
B1153105208570N01240666EA0001700064000020
B1153145208570N01240666EA0001700064000008
B1153185208570N01240666EA0001700064000020
B1153225208570N01240666EA0001700064000020
B1153265208570N01240666EA0001700064000016
B1153305208570N01240666EA0001700064000016
B1153345208570N01240666EA0001700064000000
B1153385208570N01240666EA0001700064000008
B1153425208570N01240666EA0001700064000004
B1153465208570N01240666EA0001700064000000
B1153505208570N01240666EA0001700064000000
B1153545208570N01240666EA0001700064000000
B1153585208570N01240666EA0001700064000000
B1154025208570N01240666EA0001700064000000
B1154065208570N01240666EA0001700064000004
B1154105208570N01240666EA0001700064000000
B1154145208570N01240666EA0001700064000008
B1154185208570N01240666EA0001700064000008
B1154225208570N01240666EA0001700064000000
B1154265208570N01240666EA0001700064000004
B1154305208570N01240666EA0001700064000008
B1154345208570N01240666EA0001700064000004
B1154385208570N01240666EA0001700064000004
B1154425208570N01240666EA0001700064000008
B1154465208570N01240666EA0001700064000008
B1154505208570N01240666EA0001700064000008
B1154545208570N01240666EA0001700064000004
B1154585208570N01240666EA0001700064000008
B1155025208570N01240666EA0001700064000004
B1155065208570N01240666EA0001700064000004
B1155105208570N01240666EA0001700064000024
B1155145208570N01240666EA0001700064000016
B1155185208570N01240666EA0001600064000016
B1155225208570N01240666EA0001600064000020
B1155265208570N01240666EA0001600064000000
B1155305208570N01240666EA0001600064000008
B1155345208570N01240666EA0001600064000008
B1155385208570N01240666EA0001600064000004
B1155425208570N01240666EA0001600064000004
B1155465208570N01240666EA0001600064000008
B1155505208570N01240666EA0001600064000008
B1155545208570N01240666EA0001600064000008
B1155585208570N01240666EA0001600064000012
B1156025208570N01240666EA0001600064000008
B1156065208570N01240666EA0001600064000012
B1156105208570N01240666EA0001600064000012
B1156145208570N01240666EA0001600064000012
B1156185208570N01240666EA0001600064000012
B1156225208570N01240666EA0001600064000004
B1156265208570N01240666EA0001600064000008
B1156305208570N01240666EA0001600064000004
B1156345208570N01240666EA0001600064000004
B1156385208570N01240666EA0001600072000004
B1156425208570N01240666EA0001600072000004
B1156465208570N01240666EA0001600072000008
B1156505208570N01240666EA0001600072000008
B1156545208570N01240666EA0001600072000000
B1156585208570N01240666EA0001600072000004
B1157025208570N01240666EA0001600064000000
B1157065208570N01240666EA0001600072000000
B1157105208570N01240666EA0001600072000000
B1157145208570N01240666EA0001600064000000
B1157185208570N01240666EA0001600064000000
B1157225208570N01240666EA0001600072000000
B1157265208570N01240666EA0001600072000008
B1157305208570N01240666EA0001600064000004
B1157345208570N01240666EA0001600064000000
B1157385208570N01240666EA0001600064000004
B1157425208570N01240666EA0001600064000000
B1157465208570N01240666EA0001600064000000
B1157505208570N01240666EA0001600064000000
B1157545208570N01240666EA0001600064000000
B1157585208570N01240666EA0001600064000000
B1158025208570N01240666EA0001600064000000
B1158065208570N01240666EA0001600064000000
B1158105208570N01240666EA0001600064000000
B1158145208570N01240666EA0001600072000000
B1158185208570N01240666EA0001600072000000
B1158225208570N01240666EA0001600072000000
B1158265208570N01240666EA0001700072000000
B1158305208570N01240666EA0001700072000000
B1158345208570N01240666EA0001700072000000
B1158385208570N01240666EA0001700072000008
B1158425208570N01240666EA0001700072000004
B1158465208570N01240666EA0001700072000008
B1158505208570N01240666EA0001700072000008
B1158545208570N01240666EA0001700072000008
B1158585208570N01240666EA0001700072000008
B1159025208570N01240666EA0001700072000004
B1159065208570N01240666EA0001700072000008
B1159105208570N01240666EA0001700072000004
B1159145208570N01240666EA0001700072000004
B1159185208570N01240670EA0001700072000004
B1159225208570N01240670EA0001700072000004
B1159265208570N01240670EA0001700072000004
B1159305208570N01240670EA0001700072000004
B1159345208570N01240670EA0001700072000004
B1159385208570N01240670EA0001700072000004
B1159425208570N01240670EA0001700072000004
B1159465208570N01240670EA0001700072000004
B1159505208570N01240670EA0001700072000004
B1159545208570N01240670EA0001700072000004
B1159585208570N01240670EA0001700072000004
B1200025208570N01240670EA0001700072000004
B1200065208570N01240670EA0001700072000000
B1200105208570N01240670EA0001700072000000
B1200145208570N01240670EA0001700072000004
B1200185208570N01240670EA0001900072000000
B1200225208570N01240666EA0001800072000028
B1200265208570N01240666EA0001800072000016
B1200305208570N01240666EA0001800072000000
B1200345208570N01240666EA0001800072000016
B1200385208570N01240666EA0001800072000004
B1200425208570N01240666EA0001800072000000
B1200465208570N01240666EA0001800072000004
B1200505208570N01240666EA0001800072000004
B1200545208570N01240666EA0001800072000000
B1200585208570N01240666EA0001800072000000
B1201025208570N01240666EA0001800072000000
B1201065208570N01240666EA0001800072000000
B1201105208570N01240666EA0001800072000020
B1201145208570N01240666EA0001800072000008
B1201185208570N01240666EA0001800072000024
B1201225208570N01240666EA0001800072000024
B1201265208570N01240666EA0001800072000020
B1201305208570N01240666EA0001800072000024
B1201345208570N01240666EA0001800064000000
B1201385208570N01240666EA0001800064000008
B1201425208570N01240666EA0001800064000004
B1201465208570N01240666EA0001800064000000
B1201505208570N01240666EA0001800064000004
B1201545208570N01240666EA0001800064000004
B1201585208570N01240666EA0001800072000000
B1202025208570N01240666EA0001800072000000
B1202065208570N01240666EA0001800072000012
B1202105208570N01240666EA0001800072000008
B1202145208570N01240666EA0001800072000008
B1202185208570N01240666EA0001800072000008
B1202225208570N01240666EA0001800072000004
B1202265208570N01240666EA0001800072000008
B1202305208570N01240666EA0001800072000004
B1202345208570N01240666EA0001800072000004
B1202385208570N01240666EA0001800072000004
B1202425208570N01240666EA0001800072000004
B1202465208570N01240666EA0001800072000004
B1202505208570N01240666EA0001800072000004
B1202545208570N01240666EA0001800072000044
B1202585208570N01240666EA0001800072000024
B1203025208570N01240666EA0001800072000032
B1203065208570N01240666EA0001800072000040
B1203105208570N01240666EA0001800072000036
B1203145208570N01240666EA0001900072000032
B1203185208570N01240666EA0001900072000036
B1203225208570N01240666EA0001800072000036
B1203265208570N01240666EA0001900072000056
B1203305208570N01240666EA0001900072000048
B1203345208570N01240666EA0001900072000052
B1203385208570N01240666EA0001900072000056
B1203425208570N01240666EA0001900072000052
B1203465208570N01240666EA0001900072000052
B1203505208570N01240666EA0001900072000032
B1203545208570N01240666EA0001900072000040
B1203585208570N01240666EA0001800072000024
B1204025208570N01240666EA0001800072000028
B1204065208570N01240666EA0001800072000056
B1204105208570N01240666EA0001800072000040
B1204145208570N01240666EA0001800072000020
B1204185208570N01240666EA0001800072000040
B1204225208570N01240666EA0001800072000024
B1204265208570N01240666EA0001800072000024
B1204305208570N01240666EA0001800072000000
B1204345208570N01240666EA0001800072000012
B1204385208570N01240666EA0001800072000004
B1204425208575N01240666EA0001800072000000
B1204465208570N01240666EA0001800072000000
B1204505208570N01240666EA0001800072000000
B1204545208570N01240666EA0001800072000000
B1204585208570N01240666EA0001800072000000
B1205025208570N01240666EA0001800072000000
B1205065208570N01240666EA0001800072000000
B1205105208570N01240666EA0001900072000000
B1205145208570N01240666EA0001900072000000
B1205185208570N01240666EA0001900072000000
B1205225208570N01240666EA0001900072000000
B1205265208570N01240666EA0001900072000000
B1205305208570N01240666EA0001900072000000
B1205345208570N01240666EA0001900072000000
B1205385208570N01240666EA0001900072000000
B1205425208570N01240666EA0001900072000000
B1205465208570N01240666EA0001900072000000
B1205505208570N01240666EA0001800072000000
B1205545208570N01240666EA0001800072000000
B1205585208570N01240666EA0001900072000000
B1206025208570N01240666EA0001900072000000
B1206065208570N01240666EA0001900072000000
B1206105208570N01240666EA0001900072000000
B1206145208570N01240666EA0001900072000000
B1206185208570N01240666EA0001900072000000
B1206225208570N01240666EA0001900072000000
B1206265208570N01240666EA0001900072000000
B1206305208570N01240666EA0001900072000004
B1206345208570N01240666EA0001900072000000
B1206385208570N01240666EA0001800072000004
B1206425208570N01240666EA0001800072000004
B1206465208570N01240666EA0001800072000004
B1206505208570N01240666EA0001800072000004
B1206545208570N01240666EA0001800072000004
B1206585208570N01240666EA0001800072000004
B1207025208570N01240666EA0001800072000004
B1207065208570N01240666EA0001800072000004
B1207105208570N01240666EA0001800072000012
B1207145208570N01240666EA0001800072000008
B1207185208570N01240666EA0001800072000028
B1207225208570N01240666EA0001800072000020
B1207265208570N01240666EA0001800072000000
B1207305208575N01240666EA0001800072002016
B1207345208575N01240666EA0001800072000012
B1207385208575N01240666EA0001800072000008
B1207425208575N01240666EA0001800072000028
B1207465208575N01240666EA0001800072000020
B1207505208570N01240666EA0001800072000016
B1207545208575N01240666EA0001800072000024
B1207585208575N01240666EA0001800072000016
B1208025208575N01240666EA0001800072000016
B1208065208575N01240666EA0001800072000008
B1208105208575N01240666EA0001800072000012
B1208145208575N01240666EA0001800072000008
B1208185208575N01240666EA0001800072000008
B1208225208575N01240666EA0001900072000004
B1208265208575N01240666EA0001900072000008
B1208305208575N01240666EA0001800072000004
B1208345208575N01240666EA0001700072000004
B1208385208575N01240666EA0001700072000008
B1208425208575N01240666EA0001700072000008
B1208465208575N01240666EA0001700072000044
B1208505208575N01240666EA0001700072000024
B1208545208575N01240666EA0001700072000012
B1208585208575N01240666EA0001700072000028
B1209025208570N01240662EA0001900072003028
B1209065208566N01240637EA0001900072052020
B1209105208554N01240587EA0002100072063248
B1209145208533N01240516EA0002100072085376
B1209185208512N01240433EA0002100072102360
B1209225208487N01240337EA0002500072115220
B1209265208458N01240229EA0002900080121100
K120926188012
B1209305208425N01240116EA0004300096130160
B1209345208395N01240008EA0005500104124108
B1209385208370N01239900EA0007800120123104
B1209425208337N01239800EA0009200144123064
B1209465208304N01239704EA0010300160125088
K120946166026
B1209505208266N01239604EA0010800160124072
B1209545208225N01239504EA0011200160126068
B1209585208175N01239420EA0012500176125076
B1210025208125N01239345EA0013600192123072
B1210065208066N01239279EA0015500208124076
K121006144047
B1210105208008N01239237EA0016600224121076
B1210145207945N01239204EA0017700232120044
B1210185207879N01239166EA0019600248122060
B1210225207820N01239120EA0022100280120000
B1210265207766N01239070EA0024700304120024
K121026140033
B1210305207708N01239020EA0025900320125012
B1210345207654N01238962EA0026900320122008
B1210385207604N01238908EA0028100344115012
B1210425207554N01238845EA0028900352118012
B1210465207508N01238775EA0029200352120012
K121046170022
B1210505207458N01238708EA0029900360119012
B1210545207400N01238658EA0031100368118008
B1210585207341N01238620EA0031900376114008
B1211025207283N01238600EA0033300392118008
B1211065207212N01238591EA0033700392123008
K121106134038
B1211105207145N01238587EA0035600416117008
B1211145207075N01238591EA0037300432116008
B1211185207004N01238595EA0037800440121012
B1211225206937N01238604EA0039300448119008
B1211265206870N01238604EA0040600464115012
K121126128021
B1211305206808N01238608EA0041900472118012
B1211345206741N01238604EA0042600488117008
B1211385206675N01238591EA0043600496120008
B1211425206612N01238566EA0046300520116008
B1211465206550N01238541EA0048900552114008
K121146202013
B1211505206495N01238516EA0051700576124012
B1211545206437N01238491EA0053200592121008
B1211585206375N01238458EA0054600608118012
B1212025206312N01238420EA0056300616115012
B1212065206245N01238383EA0057400632114012
K121206190017
B1212105206187N01238333EA0057900640115012
B1212145206137N01238283EA0059400656111012
B1212185206083N01238241EA0060100664116012
B1212225206016N01238237EA0060100664126012
B1212265205954N01238304EA0060000664128012
K121226160017
B1212305205920N01238420EA0060900672130008
B1212345205929N01238562EA0061000672130008
B1212385205983N01238683EA0061700680127012
B1212425206066N01238754EA0062700688121008
B1212465206154N01238770EA0063800704118008
K121246160017
B1212505206241N01238741EA0064200704118008
B1212545206325N01238679EA0064300712123008
B1212585206400N01238600EA0065100712116008
B1213025206475N01238537EA0065100720107008
B1213065206554N01238487EA0064000704112008
K121306160017
B1213105206637N01238445EA0064800712111008
B1213145206716N01238437EA0065700728102008
B1213185206791N01238491EA0065700728108008
B1213225206829N01238595EA0067400736101008
B1213265206800N01238687EA0067800744101008
K121326160017
B1213305206745N01238687EA0068000752106008
B1213345206720N01238612EA0067900744096012
B1213385206741N01238504EA0066800728109008
B1213425206800N01238412EA0067900744109008
B1213465206879N01238387EA0068700752099008
K121346190025
B1213505206945N01238445EA0069600760101008
B1213545206970N01238558EA0070400776098008
B1213585206941N01238637EA0070700776103012
B1214025206891N01238625EA0071600784107008
B1214065206879N01238533EA0072400792100008
K121406190028
B1214105206925N01238441EA0072700792105008
B1214145207004N01238425EA0073200800106008
B1214185207062N01238512EA0074000808106008
B1214225207054N01238620EA0074700816105008
B1214265207004N01238658EA0075400824103008
K121426194025
B1214305206962N01238595EA0076500832106012
B1214345206983N01238495EA0077300840101008
B1214385207054N01238441EA0077300840106012
B1214425207133N01238491EA0078200848107012
B1214465207154N01238604EA0079400864105008
K121446190024
B1214505207108N01238666EA0079900872108008
B1214545207066N01238620EA0081200880104012
B1214585207079N01238520EA0081900888101008
B1215025207145N01238466EA0081900888106008
B1215065207225N01238504EA0082800904105008
K121506190024
B1215105207258N01238612EA0084400912102008
B1215145207229N01238704EA0084500912103008
B1215185207175N01238725EA0084600920105008
B1215225207141N01238654EA0086300936105008
B1215265207175N01238562EA0086800944101008
K121526196022
B1215305207254N01238541EA0086400936109008
B1215345207320N01238620EA0087700944112008
B1215385207316N01238733EA0088500960103008
B1215425207270N01238787EA0088500960107012
B1215465207216N01238745EA0090100976109008
K121546198021
B1215505207220N01238650EA0091400984103008
B1215545207283N01238583EA0091500992103008
B1215585207366N01238608EA0091600992110012
B1216025207408N01238712EA0093401008105008
B1216065207387N01238812EA0093701008102012
K121606196022
B1216105207333N01238837EA0093401008107012
B1216145207283N01238783EA0094901016108008
B1216185207283N01238679EA0095501024103008
B1216225207333N01238595EA0095801032103012
B1216265207416N01238595EA0096301040107008
K121626190021
B1216305207466N01238691EA0097701048101012
B1216345207454N01238800EA0097801048104012
B1216385207400N01238837EA0098001048108012
B1216425207358N01238770EA0099201064112012
B1216465207383N01238675EA0100401072105008
K121646196022
B1216505207462N01238641EA0100401080106008
B1216545207529N01238716EA0101301088106012
B1216585207537N01238833EA0102001096107008
B1217025207491N01238891EA0102001096106008
B1217065207437N01238854EA0102301096110008
K121706196021
B1217105207437N01238750EA0103501112104008
B1217145207495N01238670EA0104201112104008
B1217185207579N01238683EA0104601120108012
B1217225207629N01238787EA0105501128104008
B1217265207612N01238891EA0105601128108008
K121726188021
B1217305207558N01238916EA0105601128104008
B1217345207512N01238858EA0105601128109008
B1217385207516N01238754EA0106901144101008
B1217425207575N01238675EA0107301144105008
B1217465207654N01238687EA0107701152105008
K121746186021
B1217505207700N01238783EA0108801160108008
B1217545207687N01238887EA0108901160104008
B1217585207629N01238920EA0109201168106012
B1218025207583N01238866EA0109701168104008
B1218065207583N01238758EA0109701176109008
K121806186019
B1218105207645N01238683EA0110401184105008
B1218145207725N01238708EA0111201184105012
B1218185207758N01238816EA0111901192104008
B1218225207729N01238912EA0112301200106008
B1218265207670N01238904EA0112801208105008
K121826186019
B1218305207650N01238812EA0113301208105012
B1218345207687N01238708EA0113701216106008
B1218385207766N01238679EA0114201216109012
B1218425207833N01238750EA0115301224107012
B1218465207837N01238866EA0116301240107012
K121846184021
B1218505207787N01238920EA0116301240108012
B1218545207737N01238883EA0117201248102012
B1218585207729N01238779EA0117201248108012
B1219025207783N01238691EA0118101256106008
B1219065207866N01238704EA0118701264105008
K121906182020
B1219105207916N01238800EA0119501272105012
B1219145207908N01238912EA0119801272107008
B1219185207870N01238987EA0120201280107012
B1219225207816N01239008EA0121001288103012
B1219265207775N01238945EA0121401296099008
K121926186020
B1219305207783N01238837EA0121401288103008
B1219345207837N01238758EA0122201296102008
B1219385207916N01238750EA0122201304102008
B1219425207979N01238825EA0122601304101008
B1219465208000N01238941EA0122901304103008
K121946188020
B1219505207979N01239041EA0123101312102008
B1219545207933N01239100EA0123201312103008
B1219585207875N01239116EA0123501312105008
B1220025207833N01239058EA0124201328101008
B1220065207829N01238958EA0124601328096008
K122006190019
B1220105207875N01238866EA0124401320106008
B1220145207954N01238845EA0124501320107008
B1220185208020N01238920EA0125501336103008
B1220225208033N01239033EA0125501336103008
B1220265207991N01239108EA0125601336105008
K122026186017
B1220305207937N01239083EA0126001336106008
B1220345207929N01238983EA0126001336107008
B1220385207975N01238895EA0126001344098008
B1220425208054N01238875EA0126001336110008
B1220465208116N01238954EA0126801352100012
K122046190021
B1220505208129N01239066EA0126801344102008
B1220545208095N01239154EA0126801344104008
B1220585208041N01239170EA0126901352101008
B1221025208000N01239108EA0127301352107012
B1221065208008N01239000EA0127601360103008
K122106194019
B1221105208070N01238929EA0127801360103008
B1221145208150N01238958EA0127801360110008
B1221185208183N01239070EA0127901360106008
B1221225208158N01239170EA0127801360107008
B1221265208100N01239191EA0127801360109012
K122126188019
B1221305208054N01239129EA0129001376103008
B1221345208054N01239020EA0129801376106012
B1221385208116N01238954EA0130301384100012
B1221425208195N01238983EA0129801376108012
B1221465208229N01239095EA0130301384105012
K122146186016
B1221505208204N01239195EA0130301384104008
B1221545208150N01239229EA0131201392109008
B1221585208104N01239170EA0132501408102012
B1222025208112N01239066EA0132701408104008
B1222065208183N01239004EA0132801408108012
K122206190016
B1222105208254N01239050EA0132801408103012
B1222145208287N01239162EA0132601408110012
B1222185208262N01239266EA0132601408113012
B1222225208204N01239304EA0133201416112008
B1222265208150N01239266EA0134001424102008
K122226186017
B1222305208129N01239170EA0133601424104012
B1222345208154N01239058EA0134401424105008
B1222385208220N01238991EA0134401424106008
B1222425208300N01239000EA0134401424108008
B1222465208358N01239083EA0134301424106012
K122246180018
B1222505208366N01239204EA0134301424109008
B1222545208329N01239291EA0134101424112008
B1222585208270N01239308EA0135001432108008
B1223025208225N01239241EA0135201432104008
B1223065208229N01239129EA0135601440107008
K122306182017
B1223105208291N01239050EA0136301448103008
B1223145208366N01239066EA0136201440106008
B1223185208416N01239158EA0135901440102008
B1223225208412N01239275EA0135601440106008
B1223265208370N01239354EA0135901440110012
K122326182017
B1223305208312N01239358EA0135901440106008
B1223345208266N01239291EA0135701440106008
B1223385208262N01239179EA0135401432108008
B1223425208300N01239070EA0135401432108008
B1223465208375N01239029EA0135401432108008
K122346186016
B1223505208454N01239054EA0135401432110008
B1223545208508N01239145EA0135301432108008
B1223585208520N01239262EA0135301432105008
B1224025208491N01239362EA0135301432108008
B1224065208433N01239404EA0135501440108008
K122406190016
B1224105208375N01239375EA0135901440108008
B1224145208345N01239275EA0135601440108008
B1224185208370N01239162EA0135501432107008
B1224225208441N01239091EA0135301432105008
B1224265208520N01239075EA0135301432110008
K122426186016
B1224305208604N01239112EA0135301432106008
B1224345208662N01239195EA0135301432109008
B1224385208679N01239316EA0135301432106008
B1224425208650N01239416EA0135301432106008
B1224465208595N01239454EA0135801440104008
K122446186018
B1224505208545N01239408EA0135601440107008
B1224545208533N01239300EA0135801432113008
B1224585208579N01239204EA0136501448110008
B1225025208658N01239175EA0136501448109008
B1225065208733N01239241EA0136801448110008
K122506196019
B1225105208754N01239354EA0137001448108012
B1225145208720N01239450EA0136801448111008
B1225185208658N01239487EA0136701448113008
B1225225208600N01239445EA0136301448112008
B1225265208562N01239350EA0136201448107012
K122526186017
B1225305208566N01239233EA0136201440107008
B1225345208620N01239137EA0135901440110008
B1225385208708N01239112EA0135701440109008
B1225425208783N01239179EA0135301432112008
B1225465208808N01239295EA0135301432110008
K122546172018
B1225505208783N01239404EA0135301432111008
B1225545208729N01239450EA0135301432109008
B1225585208670N01239408EA0135301432110008
B1226025208645N01239308EA0135101432106008
B1226065208670N01239191EA0134401424108008
K122606178018
B1226105208737N01239116EA0133601424115008
B1226145208825N01239108EA0133601416112008
B1226185208895N01239179EA0133601416109008
B1226225208929N01239295EA0133701416110008
B1226265208916N01239416EA0134101424109008
K122626186018
B1226305208870N01239500EA0133601424113008
B1226345208812N01239554EA0133901424113008
B1226385208750N01239604EA0133601416113008
B1226425208687N01239650EA0132201400121008
B1226465208620N01239695EA0131601392125008
K122646188018
B1226505208550N01239733EA0131601400123008
B1226545208483N01239775EA0132101400121008
B1226585208416N01239816EA0131601400122008
B1227025208350N01239858EA0131501392120008
B1227065208283N01239908EA0131101392123008
K122706172014
B1227105208229N01239975EA0130701392122008
B1227145208175N01240045EA0130701384119008
B1227185208129N01240129EA0130101384119008
B1227225208087N01240216EA0129801376117008
B1227265208058N01240320EA0130001384111008
K122726110014
B1227305208050N01240441EA0129301376109008
B1227345208095N01240562EA0129701376119008
B1227385208166N01240633EA0130301384108008
B1227425208245N01240654EA0131401392104008
B1227465208312N01240600EA0132101400103008
K122746106014
B1227505208337N01240495EA0132301408105008
B1227545208308N01240408EA0132101400108008
B1227585208245N01240383EA0131601400106008
B1228025208191N01240433EA0131801400109008
B1228065208166N01240537EA0132301400108008
K122806202019
B1228105208183N01240658EA0132301400109008
B1228145208241N01240750EA0132301400108008
B1228185208320N01240783EA0132301400107008
B1228225208400N01240754EA0132301408105008
B1228265208458N01240670EA0132501408105008
K122826196019
B1228305208470N01240558EA0132701408107008
B1228345208437N01240475EA0132701408106008
B1228385208379N01240454EA0132801408105008
B1228425208325N01240512EA0133201416109008
B1228465208320N01240625EA0134001424106008
K122846190018
B1228505208370N01240712EA0134001424107008
B1228545208450N01240720EA0134601424105008
B1228585208508N01240645EA0134701424105008
B1229025208525N01240533EA0135001432106008
B1229065208495N01240437EA0135101432107008
K122906184015
B1229105208441N01240408EA0134801424105008
B1229145208379N01240441EA0134601424104008
B1229185208345N01240537EA0134701424104008
B1229225208345N01240654EA0134601424107008
B1229265208391N01240762EA0134601432104008
K122926194013
B1229305208462N01240812EA0134701432105008
B1229345208541N01240791EA0134701432107008
B1229385208595N01240712EA0135501432102008
B1229425208608N01240604EA0135501440104008
B1229465208579N01240516EA0135901440108008
K122946200016
B1229505208520N01240504EA0136301448103008
B1229545208470N01240566EA0136601448103008
B1229585208454N01240675EA0136601448104008
B1230025208487N01240787EA0136401448107008
B1230065208562N01240845EA0136401448109008
K123006198017
B1230105208641N01240820EA0136401448109008
B1230145208695N01240737EA0136901456104008
B1230185208704N01240629EA0137101456104008
B1230225208670N01240541EA0137201456108008
B1230265208608N01240525EA0137501456110008
K123026196016
B1230305208554N01240583EA0137901464105008
B1230345208529N01240687EA0137501456106008
B1230385208554N01240808EA0137301456106008
B1230425208620N01240875EA0137201448105008
B1230465208700N01240862EA0136901448108008
K123046196016
B1230505208758N01240787EA0137201448108008
B1230545208783N01240679EA0137401456106008
B1230585208770N01240575EA0137501456106008
B1231025208720N01240508EA0137701456106008
B1231065208658N01240520EA0138001464109008
K123106196014
B1231105208620N01240608EA0138001456107008
B1231145208629N01240725EA0137301456105008
B1231185208687N01240816EA0136901448110008
B1231225208766N01240833EA0136901448103008
B1231265208837N01240779EA0136201440106008
K123126190016
B1231305208870N01240675EA0135701440107008
B1231345208866N01240566EA0136001440107008
B1231385208820N01240491EA0136301440109008
B1231425208762N01240500EA0136901448107008
B1231465208725N01240583EA0136401448105008
K123146192018
B1231505208733N01240704EA0135601432109008
B1231545208787N01240804EA0135401432108008
B1231585208866N01240837EA0135401432105008
B1232025208941N01240800EA0135001432102008
B1232065208991N01240712EA0134901432107008
K123206190019
B1232105209008N01240600EA0135001432105008
B1232145208995N01240495EA0135001432108008
B1232185208954N01240416EA0134801424110008
B1232225208904N01240345EA0134601424114008
B1232265208850N01240287EA0135501440106008
K123226188018
B1232305208795N01240233EA0134901432113008
B1232345208737N01240175EA0134601424114008
B1232385208683N01240116EA0134601432114008
B1232425208629N01240045EA0135001432111008
B1232465208583N01239979EA0135101432111008
K123246124018
B1232505208537N01239908EA0134901432111008
B1232545208491N01239820EA0133401416117008
B1232585208450N01239729EA0132601408122008
B1233025208400N01239637EA0131501400133008
B1233065208350N01239545EA0131501400127008
K123306154025
B1233105208295N01239454EA0130501392129008
B1233145208241N01239362EA0129801384134008
B1233185208187N01239266EA0129801384132008
B1233225208133N01239175EA0129801384126008
B1233265208083N01239087EA0127801368131008
K123326150033
B1233305208020N01238995EA0127201352136008
B1233345207966N01238904EA0128001368132008
B1233385207908N01238825EA0129801376124008
B1233425207845N01238804EA0131401400112008
B1233465207804N01238883EA0131501400106008
K123346142037
B1233505207816N01239004EA0130201384108012
B1233545207883N01239083EA0129001376107008
B1233585207962N01239091EA0128201360108008
B1234025208037N01239054EA0127801360113008
B1234065208091N01238970EA0128001360111008
K123406142037
B1234105208108N01238866EA0128601368107008
B1234145208075N01238775EA0128601368112008
B1234185208020N01238712EA0130401376113008
B1234225207975N01238641EA0131801400108008
B1234265207933N01238562EA0133001416103008
K123426198015
B1234305207904N01238475EA0133001416102008
B1234345207900N01238366EA0132501408104008
B1234385207920N01238245EA0131901400106008
B1234425207979N01238154EA0132101400106008
B1234465208054N01238116EA0133201408105008
K123446198015
B1234505208120N01238170EA0134001424101008
B1234545208129N01238275EA0134101416108012
B1234585208083N01238333EA0135101432103008
B1235025208033N01238295EA0135501432105008
B1235065208025N01238187EA0135501440102008
K123506166020
B1235105208070N01238083EA0136001440105012
B1235145208145N01238066EA0136601448098008
B1235185208204N01238137EA0136401440105012
B1235225208200N01238245EA0136901448108012
B1235265208150N01238291EA0138001456106012
K123526168021
B1235305208108N01238225EA0138301464105012
B1235345208116N01238104EA0138301464108008
B1235385208179N01238029EA0139201472104008
B1235425208258N01238045EA0138801464106008
B1235465208304N01238141EA0138701464110008
K123546168020
B1235505208287N01238245EA0139701472111012
B1235545208233N01238254EA0140101480105008
B1235585208200N01238162EA0140301480106012
B1236025208229N01238041EA0140701488112012
B1236065208308N01238000EA0141301496106012
K123606160021
B1236105208375N01238066EA0141301496109012
B1236145208387N01238179EA0141701496110012
B1236185208345N01238245EA0142701496109012
B1236225208295N01238208EA0143201512102008
B1236265208291N01238095EA0143001504106008
K123626164020
B1236305208350N01238004EA0143001504113012
B1236345208429N01238037EA0143601512105008
B1236385208458N01238141EA0143601512107012
B1236425208437N01238241EA0143401512114012
B1236465208391N01238320EA0144001520113008
K123646166019
B1236505208345N01238391EA0144501520117008
B1236545208308N01238487EA0144701528112008
B1236585208291N01238608EA0144401520125008
B1237025208300N01238741EA0144601520125012
B1237065208341N01238858EA0146601544109008
K123706166018
B1237105208412N01238941EA0147401552110012
B1237145208495N01238962EA0148101560112012
B1237185208570N01238920EA0148401568107008
B1237225208616N01238816EA0148701568111008
B1237265208612N01238704EA0149501576112008
K123726166018
B1237305208562N01238637EA0150201576111008
B1237345208500N01238645EA0151701592107008
B1237385208458N01238725EA0153101608105008
B1237425208458N01238841EA0153301616104008
B1237465208504N01238945EA0153701616108008
K123746194019
B1237505208583N01238987EA0154301624105008
B1237545208658N01238954EA0154601624103008
B1237585208708N01238862EA0154701624105008
B1238025208712N01238754EA0155001632105008
B1238065208670N01238675EA0155001632107008
K123806192018
B1238105208612N01238670EA0155801640109008
B1238145208562N01238733EA0157701656102008
B1238185208541N01238841EA0158601664106008
B1238225208558N01238954EA0158601664104008
B1238265208625N01239033EA0158601672104008
K123826194018
B1238305208700N01239058EA0159101672100008
B1238345208770N01239020EA0159001672098008
B1238385208829N01238941EA0158501664102008
B1238425208858N01238833EA0158601664103008
B1238465208845N01238733EA0158601672104008
K123846192018
B1238505208804N01238654EA0158601664109008
B1238545208745N01238620EA0159901680111008
B1238585208691N01238641EA0161001688105008
B1239025208654N01238729EA0161101688109008
B1239065208654N01238845EA0161201696104008
K123906186020
B1239105208691N01238958EA0161001688106008
B1239145208754N01239050EA0161401696106008
B1239185208833N01239079EA0161601704106008
B1239225208908N01239050EA0161901704103008
B1239265208966N01238970EA0161601704103008
K123926188021
B1239305208987N01238858EA0160901696106008
B1239345208975N01238754EA0160401688107008
B1239385208937N01238662EA0160001680110008
B1239425208891N01238591EA0161101688107008
B1239465208833N01238579EA0161401696112008
K123946186020
B1239505208783N01238637EA0161401696107008
B1239545208758N01238741EA0160801688111008
B1239585208762N01238862EA0160201688107008
B1240025208795N01238975EA0160501688102008
B1240065208862N01239066EA0160501688106008
K124006186020
B1240105208941N01239104EA0161101696105008
B1240145209020N01239079EA0161401696102008
B1240185209079N01239004EA0161401696105008
B1240225209104N01238900EA0161001696105008
B1240265209095N01238791EA0160901688104008
K124026188020
B1240305209066N01238695EA0160901688106008
B1240345209020N01238620EA0161101688107008
B1240385208962N01238591EA0161501696108008
B1240425208904N01238616EA0161501696106008
B1240465208858N01238687EA0161501696104008
K124046190018
B1240505208829N01238791EA0161101696107008
B1240545208825N01238912EA0160801688104008
B1240585208850N01239029EA0159901680107008
B1241025208895N01239133EA0160201688103008
B1241065208966N01239212EA0160501688105008
K124106196018
B1241105209045N01239258EA0160901696104008
B1241145209120N01239262EA0160901696102008
B1241185209200N01239229EA0160001688107008
B1241225209266N01239150EA0158701672115008
B1241265209312N01239045EA0158201664115008
K124126194018
B1241305209325N01238925EA0157901664114008
B1241345209308N01238808EA0156401648121008
B1241385209258N01238708EA0156301640127008
B1241425209195N01238645EA0156801648122008
B1241465209125N01238633EA0157601656116008
K124146194018
B1241505209058N01238662EA0157601656115008
B1241545209000N01238741EA0157601664122008
B1241585208970N01238854EA0157701664118008
B1242025208962N01238983EA0157701664116008
B1242065208987N01239112EA0157201656116008
K124206194018
B1242105209037N01239229EA0157101656116008
B1242145209108N01239316EA0157101656114008
B1242185209191N01239366EA0157501656110008
B1242225209270N01239366EA0157601664107008
B1242265209345N01239320EA0157401656107008
K124226194018
B1242305209408N01239237EA0157101656109008
B1242345209450N01239141EA0157101656107008
B1242385209475N01239033EA0157101656105008
B1242425209475N01238920EA0156201648106008
B1242465209450N01238816EA0156001640112008
K124246194018
B1242505209404N01238733EA0156001640110008
B1242545209354N01238670EA0156001640105008
B1242585209291N01238645EA0155701640107008
B1243025209229N01238654EA0156201648112008
B1243065209170N01238679EA0156801656107008
K124306194018
B1243105209120N01238741EA0156801656103008
B1243145209095N01238841EA0156601656101008
B1243185209100N01238954EA0156601648103008
B1243225209125N01239066EA0156401648102008
B1243265209170N01239170EA0156101648102008
K124326194018
B1243305209237N01239250EA0155501640104008
B1243345209312N01239304EA0154901640103008
B1243385209395N01239329EA0154901640107008
B1243425209475N01239325EA0155101640102008
B1243465209550N01239295EA0155101640100008
K124346194018
B1243505209608N01239220EA0154501632103008
B1243545209637N01239116EA0153601624106008
B1243585209637N01239000EA0153201616108008
B1244025209616N01238895EA0152701616108008
B1244065209583N01238804EA0152401608107008
K124406194018
B1244105209545N01238716EA0152401616105008
B1244145209495N01238654EA0152401616104008
B1244185209437N01238633EA0152401616105008
B1244225209379N01238662EA0152201616104008
B1244265209333N01238737EA0152201616104008
K124426194018
B1244305209308N01238845EA0152101608107008
B1244345209312N01238962EA0152101608105008
B1244385209345N01239070EA0152201616102008
B1244425209404N01239154EA0151901608103008
B1244465209479N01239200EA0151801608105008
K124446194018
B1244505209558N01239191EA0152301608104008
B1244545209625N01239137EA0152801616102008
B1244585209675N01239045EA0152801616106008
B1245025209691N01238937EA0152801616105008
B1245065209679N01238825EA0152801616108008
K124506194018
B1245105209645N01238741EA0152801616107008
B1245145209591N01238691EA0152701616108008
B1245185209529N01238679EA0152801616107008
B1245225209470N01238712EA0152701616107008
B1245265209420N01238783EA0152701616107008
K124526194016
B1245305209387N01238883EA0152101608111008
B1245345209350N01238983EA0151801608112008
B1245385209312N01239087EA0151601600114008
B1245425209279N01239195EA0150801592118008
B1245465209250N01239312EA0150801592118008
K124546194016
B1245505209225N01239437EA0150401592113008
B1245545209212N01239570EA0148801576128008
B1245585209187N01239712EA0146501552143008
B1246025209158N01239862EA0145101536152008
B1246065209129N01240020EA0144401528154008
K124606128006
B1246105209104N01240179EA0144101520154008
B1246145209083N01240333EA0144101528151008
B1246185209062N01240487EA0144101528145008
B1246225209041N01240637EA0143701520143012
B1246265209025N01240791EA0143401520143008
K124626196018
B1246305209008N01240941EA0143001512143012
B1246345208991N01241095EA0142501512144012
B1246385208975N01241245EA0142101504142008
B1246425208958N01241391EA0142101504140008
B1246465208941N01241533EA0142101504136008
K124646200029
B1246505208925N01241670EA0142101504130008
B1246545208912N01241804EA0141701504128008
B1246585208900N01241941EA0141201496130008
B1247025208887N01242079EA0140601496131008
B1247065208866N01242212EA0140201488131008
K124706198032
B1247105208837N01242333EA0140101488128008
B1247145208808N01242462EA0139301480128008
B1247185208779N01242591EA0137901472137008
B1247225208758N01242725EA0137201456139008
B1247265208733N01242858EA0137201456133008
K124726192026
B1247305208712N01242987EA0137201456133008
B1247345208687N01243116EA0137001456130008
B1247385208670N01243245EA0137201456128008
B1247425208654N01243370EA0137401456125008
B1247465208633N01243495EA0136201448129008
K124746192024
B1247505208600N01243620EA0135701440129008
B1247545208570N01243741EA0136801448120008
B1247585208520N01243833EA0138001464113008
B1248025208462N01243879EA0138701472109008
B1248065208395N01243870EA0139801480109008
K124806198034
B1248105208345N01243808EA0141201496107008
B1248145208320N01243708EA0142101504105008
B1248185208312N01243591EA0143001512106008
B1248225208345N01243483EA0144001520102008
B1248265208408N01243433EA0143701520101008
K124826198034
B1248305208487N01243425EA0143401520108008
B1248345208570N01243416EA0143701528107008
B1248385208650N01243441EA0143501520110008
B1248425208700N01243533EA0143401520105008
B1248465208700N01243645EA0143401520108008
K124846198034
B1248505208675N01243745EA0143701528104008
B1248545208633N01243825EA0144001528104008
B1248585208579N01243875EA0144201528104008
B1249025208520N01243900EA0144501536105008
B1249065208454N01243895EA0145901544106008
K124906198034
B1249105208395N01243850EA0147001560104008
B1249145208362N01243762EA0147501560105008
B1249185208358N01243641EA0147501560105008
B1249225208387N01243529EA0147601568106008
B1249265208441N01243445EA0147801568106008
K124926198034
B1249305208520N01243420EA0148301576105008
B1249345208595N01243466EA0148501576107008
B1249385208641N01243562EA0148701576108008
B1249425208650N01243670EA0149501592107008
B1249465208625N01243775EA0150301592103008
K124946166011
B1249505208587N01243854EA0151501608103008
B1249545208525N01243883EA0152301616107008
B1249585208466N01243841EA0153201624104008
B1250025208429N01243750EA0153301632103008
B1250065208416N01243637EA0153301624104008
K125006166012
B1250105208437N01243520EA0153301624103008
B1250145208495N01243441EA0151901608109008
B1250185208570N01243408EA0151601608109008
B1250225208650N01243429EA0152001608105008
B1250265208712N01243504EA0152001608106008
K125026166011
B1250305208741N01243608EA0152301608107008
B1250345208737N01243720EA0152801616106008
B1250385208695N01243808EA0153401624106008
B1250425208637N01243858EA0155001632106008
B1250465208570N01243837EA0155701640103008
K125046170010
B1250505208525N01243770EA0156101648102008
B1250545208495N01243666EA0155701648102008
B1250585208504N01243550EA0154301632107008
B1251025208550N01243450EA0152701616109008
B1251065208620N01243391EA0151201600114008
K125106172010
B1251105208700N01243379EA0150901592114008
B1251145208779N01243416EA0151201592111008
B1251185208841N01243487EA0151401600109008
B1251225208883N01243587EA0152001608103008
B1251265208891N01243704EA0152101608108008
K125126172009
B1251305208875N01243808EA0152801616105008
B1251345208833N01243891EA0152701616103008
B1251385208783N01243958EA0152901616105008
B1251425208725N01244008EA0154301624104008
B1251465208658N01244033EA0154801632103008
K125146172009
B1251505208600N01243995EA0153601616106008
B1251545208562N01243900EA0151801600114008
B1251585208558N01243779EA0150701592111008
B1252025208587N01243658EA0149001576112008
B1252065208633N01243550EA0148001560115008
K125206172009
B1252105208691N01243458EA0147001552111008
B1252145208766N01243404EA0145501536113008
B1252185208850N01243391EA0145301536113008
B1252225208929N01243412EA0146201544105008
B1252265208991N01243470EA0147101552105008
K125226172009
B1252305209025N01243566EA0147901560099008
B1252345209025N01243670EA0147301552102008
B1252385209000N01243775EA0147401560107008
B1252425208983N01243883EA0148601568102008
B1252465208945N01243975EA0149001568101008
K125246172009
B1252505208887N01244045EA0148901568114008
B1252545208816N01244075EA0149001576118008
B1252585208750N01244045EA0149001568115008
B1253025208704N01243966EA0147701560113008
B1253065208691N01243850EA0146501544114008
K125306172009
B1253105208720N01243733EA0145001536113008
B1253145208791N01243662EA0144101520112008
B1253185208875N01243654EA0143601512111008
B1253225208950N01243712EA0143601520110008
B1253265209000N01243800EA0144001520108008
K125326172009
B1253305209025N01243916EA0145101528105008
B1253345209020N01244025EA0146501544104008
B1253385208970N01244091EA0146301544109008
B1253425208908N01244091EA0144901536117008
B1253465208845N01244025EA0143601512127008
K125346180016
B1253505208795N01243929EA0142101504123008
B1253545208770N01243816EA0141701496120008
B1253585208812N01243700EA0140601488120008
B1254025208891N01243650EA0139301472114008
B1254065208975N01243675EA0138601464116012
K125406182016
B1254105209050N01243745EA0138401464113008
B1254145209125N01243820EA0138901472113008
B1254185209175N01243916EA0140901488104008
B1254225209187N01244029EA0142101504104008
B1254265209145N01244108EA0143401512103008
K125426184017
B1254305209083N01244104EA0143401512108008
B1254345209033N01244025EA0142501504113008
B1254385209016N01243908EA0141301496120008
B1254425209037N01243775EA0140201480124008
B1254465209095N01243679EA0140101480118008
K125446186017
B1254505209183N01243662EA0140101480115008
B1254545209270N01243700EA0140301480117008
B1254585209345N01243766EA0141801496114008
B1255025209404N01243862EA0143601512106008
B1255065209425N01243975EA0144701528108008
K125506184018
B1255105209420N01244087EA0145601528105008
B1255145209375N01244154EA0145901536102008
B1255185209316N01244158EA0146401544103008
B1255225209266N01244104EA0146501544102008
B1255265209237N01244004EA0146401544110008
K125526184017
B1255305209241N01243879EA0146901552111008
B1255345209287N01243775EA0147801560107008
B1255385209362N01243729EA0148501568107008
B1255425209441N01243750EA0149501576107008
B1255465209500N01243825EA0150401592101008
K125546178016
B1255505209520N01243937EA0150201584106008
B1255545209520N01244054EA0151201592105008
B1255585209495N01244154EA0151501600102008
B1256025209445N01244216EA0151801600105008
B1256065209383N01244208EA0151901600104008
K125606176014
B1256105209341N01244129EA0151601600108008
B1256145209329N01244012EA0151601600109008
B1256185209362N01243900EA0151601600111008
B1256225209425N01243816EA0151801600113008
B1256265209508N01243775EA0152601608111008
K125626180014
B1256305209587N01243791EA0153701616107008
B1256345209645N01243866EA0153901624105008
B1256385209679N01243975EA0153901624108008
B1256425209679N01244091EA0153801624108008
B1256465209645N01244191EA0153001616114008
K125646176014
B1256505209583N01244245EA0152501608123008
B1256545209508N01244237EA0152501608120008
B1256585209454N01244162EA0152901616114008
B1257025209425N01244050EA0152801608113012
B1257065209429N01243925EA0152701608114008
K125706170014
B1257105209470N01243816EA0152801608115008
B1257145209541N01243745EA0152801608114008
B1257185209625N01243716EA0152801608115008
B1257225209704N01243754EA0153701616116008
B1257265209754N01243850EA0154401632104008
K125726172013
B1257305209762N01243966EA0154401624107008
B1257345209729N01244062EA0154401624106012
B1257385209670N01244108EA0154401632111008
B1257425209604N01244091EA0154501632110008
B1257465209545N01244025EA0154301624112008
K125746180013
B1257505209512N01243920EA0154001624114008
B1257545209508N01243800EA0153801624108008
B1257585209562N01243704EA0153601616110012
B1258025209641N01243675EA0153601624111008
B1258065209720N01243687EA0153801624107008
K125806180013
B1258105209795N01243741EA0154101624107008
B1258145209850N01243833EA0155001632105008
B1258185209866N01243945EA0155301640101008
B1258225209845N01244054EA0154101624108008
B1258265209800N01244137EA0153801624113008
K125826180013
B1258305209737N01244175EA0154101624108008
B1258345209670N01244162EA0154101624105008
B1258385209616N01244104EA0153301616108008
B1258425209587N01243995EA0152701608113008
B1258465209608N01243879EA0151901608112008
K125846186012
B1258505209658N01243783EA0151601600108008
B1258545209725N01243725EA0151201600112008
B1258585209804N01243679EA0152301608106008
B1259025209883N01243662EA0152901616104008
B1259065209958N01243700EA0153101616105008
K125906184012
B1259105210008N01243795EA0153101616107008
B1259145210016N01243908EA0153101616105008
B1259185209987N01244000EA0153401616102008
B1259225209937N01244062EA0152701616105008
B1259265209870N01244083EA0152301608113008
K125926176013
B1259305209804N01244070EA0152101608107008
B1259345209745N01244016EA0151901600109008
B1259385209708N01243920EA0150601592111008
B1259425209704N01243804EA0149101576111008
B1259465209741N01243695EA0147801560110008
K125946174013
B1259505209804N01243608EA0147801560111008
B1259545209870N01243545EA0148701576106008
B1259585209945N01243508EA0149301576104008
B1300025210025N01243508EA0149801584104008
B1300065210095N01243562EA0150301592103008
K130006172013
B1300105210133N01243666EA0149901584105008
B1300145210120N01243779EA0149701584107008
B1300185210079N01243862EA0149301576112008
B1300225210016N01243870EA0149501584109008
B1300265209966N01243800EA0150201584107008
K130026172015
B1300305209954N01243683EA0151201592108008
B1300345209991N01243575EA0151801600107008
B1300385210066N01243520EA0152601608105012
B1300425210141N01243558EA0152801616108008
B1300465210179N01243662EA0152901616104008
K130046168015
B1300505210154N01243762EA0152401608107008
B1300545210095N01243808EA0152101600110008
B1300585210029N01243783EA0152601608110008
B1301025209983N01243695EA0153101616108008
B1301065209983N01243575EA0153001616108008
K130106160013
B1301105210033N01243479EA0152801608113008
B1301145210112N01243445EA0152701608112008
B1301185210191N01243491EA0152701608112008
B1301225210237N01243591EA0153301624109008
B1301265210229N01243700EA0153701624109008
K130126162012
B1301305210183N01243766EA0154101632108008
B1301345210120N01243745EA0154501632104008
B1301385210087N01243654EA0154701632107008
B1301425210100N01243537EA0154701632106012
B1301465210150N01243445EA0154601632107008
K130146170015
B1301505210225N01243400EA0154601632104008
B1301545210308N01243404EA0154601632106008
B1301585210366N01243475EA0154301632103008
B1302025210383N01243587EA0153201624110008
B1302065210362N01243695EA0153201624113008
K130206166015
B1302105210320N01243775EA0153601624107008
B1302145210262N01243812EA0154201624107012
B1302185210200N01243779EA0154501632107008
B1302225210162N01243695EA0154501632104008
B1302265210158N01243579EA0153601624107008
K130226166014
B1302305210191N01243466EA0153001616114008
B1302345210262N01243404EA0152401608112008
B1302385210345N01243412EA0152201608109008
B1302425210412N01243470EA0152301616108008
B1302465210454N01243570EA0152601616104008
K130246170013
B1302505210470N01243683EA0152801616103008
B1302545210445N01243783EA0152101608110008
B1302585210395N01243841EA0152401608106008
B1303025210333N01243850EA0152401608108008
B1303065210279N01243795EA0152801616106008
K130306176014
B1303105210258N01243691EA0152401616105008
B1303145210275N01243575EA0151401600104008
B1303185210329N01243483EA0150601592110008
B1303225210408N01243441EA0150401592106008
B1303265210487N01243450EA0151001600104008
K130326174015
B1303305210558N01243500EA0151401608102008
B1303345210600N01243600EA0151401608103008
B1303385210616N01243712EA0151101600102008
B1303425210600N01243816EA0150301592106008
B1303465210554N01243891EA0150201592110008
K130346176016
B1303505210500N01243933EA0150701600108008
B1303545210437N01243933EA0150901600105008
B1303585210383N01243879EA0150901592105008
B1304025210350N01243783EA0150701592105008
B1304065210358N01243670EA0149701584105008
K130406170015
B1304105210412N01243575EA0148901576110008
B1304145210491N01243537EA0149001576110008
B1304185210570N01243570EA0149201584109008
B1304225210616N01243666EA0150301592108008
B1304265210612N01243770EA0150801600101008
K130426166014
B1304305210562N01243825EA0150301592105008
B1304345210500N01243804EA0150201592105008
B1304385210458N01243720EA0150601600103008
B1304425210458N01243600EA0149901592106008
B1304465210500N01243491EA0149001576113008
K130446160014
B1304505210579N01243445EA0149201584110008
B1304545210658N01243479EA0149501584106008
B1304585210708N01243570EA0149501592108008
B1305025210720N01243683EA0149801592105012
B1305065210695N01243779EA0149601584106008
K130506162015
B1305105210637N01243825EA0149001576109008
B1305145210570N01243808EA0148601576109008
B1305185210520N01243729EA0148501576115008
B1305225210487N01243620EA0146901560119008
B1305265210466N01243491EA0145101544130008
K130526168014
B1305305210450N01243354EA0144601528130008
B1305345210433N01243216EA0144001528133008
B1305385210425N01243075EA0144001528131008
B1305425210416N01242941EA0143801528131012
B1305465210412N01242804EA0143001520130008
K130546168014
B1305505210408N01242666EA0142701520129008
B1305545210404N01242529EA0142501520129008
B1305585210404N01242391EA0142001520127008
B1306025210404N01242254EA0141801520126008
B1306065210404N01242116EA0141701512127008
K130606168046
B1306105210404N01241979EA0141201512127008
B1306145210404N01241841EA0140701504130008
B1306185210400N01241704EA0140201504130008
B1306225210395N01241570EA0140201504130008
B1306265210395N01241437EA0140301504127008
K130626164054
B1306305210391N01241308EA0139801496130008
B1306345210383N01241183EA0139301496128008
B1306385210379N01241058EA0138701480128008
B1306425210375N01240933EA0138201480127008
B1306465210383N01240808EA0138201480125012
K130646172047
B1306505210400N01240687EA0138201480124008
B1306545210420N01240562EA0138201480121008
B1306585210425N01240441EA0138501480116008
B1307025210416N01240325EA0138901488115008
B1307065210391N01240220EA0139201488110008
K130706178050
B1307105210345N01240137EA0138901480110008
B1307145210283N01240112EA0138201472111008
B1307185210225N01240162EA0139501488105012
B1307225210204N01240266EA0140401488103008
B1307265210241N01240370EA0140701496103008
K130726178050
B1307305210316N01240416EA0140201488106008
B1307345210391N01240379EA0140201488106008
B1307385210429N01240270EA0140401488104008
B1307425210420N01240162EA0140701496105008
B1307465210375N01240091EA0140701488105008
K130746182014
B1307505210312N01240075EA0140901496109008
B1307545210262N01240125EA0142001504103008
B1307585210250N01240233EA0142201512101008
B1308025210287N01240333EA0142301512102008
B1308065210358N01240387EA0142301512104012
K130806180016
B1308105210437N01240366EA0142601512105008
B1308145210487N01240279EA0143101512103008
B1308185210500N01240166EA0143201520105008
B1308225210470N01240075EA0143201520104008
B1308265210416N01240025EA0143701520105008
K130826182015
B1308305210358N01240033EA0144601536099008
B1308345210320N01240108EA0144901536098008
B1308385210316N01240225EA0144101528106008
B1308425210362N01240329EA0144201528106008
B1308465210437N01240370EA0145001536105008
K130846182014
B1308505210512N01240350EA0145001536101008
B1308545210570N01240266EA0145001536104008
B1308585210579N01240150EA0145301536107008
B1309025210550N01240050EA0145301536109008
B1309065210500N01239991EA0145901544106008
K130906182014
B1309105210441N01240004EA0146001544104008
B1309145210400N01240083EA0145501544107008
B1309185210395N01240204EA0145301536107008
B1309225210437N01240312EA0145301536110008
B1309265210504N01240375EA0145701544108008
K130926182015
B1309305210583N01240379EA0145701544102008
B1309345210650N01240320EA0145701544108008
B1309385210687N01240216EA0145901544106008
B1309425210683N01240100EA0145901544106008
B1309465210641N01240025EA0145901544110008
K130946184015
B1309505210579N01240012EA0146101544105008
B1309545210533N01240070EA0146001544104008
B1309585210516N01240187EA0145801544106008
B1310025210545N01240304EA0145401536107008
B1310065210612N01240379EA0145701544104008
K131006190016
B1310105210687N01240395EA0146401552102008
B1310145210754N01240333EA0146501552102008
B1310185210770N01240225EA0146301544102008
B1310225210745N01240120EA0145901544108008
B1310265210687N01240091EA0146201544109008
K131026188017
B1310305210641N01240166EA0146401544106008
B1310345210645N01240283EA0146401544108008
B1310385210695N01240379EA0146501544106008
B1310425210775N01240412EA0147001552104008
B1310465210845N01240370EA0147401552102008
K131046180018
B1310505210883N01240266EA0146901552100008
B1310545210870N01240158EA0146301544106008
B1310585210825N01240083EA0145401536111008
B1311025210762N01240058EA0145501536110008
B1311065210700N01240066EA0145301528111008
K131106182017
B1311105210633N01240087EA0143701520117008
B1311145210558N01240104EA0142901512123008
B1311185210483N01240125EA0142101504130008
B1311225210404N01240141EA0141801504128008
B1311265210329N01240162EA0141001496131008
K131126182017
B1311305210258N01240183EA0141001488129008
B1311345210183N01240200EA0140601488126008
B1311385210112N01240195EA0139601480126008
B1311425210033N01240200EA0138401464129008
B1311465209958N01240212EA0138101464131008
K131146158019
B1311505209879N01240233EA0137901464128008
B1311545209804N01240270EA0138501472126008
B1311585209741N01240312EA0139701480119008
B1312025209675N01240366EA0140601488121008
B1312065209620N01240437EA0141301496112008
K131206100023
B1312105209570N01240508EA0141701496111008
B1312145209512N01240575EA0142001504114008
B1312185209454N01240608EA0143601520107008
B1312225209404N01240566EA0144901528100008
B1312265209395N01240470EA0145101536097008
K131226130010
B1312305209445N01240383EA0145101528107008
B1312345209525N01240370EA0145901544102008
B1312385209583N01240450EA0147101552104008
B1312425209587N01240562EA0147701560105008
B1312465209541N01240625EA0147901560107008
K131246130010
B1312505209491N01240583EA0148001568104008
B1312545209491N01240479EA0148601568105008
B1312585209537N01240383EA0149001568108008
B1313025209616N01240366EA0150301576106012
B1313065209675N01240445EA0150801592103008
K131306188021
B1313105209679N01240558EA0151201592105012
B1313145209633N01240629EA0151101592106012
B1313185209570N01240612EA0151501600111012
B1313225209541N01240525EA0152001608104012
B1313265209562N01240412EA0151901600108012
K131326186016
B1313305209629N01240337EA0152401608107012
B1313345209708N01240325EA0153601616103008
B1313385209770N01240387EA0154801632100008
B1313425209795N01240495EA0155301640101008
B1313465209770N01240595EA0155301640102008
K131346186018
B1313505209720N01240654EA0155301640110008
B1313545209658N01240641EA0156201648104008
B1313585209625N01240554EA0155701640107008
B1314025209645N01240441EA0155701640109008
B1314065209708N01240362EA0156101648106008
K131406184017
B1314105209787N01240350EA0157001656105008
B1314145209858N01240404EA0158401672101008
B1314185209891N01240512EA0159101680100008
B1314225209875N01240620EA0159101680108008
B1314265209820N01240675EA0159501680112008
K131426188018
B1314305209762N01240645EA0159601688111008
B1314345209741N01240545EA0159501680111008
B1314385209770N01240433EA0159501680108012
B1314425209837N01240366EA0159601688108008
B1314465209920N01240362EA0160901696108008
K131446190021
B1314505209991N01240420EA0162101704102008
B1314545210016N01240533EA0162401712101008
B1314585209991N01240637EA0162401712110008
B1315025209929N01240662EA0162301712114008
B1315065209879N01240591EA0162401712118008
K131506190021
B1315105209887N01240470EA0162901712113012
B1315145209950N01240383EA0162901720106008
B1315185210033N01240370EA0163601720108012
B1315225210108N01240425EA0165101736102012
B1315265210137N01240537EA0165401744101012
K131526188023
B1315305210125N01240645EA0165301744103012
B1315345210083N01240737EA0164801736109008
B1315385210033N01240795EA0164501728110008
B1315425209970N01240770EA0164401728110008
B1315465209933N01240687EA0164901736107008
K131546190021
B1315505209925N01240579EA0163901728108008
B1315545209958N01240466EA0163301720106008
B1315585210029N01240400EA0163301720106008
B1316025210112N01240370EA0163601720104008
B1316065210195N01240379EA0164601736105008
K131606188021
B1316105210262N01240450EA0165301744104008
B1316145210270N01240566EA0165501744104008
B1316185210225N01240645EA0165201736112008
B1316225210158N01240645EA0165001736119012
B1316265210104N01240587EA0166501744113008
K131626180021
B1316305210087N01240479EA0166801752110012
B1316345210125N01240370EA0166601752111012
B1316385210204N01240316EA0167001760107012
B1316425210287N01240329EA0167901768105012
B1316465210350N01240408EA0168901776103012
K131646182021
B1316505210370N01240520EA0169001784102012
B1316545210362N01240637EA0169001776101008
B1316585210329N01240733EA0168701776106008
B1317025210270N01240766EA0168501776109008
B1317065210212N01240737EA0168901776107008
K131706188019
B1317105210179N01240650EA0169101776105008
B1317145210191N01240541EA0168201776106008
B1317185210237N01240450EA0168701776102012
B1317225210308N01240395EA0169001784101008
B1317265210391N01240408EA0169701784106008
K131726192019
B1317305210437N01240495EA0170501792101008
B1317345210429N01240604EA0170301792100008
B1317385210379N01240683EA0169301784108008
B1317425210312N01240716EA0169201784117008
B1317465210250N01240683EA0170301792112008
K131746188016
B1317505210229N01240579EA0169301784114008
B1317545210254N01240470EA0169401784107008
B1317585210312N01240387EA0169301784101008
B1318025210391N01240345EA0169001776106008
B1318065210470N01240354EA0169601784106008
K131806188016
B1318105210533N01240420EA0169601784103008
B1318145210558N01240533EA0169301784107008
B1318185210537N01240641EA0169301784106008
B1318225210495N01240725EA0168201768108008
B1318265210445N01240816EA0167701768114008
K131826188016
B1318305210404N01240920EA0167801768113008
B1318345210366N01241029EA0167901768113008
B1318385210329N01241137EA0169001776109008
B1318425210300N01241241EA0169201784105008
B1318465210275N01241358EA0168301768110008
K131846172008
B1318505210241N01241475EA0167701768114008
B1318545210195N01241570EA0167201760116008
B1318585210125N01241591EA0167001760120008
B1319025210070N01241541EA0167001760111008
B1319065210037N01241450EA0166601752111008
K131906208016
B1319105210037N01241329EA0165801744118008
B1319145210066N01241200EA0164701736125008
B1319185210116N01241079EA0163901728126008
B1319225210179N01240970EA0163301720124008
B1319265210254N01240879EA0162001704135008
K131926208016
B1319305210337N01240804EA0161601704134008
B1319345210420N01240733EA0161401704128012
B1319385210504N01240658EA0161101696128008
B1319425210579N01240566EA0160501688126012
B1319465210654N01240479EA0160601696125012
K131946204020
B1319505210729N01240391EA0161601704122008
B1319545210795N01240295EA0162201712119008
B1319585210850N01240179EA0160901696126008
B1320025210895N01240041EA0159801680136008
B1320065210937N01239895EA0158801672140008
K132006174018
B1320105210975N01239745EA0157901664139008
B1320145211012N01239591EA0156101648148012
B1320185211050N01239429EA0154601632155008
B1320225211091N01239262EA0154101624158008
B1320265211129N01239100EA0154301632156008
K132026182036
B1320305211166N01238941EA0154401632156012
B1320345211204N01238783EA0154801632151008
B1320385211241N01238633EA0154801640149012
B1320425211275N01238479EA0153501624152012
B1320465211312N01238316EA0152101608161012
K132046184050
B1320505211350N01238150EA0151801600162012
B1320545211383N01237983EA0150401592163012
B1320585211416N01237812EA0149701584160012
B1321025211450N01237641EA0149401576159012
B1321065211475N01237470EA0149401584153012
K132106182053
B1321105211495N01237300EA0148201568159012
B1321145211512N01237125EA0147401560161012
B1321185211529N01236950EA0147001560158012
B1321225211541N01236779EA0146901552158012
B1321265211554N01236608EA0146901552158012
K132126174057
B1321305211570N01236441EA0146601552158012
B1321345211587N01236279EA0147301552155028
B1321385211600N01236125EA0148301568145020
B1321425211608N01235970EA0147701560150000
B1321465211612N01235816EA0148001568145016
K132146174061
B1321505211629N01235658EA0146901560149012
B1321545211654N01235500EA0145601544148008
B1321585211683N01235337EA0145301536148012
B1322025211716N01235175EA0144101528150012
B1322065211745N01235004EA0142501504157012
K132206176043
B1322105211779N01234833EA0141501496166012
B1322145211808N01234662EA0141501504157012
B1322185211837N01234491EA0140701496159012
B1322225211870N01234325EA0140101488160028
B1322265211904N01234154EA0138801472169020
K132226176049
B1322305211933N01233983EA0138401472170016
B1322345211962N01233820EA0139501480161024
B1322385211991N01233658EA0138801472166016
B1322425212020N01233491EA0138701472164016
B1322465212054N01233325EA0137901464161016
K132246186050
B1322505212083N01233150EA0137601456167016
B1322545212112N01232970EA0137501456162016
B1322585212133N01232787EA0136901456169016
B1323025212154N01232604EA0136501448170016
B1323065212175N01232420EA0136801456167016
K132306178047
B1323105212195N01232245EA0136201448171016
B1323145212216N01232066EA0135001432170016
B1323185212237N01231883EA0133901424170016
B1323225212262N01231704EA0133001408173016
B1323265212287N01231525EA0132501408174016
K132326178048
B1323305212312N01231350EA0132501408170016
B1323345212333N01231179EA0132601408168016
B1323385212354N01231008EA0133501416164016
B1323425212366N01230845EA0136601456142000
B1323465212362N01230712EA0140801496120008
K132346172076
B1323505212325N01230625EA0142801512102012
B1323545212266N01230645EA0143101512110008
B1323585212254N01230754EA0143401520106012
B1324025212300N01230854EA0143701520104012
B1324065212375N01230883EA0143701520107012
K132406172077
B1324105212445N01230820EA0145001528108012
B1324145212466N01230708EA0145701544103008
B1324185212429N01230620EA0145901544106008
B1324225212370N01230625EA0146601552109008
B1324265212345N01230725EA0146901552105008
K132426180016
B1324305212383N01230837EA0146501544109008
B1324345212462N01230879EA0146601552109008
B1324385212541N01230841EA0147801560110008
B1324425212595N01230750EA0148101568104008
B1324465212620N01230633EA0147301552119012
K132446180017
B1324505212633N01230495EA0145101536136008
B1324545212641N01230345EA0143601520144008
B1324585212645N01230183EA0142601512149008
B1325025212645N01230016EA0141801496156012
B1325065212645N01229845EA0140201488161008
K132506180017
B1325105212641N01229675EA0139301472162012
B1325145212641N01229504EA0139201472164012
B1325185212645N01229337EA0139701480155012
B1325225212645N01229175EA0138901464159012
B1325265212650N01229008EA0138201464162012
K132526172058
B1325305212650N01228845EA0137501456159012
B1325345212650N01228675EA0136401448161012
B1325385212654N01228508EA0135901440163012
B1325425212658N01228337EA0134901424161012
B1325465212662N01228166EA0134101416162012
K132546176049
B1325505212670N01228000EA0134101416156012
B1325545212683N01227829EA0133401408162012
B1325585212695N01227662EA0132501400162012
B1326025212704N01227495EA0131901400160012
B1326065212708N01227329EA0131101392157012
K132606176051
B1326105212716N01227162EA0129901376162012
B1326145212720N01226995EA0129301368163012
B1326185212729N01226829EA0128801368160012
B1326225212733N01226666EA0128201360157012
B1326265212737N01226500EA0126601344157012
K132626176053
B1326305212741N01226329EA0125601328163012
B1326345212745N01226158EA0125201328162012
B1326385212750N01225983EA0124001312169028
B1326425212754N01225800EA0122101296172020
B1326465212758N01225616EA0120901280174016
K132646176042
B1326505212766N01225425EA0120501280171024
B1326545212779N01225237EA0120001272172016
B1326585212795N01225045EA0119401264177016
B1327025212808N01224862EA0119001264173016
B1327065212820N01224683EA0118101256172016
K132706172051
B1327105212816N01224500EA0117201248171016
B1327145212808N01224325EA0116901240172016
B1327185212795N01224150EA0116601232174000
B1327225212787N01223975EA0116301232168008
B1327265212775N01223808EA0115701232166012
K132726168064
B1327305212754N01223645EA0115601232159008
B1327345212737N01223487EA0115601232158028
B1327385212716N01223329EA0115601232158020
B1327425212691N01223175EA0115901232156000
B1327465212675N01223020EA0115601232156016
K132746164055
B1327505212658N01222862EA0114701224160012
B1327545212650N01222700EA0114401216159008
B1327585212645N01222541EA0114101216154012
B1328025212641N01222379EA0113801208159012
B1328065212641N01222225EA0117201240146012
K132806168045
B1328105212654N01222104EA0121601296106012
B1328145212666N01222000EA0120801296107012
B1328185212679N01221870EA0117601248136012
B1328225212695N01221716EA0116101232143008
B1328265212716N01221562EA0115301224152008
K132826174036
B1328305212741N01221404EA0115401232149024
B1328345212762N01221254EA0117501248135016
B1328385212783N01221112EA0119601264130000
B1328425212800N01220987EA0123101304106012
B1328465212775N01220900EA0124601328103012
K132846172052
B1328505212725N01220916EA0124601320103008
B1328545212712N01221020EA0124101320103008
B1328585212758N01221120EA0124501320113008
B1329025212833N01221158EA0126601344106012
B1329065212883N01221079EA0127501352103008
K132906172052
B1329105212866N01220975EA0128601360108012
B1329145212812N01220945EA0129401376106012
B1329185212770N01221020EA0130001376106012
B1329225212787N01221129EA0130301384105012
B1329265212850N01221204EA0132101392110008
K132926184013
B1329305212916N01221166EA0133501408102008
B1329345212933N01221058EA0133701416106008
B1329385212891N01220987EA0135301432107008
B1329425212837N01221029EA0135601432109008
B1329465212833N01221141EA0136501448107008
K132946184014
B1329505212883N01221225EA0137201448107008
B1329545212958N01221216EA0138301464104008
B1329585213004N01221125EA0138901464107012
B1330025212991N01221020EA0140401480107008
B1330065212937N01220991EA0141201496102008
K133006178013
B1330105212895N01221066EA0141101488108008
B1330145212916N01221175EA0141801496108008
B1330185212983N01221225EA0143001512105008
B1330225213050N01221175EA0143701520105008
B1330265213062N01221062EA0144501528108008
K133026174014
B1330305213016N01221000EA0145901536109008
B1330345212962N01221045EA0146501544102008
B1330385212962N01221154EA0146501544109008
B1330425213025N01221225EA0147301552109008
B1330465213095N01221195EA0148401568107008
K133046176013
B1330505213129N01221091EA0149001576107008
B1330545213091N01221000EA0149301576109008
B1330585213029N01221016EA0150501584106008
B1331025213004N01221116EA0151001592106008
B1331065213045N01221220EA0151201592111008
K133106174012
B1331105213120N01221237EA0152601608104008
B1331145213179N01221170EA0153701624105008
B1331185213175N01221058EA0153901624107008
B1331225213112N01221025EA0154701632111008
B1331265213070N01221095EA0155701640104008
K133126182012
B1331305213075N01221208EA0156101648105008
B1331345213137N01221275EA0157201656107008
B1331385213208N01221229EA0158401672104008
B1331425213220N01221120EA0158801672108008
B1331465213166N01221058EA0159201680111008
K133146188012
B1331505213116N01221120EA0160101688106008
B1331545213116N01221233EA0160101688108008
B1331585213179N01221316EA0160901696110012
B1332025213254N01221300EA0161901704107008
B1332065213300N01221200EA0162601712107008
K133206186013
B1332105213279N01221095EA0163001720106008
B1332145213216N01221062EA0163201720110008
B1332185213170N01221141EA0164001728107008
B1332225213179N01221254EA0164501736107008
B1332265213245N01221316EA0165101736108008
K133226176011
B1332305213316N01221275EA0166001752104008
B1332345213354N01221170EA0165401744116008
B1332385213387N01221029EA0163301720137008
B1332425213416N01220870EA0160901696152008
B1332465213450N01220691EA0159001672161008
K133246180009
B1332505213487N01220508EA0156701656174008
B1332545213533N01220325EA0156201648179012
B1332585213579N01220145EA0156201648172008
B1333025213625N01219970EA0155501640171012
B1333065213675N01219795EA0154801632172012
K133306178049
B1333105213712N01219620EA0154301624171028
B1333145213745N01219445EA0153801624169020
B1333185213783N01219266EA0153001616172000
B1333225213820N01219087EA0152101600174016
B1333265213858N01218904EA0151401600173028
K133326184053
B1333305213895N01218729EA0151401592171016
B1333345213933N01218554EA0150601592168016
B1333385213975N01218383EA0149701576168024
B1333425214025N01218216EA0149001568168000
B1333465214079N01218050EA0147701560176008
K133346184054
B1333505214137N01217887EA0146501544176028
B1333545214195N01217720EA0146101536179016
B1333585214262N01217562EA0147501552165016
B1334025214329N01217420EA0148701576155024
B1334065214391N01217283EA0149701584149000
K133406192063
B1334105214437N01217137EA0150301592149008
B1334145214470N01217000EA0153901624129012
B1334185214508N01216887EA0156101648107008
B1334225214529N01216770EA0155201640115012
B1334265214545N01216641EA0155601640125012
K133426188060
B1334305214566N01216520EA0156201648122008
B1334345214587N01216395EA0156301656118008
B1334385214612N01216266EA0155101632130008
B1334425214654N01216133EA0153201616143008
B1334465214712N01215991EA0152401608145008
K133446190040
B1334505214770N01215854EA0152401608145008
B1334545214829N01215720EA0152801616138012
B1334585214891N01215587EA0153901624134008
B1335025214883N01215454EA0154301624129012
B1335065214812N01215408EA0153201616133012
K133506186038
B1335105214733N01215441EA0151601600140012
B1335145214658N01215512EA0150201584142012
B1335185214575N01215570EA0148801568145008
B1335225214487N01215608EA0148001560153008
B1335265214400N01215637EA0147901560152012
K133526186038
B1335305214312N01215645EA0147901560150008
B1335345214220N01215650EA0146601552149012
B1335385214133N01215654EA0144901536153012
B1335425214041N01215662EA0144401528151012
B1335465213954N01215687EA0144101520153012
K133546164019
B1335505213866N01215716EA0144201528148012
B1335545213783N01215741EA0143801520151012
B1335585213704N01215762EA0143501520148012
B1336025213620N01215779EA0142501512148012
B1336065213541N01215791EA0141501496149012
K133606176020
B1336105213454N01215808EA0140601488149012
B1336145213370N01215825EA0140501488147012
B1336185213291N01215837EA0140501488146012
B1336225213212N01215841EA0140801496138012
B1336265213133N01215845EA0140201488134012
K133626188021
B1336305213045N01215841EA0139601480143012
B1336345212962N01215850EA0138901472151012
B1336385212879N01215854EA0139701480143008
B1336425212800N01215862EA0142001504132008
B1336465212729N01215866EA0143701520118012
K133646166017
B1336505212654N01215866EA0144201520125008
B1336545212587N01215858EA0147001560109008
B1336585212537N01215795EA0148301568101008
B1337025212550N01215687EA0148401568107008
B1337065212620N01215633EA0148701568108008
K133706192014
B1337105212691N01215691EA0149001576102012
B1337145212712N01215808EA0148701568109008
B1337185212675N01215912EA0149801576114008
B1337225212616N01215941EA0150301584110008
B1337265212570N01215866EA0151001592107008
K133726194014
B1337305212587N01215754EA0151501600104008
B1337345212658N01215687EA0151701600110012
B1337385212737N01215716EA0152101608107008
B1337425212783N01215820EA0152401608110008
B1337465212775N01215941EA0153101616109008
K133746188015
B1337505212720N01216008EA0154301624110012
B1337545212662N01215995EA0154801632107008
B1337585212633N01215900EA0155001632106008
B1338025212662N01215787EA0154801632108008
B1338065212737N01215733EA0154801632116008
K133806192015
B1338105212816N01215779EA0154801632113008
B1338145212854N01215904EA0155601640114008
B1338185212837N01216020EA0156201648114008
B1338225212783N01216091EA0157001656113008
B1338265212716N01216100EA0158601672104008
K133826192014
B1338305212654N01216083EA0158801672107008
B1338345212591N01216062EA0159401680108008
B1338385212520N01216041EA0160101688110008
B1338425212454N01216054EA0161101696107008
B1338465212395N01216100EA0163301712098008
K133846194013
B1338505212337N01216141EA0165101736097008
B1338545212287N01216091EA0165401736102008
B1338585212295N01215987EA0165901744100008
B1339025212370N01215941EA0165201736108008
B1339065212437N01216004EA0165901744110008
K133906194013
B1339105212458N01216120EA0167501760104012
B1339145212425N01216220EA0168301768109008
B1339185212362N01216229EA0169001776105008
B1339225212329N01216137EA0170301792110008
B1339265212366N01216045EA0170801800104008
K133926218012
B1339305212445N01216025EA0170801792108008
B1339345212504N01216104EA0171601800110008
B1339385212512N01216220EA0172401816106008
B1339425212458N01216295EA0173401816114008
B1339465212400N01216250EA0175101840104008
K133946206012
B1339505212404N01216141EA0175801848107012
B1339545212470N01216079EA0176201856108008
B1339585212541N01216137EA0177301864106012
B1340025212558N01216254EA0178001872105012
B1340065212512N01216333EA0178801880108012
K134006200011
B1340105212454N01216300EA0179601888108012
B1340145212454N01216195EA0180701896106012
B1340185212512N01216129EA0181201904106012
B1340225212587N01216170EA0181301904106012
B1340265212608N01216287EA0181701912109012
K134026202013
B1340305212570N01216387EA0182301912109012
B1340345212508N01216408EA0183301920107012
B1340385212445N01216366EA0184001936108012
B1340425212375N01216337EA0182601920126012
B1340465212291N01216325EA0179601888143008
K134046210010
B1340505212195N01216325EA0177801864156008
B1340545212100N01216316EA0177101864158012
B1340585212008N01216287EA0176601848160008
B1341025211916N01216258EA0175801848158012
B1341065211820N01216229EA0175301840158012
K134106198015
B1341105211729N01216200EA0175001840158028
B1341145211641N01216175EA0175101840152020
B1341185211554N01216154EA0175001840154000
B1341225211466N01216137EA0175001840147016
B1341265211379N01216125EA0175201840142012
K134126150020
B1341305211291N01216133EA0175201840147008
B1341345211200N01216145EA0175001840149012
B1341385211112N01216162EA0174501832149012
B1341425211025N01216183EA0174201832145012
B1341465210937N01216208EA0173301824143012
K134146124024
B1341505210850N01216233EA0171901808153012
B1341545210758N01216262EA0171701808154012
B1341585210670N01216283EA0171101800150012
B1342025210583N01216304EA0170301792148012
B1342065210495N01216320EA0169901792146012
K134206150016
B1342105210412N01216333EA0169101784143012
B1342145210320N01216341EA0168701776145012
B1342185210229N01216354EA0168201768150012
B1342225210137N01216366EA0168301776145028
B1342265210045N01216370EA0168701784138020
K134226166012
B1342305209954N01216383EA0168501776143000
B1342345209866N01216395EA0167401768145016
B1342385209775N01216404EA0166601760143012
B1342425209683N01216412EA0166001752145008
B1342465209595N01216425EA0164801744146012
K134246138009
B1342505209500N01216437EA0164001728147012
B1342545209408N01216458EA0163701728147012
B1342585209320N01216475EA0163801736148012
B1343025209233N01216487EA0165301744139012
B1343065209150N01216500EA0166001752136012
K134306158008
B1343105209070N01216508EA0165801752135012
B1343145208991N01216520EA0164901744138012
B1343185208904N01216533EA0163401728143008
B1343225208816N01216541EA0161901712145008
B1343265208729N01216562EA0161401704148008
K134326162013
B1343305208641N01216595EA0161001704152008
B1343345208558N01216637EA0161101712145012
B1343385208475N01216683EA0161001704148008
B1343425208391N01216733EA0161001704141012
B1343465208312N01216791EA0160301696142012
K134346124018
B1343505208233N01216854EA0159001688144012
B1343545208150N01216920EA0157601664147012
B1343585208066N01216987EA0156901656148012
B1344025207983N01217050EA0156401648146012
B1344065207895N01217108EA0156001648147012
K134406180011
B1344105207812N01217158EA0155701648145012
B1344145207725N01217212EA0155501648145008
B1344185207641N01217266EA0155601648143008
B1344225207562N01217316EA0156001648139012
B1344265207483N01217366EA0155201640139008
K134426212012
B1344305207404N01217420EA0154801632143012
B1344345207325N01217470EA0154501632138012
B1344385207245N01217525EA0152501616145008
B1344425207162N01217587EA0151901608147008
B1344465207079N01217645EA0151301600146012
K134446174010
B1344505207000N01217708EA0151301600144008
B1344545206916N01217770EA0151301600143012
B1344585206837N01217833EA0151301600142012
B1345025206758N01217895EA0150701592145012
B1345065206679N01217958EA0150401592142012
K134506190011
B1345105206600N01218029EA0150101584143012
B1345145206525N01218095EA0149601576145012
B1345185206445N01218162EA0149301576144008
B1345225206366N01218229EA0147901560148008
B1345265206287N01218304EA0147001552148008
K134526168010
B1345305206208N01218387EA0146801552147008
B1345345206137N01218470EA0146301544146012
B1345385206062N01218558EA0145301536147008
B1345425205987N01218641EA0144901536145008
B1345465205912N01218725EA0144601528145008
K134546190011
B1345505205841N01218804EA0144101528145008
B1345545205770N01218891EA0143801520143008
B1345585205700N01218983EA0143501520145012
B1346025205629N01219075EA0143101512141008
B1346065205566N01219166EA0142601512142008
K134606190011
B1346105205500N01219258EA0142101504143008
B1346145205433N01219350EA0141501504139008
B1346185205370N01219445EA0140401488142008
B1346225205304N01219541EA0139201480146012
B1346265205237N01219641EA0138801472148008
K134626192014
B1346305205170N01219737EA0139201480141008
B1346345205100N01219825EA0139401480139008
B1346385205037N01219908EA0140201488131012
B1346425204970N01219991EA0139801480134008
B1346465204900N01220079EA0139101472142008
K134646210017
B1346505204833N01220170EA0139101472139008
B1346545204766N01220266EA0139101472139008
B1346585204708N01220362EA0139501480136008
B1347025204645N01220466EA0138901472138012
B1347065204591N01220570EA0138401464139008
K134706192009
B1347105204529N01220683EA0137301456143012
B1347145204470N01220791EA0136801448143012
B1347185204404N01220895EA0136801448142012
B1347225204341N01221004EA0136301440146012
B1347265204279N01221112EA0136301440142012
K134726210016
B1347305204216N01221220EA0135401432140012
B1347345204150N01221325EA0134301424147012
B1347385204083N01221433EA0133901416147012
B1347425204016N01221533EA0133401416148008
B1347465203945N01221637EA0132901408146008
K134746216021
B1347505203883N01221733EA0132101400143012
B1347545203816N01221833EA0130801384145008
B1347585203745N01221937EA0129601376146008
B1348025203679N01222045EA0128801368150008
B1348065203612N01222145EA0128701368147012
K134806212016
B1348105203545N01222245EA0128201360147008
B1348145203483N01222350EA0128001360144012
B1348185203420N01222450EA0128401368138012
B1348225203358N01222550EA0128801368133012
B1348265203300N01222645EA0128801368138012
K134826208014
B1348305203241N01222750EA0128001360144012
B1348345203179N01222866EA0127001344154012
B1348385203116N01222991EA0126001336157012
B1348425203054N01223120EA0125001328160012
B1348465202995N01223254EA0123801320162012
K134846152006
B1348505202937N01223387EA0123101304161012
B1348545202879N01223529EA0121801296165012
B1348585202820N01223675EA0121501288168012
B1349025202766N01223820EA0120801280165012
B1349065202708N01223966EA0119901272165012
K134906196010
B1349105202645N01224108EA0119001264166012
B1349145202587N01224254EA0118401256168012
B1349185202529N01224395EA0117901256167012
B1349225202475N01224537EA0117901256165012
B1349265202425N01224679EA0117201248165012
K134926204018
B1349305202375N01224825EA0116901248166012
B1349345202333N01224979EA0115601232167012
B1349385202287N01225137EA0114401216169012
B1349425202245N01225300EA0114301216169012
B1349465202208N01225462EA0113801208169012
K134946188013
B1349505202175N01225629EA0113401208169028
B1349545202137N01225791EA0112601200170020
B1349585202104N01225954EA0111901192170000
B1350025202066N01226116EA0111401184168016
B1350065202025N01226275EA0110801184165028
K135006198023
B1350105201979N01226433EA0110701176163016
B1350145201937N01226583EA0110701176163000
B1350185201895N01226733EA0110701176157016
B1350225201854N01226879EA0110101176153012
B1350265201820N01227025EA0109601168153008
K135026206030
B1350305201783N01227170EA0109601168146012
B1350345201750N01227308EA0108901160152012
B1350385201716N01227437EA0108901160142012
B1350425201675N01227562EA0108701160134012
B1350465201633N01227679EA0108401160136012
K135046206039
B1350505201587N01227783EA0110601176123012
B1350545201545N01227866EA0113401200110012
B1350585201525N01227958EA0113801216105012
B1351025201562N01228058EA0113801208107008
B1351065201645N01228075EA0114201224109008
K135106212043
B1351105201708N01228004EA0115901232105008
B1351145201712N01227891EA0116601240109008
B1351185201662N01227854EA0117901256103008
B1351225201625N01227920EA0117601256104008
B1351265201637N01228033EA0117601248111012
K135126168022
B1351305201691N01228120EA0118201256111008
B1351345201770N01228145EA0119901272106008
B1351385201833N01228079EA0120801288105008
B1351425201845N01227975EA0121601288103008
B1351465201800N01227912EA0122601296105008
K135146174021
B1351505201754N01227950EA0123301312103012
B1351545201750N01228045EA0123701312107008
B1351585201800N01228129EA0124601320101012
B1352025201879N01228125EA0125101328106012
B1352065201933N01228041EA0125201328106012
K135206168019
B1352105201937N01227929EA0126001336107012
B1352145201891N01227870EA0127301344104008
B1352185201845N01227916EA0127801352107008
B1352225201845N01228016EA0128301368105008
B1352265201895N01228100EA0129201368103008
K135226170021
B1352305201975N01228104EA0129501376108008
B1352345202029N01228016EA0129801376104008
B1352385202029N01227904EA0130301384110008
B1352425201987N01227845EA0131201392110008
B1352465201933N01227883EA0131401392108008
K135246172021
B1352505201908N01227979EA0131801400111008
B1352545201929N01228087EA0133101408103008
B1352585201991N01228158EA0133201416101008
B1353025202075N01228162EA0133901416109008
B1353065202133N01228083EA0134401424108008
K135306180022
B1353105202133N01227975EA0134901424108008
B1353145202087N01227929EA0135301432105008
B1353185202029N01227950EA0134801424115008
B1353225201966N01228000EA0133401416129008
B1353265201895N01228045EA0132901408134008
K135326182022
B1353305201820N01228050EA0132901408133008
B1353345201745N01228041EA0133701416129008
B1353385201675N01228033EA0135901432119008
B1353425201608N01228020EA0136301448116008
B1353465201545N01228008EA0135901448120008
K135346200029
B1353505201475N01227987EA0133901424136008
B1353545201395N01227979EA0132701408144008
B1353585201316N01227970EA0132101400145008
B1354025201233N01227970EA0131601392143008
B1354065201145N01227966EA0130501384144012
K135406160023
B1354105201058N01227966EA0129601376147008
B1354145200970N01227970EA0129101368148008
B1354185200883N01227987EA0128401368147008
B1354225200800N01228008EA0128201360148012
B1354265200712N01228033EA0128201360145008
K135426126025
B1354305200633N01228050EA0128301360141012
B1354345200550N01228062EA0128401368143012
B1354385200475N01228079EA0128401368137012
B1354425200395N01228095EA0128601368134012
B1354465200320N01228108EA0128201360133012
K135446148018
B1354505200245N01228120EA0127301352139012
B1354545200166N01228141EA0126601344142008
B1354585200087N01228162EA0125601336141008
B1355025200004N01228183EA0124101320146008
B1355065159920N01228204EA0123201312146008
K135506146020
B1355105159837N01228229EA0122701304147012
B1355145159754N01228275EA0121801296148008
B1355185159679N01228350EA0121101288142012
B1355225159616N01228450EA0120801280143012
B1355265159570N01228570EA0120201280140012
K135526118025
B1355305159537N01228708EA0119301272142012
B1355345159508N01228850EA0117901256147012
B1355385159475N01228987EA0116701248146012
B1355425159433N01229120EA0116301240145012
B1355465159391N01229241EA0115301232147012
K135546160021
B1355505159341N01229354EA0114901224139012
B1355545159279N01229445EA0114301216135012
B1355585159204N01229500EA0113801216140012
B1356025159125N01229516EA0113301208139012
B1356065159045N01229512EA0111901200141012
K135606202036
B1356105158962N01229500EA0110501184148012
B1356145158875N01229491EA0109301168148012
B1356185158787N01229479EA0107801152157012
B1356225158695N01229475EA0107701152157012
B1356265158612N01229470EA0107701152152012
K135626188024
B1356305158525N01229462EA0107701152147012
B1356345158445N01229445EA0107701152142012
B1356385158362N01229429EA0107701152139012
B1356425158283N01229441EA0107201144141012
B1356465158204N01229495EA0106001136145012
K135646162018
B1356505158129N01229575EA0105401128150012
B1356545158062N01229666EA0105201128146012
B1356585157995N01229758EA0104101112147012
B1357025157920N01229841EA0103001104149012
B1357065157841N01229908EA0102101096155012
K135706188018
B1357105157762N01229962EA0101701088147008
B1357145157679N01229995EA0101301088146008
B1357185157591N01230016EA0100901080148012
B1357225157508N01230020EA0101601088145008
B1357265157420N01230020EA0101801096142012
K135726230031
B1357305157337N01230016EA0101801096146012
B1357345157254N01230020EA0101701088150012
B1357385157170N01230045EA0102501096145012
B1357425157091N01230083EA0104301112129012
B1357465157025N01230125EA0105601128121012
K135746132014
B1357505156975N01230204EA0106901144109012
B1357545156954N01230312EA0107701152107012
B1357585156991N01230416EA0108301160103008
B1358025157066N01230454EA0108301160110008
B1358065157129N01230395EA0109301168105008
K135806132014
B1358105157137N01230291EA0109801168105008
B1358145157087N01230237EA0110001176107008
B1358185157037N01230291EA0110401176110008
B1358225157037N01230404EA0111601192102008
B1358265157095N01230479EA0111901192104008
K135826196016
B1358305157170N01230466EA0112001192106008
B1358345157216N01230375EA0112501200107008
B1358385157204N01230275EA0112901200105008
B1358425157150N01230237EA0113001208108008
B1358465157095N01230291EA0113401208106008
K135846196014
B1358505157087N01230404EA0114401216104008
B1358545157145N01230491EA0114501216107008
B1358585157220N01230479EA0114701224106008
B1359025157266N01230383EA0114801224109008
B1359065157245N01230279EA0115301224112008
K135906200015
B1359105157191N01230250EA0115801232103008
B1359145157141N01230312EA0115901232109008
B1359185157133N01230429EA0117101240106008
B1359225157191N01230512EA0117001248106008
B1359265157270N01230504EA0117001240109008
K135926200015
B1359305157320N01230412EA0117501248106008
B1359345157320N01230304EA0118201256110008
B1359385157275N01230241EA0118701256107008
B1359425157216N01230270EA0118901264108008
B1359465157200N01230383EA0119501264105008
K135946194016
B1359505157250N01230475EA0119801272105008
B1359545157329N01230491EA0120201272105008
B1359585157391N01230416EA0120401280108008
B1400025157408N01230308EA0121101288106008
B1400065157366N01230241EA0121601296105008
K140006194018
B1400105157308N01230258EA0121901296103008
B1400145157279N01230358EA0122201296109008
B1400185157316N01230466EA0122701304106008
B1400225157391N01230504EA0123501312105008
B1400265157458N01230441EA0124101320104008
K140026194019
B1400305157462N01230337EA0124301320105008
B1400345157412N01230287EA0124301320110008
B1400385157358N01230345EA0124501320108008
B1400425157350N01230462EA0124801328106008
B1400465157404N01230554EA0125201328106008
K140046200019
B1400505157483N01230570EA0125401328104008
B1400545157558N01230516EA0126001336109008
B1400585157608N01230425EA0126601344107008
B1401025157645N01230325EA0126901352103008
B1401065157654N01230212EA0126601344109008
K140106194021
B1401105157641N01230104EA0127101352112004
B1401145157608N01230016EA0127801360106008
B1401185157554N01229987EA0127801360103008
B1401225157495N01230025EA0127801352106008
B1401265157466N01230125EA0128001360107008
K140126192018
B1401305157491N01230237EA0128301360102008
B1401345157554N01230304EA0128401360105008
B1401385157633N01230291EA0128801368104008
B1401425157679N01230195EA0129501376102008
B1401465157658N01230095EA0129501376107008
K140146190016
B1401505157595N01230079EA0129801376105008
B1401545157558N01230166EA0130301376108008
B1401585157587N01230270EA0130601384106008
B1402025157662N01230312EA0131101384105008
B1402065157733N01230262EA0131801392106008
K140206178014
B1402105157766N01230158EA0132501400103008
B1402145157750N01230054EA0133101408103008
B1402185157695N01230008EA0132901408108008
B1402225157633N01230037EA0133201408103008
B1402265157600N01230133EA0133501408110008
K140226174011
B1402305157625N01230241EA0133901416104008
B1402345157695N01230308EA0134001416106008
B1402385157775N01230295EA0135201432107008
B1402425157820N01230204EA0135501432102008
B1402465157804N01230100EA0135901440107008
K140246184012
B1402505157750N01230075EA0136901448103008
B1402545157708N01230141EA0137501456103008
B1402585157720N01230250EA0137801456104008
B1403025157787N01230316EA0138901464104008
B1403065157858N01230279EA0139401472104008
K140306180016
B1403105157887N01230175EA0139701472105008
B1403145157850N01230087EA0140101480107008
B1403185157791N01230083EA0141201488107008
B1403225157766N01230179EA0141401496107008
B1403265157808N01230279EA0141801496108008
K140326176016
B1403305157887N01230300EA0143301512106008
B1403345157941N01230220EA0144201512105008
B1403385157929N01230116EA0144601520107008
B1403425157875N01230070EA0145101520110008
B1403465157820N01230112EA0145601536108008
K140346180014
B1403505157808N01230216EA0145901536101008
B1403545157841N01230320EA0145501536104008
B1403585157912N01230375EA0146401536104008
B1404025157991N01230366EA0147001552105008
B1404065158045N01230279EA0147001552105008
K140406186015
B1404105158058N01230162EA0147801552106008
B1404145158025N01230066EA0148401560108008
B1404185157962N01230041EA0148701568106008
B1404225157908N01230095EA0149001568109008
B1404265157904N01230204EA0149701576105008
K140426172014
B1404305157954N01230295EA0149901576107008
B1404345158033N01230304EA0150701584110008
B1404385158091N01230216EA0151201592106008
B1404425158087N01230095EA0151801592110008
B1404465158033N01230037EA0151801600110012
K140446168013
B1404505157970N01230062EA0151701600110008
B1404545157937N01230158EA0151801600110008
B1404585157962N01230262EA0152001600104008
B1405025158029N01230337EA0151801600108008
B1405065158112N01230350EA0152901608112008
K140506170014
B1405105158183N01230291EA0154701624107008
B1405145158191N01230179EA0155001632103008
B1405185158145N01230112EA0154601624105008
B1405225158083N01230133EA0154601624110008
B1405265158050N01230225EA0154801624108008
K140526174016
B1405305158062N01230337EA0155301632102008
B1405345158120N01230412EA0155701640105008
B1405385158200N01230433EA0157201648106008
B1405425158266N01230366EA0157601656103008
B1405465158275N01230250EA0158001656106008
K140546180015
B1405505158225N01230179EA0158801664107012
B1405545158166N01230200EA0159101672106008
B1405585158145N01230304EA0160001680105008
B1406025158179N01230404EA0160401688103008
B1406065158258N01230425EA0161201688106008
K140606172014
B1406105158316N01230350EA0162101696103008
B1406145158316N01230241EA0162701704104008
B1406185158262N01230195EA0162901704108008
B1406225158212N01230262EA0163301712110008
B1406265158225N01230370EA0163901720106008
K140626176017
B1406305158291N01230437EA0163901720106012
B1406345158370N01230408EA0164401720109008
B1406385158416N01230308EA0165401736104008
B1406425158400N01230204EA0165601736106008
B1406465158341N01230166EA0165901744104008
K140646170017
B1406505158279N01230191EA0164901728116008
B1406545158212N01230245EA0163701712129008
B1406585158141N01230304EA0163301712127008
B1407025158070N01230370EA0163301712132008
B1407065158000N01230441EA0163501712130008
K140706170017
B1407105157925N01230512EA0163001712135012
B1407145157854N01230595EA0161801696142008
B1407185157783N01230691EA0161901704136012
B1407225157720N01230791EA0161901704136012
B1407265157654N01230895EA0160901688142012
K140726086014
B1407305157591N01231004EA0160501688142012
B1407345157529N01231108EA0160101688143012
B1407385157466N01231208EA0159501680145012
B1407425157400N01231304EA0159201672143012
B1407465157329N01231395EA0158401664147012
K140746194012
B1407505157254N01231487EA0157601656151012
B1407545157175N01231570EA0157601656154012
B1407585157095N01231650EA0156701648154012
B1408025157016N01231725EA0156501648152012
B1408065156933N01231795EA0155701640152012
K140806210023
B1408105156850N01231870EA0155101632154012
B1408145156766N01231945EA0154301624152012
B1408185156683N01232025EA0153801616156012
B1408225156600N01232108EA0153901624152012
B1408265156520N01232187EA0153701616150012
K140826184011
B1408305156445N01232266EA0153701616150012
B1408345156370N01232341EA0153701624147012
B1408385156295N01232416EA0153001608146012
B1408425156216N01232495EA0152101600150012
B1408465156137N01232570EA0151201592153012
K140846184013
B1408505156058N01232645EA0150801592151012
B1408545155983N01232720EA0151701600148012
B1408585155908N01232791EA0153601608136012
B1409025155829N01232837EA0153601616136012
B1409065155754N01232887EA0152201608139012
K140906214021
B1409105155675N01232945EA0150901592144012
B1409145155595N01233004EA0149901576147012
B1409185155516N01233070EA0149401576149012
B1409225155437N01233141EA0149001568149012
B1409265155358N01233204EA0148701568147012
K140926188015
B1409305155283N01233266EA0148201560145012
B1409345155204N01233329EA0147001552149012
B1409385155125N01233395EA0146601544149012
B1409425155050N01233458EA0146301544146012
B1409465154970N01233520EA0145401536147012
K140946186017
B1409505154895N01233583EA0144401520147012
B1409545154812N01233629EA0143101512152012
B1409585154729N01233679EA0142601504149012
B1410025154641N01233725EA0142101496151012
B1410065154558N01233770EA0142001496149012
K141006198019
B1410105154479N01233820EA0141701496146012
B1410145154395N01233870EA0141001488148012
B1410185154316N01233925EA0140201480149012
B1410225154237N01233979EA0139301472148012
B1410265154158N01234037EA0138401464148012
K141026170017
B1410305154075N01234091EA0137601456147012
B1410345153995N01234150EA0136701448149012
B1410385153916N01234212EA0135601440149012
B1410425153833N01234270EA0135401432148012
B1410465153750N01234329EA0134601424150008
K141046184016
B1410505153666N01234383EA0134401424152008
B1410545153583N01234433EA0134401424146012
B1410585153500N01234475EA0133501416147008
B1411025153412N01234520EA0132501400155012
B1411065153325N01234562EA0133001408155012
K141106200017
B1411105153241N01234604EA0134001424138012
B1411145153162N01234645EA0132601408143012
B1411185153075N01234683EA0131201392151012
B1411225152983N01234725EA0130201384156012
B1411265152887N01234762EA0129401376159012
K141126184013
B1411305152791N01234800EA0128801368159012
B1411345152700N01234841EA0128201360156012
B1411385152608N01234887EA0127901352158012
B1411425152520N01234937EA0127701360156012
B1411465152433N01234983EA0129201376145012
K141146146010
B1411505152354N01235020EA0129801376139012
B1411545152279N01235050EA0132101400123012
B1411585152216N01235079EA0133901424109012
B1412025152158N01235100EA0134001424106012
B1412065152091N01235112EA0132101408116008
K141206180010
B1412105152016N01235133EA0129101376132008
B1412145151933N01235158EA0127001352142008
B1412185151841N01235187EA0124701328154008
B1412225151745N01235220EA0122801304163008
B1412265151645N01235258EA0121701296166008
K141226126015
B1412305151545N01235295EA0120901288168012
