AZAN1FA ZANDER/SDI GP941 V2.11
HFDTE160813
HFFXA050
HFPLT Pilot             :Bjoern Gintzel                          
HFGTY Glider type       :LS8                                     
HFGID Glider ID         :D-2943    
HFDTM100 GPS Datum      :WGS84
HFRFW Firmware Version  :11
HFRHW Hardware version  :2
HFFTY FR Type           :ZANDER/SDI GP941
HFGPS                   :Garmin,GPS25,12,30000
HFPRS Press Alt Sensor  :Intersema,MS5534A,10000
HFCCL Competition Class :Standard                                
HFCID Competition ID    :AR        
I023638IAS3941ENL
J020810WDI1113WVE
LZAN 120533 PowerOn
C160813114416160813000104
C5208650N01240100E 001SPLUESSE 
C5208650N01240100E 001SPLUESSE 
C5214950N01215366E 246ZIESAR   
C5133483N01300666E 213TORGAU   
C5144016N01336633E 107KLEINKRAU
C5209483N01246883E 010CP24     
C5208650N01240100E 001SPLUESSE 
C5208650N01240100E 001SPLUESSE 
B1205375208620N01240708EV0001100000003000
B1205415208620N01240708EV0001100000005012
B1205455208620N01240708EV0001100000002008
B1205495208620N01240708EV0001100000003008
B1205535208620N01240708EV0001100000003008
B1205575208620N01240708EV0001100000001004
B1206015208620N01240708EV0001100000001008
B1206055208691N01240591EA0001100056001004
B1206095208691N01240591EA0001100056002004
B1206135208691N01240591EA0001100056003004
B1206175208691N01240591EA0001100056001004
B1206215208691N01240591EA0001100056004004
B1206255208691N01240591EA0001100056001004
B1206295208691N01240591EA0001100056003004
B1206335208691N01240591EA0001100056009004
B1206375208691N01240591EA0001100056008008
B1206415208691N01240591EA0001100056005008
B1206455208691N01240591EA0001100056008008
B1206495208691N01240591EA0001100056007008
B1206535208691N01240591EA0001100056007008
B1206575208691N01240591EA0001100056005008
B1207015208691N01240591EA0001100056004012
B1207055208691N01240591EA0001100056010008
B1207095208691N01240591EA0001100056008044
B1207135208691N01240591EA0001100056009028
B1207175208691N01240591EA0001100056007068
B1207215208691N01240591EA0001100056008056
B1207255208691N01240591EA0001100056008052
B1207295208691N01240595EA0001100056007060
B1207335208691N01240595EA0001100056011036
B1207375208691N01240595EA0001100056009044
B1207415208691N01240595EA0001100056010108
B1207455208691N01240595EA0001100064009072
B1207495208691N01240595EA0001100064007072
B1207535208691N01240595EA0001100064008088
B1207575208691N01240595EA0001100064010020
B1208015208691N01240595EA0001100064009048
B1208055208691N01240595EA0001100064009052
B1208095208691N01240595EA0001100064008036
B1208135208691N01240595EA0001100064007064
B1208175208691N01240595EA0001100064007056
B1208215208691N01240595EA0001100064008088
B1208255208691N01240595EA0001100064006076
B1208295208691N01240595EA0001100064005044
B1208335208691N01240595EA0001100064009064
B1208375208691N01240595EA0001100064009060
B1208415208691N01240595EA0001100064008052
B1208455208691N01240595EA0001100064003076
B1208495208691N01240600EA0001100064008068
B1208535208691N01240600EA0001100064008040
B1208575208691N01240600EA0001100064005056
B1209015208691N01240600EA0001100064010044
B1209055208691N01240600EA0001100064008040
B1209095208691N01240600EA0001100064002120
B1209135208691N01240600EA0001100064000080
B1209175208691N01240600EA0001100064008068
B1209215208691N01240600EA0001100064004096
B1209255208691N01240600EA0001100064009028
B1209295208691N01240600EA0001100064007048
B1209335208691N01240600EA0001100064008028
B1209375208691N01240600EA0001100064000028
B1209415208691N01240600EA0001100064004028
B1209455208691N01240600EA0001100064004028
B1209495208691N01240600EA0001100064005104
B1209535208691N01240600EA0001100064002064
B1209575208691N01240600EA0001100064001024
B1210015208691N01240600EA0001100064002064
B1210055208691N01240600EA0001100064002012
B1210095208691N01240600EA0001100064000016
B1210135208691N01240600EA0001100064000028
B1210175208691N01240600EA0001100064001020
B1210215208691N01240600EA0001100064006060
B1210255208691N01240600EA0001100072004044
B1210295208691N01240600EA0001100072004052
B1210335208691N01240600EA0001100072010056
B1210375208691N01240600EA0001100072008044
B1210415208691N01240600EA0001100072008048
B1210455208691N01240600EA0001100064003036
B1210495208691N01240600EA0001100064005040
B1210535208691N01240600EA0001100064004024
B1210575208691N01240600EA0001100064006032
B1211015208691N01240600EA0001100064003044
B1211055208691N01240600EA0001100064000032
B1211095208691N01240600EA0001100064007096
B1211135208691N01240600EA0001100064010128
B1211175208691N01240600EA0001100064010156
B1211215208691N01240600EA0001100064010156
B1211255208691N01240600EA0001100064010064
B1211295208691N01240600EA0001100064008112
B1211335208691N01240600EA0001100064007040
B1211375208691N01240595EA0001100064000052
B1211415208691N01240595EA0001100064000032
B1211455208691N01240595EA0001100064009036
B1211495208691N01240595EA0001100064008036
B1211535208691N01240595EA0001100064003032
B1211575208691N01240595EA0001100064010084
B1212015208691N01240595EA0001100064009060
B1212055208691N01240595EA0001100064007088
B1212095208691N01240595EA0001100064007088
B1212135208691N01240595EA0001100064007016
B1212175208691N01240595EA0001100064006052
B1212215208691N01240595EA0001100064006004
B1212255208691N01240595EA0001100064006008
B1212295208691N01240595EA0001100064003012
B1212335208691N01240595EA0001100064005008
B1212375208691N01240595EA0001100064000008
B1212415208691N01240595EA0001100064002008
B1212455208691N01240595EA0001100064003008
B1212495208691N01240595EA0001100064012008
B1212535208691N01240595EA0001100056008012
B1212575208691N01240595EA0001100056002008
B1213015208691N01240595EA0001100056009008
B1213055208691N01240595EA0001100056008008
B1213095208691N01240595EA0001100056004008
B1213135208691N01240595EA0001100056005008
B1213175208691N01240595EA0001100056005008
B1213215208691N01240595EA0001100056004008
B1213255208691N01240595EA0001100056000008
B1213295208691N01240595EA0001100056007008
B1213335208691N01240595EA0001100056003008
B1213375208691N01240595EA0001100056000008
B1213415208691N01240595EA0001100056004008
B1213455208691N01240595EA0001100056001008
B1213495208691N01240595EA0001100056004072
B1213535208691N01240595EA0001100056004140
B1213575208691N01240595EA0001100056008120
B1214015208691N01240595EA0001100056014128
B1214055208691N01240595EA0001100056005056
B1214095208691N01240595EA0001100056008088
B1214135208691N01240595EA0001100056007076
B1214175208691N01240595EA0001100056009064
B1214215208691N01240595EA0001100056010056
B1214255208691N01240595EA0001100056010064
B1214295208691N01240595EA0001100056010068
B1214335208691N01240595EA0001100056010064
B1214375208691N01240595EA0001200056008020
B1214415208691N01240595EA0001200056009044
B1214455208691N01240595EA0001200056006004
B1214495208691N01240595EA0001200056008012
B1214535208691N01240595EA0001200056010008
B1214575208691N01240595EA0001200056010008
B1215015208691N01240595EA0001200056010060
B1215055208691N01240595EA0001200056009032
B1215095208691N01240595EA0001200056007136
B1215135208691N01240595EA0001200056009136
B1215175208691N01240595EA0001200056008064
B1215215208691N01240595EA0001200056004100
B1215255208691N01240600EA0001200056004164
B1215295208691N01240600EA0001200064008176
B1215335208691N01240600EA0001200064015100
B1215375208691N01240600EA0001200064014128
B1215415208691N01240600EA0001200064013084
B1215455208691N01240600EA0001200064015104
B1215495208691N01240600EA0001200064012028
B1215535208691N01240600EA0001200064011056
B1215575208691N01240591EA0001200064019040
B1216015208683N01240570EA0001200064049312
B1216055208670N01240533EA0001200064062792
B1216095208658N01240479EA0001200064075999
B1216135208641N01240412EA0001500064086999
B1216175208616N01240333EA0001500064093999
K121617174011
B1216215208591N01240245EA0001600064106924
B1216255208566N01240145EA0001900064115564
B1216295208533N01240041EA0002100072122180
B1216335208504N01239929EA0002800072131180
B1216375208475N01239816EA0004300088131104
K121637198009
B1216415208450N01239712EA0005300104121144
B1216455208425N01239604EA0006200112125056
B1216495208395N01239495EA0006300112127080
B1216535208370N01239391EA0007800128128056
B1216575208341N01239287EA0008900144124056
K121657174022
B1217015208308N01239187EA0009300144125060
B1217055208270N01239091EA0009500152128056
B1217095208241N01238983EA0010200160125076
B1217135208212N01238875EA0010800160123068
B1217175208183N01238762EA0011200168122072
K121717166021
B1217215208150N01238654EA0012800184125072
B1217255208120N01238545EA0014400200119064
B1217295208095N01238445EA0015300208120068
B1217335208066N01238345EA0016100216120056
B1217375208033N01238245EA0016200224123060
K121737158029
B1217415208000N01238150EA0016500224122068
B1217455207966N01238058EA0017400232121064
B1217495207925N01237966EA0018100240125068
B1217535207879N01237883EA0018700248120068
B1217575207833N01237804EA0019200256122088
K121757150040
B1218015207791N01237720EA0019900264120080
B1218055207745N01237645EA0021100272120080
B1218095207700N01237562EA0021800280123084
B1218135207654N01237491EA0023700296118064
B1218175207604N01237425EA0024500304126072
K121817148038
B1218215207550N01237354EA0025500320122100
B1218255207495N01237283EA0026600328131080
B1218295207445N01237208EA0029100352124064
B1218335207400N01237129EA0030300368119080
B1218375207354N01237058EA0030900376119048
K121837154026
B1218415207308N01236983EA0031100376117056
B1218455207266N01236900EA0031200376118092
B1218495207225N01236808EA0031500384120072
B1218535207187N01236716EA0032600392122108
B1218575207154N01236620EA0034800416122100
K121857170019
B1219015207116N01236529EA0036300432118084
B1219055207083N01236433EA0037200440123096
B1219095207050N01236341EA0038000456122088
B1219135207020N01236245EA0039700472117088
B1219175206991N01236154EA0040100480119056
K121917174023
B1219215206962N01236066EA0040600488119072
B1219255206916N01235991EA0041000488120076
B1219295206858N01235945EA0041100488123064
B1219335206795N01235941EA0041800496121064
B1219375206729N01235975EA0043100504119072
K121937168028
B1219415206675N01236041EA0044400520118108
B1219455206629N01236129EA0046100536116088
B1219495206595N01236233EA0046800544117032
B1219535206562N01236345EA0048700552121072
B1219575206529N01236450EA0050700576115060
K121957168028
B1220015206495N01236558EA0052000592116048
B1220055206470N01236675EA0053300600118072
B1220095206454N01236791EA0054800616116064
B1220135206454N01236916EA0055400632118104
B1220175206466N01237037EA0056800640115088
K122017180005
B1220215206491N01237154EA0057600648119120
B1220255206533N01237262EA0058100656124132
B1220295206587N01237366EA0058500656116128
B1220335206650N01237462EA0058500656120128
B1220375206708N01237562EA0058700664118072
K122037186009
B1220415206766N01237662EA0059600664120100
B1220455206812N01237766EA0060400680118056
B1220495206862N01237870EA0060800680119064
B1220535206908N01237966EA0061800688124104
B1220575206945N01238058EA0063400704098128
K122057168035
B1221015206937N01238154EA0063500704096088
B1221055206916N01238254EA0062500704106108
B1221095206950N01238362EA0062100696106056
B1221135207016N01238429EA0061500696105072
B1221175207091N01238483EA0060100680112052
K122117168035
B1221215207170N01238533EA0059100672120056
B1221255207254N01238587EA0058100656120036
B1221295207337N01238641EA0056500640120044
B1221335207425N01238687EA0054800632125028
B1221375207512N01238737EA0053500608131032
B1221415207604N01238783EA0052000600129024
K122141176027
B1221455207700N01238820EA0051100584132024
B1221495207795N01238845EA0050200576130028
B1221535207895N01238858EA0049300568131024
B1221575207991N01238870EA0048900560125044
B1222015208083N01238879EA0048700560122036
K122201168029
B1222055208170N01238887EA0049600560122052
B1222095208258N01238908EA0051700576107048
B1222135208300N01239004EA0053600600103032
B1222175208275N01239091EA0053600608106040
K122217188029
B1222215208220N01239095EA0053700608107036
B1222255208187N01239016EA0054900624102032
B1222295208208N01238925EA0055300624096036
B1222335208262N01238850EA0055900632103036
B1222375208333N01238841EA0057700648100036
K122237184019
B1222415208387N01238920EA0058300656098036
B1222455208379N01239020EA0058400656103020
B1222495208329N01239062EA0059000664101028
B1222535208287N01239004EA0060100672108044
B1222575208304N01238908EA0061900688096032
K122257188017
B1223015208370N01238870EA0063000704100036
B1223055208433N01238929EA0064300712101040
B1223095208441N01239033EA0065200728095016
B1223135208395N01239100EA0065200728105024
B1223175208341N01239070EA0066300736104028
K122317190015
B1223215208333N01238970EA0067400752104024
B1223255208370N01238891EA0068200760092028
B1223295208445N01238879EA0068200760103028
B1223335208504N01238954EA0068900760110044
B1223375208512N01239070EA0070100776103036
K122337192016
B1223415208466N01239133EA0070500784105040
B1223455208412N01239104EA0071100784106040
B1223495208412N01239004EA0072300800106032
B1223535208466N01238937EA0072600800100036
B1223575208541N01238962EA0073400808104044
K122357198016
B1224015208570N01239070EA0074300824103040
B1224055208533N01239150EA0074900824100044
B1224095208479N01239133EA0075200832100044
B1224135208470N01239037EA0076100840106032
B1224175208520N01238966EA0076800848099040
B1224215208595N01238987EA0077700856105040
K122421198017
B1224255208629N01239087EA0078700864101036
B1224295208600N01239170EA0078700864103040
B1224335208545N01239166EA0078800864107040
B1224375208508N01239087EA0080100872104032
B1224415208537N01238991EA0080700888100036
K122441188017
B1224455208604N01238954EA0080500880105044
B1224495208683N01238995EA0081600896105040
B1224535208720N01239091EA0082900912099032
B1224575208704N01239187EA0082900912104040
K122457190017
B1225015208650N01239212EA0082900904108028
B1225055208608N01239141EA0083500920112032
B1225095208616N01239037EA0084600928104044
B1225135208679N01238979EA0085200936105036
B1225175208750N01239016EA0085700936108036
K122517192017
B1225215208787N01239116EA0086500944103040
B1225255208766N01239216EA0086600952105024
B1225295208712N01239237EA0086600952104032
B1225335208679N01239154EA0087500960111040
B1225375208716N01239062EA0088900968103032
K122537200018
B1225415208791N01239045EA0089600976102036
B1225455208850N01239129EA0090300984108040
B1225495208837N01239229EA0090300992104016
B1225535208783N01239250EA0090300984106024
B1225575208745N01239170EA0091200992108060
K122557190018
B1226015208766N01239066EA0091901000109040
B1226055208837N01239025EA0092001000109032
B1226095208904N01239095EA0092601008108048
B1226135208904N01239208EA0093201008107044
B1226175208854N01239262EA0093401016107040
K122617190016
B1226215208800N01239220EA0094001024110036
B1226255208800N01239116EA0094401024106040
B1226295208858N01239041EA0093801016106036
B1226335208937N01239066EA0093501008112036
B1226375208983N01239166EA0094301024112044
K122637188018
B1226415208970N01239279EA0094401024110040
B1226455208916N01239316EA0094101024113044
B1226495208862N01239262EA0094101024118044
B1226535208820N01239170EA0093801016117052
B1226575208787N01239070EA0092901008122048
B1227015208750N01238966EA0090900992128048
K122701186018
B1227055208712N01238854EA0090000976132048
B1227095208670N01238745EA0089100968131048
B1227135208629N01238633EA0088200960136048
B1227175208591N01238525EA0088400960129048
K122717182029
B1227215208554N01238416EA0088400960124048
B1227255208520N01238308EA0087400952122056
B1227295208483N01238204EA0086800944128052
B1227335208445N01238091EA0086700944132048
B1227375208408N01237983EA0086100944125052
K122737150041
B1227415208375N01237875EA0085100928127048
B1227455208341N01237762EA0084400920127048
B1227495208300N01237658EA0083900912124032
B1227535208258N01237562EA0083300904123040
B1227575208216N01237462EA0082500904127040
K122757146049
B1228015208175N01237362EA0082500904123036
B1228055208133N01237266EA0082500904125056
B1228095208091N01237175EA0083100904122048
B1228135208041N01237100EA0083100912121056
B1228175207979N01237037EA0083000904125056
K122817132065
B1228215207912N01236987EA0082100896126048
B1228255207841N01236954EA0082000896130052
B1228295207770N01236925EA0082200896121056
B1228335207700N01236887EA0082500904122052
B1228375207637N01236833EA0083900912116056
K122837120041
B1228415207570N01236812EA0084900928113056
B1228455207520N01236875EA0085700936111028
B1228495207529N01236987EA0085700936107040
B1228535207587N01237070EA0085500936112044
B1228575207662N01237095EA0086200944108036
K122857120043
B1229015207729N01237058EA0087800960098044
B1229055207762N01236966EA0088500968097044
B1229095207750N01236866EA0088500968103024
B1229135207700N01236808EA0089400976101032
B1229175207645N01236820EA0090300984104028
K122917176013
B1229215207612N01236900EA0090200984104024
B1229255207629N01237008EA0089800984107044
B1229295207695N01237075EA0089800984108036
B1229335207770N01237058EA0091400992107048
B1229375207812N01236966EA0092101008100048
K122937174013
B1229415207800N01236866EA0092301000106032
B1229455207745N01236825EA0092801008106040
B1229495207695N01236879EA0093401024103032
B1229535207695N01236979EA0093401016104032
B1229575207754N01237058EA0093301016105048
K122957176015
B1230015207833N01237066EA0094301024109040
B1230055207891N01236995EA0095601040098044
B1230095207895N01236891EA0095201040104048
B1230135207845N01236833EA0095001032110036
B1230175207791N01236875EA0095801048108040
K123017176018
B1230215207787N01236983EA0096001048108020
B1230255207841N01237070EA0096201048105028
B1230295207920N01237075EA0097701056106040
B1230335207975N01237000EA0098401072100032
B1230375207975N01236891EA0097901064103028
K123037174018
B1230415207929N01236825EA0097401056112032
B1230455207862N01236841EA0097801064121044
B1230495207829N01236937EA0098401072115036
B1230535207850N01237054EA0098401072116044
B1230575207925N01237112EA0099201072111044
K123057182018
B1231015208000N01237075EA0100301088105036
B1231055208025N01236966EA0100601088109040
B1231095207987N01236883EA0100601088109044
B1231135207925N01236883EA0100501088119040
B1231175207875N01236962EA0099901088121036
B1231215207841N01237075EA0099101080126040
K123121186019
B1231255207812N01237195EA0098401064130052
B1231295207779N01237320EA0096601056137044
B1231335207741N01237445EA0096001040140052
B1231375207695N01237566EA0095701040136052
K123137186019
B1231415207654N01237687EA0095201032140052
B1231455207608N01237808EA0095001032141052
B1231495207558N01237916EA0096501040137052
B1231535207508N01238004EA0098301064118052
B1231575207450N01238054EA0099401080112040
K123157184028
B1232015207383N01238050EA0100301088115048
B1232055207337N01237979EA0101201096111024
B1232095207329N01237862EA0102101104105032
B1232135207379N01237758EA0102301104108040
B1232175207454N01237737EA0101901104111032
K123217184028
B1232215207516N01237804EA0102001104110048
B1232255207529N01237908EA0102401112103044
B1232295207495N01238000EA0102701112108052
B1232335207441N01238033EA0103501120110048
B1232375207391N01237975EA0104501128108024
K123237154014
B1232415207383N01237854EA0104701136107040
B1232455207437N01237750EA0104701136110036
B1232495207516N01237725EA0104601128112032
B1232535207595N01237770EA0103901120118032
B1232575207666N01237841EA0104401128117032
B1233015207733N01237912EA0104701128113060
K123301156015
B1233055207791N01237991EA0105301136113048
B1233095207837N01238091EA0105801144109036
B1233135207854N01238204EA0106301152110048
B1233175207829N01238300EA0107301160111028
K123317162017
B1233215207770N01238320EA0108401168108032
B1233255207737N01238241EA0109201176111028
B1233295207762N01238125EA0110101184104028
B1233335207825N01238050EA0111001200103040
B1233375207900N01238058EA0111401200103032
K123337176020
B1233415207945N01238145EA0111901208101032
B1233455207937N01238245EA0111801208105036
B1233495207887N01238304EA0112901216113032
B1233535207829N01238275EA0114201232108032
B1233575207808N01238170EA0115201240105032
K123357162020
B1234015207833N01238062EA0114801232103032
B1234055207912N01238016EA0114601232111048
B1234095207983N01238066EA0115401240109040
B1234135208008N01238175EA0115601240108044
B1234175207987N01238275EA0116701256114048
K123417164018
B1234215207933N01238316EA0117901264109040
B1234255207887N01238254EA0118201264108040
B1234295207887N01238133EA0117001256112036
B1234335207945N01238041EA0117001256114040
B1234375208029N01238029EA0117901264108060
K123437166019
B1234415208091N01238095EA0118801272105048
B1234455208108N01238200EA0118801272108044
B1234495208075N01238283EA0119301280114052
B1234535208016N01238279EA0120001288109032
B1234575207983N01238183EA0120201288112040
K123457166020
B1235015208008N01238062EA0120101288112048
B1235055208083N01238000EA0120201288117040
B1235095208158N01238041EA0121401304107048
B1235135208191N01238141EA0122101312102048
B1235175208166N01238229EA0122101312113032
K123517164020
B1235215208104N01238250EA0123401320115040
B1235255208058N01238179EA0124901336105036
B1235295208070N01238066EA0124601336106032
B1235335208141N01237987EA0123901328119032
B1235375208225N01237983EA0125301336107032
B1235415208283N01238058EA0125601344101056
K123541162020
B1235455208287N01238166EA0125901352109044
B1235495208266N01238262EA0126901360107016
B1235535208208N01238291EA0127201360116036
B1235575208162N01238225EA0127301360114040
B1236015208166N01238100EA0127101352115028
K123601168022
B1236055208225N01238000EA0127301360114048
B1236095208312N01237991EA0128001368109044
B1236135208375N01238062EA0128101368108040
B1236175208400N01238170EA0128701376109044
K123617168023
B1236215208375N01238270EA0129401384112036
B1236255208337N01238358EA0129901384118040
B1236295208304N01238458EA0130201392119020
B1236335208283N01238579EA0131001400121028
B1236375208295N01238712EA0132201408121044
K123637168023
B1236415208345N01238820EA0134701432111032
B1236455208420N01238833EA0135901448107020
B1236495208475N01238750EA0136301456108032
B1236535208466N01238641EA0136801456110028
B1236575208408N01238604EA0138501472109024
K123657168023
B1237015208362N01238670EA0139901488109024
B1237055208370N01238791EA0140501496109024
B1237095208437N01238870EA0141801512109028
B1237135208512N01238858EA0142101512106024
B1237175208558N01238766EA0142401520107024
K123717194018
B1237215208545N01238658EA0142401520113024
B1237255208487N01238625EA0143501528117044
B1237295208441N01238700EA0145601544110032
B1237335208445N01238825EA0146301560111016
B1237375208504N01238920EA0146401560120032
K123737198018
B1237415208591N01238925EA0146901568114040
B1237455208650N01238841EA0147701568110028
B1237495208654N01238725EA0148101576111036
B1237535208608N01238645EA0148501576114040
B1237575208545N01238645EA0149901592115024
K123757192018
B1238015208500N01238729EA0151001608117032
B1238055208504N01238858EA0151601608113044
B1238095208566N01238958EA0152101616113032
B1238135208645N01238995EA0152501624112036
B1238175208725N01238950EA0153001632110040
K123817194019
B1238215208762N01238845EA0153301632111036
B1238255208750N01238737EA0153301632112036
B1238295208700N01238679EA0154601640109052
B1238335208641N01238700EA0155801656106044
B1238375208604N01238791EA0156901672106032
K123837194019
B1238415208608N01238912EA0157001672110040
B1238455208662N01239016EA0157801680110036
B1238495208741N01239070EA0157701672112032
B1238535208825N01239058EA0157801680115036
B1238575208887N01238975EA0157601680109036
K123857194020
B1239015208904N01238858EA0156801664116056
B1239055208887N01238741EA0156401656118048
B1239095208837N01238654EA0156501664119052
B1239135208770N01238629EA0158201672118056
B1239175208716N01238679EA0158501688112036
B1239215208679N01238783EA0157601680117044
K123921194018
B1239255208687N01238916EA0158201680113048
B1239295208741N01239025EA0158301688112040
B1239335208820N01239091EA0158801688117048
B1239375208908N01239100EA0159001688114048
B1239415208983N01239045EA0159001688114032
K123941198019
B1239455209029N01238941EA0158201680114040
B1239495209033N01238820EA0157301672117056
B1239535209008N01238712EA0157301672112044
B1239575208966N01238625EA0157801672111060
B1240015208912N01238562EA0158501680108056
K124001196018
B1240055208850N01238550EA0158401680113040
B1240095208800N01238612EA0158501680111048
B1240135208779N01238725EA0157701680113040
B1240175208795N01238854EA0157301672114040
K124017190017
B1240215208841N01238966EA0157501680108060
B1240255208900N01239058EA0158001680106048
B1240295208975N01239112EA0158401680105036
B1240335209058N01239104EA0158101680108048
B1240375209125N01239037EA0158401680108060
K124037190018
B1240415209158N01238929EA0158301680110048
B1240455209154N01238816EA0157301672112052
B1240495209120N01238712EA0157301672114056
B1240535209070N01238633EA0157501672114060
B1240575209008N01238595EA0157801672114056
K124057192017
B1241015208945N01238612EA0158001672116048
B1241055208895N01238695EA0158301680111056
B1241095208870N01238812EA0158201680116060
B1241135208866N01238941EA0157201672114056
B1241175208895N01239070EA0156901664115052
K124117198017
B1241215208950N01239175EA0157001672111056
B1241255209025N01239254EA0156901664114052
B1241295209112N01239300EA0156801672116052
B1241335209200N01239300EA0157001672111052
B1241375209270N01239237EA0156801664110052
B1241415209320N01239145EA0156401664106052
K124141198017
B1241455209354N01239041EA0156201664105052
B1241495209366N01238929EA0156401664102052
B1241535209341N01238829EA0155001648109052
B1241575209291N01238758EA0154901648113036
K124157198017
B1242015209225N01238729EA0155201648113044
B1242055209162N01238741EA0155201648108076
B1242095209108N01238787EA0155201656112056
B1242135209062N01238875EA0155401656110032
B1242175209041N01238987EA0155001648109056
K124217198017
B1242215209058N01239116EA0154301640117056
B1242255209104N01239237EA0154901648113044
B1242295209170N01239325EA0155401656107036
B1242335209245N01239366EA0155201648109048
B1242375209329N01239358EA0155201648108056
B1242415209404N01239304EA0154801648105048
K124241198017
B1242455209462N01239225EA0154801648104036
B1242495209495N01239129EA0154801648102048
B1242535209508N01239025EA0154801648102060
B1242575209500N01238916EA0153401632106048
K124257198017
B1243015209466N01238820EA0152901624113056
B1243055209412N01238745EA0152301616116056
B1243095209358N01238687EA0152801624104052
B1243135209295N01238666EA0152101616110056
B1243175209233N01238695EA0152101616113048
K124317198017
B1243215209179N01238758EA0152801624107048
B1243255209141N01238845EA0152801624105048
B1243295209129N01238962EA0152801624107048
B1243335209154N01239079EA0152801624106048
B1243375209204N01239183EA0152301624103048
K124337198017
B1243415209270N01239266EA0152101616107056
B1243455209345N01239316EA0152001616105052
B1243495209433N01239333EA0151801616110052
B1243535209512N01239316EA0151501616110056
B1243575209587N01239262EA0151301616107052
K124357198017
B1244015209637N01239170EA0150901608110052
B1244055209662N01239058EA0150901608107052
B1244095209662N01238945EA0149801600110052
B1244135209633N01238850EA0149701600107052
B1244175209591N01238770EA0149401592107052
K124417198017
B1244215209541N01238700EA0149201592106032
B1244255209491N01238645EA0149201592107040
B1244295209429N01238637EA0149101584107060
B1244335209370N01238662EA0149201592103048
B1244375209325N01238729EA0149201592102048
K124437198017
B1244415209312N01238841EA0148501576110056
B1244455209329N01238958EA0148601584105052
B1244495209383N01239050EA0148701584103048
B1244535209458N01239095EA0148801584106052
B1244575209537N01239070EA0149001592111052
K124457198017
B1245015209591N01238983EA0150401600105020
B1245055209591N01238879EA0150901608104036
B1245095209545N01238812EA0150301600110028
B1245135209475N01238816EA0150501600115024
B1245175209420N01238883EA0150901608110044
K124517194017
B1245215209400N01238991EA0150901608108036
B1245255209412N01239112EA0150601608107048
B1245295209458N01239216EA0150601600108048
B1245335209533N01239258EA0150301600101052
B1245375209612N01239237EA0150301600101048
B1245415209675N01239175EA0150501600105032
K124541196018
B1245455209725N01239087EA0150701608102040
B1245495209733N01238983EA0150701608100060
B1245535209704N01238895EA0151501616098048
B1245575209650N01238854EA0151001608101056
K124557190016
B1246015209591N01238883EA0150601608104056
B1246055209545N01238950EA0150901608102048
B1246095209508N01239045EA0150601608106052
B1246135209479N01239150EA0150101600108052
B1246175209454N01239262EA0148701592116048
K124617192015
B1246215209429N01239387EA0147601576121056
B1246255209404N01239516EA0146601568124056
B1246295209383N01239650EA0145601560124032
B1246335209362N01239783EA0145301552128044
B1246375209341N01239916EA0145301560125044
K124637194023
B1246415209320N01240045EA0144701552126040
B1246455209304N01240179EA0144201544126044
B1246495209287N01240312EA0143801544128044
B1246535209270N01240445EA0143101536130044
B1246575209254N01240579EA0142501528131044
K124657200023
B1247015209237N01240716EA0142301520129044
B1247055209220N01240850EA0141901520128044
B1247095209208N01240983EA0141701520125040
B1247135209191N01241112EA0140901512125040
B1247175209175N01241245EA0140301504127036
K124717200026
B1247215209162N01241379EA0140001496128040
B1247255209145N01241512EA0139901496126040
B1247295209125N01241641EA0139401488127040
B1247335209108N01241770EA0138301480128040
B1247375209083N01241895EA0138001472126040
K124737198031
B1247415209058N01242025EA0137201472127044
B1247455209033N01242150EA0136901464127040
B1247495209008N01242279EA0136901464126040
B1247535208983N01242404EA0136001456125040
B1247575208958N01242529EA0135301448125060
K124757200029
B1248015208925N01242645EA0135201448125048
B1248055208891N01242754EA0134801448122036
B1248095208862N01242866EA0134801448120048
B1248135208837N01242979EA0134601448119044
B1248175208808N01243091EA0133901440123040
K124817198027
B1248215208766N01243191EA0133401432122044
B1248255208716N01243275EA0133401432122044
B1248295208662N01243354EA0132901424124044
B1248335208604N01243433EA0132001416124044
B1248375208554N01243529EA0132701424119044
K124837200023
B1248415208504N01243608EA0134201440109044
B1248455208445N01243641EA0135101456109028
B1248495208383N01243604EA0136001464111036
B1248535208345N01243512EA0136701464111028
B1248575208370N01243395EA0137101464112028
K124857206025
B1249015208437N01243341EA0137801472106020
B1249055208508N01243391EA0137901472106024
B1249095208537N01243495EA0137501472109060
B1249135208525N01243604EA0137801472112040
B1249175208466N01243666EA0139101488113016
K124917168012
B1249215208404N01243633EA0139901496109040
B1249255208383N01243525EA0140201504106028
B1249295208425N01243429EA0140201496108024
B1249335208500N01243400EA0140001496105036
B1249375208575N01243445EA0140201504106032
K124937170012
B1249415208625N01243537EA0140801504106040
B1249455208629N01243645EA0141601512108040
B1249495208591N01243733EA0142801528106020
B1249535208533N01243745EA0143901536102032
B1249575208487N01243662EA0144401544108020
K124957178014
B1250015208500N01243541EA0145301552110020
B1250055208562N01243470EA0145401552106016
B1250095208641N01243487EA0146101560107016
B1250135208683N01243583EA0146601560107020
B1250175208675N01243695EA0147201568107016
K125017166013
B1250215208633N01243775EA0148301576106028
B1250255208570N01243791EA0149701592109024
B1250295208520N01243720EA0150001600111016
B1250335208504N01243600EA0150001592112024
B1250375208529N01243479EA0150001592110032
K125037166013
B1250415208587N01243404EA0150001592104024
B1250455208666N01243404EA0149201584108040
B1250495208729N01243475EA0149101584106036
B1250535208754N01243583EA0149701592104040
B1250575208758N01243695EA0151001608102040
K125057172013
B1251015208750N01243800EA0152201616104028
B1251055208716N01243883EA0152801624104032
B1251095208650N01243895EA0153001624108020
B1251135208595N01243825EA0153001624109024
B1251175208570N01243712EA0153001624111020
K125117166011
B1251215208579N01243595EA0154401632099020
B1251255208612N01243495EA0153901632092052
B1251295208666N01243425EA0153101624098036
B1251335208737N01243420EA0152801616098032
B1251375208795N01243470EA0152301616096040
K125137162010
B1251415208845N01243550EA0151901616101044
B1251455208875N01243654EA0152801616098040
B1251495208891N01243762EA0153501624101028
B1251535208870N01243858EA0153501632098036
B1251575208829N01243941EA0153401624103040
K125157164010
B1252015208775N01244012EA0153801632104032
B1252055208712N01244054EA0154001632106044
B1252095208645N01244045EA0153401632105040
B1252135208600N01243966EA0152101608112036
B1252175208595N01243850EA0151301608106040
K125217182008
B1252215208641N01243750EA0149601592107032
B1252255208712N01243700EA0149101576105032
B1252295208775N01243745EA0148901576102036
B1252335208812N01243850EA0148701576108032
B1252375208812N01243966EA0149701584100036
K125237192008
B1252415208762N01244037EA0149901592105036
B1252455208704N01244016EA0148701576105040
B1252495208679N01243912EA0146601568108040
B1252535208704N01243795EA0144401536114016
B1252575208766N01243708EA0143701528112028
K125257186012
B1253015208845N01243675EA0143501528112044
B1253055208920N01243720EA0144301536107032
B1253095208954N01243820EA0145201544102036
B1253135208945N01243925EA0145901552101040
B1253175208904N01244004EA0145901552102028
K125317180013
B1253215208845N01244058EA0145901552107032
B1253255208783N01244058EA0145101544109040
B1253295208741N01243987EA0143701536107032
B1253335208737N01243875EA0142501520107040
B1253375208775N01243766EA0141401512110040
K125337182013
B1253415208854N01243712EA0139601488112032
B1253455208937N01243716EA0139101480115036
B1253495209016N01243758EA0139101480107032
B1253535209083N01243841EA0139501480114032
B1253575209112N01243958EA0140401496110044
K125357186016
B1254015209104N01244075EA0141401504112040
B1254055209054N01244154EA0141401504114024
B1254095208987N01244175EA0141101504118032
B1254135208920N01244129EA0140001488128036
B1254175208870N01244037EA0140001488121032
K125417182017
B1254215208862N01243933EA0140001496097040
B1254255208887N01243829EA0138001472105040
B1254295208937N01243729EA0136201456108044
B1254335209012N01243679EA0135101440107040
B1254375209095N01243683EA0135201440104032
B1254415209175N01243712EA0135601448102040
K125441180017
B1254455209245N01243762EA0136501456102040
B1254495209295N01243854EA0137501464104036
B1254535209308N01243970EA0137801472103020
B1254575209287N01244075EA0138401472107032
K125457180017
B1255015209229N01244112EA0138701480110020
B1255055209166N01244070EA0138701480115020
B1255095209125N01243983EA0139101480114036
B1255135209112N01243862EA0138801472114028
B1255175209150N01243750EA0138001464117032
K125517180019
B1255215209225N01243683EA0138001472109032
B1255255209312N01243675EA0138201472112044
B1255295209395N01243712EA0138901480115040
B1255335209458N01243791EA0140401496112044
B1255375209491N01243900EA0141501504105044
K125537180019
B1255415209495N01244012EA0142701520104016
B1255455209483N01244116EA0143501528095032
B1255495209450N01244200EA0143801528102024
B1255535209395N01244220EA0143901536102020
B1255575209345N01244158EA0143801528107028
B1256015209337N01244045EA0144101536107024
K125601184017
B1256055209362N01243929EA0144701544107044
B1256095209404N01243829EA0146201552107036
B1256135209470N01243762EA0146801560102016
B1256175209545N01243762EA0147301568107032
K125617184016
B1256215209612N01243825EA0147801568106016
B1256255209650N01243933EA0148101576104016
B1256295209641N01244041EA0148401576102036
B1256335209600N01244120EA0148201576107024
B1256375209545N01244175EA0149101584104036
K125637180015
B1256415209487N01244179EA0149001584105036
B1256455209441N01244104EA0149001576108056
B1256495209412N01244000EA0149101584108048
B1256535209412N01243887EA0149601584105036
B1256575209462N01243800EA0149601584105048
K125657184013
B1257015209541N01243800EA0149601584107036
B1257055209600N01243887EA0149601584110036
B1257095209600N01244004EA0149601584108060
B1257135209550N01244070EA0149701584105048
B1257175209487N01244054EA0150101592106052
K125717182012
B1257215209454N01243958EA0149401584113056
B1257255209466N01243837EA0149001576114032
B1257295209533N01243762EA0148501576114040
B1257335209616N01243741EA0148701584114056
B1257375209700N01243779EA0148801584114044
K125737186014
B1257415209762N01243875EA0149601592114036
B1257455209779N01243995EA0150201600110048
B1257495209750N01244100EA0149801592110040
B1257535209691N01244150EA0149701592113040
B1257575209620N01244137EA0149701592112056
K125757192015
B1258015209566N01244070EA0149701592114048
B1258055209537N01243958EA0149701592112048
B1258095209554N01243837EA0149401584112052
B1258135209608N01243745EA0149601584109048
B1258175209683N01243700EA0150201600104048
K125817180014
B1258215209762N01243704EA0150401600101032
B1258255209837N01243754EA0150501600106040
B1258295209891N01243841EA0150901608104044
B1258335209912N01243958EA0150901608108040
B1258375209895N01244066EA0150601600107044
K125837178015
B1258415209850N01244154EA0150301592108044
B1258455209791N01244195EA0150401600104036
B1258495209733N01244179EA0150001592103040
B1258535209675N01244129EA0149601592103060
B1258575209629N01244050EA0149001584104048
K125857178013
B1259015209620N01243937EA0147901576106032
B1259055209650N01243829EA0146501560108048
B1259095209700N01243737EA0146301560103044
B1259135209762N01243670EA0146801560101040
B1259175209833N01243637EA0147801576093056
K125917180014
B1259215209908N01243629EA0148401584099048
B1259255209975N01243675EA0148201584102020
B1259295210004N01243779EA0148201576103040
B1259335209987N01243879EA0147601576104044
B1259375209937N01243945EA0147001568110032
K125937166013
B1259415209875N01243979EA0147101568109044
B1259455209812N01243958EA0146601560106044
B1259495209762N01243887EA0145601552106060
B1259535209745N01243779EA0144501544103052
B1259575209766N01243670EA0142901528105032
K125957164013
B1300015209825N01243587EA0142801528106048
B1300055209895N01243533EA0143801536102044
B1300095209966N01243495EA0144401544097040
B1300135210045N01243491EA0144901552098040
B1300175210112N01243545EA0145601560099040
K130017166013
B1300215210150N01243641EA0145601552100032
B1300255210145N01243741EA0145701560097036
B1300295210112N01243820EA0145101552102048
B1300335210058N01243854EA0145801552102040
B1300375210004N01243816EA0146601568096036
K130037168015
B1300415209983N01243716EA0146901568105040
B1300455210008N01243604EA0148001576102028
B1300495210066N01243533EA0149001592098032
B1300535210141N01243520EA0149301592098024
B1300575210204N01243583EA0149301592103024
K130057168015
B1301015210225N01243691EA0149301592104040
B1301055210191N01243770EA0149201592108032
B1301095210129N01243787EA0149001592113056
B1301135210066N01243745EA0149701600110048
B1301175210020N01243666EA0150501600102032
K130117156018
B1301215210025N01243554EA0150101600107044
B1301255210070N01243450EA0149801592107056
B1301295210141N01243404EA0149601592104044
B1301335210216N01243441EA0149401592109060
B1301375210266N01243533EA0149401592107056
K130137158016
B1301415210275N01243641EA0149701600103052
B1301455210245N01243729EA0150201600106056
B1301495210195N01243775EA0151001608101036
B1301535210141N01243745EA0151701616098044
B1301575210116N01243654EA0150601608106032
K130157178014
B1302015210133N01243537EA0150101600108032
B1302055210187N01243450EA0150201600104048
B1302095210262N01243408EA0150401608100040
B1302135210337N01243412EA0150401608103048
B1302175210395N01243483EA0149701600106048
K130217174016
B1302215210416N01243587EA0149401592106040
B1302255210408N01243695EA0149501592103044
B1302295210370N01243779EA0149201592106060
B1302335210312N01243812EA0149401600101048
B1302375210254N01243791EA0150501600101052
K130237176013
B1302415210208N01243733EA0151401616098056
B1302455210200N01243633EA0150101600097020
B1302495210233N01243525EA0148001584109036
B1302535210304N01243458EA0147201568108044
B1302575210383N01243437EA0148101584105032
K130257174012
B1303015210458N01243454EA0148601592097060
B1303055210508N01243537EA0148101584104052
B1303095210520N01243645EA0148101584102052
B1303135210504N01243754EA0147901584111056
B1303175210454N01243820EA0147701584107032
K130317176013
B1303215210391N01243841EA0148201584104040
B1303255210329N01243820EA0149101592104040
B1303295210283N01243745EA0149001592100036
B1303335210270N01243645EA0147501584100040
B1303375210308N01243541EA0145601560109040
K130337172012
B1303415210387N01243495EA0144101536115040
B1303455210475N01243504EA0144701544112040
B1303495210541N01243562EA0146301568101048
B1303535210579N01243654EA0146801568101044
B1303575210575N01243758EA0146001568104020
K130357170012
B1304015210537N01243841EA0145701560109032
B1304055210475N01243870EA0145801560108044
B1304095210412N01243825EA0145901560109032
B1304135210387N01243720EA0145701560109044
B1304175210412N01243604EA0144801552109044
K130417166014
B1304215210479N01243537EA0144901552107060
B1304255210558N01243537EA0145401560100052
B1304295210625N01243600EA0145801560103048
B1304335210650N01243704EA0146601568103056
B1304375210625N01243800EA0146101568106032
K130437168014
B1304415210562N01243837EA0145601560109040
B1304455210500N01243791EA0145301552116052
B1304495210462N01243691EA0145701560108040
B1304535210483N01243570EA0144801544109032
B1304575210550N01243487EA0144201544111040
K130457160015
B1305015210629N01243475EA0144901552104060
B1305055210700N01243525EA0145901560100048
B1305095210737N01243620EA0146101560103032
B1305135210725N01243725EA0145801560100048
B1305175210683N01243795EA0144801552107040
K130517160015
B1305215210616N01243800EA0144101544112036
B1305255210554N01243733EA0144101544116060
B1305295210525N01243616EA0142801528124048
B1305335210504N01243479EA0141201512137048
B1305375210487N01243337EA0140501504134056
K130537166016
B1305415210475N01243191EA0140001496138052
B1305455210462N01243045EA0139801496139048
B1305495210454N01242900EA0139101488141060
B1305535210445N01242754EA0138001472141056
B1305575210437N01242604EA0137201464144060
B1306015210429N01242454EA0137201464140060
K130601186030
B1306055210425N01242308EA0137801472133052
B1306095210420N01242170EA0138201480126056
B1306135210420N01242033EA0138001472130052
B1306175210420N01241891EA0137201464132052
B1306215210416N01241745EA0136201456134056
K130621162049
B1306255210416N01241604EA0136601456132056
B1306295210412N01241470EA0136601464132052
B1306335210404N01241337EA0136301456136056
B1306375210400N01241208EA0136001456130072
B1306415210391N01241079EA0134801440129064
K130641166055
B1306455210391N01240954EA0134801440126032
B1306495210395N01240825EA0134901440125052
B1306535210404N01240700EA0134801440127060
B1306575210416N01240575EA0135701448120048
K130657174046
B1307015210420N01240458EA0135801456114056
B1307055210416N01240341EA0135801456113056
B1307095210400N01240229EA0136301456108056
B1307135210366N01240141EA0135601448104056
B1307175210304N01240095EA0135101448115056
K130717168057
B1307215210241N01240120EA0135801456112056
B1307255210204N01240212EA0136001456109040
B1307295210208N01240333EA0136701464104048
B1307335210266N01240429EA0136601464111040
B1307375210350N01240445EA0136601464109040
K130737168057
B1307415210420N01240366EA0136301464119060
B1307455210450N01240245EA0137001464115048
B1307495210425N01240133EA0136601464118032
B1307535210366N01240070EA0136301464120048
B1307575210295N01240083EA0137501472120052
B1308015210250N01240162EA0138501480112040
K130801192017
B1308055210254N01240287EA0138701488110036
B1308095210308N01240387EA0138901488111044
B1308135210391N01240420EA0138901480117036
B1308175210470N01240366EA0138901480114036
B1308215210512N01240254EA0139601496113052
K130821190016
B1308255210508N01240133EA0139901496114044
B1308295210466N01240050EA0139601496113048
B1308335210404N01240029EA0140501504112048
B1308375210345N01240070EA0141001512105032
K130837188016
B1308415210312N01240166EA0141001504107040
B1308455210320N01240287EA0140901504111056
B1308495210379N01240379EA0140901504108044
B1308535210458N01240412EA0141501512109048
B1308575210533N01240370EA0141601512105052
K130857186016
B1309015210579N01240275EA0141601512107032
B1309055210595N01240154EA0141601512111040
B1309095210566N01240045EA0141301512114056
B1309135210512N01239987EA0141601512112044
B1309175210454N01240008EA0141901512109048
K130917186016
B1309215210416N01240104EA0141401512110052
B1309255210420N01240229EA0141101504113032
B1309295210470N01240341EA0141101504120040
B1309335210545N01240395EA0141601512116044
B1309375210629N01240379EA0141401512112040
K130937184015
B1309415210687N01240287EA0141601512113056
B1309455210704N01240166EA0141301512112048
B1309495210679N01240058EA0140801504115048
B1309535210620N01240000EA0141001504120052
B1309575210554N01240016EA0141601512109032
B1310015210516N01240104EA0141201512110040
K131001186014
B1310055210520N01240229EA0140501504113056
B1310095210566N01240345EA0140501496113044
B1310135210645N01240404EA0140501496117048
B1310175210725N01240387EA0140901504112052
K131017188015
B1310215210783N01240300EA0141001504112052
B1310255210795N01240183EA0140301496110048
B1310295210758N01240083EA0139501488119056
B1310335210695N01240058EA0140401496112056
B1310375210645N01240120EA0140301496109048
K131037188016
B1310415210641N01240241EA0139801496112052
B1310455210683N01240350EA0139501488116052
B1310495210758N01240420EA0139601488114048
B1310535210837N01240412EA0140201496110048
B1310575210891N01240320EA0140401496109048
K131057180015
B1311015210900N01240204EA0139501488112048
B1311055210858N01240104EA0136901464126048
B1311095210783N01240066EA0137001464126052
B1311135210704N01240062EA0137001464128048
B1311175210629N01240075EA0136401456133052
B1311215210545N01240100EA0135201448137052
K131121184015
B1311255210462N01240125EA0134201432144048
B1311295210379N01240154EA0133601424144048
B1311335210295N01240179EA0133701432138052
B1311375210220N01240200EA0133701432131048
K131137166046
B1311415210145N01240216EA0133101432126056
B1311455210070N01240220EA0132501424129056
B1311495209995N01240225EA0132901424126056
B1311535209920N01240245EA0132901424122056
B1311575209850N01240279EA0132901424121056
B1312015209783N01240325EA0133901432117056
K131201110024
B1312055209720N01240375EA0134201440117052
B1312095209662N01240429EA0134701440112056
B1312135209600N01240487EA0134601440116032
B1312175209545N01240554EA0134301440112040
K131217086022
B1312215209487N01240620EA0134901440113060
B1312255209429N01240625EA0136501456106048
B1312295209404N01240541EA0137301472102024
B1312335209433N01240437EA0137201464106040
B1312375209500N01240370EA0137801464112024
K131237094015
B1312415209579N01240391EA0140401488105024
B1312455209625N01240483EA0141501504098028
B1312495209616N01240587EA0141401512099024
B1312535209562N01240637EA0140801496113040
B1312575209500N01240600EA0141801512113032
B1313015209487N01240504EA0143001528102032
K131301192018
B1313055209537N01240412EA0142201520106036
B1313095209616N01240375EA0142101512113032
B1313135209695N01240420EA0144301536109032
B1313175209720N01240533EA0145601552104020
K131317188017
B1313215209683N01240625EA0145601552099024
B1313255209620N01240637EA0145301552111044
B1313295209570N01240575EA0146801568105032
B1313335209575N01240466EA0147001568103032
B1313375209633N01240379EA0146101560111040
K131337194015
B1313415209716N01240354EA0146801560118048
B1313455209795N01240408EA0148601576110040
B1313495209820N01240525EA0149401584108016
B1313535209804N01240637EA0149401592112032
B1313575209745N01240695EA0148901584113044
K131357196015
B1314015209679N01240670EA0150701600116032
B1314055209641N01240595EA0151901616100040
B1314095209650N01240491EA0151901608102040
B1314135209704N01240408EA0151001600106032
B1314175209783N01240362EA0150601600112036
K131417194016
B1314215209862N01240400EA0152401608108040
B1314255209908N01240504EA0153601624102036
B1314295209900N01240616EA0153901632108028
B1314335209850N01240687EA0153901632113032
B1314375209791N01240641EA0154101640118020
B1314415209775N01240525EA0154101640116024
K131441190020
B1314455209825N01240416EA0154101632117040
B1314495209904N01240370EA0155001640111032
B1314535209991N01240395EA0156701664108036
B1314575210045N01240483EA0157401672104040
K131457186023
B1315015210054N01240600EA0157801672105028
B1315055210012N01240687EA0156801664111032
B1315095209945N01240704EA0157001664118032
B1315135209900N01240629EA0158001680115032
B1315175209904N01240516EA0158301680109028
K131517186022
B1315215209962N01240420EA0157801672106032
B1315255210045N01240383EA0158201672114044
B1315295210129N01240429EA0159501688108036
B1315335210170N01240529EA0160201704102024
B1315375210162N01240645EA0159701696111032
K131537184022
B1315415210112N01240733EA0158801688114036
B1315455210050N01240783EA0158801688120032
B1315495209983N01240770EA0159501696119036
B1315535209937N01240683EA0159701696113036
B1315575209937N01240566EA0159201688113040
K131557184019
B1316015209991N01240462EA0158401680116040
B1316055210066N01240400EA0158801680117044
B1316095210154N01240375EA0159301696112040
B1316135210237N01240412EA0160301704113044
B1316175210291N01240512EA0160401704112044
K131617186017
B1316215210279N01240629EA0160601704110036
B1316255210220N01240691EA0160701704114040
B1316295210158N01240662EA0160401704117036
B1316335210120N01240566EA0162101720113036
B1316375210120N01240445EA0163301728112024
K131637186018
B1316415210175N01240350EA0163901736111032
B1316455210258N01240320EA0164001744111028
B1316495210337N01240370EA0164801744113024
B1316535210387N01240475EA0165001744113024
B1316575210387N01240604EA0164401744115024
K131657182018
B1317015210350N01240716EA0164401744117044
B1317055210291N01240779EA0164701744117032
B1317095210225N01240766EA0165301752115060
B1317135210179N01240691EA0165801760111052
B1317175210175N01240579EA0164601752110032
K131717192016
B1317215210220N01240479EA0164401744111048
B1317255210291N01240408EA0165201752108060
B1317295210375N01240391EA0165801760108048
B1317335210445N01240450EA0166501768104032
B1317375210470N01240558EA0166501768107048
K131737188015
B1317415210445N01240666EA0166201760108032
B1317455210387N01240720EA0166001760110032
B1317495210320N01240712EA0165701760115040
B1317535210266N01240637EA0166301768114036
B1317575210258N01240520EA0166101760114044
K131757180015
B1318015210304N01240420EA0166101760109040
B1318055210383N01240362EA0165901760111036
B1318095210466N01240354EA0166501768111040
B1318135210541N01240412EA0166701768108044
B1318175210570N01240520EA0166601768105040
B1318215210554N01240629EA0166101768110048
K131821182015
B1318255210508N01240720EA0165701760112048
B1318295210462N01240808EA0165701760109048
B1318335210420N01240908EA0165401752113048
B1318375210383N01241016EA0165701760113036
K131837180015
B1318415210345N01241125EA0166001760111040
B1318455210316N01241237EA0166301768107044
B1318495210291N01241350EA0166301768106040
B1318535210258N01241458EA0165501760113040
B1318575210212N01241550EA0164301744114040
K131857206015
B1319015210145N01241583EA0164101744117060
B1319055210087N01241554EA0164201744112048
B1319095210050N01241466EA0163501736112032
B1319135210045N01241345EA0163001728116048
B1319175210079N01241220EA0162201720121044
K131917206015
B1319215210129N01241108EA0161201712120040
B1319255210195N01241004EA0159701704126056
B1319295210270N01240912EA0158601688135048
B1319335210350N01240833EA0158601680133048
B1319375210433N01240758EA0158301680129052
K131937206015
B1319415210512N01240683EA0157801672129032
B1319455210587N01240595EA0157701672122040
B1319495210658N01240504EA0158201680124060
B1319535210729N01240416EA0159301688118048
B1319575210791N01240320EA0159601696115036
K131957182020
B1320015210841N01240208EA0158901688118048
B1320055210883N01240075EA0157901672128036
B1320095210916N01239937EA0157401672129036
B1320135210954N01239795EA0155801656133044
B1320175210995N01239645EA0154501640140040
B1320215211025N01239495EA0153901632140060
K132021164019
B1320255211054N01239341EA0153201624148052
B1320295211083N01239195EA0154601648135056
B1320335211116N01239054EA0154301640138056
B1320375211145N01238912EA0153701632145052
K132037178041
B1320415211183N01238770EA0152801624144056
B1320455211225N01238629EA0151801616146056
B1320495211266N01238483EA0151301608143056
B1320535211300N01238341EA0150601600143060
B1320575211333N01238191EA0149801592146056
K132057186042
B1321015211362N01238037EA0149201592144056
B1321055211391N01237887EA0149201592140056
B1321095211416N01237737EA0149001584139052
B1321135211433N01237583EA0148801584142056
B1321175211445N01237429EA0149101584136064
K132117178055
B1321215211458N01237270EA0147601568149056
B1321255211475N01237108EA0147601568147064
B1321295211495N01236950EA0147201568148064
B1321335211516N01236787EA0146601560150048
B1321375211541N01236625EA0145301552153056
K132137174047
B1321415211562N01236462EA0144801544159060
B1321455211575N01236304EA0147701560147056
B1321495211591N01236170EA0150001600123060
B1321535211608N01236045EA0148101576130060
B1321575211629N01235895EA0145601552147056
B1322015211654N01235737EA0144801544156056
K132201176048
B1322055211683N01235570EA0143301528154076
B1322095211708N01235408EA0142701520152064
B1322135211737N01235237EA0141801512153052
B1322175211766N01235066EA0140501496156064
K132217176042
B1322215211795N01234895EA0140001488160068
B1322255211820N01234725EA0140101488159060
B1322295211845N01234558EA0140001496151064
B1322335211870N01234395EA0139301488155064
B1322375211900N01234233EA0138601480155064
K132237174059
B1322415211929N01234070EA0138001472163064
B1322455211958N01233912EA0138001472160064
B1322495211983N01233754EA0138001472158064
B1322535212004N01233600EA0138601480144064
B1322575212033N01233450EA0138001472150064
K132257180058
B1323015212058N01233295EA0138001472149092
B1323055212083N01233137EA0139201480144080
B1323095212108N01232987EA0139501488139080
B1323135212129N01232829EA0138001480147088
B1323175212154N01232662EA0136701456154064
K132317176040
B1323215212175N01232487EA0135601448160072
B1323255212195N01232312EA0134301432167068
B1323295212225N01232133EA0133101424172064
B1323335212250N01231954EA0132601416169072
B1323375212275N01231779EA0131901408165072
B1323415212300N01231604EA0131501400169048
K132341176045
B1323455212320N01231433EA0131101400167060
B1323495212337N01231262EA0130901400164072
B1323535212354N01231091EA0131301408167060
B1323575212370N01230925EA0134801432151068
K132357176062
B1324015212383N01230779EA0137801464131072
B1324055212370N01230662EA0140701488114032
B1324095212312N01230650EA0141001504114048
B1324135212291N01230754EA0141001504110044
B1324175212345N01230850EA0141001504112040
K132417172075
B1324215212429N01230862EA0141801512109048
B1324255212491N01230791EA0143201528104048
B1324295212508N01230683EA0143801536099036
B1324335212466N01230612EA0143801528110040
B1324375212416N01230662EA0144901544103032
K132437178020
B1324415212425N01230770EA0145201552099032
B1324455212479N01230854EA0145301552102032
B1324495212558N01230854EA0145401552108032
B1324535212616N01230762EA0145301544115040
B1324575212645N01230637EA0143401528129036
K132457190017
B1325015212658N01230487EA0141801512144048
B1325055212662N01230333EA0141101504147044
B1325095212658N01230170EA0140301496152072
B1325135212658N01230004EA0138901480156060
B1325175212654N01229837EA0138601472155064
K132517188017
B1325215212650N01229675EA0138501472153068
B1325255212650N01229516EA0138701472150072
B1325295212654N01229366EA0138501472145068
B1325335212650N01229212EA0138001472148048
B1325375212645N01229062EA0137401464148060
K132537170067
B1325415212641N01228912EA0137001456148052
B1325455212641N01228758EA0136301448147048
B1325495212650N01228604EA0135301440149056
B1325535212662N01228445EA0134801432151056
B1325575212675N01228287EA0134101432150052
K132557172052
B1326015212687N01228133EA0133601424150056
B1326055212700N01227975EA0133101416149052
B1326095212712N01227812EA0132001408154052
B1326135212725N01227650EA0131401400155060
B1326175212729N01227491EA0130301392155056
K132617174054
B1326215212729N01227329EA0129101376156036
B1326255212733N01227162EA0127701368162048
B1326295212737N01226995EA0127101360164060
B1326335212745N01226829EA0126801352159048
B1326375212754N01226662EA0125401336159036
K132637174052
B1326415212762N01226491EA0124001328161048
B1326455212766N01226320EA0123401320164060
B1326495212770N01226145EA0123001312166048
B1326535212770N01225970EA0122501304165052
B1326575212775N01225795EA0121201296166056
B1327015212775N01225616EA0120101288163060
K132701172055
B1327055212779N01225437EA0119801280164056
B1327095212787N01225258EA0119701280160072
B1327135212795N01225079EA0118601264170064
B1327175212795N01224900EA0117901264169064
K132717166060
B1327215212795N01224720EA0116401248168068
B1327255212787N01224541EA0115101232173052
B1327295212775N01224362EA0114901224175056
B1327335212766N01224191EA0114901224170072
B1327375212758N01224020EA0114501224168064
K132737164068
B1327415212745N01223850EA0113401216165052
B1327455212737N01223679EA0112101200165064
B1327495212725N01223508EA0111401192169060
B1327535212712N01223337EA0111401192165056
B1327575212704N01223170EA0111701200160064
K132757164062
B1328015212695N01223004EA0111401192163064
B1328055212683N01222837EA0110401184162068
B1328095212679N01222666EA0108501160171064
B1328135212670N01222491EA0109001168169064
B1328175212670N01222325EA0112601200150064
K132817164059
B1328215212675N01222200EA0117701264118052
B1328255212683N01222100EA0118901280097056
B1328295212695N01221987EA0115501256121028
B1328335212712N01221841EA0112701208148040
B1328375212729N01221679EA0110901192161060
K132837172030
B1328415212750N01221508EA0110001176166044
B1328455212766N01221337EA0111401192157084
B1328495212787N01221183EA0114501224142072
B1328535212808N01221045EA0117901256122048
B1328575212825N01220925EA0121101296102064
K132857170057
B1329015212791N01220854EA0120701288108024
B1329055212741N01220904EA0118901272118036
B1329095212750N01221029EA0119201280117060
B1329135212804N01221125EA0121401288114040
B1329175212875N01221137EA0123301320099032
K132917170057
B1329215212920N01221054EA0123301320108048
B1329255212891N01220958EA0124001328117020
B1329295212829N01220983EA0125301344113024
B1329335212816N01221087EA0126701352109040
B1329375212858N01221183EA0127501368103032
K132937198017
B1329415212933N01221195EA0128701376103016
B1329455212979N01221112EA0128701376108028
B1329495212958N01221008EA0129901384111024
B1329535212900N01220995EA0131601408103020
B1329575212870N01221079EA0131901408105020
K132957184013
B1330015212900N01221179EA0132901416104024
B1330055212970N01221208EA0134401432097024
B1330095213025N01221141EA0134801440102024
B1330135213020N01221037EA0135701448101024
B1330175212966N01221000EA0136701456101024
K133017172014
B1330215212925N01221070EA0137601472100020
B1330255212945N01221170EA0138701480104024
B1330295213012N01221208EA0140101488096020
B1330335213066N01221145EA0140801496097020
B1330375213070N01221045EA0141301504100024
K133037174012
B1330415213025N01220991EA0142001512100024
B1330455212979N01221041EA0142401520097020
B1330495212987N01221145EA0142701520103024
B1330535213045N01221208EA0144001528100044
B1330575213112N01221175EA0144901544099032
K133057174012
B1331015213133N01221070EA0145201552100016
B1331055213095N01220995EA0145901560104032
B1331095213041N01221012EA0147101568097016
B1331135213025N01221112EA0147201568101016
B1331175213070N01221200EA0147701568099040
K133117174012
B1331215213137N01221216EA0149301584097028
B1331255213187N01221141EA0149901592099016
B1331295213170N01221041EA0150201592102028
B1331335213112N01221025EA0150901600101040
B1331375213079N01221108EA0151501608099028
K133137182011
B1331415213091N01221212EA0152701624096032
B1331455213145N01221270EA0152801624098036
B1331495213216N01221233EA0153101624102016
B1331535213233N01221129EA0154401640098024
B1331575213187N01221062EA0154801640106028
K133157182011
B1332015213129N01221108EA0155501648103024
B1332055213129N01221212EA0155801656105028
B1332095213187N01221283EA0156001656104028
B1332135213258N01221262EA0156901664104028
B1332175213295N01221166EA0157701672105028
K133217174011
B1332215213266N01221070EA0158201680103028
B1332255213204N01221058EA0158301688106028
B1332295213162N01221137EA0158301688109040
B1332335213162N01221250EA0158701688108032
B1332375213220N01221316EA0158801688105032
K133237174009
B1332415213295N01221283EA0160101696106036
B1332455213337N01221191EA0161201712101044
B1332495213366N01221083EA0160801712107040
B1332535213387N01220958EA0159501696121016
B1332575213416N01220812EA0157801680133032
K133257170010
B1333015213458N01220658EA0156401664142060
B1333055213508N01220508EA0154701648151040
B1333095213554N01220345EA0153101624162060
B1333135213595N01220179EA0151901616164060
B1333175213641N01220008EA0150001600167044
K133317172034
B1333215213683N01219833EA0148701584172052
B1333255213729N01219654EA0147301568174044
B1333295213770N01219475EA0146201552177044
B1333335213816N01219295EA0146401560173052
B1333375213858N01219125EA0147601568160048
K133337180050
B1333415213891N01218962EA0147701568155048
B1333455213925N01218800EA0147201568155048
B1333495213962N01218641EA0146301560155076
B1333535214004N01218483EA0144801544158064
B1333575214050N01218325EA0144101536157048
B1334015214104N01218166EA0141301504172064
K133401180051
B1334055214166N01218004EA0139801488180052
B1334095214229N01217837EA0139501488177048
B1334135214291N01217679EA0140701488168076
B1334175214350N01217537EA0143501528145064
K133417188054
B1334215214408N01217412EA0144301536142056
B1334255214466N01217287EA0145201544139064
B1334295214520N01217170EA0147301568128060
B1334335214575N01217066EA0148501576121056
B1334375214616N01216954EA0148801584118060
K133437192059
B1334415214637N01216829EA0148401584117060
B1334455214654N01216695EA0147201568132052
B1334495214679N01216550EA0146901568141056
B1334535214716N01216404EA0146601568142072
B1334575214758N01216258EA0146601560141064
K133457188039
B1335015214800N01216120EA0146901568137052
B1335055214837N01215979EA0147001568137064
B1335095214862N01215829EA0147001568139056
B1335135214887N01215679EA0146801568135056
B1335145214895N01215641EA0147301568134060
B1335155214895N01215604EA0147701568134056
B1335165214900N01215570EA0148501568130056
B1335175214900N01215533EA0149101576128056
B1335185214895N01215504EA0149401576122052
B1335195214883N01215479EA0149601584117056
B1335205214870N01215458EA0149601592112032
K133520184036
B1335215214862N01215445EA0150201592109040
B1335225214845N01215429EA0150201600106044
B1335235214833N01215420EA0150001600106040
B1335245214820N01215416EA0149601592106044
B1335255214804N01215412EA0148201584111044
B1335295214729N01215429EA0144701544137044
B1335335214650N01215470EA0143401528140044
B1335375214566N01215504EA0142701520142060
K133537184036
B1335415214479N01215533EA0141801512149052
B1335455214391N01215554EA0141101504153048
B1335495214304N01215570EA0140801496152056
B1335535214216N01215591EA0139901496153052
B1335575214129N01215608EA0139401488149048
K133557166024
B1336015214041N01215629EA0138601480147072
B1336055213958N01215654EA0138001472145064
B1336095213875N01215670EA0137101464152052
B1336135213791N01215687EA0136701456151064
B1336175213708N01215704EA0136301456147056
K133617150018
B1336215213625N01215725EA0135301448151056
B1336255213541N01215745EA0134301432149060
B1336295213458N01215770EA0133101424148056
B1336335213370N01215787EA0132301416155056
B1336375213283N01215800EA0132701416149056
K133637170018
B1336415213200N01215804EA0133201424140056
B1336455213116N01215812EA0132301416146056
B1336495213029N01215820EA0133701408141076
B1336535212962N01215833EA0136001448116064
B1336575212900N01215837EA0137201464109048
K133657152013
B1337015212841N01215845EA0137501472108064
B1337055212775N01215845EA0138201480113016
B1337095212712N01215841EA0138901480114032
B1337135212641N01215833EA0139601488111044
B1337175212583N01215787EA0141401504105032
K133717188012
B1337215212570N01215683EA0142101512102032
B1337255212616N01215600EA0142401520101040
B1337295212695N01215616EA0142401520107020
B1337335212737N01215716EA0142401520105024
B1337375212725N01215825EA0143001528103044
K133737188012
B1337415212675N01215900EA0143201528105032
B1337455212616N01215887EA0144101536105036
B1337495212595N01215791EA0144401536103040
B1337535212645N01215708EA0144401536105052
B1337575212720N01215733EA0144401536106044
K133757206013
B1338015212762N01215837EA0144701536104048
B1338055212762N01215958EA0145201544103048
B1338095212720N01216033EA0145101544106032
B1338135212666N01215987EA0145201544110040
B1338175212658N01215883EA0145401552106056
K133817200016
B1338215212712N01215804EA0145801552103044
B1338255212791N01215816EA0145701552107032
B1338295212837N01215920EA0145701552108044
B1338335212825N01216033EA0146301560106044
B1338375212770N01216095EA0146601560110040
K133837198015
B1338415212708N01216116EA0148301576099020
B1338455212645N01216120EA0148701576108032
B1338495212579N01216116EA0148501576112024
B1338535212508N01216095EA0149101584113024
B1338575212437N01216104EA0150901600106028
K133857202012
B1339015212379N01216141EA0153001616095024
B1339055212320N01216154EA0153101624100024
B1339095212275N01216079EA0153301624105024
B1339135212295N01215970EA0153601632105016
B1339175212366N01215937EA0153401632105020
K133917202012
B1339215212441N01215987EA0153801632106040
B1339255212479N01216087EA0155401648100028
B1339295212475N01216200EA0156401656101024
B1339335212450N01216304EA0157301664104032
B1339375212391N01216329EA0157801672108020
K133937196013
B1339415212358N01216237EA0158001672111024
B1339455212375N01216120EA0158701680111024
B1339495212437N01216054EA0159601696104024
B1339535212508N01216095EA0159901696107024
B1339575212533N01216208EA0160701704109024
K133957200011
B1340015212500N01216308EA0161901712103024
B1340055212437N01216312EA0162301720109024
B1340095212412N01216212EA0163101728109016
B1340135212458N01216125EA0163701736107020
B1340175212529N01216141EA0164201744104024
K134017208011
B1340215212570N01216233EA0165101752099020
B1340255212545N01216337EA0165101752108024
B1340295212479N01216350EA0165201752110024
B1340335212445N01216254EA0166801768109028
B1340375212475N01216154EA0167501776104024
K134037196009
B1340415212545N01216137EA0167301768105036
B1340455212604N01216200EA0167601776101032
B1340495212625N01216316EA0167701776106052
B1340535212587N01216416EA0168001776110044
B1340575212516N01216441EA0168001776120016
K134057198008
B1341015212445N01216408EA0168101784119032
B1341055212370N01216362EA0165401760139044
B1341095212283N01216329EA0163001736152032
B1341135212187N01216320EA0162301720155060
B1341175212095N01216308EA0162201720154052
K134117198008
B1341215212012N01216291EA0162301720144056
B1341255211925N01216262EA0161101712148056
B1341295211841N01216237EA0160601704149056
B1341335211750N01216220EA0160301696150056
B1341375211666N01216208EA0160401704144052
K134137146016
B1341415211579N01216191EA0160601704142056
B1341455211495N01216187EA0160801712139060
B1341495211412N01216183EA0160201704146056
B1341535211320N01216179EA0159701696152056
B1341575211233N01216183EA0158901688148056
K134157130021
B1342015211145N01216183EA0158601680148052
B1342055211062N01216187EA0158401680141056
B1342095210975N01216204EA0156801664148060
B1342135210887N01216233EA0155901656150056
B1342175210800N01216250EA0155401648146048
K134217128019
B1342215210712N01216254EA0154201640152056
B1342255210620N01216266EA0153401632151052
B1342295210533N01216291EA0153901632141048
B1342335210450N01216316EA0154401640140052
B1342375210366N01216333EA0155401648138052
K134237174010
B1342415210287N01216320EA0156301664127052
B1342455210208N01216304EA0155601648133052
B1342495210125N01216291EA0155501648139052
B1342535210037N01216283EA0154501648143052
B1342575209950N01216283EA0153901632149036
K134257130015
B1343015209858N01216291EA0152301624149044
B1343055209762N01216300EA0150301600155044
B1343095209666N01216316EA0149101584157040
B1343135209570N01216345EA0148601584154044
B1343175209470N01216370EA0148101576155044
K134317102022
B1343215209375N01216400EA0147601576157060
B1343255209279N01216433EA0147001568160052
B1343295209187N01216470EA0147301560152048
B1343335209104N01216520EA0147701576144056
B1343375209020N01216566EA0146601560147036
K134337118010
B1343415208933N01216600EA0145101544150040
B1343455208841N01216641EA0144201536154044
B1343495208750N01216700EA0143901528158040
B1343535208666N01216758EA0145601552141052
B1343575208587N01216795EA0145801552139048
K134357200008
B1344015208512N01216791EA0145901552134048
B1344055208441N01216766EA0145801552132048
B1344095208362N01216775EA0143701536142052
B1344135208275N01216812EA0142801520146048
B1344175208187N01216866EA0141501512150056
K134417200008
B1344215208104N01216920EA0140901504147056
B1344255208012N01216975EA0140001496149032
B1344295207925N01217020EA0139901488148044
B1344335207837N01217070EA0139901488149056
B1344375207754N01217141EA0139901488146044
K134437094012
B1344415207675N01217216EA0139101488144048
B1344455207595N01217291EA0137901472152052
B1344495207516N01217370EA0137101464151052
B1344535207433N01217441EA0136601456154048
B1344575207350N01217520EA0136101448152052
K134457140006
B1345015207270N01217591EA0135801448147052
B1345055207187N01217654EA0135101440144036
B1345095207104N01217716EA0134301432146044
B1345135207020N01217775EA0133701424150060
B1345175206933N01217841EA0133601424152048
K134517200008
B1345215206850N01217900EA0133101416154048
B1345255206762N01217958EA0132901416152056
B1345295206679N01218016EA0132001416148052
B1345335206600N01218079EA0131701408148048
B1345375206520N01218145EA0131201400149052
K134537130007
B1345415206441N01218216EA0130501392145052
B1345455206362N01218295EA0129401384150036
B1345495206287N01218375EA0128201368151044
B1345535206208N01218454EA0127901368151044
B1345575206137N01218537EA0127901368145040
K134557098012
B1346015206070N01218637EA0126001344149044
B1346055206008N01218750EA0125101336150044
B1346095205941N01218862EA0124001328152040
B1346135205875N01218970EA0123701328150040
B1346175205808N01219075EA0123301320149036
K134617180009
B1346215205741N01219170EA0122501312150040
B1346255205666N01219266EA0121801304151056
B1346295205595N01219362EA0120401288155048
B1346335205525N01219466EA0119501280155048
B1346375205454N01219575EA0119101280152052
K134637200011
B1346415205383N01219670EA0120601288142052
B1346455205320N01219754EA0122901312125048
B1346495205266N01219829EA0125501336111036
B1346535205216N01219912EA0125801344110044
B1346575205166N01219991EA0125601344116028
K134657228016
B1347015205104N01220070EA0123901328129032
B1347055205041N01220162EA0123401320136044
B1347095204991N01220266EA0124101336127036
B1347135204941N01220362EA0124001328125044
B1347175204883N01220450EA0123001320132044
K134717216015
B1347215204820N01220537EA0122101304139060
B1347255204758N01220629EA0120601296143052
B1347295204691N01220725EA0118801280152048
B1347335204620N01220825EA0117401264155056
B1347375204545N01220933EA0116701256158052
K134737180012
B1347415204479N01221041EA0116701256154048
B1347455204412N01221150EA0116401248151060
B1347495204345N01221254EA0116301248147056
B1347535204283N01221358EA0115101240146056
B1347575204216N01221458EA0113301224147056
K134757206013
B1348015204145N01221566EA0112101208153036
B1348055204075N01221670EA0111201200158048
B1348095204008N01221783EA0110501192155056
B1348135203945N01221900EA0110201192150048
B1348175203883N01222012EA0109601184147052
K134817210013
B1348215203816N01222112EA0108501168149056
B1348255203745N01222216EA0107601160152032
B1348295203679N01222316EA0107101152154040
B1348335203608N01222416EA0106701152153060
B1348375203537N01222512EA0106101144152048
K134837208014
B1348415203466N01222608EA0107301152145056
B1348455203404N01222695EA0108001168133056
B1348495203345N01222787EA0107101152137056
B1348535203279N01222879EA0106101152142056
B1348575203212N01222975EA0105301136146052
K134857194008
B1349015203150N01223079EA0104901136147056
B1349055203091N01223187EA0104301128145052
B1349095203037N01223304EA0103501120148052
B1349135202983N01223425EA0102801112148052
B1349175202933N01223550EA0102001104147052
K134917170006
B1349215202879N01223670EA0101501104148036
B1349255202825N01223795EA0101101096147044
B1349295202775N01223916EA0100601088145060
B1349335202729N01224037EA0100001088144048
B1349375202679N01224158EA0099401080144052
B1349415202629N01224283EA0097901064146056
K134941206015
B1349455202583N01224416EA0096901056154048
B1349495202537N01224554EA0096901048153048
B1349535202491N01224683EA0096601048149048
B1349575202445N01224812EA0096601048149048
K134957204023
B1350015202395N01224933EA0096001040151052
B1350055202354N01225066EA0095601032151048
B1350095202312N01225200EA0094501024149052
B1350135202275N01225337EA0094101024149052
B1350175202233N01225470EA0093901024152052
B1350215202195N01225604EA0094001024143052
K135021200020
B1350255202162N01225729EA0094101024146052
B1350295202120N01225854EA0095101032138052
B1350335202083N01225966EA0095301032129056
B1350375202041N01226083EA0094301024139056
B1350415201991N01226200EA0093901016144060
K135041204029
B1350455201945N01226316EA0093501016147056
B1350495201895N01226429EA0093201008143048
B1350535201841N01226541EA0091601000146056
B1350575201800N01226670EA0090500984147032
B1351015201762N01226808EA0089800976145040
K135101196020
B1351055201729N01226954EA0088700960154040
B1351095201704N01227104EA0087400952155036
B1351135201687N01227258EA0086700944152036
B1351175201670N01227408EA0086400936149040
B1351215201662N01227562EA0087500944144060
K135121194015
B1351255201658N01227708EA0089600960135048
B1351295201658N01227837EA0092300984121052
B1351335201654N01227945EA0093701016106056
B1351375201683N01228050EA0093701016107020
B1351415201750N01228116EA0094101016104036
K135141202037
B1351455201825N01228100EA0095101024103040
B1351495201858N01228008EA0094801024106032
B1351535201833N01227912EA0094601024113032
B1351575201783N01227916EA0095301032108036
B1352015201783N01228020EA0095601032104056
K135201202037
B1352055201858N01228066EA0095501032109044
B1352095201925N01228004EA0096501040105048
B1352135201945N01227904EA0096901048104052
B1352175201908N01227833EA0096901048109032
K135217178022
B1352215201850N01227854EA0097201056114040
B1352255201825N01227945EA0097901064107036
B1352295201862N01228045EA0097901064102032
B1352335201941N01228066EA0098101064104036
B1352375202008N01228004EA0098901072104036
B1352415202020N01227900EA0099201072103044
K135241190024
B1352455201979N01227850EA0099501080104040
B1352495201933N01227908EA0099901088107036
B1352535201941N01228012EA0100601088103040
B1352575202012N01228070EA0100801096105040
B1353015202079N01228012EA0100801088110040
K135301184022
B1353055202083N01227895EA0100301088117040
B1353095202025N01227841EA0100001080128040
B1353135201958N01227850EA0100801088122040
B1353175201933N01227945EA0102301104113040
B1353215201987N01228033EA0102901112105040
K135321198019
B1353255202066N01228016EA0103301112110040
B1353295202091N01227912EA0103501120108040
B1353335202045N01227854EA0103501120113040
B1353375201983N01227862EA0103501120119032
B1353415201920N01227887EA0102501112125036
K135341196020
B1353455201850N01227920EA0102501112125060
B1353495201783N01227958EA0102901112122048
B1353535201716N01228000EA0104501128118036
B1353575201658N01228041EA0105801144114048
B1354015201604N01228095EA0107101152103044
K135401196020
B1354055201550N01228137EA0107001160102040
B1354095201491N01228170EA0105301136114032
B1354135201420N01228204EA0104401128126040
B1354175201350N01228233EA0104401128130060
B1354215201283N01228254EA0104601136120048
K135421204026
B1354255201216N01228270EA0103901120119060
B1354295201150N01228300EA0102901112122060
B1354335201079N01228337EA0101201096127048
B1354375201004N01228379EA0100201088137056
B1354415200925N01228416EA0099901080135048
K135441150013
B1354455200850N01228445EA0099301080134048
B1354495200770N01228470EA0098501064140056
B1354535200695N01228500EA0097501056140052
B1354575200616N01228525EA0096601048141036
B1355015200537N01228558EA0096101040140048
K135501150012
B1355055200462N01228604EA0096001040138044
B1355095200387N01228654EA0095701040137040
B1355135200316N01228700EA0095101032136060
B1355175200241N01228737EA0094301024134052
B1355215200162N01228775EA0093601016138052
K135521156012
B1355255200087N01228816EA0092901008139056
B1355295200012N01228875EA0092301000142052
B1355335159937N01228941EA0091801000147052
B1355375159866N01229000EA0092501000137052
B1355415159800N01229054EA0093201016125052
K135541116015
B1355455159741N01229116EA0093201008122060
B1355495159687N01229170EA0093501016111056
B1355535159629N01229220EA0093501016114048
B1355575159583N01229275EA0094801032095056
B1356015159541N01229333EA0093901024100052
K135601134009
B1356055159491N01229387EA0092301008111048
B1356095159433N01229433EA0090700992120036
B1356135159375N01229495EA0090300984120044
B1356175159320N01229575EA0090000976128060
K135617132013
B1356215159270N01229654EA0092501008109048
B1356255159225N01229720EA0093801016100044
B1356295159187N01229795EA0094801024096052
B1356335159145N01229866EA0094201024100044
B1356375159091N01229904EA0092301000108044
B1356415159025N01229933EA0090200984120032
K135641162010
B1356455158958N01229966EA0088900968125040
B1356495158883N01229991EA0087300952132024
B1356535158812N01230012EA0086400944130028
B1356575158737N01230033EA0085000928132028
B1357015158662N01230058EA0083800912137024
K135701180012
B1357055158587N01230095EA0082900912137040
B1357095158508N01230125EA0082300904135032
B1357135158433N01230158EA0082000896131032
B1357175158362N01230195EA0082000896129036
B1357215158291N01230225EA0082100896125052
K135721138012
B1357255158220N01230250EA0081100888127040
B1357295158150N01230262EA0080100880128052
B1357335158079N01230270EA0078800872133052
B1357375158000N01230270EA0077300856144052
B1357415157916N01230270EA0078000856137052
K135741196014
B1357455157841N01230275EA0078000856138048
B1357495157762N01230283EA0078600864135048
B1357535157687N01230291EA0077900856134048
B1357575157604N01230295EA0076600848141048
K135757158013
B1358015157525N01230295EA0076200840142056
B1358055157441N01230287EA0076200840142052
B1358095157362N01230275EA0076000840138052
B1358135157283N01230262EA0075700832137056
B1358175157204N01230250EA0076300840132048
B1358215157133N01230241EA0077100848122048
K135821146014
B1358255157070N01230279EA0079300864111036
B1358295157033N01230366EA0080300880098040
B1358335157037N01230475EA0081100896094044
B1358375157079N01230562EA0081400888098040
B1358415157150N01230583EA0081000888103032
K135841124018
B1358455157204N01230512EA0080600880104040
B1358495157204N01230408EA0080600880110052
B1358535157166N01230329EA0080600888108040
B1358575157112N01230300EA0081900896099032
K135857226011
B1359015157070N01230370EA0082000896105040
B1359055157079N01230483EA0082300904099040
B1359095157137N01230554EA0082500904100036
B1359135157208N01230537EA0082600904102040
B1359175157233N01230441EA0082600904109040
K135917208013
B1359215157212N01230345EA0082800904109044
B1359255157154N01230320EA0083300912106040
B1359295157108N01230383EA0084000920105044
B1359335157120N01230495EA0084400920102044
B1359375157183N01230562EA0084600928103036
K135937208013
B1359415157250N01230529EA0084800928106040
B1359455157262N01230425EA0084800928108044
B1359495157220N01230358EA0084800928106040
B1359535157162N01230379EA0085700936103056
B1359575157133N01230475EA0085800936104048
K135957210014
B1400015157162N01230587EA0086000936109032
B1400055157233N01230637EA0086000936108044
B1400095157308N01230595EA0086000936113044
B1400135157341N01230495EA0086300944108040
B1400175157320N01230400EA0086600944104060
B1400215157262N01230379EA0086700944104052
K140021196014
B1400255157212N01230441EA0087000952104052
B1400295157200N01230554EA0087200952104056
B1400335157245N01230650EA0087400952103052
B1400375157316N01230687EA0087900960102052
B1400415157383N01230658EA0088000960099052
K140041202015
B1400455157425N01230570EA0087800952103052
B1400495157454N01230470EA0087700960108056
B1400535157504N01230370EA0087300952119056
B1400575157550N01230266EA0088200960117040
B1401015157575N01230154EA0090100984107048
K140101204015
B1401055157554N01230058EA0092101000098024
B1401095157500N01230045EA0092801008103032
B1401135157470N01230137EA0093701016103040
B1401175157516N01230229EA0094601024107032
B1401215157583N01230200EA0095601040108032
K140121204015
B1401255157587N01230091EA0097001056107036
B1401295157529N01230075EA0098101056106032
B1401335157512N01230179EA0099201072104032
B1401375157566N01230254EA0100401080103032
B1401415157633N01230208EA0101301096104032
K140141190014
B1401455157633N01230100EA0102101096109016
B1401495157587N01230041EA0103301112104024
B1401535157537N01230095EA0103901120104044
B1401575157545N01230204EA0104501128104032
B1402015157612N01230254EA0105701136104032
K140201192009
B1402055157675N01230195EA0107101152104040
B1402095157683N01230091EA0107701168104016
B1402135157633N01230041EA0109001168104024
B1402175157587N01230095EA0109601184103040
K140217180012
B1402215157595N01230200EA0110101184104028
B1402255157658N01230266EA0110801192106036
B1402295157729N01230245EA0112401208104040
B1402335157766N01230154EA0113501224103016
B1402375157745N01230058EA0114201232104024
B1402415157683N01230041EA0114901232105024
K140241174012
B1402455157650N01230120EA0115201240105020
B1402495157675N01230220EA0116301248105040
B1402535157745N01230258EA0117401264100032
B1402575157808N01230208EA0118601272101016
B1403015157816N01230104EA0119201280102028
K140301174013
B1403055157762N01230058EA0119701280108024
B1403095157712N01230116EA0120801296105020
B1403135157720N01230220EA0122001304103028
B1403175157791N01230250EA0122101304110024
B1403215157837N01230158EA0123001320108044
K140321178008
B1403255157808N01230062EA0123901320109036
B1403295157741N01230066EA0124001328109032
B1403335157708N01230158EA0124201336109040
B1403375157737N01230262EA0124301336110036
K140337168007
B1403415157812N01230283EA0126101344107032
B1403455157879N01230220EA0127201360108028
B1403495157883N01230104EA0127301360111032
B1403535157820N01230054EA0127301360119044
B1403575157754N01230112EA0127301360121036
K140357180011
B1404015157725N01230216EA0128201368111052
B1404055157762N01230316EA0128201368110048
B1404095157841N01230350EA0128201368118048
B1404135157920N01230304EA0129601384112048
B1404175157970N01230204EA0130201392113032
B1404215157970N01230083EA0131001400115040
K140421182012
B1404255157912N01230025EA0131801408111020
B1404295157854N01230070EA0132101416107024
B1404335157829N01230170EA0132201408109056
B1404375157845N01230287EA0132201408109040
B1404415157908N01230358EA0133901424110032
K140441162011
B1404455157987N01230354EA0134601440110044
B1404495158062N01230300EA0136201448111044
B1404535158108N01230195EA0137301464110040
B1404575158091N01230087EA0137801472108016
K140457172011
B1405015158029N01230045EA0137601464112032
B1405055157966N01230095EA0137601464110040
B1405095157945N01230195EA0138401480104028
B1405135157983N01230295EA0139401480109044
B1405175158054N01230350EA0141001496106040
B1405215158133N01230329EA0142401512107040
K140521174010
B1405255158187N01230241EA0142901520109040
B1405295158179N01230133EA0143801528107016
B1405335158125N01230083EA0143801528107028
B1405375158075N01230145EA0143401528111036
K140537174014
B1405415158083N01230262EA0144401536109024
B1405455158137N01230345EA0145701552102032
B1405495158208N01230345EA0146401560101032
B1405535158254N01230254EA0146601560108040
B1405575158233N01230150EA0147201568108036
B1406015158175N01230120EA0147001568108032
K140601184013
B1406055158125N01230191EA0147201568112036
B1406095158141N01230300EA0148601576107040
B1406135158200N01230366EA0149301584104036
B1406175158275N01230354EA0150001592102040
B1406215158333N01230270EA0150501592106040
K140621176014
B1406255158325N01230166EA0151901608102024
B1406295158270N01230141EA0151601608102032
B1406335158229N01230212EA0151201608107044
B1406375158241N01230325EA0151601608106032
K140637172017
B1406415158295N01230400EA0152501616101060
B1406455158370N01230412EA0153101624096052
B1406495158429N01230337EA0153101624107032
B1406535158441N01230220EA0153901632108048
B1406575158416N01230125EA0154301640105020
B1407015158358N01230083EA0154301640107024
K140701176017
B1407055158295N01230108EA0152301616119052
B1407095158229N01230170EA0151901616130036
B1407135158170N01230237EA0152701624120052
B1407175158116N01230308EA0153501632112052
B1407215158066N01230387EA0153401632110056
K140721178015
B1407255158016N01230475EA0152101624119056
B1407295157962N01230570EA0151501608127052
B1407335157912N01230675EA0151601616128056
B1407375157862N01230779EA0153101624121048
B1407415157816N01230879EA0154101640111048
K140741122012
B1407455157766N01230970EA0153901632114036
B1407495157708N01231058EA0151601616128040
B1407535157645N01231145EA0150101592139036
B1407575157575N01231237EA0149101584144036
K140757206013
B1408015157508N01231320EA0149001584141060
B1408055157437N01231408EA0149301584140048
B1408095157366N01231495EA0149101584141052
B1408135157295N01231583EA0148601584146056
B1408175157220N01231666EA0148001576145060
B1408215157145N01231750EA0148701584138056
K140821198009
B1408255157087N01231829EA0150201600126052
B1408295157029N01231904EA0150601600121056
B1408335156958N01231962EA0148001584135056
B1408375156879N01232020EA0146701560144056
B1408415156804N01232083EA0147101568134036
K140841214018
B1408455156725N01232129EA0147201568129048
B1408495156654N01232179EA0146601560135060
B1408535156579N01232241EA0146301552137048
B1408575156512N01232312EA0145301552138032
B1409015156445N01232395EA0145201544140048
K140901134008
B1409055156379N01232475EA0145101552136060
B1409095156308N01232550EA0143601528141048
B1409135156237N01232616EA0142901528143048
B1409175156162N01232687EA0142501520141056
B1409215156083N01232750EA0142201512141048
K140921184013
B1409255156004N01232812EA0143301528132048
B1409295155941N01232875EA0146601568113032
B1409335155891N01232929EA0147701576096040
B1409375155841N01232987EA0146001560110040
B1409415155775N01233050EA0143401536128036
K140941188006
B1409455155704N01233116EA0140801512141032
B1409495155625N01233191EA0139101488148036
B1409535155545N01233254EA0138601480148020
B1409575155466N01233316EA0138301480148024
B1410015155387N01233379EA0137901472146060
K141001162010
B1410055155312N01233445EA0136901456148040
B1410095155229N01233508EA0136101448150036
B1410135155145N01233562EA0135001440153048
B1410175155066N01233612EA0134601440150056
B1410215154983N01233662EA0134201432150048
K141021200017
B1410255154900N01233720EA0133501424150052
B1410295154820N01233766EA0133701432146056
B1410335154741N01233812EA0133201424145060
B1410375154662N01233862EA0132201408147056
B1410415154579N01233925EA0130901400155056
K141041150013
B1410455154495N01233983EA0130001392156056
B1410495154408N01234037EA0129701384158052
B1410535154325N01234091EA0129401384155056
B1410575154241N01234150EA0129101384149052
B1411015154158N01234195EA0128401376147052
K141101162013
B1411055154075N01234233EA0127101360149036
B1411095153991N01234283EA0126501352149044
B1411135153908N01234345EA0126001352148040
B1411175153825N01234395EA0125301344149040
B1411215153745N01234441EA0125201336150060
K141121174012
B1411255153662N01234487EA0125201344145048
B1411295153579N01234520EA0124601336146052
B1411335153491N01234545EA0124401336149056
B1411375153408N01234579EA0124701336145052
B1411415153325N01234612EA0124801344138052
K141141192013
B1411455153245N01234645EA0123701328140052
B1411495153158N01234683EA0122701320151052
B1411535153066N01234729EA0122101312155052
B1411575152975N01234770EA0121201304156052
B1412015152883N01234816EA0120101288155052
K141201132012
B1412055152791N01234854EA0119201280156052
B1412095152695N01234891EA0118301272159048
B1412135152600N01234925EA0117901272163048
B1412175152512N01234962EA0118501272157064
B1412215152429N01235000EA0120601296140056
K141221130010
B1412255152354N01235029EA0121501304132048
B1412295152275N01235058EA0121501304135056
B1412335152195N01235091EA0120601296141056
B1412375152116N01235125EA0118601280143052
B1412415152029N01235158EA0117401264146056
K141241122012
B1412455151941N01235195EA0116301256149056
B1412495151850N01235233EA0115301240153032
B1412535151758N01235270EA0114101232153044
B1412575151666N01235308EA0113301224155040
B1413015151575N01235341EA0112801216156036
K141301124010
B1413055151483N01235370EA0111701208153056
B1413095151387N01235400EA0110501192156048
B1413135151295N01235429EA0110201192155056
B1413175151204N01235454EA0110701192153056
B1413215151116N01235483EA0110501192152064
K141321126008
B1413255151025N01235508EA0109501184154060
B1413295150933N01235533EA0109101176153048
B1413335150845N01235550EA0108901176151056
B1413375150754N01235570EA0107701160155048
K141337112015
B1413415150658N01235595EA0107201160155048
B1413455150566N01235625EA0106201144154056
B1413495150470N01235654EA0105301136158052
B1413535150379N01235683EA0104801128157056
B1413575150283N01235716EA0104501128155056
B1414015150195N01235750EA0104201128154052
K141401100017
B1414055150104N01235783EA0103401120154056
B1414095150012N01235820EA0102201104153060
B1414135149925N01235866EA0101501104154056
B1414175149833N01235908EA0100001088158036
B1414215149741N01235958EA0099201080158048
K141421104016
B1414255149650N01236004EA0098201064161060
B1414295149562N01236050EA0097901064159048
B1414335149475N01236095EA0097101056159052
B1414375149387N01236141EA0096901048156056
B1414415149300N01236179EA0096601048155048
K141441124010
B1414455149216N01236220EA0095701040149048
B1414495149129N01236258EA0094301032153032
B1414535149041N01236295EA0093801016156040
B1414575148950N01236329EA0093001016157056
B1415015148862N01236362EA0092101008154044
K141501160011
B1415055148775N01236395EA0091100992157060
B1415095148687N01236437EA0089800984157056
B1415135148595N01236479EA0088900968162056
B1415175148504N01236516EA0088600968159056
B1415215148416N01236550EA0088200960157048
K141521140012
B1415255148329N01236587EA0086900952158052
B1415295148237N01236620EA0085900936156040
B1415335148145N01236650EA0084600928158044
B1415375148054N01236687EA0083500912157036
B1415415147962N01236720EA0082400904163040
K141541132013
B1415455147866N01236745EA0082000896162060
B1415495147770N01236766EA0082000896160048
B1415535147675N01236775EA0081200888155052
B1415575147583N01236775EA0081600896151056
B1416015147495N01236745EA0083100912149060
K141601220010
B1416055147420N01236754EA0086500944140056
B1416095147375N01236829EA0088800968110024
B1416135147379N01236933EA0088800976106040
B1416175147429N01237025EA0088800976111028
B1416215147508N01237054EA0089700984112024
K141621210008
B1416255147570N01237004EA0090300992105040
B1416295147587N01236895EA0090800992115032
B1416335147545N01236816EA0092001008111040
B1416375147487N01236829EA0092001008113040
K141637184013
B1416415147454N01236925EA0093401008112032
B1416455147458N01237037EA0094401024100036
B1416495147520N01237095EA0094101024107040
B1416535147595N01237066EA0094301024108036
B1416575147637N01236970EA0095301032106052
B1417015147641N01236862EA0096201040108048
K141701186013
B1417055147604N01236787EA0096001040109016
B1417095147537N01236783EA0095101032123032
B1417135147466N01236812EA0093901024136044
B1417175147387N01236850EA0093501016142032
B1417215147304N01236883EA0092701008147060
K141721186015
B1417255147220N01236920EA0092101000148052
B1417295147133N01236962EA0091100992152048
B1417335147041N01237000EA0090900992157056
B1417375146950N01237037EA0090900992155048
B1417415146862N01237079EA0090300984154048
K141741162006
B1417455146770N01237125EA0089300976160056
B1417495146675N01237170EA0088900968161052
B1417535146575N01237212EA0088500960166048
B1417575146479N01237254EA0088700968157052
B1418015146387N01237291EA0089100968155056
K141801110008
B1418055146295N01237329EA0089900984150052
B1418095146208N01237379EA0093001000148056
B1418135146166N01237479EA0097001056116056
B1418175146187N01237591EA0097101064112020
B1418215146266N01237625EA0097001056116040
K141821090011
B1418255146325N01237545EA0096901048119060
B1418295146320N01237429EA0097101056123040
B1418335146258N01237379EA0099201072121044
B1418375146212N01237458EA0100101088110052
K141837190012
B1418415146245N01237570EA0100301088113040
B1418455146325N01237604EA0100301088117040
B1418495146395N01237545EA0101101096114032
B1418535146416N01237433EA0101801104115036
B1418575146387N01237325EA0103201112117024
B1419015146325N01237283EA0103601128111028
K141901178013
B1419055146270N01237345EA0104401128115024
B1419095146266N01237466EA0105001136113024
B1419135146312N01237570EA0106201144110028
B1419175146387N01237604EA0107101152106024
B1419215146445N01237541EA0107201160111024
K141921194012
B1419255146458N01237429EA0107601160112024
B1419295146412N01237350EA0108601168110044
B1419335146345N01237362EA0109301176114032
B1419375146320N01237470EA0110501192110020
B1419415146358N01237583EA0111001192109032
K141941208012
B1419455146429N01237629EA0111701200108024
B1419495146495N01237579EA0111701200109024
B1419535146525N01237470EA0111901200117040
B1419575146504N01237362EA0112601208115032
B1420015146437N01237333EA0113301216112036
K142001208011
B1420055146387N01237400EA0114401232112040
B1420095146395N01237520EA0114601232109016
B1420135146458N01237604EA0115001240112024
B1420175146529N01237583EA0115401240113044
K142017206009
B1420215146562N01237479EA0115501240118032
B1420255146533N01237370EA0116401248115036
B1420295146466N01237350EA0117201256112040
B1420335146425N01237437EA0117801264111036
B1420375146450N01237558EA0117901272112036
K142037212009
B1420415146525N01237604EA0118501272114016
B1420455146583N01237533EA0118601280117024
B1420495146579N01237420EA0118701280118040
B1420535146520N01237350EA0119401288117028
B1420575146458N01237387EA0120501288116032
B1421015146445N01237504EA0120601296110036
K142101218010
B1421055146495N01237600EA0120601296110056
B1421095146570N01237620EA0120901304111044
B1421135146633N01237545EA0121101304112032
B1421175146650N01237433EA0121701304113044
B1421215146608N01237345EA0121701304116044
K142121200010
B1421255146537N01237329EA0121701304118040
B1421295146479N01237400EA0122901312116044
B1421335146470N01237520EA0122901320111044
B1421375146529N01237604EA0122201312111040
B1421415146608N01237595EA0122101312116040
K142141210010
B1421455146658N01237504EA0122601320113044
B1421495146645N01237387EA0122201312119040
B1421535146612N01237279EA0122101312122060
B1421575146558N01237187EA0122101312126052
K142157216010
B1422015146491N01237112EA0122901320126032
B1422055146425N01237125EA0124501336111048
B1422095146387N01237216EA0123801328109040
B1422135146333N01237287EA0122201320118036
B1422175146262N01237325EA0119601296129060
B1422215146183N01237329EA0117601264136048
K142221216008
B1422255146100N01237320EA0115901248142020
B1422295146012N01237304EA0115101240146040
B1422335145920N01237291EA0114501232150060
B1422375145833N01237295EA0114101232148040
B1422415145745N01237308EA0112801216148052
K142241110013
B1422455145658N01237333EA0112701216144056
B1422495145570N01237366EA0113001216142056
B1422535145495N01237395EA0113601232135056
B1422575145412N01237420EA0112501216140032
B1423015145329N01237462EA0112201208146044
K142301102017
B1423055145245N01237508EA0112101208143060
B1423095145166N01237562EA0110901200146048
B1423135145083N01237608EA0110401192151048
B1423175145000N01237641EA0111701200139056
B1423215144925N01237625EA0113701224123056
K142321158008
B1423255144862N01237633EA0115401248109052
B1423295144825N01237716EA0115501248113044
B1423335144837N01237829EA0116101248113048
B1423375144895N01237912EA0116501256113036
B1423415144975N01237916EA0116901256115040
K142341166008
B1423455145029N01237825EA0117001264111032
B1423495145025N01237716EA0117201264108032
B1423535144970N01237666EA0117701264108060
B1423575144916N01237700EA0117801264111048
K142357170016
B1424015144858N01237754EA0118201272117052
B1424055144791N01237770EA0118801280117056
B1424095144725N01237770EA0118901280118016
B1424135144654N01237770EA0116701264134032
B1424175144575N01237791EA0114201224143060
B1424215144491N01237829EA0112801216150040
K142421130010
B1424255144404N01237875EA0111401200154048
B1424295144320N01237929EA0110501192153056
B1424335144233N01237983EA0109601184155032
B1424375144150N01238041EA0109001176153040
B1424415144062N01238100EA0108401168152056
K142441092031
B1424455143979N01238154EA0108401168153044
B1424495143891N01238204EA0107501160156048
B1424535143800N01238258EA0107101152155052
B1424575143712N01238312EA0107101152154052
B1425015143625N01238370EA0107201160152048
K142501100016
B1425055143541N01238437EA0108301168144052
B1425095143462N01238500EA0108401168143052
B1425135143387N01238570EA0108401168143060
B1425175143308N01238633EA0107201160146056
K142517104008
B1425215143225N01238691EA0105701144152032
B1425255143141N01238754EA0105201136153048
B1425295143058N01238816EA0105201136146060
B1425335142979N01238879EA0105101136143048
B1425375142904N01238933EA0104001128146052
K142537152006
B1425415142820N01238987EA0103001112150056
B1425455142737N01239041EA0102401104149048
B1425495142658N01239095EA0101501096152048
B1425535142575N01239150EA0100301088150056
B1425575142491N01239204EA0099701080149052
B1426015142408N01239266EA0099001072146040
K142601120011
B1426055142329N01239329EA0097501064150048
B1426095142245N01239383EA0096401048152044
B1426135142154N01239437EA0096101040159040
B1426175142066N01239487EA0095601040155056
B1426215141983N01239554EA0095201032155048
K142621122009
B1426255141895N01239625EA0094801032158052
B1426295141804N01239683EA0094201024160056
B1426335141708N01239729EA0093901024157052
B1426375141612N01239775EA0093401008160052
B1426415141516N01239816EA0093501016159052
K142641220009
B1426455141420N01239841EA0095601032148052
B1426495141345N01239883EA0098301056124052
B1426535141320N01239987EA0099801080108052
B1426575141350N01240087EA0099901088107024
K142657238005
B1427015141408N01240158EA0100801096103040
B1427055141479N01240170EA0101101096107044
B1427095141541N01240116EA0101201096104032
B1427135141570N01240016EA0100301088108032
B1427175141541N01239912EA0100301088116040
K142717238005
B1427215141470N01239866EA0100301088119056
B1427255141395N01239866EA0100201088119044
B1427295141329N01239912EA0100801096115048
B1427335141287N01240000EA0102401104111052
B1427375141308N01240104EA0103501120105016
B1427415141379N01240129EA0104201128110032
K142741204006
B1427455141425N01240050EA0104901136107028
B1427495141387N01239958EA0105001136107024
B1427535141320N01239945EA0105901144104040
B1427575141270N01240016EA0106601152104032
B1428015141241N01240116EA0106301152115024
K142801200003
B1428055141233N01240233EA0107101160113032
B1428095141275N01240333EA0109001184106044
B1428135141350N01240358EA0109501192102032
B1428175141395N01240283EA0109501192105016
B1428215141366N01240187EA0109601192110032
K142821208007
B1428255141300N01240170EA0110501200110044
B1428295141250N01240195EA0111401208106032
B1428335141245N01240329EA0111901216107020
B1428375141295N01240400EA0113101224101032
K142837194010
B1428415141370N01240387EA0112801224107044
B1428455141425N01240300EA0113201224109032
B1428495141416N01240191EA0114101232104052
B1428535141358N01240133EA0114001224113048
B1428575141295N01240170EA0114401232116016
K142857180010
B1429015141270N01240270EA0115001240112032
B1429055141308N01240366EA0115901248112028
B1429095141383N01240387EA0116301256108024
B1429135141441N01240304EA0116301256115044
B1429175141441N01240195EA0116901256110036
