AZAN5QI ZANDER/SDI GP941 V2.11
HFDTE160813
HFFXA050
HFPLT Pilot             :Enrique Levin                           
HFGTY Glider type       :Discus 2a                               
HFGID Glider ID         :D-6834    
HFDTM100 GPS Datum      :WGS84
HFRFW Firmware Version  :11
HFRHW Hardware version  :2
HFFTY FR Type           :ZANDER/SDI GP941
HFGPS                   :Garmin,GPS25,12,30000
HFPRS Press Alt Sensor  :Intersema,MS5534A,10000
HFCCL Competition Class :Standard                                
HFCID Competition ID    :EL        
I023638IAS3941ENL
J020810WDI1113WVE
LZAN 114908 PowerOn
C160813093837160813000104
C5208650N01240100E 001         
C5208650N01240100E 001         
C5214950N01215366E 246         
C5133483N01300666E 213         
C5132016N01355583E 192         
C5209483N01246883E 010         
C5209033N01243466E FINISH24    
C5208650N01240100E 001         
B1149125208595N01240675EV0000800000008000
B1149165208595N01240675EV0000800000007000
B1149205208595N01240675EA0000800064005000
B1149245208595N01240675EA0000800064007004
B1149285208595N01240675EA0000800064007000
B1149325208595N01240675EA0000800064009004
B1149365208595N01240675EA0000800064010004
B1149405208595N01240675EA0000800064007000
B1149445208595N01240675EA0000800064006000
B1149485208595N01240675EA0000800064000000
B1149525208595N01240675EA0000800064001000
B1149565208595N01240675EA0000800064000004
B1150005208595N01240675EA0000800064006000
B1150045208595N01240675EA0000800064000000
B1150085208595N01240675EA0000900064008000
B1150125208595N01240675EA0000900064005000
B1150165208595N01240675EA0000900064004000
B1150205208595N01240675EA0000900064007000
B1150245208595N01240675EA0000900064009000
B1150285208595N01240675EA0000900064009000
B1150325208595N01240675EA0000900064009000
B1150365208595N01240675EA0000900064005000
B1150405208595N01240675EA0000900064008000
B1150445208591N01240675EA0000900064008000
B1150485208591N01240675EA0000900064001000
B1150525208591N01240675EA0000900064000000
B1150565208591N01240675EA0000900064000000
B1151005208591N01240675EA0000900064000000
B1151045208591N01240675EA0000900056002000
B1151085208591N01240675EA0000900064003000
B1151125208591N01240675EA0000900064007000
B1151165208591N01240675EA0000900064000000
B1151205208591N01240675EA0000900064007000
B1151245208591N01240675EA0000900064007000
B1151285208591N01240675EA0000900064004000
B1151325208591N01240675EA0000900064010000
B1151365208591N01240675EA0000900064009000
B1151405208591N01240675EA0000900064007000
B1151445208591N01240675EA0000900064007000
B1151485208591N01240675EA0000900064006004
B1151525208591N01240675EA0000900064002000
B1151565208591N01240675EA0000900064002004
B1152005208591N01240675EA0000800064005004
B1152045208591N01240675EA0000800064010000
B1152085208591N01240675EA0000800064011000
B1152125208591N01240675EA0000800064008000
B1152165208591N01240675EA0000800064006000
B1152205208591N01240675EA0000800064007000
B1152245208591N01240675EA0000800064008000
B1152285208591N01240675EA0000800064008000
B1152325208591N01240675EA0000800064005000
B1152365208591N01240675EA0000800064000000
B1152405208591N01240675EA0000800056005000
B1152445208591N01240675EA0000800056005000
B1152485208591N01240675EA0000800056004000
B1152525208591N01240675EA0000800056002000
B1152565208591N01240675EA0000800056000000
B1153005208591N01240675EA0000800056000000
B1153045208591N01240675EA0000800056000000
B1153085208591N01240675EA0000800064007000
B1153125208591N01240675EA0000800064007000
B1153165208591N01240675EA0000800064007012
B1153205208591N01240675EA0000800064006008
B1153245208591N01240675EA0000800064007008
B1153285208591N01240675EA0000800064006008
B1153325208591N01240675EA0000800064008004
B1153365208591N01240675EA0000800064002008
B1153405208591N01240675EA0000800064003000
B1153445208591N01240675EA0000800064007000
B1153485208591N01240675EA0000800064006000
B1153525208591N01240675EA0000800064005000
B1153565208595N01240675EA0000800064004000
B1154005208595N01240675EA0000800064003000
B1154045208595N01240675EA0000800072003000
B1154085208595N01240675EA0000800072000000
B1154125208595N01240675EA0000800072000000
B1154165208595N01240675EA0000800072000000
B1154205208595N01240675EA0000800072000000
B1154245208595N01240679EA0000800072000000
B1154285208595N01240679EA0000800072000004
B1154325208595N01240675EA0000800072000000
B1154365208595N01240679EA0000800072000004
B1154405208595N01240675EA0000800072000004
B1154445208595N01240675EA0000800072000004
B1154485208595N01240675EA0000800072000004
B1154525208595N01240675EA0000800072000000
B1154565208595N01240675EA0000800072000000
B1155005208595N01240675EA0000800072000000
B1155045208595N01240675EA0000800072000000
B1155085208595N01240675EA0000800072000000
B1155125208595N01240675EA0000800072000000
B1155165208595N01240675EA0000800064000008
B1155205208595N01240675EA0000800064000004
B1155245208595N01240675EA0000800064000008
B1155285208595N01240675EA0000800064000008
B1155325208595N01240675EA0000800064000004
B1155365208595N01240675EA0000800064000008
B1155405208595N01240675EA0000800064000004
B1155445208595N01240675EA0000800064000004
B1155485208595N01240675EA0000800064000004
B1155525208595N01240675EA0000800064005004
B1155565208595N01240675EA0000800064002004
B1156005208595N01240675EA0000800064000004
B1156045208595N01240675EA0000800064000004
B1156085208595N01240675EA0000800072000004
B1156125208595N01240679EA0000800072000004
B1156165208595N01240679EA0000800072000004
B1156205208595N01240679EA0000800072000000
B1156245208595N01240679EA0000800072000000
B1156285208595N01240679EA0000800072000000
B1156325208595N01240679EA0000800072000000
B1156365208595N01240679EA0000800072000000
B1156405208595N01240679EA0000800072000000
B1156445208595N01240679EA0000800072000000
B1156485208595N01240679EA0000800072000000
B1156525208595N01240679EA0000800072000000
B1156565208595N01240679EA0000800072000000
B1157005208595N01240679EA0000800072000000
B1157045208595N01240679EA0000800072000000
B1157085208595N01240679EA0000800072000000
B1157125208595N01240679EA0000800072000000
B1157165208595N01240679EA0000800072000000
B1157205208595N01240679EA0000800072000000
B1157245208595N01240679EA0000800072000000
B1157285208595N01240679EA0000800072000000
B1157325208595N01240679EA0000800072000000
B1157365208595N01240679EA0000800072001000
B1157405208595N01240675EA0000800072005000
B1157445208595N01240675EA0000800072000000
B1157485208595N01240675EA0000800072000000
B1157525208595N01240675EA0000800072000000
B1157565208595N01240675EA0000800072000000
B1158005208595N01240675EA0000800064000000
B1158045208595N01240675EA0000800072000000
B1158085208595N01240675EA0000800072000000
B1158125208595N01240675EA0000800064000000
B1158165208595N01240675EA0000800072000000
B1158205208595N01240675EA0000800064000000
B1158245208595N01240675EA0000800064000000
B1158285208595N01240675EA0000800064000000
B1158325208595N01240675EA0000800064000000
B1158365208595N01240675EA0000800064000000
B1158405208595N01240675EA0000800064000000
B1158445208595N01240675EA0000800064000000
B1158485208595N01240675EA0000800064000000
B1158525208595N01240675EA0000800064000000
B1158565208595N01240675EA0000800064000000
B1159005208595N01240675EA0000800064000000
B1159045208595N01240675EA0000800072004000
B1159085208595N01240675EA0000800064005000
B1159125208595N01240675EA0000800064002000
B1159165208595N01240675EA0000800064000000
B1159205208595N01240675EA0000800064004000
B1159245208595N01240675EA0000800064000000
B1159285208595N01240675EA0000800064003000
B1159325208595N01240675EA0000800064000000
B1159365208595N01240679EA0000800064000000
B1159405208595N01240679EA0000800064000000
B1159445208595N01240679EA0000800064000000
B1159485208595N01240679EA0000800064001000
B1159525208595N01240675EA0000800064000000
B1159565208595N01240675EA0000800064000000
B1200005208595N01240675EA0000800064000000
B1200045208595N01240675EA0000800064000000
B1200085208595N01240675EA0000800064000000
B1200125208595N01240675EA0000800064000000
B1200165208595N01240675EA0000800064000000
B1200205208595N01240675EA0000800064000000
B1200245208595N01240675EA0000800064000000
B1200285208595N01240675EA0000800064000004
B1200325208595N01240675EA0000800064000000
B1200365208595N01240675EA0000800064000000
B1200405208595N01240675EA0000800064000000
B1200445208595N01240675EA0000800064000000
B1200485208595N01240675EA0000800064000000
B1200525208595N01240675EA0000800064000000
B1200565208595N01240675EA0000800064000000
B1201005208595N01240675EA0000800064000000
B1201045208595N01240675EA0000800064000000
B1201085208595N01240675EA0000800064004000
B1201125208595N01240675EA0000800064004000
B1201165208595N01240675EA0000800064000008
B1201205208595N01240675EA0000800064000004
B1201245208595N01240675EA0000800064000004
B1201285208595N01240675EA0000800064000008
B1201325208595N01240675EA0000800064000004
B1201365208595N01240675EA0000800064000004
B1201405208595N01240675EA0000800064000000
B1201445208595N01240675EA0000800064000000
B1201485208595N01240675EA0000800064002000
B1201525208595N01240675EA0000800064002000
B1201565208595N01240675EA0000800064001000
B1202005208595N01240675EA0000800064000000
B1202045208595N01240675EA0000800064004000
B1202085208595N01240675EA0000800064002000
B1202125208595N01240675EA0000800064000004
B1202165208595N01240675EA0000900064000000
B1202205208595N01240675EA0000900064000000
B1202245208595N01240675EA0000900064000000
B1202285208595N01240675EA0000900064000000
B1202325208595N01240675EA0000900064000000
B1202365208595N01240675EA0000900064000000
B1202405208595N01240675EA0000900064000000
B1202445208595N01240675EA0000900064000000
B1202485208595N01240675EA0000900064006000
B1202525208595N01240675EA0000900064000024
B1202565208595N01240675EA0000900064004012
B1203005208595N01240675EA0000900064005020
B1203045208595N01240675EA0000900064002024
B1203085208595N01240675EA0000900064003016
B1203125208595N01240675EA0000900064001016
B1203165208595N01240675EA0000900064003020
B1203205208595N01240675EA0000900064006016
B1203245208595N01240675EA0000900064003016
B1203285208595N01240675EA0000900064003016
B1203325208595N01240675EA0000900064001044
B1203365208595N01240675EA0000900064000032
B1203405208595N01240675EA0000900064000032
B1203445208595N01240675EA0000900064004040
B1203485208595N01240675EA0000900064000000
B1203525208595N01240675EA0000900064000016
B1203565208595N01240675EA0000900064004012
B1204005208595N01240675EA0000900064000008
B1204045208595N01240675EA0000900064000028
B1204085208595N01240675EA0000900064000020
B1204125208595N01240675EA0000900064000020
B1204165208595N01240675EA0000900064000024
B1204205208595N01240675EA0000900064000004
B1204245208595N01240675EA0000900064000012
B1204285208595N01240675EA0000900064000008
B1204325208595N01240675EA0000900064000008
B1204365208595N01240675EA0000900064000000
B1204405208595N01240675EA0000900064003004
B1204445208595N01240675EA0000900064000000
B1204485208595N01240675EA0000900064003000
B1204525208595N01240675EA0000900064000000
B1204565208595N01240675EA0000900064000000
B1205005208595N01240675EA0000900064000000
B1205045208595N01240675EA0000900064000000
B1205085208595N01240675EA0000900064000000
B1205125208595N01240675EA0000900064002000
B1205165208595N01240675EA0000900064000000
B1205205208595N01240675EA0000900064000000
B1205245208595N01240675EA0000900064000000
B1205285208595N01240675EA0000900064000000
B1205325208595N01240675EA0000900064000000
B1205365208595N01240675EA0000900064002000
B1205405208595N01240675EA0000900064000000
B1205445208595N01240675EA0000900064000000
B1205485208595N01240675EA0000900064004000
B1205525208595N01240675EA0000900064002000
B1205565208595N01240675EA0000900064000000
B1206005208595N01240675EA0000900064000000
B1206045208595N01240675EA0000900064002000
B1206085208595N01240675EA0000900064001000
B1206125208595N01240675EA0000900064000000
B1206165208595N01240675EA0000900064000000
B1206205208595N01240675EA0000900064000000
B1206245208595N01240675EA0000900064000000
B1206285208595N01240675EA0000900064001000
B1206325208595N01240675EA0000900064000000
B1206365208595N01240675EA0000900064000000
B1206405208595N01240675EA0000900064000000
B1206445208595N01240675EA0000900064000000
B1206485208595N01240675EA0000900064000000
B1206525208595N01240675EA0000900064000000
B1206565208595N01240675EA0000900064000000
B1207005208595N01240675EA0000900064000000
B1207045208595N01240675EA0000900064000000
B1207085208595N01240675EA0000900064000000
B1207125208595N01240675EA0000900064002000
B1207165208595N01240675EA0000900064001004
B1207205208595N01240675EA0000900064000000
B1207245208595N01240675EA0000900064002008
B1207285208595N01240675EA0000900064004008
B1207325208595N01240675EA0000900064004004
B1207365208595N01240675EA0000900064007008
B1207405208595N01240675EA0000900064008004
B1207445208595N01240675EA0000900064006004
B1207485208595N01240675EA0000900064006004
B1207525208595N01240675EA0000900064007004
B1207565208595N01240675EA0000900064005020
B1208005208595N01240675EA0000900064004012
B1208045208595N01240675EA0000900064000000
B1208085208595N01240675EA0000900064004008
B1208125208595N01240675EA0000900064001004
B1208165208595N01240675EA0000900064002000
B1208205208595N01240675EA0000900064000000
B1208245208595N01240675EA0000900064000000
B1208285208595N01240675EA0000900064000000
B1208325208595N01240675EA0000900064000000
B1208365208595N01240675EA0000900064001004
B1208405208595N01240675EA0000900064006000
B1208445208595N01240675EA0000900064002032
B1208485208595N01240675EA0000900064000016
B1208525208595N01240675EA0000900064004016
B1208565208595N01240675EA0000900064001024
B1209005208595N01240675EA0000900064000008
B1209045208595N01240675EA0000900064009012
B1209085208595N01240675EA0000900064005012
B1209125208595N01240675EA0000900064002008
B1209165208595N01240675EA0000900064002008
B1209205208595N01240675EA0000900064004008
B1209245208595N01240675EA0000900064005000
B1209285208595N01240675EA0000900064009004
B1209325208595N01240675EA0001000064008000
B1209365208595N01240675EA0001000064007000
B1209405208595N01240675EA0001000064002000
B1209445208595N01240675EA0001000064003000
B1209485208595N01240675EA0001000064000000
B1209525208595N01240675EA0001000064000000
B1209565208595N01240675EA0001000064000000
B1210005208595N01240675EA0001100064000000
B1210045208595N01240675EA0001100064005012
B1210085208595N01240675EA0001100064000008
B1210125208595N01240675EA0001100064007004
B1210165208595N01240675EA0001100064000008
B1210205208595N01240675EA0001100064010024
B1210245208595N01240675EA0001100064006016
B1210285208595N01240675EA0001100064005036
B1210325208595N01240675EA0001100064005032
B1210365208595N01240675EA0001100064006032
B1210405208595N01240675EA0001100064006032
B1210445208595N01240675EA0001100064009016
B1210485208595N01240675EA0001100064001024
B1210525208595N01240675EA0001100064015008
B1210565208595N01240675EA0001100064016012
B1211005208595N01240675EA0001100064014024
B1211045208595N01240675EA0001100064011016
B1211085208595N01240675EA0001100064015024
B1211125208595N01240675EA0001100064014024
B1211165208595N01240675EA0001000064014012
B1211205208595N01240675EA0001000064007016
B1211245208595N01240675EA0001000064009004
B1211285208595N01240675EA0001000064010008
B1211325208595N01240675EA0001000064006000
B1211365208595N01240675EA0001000064009000
B1211405208595N01240675EA0001000064007000
B1211445208595N01240675EA0001000064002000
B1211485208595N01240675EA0001000064011000
B1211525208595N01240675EA0001000064000000
B1211565208595N01240675EA0001000064005000
B1212005208595N01240675EA0001000064004000
B1212045208595N01240675EA0001000064010020
B1212085208595N01240675EA0001000064011008
B1212125208595N01240675EA0001000064010028
B1212165208595N01240675EA0001000064011024
B1212205208595N01240675EA0001000064017004
B1212245208595N01240675EA0001000064010016
B1212285208595N01240675EA0001000064009008
B1212325208595N01240675EA0001000064012008
B1212365208595N01240675EA0001000064010000
B1212405208595N01240675EA0001000064010004
B1212445208595N01240675EA0001000064006000
B1212485208595N01240675EA0001000064009000
B1212525208595N01240675EA0001000064010000
B1212565208595N01240675EA0001000064006000
B1213005208595N01240675EA0001000064011000
B1213045208595N01240675EA0000900064010000
B1213085208595N01240675EA0000900064009000
B1213125208595N01240675EA0000900064011000
B1213165208595N01240675EA0000900064009000
B1213205208595N01240675EA0000900064009000
B1213245208595N01240675EA0000900064007000
B1213285208595N01240675EA0000900064010000
B1213325208595N01240675EA0000900064010000
B1213365208595N01240675EA0000900064009000
B1213405208595N01240675EA0000900064010000
B1213445208595N01240675EA0000900064009000
B1213485208595N01240675EA0000900064010000
B1213525208595N01240675EA0000900064009000
B1213565208595N01240675EA0000900064008000
B1214005208595N01240675EA0000900064000000
B1214045208595N01240675EA0000900064000000
B1214085208595N01240675EA0000900064000000
B1214125208595N01240675EA0001000064000000
B1214165208595N01240675EA0001000064000000
B1214205208595N01240675EA0001000064000004
B1214245208595N01240675EA0001000064000000
B1214285208595N01240675EA0001000064000020
B1214325208595N01240675EA0001000064000012
B1214365208595N01240675EA0001000064000020
B1214405208595N01240675EA0001000064011020
B1214445208595N01240675EA0001000064010008
B1214485208595N01240675EA0001000064010016
B1214525208595N01240675EA0001000064000012
B1214565208595N01240675EA0001000064000008
B1215005208595N01240670EA0001000064013004
B1215045208587N01240645EA0001100064057008
B1215085208575N01240600EA0001200064073384
B1215125208554N01240533EA0001200064105452
B1215165208533N01240450EA0001300064105216
B1215205208504N01240354EA0001700072111132
B1215245208479N01240250EA0002400072121100
K121524202007
B1215285208445N01240141EA0002500072128116
B1215325208416N01240025EA0002800080132080
B1215365208383N01239908EA0003400080137136
B1215405208350N01239787EA0004300088148176
B1215445208316N01239670EA0004900104143156
K121544184011
B1215485208283N01239562EA0005900104137156
B1215525208245N01239454EA0006500120131180
B1215565208212N01239354EA0008200128130144
B1216005208179N01239250EA0008600144131144
B1216045208145N01239150EA0009500144128064
K121604164024
B1216085208116N01239054EA0009900152124104
B1216125208083N01238954EA0010200160124072
B1216165208045N01238862EA0010800160125068
B1216205207995N01238787EA0012100168123068
B1216245207941N01238720EA0012500176127072
K121624156031
B1216285207883N01238645EA0013400176136116
B1216325207825N01238583EA0014200192135224
B1216365207766N01238512EA0015100208129248
B1216405207708N01238441EA0015600208136192
B1216445207658N01238358EA0016400216135164
K121644160020
B1216485207608N01238270EA0017000224134172
B1216525207558N01238179EA0016800232137204
B1216565207508N01238087EA0017700240136128
B1217005207462N01238000EA0018500248135036
B1217045207416N01237904EA0019100256132080
K121704180014
B1217085207370N01237808EA0020400264136044
B1217125207325N01237716EA0021600280135040
B1217165207279N01237625EA0021800280133044
B1217205207233N01237537EA0022300288134044
B1217245207187N01237445EA0023000296136044
K121724162023
B1217285207145N01237354EA0023200296136044
B1217325207104N01237258EA0024000304136036
B1217365207058N01237162EA0025100320134040
B1217405207012N01237075EA0025700328131036
B1217445206962N01236991EA0026300328128036
K121744158027
B1217485206912N01236912EA0026600336128036
B1217525206854N01236841EA0027000336126036
B1217565206795N01236770EA0027800344130040
B1218005206737N01236708EA0029200352129040
B1218045206679N01236637EA0030300368129056
K121804142030
B1218085206620N01236570EA0030800376129048
B1218125206558N01236520EA0031800384127032
B1218165206487N01236495EA0032200392126044
B1218205206416N01236487EA0033400400128056
B1218245206341N01236504EA0034500416128044
K121824124037
B1218285206275N01236545EA0036000432125032
B1218325206212N01236604EA0036900440130044
B1218365206154N01236675EA0038500456135036
B1218405206100N01236762EA0039300464131032
B1218445206058N01236866EA0040300472131040
K121844124037
B1218485206025N01236983EA0041600480133040
B1218525206012N01237116EA0042900488134212
B1218565206020N01237250EA0043000504132180
B1219005206037N01237383EA0043500512137056
B1219045206070N01237512EA0045100520135120
K121904124037
B1219085206112N01237633EA0045600536133044
B1219125206166N01237745EA0046200536136048
B1219165206229N01237854EA0046700544134036
B1219205206295N01237958EA0048400552138040
B1219245206362N01238058EA0049900560137144
K121924134025
B1219285206429N01238154EA0051200576132344
B1219325206495N01238250EA0052200592129392
B1219365206562N01238350EA0053000592132328
B1219405206629N01238454EA0053800608137348
B1219445206700N01238562EA0054100608139392
K121944216015
B1219485206766N01238666EA0054100608137364
B1219525206833N01238775EA0054100608138168
B1219565206900N01238879EA0054600616132000
B1220005206966N01238979EA0055500624128084
B1220045207033N01239075EA0055600624131004
K122004210019
B1220085207100N01239175EA0056000624131000
B1220125207170N01239270EA0056400632132004
B1220165207241N01239370EA0056400632134004
B1220205207308N01239470EA0056700640134004
B1220245207375N01239566EA0057400640133004
K122024202021
B1220285207437N01239666EA0058700656132004
B1220325207500N01239766EA0061000672131004
B1220365207545N01239875EA0063000704115008
B1220405207541N01239975EA0063900712105008
B1220445207495N01240033EA0063900712104008
K122044204018
B1220485207445N01240037EA0062800704104008
B1220525207400N01239975EA0061700696107012
B1220565207387N01239870EA0061600688110008
B1221005207400N01239758EA0061600688110008
B1221045207429N01239650EA0061700688107008
K122104204018
B1221085207470N01239545EA0061500688107008
B1221125207512N01239445EA0060000672112008
B1221165207570N01239354EA0058700664112004
B1221205207633N01239270EA0057800648120008
B1221245207708N01239195EA0056900640118004
K122124204018
B1221285207783N01239129EA0056500632121004
B1221325207862N01239070EA0056200632122004
B1221365207941N01239012EA0056400640119004
B1221405208012N01238954EA0056900648107004
B1221445208079N01238895EA0057600648113004
K122144188027
B1221485208145N01238850EA0058700664098004
B1221525208216N01238854EA0059400664105004
B1221565208275N01238920EA0059700672105008
B1222005208287N01239037EA0059400664107008
B1222045208250N01239125EA0059300664114008
K122204188030
B1222085208191N01239141EA0059600664111008
B1222125208141N01239100EA0060200672111008
B1222165208120N01239004EA0060400672111008
B1222205208150N01238900EA0060400672115012
B1222245208220N01238854EA0061100680108008
K122224188030
B1222285208295N01238866EA0062700696099012
B1222325208345N01238954EA0063100696112012
B1222365208333N01239066EA0063100704113008
B1222405208275N01239104EA0063400704114008
B1222445208229N01239045EA0064200712115008
K122244190017
B1222485208241N01238937EA0065200720115008
B1222525208308N01238879EA0066200736107008
B1222565208383N01238895EA0067400744106008
B1223005208425N01238995EA0067500752109008
B1223045208408N01239100EA0067500744115008
K122304194018
B1223085208345N01239129EA0067800752114008
B1223125208308N01239054EA0068700760116008
B1223165208325N01238950EA0069400768110012
B1223205208395N01238895EA0070400776113008
B1223245208470N01238941EA0071600792113008
K122324194018
B1223285208495N01239058EA0072300800114008
B1223325208454N01239137EA0072700800115008
B1223365208395N01239112EA0072900808112008
B1223405208375N01239012EA0074100816113004
B1223445208420N01238925EA0075100824110008
K122344194017
B1223485208500N01238916EA0075200824114008
B1223525208554N01239012EA0076400840119008
B1223565208529N01239120EA0077100848115008
B1224005208470N01239133EA0077400848112008
B1224045208437N01239050EA0078300856115012
K122404190016
B1224085208470N01238954EA0079400864115008
B1224125208545N01238933EA0079900872107008
B1224165208608N01239012EA0080400880116008
B1224205208608N01239129EA0081300888113008
B1224245208554N01239179EA0081600896111008
K122424198017
B1224285208500N01239141EA0082400904110008
B1224325208479N01239045EA0083200912107008
B1224365208516N01238945EA0082700904111008
B1224405208591N01238916EA0082000896111008
B1224445208666N01238970EA0083000904112004
K122444186016
B1224485208716N01239066EA0084600928104008
B1224525208700N01239166EA0084600920111012
B1224565208641N01239191EA0084400920114008
B1225005208595N01239120EA0085800936119004
B1225045208620N01239020EA0086300944114008
K122504192021
B1225085208687N01238975EA0086800944109008
B1225125208758N01239025EA0087300952110008
B1225165208783N01239133EA0088300960107008
B1225205208745N01239212EA0088400960113008
B1225245208687N01239187EA0088000952117008
K122524194019
B1225285208675N01239083EA0088700960121008
B1225325208733N01239000EA0089200968119008
B1225365208812N01239016EA0089600976117008
B1225405208854N01239120EA0090700984114012
B1225445208829N01239220EA0090900984113008
K122544192019
B1225485208770N01239233EA0090900984113024
B1225525208729N01239154EA0091700992115016
B1225565208754N01239050EA0092301000114000
B1226005208829N01239025EA0092501000116012
B1226045208887N01239112EA0092701008119008
K122604194015
B1226085208883N01239225EA0093701016113004
B1226125208829N01239262EA0093701016112012
B1226165208783N01239200EA0094201024114008
B1226205208791N01239095EA0094601032103008
B1226245208854N01239029EA0094001016111008
K122624188017
B1226285208933N01239054EA0094001024115008
B1226325208970N01239162EA0094601032113008
B1226365208945N01239258EA0094901032115012
B1226405208883N01239270EA0094901032113008
B1226445208837N01239195EA0095101032117008
K122644184018
B1226485208808N01239100EA0094901032117008
B1226525208775N01239004EA0093101016123008
B1226565208733N01238900EA0091701000132008
B1227005208691N01238800EA0091300992128008
B1227045208654N01238700EA0091000992127008
K122704182018
B1227085208616N01238595EA0090300984132004
B1227125208579N01238495EA0090300984125008
B1227165208541N01238387EA0090000984127004
B1227205208508N01238279EA0088800968130004
B1227245208466N01238175EA0088600968132004
K122724170023
B1227285208429N01238066EA0088600968130004
B1227325208400N01237962EA0088500968120004
B1227365208370N01237854EA0087200952123004
B1227405208350N01237737EA0086100944127004
B1227445208320N01237625EA0085500936129004
K122744158023
B1227485208283N01237520EA0084500928128004
B1227525208237N01237416EA0084100920134004
B1227565208191N01237320EA0084600928129004
B1228005208150N01237229EA0085300928125004
B1228045208108N01237137EA0085500936125004
K122804148037
B1228085208066N01237045EA0085000928125004
B1228125208008N01236966EA0084100920130004
B1228165207937N01236916EA0083100912141004
B1228205207862N01236891EA0082800904137008
B1228245207783N01236870EA0083100912135008
K122824144042
B1228285207712N01236854EA0084100920125008
B1228325207645N01236825EA0085100928120008
B1228365207579N01236800EA0086000944112008
B1228405207520N01236850EA0086500944118008
B1228445207512N01236958EA0086700944114008
K122844128033
B1228485207562N01237058EA0086600944118008
B1228525207637N01237091EA0087100952111008
B1228565207708N01237050EA0088300968108008
B1229005207745N01236954EA0088700968107008
B1229045207725N01236854EA0089100976106008
K122904128033
B1229085207675N01236800EA0090300984106004
B1229125207616N01236833EA0090700992111008
B1229165207600N01236933EA0091000992110012
B1229205207637N01237033EA0091000992111008
B1229245207712N01237066EA0091300992116008
K122924172014
B1229285207775N01237000EA0092501008108008
B1229325207783N01236895EA0093301016110012
B1229365207741N01236825EA0093701016108008
B1229405207683N01236841EA0094201024112008
B1229445207662N01236937EA0093801024112008
K122944180013
B1229485207700N01237045EA0093701016116012
B1229525207770N01237095EA0094001024120008
B1229565207845N01237070EA0095801040108008
B1230005207879N01236970EA0095801040107008
B1230045207854N01236875EA0095801040114024
K123004176015
B1230085207795N01236858EA0096301048117016
B1230125207762N01236937EA0097101056111000
B1230165207787N01237041EA0097401056108012
B1230205207854N01237100EA0097701064107008
B1230245207929N01237062EA0098301064109004
K123024180018
B1230285207958N01236962EA0098601072107012
B1230325207937N01236862EA0098601072105008
B1230365207883N01236825EA0098901072111012
B1230405207829N01236850EA0100101080110012
B1230445207808N01236945EA0100101080110008
K123044172016
B1230485207845N01237054EA0099601080115008
B1230525207925N01237075EA0100001088114008
B1230565207979N01237000EA0101001096113008
B1231005207966N01236895EA0101401096111008
B1231045207908N01236870EA0101701096120008
K123104188015
B1231085207858N01236937EA0102001104114012
B1231125207837N01237050EA0100901096126008
B1231165207812N01237175EA0100301088132004
B1231205207779N01237300EA0099101072138008
B1231245207737N01237416EA0098001064140004
K123124190016
B1231285207687N01237529EA0097601056143004
B1231325207641N01237650EA0097401056143004
B1231365207600N01237770EA0097001048145004
B1231405207566N01237887EA0098801064138004
B1231445207525N01237979EA0100501088118004
K123144136017
B1231485207470N01238037EA0101101096115008
B1231525207412N01238058EA0102001104114008
B1231565207350N01238045EA0103301120108012
B1232005207304N01237970EA0103301120114008
B1232045207308N01237845EA0103501120115004
K123204164017
B1232085207370N01237754EA0103701120124008
B1232125207450N01237754EA0104101120119012
B1232165207508N01237833EA0104101120122008
B1232205207516N01237945EA0104701128116008
B1232245207475N01238029EA0105401136114008
K123224164017
B1232285207416N01238045EA0106401144118008
B1232325207370N01237975EA0107001152107008
B1232365207370N01237854EA0106801152111004
B1232405207420N01237750EA0106501152115008
B1232445207500N01237733EA0106501152118008
K123244148015
B1232485207575N01237791EA0106501144122008
B1232525207641N01237866EA0105901144125012
B1232565207708N01237945EA0105601136132008
B1233005207779N01238025EA0106601144124008
B1233045207841N01238104EA0108001160118008
K123304150015
B1233085207875N01238208EA0108901168112008
B1233125207850N01238308EA0109401176114008
B1233165207795N01238345EA0110401184113004
B1233205207745N01238295EA0111101192113008
B1233245207737N01238183EA0112001200110008
K123324150015
B1233285207779N01238079EA0112501208111008
B1233325207858N01238058EA0112501208113004
B1233365207920N01238129EA0112801208114008
B1233405207929N01238241EA0113001216113008
B1233445207887N01238316EA0114501224117008
K123344170019
B1233485207829N01238308EA0115601240111008
B1233525207795N01238216EA0115701240111008
B1233565207812N01238095EA0115201232108004
B1234005207879N01238020EA0115101232117008
B1234045207962N01238045EA0115401240115008
K123404168018
B1234085208000N01238150EA0116001240115008
B1234125207991N01238258EA0116701248117008
B1234165207945N01238325EA0117901264114008
B1234205207891N01238295EA0118101264113008
B1234245207870N01238195EA0118101264108008
K123424164018
B1234285207904N01238083EA0117901264108008
B1234325207979N01238029EA0117601264116008
B1234365208058N01238066EA0118601272109008
B1234405208095N01238154EA0119501280105008
B1234445208083N01238254EA0119501280113008
K123444162018
B1234485208029N01238291EA0120101280113008
B1234525207979N01238233EA0120801296113008
B1234565207983N01238116EA0120901296110008
B1235005208037N01238020EA0120901296115008
B1235045208116N01238016EA0121601304112008
K123504166020
B1235085208175N01238091EA0122201304110012
B1235125208179N01238200EA0122601312116008
B1235165208133N01238266EA0124001320114008
B1235205208079N01238241EA0125401336103008
B1235245208058N01238145EA0125401344108008
K123524164019
B1235285208091N01238033EA0125301336111008
B1235325208166N01237983EA0125501344111008
B1235365208241N01238016EA0126301352104008
B1235405208275N01238112EA0126301344113008
B1235445208270N01238220EA0127001360108008
K123544162019
B1235485208237N01238295EA0127501360111012
B1235525208179N01238283EA0127801360119008
B1235565208154N01238183EA0127801368110008
B1236005208183N01238062EA0127801368114008
B1236045208262N01238008EA0128301368113004
K123604164023
B1236085208341N01238033EA0129001376108008
B1236125208391N01238116EA0129201384107008
B1236165208395N01238225EA0129501384111008
B1236205208362N01238316EA0130201384113012
B1236245208325N01238404EA0130601392122008
K123624168024
B1236285208291N01238504EA0131801400121004
B1236325208279N01238620EA0132501408118008
B1236365208304N01238745EA0134101432116004
B1236405208370N01238804EA0135301440110004
B1236445208441N01238754EA0135601448112008
K123644168024
B1236485208454N01238645EA0135801448117008
B1236525208400N01238583EA0136601456125004
B1236565208350N01238654EA0138701472118008
B1237005208358N01238775EA0139801488115008
B1237045208420N01238862EA0140601496116008
K123704200020
B1237085208500N01238854EA0141401504116004
B1237125208550N01238758EA0141801512115008
B1237165208533N01238650EA0142101512117008
B1237205208475N01238616EA0143201520120008
B1237245208429N01238695EA0144701536116012
K123724196018
B1237285208437N01238816EA0146201552111008
B1237325208495N01238904EA0147001560112008
B1237365208575N01238908EA0147101568109008
B1237405208629N01238825EA0147601568109004
B1237445208625N01238716EA0147801568114008
K123744198019
B1237485208575N01238650EA0149001584112012
B1237525208516N01238679EA0150301592114008
B1237565208487N01238783EA0150801600117008
B1238005208512N01238908EA0151501608116008
B1238045208579N01238987EA0152301616115004
K123804198018
B1238085208662N01238995EA0152901624106008
B1238125208725N01238933EA0152901624106008
B1238165208750N01238829EA0152901624110008
B1238205208733N01238725EA0152801616116008
B1238245208683N01238666EA0153101624119008
K123824194019
B1238285208620N01238691EA0154801640115012
B1238325208579N01238775EA0155701648113008
B1238365208583N01238900EA0156101656114004
B1238405208637N01239004EA0156501656115008
B1238445208712N01239075EA0157301664113008
K123844198021
B1238485208795N01239075EA0157501664108008
B1238525208858N01239008EA0157501664109008
B1238565208887N01238900EA0156701656113008
B1239005208891N01238783EA0156801664111008
B1239045208862N01238687EA0156701656116008
K123904194021
B1239085208808N01238637EA0157301664117008
B1239125208745N01238641EA0158801680114008
B1239165208695N01238700EA0158901680109008
B1239205208670N01238808EA0158701680113008
B1239245208691N01238929EA0158701680110004
K123924194020
B1239285208750N01239025EA0158801680112008
B1239325208825N01239087EA0159101680118008
B1239365208912N01239091EA0159101688114008
B1239405208983N01239029EA0159201688114004
B1239445209020N01238920EA0159201680115008
K123944194019
B1239485209025N01238804EA0158701680112008
B1239525209000N01238704EA0158201672112008
B1239565208958N01238616EA0158101672115008
B1240005208904N01238554EA0158601680115008
B1240045208841N01238558EA0159101680119008
K124004192018
B1240085208795N01238625EA0159201688109008
B1240125208775N01238737EA0158801680116008
B1240165208795N01238862EA0158101672115008
B1240205208841N01238975EA0158301672111008
B1240245208904N01239062EA0158801680112008
K124024188018
B1240285208983N01239108EA0158901680113008
B1240325209066N01239091EA0159101688109008
B1240365209125N01239012EA0159201688111012
B1240405209145N01238900EA0159201680112008
B1240445209137N01238791EA0159001680112012
K124044190019
B1240485209104N01238695EA0159001680114012
B1240525209054N01238625EA0159101680115008
B1240565208991N01238595EA0159101680118008
B1241005208929N01238629EA0159401688116008
B1241045208887N01238716EA0159601688114008
K124104192017
B1241085208862N01238829EA0159301688117012
B1241125208866N01238962EA0158501672118008
B1241165208900N01239087EA0157901672118008
B1241205208958N01239187EA0158101672114008
B1241245209033N01239262EA0158101672118008
K124124196017
B1241285209120N01239304EA0158101672117008
B1241325209200N01239291EA0158001672113008
B1241365209270N01239220EA0157501664114008
B1241405209320N01239133EA0157001656112004
B1241445209354N01239025EA0156901656111008
K124144196017
B1241485209358N01238912EA0156401656110008
B1241525209329N01238816EA0155701648114008
B1241565209275N01238750EA0155701648114008
B1242005209212N01238725EA0155801648116008
B1242045209150N01238737EA0155801648114008
K124204196017
B1242085209095N01238795EA0156101648116008
B1242125209050N01238883EA0156301656114012
B1242165209037N01239004EA0155201648112008
B1242205209058N01239133EA0155301648117008
B1242245209104N01239245EA0156001656112008
K124224196017
B1242285209170N01239325EA0156501656109008
B1242325209250N01239362EA0156201656111008
B1242365209329N01239350EA0156001648108008
B1242405209404N01239300EA0155401648109008
B1242445209462N01239216EA0155401648111008
K124244196017
B1242485209495N01239116EA0155201648112008
B1242525209504N01239004EA0155201648108004
B1242565209495N01238895EA0154101632110008
B1243005209458N01238808EA0153801632113012
B1243045209408N01238737EA0153601632113008
K124304196017
B1243085209354N01238687EA0153201624110008
B1243125209291N01238670EA0152701616116008
B1243165209225N01238704EA0152801616117008
B1243205209170N01238762EA0153301624111008
B1243245209137N01238858EA0153301624111008
K124324196017
B1243285209133N01238975EA0153601632109008
B1243325209158N01239091EA0153701632106012
B1243365209208N01239191EA0153001624106008
B1243405209275N01239275EA0152701616109008
B1243445209354N01239320EA0152501616109008
K124344196017
B1243485209437N01239337EA0152501616112008
B1243525209516N01239312EA0152101616113008
B1243565209583N01239254EA0152101608111012
B1244005209633N01239162EA0151901608109008
B1244045209658N01239050EA0151601608110008
K124404196017
B1244085209654N01238941EA0150701600108008
B1244125209625N01238845EA0150401600110008
B1244165209583N01238766EA0149901592111008
B1244205209537N01238695EA0149901592111008
B1244245209483N01238641EA0149601592114008
K124424196017
B1244285209420N01238633EA0149601592112004
B1244325209358N01238670EA0149601592110008
B1244365209316N01238754EA0149101584116008
B1244405209287N01238866EA0148201576124008
B1244445209254N01238987EA0147701568127012
K124444196017
B1244485209225N01239112EA0147201560134008
B1244525209195N01239245EA0146501560134008
B1244565209162N01239379EA0145801544133008
B1245005209129N01239516EA0144901536137004
B1245045209095N01239650EA0144901536143008
K124504140006
B1245085209066N01239787EA0144601536140004
B1245125209037N01239925EA0143801528143004
B1245165209008N01240062EA0143501520143004
B1245205208979N01240200EA0143101520142004
B1245245208954N01240333EA0143101520138004
K124524044000
B1245285208929N01240466EA0142701520136004
B1245325208904N01240600EA0142201512136004
B1245365208883N01240737EA0142201512136004
B1245405208866N01240870EA0141601504136004
B1245445208845N01241012EA0141001496138004
K124544224001
B1245485208833N01241154EA0140201488142004
B1245525208820N01241295EA0139901488141004
B1245565208804N01241437EA0139201480143004
B1246005208783N01241579EA0138801472143004
B1246045208766N01241720EA0138201472139004
K124604214003
B1246085208745N01241858EA0137501464139004
B1246125208729N01241995EA0137201456140004
B1246165208708N01242133EA0136701456140004
B1246205208687N01242270EA0136401448141004
B1246245208666N01242408EA0135501448138004
K124624198006
B1246285208645N01242550EA0133501432148004
B1246325208625N01242695EA0133201416149004
B1246365208604N01242833EA0133101416142004
B1246405208587N01242970EA0133201424140004
B1246445208566N01243104EA0133101424140004
K124644190005
B1246485208541N01243237EA0133201416140004
B1246525208525N01243366EA0134001432130004
B1246565208516N01243495EA0134101432121004
B1247005208508N01243616EA0134101432120004
B1247045208495N01243737EA0135201440117004
K124704206004
B1247085208466N01243837EA0136401456110004
B1247125208416N01243895EA0136501456110004
B1247165208354N01243879EA0136901464108012
B1247205208308N01243804EA0137701472112008
B1247245208308N01243691EA0138301472107012
K124724206008
B1247285208370N01243620EA0138401480114012
B1247325208445N01243654EA0138701480112008
B1247365208479N01243766EA0138901488112008
B1247405208450N01243858EA0139401488111008
B1247445208387N01243858EA0139401488113008
K124744178012
B1247485208337N01243779EA0140701504114012
B1247525208325N01243670EA0142001512109008
B1247565208375N01243583EA0142301520110012
B1248005208454N01243587EA0142301520113012
B1248045208508N01243670EA0142801520109008
K124804176014
B1248085208512N01243787EA0143201528110008
B1248125208462N01243854EA0143401536111028
B1248165208400N01243845EA0144701544112016
B1248205208350N01243783EA0145601552107000
B1248245208333N01243679EA0146201560107016
K124824176012
B1248285208366N01243575EA0146401560111004
B1248325208437N01243537EA0146601568108000
B1248365208508N01243595EA0146801568111008
B1248405208529N01243708EA0147301576113008
B1248445208495N01243800EA0148301584108008
K124844172012
B1248485208437N01243820EA0149001592109008
B1248525208383N01243770EA0149801600103008
B1248565208358N01243666EA0150301600106008
B1249005208370N01243554EA0150701608105008
B1249045208433N01243487EA0150601600108008
K124904168012
B1249085208508N01243487EA0150601608109028
B1249125208570N01243554EA0150801608104016
B1249165208595N01243662EA0150901616108000
B1249205208579N01243762EA0151801624110016
B1249245208525N01243816EA0153601632104012
K124924170012
B1249285208466N01243816EA0154501648103008
B1249325208416N01243758EA0154701648105004
B1249365208391N01243650EA0154601648109008
B1249405208404N01243533EA0154601648108004
B1249445208458N01243454EA0154501640106004
K124944168011
B1249485208529N01243433EA0153701632102012
B1249525208600N01243475EA0153301632108008
B1249565208654N01243558EA0153601632104008
B1250005208670N01243666EA0153901640108008
B1250045208654N01243766EA0154801640105008
K125004166011
B1250085208612N01243837EA0156001656102008
B1250125208554N01243862EA0156601664104004
B1250165208495N01243812EA0157001664107008
B1250205208462N01243716EA0157001664110004
B1250245208458N01243595EA0156501664112004
K125024168011
B1250285208491N01243491EA0155401648110004
B1250325208562N01243433EA0154701640112004
B1250365208633N01243420EA0154501640106008
B1250405208704N01243458EA0154201640105008
B1250445208754N01243541EA0154201640106008
K125044164011
B1250485208779N01243645EA0154201640107008
B1250525208766N01243750EA0154801648106008
B1250565208725N01243825EA0156001656104008
B1251005208670N01243870EA0156601664105012
B1251045208608N01243875EA0157301672104008
K125104164010
B1251085208554N01243812EA0157001664111004
B1251125208529N01243704EA0156501656108008
B1251165208533N01243583EA0154701640115004
B1251205208570N01243475EA0153501632112004
B1251245208641N01243420EA0152101616109008
K125124166010
B1251285208716N01243404EA0151601608115008
B1251325208791N01243441EA0151601608110008
B1251365208845N01243520EA0151801608110008
B1251405208879N01243625EA0152301616107008
B1251445208883N01243737EA0152801624110008
K125144168010
B1251485208862N01243841EA0152901624107004
B1251525208825N01243937EA0153101624107008
B1251565208775N01244008EA0153901632106008
B1252005208712N01244054EA0154701640106008
B1252045208650N01244045EA0153801640105012
K125204178008
B1252085208595N01243983EA0152201624120008
B1252125208575N01243875EA0151201608114008
B1252165208600N01243754EA0149901600116008
B1252205208662N01243683EA0149001584115008
B1252245208741N01243716EA0148701576118008
K125224192008
B1252285208791N01243808EA0148701584110008
B1252325208800N01243925EA0149301584113008
B1252365208758N01244020EA0149301584110008
B1252405208695N01244012EA0148401584112008
B1252445208666N01243912EA0146901568113008
K125244190011
B1252485208691N01243795EA0146001552110008
B1252525208750N01243712EA0144901536110012
B1252565208825N01243683EA0144101536115008
B1253005208900N01243712EA0145001544108004
B1253045208937N01243808EA0145601544108008
K125304184012
B1253085208920N01243912EA0145901552111008
B1253125208866N01243970EA0146101552109008
B1253165208800N01243983EA0146101552112008
B1253205208741N01243958EA0144101544109008
B1253245208720N01243854EA0142701520116008
K125324172012
B1253285208766N01243745EA0142101512113008
B1253325208837N01243687EA0141101504110008
B1253365208916N01243670EA0140701496109008
B1253405208991N01243691EA0140701496103008
B1253445209058N01243745EA0140501496105008
K125344178014
B1253485209100N01243841EA0141201504106008
B1253525209112N01243954EA0142501512107008
B1253565209100N01244066EA0143701528107012
B1254005209058N01244150EA0144201536107008
B1254045209000N01244183EA0144501536107004
K125404190015
B1254085208937N01244170EA0144101536109008
B1254125208883N01244116EA0143101520116004
B1254165208850N01244029EA0142501520109004
B1254205208850N01243920EA0141001504106004
B1254245208883N01243812EA0139301488112004
K125424186015
B1254285208945N01243725EA0137901472114008
B1254325209020N01243683EA0137301464110008
B1254365209100N01243687EA0137301464105008
B1254405209179N01243716EA0137801472102008
B1254445209245N01243775EA0138501472104004
K125444186015
B1254485209287N01243870EA0139701488102008
B1254525209300N01243979EA0140601496105012
B1254565209270N01244070EA0140701496113008
B1255005209208N01244100EA0141601504109008
B1255045209154N01244054EA0142201512109008
K125504182018
B1255085209120N01243962EA0142201512106004
B1255125209133N01243845EA0141501504108008
B1255165209179N01243750EA0141001496112004
B1255205209250N01243695EA0141301504107004
B1255245209329N01243687EA0142101512106008
K125524178017
B1255285209404N01243729EA0142601520107008
B1255325209458N01243804EA0143701528105004
B1255365209487N01243908EA0144201536101008
B1255405209491N01244016EA0145401544107004
B1255445209479N01244120EA0145901552099004
K125544176016
B1255485209441N01244200EA0145901552105004
B1255525209383N01244216EA0146101560105004
B1255565209341N01244145EA0146101552112004
B1256005209337N01244029EA0146201560108004
B1256045209362N01243916EA0147101568108004
K125604182016
B1256085209408N01243820EA0148101576104004
B1256125209475N01243766EA0148901584104004
B1256165209550N01243775EA0149501592108004
B1256205209616N01243837EA0149501592106004
B1256245209645N01243941EA0149801592108004
K125624182014
B1256285209633N01244050EA0149701592108020
B1256325209591N01244129EA0149901592109012
B1256365209537N01244179EA0150301600109000
B1256405209479N01244166EA0150301600111008
B1256445209433N01244095EA0150601600110012
K125644178014
B1256485209408N01243991EA0150801600110008
B1256525209420N01243875EA0150701600112008
B1256565209483N01243795EA0150801600112008
B1257005209558N01243820EA0150801600109012
B1257045209591N01243929EA0150401600113008
K125704182012
B1257085209570N01244033EA0150401600112012
B1257125209508N01244066EA0150401600114012
B1257165209454N01244000EA0150401600113012
B1257205209450N01243887EA0150101592114012
B1257245209500N01243791EA0150001592113012
K125724178013
B1257285209575N01243750EA0150001592112012
B1257325209654N01243754EA0150401600108008
B1257365209725N01243812EA0151201600110008
B1257405209766N01243916EA0151701608108012
B1257445209766N01244029EA0151701608108008
K125744182015
B1257485209725N01244116EA0151601608111004
B1257525209662N01244150EA0151701608112008
B1257565209600N01244129EA0151601608109008
B1258005209554N01244050EA0151301608113008
B1258045209537N01243937EA0151201608111008
K125804184012
B1258085209558N01243825EA0150401600113008
B1258125209616N01243741EA0150401600111008
B1258165209687N01243704EA0150901608107008
B1258205209766N01243708EA0151201608103008
B1258245209837N01243762EA0151701608107008
K125824182013
B1258285209891N01243854EA0151601616108008
B1258325209904N01243970EA0151801616106008
B1258365209887N01244075EA0151601608106008
B1258405209845N01244158EA0151301608111008
B1258445209783N01244191EA0151301608109004
K125844186013
B1258485209720N01244170EA0150801600108008
B1258525209666N01244120EA0150401600108008
B1258565209625N01244037EA0149601592110008
B1259005209620N01243920EA0149101584112008
B1259045209650N01243816EA0148001576108008
K125904184013
B1259085209700N01243729EA0147701568107008
B1259125209766N01243666EA0147801576107008
B1259165209837N01243629EA0149001584099008
B1259205209912N01243625EA0149501592105008
B1259245209975N01243691EA0149401592106012
K125924180013
B1259285210000N01243795EA0149401592108008
B1259325209975N01243895EA0148901584108008
B1259365209925N01243962EA0148801584112008
B1259405209866N01243987EA0148801584111008
B1259445209804N01243954EA0147801576108008
K125944168012
B1259485209758N01243879EA0146901568112008
B1259525209741N01243770EA0145801552110008
B1259565209775N01243662EA0144601544110004
B1300005209837N01243587EA0144601544109008
B1300045209904N01243529EA0145201552108008
K130004170012
B1300085209979N01243491EA0146401560103008
B1300125210054N01243495EA0147101568103004
B1300165210116N01243554EA0147101568104008
B1300205210145N01243658EA0146901568106008
B1300245210133N01243762EA0146901560106008
K130024170013
B1300285210100N01243845EA0146901560107008
B1300325210041N01243862EA0147101568105008
B1300365209991N01243804EA0147801576103008
B1300405209975N01243695EA0148501576107008
B1300445210008N01243591EA0149501592106012
K130044172015
B1300485210070N01243529EA0150501608103008
B1300525210150N01243529EA0150801608105004
B1300565210204N01243604EA0150801608108008
B1301005210212N01243712EA0150701600109004
B1301045210166N01243783EA0150601600111004
K130104162015
B1301085210104N01243791EA0151201608113012
B1301125210045N01243745EA0151801616109008
B1301165210016N01243645EA0151301608111008
B1301205210029N01243529EA0151301608110008
B1301245210079N01243437EA0151301608106004
K130124158015
B1301285210150N01243412EA0151001608105008
B1301325210220N01243454EA0151201608103008
B1301365210266N01243541EA0151201608102008
B1301405210270N01243645EA0151001608107012
B1301445210241N01243733EA0151401608107008
K130144160013
B1301485210191N01243779EA0152401616106008
B1301525210137N01243745EA0152601624105008
B1301565210108N01243645EA0151601616108008
B1302005210129N01243529EA0151101608116008
B1302045210191N01243445EA0151201608112008
K130204172015
B1302085210262N01243404EA0152001616103008
B1302125210341N01243425EA0151601608110012
B1302165210395N01243504EA0151101608112008
B1302205210412N01243616EA0151101608108008
B1302245210400N01243716EA0150801600105008
K130224172016
B1302285210358N01243787EA0150801608103008
B1302325210300N01243812EA0150801608101008
B1302365210245N01243791EA0151701616105008
B1302405210204N01243725EA0152001616103008
B1302445210200N01243620EA0151101608105008
K130244176013
B1302485210237N01243516EA0149001584109008
B1302525210308N01243458EA0148301576112008
B1302565210387N01243437EA0149001584109008
B1303005210458N01243466EA0149001584106008
B1303045210504N01243562EA0149001584112008
K130304176013
B1303085210516N01243679EA0149201584109012
B1303125210491N01243779EA0149001584113008
B1303165210441N01243837EA0149001584105008
B1303205210379N01243854EA0148901584107008
B1303245210320N01243820EA0149501592109008
K130324176013
B1303285210279N01243745EA0149401592104008
B1303325210266N01243637EA0147501576108012
B1303365210316N01243541EA0145801560116008
B1303405210395N01243500EA0145801552110004
B1303445210475N01243516EA0146501560112008
K130344174012
B1303485210537N01243579EA0147601568104008
B1303525210566N01243679EA0147601568108008
B1303565210554N01243779EA0147601568105004
B1304005210508N01243845EA0147501568107008
B1304045210445N01243858EA0147501568107008
K130404170013
B1304085210395N01243800EA0147901576109008
B1304125210379N01243691EA0147201568105008
B1304165210420N01243591EA0146901560109008
B1304205210491N01243537EA0146901568106008
B1304245210566N01243550EA0147001560105008
K130424168013
B1304285210625N01243625EA0147301568107008
B1304325210641N01243733EA0147901576104008
B1304365210608N01243816EA0147501568110008
B1304405210545N01243833EA0146901560112008
B1304445210487N01243779EA0146901568114008
K130444168014
B1304485210458N01243670EA0146901560109008
B1304525210487N01243554EA0146001560111008
B1304565210554N01243479EA0146001552112008
B1305005210633N01243475EA0146101560107008
B1305045210700N01243533EA0146601560107008
K130504158016
B1305085210729N01243637EA0146901568106008
B1305125210716N01243737EA0146901568103008
B1305165210666N01243800EA0146301560110008
B1305205210600N01243800EA0146001552111008
B1305245210541N01243741EA0146201560112008
K130524162014
B1305285210508N01243641EA0145401552115008
B1305325210495N01243520EA0143401536126012
B1305365210475N01243391EA0142601520130008
B1305405210454N01243262EA0141601504135008
B1305445210437N01243129EA0141501504138008
K130544168014
B1305485210429N01242991EA0140701496139008
B1305525210433N01242854EA0140501496135008
B1305565210437N01242716EA0140101496132004
B1306005210450N01242579EA0139901488131008
B1306045210462N01242445EA0139601488129004
K130604172016
B1306085210466N01242308EA0138901480129004
B1306125210470N01242175EA0138201472129004
B1306165210470N01242037EA0138101472131004
B1306205210466N01241904EA0137901472127004
B1306245210466N01241770EA0137201464129004
K130624164034
B1306285210462N01241637EA0136501456133004
B1306325210458N01241504EA0136501456132004
B1306365210450N01241379EA0137101464130004
B1306405210445N01241262EA0136501456129004
B1306445210437N01241141EA0135901448127004
K130644166038
B1306485210429N01241020EA0134501432131004
B1306525210425N01240900EA0134401432129008
B1306565210425N01240775EA0134601440127008
B1307005210429N01240654EA0134901440126012
B1307045210437N01240533EA0135101448121008
K130704180026
B1307085210441N01240416EA0135501448118004
B1307125210433N01240300EA0135301448123008
B1307165210400N01240195EA0135001440119004
B1307205210354N01240108EA0134401440113004
B1307245210291N01240083EA0134601440119004
K130724180026
B1307285210233N01240125EA0136001456109004
B1307325210204N01240220EA0136101456109008
B1307365210220N01240337EA0136401456107008
B1307405210283N01240425EA0136401456110008
B1307445210366N01240441EA0136401464108008
K130744180026
B1307485210433N01240370EA0136601464114012
B1307525210454N01240254EA0137401464113008
B1307565210437N01240141EA0137401464114008
B1308005210391N01240066EA0137301464114008
B1308045210329N01240054EA0138401480115012
K130804188016
B1308085210279N01240108EA0139401488109008
B1308125210258N01240216EA0139501488112008
B1308165210287N01240329EA0139701496108008
B1308205210354N01240404EA0140101496104004
B1308245210433N01240404EA0140101496110008
K130824188017
B1308285210495N01240329EA0140101496108012
B1308325210520N01240216EA0140301496110008
B1308365210504N01240108EA0140301496113008
B1308405210462N01240033EA0140901504111008
B1308445210400N01240020EA0141301504110012
K130844188017
B1308485210345N01240075EA0140801504109008
B1308525210325N01240183EA0140401496112008
B1308565210350N01240300EA0140401496107008
B1309005210408N01240379EA0140601504104008
B1309045210483N01240400EA0141301512105008
K130904188015
B1309085210558N01240362EA0140701504107012
B1309125210600N01240258EA0140601504114008
B1309165210604N01240137EA0141101504114008
B1309205210562N01240050EA0141301504115008
B1309245210504N01240029EA0142001512113008
K130924192014
B1309285210458N01240100EA0141701512113008
B1309325210450N01240220EA0141501504110004
B1309365210487N01240333EA0141501504115008
B1309405210566N01240375EA0142101520116008
B1309445210637N01240345EA0142701520107008
K130944184014
B1309485210691N01240254EA0143001528110004
B1309525210708N01240141EA0143001520110008
B1309565210679N01240045EA0142401520108004
B1310005210620N01240008EA0142601520114004
B1310045210562N01240037EA0142201520109008
K131004182015
B1310085210520N01240129EA0141801512110008
B1310125210529N01240250EA0141001504112008
B1310165210575N01240354EA0140801504111008
B1310205210650N01240395EA0141201504111008
B1310245210725N01240375EA0141301512107008
K131024190016
B1310285210779N01240291EA0141301504107008
B1310325210787N01240179EA0141601512105008
B1310365210754N01240091EA0140801504114012
B1310405210695N01240075EA0141201504111008
B1310445210645N01240137EA0141001504108008
K131044194017
B1310485210629N01240245EA0140701504107008
B1310525210645N01240362EA0140701504107008
B1310565210700N01240445EA0140401496114008
B1311005210779N01240445EA0140101496110004
B1311045210841N01240375EA0140001496112008
K131104190015
B1311085210866N01240266EA0140601504110008
B1311125210841N01240166EA0141301512108008
B1311165210783N01240129EA0141701512111008
B1311205210720N01240170EA0141701512116008
B1311245210662N01240233EA0140501504119008
K131124192013
B1311285210587N01240258EA0139601488128008
B1311325210512N01240270EA0138801480129004
B1311365210437N01240287EA0138101472135008
B1311405210362N01240312EA0137201464137004
B1311445210287N01240308EA0137301464128004
K131144182022
B1311485210220N01240304EA0137501464121004
B1311525210154N01240312EA0137501464116004
B1311565210083N01240329EA0136801464120004
B1312005210016N01240350EA0136201456127004
B1312045209945N01240375EA0136101456127004
K131204106021
B1312085209875N01240387EA0136901464115004
B1312125209816N01240429EA0137001464113004
B1312165209754N01240479EA0136301448122004
B1312205209691N01240537EA0135401448123004
B1312245209629N01240600EA0135001440125004
K131224100020
B1312285209566N01240654EA0135301448121004
B1312325209500N01240675EA0136001448119004
B1312365209445N01240629EA0137801472114004
B1312405209437N01240533EA0138901480104004
B1312445209470N01240437EA0139201480104008
K131244102014
B1312485209545N01240395EA0139201480115008
B1312525209616N01240458EA0140001496114008
B1312565209637N01240579EA0141101504109008
B1313005209595N01240666EA0141301504110008
B1313045209533N01240658EA0141301504116008
K131304198016
B1313085209500N01240570EA0142601520113004
B1313125209520N01240466EA0143001520109008
B1313165209595N01240408EA0142401520109008
B1313205209675N01240416EA0143701528112008
B1313245209729N01240512EA0145001544109012
K131324192019
B1313285209716N01240625EA0145001544110008
B1313325209658N01240675EA0144601536118008
B1313365209600N01240629EA0145501552116008
B1313405209583N01240525EA0146201560112008
B1313445209625N01240429EA0146401560104008
K131344190017
B1313485209700N01240383EA0146401560105008
B1313525209775N01240420EA0147601568107008
B1313565209812N01240525EA0148701584109008
B1314005209804N01240637EA0149501584108008
B1314045209754N01240700EA0149001584106004
K131404190017
B1314085209695N01240679EA0149501592116008
B1314125209658N01240600EA0150301600110004
B1314165209666N01240491EA0150301600109004
B1314205209725N01240412EA0149901592107008
B1314245209804N01240383EA0149901592106008
K131424190019
B1314285209879N01240420EA0151201608099008
B1314325209920N01240525EA0151701608105008
B1314365209908N01240637EA0152001616112008
B1314405209854N01240687EA0152901624108008
B1314445209804N01240641EA0153301632111004
K131444188020
B1314485209795N01240537EA0153301632110008
B1314525209841N01240437EA0153201624108004
B1314565209916N01240379EA0153201624110004
B1315005210000N01240395EA0154801640104004
B1315045210054N01240479EA0155301648105004
K131504188021
B1315085210070N01240591EA0155801656104004
B1315125210045N01240691EA0155501648107004
B1315165209987N01240729EA0155201648116004
B1315205209933N01240675EA0156001656120004
B1315245209912N01240570EA0157001664116008
K131524186022
B1315285209945N01240466EA0157501672104008
B1315325210020N01240408EA0157501672104008
B1315365210104N01240412EA0157601672112008
B1315405210166N01240495EA0158601680110008
B1315445210183N01240612EA0158901688113008
K131544184021
B1315485210158N01240716EA0158901688106004
B1315525210104N01240770EA0158401680116008
B1315565210037N01240766EA0158601688116008
B1316005209987N01240704EA0159201688117008
B1316045209966N01240600EA0159401696111008
K131604186020
B1316085209991N01240491EA0159201688112008
B1316125210058N01240420EA0159001688110008
B1316165210133N01240395EA0160001696105008
B1316205210212N01240408EA0161101704106004
B1316245210275N01240483EA0161501712105008
K131624190018
B1316285210291N01240595EA0161501712103004
B1316325210262N01240691EA0161501712108004
B1316365210208N01240745EA0161901720110008
B1316405210150N01240737EA0162201720109008
B1316445210120N01240645EA0162601728108008
K131644190018
B1316485210141N01240537EA0162901728108008
B1316525210200N01240454EA0163601736104008
B1316565210275N01240433EA0164501744104008
B1317005210345N01240491EA0165101752108008
B1317045210370N01240604EA0165301752105008
K131704188018
B1317085210345N01240708EA0165101752109004
B1317125210295N01240766EA0165401752110008
B1317165210233N01240745EA0165901760112008
B1317205210195N01240666EA0165901760111008
B1317245210195N01240554EA0165301752108012
K131724188017
B1317285210237N01240458EA0165301752106008
B1317325210304N01240400EA0166101760103008
B1317365210383N01240387EA0166501760106008
B1317405210450N01240441EA0166501760108008
B1317445210479N01240545EA0166601760107008
K131744186016
B1317485210454N01240650EA0165501752110008
B1317525210395N01240704EA0165401752114008
B1317565210333N01240695EA0165601752115024
B1318005210287N01240612EA0166201760115016
B1318045210287N01240500EA0166201760112000
K131804180014
B1318085210333N01240404EA0166201760108012
B1318125210408N01240354EA0166201760113012
B1318165210487N01240366EA0166601768109008
B1318205210550N01240437EA0166901768107004
B1318245210575N01240545EA0166901768111008
K131824178014
B1318285210550N01240650EA0166601768111012
B1318325210491N01240687EA0166501760112008
B1318365210433N01240641EA0166501760112012
B1318405210404N01240545EA0167001768112012
B1318445210437N01240437EA0167001768114008
K131844178015
B1318485210516N01240395EA0167001768112008
B1318525210583N01240458EA0167801776113012
B1318565210600N01240575EA0167801776110008
B1319005210554N01240650EA0167301768114008
B1319045210491N01240629EA0167501776120008
K131904176016
B1319085210462N01240529EA0167801776113008
B1319125210500N01240420EA0168101776110008
B1319165210575N01240375EA0168301784110008
B1319205210645N01240445EA0168201776114008
B1319245210650N01240566EA0167901776119024
K131924176017
B1319285210616N01240675EA0166201760132016
B1319325210570N01240795EA0165001744138000
B1319365210525N01240920EA0165901752137012
B1319405210479N01241045EA0165001744136008
B1319445210429N01241158EA0164501744134004
K131944170017
B1319485210375N01241266EA0163301728134004
B1319525210329N01241383EA0162801720139008
B1319565210275N01241462EA0163001728126012
B1320005210216N01241416EA0163201728124008
B1320045210195N01241300EA0162801728123008
K132004170017
B1320085210216N01241170EA0162301720125008
B1320125210262N01241054EA0160901704131004
B1320165210320N01240929EA0159001688143008
B1320205210375N01240804EA0158701680147004
B1320245210433N01240679EA0158901680143004
K132024170017
B1320285210487N01240550EA0158901680141004
B1320325210537N01240425EA0158501680139004
B1320365210591N01240291EA0157201664147004
B1320405210645N01240158EA0156401656144004
B1320445210704N01240025EA0156001648143004
K132044152013
B1320485210750N01239879EA0155201648146004
B1320525210795N01239733EA0154301640145004
B1320565210837N01239579EA0153301624154004
B1321005210875N01239425EA0153201624157004
B1321045210916N01239270EA0153201624153004
K132104164018
B1321085210954N01239120EA0152201616156004
B1321125210995N01238966EA0151601608156004
B1321165211033N01238808EA0151601600163004
B1321205211070N01238654EA0151601608158004
B1321245211108N01238508EA0151601600152004
K132124184028
B1321285211145N01238358EA0150301592152004
B1321325211179N01238208EA0149901584153004
B1321365211216N01238054EA0148901576154004
B1321405211254N01237895EA0148201576157004
B1321445211287N01237733EA0148401568158004
K132144186026
B1321485211312N01237579EA0149801592150004
B1321525211333N01237433EA0149901592141004
B1321565211358N01237287EA0148701576143008
B1322005211387N01237133EA0147001560153008
B1322045211420N01236970EA0145601544160004
K132204178025
B1322085211450N01236804EA0144901536160008
B1322125211483N01236641EA0144401536159004
B1322165211512N01236479EA0144401528159004
B1322205211541N01236320EA0144901536157004
B1322245211570N01236170EA0146401552151004
K132224178026
B1322285211591N01236025EA0146801560144008
B1322325211616N01235870EA0145101544154008
B1322365211641N01235720EA0145701544147004
B1322405211666N01235570EA0144901544144008
B1322445211695N01235412EA0145901520149004
K132244176027
B1322485211725N01235254EA0143101520153004
B1322525211754N01235095EA0142201512154004
B1322565211783N01234933EA0142001504154004
B1323005211812N01234775EA0141501504149012
B1323045211841N01234620EA0140501488155008
K132304172027
B1323085211870N01234458EA0139901488159004
B1323125211900N01234300EA0139101472160008
B1323165211929N01234137EA0137901464161004
B1323205211954N01233979EA0137801464165004
B1323245211975N01233825EA0139401472157004
K132324180028
B1323285211995N01233683EA0139601480149004
B1323325212016N01233537EA0139701488150008
B1323365212033N01233395EA0140401488143008
B1323405212041N01233250EA0140701496144004
B1323445212045N01233104EA0141601504144008
K132344188027
B1323485212050N01232958EA0142501512139008
B1323525212054N01232808EA0140801504149008
B1323565212070N01232645EA0139601480156004
B1324005212091N01232479EA0137901464160008
B1324045212120N01232308EA0137901464168004
K132404174010
B1324085212150N01232141EA0137201456167004
B1324125212183N01231979EA0136701456163008
B1324165212216N01231820EA0136301448164008
B1324205212254N01231666EA0135601440160008
B1324245212295N01231516EA0134901432157008
K132424184022
B1324285212345N01231370EA0134501432155004
B1324325212395N01231237EA0136301440150008
B1324365212441N01231120EA0138901480132004
B1324405212491N01231012EA0139801488124004
B1324445212545N01230912EA0140601496124008
K132444190035
B1324485212579N01230795EA0141301504123008
B1324525212587N01230666EA0140601496128008
B1324565212595N01230525EA0139901488137008
B1325005212604N01230379EA0139201480145008
B1325045212595N01230225EA0138201472151008
K132504186031
B1325085212570N01230079EA0137201456158008
B1325125212541N01229933EA0136201448155008
B1325165212508N01229787EA0135401440157008
B1325205212475N01229641EA0134801432159008
B1325245212441N01229504EA0134801432155004
K132524168047
B1325285212400N01229370EA0134601432155008
B1325325212362N01229241EA0134601432150004
B1325365212325N01229112EA0133901424154004
B1325405212287N01228979EA0133601416155004
B1325445212245N01228845EA0133001416156004
K132544164040
B1325485212204N01228716EA0132601408155004
B1325525212162N01228587EA0131901408153004
B1325565212120N01228458EA0131801400155004
B1326005212075N01228329EA0131101392154004
B1326045212033N01228195EA0129801384156004
K132604168032
B1326085211991N01228062EA0129401376157004
B1326125211950N01227920EA0129001376158004
B1326165211908N01227779EA0128701368161004
B1326205211870N01227641EA0127901360161004
B1326245211825N01227508EA0126901352160004
K132624166031
B1326285211783N01227370EA0126401344156008
B1326325211745N01227237EA0126101344153008
B1326365211712N01227100EA0125501336150004
B1326405211679N01226962EA0124901328152008
B1326445211645N01226825EA0124601328151004
K132644164029
B1326485211612N01226695EA0125201336140004
B1326525211579N01226566EA0126001344137004
B1326565211550N01226437EA0126901352129004
B1327005211529N01226308EA0127601360130004
B1327045211516N01226170EA0128301368127004
K132704152026
B1327085211516N01226033EA0129801384128008
B1327125211512N01225908EA0130401392119008
B1327165211470N01225833EA0130101392117012
B1327205211412N01225858EA0130101384119008
B1327245211391N01225962EA0130601392117008
K132724150030
B1327285211416N01226079EA0131201400121008
B1327325211466N01226183EA0133201416114012
B1327365211537N01226220EA0133701424115008
B1327405211600N01226145EA0134101432113008
B1327445211612N01226029EA0134501440114008
K132744150030
B1327485211570N01225958EA0134901440115008
B1327525211512N01225983EA0135301440109008
B1327565211479N01226066EA0135901448107012
B1328005211479N01226175EA0136801456106008
B1328045211533N01226250EA0137801464109008
K132804180015
B1328085211604N01226237EA0138801480105008
B1328125211633N01226129EA0138601480115008
B1328165211587N01226050EA0138401472117008
B1328205211525N01226087EA0139701488111008
B1328245211512N01226195EA0140901496111008
K132824194009
B1328285211558N01226291EA0141301504113008
B1328325211637N01226312EA0142701520117008
B1328365211683N01226220EA0143101520114004
B1328405211658N01226112EA0143401528115008
B1328445211595N01226100EA0144201536111008
K132844186011
B1328485211566N01226191EA0144501536108008
B1328525211600N01226300EA0144101528118012
B1328565211679N01226362EA0145401544120008
B1329005211745N01226300EA0147001560110012
B1329045211754N01226187EA0147301568111012
K132904176013
B1329085211708N01226116EA0147301568111004
B1329125211654N01226154EA0147401568110008
B1329165211662N01226266EA0147601568115008
B1329205211729N01226337EA0148901584116008
B1329245211804N01226291EA0150001592110012
K132924164015
B1329285211833N01226183EA0149401584112008
B1329325211850N01226050EA0147401568130012
B1329365211875N01225900EA0146501552148012
B1329405211912N01225745EA0144901536154012
B1329445211958N01225587EA0144401528153012
K132944164015
B1329485212012N01225437EA0143701528157004
B1329525212058N01225283EA0143701520154008
B1329565212095N01225129EA0143101520153008
B1330005212125N01224970EA0142601512155008
B1330045212158N01224816EA0142201512150004
K133004154020
B1330085212208N01224675EA0142201512146008
B1330125212270N01224541EA0141301504153004
B1330165212345N01224425EA0140701496154004
B1330205212425N01224308EA0140201488155004
B1330245212504N01224200EA0140401488156004
K133024182027
B1330285212587N01224095EA0140401488153008
B1330325212670N01224000EA0140101488153008
B1330365212750N01223895EA0139301480158004
B1330405212829N01223795EA0138701472156008
B1330445212908N01223687EA0138801472154004
K133044200025
B1330485212983N01223583EA0139201480147004
B1330525213054N01223479EA0138701472147004
B1330565213125N01223375EA0137901464147004
B1331005213200N01223266EA0137301456147004
B1331045213275N01223158EA0136401448149004
K133104198021
B1331085213350N01223045EA0136201448150004
B1331125213420N01222925EA0135901448150004
B1331165213491N01222808EA0135901448147004
B1331205213566N01222695EA0135501440149004
B1331245213641N01222583EA0134401432145004
K133124190023
B1331285213716N01222470EA0134101424150004
B1331325213800N01222370EA0137201448137004
B1331365213875N01222291EA0139401480122004
B1331405213945N01222216EA0140001488116004
B1331445214012N01222133EA0139801488127004
K133144192038
B1331485214075N01222050EA0141801512111008
B1331525214133N01221983EA0142801520102008
B1331565214195N01221908EA0142201520107004
B1332005214258N01221820EA0142101512114008
B1332045214295N01221708EA0142601512114008
K133204182029
B1332085214291N01221600EA0143301528109008
B1332125214320N01221495EA0143301528115008
B1332165214400N01221470EA0144001536113008
B1332205214462N01221554EA0144201536110012
B1332245214466N01221670EA0144201536109008
K133224182029
B1332285214420N01221737EA0144201536110012
B1332325214362N01221725EA0144101536118012
B1332365214320N01221645EA0144201536118008
B1332405214295N01221537EA0144601544119008
B1332445214291N01221416EA0147301568110008
K133244182029
B1332485214316N01221308EA0148101576108008
B1332525214391N01221250EA0148001576119008
B1332565214466N01221300EA0149001584112008
B1333005214491N01221412EA0150001592107004
B1333045214462N01221508EA0150001592111008
K133304186020
B1333085214404N01221533EA0151201608113008
B1333125214354N01221475EA0152301624111008
B1333165214350N01221366EA0153601632110004
B1333205214408N01221279EA0154301640113008
B1333245214487N01221300EA0154801640113004
K133324186018
B1333285214525N01221408EA0155101648109004
B1333325214504N01221508EA0156101656108004
B1333365214445N01221537EA0157201664107004
B1333405214395N01221483EA0158101672111012
B1333445214400N01221366EA0158801680113008
K133344188018
B1333485214462N01221291EA0160001696110008
B1333525214537N01221316EA0160601704110008
B1333565214575N01221420EA0161001712106008
B1334005214554N01221520EA0161501712110008
B1334045214495N01221537EA0162601720112012
K133404182017
B1334085214458N01221458EA0163001728107008
B1334125214470N01221341EA0163901736108012
B1334165214537N01221270EA0164501744105012
B1334205214612N01221295EA0164801744113008
B1334245214650N01221408EA0164901744111008
K133424178019
B1334285214620N01221500EA0165301752110008
B1334325214558N01221500EA0166201760108008
B1334365214520N01221412EA0166501760116008
B1334405214520N01221283EA0165201744137008
B1334445214525N01221125EA0162001720164008
K133444188017
B1334485214537N01220950EA0159201688175008
B1334525214550N01220766EA0157701664178008
B1334565214566N01220583EA0157101656172008
B1335005214579N01220400EA0156201648172008
B1335045214587N01220216EA0155701648174008
K133504190017
B1335085214600N01220033EA0155201640170008
B1335125214608N01219854EA0154501632172008
B1335165214616N01219679EA0154101632170008
B1335205214620N01219504EA0153501624169008
B1335245214625N01219329EA0153201624166008
K133524176035
B1335285214629N01219158EA0153201624164008
B1335325214633N01218991EA0152701616164008
B1335365214637N01218820EA0151801608167008
B1335405214641N01218654EA0151601608165008
B1335445214645N01218491EA0151701608163008
K133544176039
B1335485214654N01218329EA0151401608163008
B1335525214666N01218166EA0151401600160008
B1335565214683N01218008EA0150901600162004
B1336005214695N01217845EA0151001600157008
B1336045214716N01217691EA0151401608157004
K133604184036
B1336085214737N01217537EA0152001616152004
B1336125214758N01217391EA0152601616148008
B1336165214775N01217250EA0154101632139008
B1336205214787N01217112EA0155101648133008
B1336245214804N01216970EA0155201648139008
K133624182043
B1336285214820N01216833EA0155701648137008
B1336325214833N01216695EA0155701648139008
B1336365214845N01216554EA0155801656142004
B1336405214858N01216408EA0155501648143008
B1336445214870N01216262EA0155701648145008
K133644182032
B1336485214887N01216116EA0157001664138008
B1336525214895N01215975EA0158001672132004
B1336565214908N01215833EA0158301680134008
B1337005214904N01215695EA0157901672129004
B1337015214895N01215670EA0157401672131004
B1337025214883N01215641EA0157201672133008
B1337035214866N01215620EA0157001664134008
B1337045214850N01215608EA0156601656133008
K133704176034
B1337055214829N01215595EA0156201656134008
B1337065214812N01215587EA0155501648138008
B1337075214791N01215583EA0155201648141008
B1337085214770N01215579EA0155101648147004
B1337095214745N01215575EA0154701640150008
B1337105214725N01215575EA0154301632151004
B1337115214704N01215570EA0154201632152004
B1337125214683N01215570EA0153701632155004
B1337165214591N01215570EA0153301624157004
B1337205214504N01215579EA0152401616157004
B1337245214412N01215591EA0151601600156004
K133724176034
B1337285214320N01215608EA0150801592159004
B1337325214233N01215629EA0149901584161004
B1337365214145N01215654EA0149701584158004
B1337405214058N01215675EA0149601584157004
B1337445213975N01215691EA0149301584154004
K133744146027
B1337485213891N01215712EA0148701576155004
B1337525213808N01215733EA0148201568155004
B1337565213725N01215754EA0148001568154004
B1338005213645N01215779EA0147501560154004
B1338045213562N01215795EA0147401560149004
K133804140026
B1338085213479N01215816EA0147401560145004
B1338125213395N01215833EA0146501560147004
B1338165213312N01215858EA0146301552152004
B1338205213229N01215891EA0145501544152004
B1338245213145N01215929EA0145101536150004
K133824112029
B1338285213062N01215979EA0145201544148004
B1338325212991N01216058EA0146501560145004
B1338365212925N01216141EA0147901568142004
B1338405212854N01216195EA0149901592135008
B1338445212783N01216216EA0151701608121008
K133844098034
B1338485212712N01216216EA0152401616123004
B1338525212641N01216216EA0152901624121008
B1338565212566N01216212EA0153301624125004
B1339005212495N01216220EA0155301648125004
B1339045212429N01216233EA0157101672112004
K133904102023
B1339085212362N01216220EA0157601672115004
B1339125212308N01216158EA0158401680117004
B1339165212291N01216045EA0159401688112004
B1339205212325N01215945EA0159401696109004
B1339245212395N01215904EA0159201688112004
K133924108015
B1339285212475N01215941EA0159201688112008
B1339325212529N01216037EA0160201696116008
B1339365212541N01216158EA0161001712109008
B1339405212512N01216262EA0161601712111008
B1339445212454N01216312EA0162701720114004
K133944108015
B1339485212400N01216254EA0163301728112008
B1339525212395N01216141EA0163901736115012
B1339565212450N01216062EA0164601744111008
B1340005212525N01216079EA0164801744114004
B1340045212570N01216183EA0165901760114008
K134004206011
B1340085212554N01216295EA0166801768108008
B1340125212495N01216350EA0166901768114008
B1340165212437N01216308EA0167501776115008
B1340205212429N01216195EA0168301784113008
B1340245212483N01216116EA0168801792112008
K134024202010
B1340285212554N01216137EA0169301792107008
B1340325212595N01216237EA0169901800106004
B1340365212570N01216345EA0170301800111008
B1340405212508N01216375EA0170301800115008
B1340445212462N01216295EA0170801808117008
K134044200010
B1340485212483N01216187EA0171401816111008
B1340525212554N01216150EA0171401816110008
B1340565212616N01216212EA0171601816108008
B1341005212629N01216329EA0172001816112008
B1341045212591N01216425EA0172401824110008
K134104202010
B1341085212520N01216458EA0172401824121008
B1341125212445N01216458EA0172201816123004
B1341165212366N01216445EA0169601792137008
B1341205212287N01216395EA0168501776147004
B1341245212212N01216329EA0167301768156004
K134124208010
B1341285212137N01216250EA0166201760156008
B1341325212054N01216183EA0165001744163008
B1341365211970N01216125EA0164401736165004
B1341405211883N01216075EA0164801744160008
B1341445211800N01216037EA0164901744153004
K134144120019
B1341485211712N01216016EA0164801744152004
B1341525211620N01216020EA0164301736157004
B1341565211529N01216037EA0164501736160004
B1342005211441N01216054EA0165801752151004
B1342045211354N01216075EA0165801752152004
K134204108045
B1342085211262N01216095EA0164701736156008
B1342125211170N01216120EA0163701728164008
B1342165211079N01216137EA0163501728155004
B1342205210987N01216158EA0162501720162008
B1342245210895N01216179EA0161601712164004
K134224120025
B1342285210800N01216195EA0160601704162004
B1342325210708N01216212EA0160101696163008
B1342365210616N01216225EA0159801696160008
B1342405210525N01216237EA0159901696155004
B1342445210437N01216245EA0160101696154008
K134244138019
B1342485210345N01216250EA0161001704152004
B1342525210258N01216254EA0161901720146004
B1342565210175N01216270EA0162401720146008
B1343005210087N01216300EA0162001720150008
B1343045210000N01216341EA0161101712153004
K134304096032
B1343085209908N01216391EA0159501696157008
B1343125209816N01216441EA0158501680160008
B1343165209725N01216491EA0157601672159008
B1343205209629N01216529EA0156601664157004
B1343245209537N01216575EA0155501648158008
K134324092025
B1343285209441N01216616EA0155201648158004
B1343325209350N01216662EA0154701640158004
B1343365209258N01216695EA0154501640159004
B1343405209166N01216725EA0154501640158004
B1343445209075N01216754EA0154201632157004
K134344118010
B1343485208983N01216783EA0153501624160004
B1343525208895N01216816EA0152201616163008
B1343565208800N01216850EA0151301600163008
B1344005208708N01216895EA0150901592164004
B1344045208612N01216925EA0150901600163008
K134404130015
B1344085208520N01216950EA0150701592163004
B1344125208433N01216979EA0150601592156004
B1344165208345N01217020EA0149301584160004
B1344205208254N01217066EA0148401576157004
B1344245208162N01217116EA0147201560159004
K134424112021
B1344285208070N01217170EA0146501552158004
B1344325207979N01217225EA0145901544162004
B1344365207887N01217279EA0145901544161004
B1344405207795N01217337EA0145901544159004
B1344445207708N01217400EA0144901536162004
K134444096019
B1344485207620N01217462EA0144001528163004
B1344525207533N01217525EA0142601512163004
B1344565207441N01217587EA0142201504164004
B1345005207354N01217645EA0141701504163004
B1345045207262N01217704EA0141001496162004
K134504108015
B1345085207170N01217762EA0139901488163004
B1345125207083N01217820EA0139301480163004
B1345165206991N01217883EA0139301472162004
B1345205206904N01217950EA0139201472160004
B1345245206820N01218016EA0138401464166004
K134524096016
B1345285206733N01218087EA0138401472158004
B1345325206654N01218154EA0138101464157004
B1345365206570N01218220EA0137301456158004
B1345405206487N01218291EA0137301456157004
B1345445206404N01218362EA0136201448158004
K134544096018
B1345485206325N01218445EA0135001432163004
B1345525206245N01218537EA0134101424163004
B1345565206166N01218629EA0133001408164004
B1346005206087N01218720EA0132201400164004
B1346045206004N01218808EA0131601400162004
K134604082021
B1346085205925N01218895EA0131001392162004
B1346125205845N01218987EA0130501384160004
B1346165205770N01219075EA0129901384158004
B1346205205695N01219170EA0129601376157004
B1346245205625N01219262EA0128701368158004
K134624086016
B1346285205550N01219362EA0127501360163004
B1346325205475N01219462EA0127001352163004
B1346365205408N01219570EA0126301344165004
B1346405205341N01219679EA0126601344159004
B1346445205275N01219775EA0129401368145004
K134644090013
B1346485205212N01219862EA0130601392133004
B1346525205150N01219945EA0130601392125004
B1346565205087N01220029EA0130401384138008
B1347005205020N01220112EA0129801384141008
B1347045204954N01220204EA0129101376148004
K134704104004
B1347085204891N01220304EA0128401368150008
B1347125204825N01220400EA0127801360154004
B1347165204758N01220495EA0127401352155004
B1347205204691N01220600EA0126901344153004
B1347245204625N01220708EA0126301344155004
K134724084012
B1347285204566N01220820EA0126001336152004
B1347325204504N01220933EA0125301336152004
B1347365204445N01221045EA0124701328152004
B1347405204383N01221158EA0123901320154004
B1347445204316N01221270EA0123501312154004
K134744090008
B1347485204250N01221375EA0122101304154004
B1347525204183N01221487EA0120901288155004
B1347565204116N01221595EA0120001280158004
B1348005204050N01221708EA0119901272157004
B1348045203983N01221816EA0119101272158004
K134804116004
B1348085203916N01221920EA0118301264155004
B1348125203850N01222029EA0117401256154004
B1348165203783N01222133EA0116701248156004
B1348205203716N01222237EA0116301240155004
B1348245203645N01222337EA0115601232156004
K134824134005
B1348285203579N01222437EA0114801224157004
B1348325203508N01222537EA0114701224156004
B1348365203441N01222633EA0115201232149004
B1348405203370N01222725EA0114801224151004
B1348445203300N01222820EA0114201224149004
K134844134005
B1348485203233N01222916EA0114201224152004
B1348525203166N01223012EA0113801216151004
B1348565203104N01223116EA0112701208155004
B1349005203041N01223225EA0111801192155004
B1349045202979N01223341EA0111101192156004
K134904072012
B1349085202925N01223466EA0110701184157004
B1349125202870N01223591EA0109801176157004
B1349165202812N01223716EA0109301168159004
B1349205202758N01223845EA0108801160158004
B1349245202704N01223970EA0108001152156004
K134924062011
B1349285202650N01224100EA0106801144159004
B1349325202595N01224229EA0106301144159004
B1349365202541N01224358EA0105801136160004
B1349405202495N01224491EA0105301128158004
B1349445202450N01224620EA0105601136154004
K134944080006
B1349485202408N01224745EA0105601136153004
B1349525202370N01224875EA0105901136149004
B1349565202333N01225004EA0105501136147004
B1350005202295N01225137EA0104501120151004
B1350045202254N01225266EA0104801128147004
K135004112005
B1350085202220N01225395EA0105001128142004
B1350125202187N01225525EA0105001128145004
B1350165202154N01225654EA0104401120145004
B1350205202116N01225787EA0104101120151004
B1350245202075N01225916EA0104601120147004
K135024152004
B1350285202033N01226037EA0104401120145004
B1350325201987N01226166EA0104101120153004
B1350365201941N01226287EA0104701128146004
B1350405201891N01226400EA0104201120143004
B1350445201841N01226512EA0102601104152004
K135044194012
B1350485201783N01226625EA0101301088156004
B1350525201725N01226741EA0100801080155004
B1350565201670N01226854EA0100501080152004
B1351005201616N01226970EA0099801080151004
B1351045201575N01227095EA0099201072150004
K135104156007
B1351085201558N01227241EA0098701064151004
B1351125201570N01227395EA0098001056155004
B1351165201587N01227550EA0098701064148004
B1351205201604N01227695EA0100401080141004
B1351245201620N01227829EA0103101104123004
K135124156007
B1351285201629N01227941EA0103801120111004
B1351325201654N01228045EA0104201128110004
B1351365201716N01228112EA0104301128117024
B1351405201795N01228120EA0105601136110016
B1351445201858N01228050EA0105701136112000
K135144190020
B1351485201862N01227941EA0106101144116012
B1351525201820N01227875EA0107101152115008
B1351565201770N01227920EA0108001160117004
B1352005201779N01228025EA0108201160114008
B1352045201837N01228100EA0108801176111008
K135204176021
B1352085201912N01228079EA0108901168113012
B1352125201945N01227970EA0109101168118008
B1352165201933N01227870EA0110101184114008
B1352205201883N01227854EA0110401192116008
B1352245201858N01227945EA0110701192117008
K135224178021
B1352285201904N01228045EA0111201200113008
B1352325201983N01228070EA0112901208111008
B1352365202045N01228000EA0112901216110008
B1352405202037N01227895EA0112901216119024
B1352445201979N01227870EA0113301216128016
K135244186025
B1352485201912N01227887EA0111801200140000
B1352525201833N01227916EA0109801184153012
B1352565201750N01227966EA0109001168161004
B1353005201666N01228016EA0108801168161000
B1353045201583N01228058EA0110601184147004
K135304188026
B1353085201500N01228108EA0110701184150004
B1353125201420N01228162EA0110401184153008
B1353165201337N01228225EA0108901168160008
B1353205201254N01228287EA0108901168154008
B1353245201170N01228345EA0109301168152008
K135324130015
B1353285201095N01228404EA0109601176148008
B1353325201016N01228458EA0108701160148008
B1353365200937N01228512EA0107301144154008
B1353405200854N01228566EA0106801144152008
B1353445200770N01228620EA0105901136153004
K135344126013
B1353485200687N01228670EA0105501128156008
B1353525200604N01228712EA0105501128155004
B1353565200520N01228758EA0105101128153004
B1354005200441N01228804EA0104101120156004
B1354045200358N01228850EA0103601112155004
K135404126015
B1354085200275N01228895EA0102701104158004
B1354125200187N01228937EA0102601104157004
B1354165200108N01228979EA0102801104155004
B1354205200025N01229025EA0102401096155004
B1354245159945N01229066EA0102101096152008
K135424130018
B1354285159862N01229100EA0100901088151008
B1354325159779N01229133EA0099301072152004
B1354365159687N01229162EA0098001056159008
B1354405159595N01229187EA0098301056161004
B1354445159508N01229208EA0100101080148004
K135444140014
B1354485159429N01229225EA0100901088139008
B1354525159350N01229245EA0100501080140008
B1354565159270N01229275EA0098901064150012
B1355005159191N01229316EA0097801056152008
B1355045159116N01229370EA0096801040146008
K135504092030
B1355085159045N01229437EA0095501032157008
B1355125158975N01229520EA0095801032146008
B1355165158908N01229604EA0095801032141008
B1355205158841N01229695EA0094901024149008
B1355245158775N01229783EA0093601008152008
K135524076031
B1355285158704N01229879EA0092601000156004
B1355325158637N01229975EA0091200984157008
B1355365158566N01230070EA0090300976157004
B1355405158495N01230170EA0089600968156004
B1355445158429N01230266EA0089500968153004
K135544078019
B1355485158354N01230329EA0089500968150004
B1355525158270N01230354EA0088100960153004
B1355565158183N01230362EA0087100944158004
B1356005158091N01230366EA0086400936161004
B1356045158004N01230366EA0086100928157004
K135604120008
B1356085157916N01230366EA0085700928157004
B1356125157833N01230362EA0085000920152004
B1356165157745N01230366EA0084800912155004
B1356205157662N01230375EA0084900920149004
B1356245157583N01230379EA0084900920142004
K135624140015
B1356285157504N01230379EA0083900912150004
B1356325157425N01230370EA0083600904146004
B1356365157341N01230358EA0082800896150004
B1356405157262N01230337EA0082700896149004
B1356445157183N01230316EA0082000888145004
K135644168014
B1356485157104N01230291EA0081200880143004
B1356525157025N01230270EA0080700880142004
B1356565156945N01230250EA0081900896136004
B1357005156879N01230204EA0084900912125004
B1357045156825N01230158EA0086200936109004
K135704142015
B1357085156770N01230179EA0086200936109004
B1357125156737N01230279EA0086100936115004
B1357165156766N01230391EA0086100936104004
B1357205156833N01230450EA0085400928112012
B1357245156912N01230470EA0085500928111008
K135724142015
B1357285156991N01230466EA0086700944108008
B1357325157045N01230404EA0086800944107008
B1357365157050N01230300EA0086700944113012
B1357405157004N01230241EA0086900944116008
B1357445156945N01230287EA0087600952114008
K135744210019
B1357485156933N01230400EA0087600952117008
B1357525156962N01230516EA0088500960110012
B1357565157033N01230562EA0088700968112008
B1358005157100N01230516EA0088900968111012
B1358045157112N01230408EA0088900968116012
K135804210016
B1358085157066N01230341EA0088800968116012
B1358125157008N01230379EA0089600976114012
B1358165156987N01230483EA0090000984111012
B1358205157033N01230579EA0090000976112012
B1358245157112N01230587EA0090000976111012
K135824206014
B1358285157166N01230508EA0090500984112012
B1358325157187N01230408EA0090700984108012
B1358365157170N01230316EA0090800992112012
B1358405157112N01230304EA0091200992113008
B1358445157075N01230400EA0091200992118008
K135844196016
B1358485157104N01230516EA0091500992115008
B1358525157183N01230550EA0091701000120008
B1358565157241N01230479EA0092101000115012
B1359005157233N01230379EA0092201000113008
B1359045157183N01230325EA0092401000114008
K135904200016
B1359085157125N01230379EA0092701008114008
B1359125157120N01230495EA0092701008113008
B1359165157170N01230587EA0093401016112008
B1359205157245N01230570EA0092901008120012
B1359245157279N01230466EA0093301016115008
K135924210014
B1359285157250N01230379EA0093701024111008
B1359325157191N01230379EA0094101024114008
B1359365157166N01230483EA0093801016117012
B1359405157212N01230587EA0093901024120008
B1359445157291N01230570EA0094201024119012
K135944192013
B1359485157325N01230475EA0094901032114012
B1359525157304N01230379EA0095801040112012
B1359565157245N01230362EA0095901040114012
B1400005157200N01230437EA0095901040118028
B1400045157220N01230558EA0095901040116020
K140004198014
B1400085157295N01230604EA0095901040118016
B1400125157358N01230537EA0095901040119024
B1400165157375N01230425EA0096501048113000
B1400205157341N01230345EA0097001056112008
B1400245157279N01230358EA0097001048118012
K140024194016
B1400285157241N01230450EA0097201056119008
B1400325157254N01230570EA0097701064111012
B1400365157316N01230654EA0098101064110012
B1400405157391N01230645EA0098001064114024
B1400445157445N01230562EA0098101064115016
K140044200017
B1400485157491N01230466EA0098301064115000
B1400525157550N01230379EA0098001056117012
B1400565157595N01230279EA0098201064118008
B1401005157616N01230166EA0099601072111004
B1401045157595N01230070EA0100901088109012
K140104200018
B1401085157545N01230012EA0101901104106008
B1401125157487N01230045EA0102301104111004
B1401165157470N01230145EA0102801112112008
B1401205157520N01230237EA0103401120113004
B1401245157600N01230229EA0105201128116004
K140124200018
B1401285157641N01230133EA0106501152108008
B1401325157629N01230033EA0107301160109008
B1401365157575N01229991EA0107601160110008
B1401405157520N01230045EA0108001160112008
B1401445157516N01230154EA0108601176111008
K140144180012
B1401485157566N01230245EA0109601176113008
B1401525157641N01230262EA0111001192114004
B1401565157700N01230187EA0112301208114008
B1402005157700N01230079EA0113401216111004
B1402045157650N01230016EA0114201232110004
K140204184011
B1402085157591N01230050EA0114901232115004
B1402125157575N01230154EA0115601240108004
B1402165157620N01230250EA0116201248111004
B1402205157691N01230287EA0117701256113004
B1402245157754N01230225EA0118901272109008
K140224182012
B1402285157770N01230112EA0119801280113008
B1402325157729N01230033EA0120801296110004
B1402365157666N01230045EA0121101296113008
B1402405157641N01230145EA0122401304113004
B1402445157670N01230250EA0123301320109004
K140244180012
B1402485157741N01230295EA0124301328112008
B1402525157808N01230233EA0125901344113008
B1402565157825N01230120EA0126801352112004
B1403005157787N01230033EA0127401360115008
B1403045157720N01230041EA0128001368115004
K140304180012
B1403085157687N01230129EA0129001376111004
B1403125157708N01230237EA0129501384104008
B1403165157766N01230304EA0129801392108008
B1403205157845N01230291EA0131201400112012
B1403245157900N01230216EA0132501416110008
K140324178012
B1403285157895N01230100EA0133001416113004
B1403325157841N01230037EA0133201424115008
B1403365157779N01230070EA0134001432117004
B1403405157750N01230166EA0134601440113004
B1403445157787N01230270EA0134101432119020
K140344174012
B1403485157866N01230312EA0134701440122012
B1403525157945N01230304EA0136501456113000
B1403565158008N01230229EA0137701464108008
B1404005158016N01230116EA0138001464112004
B1404045157966N01230045EA0138201472115000
K140404166013
B1404085157900N01230058EA0138901480113008
B1404125157866N01230145EA0139701488112008
B1404165157887N01230250EA0140401496107008
B1404205157950N01230304EA0141101504108008
B1404245158025N01230266EA0141601504111008
K140424168012
B1404285158058N01230162EA0142101512107008
B1404325158041N01230054EA0142501520109008
B1404365157979N01230008EA0143101528111008
B1404405157925N01230045EA0143401528104012
B1404445157912N01230141EA0143101520107008
K140444156012
B1404485157945N01230241EA0142901520108008
B1404525158020N01230287EA0143701528111008
B1404565158100N01230270EA0144701536112008
B1405005158158N01230187EA0146101552109008
B1405045158170N01230075EA0146201552102008
K140504158016
B1405085158129N01229995EA0145101544115008
B1405125158062N01229979EA0145401544116004
B1405165158004N01230025EA0145501544111008
B1405205157970N01230120EA0144101536117012
B1405245157925N01230216EA0142501512132008
K140524166015
B1405285157862N01230304EA0142501512138012
B1405325157800N01230383EA0143401528133012
B1405365157733N01230458EA0143701528129008
B1405405157666N01230545EA0143001520136008
B1405445157600N01230633EA0143001520139004
K140544108012
B1405485157529N01230720EA0143201520137008
B1405525157462N01230808EA0142101512139008
B1405565157400N01230904EA0141801504143008
B1406005157345N01231008EA0141801504140004
B1406045157291N01231108EA0141501496145008
K140604056019
B1406085157233N01231208EA0140801496145004
B1406125157170N01231312EA0140701496142004
B1406165157112N01231412EA0141101496139004
B1406205157054N01231512EA0141201504140004
B1406245157000N01231612EA0140801496140004
K140624062013
B1406285156937N01231712EA0140101488145004
B1406325156875N01231812EA0139301480149004
B1406365156812N01231912EA0139201480147004
B1406405156750N01232008EA0138701472149004
B1406445156683N01232104EA0138101464153004
K140644080011
B1406485156616N01232200EA0137501464150004
B1406525156550N01232295EA0136801456152004
B1406565156483N01232395EA0135901440153004
B1407005156416N01232491EA0135401440155004
B1407045156345N01232583EA0134601432155004
K140704104012
B1407085156275N01232675EA0133101416156004
B1407125156204N01232770EA0132401408161004
B1407165156133N01232858EA0133201416155004
B1407205156062N01232945EA0133501416150004
B1407245155995N01233029EA0132401408149004
K140724122012
B1407285155920N01233116EA0131501400152004
B1407325155850N01233204EA0130201392154004
B1407365155770N01233291EA0129901384152004
B1407405155695N01233350EA0131501392142004
B1407445155620N01233362EA0133001416130004
K140744162009
B1407485155545N01233350EA0131801408136004
B1407525155462N01233358EA0130401384147008
B1407565155383N01233404EA0129301376153008
B1408005155304N01233470EA0128001360157004
B1408045155225N01233550EA0127501360156008
K140804162009
B1408085155154N01233633EA0127301352153004
B1408125155079N01233716EA0126401344153004
B1408165155008N01233804EA0125301336155004
B1408205154933N01233895EA0124901328159004
B1408245154858N01233987EA0124501328159004
K140824090019
B1408285154787N01234079EA0124401328156004
B1408325154716N01234170EA0123301312156008
B1408365154645N01234262EA0122801312154008
B1408405154575N01234350EA0122601304152004
B1408445154500N01234416EA0122001304151008
K140844134011
B1408485154420N01234483EA0121401296154004
B1408525154345N01234558EA0121001288150004
B1408565154270N01234629EA0120301288150004
B1409005154191N01234695EA0119901280154004
B1409045154112N01234745EA0119901280152004
K140904170011
B1409085154033N01234795EA0119101272149004
B1409125153954N01234850EA0118201264153004
B1409165153875N01234908EA0117901256154004
B1409205153795N01234962EA0117101248152004
B1409245153716N01235012EA0116401248153004
K140924134014
B1409285153633N01235054EA0115801232156004
B1409325153550N01235091EA0115201232152004
B1409365153466N01235129EA0114801224152004
B1409405153379N01235158EA0113801216152004
B1409445153295N01235170EA0112301200150004
K140944184015
B1409485153208N01235166EA0111101192151004
B1409525153116N01235154EA0110101176155004
B1409565153029N01235141EA0109201168155004
B1410005152937N01235141EA0108001160159004
B1410045152850N01235150EA0106901144157004
K141004132017
B1410085152758N01235166EA0106001128158004
B1410125152666N01235175EA0104901128158004
B1410165152570N01235187EA0104201120158004
B1410205152479N01235195EA0104101112155004
B1410245152391N01235200EA0103801112155004
K141024118019
B1410285152300N01235212EA0104801128151004
B1410325152220N01235220EA0106501144134004
B1410365152141N01235233EA0105901136140004
B1410405152066N01235241EA0107301152133004
B1410445152000N01235258EA0109401176117004
K141044100023
B1410485151941N01235270EA0110701192104004
B1410525151887N01235266EA0110401192104004
B1410565151837N01235200EA0109001176113004
B1411005151783N01235150EA0108001168117004
B1411045151708N01235158EA0105101128136024
K141104100016
B1411085151629N01235187EA0103601112145016
B1411125151545N01235216EA0101701096151000
B1411165151458N01235241EA0100801088149012
B1411205151366N01235270EA0100501080150004
B1411245151275N01235291EA0098601072153000
K141124098021
B1411285151183N01235316EA0097501048161008
B1411325151091N01235345EA0097201048161008
B1411365151000N01235375EA0097201048160004
B1411405150916N01235404EA0098601064149008
B1411445150837N01235437EA0098901072142008
K141144094024
B1411485150758N01235466EA0097201048147008
B1411525150670N01235495EA0095901040150012
B1411565150587N01235520EA0095901032148008
B1412005150500N01235550EA0095001032151004
B1412045150412N01235587EA0094101016154008
K141204094025
B1412085150325N01235625EA0092901008161004
B1412125150237N01235662EA0091900992158004
B1412165150145N01235700EA0091100992157004
B1412205150058N01235741EA0090200976160004
B1412245149970N01235783EA0089800968159008
K141224094023
B1412285149883N01235825EA0089600968157008
B1412325149795N01235866EA0089300968151004
B1412365149712N01235908EA0088400960156008
B1412405149625N01235945EA0087600952155004
B1412445149537N01235975EA0086600944155004
K141244110014
B1412485149454N01236008EA0085700928156004
B1412525149366N01236045EA0084800920156004
B1412565149279N01236075EA0084100912160004
B1413005149195N01236108EA0084200912153004
B1413045149116N01236141EA0083700912152004
K141304116017
B1413085149033N01236179EA0082800904151004
B1413125148950N01236220EA0081800896155004
B1413165148866N01236254EA0081000888154004
B1413205148783N01236291EA0080000872155004
B1413245148700N01236320EA0079100864157004
K141324120017
B1413285148612N01236345EA0078600856154004
B1413325148529N01236370EA0077800848154004
B1413365148441N01236395EA0077300848157004
B1413405148358N01236433EA0076600840155004
B1413445148275N01236466EA0075800832155004
K141344116020
B1413485148191N01236504EA0075300824154004
B1413525148104N01236537EA0074200816155004
