AZAN1EA ZANDER/SDI GP941 V2.11
HFDTE160813
HFFXA050
HFPLT Pilot             :                                        
HFGTY Glider type       :Default                                 
HFGID Glider ID         :          
HFDTM100 GPS Datum      :WGS84
HFRFW Firmware Version  :11
HFRHW Hardware version  :2
HFFTY FR Type           :ZANDER/SDI GP941
HFGPS                   :Garmin,GPS25,12,30000
HFPRS Press Alt Sensor  :Intersema,MS5534A,10000
HFCCL Competition Class :                                        
HFCID Competition ID    :          
I023638IAS3941ENL
J020810WDI1113WVE
LZAN 093834 PowerOn
C060713074158190255000103
C4844800N00951833E HORNBERG    
C4844800N00951833E HORNBERG    
C4754233N00809383E TITISEE     
C5014450N00936000E JOSSADB     
C4852650N01111000E EICHSTAE    
C4844800N00951833E HORNBERG    
C4844800N00951833E HORNBERG    
B0938385208700N01240620EA0000200064006000
B0938425208700N01240620EA0000200064007000
B0938465208700N01240620EA0000200064008000
B0938505208700N01240620EA0000200064000004
B0938545208700N01240620EA0000200064004000
B0938585208700N01240620EA0000200064000028
B0939025208700N01240620EA0000200064000016
B0939065208700N01240620EA0000300064000000
B0939105208700N01240620EA0000300064000016
B0939145208700N01240620EA0000300064000004
B0939185208700N01240620EA0000300064000000
B0939225208700N01240620EA0000300064000004
B0939265208700N01240620EA0000300064000004
B0939305208700N01240620EA0000300064000004
B0939345208700N01240620EA0000300064000004
B0939385208700N01240620EA0000300064000004
B0939425208700N01240620EA0000300064000004
B0939465208700N01240620EA0000300064000004
B0939505208700N01240620EA0000300064000004
B0939545208700N01240620EA0000300064000004
B0939585208700N01240620EA0000200064000004
B0940025208700N01240620EA0000300064000008
B0940065208700N01240620EA0000300064000008
B0940105208700N01240620EA0000300064000008
B0940145208700N01240620EA0000300064000008
B0940185208700N01240620EA0000300064000000
B0940225208700N01240620EA0000300064000004
B0940265208700N01240620EA0000300064000004
B0940305208700N01240620EA0000300064000000
B0940345208700N01240620EA0000400064000004
B0940385208700N01240620EA0000400064000004
B0940425208700N01240620EA0000400064000000
B0940465208700N01240620EA0000400064000000
B0940505208700N01240620EA0000400064000004
B0940545208700N01240620EA0000400064000000
B0940585208700N01240620EA0000300064000000
B0941025208700N01240620EA0000300064003000
B0941065208700N01240620EA0000300064001004
B0941105208700N01240620EA0000300064000000
B0941145208700N01240620EA0000300064000004
B0941185208700N01240620EA0000300064004004
B0941225208700N01240620EA0000300064008004
B0941265208700N01240620EA0000400064000004
B0941305208700N01240620EA0000400064009004
B0941345208700N01240620EA0000400064006004
B0941385208700N01240620EA0000400064000000
B0941425208700N01240620EA0000400064006000
B0941465208700N01240620EA0000300064000000
B0941505208700N01240620EA0000300064002000
B0941545208700N01240620EA0000300064004000
B0941585208700N01240620EA0000300064007000
B0942025208700N01240620EA0000400064000000
B0942065208700N01240620EA0000400064000000
B0942105208700N01240620EA0000500064000000
B0942145208700N01240620EA0000500064000000
B0942185208700N01240620EA0000500064000000
B0942225208700N01240620EA0000500064000000
B0942265208700N01240620EA0000500064000000
B0942305208700N01240620EA0000300064000000
B0942345208700N01240620EA0000300064000000
B0942385208700N01240620EA0000300064000000
B0942425208700N01240620EA0000300064000004
B0942465208700N01240620EA0000300064000000
B0942505208700N01240620EA0000300064000000
B0942545208700N01240620EA0000300064000000
B0942585208700N01240620EA0000300064000000
B0943025208700N01240620EA0000300064000000
B0943065208700N01240620EA0000300064000000
B0943105208700N01240620EA0000400064000000
B0943145208700N01240620EA0000400064000000
B0943185208700N01240620EA0000400064000000
B0943225208700N01240620EA0000400064000004
B0943265208700N01240620EA0000500064000000
B0943305208700N01240620EA0000500064000000
B0943345208700N01240620EA0000500064000000
B0943385208700N01240620EA0000500064000000
B0943425208700N01240620EA0000500064000000
B0943465208700N01240620EA0000500064000000
B0943505208700N01240620EA0000500064000000
B0943545208700N01240620EA0000500064000004
B0943585208700N01240620EA0000500064000000
B0944025208700N01240620EA0000500064000000
B0944065208700N01240620EA0000500064000000
B0944105208700N01240620EA0000500064000004
B0944145208700N01240620EA0000500064000000
B0944185208700N01240620EA0000500064000008
B0944225208700N01240620EA0000500064000008
B0944265208700N01240620EA0000500064000004
B0944305208700N01240620EA0000500064000008
B0944345208700N01240620EA0000500064000004
B0944385208700N01240620EA0000500064000004
B0944425208700N01240620EA0000500064000004
B0944465208700N01240620EA0000500064000004
B0944505208700N01240620EA0000500064000004
B0944545208700N01240620EA0000500064000004
B0944585208700N01240620EA0000500064000008
B0945025208700N01240620EA0000500064000008
B0945065208700N01240620EA0000500064000004
B0945105208700N01240620EA0000500064000008
B0945145208700N01240620EA0000500064000008
B0945185208700N01240620EA0000500064000008
B0945225208700N01240620EA0000500064000004
B0945265208700N01240620EA0000500064000008
B0945305208700N01240620EA0000500064000004
B0945345208700N01240620EA0000500064000004
B0945385208700N01240620EA0000500064000008
B0945425208700N01240620EA0000500064000008
B0945465208700N01240620EA0000500064000004
B0945505208700N01240620EA0000500064000008
B0945545208700N01240620EA0000500064000004
B0945585208700N01240620EA0000500064000004
B0946025208700N01240620EA0000500064000004
B0946065208700N01240620EA0000500064000004
B0946105208700N01240620EA0000500064000004
B0946145208700N01240620EA0000500064000004
B0946185208700N01240620EA0000500064000004
B0946225208700N01240620EA0000500064000004
B0946265208700N01240620EA0000500064000012
B0946305208700N01240620EA0000500064000008
B0946345208700N01240620EA0000500064000004
B0946385208700N01240620EA0000500064000008
B0946425208700N01240620EA0000500064000000
B0946465208700N01240620EA0000500064000000
B0946505208700N01240620EA0000500064000000
B0946545208700N01240620EA0000500064000000
B0946585208700N01240620EA0000500064000000
B0947025208700N01240620EA0000500064000000
B0947065208700N01240620EA0000500064000000
B0947105208700N01240620EA0000500064000000
B0947145208700N01240620EA0000500064000000
B0947185208700N01240620EA0000500064000000
B0947225208700N01240620EA0000500064000000
B0947265208700N01240620EA0000500064000000
B0947305208700N01240620EA0000500064000004
B0947345208700N01240620EA0000500064000000
B0947385208700N01240620EA0000500064000008
B0947425208700N01240620EA0000500064000008
B0947465208700N01240620EA0000500064000008
B0947505208700N01240620EA0000500056000008
B0947545208700N01240620EA0000500056000008
B0947585208700N01240620EA0000500056000008
B0948025208700N01240620EA0000500056000004
B0948065208700N01240620EA0000500056000008
B0948105208700N01240620EA0000500056000004
B0948145208700N01240620EA0000500056000004
B0948185208700N01240620EA0000500064000000
B0948225208700N01240620EA0000500064000000
B0948265208700N01240620EA0000500064000000
B0948305208700N01240620EA0000500064000000
B0948345208700N01240620EA0000500064000000
B0948385208700N01240620EA0000500064000000
B0948425208700N01240620EA0000500064000000
B0948465208700N01240620EA0000500064000000
B0948505208700N01240620EA0000500064000000
B0948545208700N01240620EA0000500064000000
B0948585208700N01240620EA0000500064000000
B0949025208700N01240620EA0000500056000000
B0949065208700N01240620EA0000500056000004
B0949105208700N01240620EA0000500064000000
B0949145208700N01240620EA0000500064000004
B0949185208700N01240620EA0000500064000004
B0949225208700N01240620EA0000500064000000
B0949265208700N01240620EA0000500064000000
B0949305208700N01240620EA0000600064000000
B0949345208700N01240620EA0000600064000000
B0949385208700N01240620EA0000600064000000
B0949425208700N01240620EA0000600064000000
B0949465208700N01240620EA0000600064000000
B0949505208700N01240620EA0000600064000000
B0949545208700N01240620EA0000600056000000
B0949585208700N01240620EA0000600056000000
B0950025208700N01240620EA0000600056000000
B0950065208700N01240620EA0000600056000000
B0950105208700N01240620EA0000600056000000
B0950145208700N01240620EA0000600056000000
B0950185208700N01240620EA0000600056000004
B0950225208700N01240620EA0000600056000000
B0950265208700N01240620EA0000600056000008
B0950305208700N01240620EA0000600056000008
B0950345208700N01240620EA0000600056000004
B0950385208700N01240620EA0000600056000008
B0950425208700N01240620EA0000600056000004
B0950465208700N01240620EA0000600056000004
B0950505208700N01240620EA0000600056000004
B0950545208700N01240620EA0000600056000004
B0950585208700N01240620EA0000600056000004
B0951025208700N01240620EA0000600056000004
B0951065208700N01240620EA0000600056000000
B0951105208700N01240620EA0000600056000000
B0951145208700N01240620EA0000600056000000
B0951185208700N01240620EA0000600056000000
B0951225208700N01240620EA0000600056000000
B0951265208700N01240620EA0000600056000000
B0951305208700N01240620EA0000600056000000
B0951345208700N01240620EA0000600056000000
B0951385208700N01240620EA0000600056000000
B0951425208700N01240620EA0000600056000000
B0951465208700N01240620EA0000600056000000
B0951505208700N01240620EA0000600056000000
B0951545208700N01240620EA0000600056000000
B0951585208700N01240620EA0000600056000000
B0952025208700N01240620EA0000600056000000
B0952065208700N01240620EA0000600064000000
B0952105208700N01240620EA0000600064000000
B0952145208700N01240620EA0000600064000000
B0952185208700N01240620EA0000600064000000
B0952225208700N01240620EA0000600064000000
B0952265208700N01240620EA0000600064000000
B0952305208700N01240620EA0000600064000000
B0952345208700N01240620EA0000600064000000
B0952385208700N01240620EA0000600064000000
B0952425208700N01240620EA0000600064000000
B0952465208700N01240620EA0000600064000000
B0952505208700N01240620EA0000600064000000
B0952545208700N01240620EA0000600064000000
B0952585208700N01240620EA0000600064000000
B0953025208700N01240620EA0000600056000000
B0953065208700N01240620EA0000600056000000
B0953105208700N01240620EA0000600064000000
B0953145208700N01240620EA0000600064000000
B0953185208700N01240620EA0000600056000000
B0953225208700N01240620EA0000600056000000
B0953265208700N01240620EA0000600056000000
B0953305208700N01240620EA0000600056000000
B0953345208700N01240620EA0000600056000000
B0953385208700N01240620EA0000600056000000
B0953425208700N01240620EA0000600056000000
B0953465208700N01240620EA0000600056000000
B0953505208700N01240620EA0000600056000000
B0953545208700N01240620EA0000600056000000
B0953585208700N01240620EA0000600056000000
B0954025208700N01240620EA0000600056000000
B0954065208700N01240620EA0000600056000000
B0954105208700N01240620EA0000600056000000
B0954145208700N01240620EA0000600056000000
B0954185208700N01240620EA0000600056000000
B0954225208700N01240620EA0000600056000000
B0954265208700N01240620EA0000600056000000
B0954305208700N01240620EA0000600056000000
B0954345208700N01240620EA0000600056000000
B0954385208700N01240620EA0000600056000000
B0954425208700N01240620EA0000600056000000
B0954465208700N01240620EA0000600056000000
B0954505208700N01240620EA0000600056000000
B0954545208700N01240620EA0000600056000000
B0954585208700N01240620EA0000600056000000
B0955025208700N01240620EA0000600056000000
B0955065208700N01240620EA0000600056000000
B0955105208700N01240620EA0000600056000000
B0955145208700N01240620EA0000600056000000
B0955185208700N01240620EA0000600056000000
B0955225208700N01240620EA0000600056000000
B0955265208700N01240620EA0000600056000000
B0955305208700N01240620EA0000600056000000
B0955345208700N01240620EA0000600056000000
B0955385208700N01240620EA0000600056000000
B0955425208700N01240620EA0000600056000000
B0955465208700N01240620EA0000600056000000
B0955505208700N01240620EA0000600056000000
B0955545208700N01240620EA0000600056000000
B0955585208700N01240620EA0000600056000000
B0956025208700N01240620EA0000600056000000
B0956065208700N01240620EA0000600056000000
B0956105208700N01240620EA0000600056000000
B0956145208700N01240620EA0000600056000000
B0956185208700N01240620EA0000600056000000
B0956225208700N01240620EA0000600056000000
B0956265208700N01240620EA0000600056000000
B0956305208700N01240620EA0000600056000000
B0956345208700N01240620EA0000600056000000
B0956385208700N01240620EA0000600056000000
B0956425208700N01240620EA0000600056000000
B0956465208700N01240620EA0000600056000000
B0956505208700N01240620EA0000600056000000
B0956545208700N01240620EA0000600056000000
B0956585208700N01240620EA0000600056000000
B0957025208700N01240620EA0000600056000000
B0957065208700N01240620EA0000600056000000
B0957105208700N01240620EA0000600056000000
B0957145208700N01240620EA0000600056000000
B0957185208700N01240620EA0000600056000000
B0957225208700N01240620EA0000600056000000
B0957265208700N01240620EA0000600056000000
B0957305208700N01240620EA0000600056000000
B0957345208700N01240620EA0000600056000000
B0957385208700N01240620EA0000600056000000
B0957425208700N01240620EA0000600056000000
B0957465208700N01240620EA0000600056000000
B0957505208700N01240620EA0000600056000000
B0957545208700N01240620EA0000600056000000
B0957585208700N01240620EA0000600056000000
B0958025208700N01240620EA0000600056000000
B0958065208700N01240620EA0000600056000000
B0958105208700N01240620EA0000600056000000
B0958145208700N01240620EA0000600056000000
B0958185208700N01240620EA0000600056000000
B0958225208700N01240620EA0000600056000000
B0958265208700N01240620EA0000600056000000
B0958305208700N01240620EA0000600056000000
B0958345208700N01240620EA0000600056000000
B0958385208700N01240620EA0000600056000000
B0958425208700N01240620EA0000600056000000
B0958465208700N01240620EA0000600056000000
B0958505208700N01240620EA0000600056000000
B0958545208700N01240620EA0000600056000000
B0958585208700N01240620EA0000600056000000
B0959025208700N01240620EA0000600056000000
B0959065208700N01240620EA0000600056000000
B0959105208700N01240620EA0000600056000000
B0959145208700N01240620EA0000600056000000
B0959185208700N01240620EA0000600056000000
B0959225208700N01240620EA0000600056000000
B0959265208700N01240620EA0000600056000000
B0959305208700N01240620EA0000600056000000
B0959345208700N01240620EA0000600056000000
B0959385208700N01240620EA0000600056000000
B0959425208700N01240620EA0000600056000000
B0959465208700N01240620EA0000600056000000
B0959505208700N01240620EA0000600056000000
B0959545208700N01240620EA0000600056000000
B0959585208700N01240620EA0000600056000000
B1000025208700N01240620EA0000600056000000
B1000065208700N01240620EA0000600056000000
B1000105208700N01240620EA0000600056000000
B1000145208700N01240620EA0000600056000000
B1000185208700N01240620EA0000600056000000
B1000225208700N01240620EA0000600056000000
B1000265208700N01240620EA0000600056000000
B1000305208700N01240620EA0000600056000000
B1000345208700N01240620EA0000600056000000
B1000385208700N01240620EA0000600056000000
B1000425208700N01240620EA0000600056000000
B1000465208700N01240620EA0000600056000000
B1000505208700N01240620EA0000600056000000
B1000545208700N01240620EA0000600056000000
B1000585208700N01240620EA0000600056000000
B1001025208700N01240620EA0000600056000000
B1001065208700N01240620EA0000600056000000
B1001105208700N01240620EA0000600056000000
B1001145208700N01240620EA0000600056000000
B1001185208700N01240620EA0000600056000000
B1001225208700N01240620EA0000600056000000
B1001265208700N01240620EA0000600056000000
B1001305208700N01240620EA0000600056000000
B1001345208700N01240620EA0000600056000000
B1001385208700N01240620EA0000600056000000
B1001425208700N01240620EA0000600064000000
B1001465208700N01240620EA0000600064000000
B1001505208700N01240620EA0000600064000000
B1001545208700N01240620EA0000600064000000
B1001585208700N01240620EA0000600064000000
B1002025208700N01240620EA0000600064000000
B1002065208700N01240620EA0000600064000000
B1002105208700N01240620EA0000600064000000
B1002145208700N01240620EA0000600064000000
B1002185208700N01240620EA0000600064000000
B1002225208700N01240620EA0000600064000000
B1002265208700N01240620EA0000600064000000
B1002305208700N01240620EA0000600064000000
B1002345208700N01240620EA0000600064000000
B1002385208700N01240620EA0000600064000000
B1002425208700N01240620EA0000600064000000
B1002465208700N01240620EA0000600064000000
B1002505208700N01240620EA0000600064000000
B1002545208700N01240620EA0000600064000000
B1002585208700N01240620EA0000600064000000
B1003025208700N01240620EA0000600064000000
B1003065208700N01240620EA0000600064000000
B1003105208700N01240620EA0000600064000000
B1003145208700N01240620EA0000600064000000
B1003185208700N01240620EA0000600064000000
B1003225208700N01240620EA0000600064000000
B1003265208700N01240620EA0000600064000000
B1003305208700N01240620EA0000600064000000
B1003345208700N01240620EA0000600064000000
B1003385208700N01240620EA0000600064000000
B1003425208700N01240620EA0000600064000000
B1003465208700N01240620EA0000600064000000
B1003505208700N01240620EA0000600064000000
B1003545208700N01240620EA0000600064000000
B1003585208700N01240620EA0000600064000000
B1004025208700N01240620EA0000600064000000
B1004065208700N01240620EA0000600064000000
B1004105208700N01240620EA0000600064000000
B1004145208700N01240620EA0000600064000000
B1004185208700N01240620EA0000600064000000
B1004225208700N01240620EA0000600064000000
B1004265208700N01240620EA0000600064000000
B1004305208700N01240620EA0000600064000000
B1004345208700N01240620EA0000600064000000
B1004385208700N01240620EA0000600064000000
B1004425208700N01240620EA0000600064000000
B1004465208700N01240620EA0000600064000000
B1004505208700N01240620EA0000600064000000
B1004545208700N01240620EA0000600064000000
B1004585208700N01240620EA0000600064000000
B1005025208700N01240620EA0000600064000000
B1005065208700N01240620EA0000600064000000
B1005105208700N01240620EA0000600064000000
B1005145208700N01240620EA0000600064000000
B1005185208700N01240620EA0000600064000000
B1005225208700N01240620EA0000600064000000
B1005265208700N01240620EA0000600064000000
B1005305208700N01240620EA0000600064000000
B1005345208700N01240620EA0000600064000000
B1005385208700N01240620EA0000600072000000
B1005425208700N01240620EA0000600072000000
B1005465208700N01240620EA0000600072000000
B1005505208700N01240620EA0000600072000000
B1005545208700N01240620EA0000600072000000
B1005585208700N01240620EA0000600072000000
B1006025208700N01240620EA0000600064000000
B1006065208700N01240620EA0000600064000000
B1006105208700N01240620EA0000600072000000
B1006145208700N01240620EA0000600072000000
B1006185208700N01240620EA0000600072000000
B1006225208700N01240620EA0000600072000000
B1006265208700N01240620EA0000600072000000
B1006305208700N01240620EA0000600072000000
B1006345208700N01240620EA0000600072000000
B1006385208700N01240620EA0000600072000000
B1006425208700N01240620EA0000600072000000
B1006465208700N01240620EA0000600072000000
B1006505208700N01240620EA0000600072000000
B1006545208700N01240620EA0000600072000000
B1006585208700N01240620EA0000600072000000
B1007025208700N01240620EA0000600072000000
B1007065208700N01240620EA0000600072000000
B1007105208700N01240620EA0000600072000000
B1007145208700N01240620EA0000600072000000
B1007185208700N01240620EA0000600072000000
B1007225208700N01240620EA0000600072000000
B1007265208700N01240620EA0000600072000000
B1007305208700N01240620EA0000600072000000
B1007345208700N01240620EA0000600072000000
B1007385208700N01240620EA0000600072000000
B1007425208700N01240620EA0000600072000000
B1007465208700N01240620EA0000600072000000
B1007505208700N01240620EA0000600072000000
B1007545208700N01240620EA0000600072000000
B1007585208700N01240620EA0000600072000000
B1008025208700N01240620EA0000600072000000
B1008065208700N01240620EA0000500072000000
B1008105208700N01240620EA0000500072000000
B1008145208700N01240620EA0000500072000000
B1008185208700N01240620EA0000500072000000
B1008225208700N01240620EA0000500072000000
B1008265208700N01240620EA0000500072000000
B1008305208700N01240620EA0000500072000000
B1008345208700N01240620EA0000500072000000
B1008385208700N01240620EA0000500072000000
B1008425208700N01240620EA0000500072000000
B1008465208700N01240620EA0000500072000000
B1008505208700N01240620EA0000500072000000
B1008545208700N01240620EA0000500072000000
B1008585208700N01240620EA0000500072000000
B1009025208700N01240620EA0000500072000000
B1009065208700N01240620EA0000500072000000
B1009105208700N01240620EA0000500072000000
B1009145208700N01240620EA0000600072000000
B1009185208700N01240620EA0000600072000000
B1009225208700N01240620EA0000600072000000
B1009265208700N01240620EA0000600072000000
B1009305208700N01240620EA0000600072000000
B1009345208700N01240620EA0000600072000000
B1009385208700N01240620EA0000600072000000
B1009425208700N01240620EA0000600072000000
B1009465208700N01240620EA0000600072000000
B1009505208700N01240620EA0000600072000000
B1009545208700N01240620EA0000600072000000
B1009585208700N01240620EA0000600072000000
B1010025208700N01240620EA0000600072000000
B1010065208700N01240620EA0000600072000000
B1010105208700N01240620EA0000600072000000
B1010145208700N01240620EA0000600072000000
B1010185208700N01240620EA0000600072000000
B1010225208700N01240620EA0000600072000000
B1010265208700N01240620EA0000600072000000
B1010305208700N01240620EA0000600072000000
B1010345208700N01240620EA0000600072000000
B1010385208700N01240620EA0000600064000000
B1010425208700N01240620EA0000600064000000
B1010465208700N01240620EA0000600064000000
B1010505208700N01240620EA0000600064000000
B1010545208700N01240620EA0000600072000000
B1010585208700N01240620EA0000600072000000
B1011025208700N01240620EA0000600072000000
B1011065208700N01240620EA0000600072000000
B1011105208700N01240620EA0000600072000000
B1011145208700N01240620EA0000600072000000
B1011185208700N01240620EA0000600072000000
B1011225208700N01240620EA0000600072000000
B1011265208700N01240620EA0000600064000000
B1011305208700N01240620EA0000600064000000
B1011345208700N01240620EA0000600064000000
B1011385208700N01240620EA0000600064000000
B1011425208700N01240620EA0000600064000000
B1011465208700N01240620EA0000600064000000
B1011505208700N01240620EA0000600064000000
B1011545208700N01240620EA0000600072000000
B1011585208700N01240620EA0000600072000000
B1012025208700N01240620EA0000600072000000
B1012065208700N01240620EA0000600072000000
B1012105208700N01240620EA0000600072000000
B1012145208700N01240620EA0000600072000000
B1012185208700N01240620EA0000600072000000
B1012225208700N01240620EA0000600072000000
B1012265208700N01240620EA0000600072000000
B1012305208700N01240620EA0000600072000000
B1012345208700N01240620EA0000600072000000
B1012385208700N01240620EA0000600072000000
B1012425208700N01240620EA0000600072000000
B1012465208700N01240620EA0000600072000000
B1012505208700N01240620EA0000600072000000
B1012545208700N01240620EA0000600072000000
B1012585208700N01240620EA0000600072000000
B1013025208700N01240620EA0000600072000000
B1013065208700N01240620EA0000600072000000
B1013105208700N01240620EA0000600072000000
B1013145208700N01240620EA0000600072000000
B1013185208700N01240620EA0000600072000000
B1013225208700N01240620EA0000600072000000
B1013265208700N01240620EA0000600072000000
B1013305208700N01240620EA0000600072000000
B1013345208700N01240620EA0000600072000000
B1013385208700N01240620EA0000600072000000
B1013425208700N01240620EA0000600072000000
B1013465208700N01240620EA0000600072000000
B1013505208700N01240620EA0000600072000000
B1013545208700N01240620EA0000600072000000
B1013585208700N01240620EA0000600072000000
B1014025208700N01240620EA0000600072000000
B1014065208700N01240620EA0000600072000000
B1014105208700N01240620EA0000600072000000
B1014145208700N01240620EA0000600072000000
B1014185208700N01240620EA0000600072000000
B1014225208700N01240620EA0000600072000000
B1014265208700N01240620EA0000600072000000
B1014305208700N01240620EA0000600072000000
B1014345208700N01240620EA0000600072000000
B1014385208700N01240620EA0000600072000000
B1014425208700N01240620EA0000600072000000
B1014465208700N01240620EA0000600072000000
B1014505208700N01240620EA0000600072000000
B1014545208700N01240620EA0000600072000000
B1014585208700N01240620EA0000600072000000
B1015025208700N01240620EA0000600072000000
B1015065208700N01240620EA0000600072000000
B1015105208700N01240620EA0000600072000000
B1015145208700N01240620EA0000600072000000
B1015185208700N01240620EA0000600072000000
B1015225208700N01240620EA0000600072000000
B1015265208700N01240620EA0000600072000000
B1015305208700N01240620EA0000600072000000
B1015345208700N01240620EA0000600072000000
B1015385208700N01240620EA0000600072000000
B1015425208700N01240620EA0000600072000000
B1015465208700N01240620EA0000600072000000
B1015505208700N01240620EA0000600064000000
B1015545208700N01240620EA0000600064000000
B1015585208700N01240620EA0000600064000000
B1016025208700N01240620EA0000600064000000
B1016065208700N01240620EA0000600064000000
B1016105208700N01240620EA0000600064000000
B1016145208700N01240620EA0000600064000000
B1016185208700N01240620EA0000600064000000
B1016225208700N01240620EA0000600064000000
B1016265208700N01240620EA0000600064000000
B1016305208700N01240620EA0000600064000000
B1016345208700N01240620EA0000600064000000
B1016385208700N01240620EA0000600064000000
B1016425208700N01240620EA0000600064000000
B1016465208700N01240620EA0000600064000000
B1016505208700N01240620EA0000600064000000
B1016545208700N01240620EA0000600064000000
B1016585208700N01240620EA0000600064000000
B1017025208700N01240620EA0000600064000000
B1017065208700N01240620EA0000600064000000
B1017105208700N01240620EA0000600064000000
B1017145208700N01240620EA0000600064000000
B1017185208700N01240620EA0000600064000000
B1017225208700N01240620EA0000600064000000
B1017265208700N01240620EA0000600064000000
B1017305208700N01240620EA0000600064000000
B1017345208700N01240620EA0000600064000000
B1017385208700N01240620EA0000600064000000
B1017425208700N01240620EA0000600064000000
B1017465208700N01240620EA0000600064000000
B1017505208700N01240620EA0000600064000000
B1017545208700N01240620EA0000600064000000
B1017585208700N01240620EA0000600064000000
B1018025208700N01240620EA0000600064000000
B1018065208700N01240620EA0000600064000000
B1018105208700N01240620EA0000600064000004
B1018145208700N01240620EA0000600064000000
B1018185208700N01240620EA0000600064000004
B1018225208700N01240620EA0000600064000004
B1018265208700N01240620EA0000600064000012
B1018305208700N01240620EA0000600064000008
B1018345208700N01240620EA0000600064000000
B1018385208700N01240620EA0000600064000008
B1018425208700N01240620EA0000600064000000
B1018465208700N01240620EA0000600064000000
B1018505208700N01240620EA0000600064000000
B1018545208700N01240620EA0000600064000000
B1018585208700N01240620EA0000600064000000
B1019025208700N01240620EA0000600064000000
B1019065208700N01240620EA0000600064000000
B1019105208700N01240620EA0000600064000000
B1019145208700N01240620EA0000600064000000
B1019185208700N01240620EA0000600064000000
B1019225208700N01240620EA0000600064000000
B1019265208700N01240620EA0000600064000000
B1019305208700N01240620EA0000600064000000
B1019345208700N01240620EA0000600064000000
B1019385208700N01240620EA0000600064000000
B1019425208700N01240620EA0000600064000000
B1019465208700N01240620EA0000600064000000
B1019505208700N01240620EA0000600064000000
B1019545208700N01240620EA0000600064000000
B1019585208700N01240620EA0000600064000000
B1020025208700N01240620EA0000600064000000
B1020065208700N01240620EA0000600064000000
B1020105208700N01240620EA0000600064000000
B1020145208700N01240620EA0000600064000000
B1020185208700N01240620EA0000600072000000
B1020225208700N01240620EA0000600072000000
B1020265208700N01240620EA0000600072000000
B1020305208700N01240620EA0000600072000000
B1020345208700N01240620EA0000600072000000
B1020385208700N01240620EA0000600072000000
B1020425208700N01240620EA0000600072000000
B1020465208700N01240620EA0000600072000000
B1020505208700N01240620EA0000600072000000
B1020545208700N01240620EA0000600072000000
B1020585208700N01240620EA0000700072000000
B1021025208700N01240620EA0000700064000000
B1021065208700N01240620EA0000700064000000
B1021105208700N01240620EA0000700064000000
B1021145208700N01240620EA0000700064000000
B1021185208700N01240620EA0000700064000000
B1021225208700N01240620EA0000700064000000
B1021265208700N01240620EA0000700064000000
B1021305208700N01240620EA0000700064000000
B1021345208700N01240620EA0000700064000000
B1021385208700N01240620EA0000700064000000
B1021425208700N01240620EA0000700064000000
B1021465208700N01240620EA0000700064000000
B1021505208700N01240620EA0000700064000000
B1021545208700N01240620EA0000700064000000
B1021585208700N01240620EA0000700064000000
B1022025208700N01240620EA0000700064000000
B1022065208700N01240620EA0000700064000000
B1022105208700N01240620EA0000700064000000
B1022145208700N01240620EA0000700064000000
B1022185208700N01240620EA0000700064000000
B1022225208700N01240620EA0000700064000000
B1022265208700N01240620EA0000700064000004
B1022305208700N01240620EA0000700064000000
B1022345208700N01240620EA0000700064000004
B1022385208700N01240620EA0000700064000004
B1022425208700N01240620EA0000700064000004
B1022465208700N01240620EA0000700064000004
B1022505208700N01240620EA0000700064000004
B1022545208700N01240620EA0000700064000004
B1022585208700N01240620EA0000700064000004
B1023025208700N01240620EA0000700064000004
B1023065208700N01240620EA0000700064000008
B1023105208700N01240620EA0000700064000008
B1023145208700N01240620EA0000700064000008
B1023185208700N01240620EA0000700064000008
B1023225208700N01240620EA0000700064000008
B1023265208700N01240620EA0000700064000008
B1023305208700N01240620EA0000700064000008
B1023345208700N01240620EA0000700064000008
B1023385208700N01240620EA0000700064000024
B1023425208700N01240620EA0000700064000016
B1023465208700N01240620EA0000700064000020
B1023505208700N01240620EA0000700064000024
B1023545208700N01240620EA0000700064000024
B1023585208700N01240620EA0000700064000024
B1024025208700N01240620EA0000700064000040
B1024065208700N01240620EA0000700064000032
B1024105208700N01240620EA0000700064000040
B1024145208700N01240620EA0000700064000040
B1024185208700N01240620EA0000700064000036
B1024225208700N01240620EA0000700064000040
B1024265208700N01240620EA0000700064000032
B1024305208700N01240620EA0000700064000032
B1024345208700N01240620EA0000700064000024
B1024385208700N01240620EA0000700064000028
B1024425208700N01240620EA0000700064000044
B1024465208700N01240620EA0000700064000032
B1024505208700N01240620EA0000700064000036
B1024545208700N01240620EA0000700064000040
B1024585208700N01240620EA0000700064000032
B1025025208700N01240620EA0000700064000032
B1025065208700N01240620EA0000700064000032
B1025105208700N01240620EA0000700064000032
B1025145208700N01240620EA0000700064000020
B1025185208700N01240620EA0000700064000024
B1025225208700N01240620EA0000700064000028
B1025265208700N01240620EA0000600064000024
B1025305208700N01240620EA0000600064000024
B1025345208700N01240620EA0000600064000024
B1025385208700N01240620EA0000600064000024
B1025425208700N01240620EA0000600064000024
B1025465208700N01240620EA0000600064000004
B1025505208700N01240620EA0000600064000016
B1025545208700N01240620EA0000600064000028
B1025585208700N01240620EA0000600064000016
B1026025208700N01240620EA0000600064000000
B1026065208700N01240620EA0000600064000016
B1026105208700N01240620EA0000600064000008
B1026145208700N01240620EA0000600064000004
B1026185208700N01240620EA0000600064000008
B1026225208700N01240620EA0000600064000008
B1026265208700N01240620EA0000600064000028
B1026305208700N01240620EA0000600064000016
B1026345208700N01240620EA0000700064000016
B1026385208700N01240620EA0000700064000024
B1026425208700N01240620EA0000700064000016
B1026465208700N01240620EA0000700064000016
B1026505208700N01240620EA0000700064000060
B1026545208700N01240620EA0000700064000040
B1026585208700N01240620EA0000700064000016
B1027025208700N01240620EA0000700064000040
B1027065208700N01240620EA0000700064000060
B1027105208700N01240620EA0000700064000040
B1027145208700N01240620EA0000700064000048
B1027185208700N01240620EA0000700064000056
B1027225208700N01240620EA0000700064000020
B1027265208700N01240620EA0000700064000032
B1027305208700N01240620EA0000700064000008
B1027345208700N01240620EA0000700064000016
B1027385208700N01240620EA0000700064000044
B1027425208700N01240620EA0000700064000024
B1027465208700N01240620EA0000700064000016
B1027505208700N01240620EA0000700064000032
B1027545208700N01240620EA0000700064000000
B1027585208700N01240620EA0000700064000008
B1028025208700N01240620EA0000700064000024
B1028065208700N01240620EA0000700064000012
B1028105208700N01240620EA0000700064000000
B1028145208700N01240620EA0000700064000012
B1028185208700N01240620EA0000700064000028
B1028225208700N01240620EA0000700064000016
B1028265208700N01240620EA0000700064000020
B1028305208700N01240620EA0000700064000024
B1028345208700N01240620EA0000700064000008
B1028385208700N01240620EA0000700064000016
B1028425208700N01240620EA0000700064000008
B1028465208700N01240620EA0000700064000008
B1028505208700N01240620EA0000700064000004
B1028545208700N01240620EA0000700056000008
B1028585208700N01240620EA0000700056000004
B1029025208700N01240620EA0000700056000004
B1029065208700N01240620EA0000700056000000
B1029105208700N01240620EA0000700056000000
B1029145208700N01240620EA0000700056000012
B1029185208700N01240620EA0000700056000008
B1029225208700N01240620EA0000700056000008
B1029265208700N01240620EA0000700056000008
B1029305208700N01240620EA0000700056000008
B1029345208700N01240620EA0000700056000008
B1029385208700N01240620EA0000700056000000
B1029425208700N01240620EA0000700056000004
B1029465208700N01240620EA0000700056000000
B1029505208700N01240620EA0000700056000000
B1029545208700N01240620EA0000700056000004
B1029585208700N01240620EA0000700056000000
B1030025208700N01240620EA0000700056000000
B1030065208700N01240620EA0000700056000000
B1030105208700N01240620EA0000700064000000
B1030145208700N01240620EA0000700064000000
B1030185208700N01240620EA0000700064000004
B1030225208700N01240620EA0000700064000000
B1030265208700N01240620EA0000700064000000
B1030305208700N01240620EA0000700056000000
B1030345208700N01240620EA0000700056000000
B1030385208700N01240620EA0000700056000000
B1030425208700N01240620EA0000700056000000
B1030465208700N01240620EA0000700056000000
B1030505208700N01240620EA0000700056000000
B1030545208700N01240620EA0000700056000000
B1030585208700N01240620EA0000700056000004
B1031025208700N01240620EA0000700056000000
B1031065208700N01240620EA0000700056000000
B1031105208700N01240620EA0000700056000000
B1031145208700N01240620EA0000700056000000
B1031185208700N01240620EA0000700056000000
B1031225208700N01240620EA0000700056000004
B1031265208700N01240620EA0000700056000000
B1031305208700N01240620EA0000700056000024
B1031345208700N01240620EA0000700056000016
B1031385208700N01240620EA0000700056000024
B1031425208700N01240620EA0000700056000024
B1031465208700N01240620EA0000700056000000
B1031505208700N01240620EA0000700064000012
B1031545208700N01240620EA0000700064000012
B1031585208700N01240620EA0000700064000008
B1032025208700N01240620EA0000700064000008
B1032065208700N01240620EA0000700064000008
B1032105208700N01240620EA0000700064000024
B1032145208700N01240620EA0000700064000016
B1032185208700N01240620EA0000700064000000
B1032225208700N01240620EA0000700064000012
B1032265208700N01240620EA0000700064000008
B1032305208700N01240620EA0000700064000004
B1032345208700N01240620EA0000700064000012
B1032385208700N01240620EA0000700064000008
B1032425208700N01240620EA0000700064000008
B1032465208700N01240620EA0000700064000008
B1032505208700N01240620EA0000700064000004
B1032545208700N01240620EA0000700064000008
B1032585208700N01240620EA0000700064000000
B1033025208700N01240620EA0000700064000000
B1033065208700N01240620EA0000700064000000
B1033105208700N01240620EA0000700064000000
B1033145208700N01240620EA0000700064000000
B1033185208700N01240620EA0000700064000000
B1033225208700N01240620EA0000700064000000
B1033265208700N01240620EA0000700064000000
B1033305208700N01240620EA0000700064000000
B1033345208700N01240620EA0000700064000000
B1033385208700N01240620EA0000700064000000
B1033425208700N01240620EA0000700064000000
B1033465208700N01240620EA0000700064000000
B1033505208700N01240620EA0000700064000000
B1033545208700N01240620EA0000700064000000
B1033585208700N01240620EA0000700064000000
B1034025208700N01240620EA0000700064000000
B1034065208700N01240620EA0000700064000000
B1034105208700N01240620EA0000700064000000
B1034145208700N01240620EA0000700064000000
B1034185208700N01240620EA0000700064000000
B1034225208700N01240620EA0000700064000000
B1034265208700N01240620EA0000700064000000
B1034305208700N01240620EA0000700064000000
B1034345208700N01240620EA0000700064000004
B1034385208700N01240620EA0000700064000000
B1034425208700N01240620EA0000700064000012
B1034465208700N01240620EA0000700064000008
B1034505208700N01240620EA0000700064000004
B1034545208700N01240620EA0000700064000008
B1034585208700N01240620EA0000700064000000
B1035025208700N01240620EA0000700064000000
B1035065208700N01240620EA0000700064000004
B1035105208700N01240620EA0000700064000000
B1035145208700N01240620EA0000700064000012
B1035185208700N01240620EA0000700064000008
B1035225208700N01240620EA0000700064000008
B1035265208700N01240620EA0000700064000008
B1035305208700N01240620EA0000600064000012
B1035345208700N01240620EA0000700064000008
B1035385208700N01240620EA0000700064000008
B1035425208700N01240620EA0000700064000008
B1035465208700N01240620EA0000700064000008
B1035505208700N01240620EA0000700064000008
B1035545208700N01240620EA0000700064000000
B1035585208700N01240620EA0000700064000004
B1036025208700N01240620EA0000700064000000
B1036065208700N01240620EA0000700064000000
B1036105208700N01240620EA0000700064000000
B1036145208700N01240620EA0000700064000000
B1036185208700N01240620EA0000700064000004
B1036225208700N01240620EA0000700064000000
B1036265208700N01240620EA0000700064000000
B1036305208700N01240620EA0000700064000000
B1036345208700N01240620EA0000700064000000
B1036385208700N01240620EA0000700064000000
B1036425208700N01240620EA0000700064000000
B1036465208700N01240620EA0000700064000000
B1036505208700N01240620EA0000700064000000
B1036545208700N01240620EA0000700064000000
B1036585208700N01240620EA0000700064000000
B1037025208700N01240620EA0000700064000000
B1037065208700N01240620EA0000700064000000
B1037105208700N01240620EA0000700064000000
B1037145208700N01240620EA0000700064000000
B1037185208700N01240620EA0000700064000000
B1037225208700N01240620EA0000700064000000
B1037265208700N01240620EA0000700064000000
B1037305208700N01240620EA0000800064000000
B1037345208700N01240620EA0000800064000000
B1037385208700N01240620EA0000800064000000
B1037425208700N01240620EA0000800064000000
B1037465208700N01240620EA0000800064000000
B1037505208700N01240620EA0000800064000000
B1037545208700N01240620EA0000800064000000
B1037585208700N01240620EA0000800064000000
B1038025208700N01240620EA0000800064000004
B1038065208700N01240620EA0000800064000000
B1038105208700N01240620EA0000800064000004
B1038145208700N01240620EA0000800064000004
B1038185208700N01240620EA0000800064000004
B1038225208700N01240620EA0000800064000004
B1038265208700N01240620EA0000800064000000
B1038305208700N01240620EA0000800064000000
B1038345208700N01240620EA0000800064000024
B1038385208700N01240620EA0000800064000012
B1038425208700N01240620EA0000800064000016
B1038465208700N01240620EA0000800064000020
B1038505208700N01240620EA0000800064000016
B1038545208700N01240620EA0000700064000016
B1038585208700N01240620EA0000700064000016
B1039025208700N01240620EA0000700064000016
B1039065208700N01240620EA0000700064000000
B1039105208700N01240620EA0000700064000008
B1039145208700N01240620EA0000700064000012
B1039185208700N01240620EA0000700064000008
B1039225208700N01240620EA0000700064000020
B1039265208700N01240620EA0000700064000016
B1039305208700N01240620EA0000700064000016
B1039345208700N01240620EA0000700064000016
B1039385208700N01240620EA0000700064000016
B1039425208700N01240620EA0000700064000016
B1039465208700N01240620EA0000700064000008
B1039505208700N01240620EA0000700064000012
B1039545208700N01240620EA0000700064000008
B1039585208700N01240620EA0000700064000008
B1040025208700N01240620EA0000700064000008
B1040065208700N01240620EA0000700064000008
B1040105208700N01240620EA0000700064000008
B1040145208700N01240620EA0000700064000008
B1040185208700N01240620EA0000700064000008
B1040225208700N01240620EA0000700064000008
B1040265208700N01240620EA0000700064000008
B1040305208700N01240620EA0000700064000008
B1040345208700N01240620EA0000700064000004
B1040385208700N01240620EA0000700064000008
B1040425208700N01240620EA0000700064000008
B1040465208700N01240620EA0000700064000008
B1040505208700N01240620EA0000700064000000
B1040545208700N01240620EA0000700064000004
B1040585208700N01240620EA0000700064000000
B1041025208700N01240620EA0000700064000000
B1041065208700N01240620EA0000700064000000
B1041105208700N01240620EA0000700064000000
B1041145208700N01240620EA0000700064000000
B1041185208700N01240620EA0000700064000000
B1041225208700N01240620EA0000700064000000
B1041265208700N01240620EA0000700064000000
B1041305208700N01240620EA0000700064000000
B1041345208700N01240620EA0000700064000000
B1041385208700N01240620EA0000700064000000
B1041425208700N01240620EA0000700064000000
B1041465208700N01240620EA0000700064000008
B1041505208700N01240620EA0000700064000004
B1041545208700N01240620EA0000700064000004
B1041585208700N01240620EA0000700064000008
B1042025208700N01240620EA0000700064000000
B1042065208700N01240620EA0000700064000000
B1042105208700N01240620EA0000700064000000
B1042145208700N01240620EA0000700064000000
B1042185208700N01240620EA0000800064000000
B1042225208700N01240620EA0000800064000000
B1042265208700N01240620EA0000800064000000
B1042305208700N01240620EA0000700064000000
B1042345208700N01240620EA0000700064000000
B1042385208700N01240620EA0000700064000000
B1042425208700N01240620EA0000700064000004
B1042465208700N01240620EA0000700064000000
B1042505208700N01240620EA0000700064000004
B1042545208700N01240620EA0000700064000004
B1042585208700N01240620EA0000700064000024
B1043025208700N01240620EA0000700064000016
B1043065208700N01240620EA0000700064000016
B1043105208700N01240620EA0000700064000020
B1043145208700N01240620EA0000700064000000
B1043185208700N01240620EA0000700064000008
B1043225208700N01240620EA0000700064000028
B1043265208700N01240620EA0000700064000016
B1043305208700N01240620EA0000700064000024
B1043345208700N01240620EA0000700064000024
B1043385208700N01240620EA0000700064000020
B1043425208700N01240620EA0000700064000024
B1043465208700N01240620EA0000700064000024
B1043505208700N01240620EA0000700064000024
B1043545208700N01240620EA0000700064000032
B1043585208700N01240620EA0000700064000028
B1044025208700N01240620EA0000700064000024
B1044065208700N01240620EA0000700064000028
B1044105208700N01240620EA0000700064000012
B1044145208700N01240620EA0000700064000016
B1044185208700N01240620EA0000700064000012
B1044225208700N01240620EA0000700064000012
B1044265208700N01240620EA0000700064000008
B1044305208700N01240620EA0000700064000008
B1044345208700N01240620EA0000700064000012
B1044385208700N01240620EA0000700064000008
B1044425208700N01240620EA0000700064000008
B1044465208700N01240620EA0000700064000008
B1044505208700N01240620EA0000700064000012
B1044545208700N01240620EA0000700064000008
B1044585208700N01240620EA0000700064000028
B1045025208700N01240620EA0000700064000020
B1045065208700N01240620EA0000700064000024
B1045105208700N01240620EA0000700064000024
B1045145208700N01240620EA0000700064000016
B1045185208700N01240620EA0000700064000020
B1045225208700N01240620EA0000700064000000
B1045265208700N01240620EA0000700064000008
B1045305208700N01240620EA0000700064000012
B1045345208700N01240620EA0000700064000008
B1045385208700N01240620EA0000700064000004
B1045425208700N01240620EA0000700064000008
B1045465208700N01240620EA0000700064000000
B1045505208700N01240620EA0000700064000000
B1045545208700N01240620EA0000700064000040
B1045585208700N01240620EA0000700064000020
B1046025208700N01240620EA0000700064000016
B1046065208700N01240620EA0000700064000028
B1046105208700N01240620EA0000700064000004
B1046145208700N01240620EA0000700064000008
B1046185208700N01240620EA0000700064000008
B1046225208700N01240620EA0000700064000008
B1046265208700N01240620EA0000700064000004
B1046305208700N01240620EA0000700064000008
B1046345208700N01240620EA0000700064000004
B1046385208700N01240620EA0000700064000004
B1046425208700N01240620EA0000700064000012
B1046465208700N01240620EA0000700064000008
B1046505208700N01240620EA0000700064000012
B1046545208700N01240620EA0000700064000012
B1046585208700N01240620EA0000700064000008
B1047025208700N01240620EA0000700064000008
B1047065208700N01240620EA0000800064000008
B1047105208700N01240620EA0000800064000008
B1047145208700N01240620EA0000800064000024
B1047185208700N01240620EA0000800064000016
B1047225208700N01240620EA0000800064000000
B1047265208700N01240620EA0000800064000012
B1047305208700N01240620EA0000800064000004
B1047345208700N01240620EA0000800064000000
B1047385208700N01240620EA0000800064000020
B1047425208700N01240620EA0000800064000012
B1047465208700N01240620EA0000800064000000
B1047505208700N01240620EA0000800064000008
B1047545208700N01240620EA0000800064000004
B1047585208700N01240620EA0000800064000000
B1048025208700N01240620EA0000800064000004
B1048065208700N01240620EA0000800064000004
B1048105208700N01240620EA0000800064000004
B1048145208700N01240620EA0000800064000004
B1048185208700N01240620EA0000800064000004
B1048225208700N01240620EA0000800064000004
B1048265208700N01240620EA0000800064000012
B1048305208700N01240620EA0000700064000008
B1048345208700N01240620EA0000700064000004
B1048385208700N01240620EA0000700064000008
B1048425208700N01240620EA0000700064000024
B1048465208700N01240620EA0000700064000016
B1048505208700N01240620EA0000700064000000
B1048545208700N01240620EA0000700064000012
B1048585208700N01240620EA0000700064000024
B1049025208700N01240620EA0000700064000012
B1049065208700N01240620EA0000700064000016
B1049105208700N01240620EA0000700064000020
B1049145208700N01240620EA0000700064000004
B1049185208700N01240620EA0000700064000008
B1049225208700N01240620EA0000700064000012
B1049265208700N01240620EA0000700064000008
B1049305208700N01240620EA0000700064000008
B1049345208700N01240620EA0000700064000008
B1049385208700N01240620EA0000700064000008
B1049425208700N01240620EA0000700064000008
B1049465208700N01240620EA0000700064000012
B1049505208700N01240620EA0000700064000008
B1049545208700N01240620EA0000700064000024
B1049585208700N01240620EA0000700064000016
B1050025208700N01240620EA0000700064000000
B1050065208700N01240620EA0000700064000012
B1050105208700N01240620EA0000700064000044
B1050145208700N01240620EA0000700064000024
B1050185208700N01240620EA0000700064000036
B1050225208700N01240620EA0000700064000040
B1050265208700N01240620EA0000700064000000
B1050305208700N01240620EA0000700064000016
B1050345208700N01240620EA0000700064013000
B1050385208700N01240620EA0000700064009000
B1050425208700N01240620EA0000700064008004
B1050465208700N01240620EA0000700064007000
B1050505208700N01240620EA0000700064004004
B1050545208700N01240620EA0000700064009004
B1050585208700N01240620EA0000700064015020
B1051025208700N01240620EA0000700064011012
B1051065208700N01240620EA0000700064010016
B1051105208700N01240620EA0000700064008016
B1051145208700N01240620EA0000700064010008
B1051185208700N01240620EA0000700064008012
B1051225208700N01240620EA0000700064008012
B1051265208700N01240620EA0000700064007008
B1051305208700N01240620EA0000700064004004
B1051345208700N01240620EA0000800064006008
B1051385208700N01240620EA0000800064004000
B1051425208700N01240620EA0000800064001000
B1051465208700N01240620EA0000800064001004
B1051505208700N01240620EA0000800064000000
B1051545208700N01240620EA0000800064000000
B1051585208700N01240620EA0000800064006000
B1052025208700N01240620EA0000800064009000
B1052065208700N01240620EA0000800064010000
B1052105208700N01240620EA0000800064008000
B1052145208700N01240620EA0000800064009000
B1052185208700N01240620EA0000800064008012
B1052225208700N01240620EA0000800064000008
B1052265208700N01240620EA0000800064003008
B1052305208700N01240620EA0000800064012008
B1052345208700N01240620EA0000800064014020
B1052385208700N01240620EA0000800064010016
B1052425208700N01240620EA0000800064012016
B1052465208700N01240620EA0000800064009016
B1052505208700N01240620EA0000800064002008
B1052545208700N01240620EA0000800064004012
B1052585208700N01240620EA0000800064000004
B1053025208700N01240620EA0000800064000008
B1053065208700N01240620EA0000800064007000
B1053105208700N01240620EA0000800064006000
B1053145208700N01240620EA0000800064003012
B1053185208700N01240620EA0000800064000008
B1053225208700N01240620EA0000700064000008
B1053265208700N01240620EA0000700064000008
B1053305208700N01240620EA0000700064003008
B1053345208700N01240620EA0000700064000008
B1053385208700N01240620EA0000700064001000
B1053425208700N01240620EA0000700064000004
B1053465208700N01240620EA0000700064000000
B1053505208700N01240620EA0000700064002000
B1053545208700N01240620EA0000700064000000
B1053585208700N01240620EA0000700064000000
B1054025208700N01240620EA0000700064001004
B1054065208700N01240620EA0000700064000000
B1054105208700N01240620EA0000800064000000
B1054145208700N01240620EA0000800064000000
B1054185208700N01240620EA0000800064000000
B1054225208700N01240620EA0000800064000000
B1054265208700N01240620EA0000800064000000
B1054305208700N01240620EA0000800064000000
B1054345208700N01240620EA0000800064000000
B1054385208700N01240620EA0000800064000000
B1054425208700N01240620EA0000800064002004
B1054465208700N01240620EA0000800064000000
B1054505208700N01240620EA0000800064000000
B1054545208700N01240620EA0000800064006000
B1054585208700N01240620EA0000800064001004
B1055025208700N01240620EA0000800064000000
B1055065208700N01240620EA0000800064000000
B1055105208700N01240620EA0000800064000000
B1055145208700N01240620EA0000800064000000
B1055185208700N01240620EA0000800064000000
B1055225208700N01240620EA0000800064000000
B1055265208700N01240620EA0000800064000000
B1055305208700N01240620EA0000800064000004
B1055345208700N01240620EA0000800064000000
B1055385208700N01240620EA0000800064000000
B1055425208700N01240620EA0000800064009000
B1055465208700N01240620EA0000800064010000
B1055505208700N01240620EA0000800064001000
B1055545208700N01240620EA0000800064009020
B1055585208700N01240620EA0000800064008008
B1056025208700N01240620EA0000800064005000
B1056065208700N01240620EA0000800064002008
B1056105208700N01240620EA0000900064007008
B1056145208700N01240620EA0000900064008004
B1056185208700N01240620EA0000900064004008
B1056225208700N01240620EA0000900064005008
B1056265208700N01240620EA0000900064007008
B1056305208700N01240620EA0000900064008008
B1056345208700N01240620EA0000900064007004
B1056385208700N01240620EA0000900064009008
B1056425208700N01240620EA0000900064008004
B1056465208700N01240620EA0000900064006004
B1056505208700N01240620EA0000900064008008
B1056545208700N01240620EA0000900064009008
B1056585208700N01240620EA0000900064008004
B1057025208700N01240620EA0000900064008008
B1057065208700N01240620EA0000900064009004
B1057105208700N01240620EA0000900064016004
B1057145208700N01240620EA0000900064014028
B1057185208700N01240620EA0000900064012016
B1057225208700N01240620EA0000900064016024
B1057265208700N01240620EA0000900056013024
B1057305208700N01240620EA0000900056018024
B1057345208700N01240620EA0000900056015024
B1057385208700N01240620EA0000900064016028
B1057425208700N01240620EA0000900064013024
B1057465208700N01240620EA0000900064014028
B1057505208700N01240620EA0000900064015028
B1057545208700N01240620EA0000900064001028
B1057585208700N01240620EA0000900064011028
B1058025208700N01240620EA0000900064013020
B1058065208700N01240620EA0000900064014024
B1058105208700N01240620EA0000900064014028
B1058145208700N01240620EA0000900064012024
B1058185208700N01240620EA0000900064017016
B1058225208700N01240620EA0000900064014024
B1058265208700N01240620EA0000900064000024
B1058305208700N01240620EA0000900064006020
B1058345208700N01240620EA0000900064008012
B1058385208700N01240620EA0000900064007016
B1058425208700N01240620EA0000900064008012
B1058465208700N01240620EA0000900064006012
B1058505208700N01240620EA0000900064008004
B1058545208700N01240620EA0000900064013008
B1058585208700N01240620EA0000900064014024
B1059025208700N01240620EA0000900064010016
B1059065208700N01240620EA0000900064008000
B1059105208700N01240620EA0000900064010012
B1059145208700N01240620EA0000900064008004
B1059185208700N01240620EA0000900064009000
B1059225208700N01240620EA0000900064006004
B1059265208700N01240620EA0000900064001004
B1059305208700N01240620EA0000900064007008
B1059345208700N01240620EA0000900064008008
B1059385208700N01240620EA0000900064007008
B1059425208700N01240620EA0000900064002008
B1059465208700N01240620EA0000900064000012
B1059505208700N01240620EA0000900064006008
B1059545208700N01240620EA0000900064006004
B1059585208700N01240620EA0000900064004008
B1100025208700N01240620EA0000900064008004
B1100065208700N01240620EA0000900064007004
B1100105208700N01240620EA0000900064010016
B1100145208700N01240620EA0000900064009008
B1100185208700N01240620EA0000900064009000
B1100225208700N01240620EA0000900064010008
B1100265208700N01240620EA0000900064008012
B1100305208700N01240620EA0000900064010008
B1100345208700N01240620EA0000900064010008
B1100385208700N01240620EA0000900064009008
B1100425208700N01240620EA0000900064007028
B1100465208700N01240620EA0000900064010016
B1100505208700N01240620EA0000900064001000
B1100545208700N01240620EA0000900064008016
B1100585208700N01240620EA0000900064006008
B1101025208700N01240620EA0000900064010004
B1101065208704N01240620EA0000900064005008
B1101105208704N01240620EA0000900064003008
B1101145208704N01240620EA0000900064010008
B1101185208700N01240620EA0000900064006008
B1101225208700N01240620EA0000900064006008
B1101265208704N01240620EA0000900064006008
B1101305208704N01240620EA0000900064009024
B1101345208704N01240620EA0000900064013016
B1101385208704N01240620EA0000900064011000
B1101425208704N01240620EA0000900064007012
B1101465208704N01240620EA0000900064011012
B1101505208700N01240620EA0000900064006008
B1101545208700N01240620EA0000900064007008
B1101585208700N01240620EA0000900064007008
B1102025208700N01240620EA0000900064002012
B1102065208700N01240620EA0000900064005008
B1102105208700N01240620EA0000900064007012
B1102145208700N01240620EA0000900064012012
B1102185208700N01240620EA0000900064015028
B1102225208700N01240620EA0000900064012020
B1102265208700N01240620EA0000900064013028
B1102305208700N01240620EA0000900064010028
B1102345208700N01240620EA0000900064017024
B1102385208700N01240620EA0000900064013024
B1102425208700N01240620EA0000900064009016
B1102465208700N01240620EA0000900064009020
B1102505208700N01240620EA0000900064012020
B1102545208700N01240620EA0000900064011016
B1102585208700N01240620EA0000900064012020
B1103025208700N01240620EA0000900064014020
B1103065208700N01240620EA0000900064012000
B1103105208700N01240620EA0000900064014008
B1103145208700N01240620EA0000900064014028
B1103185208700N01240620EA0000900064013016
B1103225208700N01240620EA0000900064012004
B1103265208700N01240620EA0000900064014016
B1103305208700N01240620EA0000900064010028
B1103345208700N01240620EA0000900064016016
B1103385208700N01240620EA0000900064017040
B1103425208700N01240620EA0000900064013032
B1103465208700N01240620EA0000900064011016
B1103505208700N01240620EA0000900064004028
B1103545208700N01240620EA0000900064008024
B1103585208700N01240620EA0000900064008020
B1104025208700N01240620EA0000900064008008
B1104065208700N01240620EA0000900064004016
B1104105208700N01240620EA0000900064008012
B1104145208700N01240620EA0000900064008008
B1104185208700N01240620EA0000900064002012
B1104225208700N01240620EA0000900064003012
B1104265208700N01240620EA0000900064002008
B1104305208700N01240620EA0000900064005008
B1104345208700N01240620EA0000900064005004
B1104385208700N01240620EA0000900064001008
B1104425208700N01240620EA0000900064006012
B1104465208700N01240620EA0000900064008008
B1104505208700N01240620EA0000900064011004
B1104545208700N01240620EA0000900064012008
B1104585208700N01240620EA0000900064013004
B1105025208700N01240620EA0000900064009004
B1105065208700N01240620EA0000900064009008
B1105105208700N01240620EA0000900064007008
B1105145208700N01240620EA0000900064011012
B1105185208700N01240620EA0000900064009008
B1105225208700N01240620EA0000900064004004
B1105265208700N01240620EA0000900064006008
B1105305208700N01240620EA0001000064010012
B1105345208700N01240620EA0001000064012008
B1105385208700N01240620EA0001000064008024
B1105425208700N01240620EA0001000064008016
B1105465208700N01240620EA0001000064008004
B1105505208700N01240620EA0001000064012016
B1105545208700N01240620EA0001000064011012
B1105585208700N01240620EA0000900064009008
B1106025208700N01240620EA0000900064009012
B1106065208700N01240620EA0000900064009012
B1106105208700N01240620EA0000900064001008
B1106145208700N01240620EA0000900064010008
B1106185208700N01240620EA0000900064007004
B1106225208700N01240620EA0000900064005008
B1106265208700N01240620EA0000900064000008
B1106305208700N01240620EA0000900064009008
B1106345208700N01240620EA0000900064004004
B1106385208700N01240620EA0000900064003008
B1106425208700N01240620EA0000900064012004
B1106465208700N01240620EA0000900064008004
B1106505208700N01240620EA0000900064002008
B1106545208700N01240620EA0000900064005008
B1106585208700N01240620EA0000900064010008
B1107025208700N01240620EA0000900064011008
B1107065208700N01240620EA0000900064013008
B1107105208700N01240620EA0000900064011008
B1107145208700N01240620EA0000900064008012
B1107185208700N01240620EA0000900064009008
B1107225208700N01240620EA0000900064009008
B1107265208700N01240620EA0000900064006008
B1107305208700N01240620EA0000900064007004
B1107345208700N01240620EA0000900064006008
B1107385208700N01240620EA0000900064003000
B1107425208700N01240620EA0000900064003000
B1107465208700N01240620EA0000900064012000
B1107505208700N01240620EA0000900064014000
B1107545208700N01240620EA0000900064011008
B1107585208700N01240620EA0000900064012004
B1108025208700N01240620EA0000900064004008
B1108065208700N01240620EA0000900064000008
B1108105208700N01240620EA0000900064000008
B1108145208700N01240620EA0000900064000008
B1108185208700N01240620EA0000900064000004
B1108225208700N01240620EA0000900064000008
B1108265208700N01240620EA0000900064004000
B1108305208700N01240620EA0000900064000000
B1108345208695N01240620EA0000900064002000
B1108385208695N01240620EA0000900064000000
B1108425208700N01240620EA0000900064000004
B1108465208700N01240620EA0000900064003000
B1108505208695N01240620EA0000900064003004
B1108545208695N01240620EA0000900064006004
B1108585208695N01240620EA0000900064004004
B1109025208695N01240620EA0000900064011004
B1109065208695N01240620EA0000900064008024
B1109105208695N01240620EA0000900064013016
B1109145208695N01240620EA0000900064000000
B1109185208695N01240620EA0000900064000012
B1109225208695N01240620EA0000900064005012
B1109265208695N01240620EA0000900064013008
B1109305208695N01240620EA0000900064013008
B1109345208695N01240620EA0000900064010008
B1109385208695N01240620EA0000900064004008
B1109425208695N01240620EA0000900064006008
B1109465208695N01240620EA0000900064013008
B1109505208695N01240620EA0000900064005008
B1109545208700N01240620EA0000900064009012
B1109585208700N01240620EA0000900064009008
B1110025208700N01240620EA0000900064007012
B1110065208700N01240620EA0000900064012012
B1110105208700N01240620EA0000900064011008
B1110145208700N01240620EA0000900064005008
B1110185208700N01240620EA0000900064003008
B1110225208700N01240620EA0000900064005008
B1110265208700N01240620EA0000900064000004
B1110305208700N01240620EA0000900064004008
B1110345208700N01240620EA0000900064009004
B1110385208700N01240620EA0000900064008004
B1110425208700N01240620EA0001000064011012
B1110465208700N01240620EA0001000064009008
B1110505208700N01240620EA0001000064008028
B1110545208700N01240620EA0001000064008020
B1110585208700N01240620EA0001000064011028
B1111025208700N01240620EA0001000064010028
B1111065208700N01240620EA0001000064010016
B1111105208700N01240620EA0001000064014024
B1111145208700N01240620EA0001000064015020
B1111185208700N01240620EA0001000064014016
B1111225208700N01240620EA0001000064010020
B1111265208700N01240620EA0001000064012020
B1111305208700N01240620EA0001000064011008
B1111345208700N01240620EA0001000064002016
B1111385208700N01240620EA0001000064002004
B1111425208700N01240620EA0001000064014008
B1111465208700N01240620EA0001000064005008
B1111505208700N01240620EA0001000064007008
B1111545208700N01240620EA0001000064008012
B1111585208700N01240620EA0001000064008008
B1112025208700N01240620EA0001000064007012
B1112065208700N01240620EA0001000064010012
B1112105208700N01240620EA0001000064008004
B1112145208700N01240620EA0001000064000008
B1112185208700N01240620EA0001000064009008
B1112225208700N01240620EA0001000064008008
B1112265208700N01240620EA0001000064007004
B1112305208700N01240620EA0001000064012008
B1112345208700N01240620EA0001000064011008
B1112385208700N01240620EA0001000064008008
B1112425208700N01240620EA0001000064007004
B1112465208700N01240620EA0001000064002008
B1112505208700N01240620EA0001000064006004
B1112545208700N01240620EA0001000064000004
B1112585208700N01240620EA0001000064001000
B1113025208700N01240620EA0001000064003000
B1113065208700N01240620EA0001000064007000
B1113105208700N01240620EA0001000064007000
B1113145208700N01240620EA0001000064002004
B1113185208700N01240620EA0001000064003000
B1113225208700N01240620EA0001000064002004
B1113265208700N01240620EA0001000064000004
B1113305208700N01240620EA0001000064000004
B1113345208700N01240620EA0001000064004004
B1113385208700N01240620EA0001000064003000
B1113425208700N01240620EA0001000064004000
B1113465208700N01240620EA0001000064002000
B1113505208700N01240620EA0001000064001000
B1113545208700N01240620EA0001000064006000
B1113585208700N01240620EA0001000064000000
B1114025208700N01240620EA0001000064000000
B1114065208700N01240620EA0001000064000000
B1114105208700N01240620EA0001000064000000
B1114145208700N01240620EA0001000064000000
B1114185208700N01240620EA0001000064001000
B1114225208700N01240620EA0001000064004000
B1114265208700N01240620EA0001000064000000
B1114305208700N01240620EA0001000064000000
B1114345208700N01240620EA0001000064000000
B1114385208700N01240620EA0001000064004000
B1114425208700N01240620EA0001000064003000
B1114465208700N01240620EA0001000064000000
B1114505208700N01240620EA0001000064005000
B1114545208700N01240620EA0001000064002000
B1114585208700N01240620EA0001000064000000
B1115025208700N01240620EA0001000064002000
B1115065208700N01240620EA0001000064001000
B1115105208700N01240620EA0001000064004000
B1115145208700N01240620EA0001000064000000
B1115185208700N01240620EA0001000064000000
B1115225208700N01240620EA0001000064001000
B1115265208700N01240620EA0001000064000000
B1115305208700N01240620EA0001000064000000
B1115345208700N01240620EA0001000064000000
B1115385208700N01240620EA0001000064002000
B1115425208700N01240620EA0001000064000000
B1115465208700N01240620EA0001000064000000
B1115505208700N01240620EA0001000064000000
B1115545208700N01240620EA0001000064000000
B1115585208700N01240620EA0001000064004000
B1116025208700N01240620EA0001000064000000
B1116065208700N01240620EA0001000064005000
B1116105208700N01240620EA0001000064001000
B1116145208700N01240620EA0001000064000000
B1116185208700N01240620EA0001000064006000
B1116225208700N01240620EA0001000064006000
B1116265208700N01240620EA0001000064004000
B1116305208700N01240620EA0001000064006000
B1116345208700N01240620EA0001000064006000
B1116385208700N01240620EA0001000064006000
B1116425208700N01240620EA0001000064007000
B1116465208700N01240620EA0001000064005000
B1116505208700N01240620EA0001000064009000
B1116545208700N01240620EA0001000064012000
B1116585208700N01240620EA0001000064013016
B1117025208700N01240620EA0001000064010008
B1117065208700N01240620EA0001000064011000
B1117105208700N01240620EA0001000064013008
B1117145208700N01240620EA0001000064011008
B1117185208700N01240620EA0001000064009004
B1117225208700N01240620EA0001000064013008
B1117265208700N01240620EA0001000064012008
B1117305208700N01240620EA0001000064013012
B1117345208700N01240620EA0001000064009008
B1117385208700N01240620EA0001000064002012
B1117425208700N01240620EA0001000064009012
B1117465208700N01240620EA0001000064010008
B1117505208700N01240620EA0001000064010008
B1117545208700N01240620EA0001000064012004
B1117585208700N01240620EA0001000064013008
B1118025208700N01240620EA0001000064012020
B1118065208700N01240620EA0001000064009012
B1118105208700N01240620EA0001000064013004
B1118145208700N01240620EA0001000064010012
B1118185208700N01240620EA0001000064010012
B1118225208700N01240620EA0001000064013008
B1118265208700N01240620EA0001000064014012
B1118305208700N01240620EA0001000064014012
B1118345208700N01240620EA0001000064012012
B1118385208700N01240620EA0001000064007012
B1118425208700N01240620EA0001000064009008
B1118465208700N01240620EA0001000064013008
B1118505208700N01240620EA0001000064010004
B1118545208700N01240620EA0001000064007008
B1118585208700N01240620EA0001000064009004
B1119025208700N01240620EA0001000064012004
B1119065208700N01240620EA0001000064011000
B1119105208700N01240620EA0001000064010000
B1119145208700N01240620EA0001000064011004
B1119185208700N01240620EA0001000064010000
B1119225208700N01240620EA0001000064012028
B1119265208700N01240620EA0001000064010016
B1119305208700N01240620EA0001000064008016
B1119345208700N01240620EA0001000064007024
B1119385208700N01240620EA0001000064007016
B1119425208700N01240620EA0001000064007016
B1119465208700N01240620EA0001000064009016
B1119505208700N01240620EA0001000064009016
B1119545208700N01240620EA0001000064000016
B1119585208700N01240620EA0001000064000016
B1120025208700N01240620EA0001000064000016
B1120065208700N01240620EA0001000064007016
B1120105208700N01240620EA0001000064002016
B1120145208700N01240620EA0001000064006016
B1120185208700N01240620EA0001000064009016
B1120225208700N01240620EA0001000064007016
B1120265208700N01240620EA0001000064007016
B1120305208700N01240620EA0001000064005016
B1120345208700N01240620EA0001000064007016
B1120385208700N01240620EA0001000064007016
B1120425208700N01240620EA0001000064007016
B1120465208700N01240620EA0001000064007016
B1120505208700N01240620EA0001000064009016
B1120545208700N01240620EA0001000064007016
B1120585208700N01240620EA0001000064007016
B1121025208700N01240620EA0001000064008016
B1121065208700N01240620EA0001000064007016
B1121105208700N01240620EA0001000064008016
B1121145208700N01240620EA0001000064010024
B1121185208700N01240620EA0001000064008020
B1121225208700N01240620EA0001000064004024
B1121265208700N01240620EA0001000064005024
B1121305208700N01240620EA0001000064007020
B1121345208700N01240620EA0001000064008024
B1121385208700N01240620EA0001000064005016
B1121425208700N01240620EA0001000064008016
B1121465208700N01240620EA0001000064010024
B1121505208700N01240620EA0001000064002020
B1121545208700N01240620EA0001000064006028
B1121585208700N01240620EA0001000064003024
B1122025208700N01240620EA0001000064003008
B1122065208700N01240620EA0001000064003016
B1122105208700N01240620EA0001000064005028
B1122145208700N01240620EA0001000064007016
B1122185208700N01240620EA0001000064007016
B1122225208700N01240620EA0001000064007024
B1122265208700N01240620EA0001000064006016
B1122305208700N01240620EA0001000064003016
B1122345208700N01240620EA0001000064006000
B1122385208700N01240620EA0001000064001008
B1122425208700N01240620EA0001000064005028
B1122465208700N01240620EA0001000064002016
B1122505208700N01240620EA0001000064002000
B1122545208700N01240620EA0001000064004016
B1122585208700N01240620EA0001000064002028
B1123025208700N01240620EA0001000064004016
B1123065208700N01240620EA0001000064001000
B1123105208700N01240620EA0001000064002016
B1123145208700N01240620EA0001000064000008
B1123185208700N01240620EA0001000064000004
B1123225208700N01240620EA0001000064000012
B1123265208700N01240620EA0001000064001008
B1123305208700N01240620EA0001000064001012
B1123345208700N01240620EA0001000064001012
B1123385208700N01240620EA0001000064007008
B1123425208700N01240620EA0001000064006008
B1123465208700N01240620EA0001000064001004
B1123505208700N01240620EA0001000064000008
B1123545208700N01240620EA0001000064004028
B1123585208700N01240620EA0001000072007016
B1124025208700N01240620EA0001100072010000
B1124065208695N01240620EA0001100072008016
B1124105208695N01240620EA0001100072007024
B1124145208695N01240620EA0001100072006012
B1124185208695N01240620EA0001100072004016
B1124225208695N01240620EA0001100072000020
B1124265208695N01240620EA0001100072001000
B1124305208700N01240620EA0001100072003008
B1124345208700N01240620EA0001100072000004
B1124385208700N01240620EA0001100072007000
B1124425208700N01240620EA0001100072000000
B1124465208700N01240620EA0001100072000000
B1124505208700N01240620EA0001100072000004
B1124545208700N01240620EA0001100072004000
B1124585208700N01240620EA0001100072004008
B1125025208700N01240620EA0001100064004008
B1125065208700N01240620EA0001100064004008
B1125105208700N01240620EA0001100064006008
B1125145208700N01240620EA0001100072002008
B1125185208700N01240620EA0001100064005008
B1125225208700N01240620EA0001100064002008
B1125265208700N01240620EA0001100064005008
B1125305208700N01240620EA0001100064006004
B1125345208700N01240620EA0001100064002008
B1125385208700N01240620EA0001100064000008
B1125425208700N01240620EA0001100064002008
B1125465208700N01240620EA0001100064004004
B1125505208700N01240620EA0001100064007008
B1125545208700N01240620EA0001100064007004
B1125585208700N01240620EA0001100064004004
B1126025208700N01240620EA0001100064003000
B1126065208700N01240620EA0001100064004000
B1126105208700N01240620EA0001100064000000
B1126145208700N01240620EA0001100064000000
B1126185208700N01240620EA0001100064002000
B1126225208700N01240620EA0001100064004000
B1126265208700N01240620EA0001100064005000
B1126305208700N01240620EA0001100064004000
B1126345208700N01240620EA0001100064005000
B1126385208700N01240620EA0001100064001000
B1126425208700N01240620EA0001100064000000
B1126465208700N01240620EA0001100064003000
B1126505208700N01240620EA0001100064004000
B1126545208700N01240620EA0001100064001000
B1126585208700N01240620EA0001100064000000
B1127025208700N01240620EA0001100064000000
B1127065208700N01240620EA0001100064003000
B1127105208700N01240620EA0001100064000000
B1127145208700N01240620EA0001100064000000
B1127185208700N01240620EA0001100064000000
B1127225208700N01240620EA0001100064000000
B1127265208700N01240620EA0001100064000000
B1127305208700N01240620EA0001100064000004
B1127345208700N01240620EA0001100064000000
B1127385208700N01240620EA0001100064000000
B1127425208700N01240620EA0001100064000000
B1127465208700N01240620EA0001100064000000
B1127505208700N01240620EA0001100064000000
B1127545208700N01240620EA0001100064000004
B1127585208700N01240620EA0001100064000000
B1128025208700N01240620EA0001100064001008
B1128065208700N01240620EA0001100064001008
B1128105208700N01240620EA0001100064000012
B1128145208700N01240620EA0001100064000008
B1128185208700N01240620EA0001100064001020
B1128225208700N01240620EA0001100064001016
B1128265208700N01240620EA0001100064000020
B1128305208700N01240620EA0001100064000020
B1128345208700N01240620EA0001100064000008
B1128385208700N01240620EA0001100064002016
B1128425208700N01240620EA0001100064000012
B1128465208700N01240620EA0001100064000008
B1128505208700N01240620EA0001100064002008
B1128545208700N01240620EA0001100064000008
B1128585208700N01240620EA0001100064006028
B1129025208700N01240620EA0001100064006016
B1129065208700N01240620EA0001100064005024
B1129105208700N01240620EA0001100064000024
B1129145208700N01240620EA0001100064000000
B1129185208700N01240620EA0001100064000012
B1129225208700N01240620EA0001100064000028
B1129265208700N01240620EA0001100064000016
B1129305208700N01240620EA0001100064010016
B1129345208700N01240620EA0001100064008024
B1129385208700N01240620EA0001100064006016
B1129425208700N01240620EA0001100064005016
B1129465208700N01240620EA0001100064004024
B1129505208700N01240620EA0001100064002020
B1129545208700N01240620EA0001100064000004
B1129585208700N01240620EA0001100064001016
B1130025208700N01240620EA0001100064001028
B1130065208700N01240620EA0001100064004016
B1130105208700N01240620EA0001200064002004
B1130145208700N01240620EA0001200064007016
B1130185208700N01240620EA0001200064004008
B1130225208700N01240620EA0001200064005008
B1130265208700N01240620EA0001200064007004
B1130305208700N01240620EA0001200064002008
B1130345208700N01240620EA0001200064004008
B1130385208700N01240620EA0001200064008008
B1130425208700N01240620EA0001200064008004
B1130465208700N01240620EA0001100064006008
B1130505208700N01240620EA0001100064000028
B1130545208700N01240620EA0001100064006016
B1130585208700N01240620EA0001100064007012
B1131025208700N01240620EA0001100064006020
B1131065208700N01240620EA0001100064006008
B1131105208700N01240620EA0001100064008008
B1131145208700N01240620EA0001100064009004
B1131185208700N01240620EA0001100064004008
B1131225208700N01240620EA0001100064001004
B1131265208700N01240620EA0001100064002004
B1131305208700N01240620EA0001100064000008
B1131345208700N01240620EA0001100064003008
B1131385208700N01240620EA0001100064000000
B1131425208700N01240620EA0001100064004004
B1131465208700N01240620EA0001100064002000
B1131505208700N01240620EA0001100064000000
B1131545208700N01240620EA0001100064000012
B1131585208700N01240620EA0001100064000008
B1132025208700N01240620EA0001100064004004
B1132065208700N01240620EA0001100064002008
B1132105208700N01240620EA0001100064005000
B1132145208700N01240620EA0001100064003000
B1132185208700N01240620EA0001100064000000
B1132225208700N01240620EA0001100064000000
B1132265208700N01240620EA0001100064000000
B1132305208700N01240620EA0001100064000000
B1132345208700N01240620EA0001100064000008
B1132385208700N01240620EA0001100064000004
B1132425208700N01240620EA0001100064000004
B1132465208700N01240620EA0001100064000008
B1132505208700N01240620EA0001100064002000
B1132545208700N01240620EA0001100064000000
B1132585208700N01240620EA0001100064000000
B1133025208700N01240620EA0001100064000000
B1133065208700N01240620EA0001100064007000
B1133105208700N01240620EA0001100064007000
B1133145208700N01240620EA0001100064013000
B1133185208700N01240620EA0001100064012000
B1133225208700N01240620EA0001100064012004
B1133265208700N01240620EA0001100064012000
B1133305208700N01240620EA0001100064010004
B1133345208700N01240620EA0001100064011004
B1133385208700N01240620EA0001100064012020
B1133425208700N01240620EA0001100064010012
B1133465208700N01240620EA0001100064007032
B1133505208700N01240620EA0001100064010024
B1133545208700N01240620EA0001100064012004
B1133585208700N01240620EA0001100064013016
B1134025208700N01240620EA0001100064011028
B1134065208700N01240620EA0001100064008016
B1134105208700N01240620EA0001100064007020
B1134145208700N01240620EA0001100064006024
B1134185208700N01240620EA0001100064000020
B1134225208700N01240620EA0001100064004020
B1134265208700N01240620EA0001100064003008
B1134305208700N01240620EA0001100064000016
B1134345208700N01240620EA0001100064000012
B1134385208700N01240620EA0001100064000008
B1134425208700N01240620EA0001100064000012
B1134465208700N01240620EA0001100064000012
B1134505208700N01240620EA0001100064000004
B1134545208700N01240620EA0001100064000008
B1134585208700N01240620EA0001100064005004
B1135025208700N01240620EA0001100064006004
B1135065208700N01240620EA0001100064005008
B1135105208700N01240620EA0001100064002008
B1135145208700N01240620EA0001100064006008
B1135185208700N01240620EA0001100064005008
B1135225208700N01240620EA0001100064010008
B1135265208700N01240620EA0001100064007008
B1135305208700N01240620EA0001100064007008
B1135345208700N01240620EA0001100064006008
B1135385208700N01240620EA0001100064009040
B1135425208700N01240620EA0001100064008024
B1135465208700N01240620EA0001100064007016
B1135505208700N01240620EA0001100064007028
B1135545208700N01240620EA0001100064007000
B1135585208700N01240620EA0001100064007008
B1136025208700N01240620EA0001100064005024
B1136065208700N01240620EA0001100064007012
B1136105208700N01240620EA0001100064005024
B1136145208700N01240620EA0001100064001024
B1136185208700N01240620EA0001100064004020
B1136225208700N01240620EA0001100064001024
B1136265208700N01240620EA0001100064007020
B1136305208700N01240620EA0001100064006020
B1136345208700N01240620EA0001100064003020
B1136385208700N01240620EA0001100064007020
B1136425208700N01240620EA0001100064005016
B1136465208700N01240620EA0001100064006016
B1136505208700N01240620EA0001100064005016
B1136545208700N01240620EA0001100064009016
B1136585208700N01240620EA0001100064008020
B1137025208700N01240620EA0001100064007016
B1137065208700N01240620EA0001100064007004
B1137105208700N01240620EA0001100064007012
B1137145208700N01240620EA0001100064003008
B1137185208700N01240620EA0001100072004008
B1137225208700N01240620EA0001100072007008
B1137265208700N01240620EA0001100064009008
B1137305208700N01240620EA0001100064008004
B1137345208700N01240620EA0001100064011008
B1137385208700N01240620EA0001100064011040
B1137425208700N01240620EA0001100064011024
B1137465208700N01240620EA0001100064011016
B1137505208700N01240620EA0001100064011028
B1137545208700N01240620EA0001100064008004
B1137585208700N01240620EA0001100064010008
B1138025208700N01240620EA0001100064014000
B1138065208700N01240620EA0001100064013000
B1138105208700N01240620EA0001100064009000
B1138145208700N01240620EA0001100064009000
B1138185208700N01240620EA0001100064010004
B1138225208700N01240620EA0001100064008000
B1138265208700N01240620EA0001100064008008
B1138305208700N01240620EA0001100064006008
B1138345208700N01240620EA0001100064000004
B1138385208700N01240620EA0001100064007008
B1138425208700N01240620EA0001100064007008
B1138465208700N01240620EA0001100064007008
B1138505208700N01240620EA0001100064004012
B1138545208700N01240620EA0001100064007008
B1138585208700N01240620EA0001100064008012
B1139025208700N01240620EA0001100064006012
B1139065208700N01240620EA0001100064007004
B1139105208700N01240620EA0001100064008008
B1139145208700N01240620EA0001100064011004
B1139185208700N01240620EA0001100064010004
B1139225208700N01240620EA0001100064011008
B1139265208700N01240620EA0001100064008008
B1139305208700N01240620EA0001100064016028
B1139345208700N01240620EA0001100064014016
B1139385208700N01240620EA0001100072014040
B1139425208700N01240620EA0001100072016032
B1139465208700N01240620EA0001200072019032
B1139505208700N01240620EA0001200072015036
B1139545208700N01240620EA0001200072012020
B1139585208700N01240620EA0001200072014024
B1140025208700N01240620EA0001200072013028
B1140065208700N01240620EA0001200064009024
B1140105208700N01240620EA0001200064010000
B1140145208700N01240620EA0001200064009016
B1140185208700N01240620EA0001200064009008
B1140225208700N01240620EA0001200064010004
B1140265208700N01240620EA0001200064008012
B1140305208700N01240620EA0001200064011008
B1140345208700N01240620EA0001200064008012
B1140385208700N01240620EA0001200064010012
B1140425208700N01240620EA0001200064011008
B1140465208700N01240620EA0001200064009008
B1140505208700N01240620EA0001200064009004
B1140545208700N01240620EA0001200064009008
B1140585208700N01240620EA0001200064012008
B1141025208700N01240620EA0001200064013008
B1141065208700N01240620EA0001200064009008
B1141105208700N01240620EA0001200064009008
B1141145208700N01240620EA0001200064012008
B1141185208700N01240620EA0001200064011008
B1141225208700N01240620EA0001200064010004
B1141265208700N01240620EA0001200064004008
B1141305208700N01240620EA0001200064006012
B1141345208700N01240620EA0001200064010008
B1141385208700N01240620EA0001200064008004
B1141425208700N01240620EA0001200064008008
B1141465208700N01240620EA0001200064007008
B1141505208700N01240620EA0001200064007008
B1141545208700N01240620EA0001200064007024
B1141585208700N01240620EA0001200064005016
B1142025208700N01240620EA0001200064006004
B1142065208700N01240620EA0001200064000016
B1142105208700N01240620EA0001200064003004
B1142145208700N01240620EA0001200064006004
B1142185208700N01240620EA0001200064008004
B1142225208700N01240620EA0001200064008004
B1142265208700N01240620EA0001200064008024
B1142305208700N01240620EA0001200064008016
B1142345208700N01240620EA0001200064009036
B1142385208700N01240620EA0001200064006032
B1142425208700N01240620EA0001200064007016
B1142465208700N01240620EA0001200064007024
B1142505208700N01240620EA0001200064007028
B1142545208700N01240620EA0001200064008024
B1142585208700N01240620EA0001200064007016
B1143025208700N01240620EA0001200064003024
B1143065208700N01240620EA0001200064004020
B1143105208700N01240620EA0001200064000016
B1143145208700N01240620EA0001200064000044
B1143185208700N01240620EA0001200064002032
B1143225208700N01240620EA0001200064002020
B1143265208700N01240620EA0001200064002032
B1143305208700N01240620EA0001200064004024
B1143345208700N01240620EA0001200064006024
B1143385208700N01240620EA0001200064004020
B1143425208700N01240620EA0001200064001024
B1143465208700N01240620EA0001200064004028
B1143505208700N01240620EA0001200064010024
B1143545208700N01240620EA0001200064006004
B1143585208700N01240620EA0001200064006016
B1144025208700N01240620EA0001200064007008
B1144065208700N01240620EA0001200064001008
B1144105208700N01240620EA0001200064000040
B1144145208700N01240620EA0001200064000024
B1144185208700N01240620EA0001200064001000
B1144225208700N01240620EA0001200064003020
B1144265208700N01240620EA0001200064006012
B1144305208700N01240620EA0001200064004008
B1144345208700N01240620EA0001200064004004
B1144385208700N01240620EA0001200064000008
B1144425208700N01240620EA0001200064000004
B1144465208700N01240620EA0001200064000004
B1144505208700N01240620EA0001200064003004
B1144545208700N01240620EA0001200064002004
B1144585208700N01240620EA0001200064002004
B1145025208700N01240620EA0001200064000004
B1145065208700N01240620EA0001200064000012
B1145105208700N01240620EA0001200064000008
B1145145208700N01240620EA0001200064000012
B1145185208700N01240620EA0001200064002012
B1145225208700N01240620EA0001200064000008
B1145265208700N01240620EA0001200064000008
B1145305208700N01240620EA0001200064000012
B1145345208700N01240620EA0001200064001008
B1145385208700N01240620EA0001200064000028
B1145425208700N01240620EA0001200064002020
B1145465208700N01240620EA0001200064000032
B1145505208700N01240620EA0001200064000032
B1145545208700N01240620EA0001200064000000
B1145585208700N01240620EA0001200064000016
B1146025208700N01240620EA0001200064000012
B1146065208700N01240620EA0001200064000008
B1146105208700N01240620EA0001200064001008
B1146145208700N01240620EA0001200064000008
B1146185208700N01240620EA0001200064000012
B1146225208700N01240620EA0001200064000008
B1146265208700N01240620EA0001200064000024
B1146305208700N01240620EA0001200064000016
B1146345208700N01240620EA0001200064000000
B1146385208700N01240620EA0001200064000012
B1146425208700N01240620EA0001200064001012
B1146465208700N01240620EA0001200064002008
B1146505208700N01240620EA0001200064001008
B1146545208700N01240620EA0001200064004008
B1146585208700N01240620EA0001200064001008
B1147025208700N01240620EA0001200064007008
B1147065208700N01240620EA0001200064006004
B1147105208700N01240620EA0001200064005008
B1147145208700N01240620EA0001200064001008
B1147185208700N01240620EA0001200064000008
B1147225208700N01240620EA0001200072000004
B1147265208700N01240620EA0001200072000008
B1147305208700N01240620EA0001200072006004
B1147345208700N01240620EA0001200072006004
B1147385208700N01240620EA0001200064008004
B1147425208700N01240620EA0001200064010004
B1147465208700N01240620EA0001200064008024
B1147505208700N01240620EA0001200064008016
B1147545208700N01240620EA0001200064004020
B1147585208700N01240620EA0001200064007024
B1148025208700N01240620EA0001200064000008
B1148065208700N01240620EA0001200064008016
B1148105208700N01240620EA0001200064006008
B1148145208700N01240620EA0001200064006008
B1148185208700N01240620EA0001200064006000
B1148225208700N01240620EA0001200064008004
B1148265208700N01240620EA0001200064010012
B1148305208700N01240620EA0001200064011008
B1148345208700N01240620EA0001200064009004
B1148385208700N01240620EA0001200064008008
B1148425208700N01240620EA0001200064005024
B1148465208700N01240620EA0001200064003016
B1148505208700N01240620EA0001200064002004
B1148545208700N01240620EA0001200064005016
B1148585208700N01240620EA0001200064007008
B1149025208700N01240620EA0001200064007008
B1149065208700N01240620EA0001200064006028
B1149105208700N01240620EA0001200064004016
B1149145208700N01240620EA0001200064003016
B1149185208700N01240620EA0001200064004024
B1149225208700N01240620EA0001200064004020
B1149265208700N01240620EA0001200064005016
B1149305208700N01240620EA0001200064004024
B1149345208700N01240620EA0001200064008024
B1149385208700N01240620EA0001200064007020
B1149425208700N01240620EA0001200064008024
B1149465208700N01240620EA0001200064007048
B1149505208700N01240620EA0001200064008032
B1149545208700N01240620EA0001200064007016
B1149585208700N01240620EA0001200064006032
B1150025208700N01240620EA0001200064007056
B1150065208700N01240620EA0001200064009036
B1150105208700N01240620EA0001200064008044
B1150145208700N01240620EA0001200064007048
B1150185208700N01240620EA0001200064007000
B1150225208700N01240620EA0001200064007024
B1150265208700N01240620EA0001200064007012
B1150305208700N01240620EA0001200064005008
B1150345208700N01240620EA0001200064008024
B1150385208700N01240620EA0001200064005016
B1150425208700N01240620EA0001200064001000
B1150465208700N01240620EA0001200064006012
B1150505208700N01240620EA0001200064000028
B1150545208700N01240620EA0001200064005016
B1150585208700N01240620EA0001200064007024
B1151025208700N01240620EA0001200064008024
B1151065208700N01240620EA0001200064008024
B1151105208700N01240620EA0001200064009024
B1151145208700N01240620EA0001200064009040
B1151185208700N01240620EA0001200064009032
B1151225208700N01240620EA0001200064009036
B1151265208700N01240620EA0001200064007040
B1151305208700N01240620EA0001200064005052
B1151345208700N01240620EA0001200064005044
B1151385208700N01240620EA0001200064005024
B1151425208700N01240620EA0001200064007040
B1151465208700N01240620EA0001200064007012
B1151505208700N01240620EA0001200064005016
B1151545208700N01240620EA0001200064005008
B1151585208700N01240620EA0001200064004008
B1152025208700N01240620EA0001200064004004
B1152065208700N01240620EA0001200064004008
B1152105208700N01240620EA0001200064012004
B1152145208700N01240620EA0001200064005004
B1152185208700N01240620EA0001200064004004
B1152225208700N01240620EA0001200064007004
B1152265208700N01240620EA0001200064006028
B1152305208700N01240620EA0001200064007016
B1152345208700N01240620EA0001200064000000
B1152385208700N01240620EA0001200064000016
B1152425208700N01240620EA0001200064004012
B1152465208700N01240620EA0001200064008008
B1152505208700N01240620EA0001200064008008
B1152545208700N01240620EA0001200064007008
B1152585208700N01240620EA0001200064009024
B1153025208700N01240620EA0001200064006016
B1153065208700N01240620EA0001200064009032
B1153105208700N01240620EA0001200064009028
B1153145208700N01240620EA0001200064011016
B1153185208700N01240620EA0001200064008024
B1153225208700N01240620EA0001200064010020
B1153265208700N01240620EA0001200064008016
B1153305208700N01240620EA0001200064010000
B1153345208700N01240620EA0001200064009008
B1153385208700N01240620EA0001200064013028
B1153425208700N01240620EA0001200064012016
B1153465208700N01240620EA0001200064009000
B1153505208700N01240620EA0001200064005016
B1153545208700N01240620EA0001200064007012
B1153585208700N01240620EA0001200064006008
B1154025208700N01240620EA0001200064006008
B1154065208700N01240620EA0001200064006008
B1154105208700N01240620EA0001200064009008
B1154145208700N01240620EA0001200064011008
B1154185208700N01240620EA0001200064011044
B1154225208700N01240620EA0001200064013024
B1154265208700N01240620EA0001200064013032
B1154305208700N01240620EA0001200064009040
B1154345208700N01240620EA0001200064011016
B1154385208700N01240620EA0001200064009024
B1154425208700N01240620EA0001200064008000
B1154465208700N01240620EA0001200064010008
B1154505208700N01240620EA0001200064006012
B1154545208700N01240620EA0001200064008008
B1154585208700N01240620EA0001200064007008
B1155025208700N01240620EA0001200064005008
B1155065208700N01240620EA0001200064005028
B1155105208700N01240620EA0001200064005016
B1155145208700N01240620EA0001200064004028
B1155185208700N01240620EA0001200064006028
B1155225208700N01240620EA0001200064007056
B1155265208700N01240620EA0001200064005040
B1155305208700N01240620EA0001200064005016
B1155345208700N01240620EA0001200064006036
B1155385208700N01240620EA0001200064005028
B1155425208700N01240620EA0001200064006024
B1155465208700N01240620EA0001200064007016
B1155505208700N01240620EA0001200064006024
B1155545208700N01240620EA0001200064006000
B1155585208700N01240620EA0001200064004008
B1156025208700N01240620EA0001200064005028
B1156065208700N01240620EA0001200064000016
B1156105208700N01240620EA0001200064004016
B1156145208700N01240620EA0001300064007024
B1156185208700N01240620EA0001300064004004
B1156225208700N01240620EA0001300064008008
B1156265208700N01240620EA0001300064002024
B1156305208700N01240620EA0001300064007016
B1156345208700N01240620EA0001300064007064
B1156385208700N01240620EA0001300064009044
B1156425208700N01240620EA0001300064004016
B1156465208700N01240620EA0001300064000040
B1156505208700N01240620EA0001300064000000
B1156545208700N01240625EA0001300064000008
B1156585208700N01240625EA0001300064000004
B1157025208700N01240625EA0001300064000000
B1157065208700N01240625EA0001300064000000
B1157105208700N01240625EA0001300064000000
B1157145208700N01240620EA0001300064000000
B1157185208700N01240620EA0001300064000000
B1157225208700N01240620EA0001300064000044
B1157265208700N01240620EA0001300064000024
B1157305208700N01240620EA0001300064000004
B1157345208700N01240620EA0001300064000024
B1157385208700N01240620EA0001300064000008
B1157425208700N01240620EA0001300064003008
B1157465208700N01240620EA0001300064003000
B1157505208700N01240620EA0001300064007004
B1157545208700N01240620EA0001300064001000
B1157585208700N01240620EA0001300064004000
B1158025208700N01240620EA0001300064003000
B1158065208700N01240620EA0001300064004000
B1158105208700N01240620EA0001300064000000
B1158145208700N01240620EA0001300064000000
B1158185208700N01240620EA0001300064002000
B1158225208700N01240620EA0001300064001000
B1158265208700N01240620EA0001300064000000
B1158305208700N01240620EA0001300064002000
B1158345208700N01240620EA0001300064000004
B1158385208700N01240620EA0001300064000000
B1158425208700N01240620EA0001300064002008
B1158465208700N01240620EA0001300064002008
B1158505208700N01240620EA0001300064001008
B1158545208700N01240620EA0001300064000008
B1158585208700N01240620EA0001300064000004
B1159025208700N01240620EA0001300064000008
B1159065208700N01240620EA0001300064000004
B1159105208700N01240620EA0001300064000004
B1159145208700N01240620EA0001300064000012
B1159185208700N01240620EA0001300064000008
B1159225208700N01240620EA0001300064000024
B1159265208700N01240620EA0001300064000016
B1159305208700N01240620EA0001300064000044
B1159345208700N01240620EA0001300064000032
B1159385208700N01240620EA0001300064000060
B1159425208700N01240620EA0001300064000052
B1159465208700N01240620EA0001300064004016
B1159505208700N01240620EA0001300064011040
B1159545208700N01240620EA0001300064009024
B1159585208700N01240620EA0001300064003020
B1200025208700N01240620EA0001300064003016
B1200065208700N01240620EA0001300064000020
B1200105208700N01240620EA0001300064005016
B1200145208700N01240620EA0001300064002016
B1200185208700N01240620EA0001300064003000
B1200225208700N01240620EA0001300064000008
B1200265208700N01240620EA0001300064003008
B1200305208700N01240620EA0001300064000004
B1200345208700N01240620EA0001300064004008
B1200385208700N01240620EA0001300064002008
B1200425208700N01240620EA0001300064000012
B1200465208700N01240620EA0001300064000008
B1200505208700N01240620EA0001300064001004
B1200545208700N01240620EA0001300064003008
B1200585208700N01240620EA0001300064003004
B1201025208700N01240620EA0001300064000004
B1201065208700N01240620EA0001300064005024
B1201105208700N01240620EA0001300064002016
B1201145208700N01240620EA0001300064003024
B1201185208700N01240620EA0001300064002024
B1201225208700N01240620EA0001300064007016
B1201265208700N01240620EA0001300064005020
B1201305208700N01240620EA0001300064004024
B1201345208700N01240620EA0001300064004020
B1201385208700N01240620EA0001300064000000
B1201425208700N01240620EA0001300064005012
B1201465208700N01240620EA0001300064007012
B1201505208700N01240620EA0001300064000008
B1201545208700N01240620EA0001300064000012
B1201585208700N01240620EA0001300064006012
B1202025208700N01240620EA0001300064000008
B1202065208700N01240620EA0001300064000008
B1202105208700N01240620EA0001300064000004
B1202145208700N01240620EA0001300064000008
B1202185208700N01240620EA0001300064000004
B1202225208700N01240620EA0001300064000004
B1202265208700N01240620EA0001300064000008
B1202305208700N01240620EA0001300064005008
B1202345208700N01240620EA0001300064001004
B1202385208700N01240620EA0001300064000008
B1202425208700N01240620EA0001300064000008
B1202465208700N01240620EA0001300064000008
B1202505208700N01240620EA0001300064000040
B1202545208700N01240620EA0001300064000024
B1202585208700N01240620EA0001300064001036
B1203025208700N01240620EA0001300064003040
B1203065208700N01240620EA0001300064000028
B1203105208700N01240620EA0001300064000032
B1203145208700N01240620EA0001300064000028
B1203185208700N01240620EA0001300064000028
B1203225208700N01240620EA0001300064000044
B1203265208700N01240620EA0001300064000036
B1203305208700N01240620EA0001300064000032
B1203345208700N01240620EA0001300064000040
B1203385208700N01240620EA0001300064000036
B1203425208700N01240620EA0001300064000032
B1203465208700N01240620EA0001300064000068
B1203505208700N01240620EA0001300064000052
B1203545208700N01240620EA0001300064000032
B1203585208700N01240620EA0001300064000048
B1204025208700N01240620EA0001300064000064
B1204065208700N01240620EA0001300064000048
B1204105208700N01240620EA0001300064000064
B1204145208700N01240620EA0001300064000064
B1204185208700N01240620EA0001300064000024
B1204225208700N01240620EA0001300064000044
B1204265208700N01240620EA0001300064000000
B1204305208700N01240620EA0001300064006012
B1204345208700N01240620EA0001300064006000
B1204385208700N01240620EA0001300064000000
B1204425208700N01240620EA0001300064003000
B1204465208700N01240620EA0001300064006000
B1204505208700N01240620EA0001300064007000
B1204545208700N01240620EA0001300064001000
B1204585208700N01240620EA0001300064000000
B1205025208700N01240620EA0001300064004000
B1205065208700N01240620EA0001300064002000
B1205105208700N01240620EA0001300064003000
B1205145208700N01240620EA0001300064000000
B1205185208700N01240620EA0001300064001000
B1205225208700N01240620EA0001300064001000
B1205265208700N01240620EA0001300064000000
B1205305208700N01240620EA0001300064005000
B1205345208700N01240620EA0001300064006000
B1205385208700N01240620EA0001300064006000
B1205425208700N01240620EA0001300064008000
B1205465208700N01240620EA0001300064007000
B1205505208700N01240620EA0001300064002000
B1205545208700N01240620EA0001300064000004
B1205585208700N01240620EA0001300064000000
B1206025208700N01240620EA0001300064000000
B1206065208700N01240620EA0001300064000000
B1206105208700N01240620EA0001300064000000
B1206145208700N01240620EA0001300064000000
B1206185208700N01240620EA0001300064000000
B1206225208700N01240620EA0001300064000000
B1206265208700N01240620EA0001300064000004
B1206305208700N01240620EA0001300064000000
B1206345208700N01240620EA0001300064000004
B1206385208700N01240620EA0001300064000004
B1206425208700N01240620EA0001300064003004
B1206465208700N01240620EA0001300064002004
B1206505208700N01240620EA0001300064000004
B1206545208700N01240620EA0001300064000004
B1206585208700N01240620EA0001300064000004
B1207025208700N01240620EA0001300064000004
B1207065208700N01240620EA0001300064000028
B1207105208700N01240620EA0001300064003016
B1207145208700N01240620EA0001300064002048
B1207185208700N01240620EA0001300064006040
B1207225208700N01240620EA0001300064002052
B1207265208700N01240620EA0001300064005048
B1207305208700N01240620EA0001300064005036
B1207345208700N01240620EA0001300064005044
B1207385208700N01240620EA0001300064002048
B1207425208700N01240620EA0001300064004040
B1207465208700N01240620EA0001300064003060
B1207505208700N01240620EA0001300064007056
B1207545208700N01240620EA0001300064009028
B1207585208700N01240620EA0001300064009044
B1208025208700N01240620EA0001300064009016
B1208065208700N01240620EA0001300064007024
B1208105208700N01240620EA0001300064004032
B1208145208700N01240620EA0001300064008024
B1208185208700N01240620EA0001300064005044
B1208225208700N01240620EA0001300064001040
B1208265208700N01240620EA0001300064005016
B1208305208700N01240620EA0001300064000032
B1208345208700N01240620EA0001300064004028
B1208385208700N01240620EA0001300064000024
B1208425208700N01240620EA0001300064003040
B1208465208700N01240620EA0001300064003032
B1208505208700N01240620EA0001300064008024
B1208545208700N01240620EA0001300064005032
B1208585208700N01240620EA0001300064008028
B1209025208700N01240620EA0001300064007024
B1209065208700N01240620EA0001300064008056
B1209105208700N01240620EA0001300064007040
B1209145208700N01240620EA0001300064006068
B1209185208700N01240620EA0001300064008064
B1209225208700N01240620EA0001300064006020
B1209265208700N01240620EA0001300064009044
B1209305208700N01240620EA0001300064010028
B1209345208700N01240620EA0001300064005024
B1209385208700N01240620EA0001300064004000
B1209425208700N01240620EA0001300064006016
B1209465208700N01240620EA0001300064003028
B1209505208700N01240620EA0001300064004016
B1209545208700N01240620EA0001300064002032
B1209585208700N01240620EA0001300064000032
B1210025208700N01240620EA0001300064000000
B1210065208700N01240620EA0001300064000016
B1210105208700N01240620EA0001300064000008
B1210145208700N01240620EA0001300064000004
B1210185208700N01240620EA0001300064001044
B1210225208700N01240620EA0001300064006024
B1210265208700N01240620EA0001300064006072
B1210305208700N01240620EA0001300064001056
B1210345208700N01240620EA0001300064005052
B1210385208700N01240620EA0001300064007064
B1210425208700N01240620EA0001300064012036
B1210465208700N01240620EA0001300064010044
B1210505208700N01240620EA0001300064004040
B1210545208700N01240620EA0001300064000040
B1210585208700N01240620EA0001300064000052
B1211025208700N01240620EA0001300064000048
B1211065208700N01240620EA0001300064000120
B1211105208700N01240620EA0001300064007088
B1211145208700N01240620EA0001300064012152
B1211185208700N01240620EA0001300064006164
B1211225208700N01240620EA0001300064009100
B1211265208700N01240620EA0001300064006132
B1211305208700N01240620EA0001300064012032
B1211345208700N01240620EA0001300064010064
B1211385208700N01240620EA0001300064008020
B1211425208700N01240620EA0001300064007024
B1211465208700N01240620EA0001300064000020
B1211505208700N01240620EA0001300064000020
B1211545208700N01240620EA0001300064007020
B1211585208700N01240620EA0001300064009020
B1212025208700N01240620EA0001300064011100
B1212065208700N01240620EA0001300064013060
B1212105208700N01240620EA0001300064013036
B1212145208700N01240620EA0001300064014068
