AZAN5DO ZANDER/SDI GP941 V2.11
HFDTE160813
HFFXA050
HFPLT Pilot             :Felipe Levin                            
HFGTY Glider type       :Discus 2a                               
HFGID Glider ID         :D-4843    
HFDTM100 GPS Datum      :WGS84
HFRFW Firmware Version  :11
HFRHW Hardware version  :2
HFFTY FR Type           :ZANDER/SDI GP941
HFGPS                   :Garmin,GPS25,12,30000
HFPRS Press Alt Sensor  :Intersema,MS5534A,10000
HFCCL Competition Class :Standard                                
HFCID Competition ID    :FL        
I023638IAS3941ENL
J020810WDI1113WVE
LZAN 113743 PowerOn
C160813110807160813000104
C5208650N01240100E 001         
C5208650N01240100E 001         
C5214950N01215366E 246         
C5133483N01300666E 213         
C5144016N01336633E 107         
C5209483N01246883E 010         
C5208650N01240100E 001         
C5208650N01240100E 001         
B1137475208708N01240616EV0000600000000000
B1137515208708N01240616EV0000600000000012
B1137555208695N01240604EA0000600000000008
B1137595208695N01240604EA0000600000000008
B1138035208691N01240604EA0000600000000008
B1138075208695N01240604EA0000600056000004
B1138115208695N01240604EA0000600056000008
B1138155208695N01240604EA0000600056000004
B1138195208700N01240604EA0000600056000004
B1138235208700N01240604EA0000600056000008
B1138275208700N01240608EA0000700056000008
B1138315208700N01240608EA0000700056007004
B1138355208700N01240608EA0000700056006008
B1138395208704N01240608EA0000700056005020
B1138435208704N01240608EA0000700064007012
B1138475208704N01240608EA0000700064006016
B1138515208704N01240608EA0000700064005016
B1138555208704N01240608EA0000700064005000
B1138595208704N01240608EA0000700064007008
B1139035208704N01240608EA0000700064007012
B1139075208708N01240612EA0000700064009008
B1139115208708N01240612EA0000700064007008
B1139155208708N01240612EA0000700064012008
B1139195208708N01240612EA0000700064013012
B1139235208708N01240612EA0000700064011008
B1139275208708N01240612EA0000700064012028
B1139315208708N01240612EA0000700064014020
B1139355208708N01240612EA0000700064012028
B1139395208708N01240612EA0000700064019028
B1139435208708N01240612EA0000700064017056
B1139475208708N01240612EA0000700064016040
B1139515208708N01240612EA0000700064013044
B1139555208708N01240612EA0000700064011048
B1139595208708N01240612EA0000700064014016
B1140035208708N01240612EA0000700064012032
B1140075208708N01240612EA0000700064011008
B1140115208708N01240612EA0000600064011012
B1140155208708N01240612EA0000600064007012
B1140195208708N01240612EA0000600064009008
B1140235208708N01240612EA0000600064011012
B1140275208708N01240612EA0000600064009012
B1140315208708N01240612EA0000600064009012
B1140355208708N01240612EA0000600064010012
B1140395208708N01240612EA0000600064013008
B1140435208708N01240612EA0000700064011008
B1140475208708N01240612EA0000700064011008
B1140515208708N01240612EA0000700064011008
B1140555208708N01240612EA0000700064008012
B1140595208708N01240612EA0000700064011008
B1141035208708N01240612EA0000700064008008
B1141075208708N01240612EA0000700064007008
B1141115208708N01240612EA0000700064009012
B1141155208708N01240612EA0000700064014008
B1141195208708N01240612EA0000700064012008
B1141235208708N01240612EA0000700064011008
B1141275208708N01240612EA0000700064006008
B1141315208708N01240612EA0000700064000008
B1141355208708N01240612EA0000700064000008
B1141395208708N01240612EA0000700064000008
B1141435208708N01240612EA0000700064000008
B1141475208708N01240612EA0000700064001008
B1141515208708N01240612EA0000700064001044
B1141555208708N01240612EA0000600064002024
B1141595208708N01240612EA0000600064000024
B1142035208708N01240612EA0000600064000032
B1142075208708N01240612EA0000600064003004
B1142115208708N01240612EA0000600064004016
B1142155208708N01240612EA0000600064000008
B1142195208708N01240612EA0000600064002008
B1142235208708N01240612EA0000600064005008
B1142275208708N01240612EA0000600064004008
B1142315208708N01240612EA0000600064006044
B1142355208708N01240612EA0000600064001024
B1142395208708N01240612EA0000600064007040
B1142435208708N01240612EA0000600064007040
B1142475208708N01240612EA0000600064006028
B1142515208708N01240612EA0000600064005032
B1142555208708N01240612EA0000600064000028
B1142595208708N01240612EA0000600064002028
B1143035208708N01240612EA0000700064002028
B1143075208708N01240612EA0000700064000028
B1143115208708N01240612EA0000700000000060
B1143155208708N01240612EA0000700064000044
B1143195208712N01240612EA0000700064000040
B1143235208708N01240612EA0000700064000048
B1143275208708N01240612EA0000700064000024
B1143315208708N01240612EA0000700064000032
B1143355208708N01240612EA0000800064002044
B1143395208708N01240612EA0000800064004032
B1143435208708N01240612EA0000800064007036
B1143475208708N01240612EA0000800064006040
B1143515208708N01240612EA0000800064008024
B1143555208708N01240612EA0000800064006032
B1143595208708N01240612EA0000800064007016
B1144035208708N01240612EA0000800064001020
B1144075208708N01240612EA0000800064000036
B1144115208708N01240612EA0000800064000024
B1144155208708N01240612EA0000800064000032
B1144195208708N01240612EA0000800064000032
B1144235208708N01240612EA0000800064000008
B1144275208708N01240612EA0001000064000020
B1144315208708N01240612EA0001000064000012
B1144355208708N01240612EA0001000064000008
B1144395208708N01240612EA0001000064000008
B1144435208708N01240612EA0000900064000008
B1144475208708N01240612EA0000900064000008
B1144515208708N01240612EA0000900064000008
B1144555208708N01240612EA0000700064000012
B1144595208708N01240612EA0000700064000008
B1145035208708N01240612EA0000700064000028
B1145075208708N01240612EA0000700064000020
B1145115208708N01240612EA0000700064000012
B1145155208708N01240612EA0000700064000020
B1145195208708N01240612EA0000700064000024
B1145235208708N01240612EA0000700064000016
B1145275208708N01240612EA0000700064000024
B1145315208708N01240612EA0000700064000024
B1145355208708N01240612EA0000700064000016
B1145395208708N01240612EA0000700064000020
B1145435208708N01240612EA0000700064000056
B1145475208708N01240612EA0000700064000036
B1145515208708N01240612EA0000700064002020
B1145555208708N01240612EA0000700064006040
B1145595208708N01240612EA0000700064001012
B1146035208708N01240612EA0000700064000016
B1146075208708N01240612EA0000700064000012
B1146115208708N01240612EA0000700064000012
B1146155208708N01240612EA0000700064000012
B1146195208708N01240612EA0000700064000012
B1146235208708N01240612EA0000700064000028
B1146275208708N01240612EA0000700064000020
B1146315208708N01240612EA0000700064000016
B1146355208708N01240612EA0000700064000024
B1146395208708N01240612EA0000700064003008
B1146435208708N01240612EA0000700064003012
B1146475208708N01240612EA0000700064006008
B1146515208708N01240612EA0000700064005008
B1146555208708N01240612EA0000700064005012
B1146595208708N01240612EA0000700064006008
B1147035208708N01240612EA0000700064004008
B1147075208708N01240612EA0000700064005008
B1147115208708N01240612EA0000700064005012
B1147155208708N01240612EA0000700064000008
B1147195208708N01240612EA0000700064002012
B1147235208708N01240612EA0000700064003012
B1147275208708N01240612EA0000700064004008
B1147315208708N01240612EA0000700064001008
B1147355208712N01240612EA0000700064006008
B1147395208712N01240612EA0000700064008008
B1147435208712N01240612EA0000700064010008
B1147475208712N01240612EA0000700064007008
B1147515208712N01240612EA0000700064006056
B1147555208708N01240612EA0000700064007032
B1147595208708N01240612EA0000700064006016
B1148035208708N01240612EA0000700064007036
B1148075208708N01240612EA0000700064008004
B1148115208708N01240612EA0000700064005008
B1148155208708N01240612EA0000800064007004
B1148195208708N01240612EA0000800064008004
B1148235208708N01240612EA0000800064008004
B1148275208708N01240612EA0000800064007004
B1148315208708N01240612EA0000800064005008
B1148355208708N01240612EA0000800064007008
B1148395208708N01240612EA0000800064008028
B1148435208708N01240612EA0000800064007016
B1148475208708N01240612EA0000800064007016
B1148515208708N01240612EA0000800064008024
B1148555208708N01240612EA0000800064011016
B1148595208708N01240612EA0000800064012016
B1149035208712N01240612EA0000800064009016
B1149075208712N01240612EA0000800064007016
B1149115208712N01240612EA0000800064007016
B1149155208712N01240612EA0000800064006016
B1149195208712N01240612EA0000800064006020
B1149235208708N01240612EA0000800064004016
B1149275208708N01240612EA0000800064002028
B1149315208712N01240612EA0000800064000024
B1149355208712N01240612EA0000900064007028
B1149395208712N01240612EA0000900064008028
B1149435208712N01240608EA0000900064007052
B1149475208712N01240608EA0000900064007040
B1149515208712N01240608EA0000900064005048
B1149555208712N01240608EA0000900064006048
B1149595208712N01240608EA0000800064005048
B1150035208712N01240608EA0000800064004048
B1150075208712N01240608EA0000800064005060
B1150115208712N01240608EA0000800056002056
B1150155208712N01240608EA0000800056004024
B1150195208712N01240608EA0000800056009040
B1150235208712N01240608EA0000800056007004
B1150275208712N01240608EA0000800056007016
B1150315208712N01240608EA0000800056002024
B1150355208712N01240608EA0000800056004016
B1150395208712N01240608EA0000800056007016
B1150435208712N01240608EA0000800056009020
B1150475208712N01240608EA0000800056007016
B1150515208712N01240608EA0000800056005016
B1150555208712N01240608EA0000800056007040
B1150595208712N01240608EA0000800056008028
B1151035208712N01240608EA0000800056006032
B1151075208712N01240608EA0000800056007036
B1151115208712N01240608EA0000800056009032
B1151155208712N01240608EA0000800056008032
B1151195208712N01240608EA0000800056009052
B1151235208712N01240608EA0000800056008040
B1151275208712N01240608EA0000800056007072
B1151315208712N01240608EA0000800056006064
B1151355208712N01240608EA0000800056008048
B1151395208712N01240608EA0000800056007060
B1151435208712N01240608EA0000800056007016
B1151475208712N01240608EA0000800056004032
B1151515208712N01240608EA0000800056000004
B1151555208712N01240608EA0000800056001008
B1151595208712N01240608EA0000800056000004
B1152035208712N01240608EA0000800056000004
B1152075208712N01240608EA0000800056005004
B1152115208712N01240608EA0000800056000004
B1152155208712N01240608EA0000800056000004
B1152195208712N01240608EA0000800056008004
B1152235208712N01240608EA0000800056004008
B1152275208712N01240608EA0000800056001008
B1152315208712N01240608EA0000800056003028
B1152355208712N01240608EA0000800056000016
B1152395208712N01240608EA0000800056000004
B1152435208712N01240608EA0000800056000016
B1152475208712N01240608EA0000800056000012
B1152515208712N01240608EA0000800048004008
B1152555208712N01240608EA0000800048004008
B1152595208712N01240608EA0000800048011008
B1153035208712N01240608EA0000800048010028
B1153075208712N01240608EA0000800056009016
B1153115208712N01240608EA0000800056013024
B1153155208712N01240608EA0000800056010024
B1153195208712N01240608EA0000800056010028
B1153235208712N01240608EA0000800056010024
B1153275208712N01240608EA0001000056010020
B1153315208712N01240608EA0001000056007024
B1153355208712N01240608EA0001000056008000
B1153395208712N01240608EA0000900056009008
B1153435208712N01240608EA0000900056008012
B1153475208712N01240608EA0000900056007008
B1153515208712N01240608EA0000900056008008
B1153555208712N01240608EA0000900056007008
B1153595208712N01240608EA0000900056012012
B1154035208712N01240608EA0000900056010008
B1154075208712N01240608EA0000900056016012
B1154115208712N01240608EA0000900056009012
B1154155208712N01240608EA0000900056007028
B1154195208712N01240608EA0000800056005020
B1154235208712N01240608EA0000700056006044
B1154275208712N01240608EA0000800056006036
B1154315208712N01240608EA0000800056009024
B1154355208712N01240608EA0000800056009032
B1154395208712N01240608EA0000800056012024
B1154435208712N01240608EA0000800056010024
B1154475208712N01240608EA0000800056011000
B1154515208712N01240608EA0000800056010012
B1154555208712N01240608EA0000800056007008
B1154595208712N01240608EA0000800056007004
B1155035208712N01240612EA0000800056000024
B1155075208712N01240612EA0000800064002016
B1155115208712N01240612EA0001000064006024
B1155155208712N01240612EA0001000064006024
B1155195208712N01240612EA0001000064005044
B1155235208712N01240612EA0001000064005032
B1155275208712N01240612EA0000900064006060
B1155315208712N01240612EA0000900064006052
B1155355208712N01240612EA0000900064005016
B1155395208712N01240612EA0000900064000040
B1155435208712N01240612EA0000900064001024
B1155475208712N01240612EA0000900064004020
B1155515208712N01240612EA0000900064005028
B1155555208712N01240612EA0000900064007024
B1155595208712N01240612EA0000900064005016
B1156035208712N01240612EA0000900064003024
B1156075208708N01240612EA0000900064002016
B1156115208708N01240612EA0001000064004016
B1156155208712N01240612EA0001000064003012
B1156195208712N01240612EA0001000064005016
B1156235208712N01240612EA0001000064009028
B1156275208712N01240612EA0001000064012020
B1156315208712N01240612EA0001000064008064
B1156355208712N01240612EA0001000064003048
B1156395208712N01240612EA0001000064006032
B1156435208712N01240612EA0001000056006048
B1156475208712N01240612EA0001000056007012
B1156515208712N01240612EA0001000056005024
B1156555208712N01240612EA0001000056001012
B1156595208712N01240612EA0001000056002012
B1157035208712N01240612EA0001000056000004
B1157075208712N01240612EA0001000056000008
B1157115208712N01240612EA0001000056000000
B1157155208712N01240612EA0001000056000000
B1157195208712N01240612EA0001000056000036
B1157235208712N01240612EA0001000056000016
B1157275208712N01240612EA0001000056000028
B1157315208712N01240612EA0001000056000032
B1157355208712N01240612EA0001000056000012
B1157395208712N01240612EA0001000056000020
B1157435208712N01240612EA0000900056000004
B1157475208712N01240612EA0000900056000008
B1157515208712N01240612EA0000900056000000
B1157555208712N01240612EA0000900056000000
B1157595208712N01240612EA0000900056000000
B1158035208712N01240612EA0000900056000000
B1158075208712N01240612EA0000900056000000
B1158115208712N01240612EA0000900056000000
B1158155208712N01240612EA0000900056000000
B1158195208712N01240612EA0000900056000000
B1158235208712N01240612EA0000900056000000
B1158275208712N01240612EA0000900056000000
B1158315208712N01240612EA0000900056000004
B1158355208712N01240612EA0000900056000000
B1158395208712N01240612EA0000900056000012
B1158435208712N01240612EA0000900056000008
B1158475208712N01240612EA0000900056000012
B1158515208712N01240612EA0000900056000012
B1158555208712N01240612EA0000900056000012
B1158595208712N01240612EA0000900056000012
B1159035208712N01240612EA0000900056000008
B1159075208712N01240612EA0000900056000008
B1159115208712N01240612EA0000900056000028
B1159155208712N01240612EA0001000056000016
B1159195208712N01240612EA0001000056000016
B1159235208712N01240612EA0001000056000024
B1159275208712N01240612EA0001000056000020
B1159315208712N01240612EA0001100056000016
B1159355208708N01240612EA0001100056000076
B1159395208708N01240612EA0001100056000048
B1159435208708N01240612EA0001100056000032
B1159475208708N01240612EA0001100056000056
B1159515208708N01240612EA0001100056006020
B1159555208708N01240612EA0001100056006024
B1159595208708N01240612EA0000900056000020
B1200035208708N01240612EA0000900056000020
B1200075208708N01240612EA0000900056000016
B1200115208708N01240612EA0000900056000016
B1200155208708N01240612EA0000900056000004
B1200195208708N01240612EA0001000056000008
B1200235208708N01240612EA0001000056000012
B1200275208708N01240612EA0001000056000008
B1200315208708N01240612EA0001000056000024
B1200355208708N01240612EA0000900056000016
B1200395208708N01240612EA0000900056000000
B1200435208708N01240612EA0000900056000012
B1200475208708N01240612EA0000900056000008
B1200515208708N01240612EA0000900056000004
B1200555208708N01240612EA0000900056000004
B1200595208708N01240612EA0000900056000008
B1201035208708N01240612EA0000900056000008
B1201075208708N01240612EA0000900056000008
B1201115208708N01240612EA0000900056000028
B1201155208708N01240612EA0000900056000016
B1201195208708N01240612EA0000900056000020
B1201235208708N01240612EA0000900056000024
B1201275208708N01240612EA0000900056000024
B1201315208708N01240612EA0000900056000024
B1201355208708N01240612EA0000900056000020
B1201395208708N01240612EA0000900056000024
B1201435208708N01240612EA0000800056000016
B1201475208708N01240612EA0000800056000016
B1201515208708N01240612EA0000800056000000
B1201555208708N01240612EA0000800056000008
B1201595208708N01240612EA0000800056000008
B1202035208708N01240612EA0000800056000004
B1202075208708N01240612EA0000800056000008
B1202115208708N01240612EA0000800056000008
B1202155208708N01240612EA0000800056000004
B1202195208708N01240612EA0000800056000008
B1202235208708N01240612EA0000800056000008
B1202275208708N01240612EA0001000056000008
B1202315208708N01240612EA0001000056000008
B1202355208708N01240612EA0001000056000008
B1202395208708N01240612EA0000900056000008
B1202435208708N01240612EA0000900056000008
B1202475208708N01240612EA0000900056000028
B1202515208708N01240612EA0000900056000016
B1202555208708N01240612EA0000900056000060
B1202595208708N01240612EA0000900056000044
B1203035208708N01240612EA0000900056000044
B1203075208708N01240612EA0000900056000052
B1203115208708N01240612EA0000900056000044
B1203155208708N01240612EA0000900056000044
B1203195208708N01240612EA0000900056000036
B1203235208708N01240612EA0000900056000040
B1203275208708N01240612EA0000900056000044
B1203315208708N01240612EA0000900056000040
B1203355208708N01240612EA0000900056000060
B1203395208708N01240612EA0000900056000052
B1203435208708N01240612EA0000900064000064
B1203475208708N01240612EA0000900064000064
B1203515208708N01240612EA0000900064000056
B1203555208708N01240612EA0001000064000060
B1203595208708N01240612EA0001000064000028
B1204035208708N01240612EA0001000064000040
B1204075208708N01240612EA0001000064000124
B1204115208708N01240612EA0001000064000076
B1204155208708N01240612EA0001000064000032
B1204195208708N01240612EA0001000064000080
B1204235208708N01240612EA0001000064000012
B1204275208708N01240612EA0001000064000024
B1204315208708N01240612EA0001000064000008
B1204355208708N01240612EA0001000064000008
B1204395208708N01240612EA0001000064000000
B1204435208708N01240612EA0001000064000004
B1204475208708N01240612EA0001000064000000
B1204515208708N01240612EA0001000064000000
B1204555208708N01240612EA0001000064000000
B1204595208708N01240612EA0001000064000000
B1205035208708N01240612EA0001000064000000
B1205075208708N01240612EA0001000064000000
B1205115208708N01240612EA0001000064000000
B1205155208708N01240612EA0001000064000000
B1205195208708N01240612EA0001000064000000
B1205235208708N01240612EA0001000064000000
B1205275208708N01240612EA0001000064000000
B1205315208708N01240612EA0001000064000000
B1205355208708N01240612EA0001000064000004
B1205395208708N01240612EA0001000064000000
B1205435208708N01240612EA0001000064000004
B1205475208708N01240612EA0001000064000004
B1205515208708N01240612EA0001000064000000
B1205555208708N01240612EA0001000064000000
B1205595208708N01240612EA0001000064000004
B1206035208708N01240612EA0001000064000000
B1206075208708N01240612EA0001000064000004
B1206115208708N01240612EA0001000064000004
B1206155208708N01240612EA0001000064000000
B1206195208708N01240612EA0001000064000000
B1206235208708N01240612EA0001100064000004
B1206275208708N01240612EA0001000064000000
B1206315208708N01240612EA0001000064000008
B1206355208708N01240612EA0001000064000008
B1206395208708N01240612EA0001000064000008
B1206435208708N01240612EA0001000064005008
B1206475208708N01240612EA0001000064003008
B1206515208708N01240612EA0001100064003008
B1206555208708N01240612EA0001100064001008
B1206595208708N01240612EA0001000064000008
B1207035208708N01240616EA0001000064000028
B1207075208708N01240616EA0001000064004016
B1207115208708N01240612EA0001100064006032
B1207155208708N01240612EA0001100064010032
B1207195208708N01240612EA0001100064008052
B1207235208708N01240612EA0001100064007040
B1207275208708N01240612EA0001100064006040
B1207315208708N01240612EA0001100064007048
B1207355208708N01240612EA0001100064009044
B1207395208708N01240612EA0001100064007040
B1207435208708N01240612EA0001100064010092
B1207475208708N01240612EA0001100064011068
B1207515208708N01240612EA0001000064009036
B1207555208708N01240612EA0001000064007064
B1207595208708N01240612EA0001000064007008
B1208035208708N01240612EA0001000064010024
B1208075208708N01240612EA0001000064007040
B1208115208708N01240612EA0001000064008024
B1208155208708N01240612EA0001000064008056
B1208195208708N01240612EA0001000064006048
B1208235208708N01240612EA0001000064004052
B1208275208708N01240612EA0001000064002056
B1208315208708N01240612EA0001000064005036
B1208355208708N01240612EA0001000064007044
B1208395208708N01240612EA0001000064007044
B1208435208708N01240612EA0001000064005040
B1208475208708N01240612EA0001200064003060
B1208515208708N01240612EA0001200064008052
B1208555208708N01240612EA0001200064007032
B1208595208708N01240612EA0001100064011048
B1209035208708N01240612EA0001200064013040
B1209075208708N01240612EA0001200064010036
B1209115208708N01240612EA0001100064006088
B1209155208708N01240612EA0001100064005064
B1209195208708N01240612EA0001100064000040
B1209235208708N01240612EA0001100064000064
B1209275208708N01240612EA0001100064002028
B1209315208708N01240612EA0001100064002032
B1209355208708N01240612EA0001100064001020
B1209395208708N01240612EA0001100064001024
B1209435208708N01240612EA0001100064001000
B1209475208708N01240612EA0001000064004008
B1209515208708N01240612EA0001100064001044
B1209555208708N01240612EA0001100064002024
B1209595208708N01240612EA0001100064000016
B1210035208708N01240612EA0001100064000032
B1210075208708N01240612EA0001100064000020
B1210115208708N01240612EA0001100064000016
B1210155208708N01240612EA0001100064000048
B1210195208708N01240612EA0001100064000032
B1210235208708N01240612EA0001100064000076
B1210275208708N01240612EA0001100064000064
B1210315208708N01240612EA0001100064000072
B1210355208708N01240612EA0001100064000072
B1210395208708N01240612EA0001100064008040
B1210435208708N01240612EA0001100064007056
B1210475208708N01240612EA0001100064000044
B1210515208708N01240612EA0001100064002040
B1210555208708N01240612EA0001100064000044
B1210595208708N01240612EA0001100064000044
B1211035208708N01240612EA0001100064000092
B1211075208708N01240612EA0001100064000068
B1211115208708N01240612EA0001100064000100
B1211155208708N01240612EA0001100064004096
B1211195208708N01240612EA0001100064009116
B1211235208708N01240612EA0001100064002108
B1211275208708N01240612EA0001100064005036
B1211315208708N01240612EA0001100064009076
B1211355208708N01240612EA0001000064010020
B1211395208708N01240612EA0001000064003028
B1211435208708N01240612EA0001000064008040
B1211475208708N01240612EA0001000064009032
B1211515208708N01240612EA0001000064009000
B1211555208708N01240612EA0001000064010020
B1211595208708N01240612EA0001000064008028
B1212035208708N01240612EA0001000064003016
B1212075208708N01240612EA0001000064008016
B1212115208708N01240612EA0001100064000024
B1212155208708N01240612EA0001100064008012
B1212195208708N01240612EA0001100064008016
B1212235208708N01240612EA0001100064008012
B1212275208708N01240612EA0001100064010012
B1212315208708N01240612EA0001200064007008
B1212355208708N01240612EA0001100064002008
B1212395208708N01240612EA0001100064009004
B1212435208708N01240612EA0001100064007008
B1212475208708N01240612EA0001100064000008
B1212515208708N01240612EA0001100064000008
B1212555208708N01240612EA0001100064007008
B1212595208708N01240612EA0001000064008008
B1213035208708N01240612EA0001000064000008
B1213075208708N01240612EA0001000064000008
B1213115208708N01240612EA0001100064000008
B1213155208708N01240612EA0001100064000008
B1213195208708N01240612EA0001100064000004
B1213235208708N01240612EA0001000064000008
B1213275208708N01240612EA0001000064000008
B1213315208708N01240612EA0001100064001008
B1213355208708N01240612EA0001100064000008
B1213395208708N01240612EA0001100064000008
B1213435208708N01240612EA0001100064000028
B1213475208708N01240612EA0001100064000016
B1213515208708N01240612EA0001100064000120
B1213555208708N01240612EA0001000064000072
B1213595208708N01240612EA0001000064003060
B1214035208708N01240612EA0001000064008088
B1214075208708N01240612EA0001100064006040
B1214115208708N01240612EA0001100064012048
B1214155208708N01240612EA0001100064010044
B1214195208708N01240612EA0001100064009040
B1214235208708N01240612EA0001100064008068
B1214275208708N01240612EA0001000064008056
B1214315208708N01240612EA0001100064007016
B1214355208708N01240612EA0001200064006040
B1214395208708N01240612EA0001200064005004
B1214435208708N01240612EA0001200064005008
B1214475208708N01240612EA0001200064005028
B1214515208708N01240612EA0001200064007016
B1214555208708N01240612EA0001200064006016
B1214595208708N01240612EA0001100064007024
B1215035208708N01240612EA0001100064008084
B1215075208708N01240612EA0001100064007048
B1215115208708N01240612EA0001100064005088
B1215155208708N01240612EA0001100064008088
B1215195208708N01240612EA0001100064008076
B1215235208708N01240612EA0001100064006080
B1215275208708N01240612EA0001100064006048
B1215315208708N01240612EA0001100064003064
B1215355208708N01240612EA0001100064005028
B1215395208708N01240612EA0001100064006040
B1215435208708N01240612EA0001100064005024
B1215475208708N01240612EA0001100064007024
B1215515208708N01240612EA0001100064006060
B1215555208708N01240612EA0001100064008040
B1215595208708N01240612EA0001100064008052
B1216035208708N01240612EA0001100064007056
B1216075208708N01240612EA0001100064005068
B1216115208708N01240612EA0001100064008060
B1216155208708N01240612EA0001100064010040
B1216195208708N01240612EA0001100064013056
B1216235208708N01240612EA0001100064016036
B1216275208708N01240612EA0001100064019040
B1216315208704N01240595EA0001200064051080
B1216355208691N01240554EA0001400064054476
B1216395208675N01240491EA0001200064095904
B1216435208650N01240408EA0001400064103820
B1216475208625N01240312EA0001600064116480
B1216515208595N01240204EA0002300072127220
K121651332022
B1216555208566N01240100EA0004000088122132
B1216595208541N01239995EA0007000112118136
B1217035208520N01239895EA0008600136119112
B1217075208500N01239795EA0008800136123124
B1217115208475N01239691EA0009800144128108
K121711294014
B1217155208450N01239587EA0010700160126112
B1217195208420N01239487EA0012300176121124
B1217235208391N01239387EA0013700184124116
B1217275208370N01239283EA0014000192126100
B1217315208341N01239179EA0014500200125112
K121731238015
B1217355208312N01239079EA0014900200125116
B1217395208279N01238979EA0014800208124108
B1217435208250N01238875EA0015200208131156
B1217475208212N01238770EA0015800216131132
B1217515208175N01238666EA0017000224137068
K121751222017
B1217555208145N01238554EA0017800232133100
B1217595208116N01238450EA0018900248128036
B1218035208087N01238350EA0019700256124052
B1218075208058N01238254EA0019700256124036
B1218115208029N01238154EA0020100256126036
K121811214019
B1218155207995N01238054EA0020200264125056
B1218195207966N01237950EA0020800272128048
B1218235207929N01237850EA0020600264129096
B1218275207891N01237754EA0020500272127324
B1218315207850N01237662EA0021800280129436
K121831198021
B1218355207808N01237570EA0022500288126216
B1218395207766N01237479EA0024300296128064
B1218435207720N01237391EA0025200312128140
B1218475207679N01237304EA0026600320127060
B1218515207641N01237212EA0027900336135064
K121851204019
B1218555207600N01237120EA0028600344133060
B1218595207566N01237033EA0029900360126060
B1219035207533N01236950EA0031000376120036
B1219075207495N01236866EA0031500376124048
B1219115207454N01236775EA0032100384127060
K121911216023
B1219155207416N01236687EA0034200408125048
B1219195207379N01236600EA0036000424124056
B1219235207341N01236508EA0037300440131056
B1219275207308N01236412EA0038100448128032
B1219315207275N01236320EA0039700464124044
K121931222023
B1219355207245N01236233EA0040700480124044
B1219395207212N01236145EA0041500480125040
B1219435207162N01236087EA0041500488126052
B1219475207104N01236070EA0042300488123048
B1219515207037N01236079EA0042700496124056
K121951218024
B1219555206975N01236104EA0043200496121056
B1219595206912N01236141EA0043600504123076
B1220035206845N01236179EA0044000504127064
B1220075206783N01236225EA0044900520123060
B1220115206716N01236275EA0045800528126068
K122011196016
B1220155206654N01236329EA0047300544122072
B1220195206595N01236383EA0049100560126064
B1220235206533N01236437EA0050800576121064
B1220275206470N01236504EA0052400592123068
B1220315206412N01236575EA0054500608129064
K122031098021
B1220355206362N01236666EA0056000632126064
B1220395206333N01236779EA0056900640126064
B1220435206320N01236904EA0057600648123064
B1220475206333N01237033EA0058300656129064
B1220515206362N01237154EA0060000664123064
K122051090023
B1220555206400N01237266EA0060400680118052
B1220595206454N01237379EA0060400680128056
B1221035206500N01237487EA0060900688115056
B1221075206516N01237595EA0061700696102056
B1221115206537N01237695EA0061200688101024
K122111090023
B1221155206570N01237791EA0059300672106040
B1221195206625N01237879EA0058500664116016
B1221235206691N01237945EA0058800664117020
B1221275206762N01238004EA0058900664117040
B1221315206837N01238050EA0058400656117028
K122131092023
B1221355206912N01238095EA0058000656121032
B1221395206991N01238145EA0058800664115036
B1221435207062N01238195EA0059000664111016
B1221475207133N01238241EA0059000664114024
B1221515207212N01238283EA0058900664114024
K122151148012
B1221555207287N01238325EA0059100664114020
B1221595207366N01238366EA0059600672114028
B1222035207441N01238408EA0059500672113024
B1222075207520N01238450EA0058000656117024
B1222115207600N01238495EA0056300632119024
K122211184013
B1222155207683N01238545EA0054700616119044
B1222195207766N01238600EA0053700608126032
B1222235207854N01238650EA0052500600128036
B1222275207941N01238695EA0051200584128040
B1222315208029N01238741EA0050300576128044
K122231180017
B1222355208120N01238775EA0049800568125040
B1222395208208N01238804EA0049800568119044
B1222435208295N01238820EA0050300568118044
B1222475208370N01238875EA0051400584117040
B1222515208400N01238979EA0052800600108040
K122251164021
B1222555208375N01239070EA0053000600105024
B1222595208316N01239091EA0053300608110032
B1223035208275N01239025EA0054700616111024
B1223075208291N01238925EA0054800624104024
B1223115208341N01238845EA0054600616105028
K122311164021
B1223155208416N01238820EA0054800616109024
B1223195208483N01238879EA0055500632105020
B1223235208500N01238983EA0055500632107024
B1223275208466N01239066EA0055800632105028
B1223315208408N01239062EA0056300640111024
K122331196016
B1223355208387N01238979EA0057100648105044
B1223395208425N01238887EA0057100648110036
B1223435208500N01238883EA0057800648108016
B1223475208554N01238962EA0058500656105032
B1223515208554N01239070EA0058800664107028
K122351192016
B1223555208508N01239129EA0059000664108024
B1223595208454N01239104EA0059600672116028
B1224035208445N01239012EA0060300680107028
B1224075208495N01238929EA0060300680104028
B1224115208570N01238920EA0060400680110028
K122411194018
B1224155208633N01238991EA0061400688109028
B1224195208641N01239095EA0061600696108028
B1224235208591N01239154EA0061600688107028
B1224275208541N01239120EA0062200696112028
B1224315208537N01239025EA0062600704106028
K122431188017
B1224355208591N01238950EA0062600704104028
B1224395208670N01238962EA0062700704114044
B1224435208716N01239054EA0063200712110036
B1224475208691N01239145EA0063300704110016
B1224515208637N01239158EA0063300712109032
K122451184017
B1224555208600N01239087EA0063600712107028
B1224595208616N01238983EA0064000720107024
B1225035208670N01238912EA0064000712104028
B1225075208750N01238895EA0064000712109028
B1225115208820N01238945EA0064800720106028
K122511188018
B1225155208850N01239054EA0064900728108028
B1225195208816N01239137EA0064900728110028
B1225235208762N01239120EA0065300728110028
B1225275208745N01239025EA0065700736108044
B1225315208795N01238941EA0066000736109036
K122531192018
B1225355208870N01238945EA0066400744106016
B1225395208925N01239037EA0066500744110032
B1225435208920N01239150EA0067100752107028
B1225475208870N01239195EA0067300752107024
B1225515208816N01239170EA0067600752107028
K122551194018
B1225555208800N01239083EA0067800760104028
B1225595208833N01238987EA0067800760110024
B1226035208908N01238966EA0068500760104024
B1226075208970N01239037EA0068700768107028
B1226115208979N01239145EA0069200768107024
K122611192019
B1226155208937N01239220EA0069100768110024
B1226195208883N01239212EA0069300768110024
B1226235208854N01239133EA0069500776109024
B1226275208879N01239033EA0069500776109024
B1226315208950N01238987EA0069500776109040
K122631192018
B1226355209020N01239033EA0069700776108032
B1226395209058N01239137EA0070000776109016
B1226435209037N01239233EA0070200776106028
B1226475208983N01239266EA0070100776106028
B1226515208933N01239233EA0070300784109024
K122651192018
B1226555208887N01239170EA0069500768110028
B1226595208845N01239091EA0067800752122028
B1227035208804N01239000EA0066000736130040
B1227075208762N01238900EA0064400720142032
B1227115208716N01238804EA0064200720135048
K122711192019
B1227155208670N01238712EA0063500712136044
B1227195208629N01238616EA0063400712139052
B1227235208587N01238520EA0063900720131048
B1227275208541N01238429EA0064400720128032
B1227315208495N01238345EA0064700720125040
K122731192021
B1227355208450N01238254EA0064000712126040
B1227395208408N01238158EA0063000704130036
B1227435208366N01238058EA0062500696131032
B1227475208320N01237962EA0061300688131036
B1227515208270N01237870EA0060600680133036
K122751194020
B1227555208220N01237779EA0060000672134032
B1227595208170N01237691EA0059600672132044
B1228035208125N01237604EA0058700656132040
B1228075208075N01237516EA0058000648132044
B1228115208029N01237429EA0057700648130044
K122811184023
B1228155207983N01237341EA0057700648130040
B1228195207933N01237258EA0057400648131040
B1228235207879N01237175EA0057400648127040
B1228275207825N01237100EA0057400648131040
B1228315207770N01237025EA0057600648129036
K122831180024
B1228355207712N01236950EA0058500656123040
B1228395207662N01236875EA0058900664120036
B1228435207620N01236791EA0059600672115036
B1228475207575N01236737EA0060100672112016
B1228515207525N01236762EA0060300680106024
K122851182020
B1228555207504N01236845EA0060300680103024
B1228595207525N01236945EA0060000672106020
B1229035207579N01237029EA0059800672111024
B1229075207645N01237079EA0061100680101024
B1229115207716N01237070EA0061100688103028
K122911182020
B1229155207762N01236991EA0061300688104024
B1229195207754N01236891EA0061600688105024
B1229235207712N01236845EA0061600688100024
B1229275207670N01236875EA0060800688101028
B1229315207645N01236954EA0060000672106024
K122931176019
B1229355207625N01237050EA0058700664112040
B1229395207600N01237150EA0057700648117032
B1229435207575N01237258EA0057200640118032
B1229475207550N01237366EA0055900632121036
B1229515207520N01237479EA0055000624121036
K122951176019
B1229555207491N01237595EA0054200608126032
B1229595207458N01237716EA0054200616122036
B1230035207429N01237829EA0054500616120036
B1230075207404N01237937EA0055400624111024
B1230115207387N01238045EA0056700640111032
K123011184011
B1230155207345N01238108EA0057600656103028
B1230195207291N01238100EA0058500656107024
B1230235207262N01238020EA0058800664108024
B1230275207287N01237929EA0059300664105024
B1230315207350N01237891EA0059300664103024
K123031184011
B1230355207416N01237933EA0059100664103024
B1230395207454N01238029EA0058900656110024
B1230435207458N01238137EA0059800664108024
B1230475207412N01238191EA0060500680106028
B1230515207362N01238145EA0061400688110024
K123051200013
B1230555207370N01238045EA0062200696108028
B1230595207433N01237991EA0062200696109028
B1231035207495N01238033EA0062200696105028
B1231075207525N01238129EA0062200696108028
B1231115207508N01238225EA0063400704107024
K123111188013
B1231155207462N01238275EA0063800712110024
B1231195207420N01238220EA0064300720110028
B1231235207429N01238116EA0065300728107024
B1231275207495N01238066EA0066100736100028
B1231315207566N01238100EA0065700736105028
K123131176018
B1231355207595N01238204EA0066200736112028
B1231395207575N01238300EA0067400752109028
B1231435207520N01238304EA0068700768111028
B1231475207508N01238208EA0069800776108028
B1231515207554N01238125EA0070300784107028
K123151176019
B1231555207629N01238137EA0071000792107028
B1231595207670N01238229EA0071500792107024
B1232035207658N01238329EA0072400800112024
B1232075207604N01238345EA0073700816111028
B1232115207587N01238254EA0074900824107024
K123211180020
B1232155207633N01238162EA0075500832107024
B1232195207708N01238154EA0076100840108024
B1232235207754N01238237EA0077100848108028
B1232275207737N01238337EA0077600856113024
B1232315207683N01238354EA0079000864107028
K123231178018
B1232355207654N01238275EA0080600880106028
B1232395207675N01238175EA0081400896104028
B1232435207745N01238137EA0081700896108028
B1232475207808N01238204EA0082500904108024
B1232515207808N01238304EA0083000912108024
K123251180018
B1232555207758N01238354EA0083700920110024
B1232595207716N01238283EA0085100928111024
B1233035207741N01238179EA0086500944106024
B1233075207812N01238150EA0086600952112024
B1233115207866N01238229EA0087500960109024
K123311176017
B1233155207850N01238325EA0087800960116024
B1233195207795N01238329EA0089600976115044
B1233235207770N01238237EA0090900992106032
B1233275207812N01238145EA0091801000103016
B1233315207887N01238133EA0091901000112032
K123331170017
B1233355207933N01238216EA0092801008106020
B1233395207920N01238308EA0093701016111016
B1233435207866N01238325EA0094901032108028
B1233475207837N01238245EA0096301040107024
B1233515207870N01238145EA0096701048104028
K123351172018
B1233555207945N01238129EA0096801048111028
B1233595208000N01238208EA0097601056108024
B1234035207983N01238300EA0098301064111024
B1234075207929N01238308EA0099501072108028
B1234115207904N01238220EA0100901088104024
K123411168018
B1234155207933N01238120EA0101401096105028
B1234195208008N01238095EA0101501096107028
B1234235208062N01238162EA0101901104109024
B1234275208058N01238266EA0102401104113024
B1234315208008N01238304EA0103401120108024
K123431166018
B1234355207966N01238237EA0104501128105024
B1234395207979N01238129EA0105101136108028
B1234435208050N01238075EA0105501136105024
B1234475208120N01238120EA0105501136109040
B1234515208137N01238225EA0106401144113032
K123451166018
B1234555208095N01238291EA0107001152110040
B1234595208045N01238262EA0108801168104040
B1235035208025N01238166EA0108901168106044
B1235075208070N01238070EA0108701168110040
B1235115208150N01238066EA0108801168109036
K123511170017
B1235155208200N01238154EA0108901168111040
B1235195208187N01238258EA0109801176112044
B1235235208137N01238287EA0111101192107040
B1235275208095N01238216EA0111701200107044
B1235315208116N01238108EA0111701200108044
K123531176018
B1235355208183N01238054EA0111701200108036
B1235395208254N01238100EA0111901200109040
B1235435208275N01238208EA0112201208111040
B1235475208233N01238279EA0113301216109040
B1235515208179N01238266EA0113901224107044
K123551178017
B1235555208158N01238170EA0113901224105040
B1235595208195N01238070EA0113901224106036
B1236035208270N01238037EA0114001224107040
B1236075208333N01238091EA0115001232102044
B1236115208358N01238191EA0115001232104040
K123611174016
B1236155208345N01238295EA0115601240114044
B1236195208320N01238400EA0116301248115044
B1236235208300N01238504EA0117801256116036
B1236275208287N01238616EA0119301272111040
B1236315208308N01238729EA0120801288107016
K123631172016
B1236355208375N01238804EA0121301296113024
B1236395208445N01238775EA0122201312110044
B1236435208475N01238675EA0123201320105032
B1236475208450N01238583EA0123701320112036
B1236515208391N01238575EA0125601336109040
K123651172016
B1236555208366N01238670EA0126701352109036
B1236595208408N01238775EA0127801368115036
B1237035208487N01238791EA0129201376110036
B1237075208541N01238716EA0130001392106036
B1237115208537N01238616EA0130301392107036
K123711192018
B1237155208487N01238562EA0131101392114036
B1237195208433N01238604EA0132201408113036
B1237235208420N01238720EA0133701424114036
B1237275208466N01238833EA0135101432111036
B1237315208541N01238879EA0136501456111036
K123731196020
B1237355208608N01238825EA0137101464109016
B1237395208625N01238720EA0137501472108024
B1237435208587N01238641EA0137801472113044
B1237475208529N01238645EA0139501488113032
B1237515208495N01238733EA0140901496108016
K123751194020
B1237555208508N01238850EA0141901512108032
B1237595208570N01238945EA0143301520113044
B1238035208645N01238950EA0143701528107032
B1238075208704N01238870EA0144201536110032
B1238115208716N01238762EA0145001544108040
K123811194021
B1238155208683N01238683EA0145601552108032
B1238195208625N01238675EA0146401552112032
B1238235208583N01238750EA0148101568110032
B1238275208587N01238870EA0148601584111032
B1238315208645N01238970EA0149401584116032
K123831192020
B1238355208725N01238995EA0150301600111032
B1238395208795N01238941EA0151401608106016
B1238435208833N01238845EA0151701608107024
B1238475208820N01238741EA0151501608112028
B1238515208770N01238675EA0151501600113024
K123851192019
B1238555208712N01238670EA0152801616115044
B1238595208662N01238750EA0153901624110036
B1239035208654N01238870EA0154401632111032
B1239075208695N01238987EA0154701640115040
B1239115208766N01239066EA0155601648115032
K123911196019
B1239155208850N01239075EA0156301656112032
B1239195208920N01239025EA0156801656108016
B1239235208962N01238929EA0156201656111024
B1239275208970N01238816EA0156201648113044
B1239315208950N01238712EA0155601648111032
K123931198018
B1239355208904N01238637EA0155501640116032
B1239395208841N01238604EA0156401648122040
B1239435208779N01238637EA0157101656117036
B1239475208741N01238733EA0156201648120032
B1239515208741N01238862EA0156201648120032
K123951192020
B1239555208783N01238983EA0157101656114032
B1239595208845N01239079EA0157101656117036
B1240035208925N01239125EA0157501664115032
B1240075209008N01239108EA0157501664116040
B1240115209075N01239037EA0157501664115040
K124011190020
B1240155209108N01238925EA0157301664117036
B1240195209104N01238812EA0157201664110040
B1240235209070N01238720EA0157101656111032
B1240275209020N01238645EA0157201656114032
B1240315208962N01238616EA0157701664115032
K124031188020
B1240355208900N01238633EA0157901672114032
B1240395208854N01238700EA0158101672110032
B1240435208825N01238812EA0157301664116032
B1240475208825N01238937EA0156101648118032
B1240515208850N01239066EA0156101648118032
K124051194018
B1240555208920N01239158EA0156401648119036
B1240595209004N01239208EA0156901656119032
B1241035209087N01239229EA0157201664113044
B1241075209162N01239204EA0157701664105040
B1241115209220N01239125EA0157301664106036
K124111196018
B1241155209245N01239020EA0156701656110040
B1241195209241N01238912EA0156501656111032
B1241235209195N01238837EA0156101648113032
B1241275209137N01238862EA0156101648115060
B1241315209108N01238970EA0155801648123048
K124131192019
B1241355209125N01239104EA0155801648121032
B1241395209191N01239191EA0156301656114048
B1241435209270N01239175EA0157101656109044
B1241475209329N01239095EA0157201664108040
B1241515209358N01238995EA0157401664103040
K124151188018
B1241555209354N01238887EA0156801656109040
B1241595209320N01238795EA0156501656111036
B1242035209266N01238750EA0156501656113040
B1242075209204N01238745EA0156701656111040
B1242115209145N01238770EA0156801656114040
K124211188017
B1242155209095N01238837EA0157401664109036
B1242195209066N01238937EA0157201664108040
B1242235209062N01239062EA0156301648112032
B1242275209095N01239179EA0156601656112032
B1242315209150N01239275EA0157201664109032
K124231192018
B1242355209220N01239345EA0157201664111032
B1242395209304N01239366EA0156801656109040
B1242435209379N01239337EA0156301656106036
B1242475209445N01239270EA0155501648112032
B1242515209491N01239170EA0155601648111036
K124251192018
B1242555209508N01239066EA0155901648109036
B1242595209512N01238958EA0155301648107032
B1243035209487N01238858EA0154301632114040
B1243075209445N01238775EA0154201632113040
B1243115209395N01238712EA0154301632107040
K124311192018
B1243155209337N01238679EA0153301624109040
B1243195209275N01238687EA0153601624114040
B1243235209220N01238729EA0153901632107040
B1243275209179N01238804EA0153901632107044
B1243315209150N01238908EA0153901632110040
K124331192018
B1243355209158N01239029EA0153901632111040
B1243395209195N01239145EA0153901632112040
B1243435209250N01239241EA0153201624111032
B1243475209329N01239304EA0152701616115036
B1243515209416N01239329EA0152601616118044
K124351192018
B1243555209500N01239316EA0152601616119040
B1243595209579N01239270EA0152401616114044
B1244035209637N01239191EA0152101608114044
B1244075209666N01239079EA0151801608115036
B1244115209666N01238962EA0150301592115040
K124411192018
B1244155209645N01238858EA0149801592116036
B1244195209600N01238779EA0149701584112036
B1244235209550N01238712EA0149001576115040
B1244275209491N01238650EA0148701576120040
B1244315209429N01238620EA0148501576116040
K124431192018
B1244355209366N01238650EA0148501576115040
B1244395209312N01238720EA0147901568119040
B1244435209270N01238825EA0147101560123040
B1244475209245N01238950EA0146101552133032
B1244515209220N01239087EA0144901536141036
K124451192018
B1244555209200N01239233EA0144001528144052
B1244595209179N01239383EA0143701528139040
B1245035209158N01239533EA0142501512145048
B1245075209141N01239683EA0142701512146048
B1245115209120N01239825EA0143101520137032
K124511180008
B1245155209104N01239962EA0143301520132040
B1245195209087N01240100EA0141801512137024
B1245235209066N01240245EA0140601496147028
B1245275209045N01240391EA0140101488149044
B1245315209020N01240537EA0140301488144032
K124531156007
B1245355209004N01240679EA0140301488141036
B1245395208987N01240820EA0140301488137040
B1245435208970N01240954EA0139801488136040
B1245475208954N01241091EA0139201480137040
B1245515208937N01241229EA0139001472137016
K124551166012
B1245555208920N01241366EA0138001472137028
B1245595208900N01241500EA0137701464138028
B1246035208883N01241637EA0136901456138024
B1246075208862N01241775EA0136601448137044
B1246115208841N01241908EA0136001448137036
K124611162012
B1246155208820N01242045EA0135001440139032
B1246195208795N01242183EA0134501432141040
B1246235208775N01242320EA0134201424141032
B1246275208750N01242454EA0133901424137032
B1246315208725N01242587EA0133001416141036
K124631156012
B1246355208704N01242720EA0132301408138032
B1246395208683N01242854EA0131501400138036
B1246435208666N01242991EA0130901400138036
B1246475208654N01243129EA0131301400131088
B1246515208637N01243258EA0131401400129064
K124651156013
B1246555208620N01243387EA0132101408131032
B1246595208600N01243508EA0132201408127060
B1247035208575N01243625EA0132301408123036
B1247075208545N01243737EA0133601416118032
B1247115208508N01243829EA0134401432112016
K124711182026
B1247155208454N01243887EA0135401448108024
B1247195208395N01243904EA0135901448111028
B1247235208337N01243866EA0136301456105024
B1247275208312N01243766EA0137601464111044
B1247315208341N01243662EA0138301472105036
K124731182026
B1247355208412N01243620EA0138801480108036
B1247395208479N01243675EA0138901480106040
B1247435208504N01243787EA0139401480112036
B1247475208475N01243879EA0139901488106036
B1247515208416N01243895EA0140301496108044
K124751184013
B1247555208358N01243850EA0140901496112040
B1247595208316N01243766EA0141701504108036
B1248035208325N01243658EA0142801520109040
B1248075208387N01243587EA0143301520107036
B1248115208462N01243600EA0143701528108036
K124811184013
B1248155208508N01243691EA0144701536109040
B1248195208491N01243791EA0145001544107040
B1248235208437N01243833EA0145001544111036
B1248275208375N01243804EA0146001552114040
B1248315208337N01243712EA0147001560109036
K124831172013
B1248355208350N01243595EA0147401568110036
B1248395208412N01243525EA0148101568110032
B1248435208487N01243541EA0148101576108032
B1248475208545N01243625EA0148801576106036
B1248515208558N01243733EA0149501584113032
K124851172014
B1248555208520N01243812EA0149801592109036
B1248595208458N01243820EA0150801592108036
B1249035208404N01243762EA0151901608108036
B1249075208383N01243654EA0151901608112036
B1249115208416N01243541EA0151901608115032
K124911170013
B1249155208487N01243491EA0152301608112032
B1249195208562N01243520EA0152501616108036
B1249235208604N01243616EA0152501616112032
B1249275208600N01243729EA0153001616114036
B1249315208550N01243791EA0154201632107036
K124931168012
B1249355208487N01243795EA0155601648107044
B1249395208433N01243733EA0155701648110040
B1249435208416N01243620EA0155901648111016
B1249475208441N01243504EA0155801648113032
B1249515208504N01243429EA0155101640111044
K124951164012
B1249555208583N01243429EA0154301632111032
B1249595208645N01243500EA0154301632111032
B1250035208679N01243604EA0154901640106040
B1250075208675N01243712EA0155201640108044
B1250115208645N01243804EA0155801648111040
K125011164012
B1250155208583N01243841EA0156901656113040
B1250195208520N01243820EA0157701672112040
B1250235208466N01243745EA0157901672111036
B1250275208445N01243633EA0157301664115040
B1250315208458N01243512EA0156801656113032
K125031166011
B1250355208508N01243416EA0155501648111032
B1250395208583N01243366EA0154201632115036
B1250435208662N01243375EA0153701624110032
B1250475208729N01243433EA0153901632108036
B1250515208770N01243525EA0153901632107036
K125051162011
B1250555208787N01243637EA0153901632112040
B1250595208779N01243745EA0155101640109040
B1251035208750N01243845EA0155401648107040
B1251075208700N01243916EA0156101648114040
B1251115208633N01243925EA0157101664109036
K125111164010
B1251155208579N01243858EA0157001664113040
B1251195208558N01243750EA0156701656114036
B1251235208566N01243629EA0156001648114036
B1251275208591N01243512EA0155201640113032
B1251315208641N01243420EA0153601632112032
K125131174010
B1251355208716N01243375EA0152701616118032
B1251395208791N01243400EA0152701616114032
B1251435208845N01243479EA0152801624107044
B1251475208875N01243587EA0153501624112040
B1251515208895N01243695EA0153801632109040
K125151172008
B1251555208887N01243812EA0153901632111040
B1251595208850N01243900EA0154201632110036
B1252035208795N01243975EA0154701632110040
B1252075208733N01244029EA0155401640112024
B1252115208662N01244045EA0155101640112032
K125211180008
B1252155208604N01243987EA0153401632121044
B1252195208583N01243875EA0152901616115032
B1252235208612N01243762EA0152301608115052
B1252275208679N01243687EA0151001600115048
B1252315208758N01243687EA0150401592119032
K125231182008
B1252355208829N01243741EA0151101600118040
B1252395208858N01243854EA0152201608114044
B1252435208837N01243962EA0152501616113040
B1252475208779N01244020EA0152801616112040
B1252515208712N01244004EA0152301608115040
K125251186008
B1252555208670N01243908EA0150401592119048
B1252595208687N01243783EA0149901584116044
B1253035208750N01243704EA0148501576116032
B1253075208825N01243658EA0148001568119040
B1253115208908N01243658EA0148101568116044
K125311180008
B1253155208966N01243737EA0148601576114040
B1253195208987N01243850EA0149301584114044
B1253235208979N01243970EA0149601584112044
B1253275208962N01244083EA0150501592113040
B1253315208916N01244162EA0150701592113040
K125331176009
B1253355208845N01244175EA0149901592113036
B1253395208791N01244116EA0148701576117040
B1253435208779N01244008EA0148101576111032
B1253475208804N01243900EA0146601560107032
B1253515208862N01243812EA0144601536113044
K125351184010
B1253555208941N01243766EA0143701528120040
B1253595209020N01243791EA0143701528115060
B1254035209087N01243862EA0144501528117052
B1254075209120N01243970EA0145601544109036
B1254115209112N01244079EA0145901552111048
K125411188012
B1254155209054N01244137EA0146401552113044
B1254195208991N01244120EA0146001552118040
B1254235208929N01244050EA0144701536127036
B1254275208887N01243954EA0143201520123040
B1254315208883N01243829EA0142201512120036
K125431180013
B1254355208929N01243720EA0141201504117036
B1254395209000N01243662EA0140201488117044
B1254435209087N01243654EA0139001480121040
B1254475209175N01243675EA0139001480118060
B1254515209262N01243708EA0139501480118052
K125451180014
B1254555209333N01243775EA0140801496118032
B1254595209379N01243883EA0142101512114048
B1255035209379N01244000EA0143301520115040
B1255075209337N01244095EA0143701528117036
B1255115209275N01244154EA0143701528126020
K125511182014
B1255155209204N01244133EA0145001536118032
B1255195209166N01244041EA0145201544110044
B1255235209166N01243925EA0145001536111032
B1255275209212N01243816EA0144101536114032
B1255315209283N01243745EA0144701536114040
K125531174013
B1255355209366N01243716EA0145301544115032
B1255395209445N01243741EA0146501552113032
B1255435209495N01243829EA0147101560108036
B1255475209504N01243941EA0147001560110032
B1255515209495N01244058EA0148001568110032
K125551170012
B1255555209470N01244162EA0148101576109032
B1255595209416N01244220EA0148601576114036
B1256035209354N01244195EA0148501576112032
B1256075209316N01244100EA0148501576110032
B1256115209329N01243979EA0149101584110032
K125611176013
B1256155209370N01243887EA0149501584107040
B1256195209437N01243820EA0150101592108036
B1256235209516N01243795EA0150501592114016
B1256275209591N01243829EA0151401600112028
B1256315209645N01243920EA0151701608112028
K125631178011
B1256355209654N01244033EA0151901608110024
B1256395209629N01244129EA0152301608106044
B1256435209575N01244179EA0152401616108036
B1256475209516N01244183EA0152401616109032
B1256515209462N01244133EA0152101608112040
K125651174013
B1256555209429N01244037EA0151901608113036
B1256595209425N01243916EA0151901608113032
B1257035209466N01243816EA0151901608113040
B1257075209541N01243766EA0151901608111040
B1257115209620N01243779EA0152001608112040
K125711180013
B1257155209679N01243858EA0152901616108040
B1257195209712N01243966EA0153001624113036
B1257235209708N01244083EA0152901616114040
B1257275209666N01244170EA0152901616118032
B1257315209600N01244195EA0153501624114032
K125731182014
B1257355209537N01244166EA0153201624112040
B1257395209487N01244100EA0153501624107036
B1257435209450N01244004EA0152401616112032
B1257475209454N01243883EA0150901600117036
B1257515209500N01243779EA0150301592114036
K125751174013
B1257555209575N01243729EA0150001592111032
B1257595209654N01243725EA0150601592112044
B1258035209733N01243758EA0150801600110040
B1258075209795N01243837EA0150901600109044
B1258115209829N01243950EA0151501608111044
K125811178014
B1258155209825N01244066EA0151501608112032
B1258195209783N01244154EA0151301600114040
B1258235209720N01244191EA0151201600114036
B1258275209658N01244208EA0151901608106032
B1258315209600N01244179EA0151201608104040
K125831180013
B1258355209562N01244087EA0149901592112040
B1258395209570N01243970EA0148701576111036
B1258435209620N01243870EA0148201576113040
B1258475209683N01243795EA0147801568112044
B1258515209750N01243725EA0147401560117040
K125851184012
B1258555209825N01243670EA0148601576114036
B1258595209908N01243675EA0149001584112040
B1259035209970N01243741EA0149401584106040
B1259075210000N01243850EA0149401584112040
B1259115209987N01243954EA0150101592107036
K125911176012
B1259155209950N01244033EA0150301592104040
B1259195209900N01244087EA0149801592109036
B1259235209837N01244104EA0149501584110036
B1259275209775N01244079EA0149501584108036
B1259315209720N01244020EA0149001584110036
K125931174014
B1259355209691N01243920EA0147801568111036
B1259395209704N01243804EA0145901544112036
B1259435209750N01243700EA0144701536117036
B1259475209812N01243625EA0145001544111036
B1259515209883N01243570EA0145901552105044
K125951172014
B1259555209962N01243562EA0146401552108040
B1259595210033N01243612EA0147101560110040
B1300035210062N01243716EA0147401568107040
B1300075210041N01243816EA0146601560109040
B1300115209983N01243854EA0146701552111040
K130011172014
B1300155209929N01243800EA0148001568106040
B1300195209920N01243691EA0148101576105040
B1300235209954N01243583EA0148801576110044
B1300275210020N01243516EA0149501584104040
B1300315210100N01243520EA0150301592108036
K130031166015
B1300355210162N01243591EA0150301592106040
B1300395210183N01243695EA0150301592103032
B1300435210162N01243791EA0149401584105032
B1300475210112N01243841EA0149301584108036
B1300515210050N01243841EA0150301592107032
K130051168015
B1300555209995N01243779EA0150801600110036
B1300595209983N01243670EA0150701600109036
B1301035210025N01243566EA0150701600110040
B1301075210100N01243525EA0151701608107040
B1301115210170N01243562EA0152001616106044
K130111168014
B1301155210204N01243658EA0152401616107040
B1301195210187N01243754EA0152701624106036
B1301235210137N01243795EA0153201624108040
B1301275210079N01243758EA0153801632107040
B1301315210054N01243662EA0153701632105040
K130131162015
B1301355210066N01243545EA0152901624110040
B1301395210108N01243441EA0152601616112040
B1301435210179N01243395EA0152301616108056
B1301475210254N01243420EA0152301616106048
B1301515210304N01243508EA0152301616109032
K130151166014
B1301555210308N01243616EA0152301616107044
B1301595210279N01243704EA0152501616110044
B1302035210225N01243754EA0153301624109040
B1302075210166N01243741EA0153801632106040
B1302115210129N01243658EA0152901624107040
K130211168015
B1302155210137N01243541EA0152301616111040
B1302195210187N01243450EA0152301616111040
B1302235210258N01243404EA0152101616105040
B1302275210337N01243408EA0151901608110040
B1302315210404N01243462EA0151801608109036
K130231166014
B1302355210437N01243562EA0151801608108040
B1302395210433N01243666EA0151801608105036
B1302435210400N01243758EA0151201600111036
B1302475210350N01243816EA0151201608108040
B1302515210287N01243825EA0151701608112040
K130251170013
B1302555210233N01243766EA0151701608111040
B1302595210212N01243666EA0150901600107040
B1303035210229N01243550EA0149501592111036
B1303075210283N01243462EA0149001576112040
B1303115210358N01243416EA0148101576107040
K130311168013
B1303155210433N01243420EA0147901568111040
B1303195210500N01243466EA0148101576102040
B1303235210545N01243558EA0147801568107040
B1303275210562N01243670EA0147801576107044
B1303315210545N01243775EA0147801568110040
K130331174013
B1303355210500N01243841EA0147801568108044
B1303395210441N01243854EA0147801576108044
B1303435210379N01243816EA0148101576111040
B1303475210354N01243716EA0148301576111040
B1303515210375N01243608EA0148901584107040
K130351172014
B1303555210437N01243541EA0149101584101040
B1303595210512N01243545EA0149101584105040
B1304035210575N01243604EA0149901592106040
B1304075210600N01243704EA0150101592106040
B1304115210579N01243795EA0149701592105040
K130411164014
B1304155210525N01243841EA0149001584109056
B1304195210462N01243825EA0149101592108048
B1304235210420N01243745EA0150001592106032
B1304275210425N01243633EA0149001584108044
B1304315210470N01243533EA0149001584110056
K130431160013
B1304355210545N01243495EA0149001584104044
B1304395210620N01243529EA0148801584106032
B1304435210670N01243620EA0148801584111044
B1304475210687N01243729EA0149001584108044
B1304515210658N01243820EA0148701584112040
K130451164014
B1304555210600N01243850EA0148801584109036
B1304595210541N01243812EA0148501576112040
B1305035210508N01243716EA0148701576108040
B1305075210537N01243600EA0147601568110040
B1305115210604N01243533EA0147701576107060
K130511162015
B1305155210679N01243550EA0147701576105048
B1305195210729N01243637EA0148101576112052
B1305235210725N01243745EA0148601584106056
B1305275210679N01243808EA0148701584105032
B1305315210620N01243800EA0147801576109040
K130531162014
B1305355210562N01243729EA0146901560119040
B1305395210525N01243616EA0145401544126036
B1305435210500N01243487EA0143701528138056
B1305475210479N01243350EA0142801520140048
B1305515210466N01243204EA0142001504146052
K130551166015
B1305555210454N01243058EA0141201504150056
B1305595210445N01242908EA0140301496149048
B1306035210441N01242758EA0139701480150048
B1306075210437N01242604EA0139201480148032
B1306115210433N01242454EA0139201480148040
K130611194016
B1306155210433N01242300EA0139201480146040
B1306195210433N01242154EA0139401480140036
B1306235210437N01242004EA0138901472146044
B1306275210437N01241850EA0138401472147040
B1306315210433N01241700EA0138001464147040
K130631200014
B1306355210433N01241550EA0138001472146040
B1306395210429N01241408EA0138501472146036
B1306435210429N01241275EA0138301472141040
B1306475210425N01241141EA0137501456139036
B1306515210425N01241008EA0137601464133036
K130651206020
B1306555210433N01240895EA0139101480115032
B1306595210437N01240791EA0139501488109032
B1307035210454N01240687EA0138901480112024
B1307075210462N01240570EA0137701464121028
B1307115210466N01240445EA0137301456126044
K130711204024
B1307155210454N01240325EA0137201456126032
B1307195210420N01240216EA0137001456121036
B1307235210375N01240125EA0136401456119040
B1307275210312N01240079EA0136501448120040
B1307315210254N01240108EA0138001472110040
K130731210021
B1307355210212N01240187EA0138801480105044
B1307395210208N01240300EA0138901480106040
B1307435210245N01240408EA0139401480109036
B1307475210316N01240466EA0139501488104040
B1307515210400N01240454EA0138701480108036
K130751210021
B1307555210458N01240370EA0138601472114036
B1307595210470N01240258EA0140001488104036
B1308035210445N01240166EA0140201496104036
B1308075210400N01240100EA0140401496106040
B1308115210345N01240087EA0141601504107040
K130811186018
B1308155210300N01240145EA0141801512103036
B1308195210287N01240250EA0141901512107040
B1308235210320N01240362EA0141901512105036
B1308275210391N01240416EA0142101512106036
B1308315210466N01240391EA0142101512104040
K130831186017
B1308355210508N01240304EA0142301512102040
B1308395210520N01240191EA0142501520105044
B1308435210500N01240095EA0143101520106040
B1308475210454N01240041EA0143701528104040
B1308515210400N01240058EA0144201536103040
K130851188018
B1308555210354N01240129EA0143501520105040
B1308595210345N01240245EA0142801520110040
B1309035210383N01240345EA0143301528104036
B1309075210454N01240400EA0143701528106040
B1309115210525N01240395EA0144101536102044
K130911186016
B1309155210587N01240333EA0143201520109040
B1309195210616N01240220EA0143301528109040
B1309235210600N01240112EA0144201536106040
B1309275210554N01240054EA0144601536107040
B1309315210495N01240079EA0144601536110040
K130931186016
B1309355210466N01240179EA0144101536109040
B1309395210487N01240295EA0144201536109040
B1309435210554N01240358EA0144801544108040
B1309475210625N01240341EA0145601552103040
B1309515210679N01240262EA0146201552103044
K130951186016
B1309555210695N01240154EA0146001552104040
B1309595210679N01240050EA0146001552110040
B1310035210629N01240004EA0146501560105040
B1310075210570N01240037EA0145701544111036
B1310115210533N01240129EA0145101544112040
K131011186017
B1310155210533N01240250EA0145001544110040
B1310195210575N01240358EA0144901544111040
B1310235210645N01240412EA0145601544108040
B1310275210716N01240395EA0145601552102040
B1310315210770N01240312EA0145401544108040
K131031188016
B1310355210783N01240204EA0145601544106040
B1310395210762N01240104EA0145601544108040
B1310435210704N01240070EA0145401544107040
B1310475210654N01240120EA0145101544106040
B1310515210633N01240229EA0144901536106040
K131051192014
B1310555210650N01240345EA0144401536106040
B1310595210704N01240437EA0144001528113040
B1311035210779N01240454EA0144001528109044
B1311075210845N01240395EA0144001536106040
B1311115210875N01240295EA0144501536108044
K131111194015
B1311155210858N01240195EA0145001544108044
B1311195210812N01240129EA0145501544109044
B1311235210745N01240133EA0145601544113044
B1311275210679N01240154EA0144201536120040
B1311315210604N01240179EA0142701512133040
K131131198014
B1311355210525N01240204EA0141501504137040
B1311395210445N01240225EA0140601496143040
B1311435210366N01240241EA0140401488141036
B1311475210291N01240254EA0140301488139040
B1311515210216N01240262EA0140301488129040
K131151182019
B1311555210145N01240275EA0139501480128040
B1311595210070N01240291EA0138701472132040
B1312035209995N01240312EA0138401472133040
B1312075209920N01240329EA0139101480124040
B1312115209854N01240354EA0139101480121040
K131211120026
B1312155209795N01240412EA0139801488115036
B1312195209754N01240504EA0139601488115040
B1312235209704N01240591EA0138301480121036
B1312275209645N01240650EA0138201472124036
B1312315209579N01240687EA0138801480118036
K131231120026
B1312355209516N01240695EA0140001488117036
B1312395209466N01240645EA0141601504108040
B1312435209450N01240558EA0142101512100040
B1312475209475N01240458EA0141701504107036
B1312515209541N01240395EA0142101512115040
K131251120026
B1312555209620N01240429EA0143701528108052
B1312595209650N01240541EA0144601536108044
B1313035209620N01240641EA0144801536108032
B1313075209562N01240670EA0144801536114040
B1313115209516N01240612EA0145701552111036
K131311198018
B1313155209508N01240508EA0146501560107032
B1313195209554N01240408EA0146501552109040
B1313235209633N01240375EA0146701552115040
B1313275209712N01240400EA0148301576107036
B1313315209754N01240504EA0149401584107040
K131331192017
B1313355209745N01240616EA0149901592107040
B1313395209695N01240687EA0149301584108040
B1313435209633N01240679EA0149601584115032
B1313475209595N01240595EA0150501592110036
B1313515209612N01240483EA0150501592112036
K131351194016
B1313555209670N01240395EA0150201592111032
B1313595209750N01240370EA0151101600110032
B1314035209820N01240420EA0152401616104032
B1314075209854N01240529EA0152901624106036
B1314115209837N01240641EA0153801624110032
K131411194017
B1314155209787N01240691EA0154201632110016
B1314195209733N01240654EA0154901640110024
B1314235209720N01240554EA0155101640108044
B1314275209745N01240445EA0154801640111032
B1314315209812N01240370EA0154701632114036
K131431194021
B1314355209895N01240375EA0155701640113040
B1314395209958N01240450EA0156701656108036
B1314435209966N01240566EA0157201664110036
B1314475209929N01240658EA0157901672112036
B1314515209870N01240679EA0158701680109036
K131451194019
B1314555209825N01240625EA0159801688105036
B1314595209820N01240520EA0159701688105036
B1315035209862N01240425EA0158701680111036
B1315075209937N01240379EA0158601680106036
B1315115210020N01240404EA0159101680106040
K131511192019
B1315155210079N01240487EA0159801696107040
B1315195210100N01240604EA0160301696104044
B1315235210066N01240700EA0159701688114040
B1315275210000N01240725EA0159801688118048
B1315315209945N01240687EA0160701704115048
K131531192021
B1315355209925N01240591EA0161901712108032
B1315395209950N01240487EA0161401704107040
B1315435210020N01240425EA0161101704104036
B1315475210108N01240429EA0161001704111032
B1315515210179N01240504EA0162601712110040
K131551192021
B1315555210200N01240616EA0163001720107040
B1315595210183N01240733EA0162401720112040
B1316035210129N01240800EA0161901712117040
B1316075210062N01240795EA0162901720117032
B1316115210012N01240745EA0163401728110036
K131611192021
B1316155209987N01240645EA0163001720109036
B1316195210004N01240529EA0161001704119032
B1316235210062N01240433EA0160401696120048
B1316275210141N01240375EA0161001704112040
B1316315210220N01240366EA0162301712112032
K131631194020
B1316355210295N01240429EA0162901720109040
B1316395210329N01240537EA0163201720108040
B1316435210325N01240654EA0163101720109036
B1316475210279N01240741EA0162701720114032
B1316515210220N01240754EA0162701720113036
K131651192018
B1316555210170N01240687EA0163701728114040
B1316595210158N01240579EA0164701736106036
B1317035210191N01240470EA0164901736112036
B1317075210262N01240416EA0165701752106040
B1317115210341N01240437EA0166601760108040
K131711046199
B1317155210395N01240520EA0166901760108040
B1317195210404N01240641EA0166501760108020
B1317235210370N01240741EA0166401752110032
B1317275210312N01240787EA0166601760113044
B1317315210254N01240754EA0167001760111032
K131731188018
B1317355210225N01240662EA0166801760111040
B1317395210225N01240550EA0166001752111040
B1317435210266N01240450EA0165401744113036
B1317475210333N01240375EA0166101752108040
B1317515210408N01240350EA0167001760108036
K131751192017
B1317555210479N01240400EA0167001760107036
B1317595210516N01240504EA0167001760111036
B1318035210504N01240612EA0167001760108036
B1318075210454N01240675EA0167001760109032
B1318115210391N01240670EA0166501760111032
K131811188014
B1318155210345N01240591EA0167201760111044
B1318195210350N01240475EA0167201760115040
B1318235210391N01240362EA0167001760118040
B1318275210462N01240291EA0167401768117040
B1318315210541N01240316EA0168101776109036
K131831182014
B1318355210595N01240400EA0168401776107040
B1318395210620N01240512EA0167801776107036
B1318435210608N01240625EA0167401768116036
B1318475210562N01240708EA0167001760115040
B1318515210500N01240720EA0167001760115040
K131851180015
B1318555210445N01240666EA0167501768112040
B1318595210412N01240566EA0167501768118040
B1319035210437N01240450EA0167501768113040
B1319075210504N01240375EA0167501768113040
B1319115210583N01240395EA0167501768118044
K131911182016
B1319155210645N01240491EA0168101776116040
B1319195210666N01240604EA0168801776109044
B1319235210650N01240716EA0167901776112044
B1319275210616N01240820EA0167001760120032
B1319315210570N01240925EA0166301752128040
K131931186016
B1319355210520N01241033EA0166401752125036
B1319395210470N01241141EA0164801736136032
B1319435210412N01241250EA0164301728137044
B1319475210358N01241366EA0163801728137040
B1319515210304N01241462EA0163901728137040
K131951130022
B1319555210233N01241458EA0164401736125040
B1319595210191N01241370EA0164601736122060
B1320035210191N01241245EA0163801728126048
B1320075210220N01241116EA0162701720133032
B1320115210266N01240983EA0161401696141048
K132011130022
B1320155210320N01240850EA0160201688149044
B1320195210375N01240716EA0159201672152040
B1320235210429N01240579EA0158701672153056
B1320275210487N01240441EA0158801672151048
B1320315210541N01240304EA0158601672150052
K132031124015
B1320355210595N01240162EA0157101656152056
B1320395210645N01240016EA0156501648152048
B1320435210695N01239866EA0156501648153048
B1320475210741N01239712EA0155701640153032
B1320515210783N01239554EA0155101632157040
K132051050012
B1320555210829N01239400EA0154601632156044
B1320595210870N01239241EA0154001624161040
B1321035210908N01239079EA0153401616162060
B1321075210945N01238925EA0153601616156052
B1321115210979N01238770EA0153801624153032
K132111062002
B1321155211012N01238620EA0153401616155048
B1321195211041N01238470EA0153401616150044
B1321235211075N01238325EA0153101616148040
B1321275211108N01238179EA0152301608155044
B1321315211141N01238025EA0152301600149044
K132131270004
B1321355211170N01237870EA0150701592152056
B1321395211204N01237708EA0149901576164048
B1321435211233N01237554EA0151901600148032
B1321475211262N01237408EA0152001608142044
B1321515211287N01237266EA0151301600140044
K132151218006
B1321555211320N01237116EA0150001584147040
B1321595211354N01236958EA0149001576152032
B1322035211387N01236800EA0148101560153040
B1322075211420N01236645EA0147401560155040
B1322115211454N01236487EA0147001552157036
K132211026004
B1322155211483N01236329EA0146901552159056
B1322195211512N01236170EA0147001552155048
B1322235211537N01236016EA0148101568148032
B1322275211562N01235866EA0148201568145044
B1322315211587N01235712EA0146801552155044
K132231332002
B1322355211612N01235550EA0146001544150040
B1322395211641N01235387EA0144501528159040
B1322435211670N01235216EA0144001520162040
B1322475211704N01235045EA0142901512164040
B1322515211737N01234879EA0142501504163040
K132251022005
B1322555211770N01234712EA0142201504161044
B1322595211800N01234545EA0141701504161040
B1323035211829N01234387EA0141801504157044
B1323075211862N01234229EA0141101496159044
B1323115211891N01234070EA0139801488160044
K132311190005
B1323155211920N01233912EA0139501480162044
B1323195211945N01233758EA0140701488158088
B1323235211970N01233612EA0141801504149064
B1323275211991N01233470EA0142801512144040
B1323315212008N01233333EA0143701528140064
K132331224012
B1323355212020N01233191EA0144201528141040
B1323395212029N01233045EA0145001536140040
B1323435212037N01232895EA0145101544140032
B1323475212045N01232745EA0144001528146036
B1323515212066N01232583EA0141601504157032
K132351330010
B1323555212087N01232412EA0140401488167032
B1323595212112N01232241EA0140501488167056
B1324035212141N01232075EA0140401488165044
B1324075212170N01231916EA0139701480163036
B1324115212204N01231754EA0139201472161048
K132411314005
B1324155212245N01231600EA0138201464164056
B1324195212291N01231454EA0137801456158048
B1324235212350N01231316EA0138001464159048
B1324275212412N01231195EA0141401488144052
B1324315212475N01231104EA0142801512128036
K132431220015
B1324355212525N01231000EA0143301520122040
B1324395212566N01230887EA0143601520118020
B1324435212608N01230779EA0143701528110028
B1324475212629N01230662EA0144001528111028
B1324515212633N01230541EA0142601512124024
K132451218014
B1324555212629N01230408EA0141601496135044
B1324595212620N01230270EA0141201496136036
B1325035212600N01230133EA0140401488142036
B1325075212575N01229991EA0138701472150040
B1325115212541N01229845EA0137301456156056
K132511240010
B1325155212508N01229700EA0136301440163048
B1325195212470N01229558EA0135901440164056
B1325235212429N01229420EA0135601440160056
B1325275212391N01229283EA0135601440158052
B1325315212354N01229145EA0135301432158056
K132531214018
B1325355212316N01229004EA0135001432162032
B1325395212275N01228866EA0134201424161040
B1325435212233N01228733EA0134001424161060
B1325475212187N01228595EA0133701416163048
B1325515212145N01228462EA0133501416160052
K132551214021
B1325555212095N01228329EA0133001408160056
B1325595212054N01228191EA0131801400161040
B1326035212008N01228050EA0130901384165048
B1326075211966N01227900EA0130201384167060
B1326115211925N01227750EA0129801376167048
K132611228018
B1326155211887N01227604EA0129801376164048
B1326195211845N01227462EA0128301360164056
B1326235211808N01227316EA0127801352164048
B1326275211766N01227170EA0127001344163048
B1326315211725N01227029EA0126501344160048
K132631216018
B1326355211687N01226883EA0125801336161048
B1326395211650N01226733EA0125401328162052
B1326435211612N01226591EA0125701336152048
B1326475211575N01226454EA0126601344144032
B1326515211545N01226316EA0127501352140040
K132651198015
B1326555211525N01226179EA0129201368130024
B1326595211512N01226045EA0129901384130028
B1327035211491N01225933EA0132201400118028
B1327075211437N01225920EA0132601416107024
B1327115211404N01225991EA0132501408107044
K132711202010
B1327155211416N01226104EA0132801416112036
B1327195211466N01226195EA0134201432107032
B1327235211537N01226212EA0134701432110040
B1327275211591N01226129EA0135001440108032
B1327315211587N01226012EA0135001440116032
K132731170018
B1327355211537N01225962EA0135501448111036
B1327395211487N01226000EA0135701440106032
B1327435211454N01226095EA0135601440115036
B1327475211462N01226208EA0137101456112036
B1327515211525N01226262EA0137901464108032
K132751176016
B1327555211591N01226208EA0138301472109032
B1327595211600N01226095EA0138301472115036
B1328035211545N01226037EA0139501480113032
B1328075211491N01226087EA0141101496108044
B1328115211495N01226195EA0141101504111040
K132811168010
B1328155211554N01226266EA0141701512115040
B1328195211625N01226220EA0143101520111040
B1328235211641N01226112EA0143601528108044
B1328275211600N01226037EA0144001536108040
B1328315211541N01226070EA0144701536110040
K132831162011
B1328355211529N01226179EA0145001544108040
B1328395211579N01226275EA0146001552107040
B1328435211654N01226287EA0147401560114040
B1328475211687N01226179EA0148101568109060
B1328515211654N01226091EA0148601576108048
K132851178013
B1328555211595N01226104EA0148801576107032
B1328595211570N01226200EA0148901576107048
B1329035211600N01226312EA0149001576108040
B1329075211670N01226387EA0150301584115036
B1329115211737N01226320EA0150801600112060
K132911186014
B1329155211737N01226208EA0151401608109048
B1329195211687N01226150EA0152001608109032
B1329235211637N01226208EA0152801616111048
B1329275211654N01226320EA0152901616115060
B1329315211729N01226370EA0154701632114048
K132931180014
B1329355211787N01226295EA0155601648105032
B1329395211825N01226187EA0154501632107048
B1329435211858N01226054EA0151801608143028
B1329475211904N01225900EA0151201592154032
B1329515211958N01225750EA0149701576160060
K132951178014
B1329555212012N01225591EA0148501568162044
B1329595212062N01225425EA0147901560167052
B1330035212112N01225262EA0146801552172056
B1330075212170N01225095EA0146001544171048
B1330115212233N01224937EA0145401536175048
K133011062004
B1330155212295N01224783EA0145001528171056
B1330195212366N01224633EA0144401520174052
B1330235212437N01224491EA0144101520171056
B1330275212512N01224350EA0144001520171056
B1330315212583N01224212EA0144001520170052
K133031194004
B1330355212658N01224075EA0143701520168056
B1330395212729N01223941EA0143201512170032
B1330435212800N01223808EA0142101504169040
B1330475212875N01223675EA0142001504170040
B1330515212950N01223550EA0141701496165036
K133051224007
B1330555213020N01223420EA0141501496164044
B1330595213095N01223295EA0140701488163040
B1331035213166N01223170EA0140101480164060
B1331075213241N01223045EA0139501480159052
B1331115213320N01222925EA0138301464166048
K133111248005
B1331155213400N01222804EA0137901464163056
B1331195213479N01222687EA0137201456160048
B1331235213558N01222558EA0136301448161048
B1331275213629N01222420EA0135301432166056
B1331315213695N01222283EA0135601432164052
K133131068005
B1331355213762N01222145EA0137101456153060
B1331395213825N01222025EA0137501464143056
B1331435213891N01221908EA0137801464140044
B1331475213958N01221800EA0138201464129052
B1331515214037N01221708EA0138301472132020
K133151196014
B1331555214116N01221633EA0139501480125032
B1331595214195N01221570EA0140501488120028
B1332035214275N01221516EA0142201504117024
B1332075214354N01221541EA0143701520107028
B1332115214400N01221633EA0143801528102028
K133211200023
B1332155214400N01221745EA0143701520106044
B1332195214354N01221816EA0143601520116036
B1332235214304N01221791EA0145001536104032
B1332275214275N01221708EA0145001536107040
B1332315214266N01221604EA0145001536108024
K133231200023
B1332355214270N01221487EA0145501544119028
B1332395214304N01221375EA0146701552110044
B1332435214379N01221320EA0148301568110032
B1332475214450N01221379EA0149101576106040
B1332515214466N01221491EA0149601584106040
K133251200023
B1332555214429N01221575EA0150001584106040
B1332595214366N01221595EA0150101592113040
B1333035214320N01221533EA0150901600103040
B1333075214308N01221420EA0151401600111040
B1333115214350N01221316EA0152901616111036
K133311180017
B1333155214425N01221291EA0154201632105040
B1333195214487N01221362EA0154801640105036
B1333235214491N01221479EA0154801640111036
B1333275214445N01221541EA0156101648110040
B1333315214391N01221504EA0157101656105040
K133331176017
B1333355214375N01221400EA0157701664109040
B1333395214420N01221304EA0158701680108040
B1333435214495N01221300EA0159601688108036
B1333475214550N01221387EA0160101696104040
B1333515214541N01221491EA0160501696108040
K133351182017
B1333555214483N01221525EA0161501704117040
B1333595214450N01221441EA0162401720110060
B1334035214479N01221333EA0163401728106048
B1334075214554N01221295EA0164001736106032
B1334115214620N01221354EA0164701736107048
K133411178021
B1334155214641N01221462EA0165101744105036
B1334195214595N01221541EA0165001744114032
B1334235214537N01221512EA0166101760107040
B1334275214512N01221420EA0167001768103040
B1334315214508N01221304EA0166501760121028
K133431180018
B1334355214512N01221166EA0165401744136032
B1334395214520N01221016EA0163001728151028
B1334435214533N01220854EA0160001696164028
B1334475214541N01220679EA0158601672168060
B1334515214554N01220500EA0157201656169044
K133451182018
B1334555214566N01220320EA0156301648171072
B1334595214575N01220137EA0155801640173064
B1335035214583N01219954EA0155601640170068
B1335075214591N01219779EA0155101632172072
B1335115214600N01219600EA0154001624173048
K133511216010
B1335155214608N01219420EA0153601616175056
B1335195214612N01219241EA0152801608175056
B1335235214620N01219062EA0152301608173052
B1335275214625N01218883EA0151801608170052
B1335315214633N01218708EA0151301600170056
K133531212012
B1335355214637N01218537EA0151301600172056
B1335395214641N01218366EA0151401600170056
B1335435214650N01218204EA0151201600164056
B1335475214662N01218037EA0150701592165056
B1335515214675N01217870EA0150601584166032
K133551218016
B1335555214691N01217704EA0150801592164044
B1335595214708N01217541EA0150801592163044
B1336035214725N01217379EA0151701600161040
B1336075214741N01217229EA0153801624147040
B1336115214758N01217087EA0155401640134040
K133611204026
B1336155214775N01216945EA0156301648136028
B1336195214787N01216812EA0157101656131032
B1336235214800N01216679EA0157101656136028
B1336275214812N01216541EA0157201664135028
B1336315214820N01216400EA0156601656141028
K133631214018
B1336355214837N01216254EA0156701656147028
B1336395214850N01216108EA0157701672138044
B1336435214866N01215970EA0158601680134036
B1336475214879N01215825EA0159001680137016
B1336515214883N01215683EA0158601680132032
K133651224011
B1336535214870N01215620EA0158401672130044
B1336545214858N01215595EA0158101672132032
B1336555214845N01215570EA0157801672134036
B1336565214829N01215550EA0157501664135040
B1336575214812N01215533EA0157201664137036
B1336585214791N01215520EA0157101664138036
B1336595214770N01215512EA0156601656140036
B1337005214754N01215504EA0156301656142036
B1337015214733N01215500EA0155701648145032
B1337025214712N01215495EA0155701640147032
B1337035214691N01215495EA0155701640148036
B1337045214670N01215491EA0155601640149032
B1337075214604N01215491EA0155201640152036
B1337115214516N01215495EA0154301624152036
K133711224011
B1337155214429N01215512EA0153401616155036
B1337195214341N01215529EA0152301608156036
B1337235214250N01215550EA0150901592166036
B1337275214158N01215570EA0150401584168036
B1337315214070N01215595EA0150201584166060
K133731130023
B1337355213979N01215620EA0149501576165048
B1337395213891N01215645EA0149001568163052
B1337435213804N01215670EA0147901560163056
B1337475213716N01215695EA0146901552165052
B1337515213625N01215720EA0146401544166052
K133751134034
B1337555213533N01215745EA0145701544164052
B1337595213441N01215770EA0144701536161052
B1338035213350N01215787EA0144001528165056
B1338075213258N01215808EA0144301528160056
B1338115213166N01215829EA0144501528154048
K133811136030
B1338155213079N01215858EA0144501528152052
B1338195213000N01215900EA0144701536147032
B1338235212925N01215975EA0146501552141040
B1338275212866N01216062EA0148401568134044
B1338315212800N01216125EA0149801592123040
K133831126032
B1338355212733N01216141EA0150601600118020
B1338395212666N01216120EA0151201608116032
B1338435212612N01216062EA0152801624111028
B1338475212554N01216020EA0153901632108024
B1338515212491N01216045EA0154801640106024
K133851126032
B1338555212437N01216112EA0155801648107024
B1338595212383N01216183EA0156701656116024
B1339035212316N01216183EA0158001672113024
B1339075212266N01216108EA0158601680113024
B1339115212266N01215995EA0159501688115024
K133911126032
B1339155212316N01215912EA0160001696103044
B1339195212387N01215895EA0159501688109032
B1339235212458N01215950EA0159401688111036
B1339275212504N01216050EA0160201696110040
B1339315212525N01216170EA0161301704108040
K133931126032
B1339355212500N01216275EA0161701704114040
B1339395212441N01216320EA0163001720113032
B1339435212391N01216266EA0163701736106036
B1339475212383N01216158EA0164101736111036
B1339515212433N01216075EA0164701744110032
K133951200012
B1339555212512N01216079EA0165501744111032
B1339595212558N01216175EA0166101760114032
B1340035212550N01216291EA0166901760109036
B1340075212495N01216358EA0167701768113032
B1340115212437N01216325EA0168901784107032
K134011200010
B1340155212416N01216220EA0169501784112032
B1340195212458N01216133EA0169601792112036
B1340235212533N01216125EA0169901792112032
B1340275212587N01216216EA0170501800114036
B1340315212570N01216329EA0171201808110036
K134031204008
B1340355212508N01216366EA0171001800116036
B1340395212458N01216291EA0172001816116036
B1340435212479N01216187EA0173201824107056
B1340475212545N01216158EA0173201824109048
B1340515212608N01216229EA0173301832111036
K134051204007
B1340555212616N01216345EA0174401832104048
B1340595212575N01216437EA0174501840109040
B1341035212508N01216470EA0174501840120040
B1341075212433N01216466EA0173701832123040
B1341115212350N01216450EA0170501808142040
K134111208007
B1341155212270N01216404EA0169901784154036
B1341195212195N01216333EA0169501784155040
B1341235212120N01216262EA0168101768152040
B1341275212041N01216195EA0166501752163040
B1341315211954N01216129EA0165701744167060
K134131206009
B1341355211870N01216075EA0165901744164048
B1341395211783N01216037EA0166101744158056
B1341435211691N01216025EA0166401752151056
B1341475211604N01216029EA0166001744155044
B1341515211512N01216041EA0165701744162048
K134151120050
B1341555211420N01216058EA0166901752154040
B1341595211333N01216075EA0168001768149040
B1342035211245N01216095EA0167301760150044
B1342075211158N01216116EA0166501752156040
B1342115211070N01216133EA0166401752152036
K134211130032
B1342155210979N01216150EA0165301744158040
B1342195210887N01216166EA0164001728163044
B1342235210795N01216179EA0163001720162040
B1342275210700N01216191EA0162801712161060
B1342315210608N01216200EA0162501704162052
K134231148025
B1342355210520N01216204EA0162701712158048
B1342395210433N01216212EA0162701720152056
B1342435210345N01216229EA0163601720148036
B1342475210258N01216250EA0164501736141040
B1342515210175N01216275EA0165601744142036
K134251126030
B1342555210095N01216308EA0166401752132036
B1342595210016N01216345EA0166001752137020
B1343035209933N01216387EA0163801728146028
B1343075209845N01216433EA0162401712151044
B1343115209754N01216475EA0160901696155032
K134311106028
B1343155209662N01216520EA0160701696152048
B1343195209575N01216566EA0159701688151048
B1343235209483N01216608EA0159001672152052
B1343275209395N01216654EA0158401664154048
B1343315209300N01216691EA0158101664156048
K134331118018
B1343355209208N01216729EA0158101664157048
B1343395209120N01216770EA0158101664155036
B1343435209033N01216808EA0157301656158040
B1343475208941N01216850EA0156501648161056
B1343515208850N01216891EA0155501640164048
K134351134019
B1343555208758N01216933EA0154801632163032
B1343595208666N01216979EA0154501624160044
B1344035208575N01217020EA0153801624160060
B1344075208487N01217062EA0153201616161048
B1344115208395N01217108EA0152901616159052
K134411138021
B1344155208308N01217158EA0152701616154056
B1344195208220N01217208EA0151801608152052
B1344235208133N01217262EA0150701592156052
B1344275208041N01217316EA0149701576164048
B1344315207945N01217370EA0150001584162048
K134431128019
B1344355207862N01217425EA0150501592153032
B1344395207775N01217483EA0149501576158040
B1344435207687N01217545EA0148501568162040
B1344475207600N01217608EA0147801560164036
B1344515207512N01217670EA0147001552161040
K134451124020
B1344555207425N01217733EA0146101544159040
B1344595207341N01217791EA0145401536162044
B1345035207254N01217850EA0145001528158040
B1345075207166N01217912EA0144001520159044
B1345115207079N01217975EA0143501520159044
K134511132020
B1345155206995N01218037EA0143501520157044
B1345195206908N01218104EA0142601512159044
B1345235206820N01218170EA0142001504163044
B1345275206737N01218237EA0141801504159044
B1345315206654N01218304EA0141801504158060
K134531134019
B1345355206575N01218370EA0142301504155052
B1345395206495N01218441EA0142301504154032
B1345435206420N01218512EA0142201504151048
B1345475206341N01218579EA0141101496150044
B1345515206262N01218654EA0139201480159040
K134551114023
B1345555206175N01218733EA0138201464164040
B1345595206091N01218816EA0137801456162040
B1346035206012N01218900EA0136901448161040
B1346075205929N01218987EA0136301448162040
B1346115205850N01219079EA0135501440162060
K134611102022
B1346155205775N01219170EA0135401440160048
B1346195205700N01219258EA0135301432156048
B1346235205620N01219345EA0134601432156056
B1346275205545N01219433EA0133701424158032
B1346315205470N01219516EA0133201416158040
K134631134016
B1346355205395N01219600EA0132701408154036
B1346395205320N01219691EA0133201416155032
B1346435205258N01219787EA0136001448139060
B1346475205200N01219870EA0136601456124048
B1346515205141N01219958EA0136101448133020
K134651134015
B1346555205079N01220045EA0135101440140040
B1346595205012N01220137EA0134701432147044
B1347035204945N01220229EA0134601432145032
B1347075204879N01220320EA0134601432141036
B1347115204812N01220412EA0134001424147040
K134711120013
B1347155204750N01220508EA0133201416151032
B1347195204683N01220604EA0132701408152032
B1347235204616N01220704EA0131801400154036
B1347275204545N01220804EA0131301392157032
B1347315204475N01220908EA0130701384157040
K134731118016
B1347355204404N01221008EA0130301384157040
B1347395204333N01221112EA0129801376158044
B1347435204262N01221216EA0128701368157040
B1347475204191N01221325EA0127901360159044
B1347515204120N01221433EA0127301352161044
K134751124014
B1347555204050N01221537EA0126101344160044
B1347595203979N01221645EA0125701336159044
B1348035203908N01221745EA0124701328156044
B1348075203837N01221850EA0123601320158044
B1348115203766N01221958EA0123201312159044
K134811124012
B1348155203695N01222066EA0122301304159044
B1348195203629N01222175EA0121701296156044
B1348235203562N01222287EA0120901288158044
B1348275203500N01222395EA0120901288155044
B1348315203437N01222500EA0121501296149044
K134831120013
B1348355203379N01222608EA0121401296145044
B1348395203320N01222716EA0120901288150044
B1348435203258N01222825EA0121501296143044
B1348475203200N01222933EA0121501296145044
B1348515203145N01223045EA0121401296144044
K134851120011
B1348555203091N01223162EA0119901280153044
B1348595203037N01223283EA0118801264157032
B1349035202979N01223408EA0118101256155040
B1349075202925N01223533EA0117701256156036
B1349115202870N01223658EA0117201248157032
K134911124012
B1349155202816N01223783EA0116701248157044
B1349195202758N01223912EA0115401232159040
B1349235202700N01224041EA0114601224157060
B1349275202645N01224170EA0114001216159052
B1349315202591N01224295EA0113501208160052
K134931142011
B1349355202533N01224425EA0112901208161056
B1349395202483N01224554EA0112501200161048
B1349435202433N01224687EA0112101200161048
B1349475202387N01224820EA0112001192163032
B1349515202341N01224958EA0112401200157040
K134951146014
B1349555202300N01225087EA0111501192153044
B1349595202254N01225220EA0111401184156040
B1350035202208N01225354EA0111401192153044
B1350075202162N01225483EA0111401192152044
B1350115202120N01225612EA0110201184154044
K135011158017
B1350155202079N01225750EA0109901176162044
B1350195202037N01225883EA0110601184154036
B1350235201995N01226012EA0111001184143040
B1350275201954N01226145EA0110701184150044
B1350315201916N01226270EA0111401192142040
K135031168018
B1350355201875N01226395EA0110501184142032
B1350395201833N01226520EA0109301168147040
B1350435201783N01226641EA0107401152154032
B1350475201720N01226750EA0106801136156032
B1350515201658N01226854EA0106401136154036
K135051180023
B1350555201595N01226958EA0106101136151032
B1350595201545N01227070EA0105601136149040
B1351035201516N01227204EA0105501128149040
B1351075201516N01227354EA0105501128148044
B1351115201533N01227504EA0105101128151040
K135111170019
B1351155201554N01227658EA0106201136143040
B1351195201570N01227800EA0106701144141040
B1351235201600N01227941EA0108301160134040
B1351275201650N01228050EA0109701176123040
B1351315201729N01228075EA0112001200111032
K135131172021
B1351355201791N01228008EA0113101208111036
B1351395201791N01227904EA0113801216114032
B1351435201741N01227875EA0114401224110032
B1351475201712N01227945EA0114701232106036
B1351515201729N01228054EA0114401224109032
K135151174021
B1351555201787N01228125EA0115001232113040
B1351595201862N01228108EA0115901240105040
B1352035201895N01228012EA0116301240113040
B1352075201862N01227937EA0117301248112040
B1352115201820N01227979EA0118301264107056
K135211172020
B1352155201837N01228079EA0118401264109048
B1352195201912N01228120EA0118401264111032
B1352235201983N01228083EA0118601272110044
B1352275202012N01227979EA0118601272113040
B1352315201979N01227895EA0119901280111036
K135231170020
B1352355201925N01227870EA0120501288112040
B1352395201870N01227862EA0119901288115040
B1352435201804N01227883EA0118401264131024
B1352475201733N01227920EA0117701256142032
B1352515201658N01227966EA0117601256141044
K135251174020
B1352555201583N01228012EA0117501256146032
B1352595201500N01228066EA0117401256151040
B1353035201420N01228125EA0118301256149040
B1353075201345N01228179EA0118101256150040
B1353115201266N01228237EA0117201248150040
K135311150019
B1353155201187N01228291EA0116701248151040
B1353195201104N01228350EA0116601240155040
B1353235201025N01228404EA0116801248148044
B1353275200945N01228450EA0115801240151040
B1353315200866N01228500EA0114701224155044
K135331146020
B1353355200783N01228550EA0113701216156044
B1353395200700N01228595EA0112901208154036
B1353435200616N01228641EA0112601208154040
B1353475200533N01228683EA0112401200154040
B1353515200450N01228729EA0111201192158040
K135351134022
B1353555200366N01228775EA0111001192159040
B1353595200283N01228816EA0111001184153040
B1354035200204N01228862EA0110501184150040
B1354075200120N01228900EA0109601168157040
B1354115200041N01228941EA0109601168151060
K135411144023
B1354155159958N01228975EA0109301168142048
B1354195159879N01229008EA0108301160148036
B1354235159795N01229041EA0107401144150048
B1354275159712N01229070EA0106501144146040
B1354315159629N01229095EA0106501144141040
K135431140021
B1354355159550N01229120EA0107701152137056
B1354395159479N01229154EA0108701168130048
B1354435159412N01229183EA0109201176125032
B1354475159345N01229204EA0108301168123044
B1354515159275N01229229EA0105901144134016
K135451128022
B1354555159200N01229266EA0104901120147024
B1354595159129N01229308EA0104401120138060
B1355035159058N01229358EA0101901104144040
B1355075158987N01229425EA0100801080153048
B1355115158912N01229495EA0099901072153056
K135511104035
B1355155158837N01229570EA0099401064147048
B1355195158766N01229645EA0097801048152048
B1355235158691N01229729EA0097101040153036
B1355275158625N01229825EA0096001032153040
B1355315158562N01229925EA0094901024152044
K135531090032
B1355355158500N01230033EA0093901016155040
B1355395158433N01230137EA0093201008154044
B1355435158366N01230225EA0093101008150044
B1355475158287N01230279EA0093101000148044
B1355515158204N01230312EA0092000992149044
K135551110019
B1355555158120N01230329EA0091000984152044
B1355595158037N01230337EA0090500976153044
B1356035157950N01230341EA0090000968153036
B1356075157866N01230337EA0089400960154040
B1356115157783N01230333EA0088500960152040
K135611196020
B1356155157695N01230325EA0088200952158040
B1356195157612N01230312EA0088200952152040
B1356235157529N01230295EA0088200952153040
B1356275157445N01230279EA0088000952147044
B1356315157366N01230258EA0087200944146040
K135631188022
B1356355157287N01230241EA0087100944145040
B1356395157208N01230220EA0087100944139040
B1356435157129N01230204EA0086600944139036
B1356475157050N01230187EA0086100928142040
B1356515156970N01230170EA0086200928147040
K135651166021
B1356555156895N01230154EA0088000952130040
B1356595156833N01230200EA0089400968116036
B1357035156795N01230291EA0090300976107040
B1357075156808N01230404EA0090500984104020
B1357115156862N01230495EA0090300976105028
K135711148023
B1357155156937N01230504EA0090300976111044
B1357195157000N01230450EA0090900984105032
B1357235157012N01230354EA0091600992102040
B1357275156975N01230283EA0091600992107040
B1357315156916N01230287EA0092301000109040
K135731204016
B1357355156895N01230375EA0092801008102040
B1357395156925N01230479EA0092201000107040
B1357435157000N01230537EA0092501000113040
B1357475157070N01230516EA0093101008107040
B1357515157112N01230425EA0093501016110040
K135751198015
B1357555157095N01230329EA0094401024107044
B1357595157041N01230320EA0094501024109040
B1358035157012N01230408EA0095001032109040
B1358075157054N01230508EA0095401032111040
B1358115157129N01230512EA0096101040109044
K135811198015
B1358155157166N01230420EA0096701048107040
B1358195157141N01230337EA0097201048107044
B1358235157087N01230320EA0097801056105044
B1358275157045N01230387EA0098501064106040
B1358315157058N01230500EA0098301056107040
K135831200015
B1358355157129N01230562EA0098301056114036
B1358395157191N01230516EA0099501072104040
B1358435157216N01230420EA0099501072102044
B1358475157200N01230329EA0099701072109040
B1358515157145N01230304EA0100401080106036
K135851198016
B1358555157108N01230379EA0100701088103040
B1358595157125N01230491EA0100701080110040
B1359035157195N01230537EA0100601080110040
B1359075157262N01230475EA0100501080112056
B1359115157270N01230375EA0101601096104048
K135911198016
B1359155157237N01230308EA0101901096104032
B1359195157179N01230316EA0101901096106044
B1359235157145N01230404EA0101901104106036
B1359275157162N01230512EA0102201104107032
B1359315157233N01230566EA0102601104109052
K135931200016
B1359355157304N01230525EA0102601104107044
B1359395157337N01230433EA0103401112104032
B1359435157312N01230345EA0103401112108040
B1359475157258N01230341EA0103801120103044
B1359515157225N01230425EA0103801120104040
K135951194017
B1359555157241N01230537EA0103801120105044
B1359595157300N01230616EA0104201120105044
B1400035157375N01230616EA0104501120110040
B1400075157420N01230529EA0104501120106040
B1400115157412N01230429EA0105101128106040
K140011198016
B1400155157387N01230345EA0105601136102040
B1400195157333N01230325EA0105501136107044
B1400235157291N01230395EA0105501136107040
B1400275157308N01230508EA0105701136105056
B1400315157375N01230566EA0105701136106048
K140031198016
B1400355157445N01230520EA0105701136112036
B1400395157483N01230420EA0106901144106048
B1400435157512N01230325EA0107001152105044
B1400475157545N01230220EA0107001144109040
B1400515157558N01230112EA0107301152107036
K140051198017
B1400555157516N01230033EA0108501160110040
B1400595157458N01230062EA0109201168108040
B1401035157450N01230166EA0109401176108040
B1401075157508N01230237EA0110101184107044
B1401115157579N01230225EA0111301192105040
K140111198017
B1401155157620N01230141EA0111501200110040
B1401195157604N01230033EA0111601200113040
B1401235157545N01230025EA0113101208112052
B1401275157520N01230116EA0114001224108048
B1401315157562N01230208EA0114301224110032
K140131176010
B1401355157641N01230195EA0114801232111040
B1401395157670N01230091EA0115801240111032
B1401435157633N01230012EA0116601248108032
B1401475157575N01230029EA0117101256107044
B1401515157558N01230125EA0117801264107040
K140151172013
B1401555157600N01230216EA0118001264109040
B1401595157679N01230229EA0118901272115040
B1402035157720N01230137EA0120101288109040
B1402075157691N01230045EA0120501288108040
B1402115157633N01230041EA0121001296110044
K140211178013
B1402155157600N01230120EA0122001304107040
B1402195157620N01230225EA0122201312106040
B1402235157687N01230283EA0123201312110040
B1402275157754N01230237EA0124201328109036
B1402315157775N01230133EA0125301336105040
K140231182012
B1402355157741N01230050EA0125901344107044
B1402395157683N01230050EA0126601352104040
B1402435157650N01230133EA0127501360108036
B1402475157679N01230237EA0127901360106040
B1402515157750N01230283EA0128001368109040
K140251178012
B1402555157816N01230229EA0129401376113040
B1402595157829N01230116EA0130801392108036
B1403035157791N01230041EA0131201400108040
B1403075157733N01230050EA0131401400109040
B1403115157700N01230137EA0132101408106040
K140311172013
B1403155157716N01230241EA0132501408104036
