AZAN1DZ ZANDER/SDI GP941 V2.11
HFDTE160813
HFFXA050
HFPLT Pilot             :WFG LEMWERDER                           
HFGTY Glider type       :ASW 28                                  
HFGID Glider ID         :D-6869    
HFDTM100 GPS Datum      :WGS84
HFRFW Firmware Version  :11
HFRHW Hardware version  :2
HFFTY FR Type           :ZANDER/SDI GP941
HFGPS                   :Garmin,GPS25,12,30000
HFPRS Press Alt Sensor  :Intersema,MS5534A,10000
HFCCL Competition Class :Std                                     
HFCID Competition ID    :GR        
I023638IAS3941ENL
J020810WDI1113WVE
LZAN 072023 PowerOn
C150813084332150813000102
C5208650N01240100E 001SPLUESSE 
C5208650N01240100E 001SPLUESSE 
C5134616N01300683E GUETTIN-RUEG
C5140316N01449183E KORBACH     
C5208650N01240100E 001SPLUESSE 
C5208650N01240100E 001SPLUESSE 
B0720275208595N01239912EV0000900000000000
B0720315208595N01239912EV0000900000000000
B0720355208595N01239912EV0000900000000000
B0720395208595N01239912EV0000900000000000
B0720435208595N01239912EV0000900000000000
B0720475208595N01239912EV0000900000000004
B0720515208595N01239912EV0000900000000000
B0720555208595N01239912EV0000900000000004
B0720595208579N01239895EA0000900072000004
B0721035208579N01239895EA0000900064000000
B0721075208579N01239895EA0000900064000000
B0721115208579N01239895EA0000900064000000
B0721155208579N01239895EA0000900064000000
B0721195208579N01239895EA0000900064000000
B0721235208579N01239895EA0000900064000000
B0721275208579N01239895EA0000900064000004
B0721315208579N01239895EA0001000064000000
B0721355208579N01239895EA0001000072000008
B0721395208579N01239895EA0001000072000008
B0721435208579N01239895EA0001000072000004
B0721475208579N01239891EA0001000072000008
B0721515208579N01239891EA0001000072000000
B0721555208579N01239891EA0001000072000000
B0721595208579N01239891EA0001000072000000
B0722035208579N01239891EA0001000072000000
B0722075208579N01239891EA0001000072000000
B0722115208579N01239891EA0001000072000000
B0722155208579N01239891EA0001000072000000
B0722195208579N01239891EA0001000072000000
B0722235208579N01239891EA0001000072000000
B0722275208579N01239891EA0001000072000000
B0722315208579N01239891EA0001000072000000
B0722355208579N01239891EA0001000072000000
B0722395208579N01239891EA0001000072000000
B0722435208579N01239891EA0001000072000000
B0722475208579N01239891EA0001000072000004
B0722515208579N01239891EA0001000072000000
B0722555208579N01239891EA0001000072000000
B0722595208579N01239891EA0001000072000000
B0723035208579N01239891EA0001000072000000
B0723075208579N01239891EA0001000072000000
B0723115208579N01239891EA0001000072000000
B0723155208579N01239891EA0001000072000000
B0723195208579N01239891EA0001000072000000
B0723235208579N01239891EA0001000072000000
B0723275208579N01239891EA0001000072000000
B0723315208579N01239891EA0001000072000000
B0723355208579N01239891EA0001000072000000
B0723395208579N01239891EA0001000072000000
B0723435208579N01239891EA0001000072000000
B0723475208579N01239891EA0001000072000000
B0723515208579N01239891EA0001000072000000
B0723555208579N01239891EA0001000072000000
B0723595208579N01239891EA0001000072000000
B0724035208579N01239891EA0001000072000000
B0724075208579N01239891EA0001000072000000
B0724115208579N01239891EA0001000072000000
B0724155208579N01239891EA0001000072000000
B0724195208579N01239891EA0001000072000000
B0724235208579N01239891EA0001000072000000
B0724275208579N01239891EA0001000072000000
B0724315208579N01239891EA0001000072000000
B0724355208579N01239891EA0001000072000000
B0724395208579N01239891EA0001000072000000
B0724435208579N01239891EA0001000072000000
B0724475208579N01239891EA0001000072000000
B0724515208579N01239891EA0001000072000000
B0724555208579N01239891EA0001000072000000
B0724595208579N01239891EA0001000072000000
B0725035208579N01239891EA0001000072000000
B0725075208579N01239891EA0001000072000000
B0725115208579N01239891EA0001000072000000
B0725155208579N01239891EA0001000072000000
B0725195208579N01239891EA0001000072000004
B0725235208579N01239891EA0001000072000000
B0725275208579N01239891EA0001000072000004
B0725315208579N01239891EA0001000072000004
B0725355208579N01239891EA0001000072000000
B0725395208579N01239891EA0001000072000000
B0725435208579N01239891EA0001000072000000
B0725475208579N01239891EA0001000072000000
B0725515208579N01239891EA0001000072000000
B0725555208579N01239891EA0001000072000000
B0725595208579N01239891EA0001000072000000
B0726035208579N01239891EA0001000072000000
B0726075208579N01239891EA0001000072000000
B0726115208579N01239891EA0001000072000000
B0726155208579N01239891EA0001000072000000
B0726195208579N01239891EA0001000072000000
B0726235208579N01239891EA0001000072000004
B0726275208579N01239891EA0001000072000000
B0726315208579N01239891EA0001000072000000
B0726355208579N01239891EA0001000072000000
B0726395208579N01239891EA0001000072000000
B0726435208579N01239891EA0001000072000000
B0726475208579N01239891EA0001000072000000
B0726515208579N01239891EA0001000072000000
B0726555208579N01239891EA0001000072000000
B0726595208579N01239891EA0001000072000000
B0727035208579N01239891EA0001000072000000
B0727075208579N01239891EA0001000072000000
B0727115208579N01239891EA0001000072000000
B0727155208579N01239891EA0001000072000000
B0727195208579N01239891EA0001000072000000
B0727235208579N01239891EA0001000072000000
B0727275208579N01239891EA0001000072000000
B0727315208579N01239891EA0001000072000000
B0727355208579N01239891EA0001000072000000
B0727395208579N01239891EA0001000072000000
B0727435208579N01239891EA0001000072000000
B0727475208579N01239891EA0001000072000000
B0727515208579N01239891EA0001000072000000
B0727555208579N01239891EA0001000072000000
B0727595208579N01239891EA0001000072000000
B0728035208579N01239891EA0001000072000000
B0728075208579N01239891EA0001000072000000
B0728115208579N01239891EA0001000072000000
B0728155208579N01239891EA0001000072000000
B0728195208579N01239891EA0001000072000000
B0728235208579N01239891EA0001000072000000
B0728275208579N01239891EA0001000072000000
B0728315208579N01239891EA0001000072000000
B0728355208579N01239891EA0001000072000000
B0728395208579N01239891EA0001000072000000
B0728435208579N01239891EA0001000072000000
B0728475208579N01239891EA0001000072000000
B0728515208579N01239891EA0001000072000000
B0728555208579N01239891EA0001000072000000
B0728595208579N01239891EA0001000072000000
B0729035208579N01239891EA0001000072000000
B0729075208579N01239891EA0001000072000000
B0729115208579N01239891EA0001000072000000
B0729155208579N01239891EA0001000072000000
B0729195208579N01239891EA0001000072000000
B0729235208579N01239891EA0001000072000000
B0729275208579N01239891EA0001000072000000
B0729315208579N01239891EA0001000072000000
B0729355208579N01239891EA0001000072000000
B0729395208579N01239891EA0001000072000000
B0729435208579N01239891EA0001000072000000
B0729475208579N01239891EA0001000072000000
B0729515208579N01239891EA0001000072000000
B0729555208579N01239891EA0001000072000000
B0729595208579N01239891EA0001000072000000
B0730035208579N01239891EA0001000072000000
B0730075208579N01239891EA0001000072000000
B0730115208579N01239891EA0001000072000000
B0730155208579N01239891EA0001000072000000
B0730195208579N01239891EA0001000072000000
B0730235208579N01239891EA0001000072000000
B0730275208579N01239891EA0001000072000000
B0730315208579N01239891EA0001000072000000
B0730355208579N01239891EA0001000072000000
B0730395208579N01239891EA0001000072000000
B0730435208579N01239891EA0001000072000000
B0730475208579N01239891EA0001000072000000
B0730515208579N01239891EA0001000072000000
B0730555208579N01239891EA0001000072000000
B0730595208579N01239891EA0001000072000000
B0731035208579N01239891EA0001000072000000
B0731075208579N01239891EA0001000072000000
B0731115208579N01239891EA0001000072000000
B0731155208579N01239891EA0001000072000000
B0731195208579N01239891EA0001000072000000
B0731235208579N01239891EA0001000072000000
B0731275208579N01239891EA0001000072000000
B0731315208579N01239891EA0001000072000000
B0731355208579N01239891EA0001000072000000
B0731395208579N01239891EA0001000072000000
B0731435208579N01239891EA0001000072000000
B0731475208579N01239891EA0001000072000000
B0731515208579N01239891EA0001000072000000
B0731555208579N01239891EA0001000072000000
B0731595208579N01239891EA0001000072000000
B0732035208579N01239891EA0001000072000000
B0732075208579N01239891EA0001000072000000
B0732115208579N01239891EA0001000072000000
B0732155208579N01239891EA0001000072000000
B0732195208579N01239891EA0001000072000000
B0732235208579N01239891EA0001000072000000
B0732275208579N01239891EA0001000072000000
B0732315208579N01239891EA0001000072000000
B0732355208579N01239891EA0001000072000000
B0732395208579N01239891EA0001000072000000
B0732435208579N01239891EA0001000072000000
B0732475208579N01239891EA0001000072000000
B0732515208579N01239891EA0001000072000000
B0732555208579N01239891EA0001000072000000
B0732595208579N01239891EA0001000072000000
B0733035208579N01239891EA0001000072000000
B0733075208579N01239891EA0001000072000000
B0733115208579N01239891EA0001000072000000
B0733155208579N01239891EA0001000072000000
B0733195208579N01239891EA0001000072000000
B0733235208579N01239891EA0001000072000000
B0733275208579N01239891EA0001000072000000
B0733315208579N01239891EA0001000072000000
B0733355208579N01239891EA0001000072000000
B0733395208579N01239891EA0001000072000000
B0733435208579N01239891EA0001000072000000
B0733475208579N01239891EA0001000072000000
B0733515208579N01239891EA0001000072000000
B0733555208579N01239891EA0001000072000000
B0733595208579N01239891EA0001000072000000
B0734035208579N01239891EA0001000072000000
B0734075208579N01239891EA0001000072000000
B0734115208579N01239891EA0001000072000000
B0734155208579N01239895EA0001000072000000
B0734195208579N01239891EA0001000072000000
B0734235208579N01239891EA0001000072000000
B0734275208579N01239891EA0001000072000000
B0734315208579N01239891EA0001000072000000
B0734355208579N01239891EA0001000072000000
B0734395208579N01239891EA0001000072000000
B0734435208579N01239891EA0001000072000000
B0734475208579N01239891EA0001000072000000
B0734515208579N01239891EA0001000072000000
B0734555208579N01239891EA0001000072000000
B0734595208579N01239891EA0001000072000000
B0735035208579N01239891EA0001000072000000
B0735075208579N01239891EA0001000072000000
B0735115208579N01239891EA0001000072000000
B0735155208579N01239891EA0001000072000000
B0735195208579N01239891EA0001000072000000
B0735235208579N01239891EA0001000072000000
B0735275208583N01239891EA0001000072000000
B0735315208583N01239891EA0001000072000000
B0735355208587N01239895EA0001000072000016
B0735395208591N01239900EA0001000072000008
B0735435208595N01239904EA0001000072000016
B0735475208595N01239912EA0001000072000016
B0735515208600N01239916EA0001000072000036
B0735555208600N01239920EA0001000072000024
B0735595208604N01239925EA0001000072000000
B0736035208604N01239929EA0001000072000016
B0736075208604N01239937EA0001000072000012
B0736115208608N01239941EA0001000072000008
B0736155208604N01239945EA0001000072000012
B0736195208604N01239950EA0001000072000012
B0736235208600N01239950EA0001000072000012
B0736275208600N01239954EA0001000072000012
B0736315208595N01239958EA0001000072000024
B0736355208591N01239958EA0001000072000016
B0736395208587N01239962EA0001000072000016
B0736435208587N01239966EA0001000072000020
B0736475208583N01239970EA0001000072000020
B0736515208579N01239975EA0001000072000016
B0736555208579N01239979EA0001000072000020
B0736595208575N01239987EA0001000072000020
B0737035208575N01239995EA0001000072000016
B0737075208575N01240000EA0001000072000016
B0737115208575N01240008EA0001000072000040
B0737155208575N01240016EA0001000072000028
B0737195208579N01240025EA0001000072000048
B0737235208583N01240033EA0001000072000044
B0737275208583N01240045EA0001000072000052
B0737315208587N01240054EA0001000072000048
B0737355208591N01240062EA0001000072000072
B0737395208591N01240070EA0001000072000064
B0737435208595N01240079EA0001000072000052
B0737475208595N01240087EA0001000072000064
B0737515208600N01240095EA0001000072000056
B0737555208600N01240104EA0001000072000056
B0737595208604N01240112EA0001000072000068
B0738035208604N01240120EA0001000072000064
B0738075208608N01240129EA0001000072000048
B0738115208608N01240137EA0001000072000056
B0738155208612N01240145EA0001000072000052
B0738195208612N01240154EA0001000072000048
B0738235208612N01240162EA0001000072000032
B0738275208612N01240170EA0001000072000040
B0738315208612N01240179EA0001000072000028
B0738355208612N01240187EA0001000072000032
B0738395208612N01240191EA0001000072000044
B0738435208612N01240200EA0001000072000036
B0738475208612N01240208EA0001000072000044
B0738515208612N01240216EA0001000072000044
B0738555208612N01240220EA0001000072000040
B0738595208612N01240229EA0001000072000040
B0739035208612N01240237EA0001000072000028
B0739075208612N01240245EA0001000072000032
B0739115208612N01240250EA0001000072000028
B0739155208612N01240258EA0001000072000028
B0739195208608N01240266EA0001000072000040
B0739235208608N01240270EA0001000064000032
B0739275208608N01240279EA0001000064000036
B0739315208608N01240287EA0001000064000040
B0739355208604N01240295EA0001000064000056
B0739395208604N01240300EA0001000064000048
B0739435208604N01240308EA0001000064000032
B0739475208600N01240316EA0001000064000044
B0739515208600N01240325EA0001000064000076
B0739555208600N01240333EA0001000064000056
B0739595208595N01240341EA0001000064000040
B0740035208595N01240345EA0001000064000056
B0740075208595N01240354EA0001000064000024
B0740115208595N01240362EA0001000064000032
B0740155208591N01240370EA0001000064000028
B0740195208591N01240379EA0001000064000024
B0740235208591N01240387EA0001000064000024
B0740275208587N01240395EA0001000064000024
B0740315208587N01240404EA0001000064000028
B0740355208587N01240412EA0001000064000024
B0740395208587N01240420EA0000900064000024
B0740435208587N01240425EA0000900064000024
B0740475208587N01240433EA0000900064000016
B0740515208591N01240441EA0000900064000020
B0740555208591N01240450EA0000900064000028
B0740595208591N01240458EA0000900064000024
B0741035208591N01240466EA0000900064000036
B0741075208591N01240475EA0000900064000032
B0741115208591N01240483EA0000900064000024
B0741155208591N01240491EA0000900064000032
B0741195208595N01240495EA0000900064000028
B0741235208595N01240504EA0000900064000024
B0741275208595N01240512EA0000900064000028
B0741315208595N01240520EA0000900064000028
B0741355208595N01240529EA0000900064000040
B0741395208595N01240537EA0000900064000032
B0741435208600N01240545EA0000900064000016
B0741475208600N01240554EA0000900064000028
B0741515208600N01240558EA0000900064000028
B0741555208604N01240566EA0000900064000024
B0741595208604N01240575EA0000900064000024
B0742035208608N01240583EA0000900064000024
B0742075208608N01240591EA0000900064000028
B0742115208608N01240595EA0000900064000024
B0742155208612N01240604EA0000900064000028
B0742195208612N01240612EA0000900064000028
B0742235208612N01240620EA0000900064000028
B0742275208616N01240629EA0000900064000028
B0742315208616N01240637EA0000900064000024
B0742355208616N01240645EA0000900064000024
B0742395208616N01240654EA0000900064000024
B0742435208616N01240662EA0000900064000024
B0742475208616N01240670EA0000900064000024
B0742515208612N01240675EA0000900064000024
B0742555208612N01240679EA0000900064000024
B0742595208608N01240683EA0000900064000024
B0743035208608N01240687EA0000900064000000
B0743075208612N01240691EA0000900064000012
B0743115208612N01240691EA0000900064000004
B0743155208612N01240687EA0000900064000000
B0743195208608N01240687EA0000900064000000
B0743235208608N01240687EA0000900064000000
B0743275208608N01240687EA0000900064000000
B0743315208608N01240687EA0000900064000000
B0743355208608N01240687EA0000900064000000
B0743395208608N01240687EA0000900064000000
B0743435208608N01240687EA0000800064000000
B0743475208608N01240687EA0000800064000000
B0743515208608N01240687EA0000800064000000
B0743555208608N01240687EA0000800064000000
B0743595208608N01240687EA0000800064000000
B0744035208608N01240687EA0000800064000000
B0744075208608N01240687EA0000800064000000
B0744115208608N01240687EA0000800064000000
B0744155208608N01240687EA0000800064000000
B0744195208608N01240687EA0000800064000000
B0744235208608N01240687EA0000800064000000
B0744275208608N01240687EA0000800064000000
B0744315208608N01240687EA0000800064000000
B0744355208608N01240687EA0000800064000000
B0744395208608N01240687EA0000800064000000
B0744435208608N01240687EA0000800064000000
B0744475208608N01240687EA0000800064000000
B0744515208608N01240687EA0000800064000000
B0744555208608N01240687EA0000800064000000
B0744595208608N01240687EA0000800064000000
B0745035208608N01240687EA0000800064000000
B0745075208608N01240687EA0000800064000000
B0745115208608N01240687EA0000800064000000
B0745155208608N01240687EA0000800064000000
B0745195208608N01240687EA0000800064000000
B0745235208608N01240687EA0000800064000000
B0745275208608N01240687EA0000800064000000
B0745315208608N01240687EA0000800064000000
B0745355208608N01240687EA0000800064000000
B0745395208608N01240687EA0000800064000000
B0745435208608N01240687EA0000800064000000
B0745475208608N01240687EA0000800064000000
B0745515208608N01240687EA0000800064000000
B0745555208608N01240687EA0000800064000000
B0745595208608N01240687EA0000800064000000
B0746035208608N01240687EA0000800064000000
B0746075208608N01240687EA0000800064000000
B0746115208608N01240687EA0000800064000000
B0746155208608N01240687EA0000800064000000
B0746195208608N01240687EA0000800064000000
B0746235208608N01240687EA0000800064000000
B0746275208608N01240687EA0000800064000000
B0746315208608N01240687EA0000800064000000
B0746355208608N01240687EA0000800064000000
B0746395208608N01240687EA0000800064000000
B0746435208608N01240687EA0000800064000000
B0746475208608N01240687EA0000800064000000
B0746515208608N01240687EA0000800064000000
B0746555208608N01240687EA0000800064000000
B0746595208608N01240687EA0000800064000000
B0747035208608N01240687EA0000800064000000
B0747075208608N01240687EA0000800064000000
B0747115208608N01240687EA0000800064000000
B0747155208608N01240687EA0000800064000000
B0747195208608N01240687EA0000800064000000
B0747235208608N01240687EA0000800064000000
B0747275208608N01240687EA0000800064000000
B0747315208608N01240687EA0000800064000000
B0747355208608N01240687EA0000800064000000
B0747395208608N01240687EA0000800064000000
B0747435208608N01240687EA0000800064000000
B0747475208608N01240687EA0000800064000000
B0747515208608N01240687EA0000800064000000
B0747555208608N01240687EA0000800064000000
B0747595208608N01240687EA0000800064000000
B0748035208608N01240687EA0000800064000000
B0748075208608N01240687EA0000800064000000
B0748115208608N01240687EA0000800064000000
B0748155208608N01240687EA0000800064000000
B0748195208608N01240687EA0000800064000000
B0748235208608N01240687EA0000800064000000
B0748275208608N01240687EA0000800064000000
B0748315208608N01240687EA0000800064000000
B0748355208608N01240687EA0000800064000000
B0748395208608N01240687EA0000800064000000
B0748435208608N01240687EA0000800064000000
B0748475208608N01240687EA0000800064000000
B0748515208608N01240687EA0000800064000000
B0748555208608N01240687EA0000800064000000
B0748595208608N01240687EA0000800064000000
B0749035208608N01240687EA0000800064000000
B0749075208608N01240687EA0000800064000000
B0749115208608N01240687EA0000800064000000
B0749155208608N01240687EA0000800064000000
B0749195208608N01240687EA0000800064000000
B0749235208608N01240687EA0000800064000000
B0749275208608N01240687EA0000800064000000
B0749315208608N01240687EA0000800064000000
B0749355208608N01240687EA0000800064000000
B0749395208608N01240687EA0000800064000000
B0749435208608N01240687EA0000800064000000
B0749475208608N01240687EA0000800064000000
B0749515208608N01240687EA0000800064000000
B0749555208608N01240687EA0000800064000000
B0749595208608N01240687EA0000800064000000
B0750035208608N01240687EA0000800064000000
B0750075208608N01240687EA0000800064000000
B0750115208608N01240687EA0000800064000000
B0750155208608N01240687EA0000800064000000
B0750195208608N01240687EA0000800064000000
B0750235208608N01240687EA0000800064000000
B0750275208608N01240687EA0000800064000000
B0750315208608N01240687EA0000800064000000
B0750355208608N01240687EA0000800064000000
B0750395208608N01240687EA0000800064000000
B0750435208608N01240687EA0000800064000000
B0750475208608N01240687EA0000800064000000
B0750515208608N01240687EA0000800064000000
B0750555208608N01240687EA0000800064000000
B0750595208608N01240687EA0000800064000000
B0751035208608N01240687EA0000800064000000
B0751075208608N01240687EA0000800064000000
B0751115208608N01240687EA0000800064000000
B0751155208608N01240687EA0000800064000000
B0751195208608N01240687EA0000800064000000
B0751235208608N01240687EA0000800064000000
B0751275208608N01240691EA0000800064000000
B0751315208608N01240691EA0000800056000000
B0751355208608N01240691EA0000800056000000
B0751395208608N01240691EA0000800056000000
B0751435208608N01240691EA0000800056000000
B0751475208608N01240691EA0000800056000000
B0751515208608N01240691EA0000800056000000
B0751555208608N01240687EA0000800056000000
B0751595208608N01240687EA0000800056000000
B0752035208608N01240687EA0000800056000000
B0752075208608N01240687EA0000800056000000
B0752115208608N01240687EA0000800056000000
B0752155208608N01240687EA0000800056000000
B0752195208608N01240687EA0000800064000000
B0752235208608N01240687EA0000800064000000
B0752275208608N01240687EA0000800064000000
B0752315208608N01240687EA0000800064000000
B0752355208608N01240687EA0000800064000000
B0752395208608N01240687EA0000800064000000
B0752435208608N01240687EA0000800064000000
B0752475208608N01240687EA0000800064000000
B0752515208608N01240687EA0000800064000000
B0752555208608N01240687EA0000800064000000
B0752595208608N01240687EA0000800064000000
B0753035208608N01240687EA0000800064000000
B0753075208608N01240687EA0000800064000000
B0753115208608N01240687EA0000800064000000
B0753155208608N01240687EA0000800064000000
B0753195208608N01240687EA0000800064000000
B0753235208608N01240687EA0000800064000000
B0753275208608N01240687EA0000800064000000
B0753315208608N01240687EA0000800064000000
B0753355208608N01240687EA0000800064000000
B0753395208608N01240687EA0000800064000000
B0753435208608N01240687EA0000800064000000
B0753475208608N01240687EA0000800064000000
B0753515208608N01240687EA0000800064000000
B0753555208608N01240687EA0000800064000000
B0753595208608N01240687EA0000800064000000
B0754035208608N01240687EA0000800064000000
B0754075208608N01240687EA0000800064000000
B0754115208608N01240687EA0000800064000000
B0754155208608N01240687EA0000800064000000
B0754195208608N01240687EA0000800064000000
B0754235208608N01240687EA0000800064000000
B0754275208608N01240687EA0000800064000000
B0754315208608N01240687EA0000800064000000
B0754355208608N01240687EA0000800064000000
B0754395208608N01240687EA0000800064000000
B0754435208608N01240687EA0000800064000000
B0754475208608N01240687EA0000800064000000
B0754515208608N01240687EA0000800064000000
B0754555208608N01240687EA0000800064000000
B0754595208608N01240687EA0000800064000000
B0755035208608N01240687EA0000800064000000
B0755075208608N01240687EA0000800064000000
B0755115208608N01240687EA0000800064000000
B0755155208608N01240687EA0000800064000000
B0755195208608N01240687EA0000800064000000
B0755235208608N01240687EA0000800064000000
B0755275208608N01240687EA0000800064000000
B0755315208608N01240687EA0000800064000000
B0755355208608N01240687EA0000800064000000
B0755395208608N01240687EA0000800064000000
B0755435208608N01240687EA0000800064000000
B0755475208608N01240687EA0000800064000000
B0755515208608N01240687EA0000800064000000
B0755555208608N01240687EA0000800064000000
B0755595208608N01240687EA0000800064000000
B0756035208608N01240687EA0000800064000000
B0756075208608N01240687EA0000800064000000
B0756115208608N01240687EA0000800064000000
B0756155208608N01240687EA0000800064000000
B0756195208608N01240687EA0000800064000000
B0756235208608N01240687EA0000800064000000
B0756275208608N01240687EA0000800064000000
B0756315208608N01240687EA0000800064000000
B0756355208608N01240687EA0000800064000000
B0756395208608N01240687EA0000800064000000
B0756435208608N01240687EA0000800064000000
B0756475208608N01240687EA0000800064000000
B0756515208608N01240687EA0000800064000000
B0756555208608N01240687EA0000800064000000
B0756595208608N01240687EA0000800064000000
B0757035208608N01240687EA0000800064000000
B0757075208608N01240687EA0000800064000000
B0757115208608N01240687EA0000800064000000
B0757155208608N01240687EA0000800064000000
B0757195208608N01240687EA0000800064000000
B0757235208608N01240687EA0000800064000000
B0757275208608N01240687EA0000800064000000
B0757315208608N01240687EA0000800064000000
B0757355208608N01240687EA0000800064000000
B0757395208608N01240687EA0000800064000000
B0757435208608N01240687EA0000800064000000
B0757475208608N01240687EA0000800064000000
B0757515208608N01240687EA0000800064000000
B0757555208608N01240687EA0000800064000000
B0757595208608N01240687EA0000800064000000
B0758035208608N01240687EA0000800064000000
B0758075208608N01240687EA0000800064000000
B0758115208608N01240687EA0000800064000000
B0758155208608N01240687EA0000800064000000
B0758195208608N01240687EA0000800064000000
B0758235208608N01240687EA0000800064000000
B0758275208608N01240687EA0000800064000000
B0758315208608N01240687EA0000800064000000
B0758355208608N01240687EA0000800064000000
B0758395208608N01240687EA0000800064000000
B0758435208608N01240687EA0000800064000000
B0758475208608N01240687EA0000800064000000
B0758515208608N01240687EA0000800064000000
B0758555208608N01240687EA0000800064000000
B0758595208608N01240687EA0000800064000000
B0759035208608N01240687EA0000800064000000
B0759075208608N01240687EA0000800064000000
B0759115208608N01240687EA0000800064000000
B0759155208608N01240687EA0000800064000000
B0759195208608N01240687EA0000800064000000
B0759235208608N01240687EA0000800064000000
B0759275208608N01240687EA0000800064000000
B0759315208608N01240687EA0000800064000000
B0759355208608N01240687EA0000800064000000
B0759395208608N01240687EA0000800064000000
B0759435208608N01240687EA0000800064000000
B0759475208608N01240687EA0000800064000000
B0759515208608N01240687EA0000800064000000
B0759555208608N01240687EA0000800064000000
B0759595208608N01240687EA0000800064000000
B0800035208608N01240687EA0000800064000000
B0800075208608N01240687EA0000800064000000
B0800115208608N01240687EA0000800064000000
B0800155208608N01240687EA0000800064000000
B0800195208608N01240687EA0000800064000000
B0800235208608N01240687EA0000800064000000
B0800275208608N01240687EA0000800064000000
B0800315208608N01240687EA0000800064000000
B0800355208608N01240687EA0000900064000000
B0800395208608N01240687EA0000900064000000
B0800435208608N01240687EA0000900064000000
B0800475208608N01240687EA0000900064000000
B0800515208608N01240687EA0000900064000000
B0800555208608N01240687EA0000900064000000
B0800595208608N01240687EA0000900064000000
B0801035208608N01240687EA0000900064000000
B0801075208608N01240687EA0000900064000000
B0801115208608N01240687EA0000900064000000
B0801155208608N01240687EA0000900064000000
B0801195208608N01240687EA0000900064000000
B0801235208608N01240687EA0000900064000000
B0801275208608N01240687EA0000900064000000
B0801315208608N01240687EA0000900064000000
B0801355208608N01240687EA0000900064000000
B0801395208608N01240687EA0000900064000000
B0801435208608N01240687EA0000900064000000
B0801475208608N01240687EA0000900064000000
B0801515208608N01240687EA0000900064000000
B0801555208608N01240687EA0000900064000000
B0801595208608N01240687EA0000900064000000
B0802035208608N01240687EA0000900064000000
B0802075208608N01240687EA0000900064000000
B0802115208608N01240687EA0000900064000000
B0802155208608N01240687EA0000900064000000
B0802195208608N01240687EA0000900064000000
B0802235208608N01240687EA0000900064000000
B0802275208608N01240687EA0000900064000000
B0802315208608N01240687EA0000900064000000
B0802355208608N01240687EA0000900064000000
B0802395208608N01240687EA0000900064000000
B0802435208608N01240687EA0001000064000000
B0802475208608N01240687EA0001000064000000
B0802515208608N01240687EA0001000064000000
B0802555208608N01240687EA0001000064000000
B0802595208608N01240687EA0001000064000000
B0803035208608N01240687EA0001000064000000
B0803075208608N01240687EA0001000064000000
B0803115208608N01240687EA0001000064000000
B0803155208608N01240687EA0001000064000000
B0803195208608N01240687EA0001000064000000
B0803235208608N01240687EA0001000064000000
B0803275208608N01240687EA0001000064000000
B0803315208608N01240687EA0001000064000000
B0803355208608N01240687EA0001000064000000
B0803395208608N01240687EA0001000064000000
B0803435208608N01240687EA0001000064000000
B0803475208608N01240687EA0001000064000000
B0803515208608N01240687EA0001000064000000
B0803555208608N01240687EA0001000064000000
B0803595208608N01240687EA0001000064000000
B0804035208608N01240687EA0001000064000000
B0804075208608N01240687EA0001000064000000
B0804115208608N01240687EA0001000064000000
B0804155208608N01240687EA0001000064000000
B0804195208608N01240687EA0001000064000000
B0804235208608N01240687EA0001000064000000
B0804275208608N01240687EA0001000064000000
B0804315208608N01240687EA0001000064000000
B0804355208608N01240687EA0001000064000000
B0804395208608N01240687EA0001000064000000
B0804435208608N01240687EA0001000064000000
B0804475208608N01240687EA0001000064000000
B0804515208608N01240687EA0001000064000000
B0804555208608N01240687EA0001000064000000
B0804595208608N01240687EA0001000064000000
B0805035208608N01240687EA0001000064000000
B0805075208608N01240687EA0001000064000000
B0805115208608N01240687EA0001000064000000
B0805155208608N01240687EA0001000064000000
B0805195208608N01240687EA0001000064000000
B0805235208608N01240687EA0001000064000000
B0805275208608N01240687EA0001000064000000
B0805315208608N01240687EA0001000064000000
B0805355208608N01240687EA0001000064000000
B0805395208608N01240687EA0001000064000000
B0805435208608N01240687EA0001000064000000
B0805475208608N01240687EA0001000064000000
B0805515208608N01240687EA0001000064000000
B0805555208608N01240687EA0001000064000000
B0805595208608N01240687EA0001000064000000
B0806035208608N01240687EA0001000064000000
B0806075208608N01240687EA0001000064000000
B0806115208608N01240687EA0001000064000000
B0806155208608N01240687EA0001000064000000
B0806195208608N01240687EA0001000064000000
B0806235208608N01240687EA0001000064000000
B0806275208608N01240687EA0001000064000000
B0806315208608N01240687EA0001000064000000
B0806355208608N01240687EA0001000064000000
B0806395208608N01240687EA0001000064000000
B0806435208608N01240687EA0001000064000000
B0806475208608N01240687EA0001000064000000
B0806515208608N01240687EA0001000064000000
B0806555208608N01240687EA0001000064000000
B0806595208608N01240687EA0001000064000000
B0807035208608N01240687EA0001000064000000
B0807075208608N01240687EA0001000064000000
B0807115208608N01240687EA0001000064000000
B0807155208608N01240687EA0001000064000000
B0807195208608N01240687EA0001000064000000
B0807235208608N01240687EA0001000064000000
B0807275208608N01240687EA0001000064000000
B0807315208608N01240687EA0001000064000000
B0807355208608N01240687EA0001000064000000
B0807395208608N01240687EA0001000064000000
B0807435208608N01240687EA0001000064000000
B0807475208608N01240687EA0001000064000000
B0807515208608N01240687EA0001000064000000
B0807555208608N01240687EA0001000064000000
B0807595208608N01240687EA0001000064000000
B0808035208608N01240687EA0001000064000000
B0808075208608N01240687EA0001000064000000
B0808115208608N01240687EA0001000064000000
B0808155208608N01240687EA0001000064000000
B0808195208608N01240687EA0001000064000000
B0808235208608N01240687EA0001000064000000
B0808275208608N01240687EA0001000064000000
B0808315208608N01240687EA0001000064000000
B0808355208612N01240687EA0001000064000000
B0808395208608N01240687EA0001000064000000
B0808435208608N01240687EA0001000064000000
B0808475208608N01240687EA0001000064000000
B0808515208612N01240687EA0001000064000000
B0808555208612N01240687EA0001000064000000
B0808595208612N01240687EA0001000064000000
B0809035208612N01240687EA0001000064000000
B0809075208612N01240687EA0001000064000000
B0809115208612N01240687EA0001000064000000
B0809155208612N01240687EA0001000064000000
B0809195208612N01240687EA0001000064000000
B0809235208612N01240687EA0001000064000000
B0809275208608N01240687EA0001000064000000
B0809315208608N01240687EA0001000064000000
B0809355208608N01240687EA0001000064000000
B0809395208608N01240687EA0001000064000000
B0809435208608N01240687EA0001000064000000
B0809475208608N01240687EA0001000064000000
B0809515208608N01240687EA0001000064000000
B0809555208608N01240687EA0001000064000000
B0809595208608N01240687EA0001000064000000
B0810035208608N01240687EA0001000064000000
B0810075208608N01240687EA0001000064000000
B0810115208608N01240687EA0001000064000000
B0810155208608N01240687EA0001000064000000
B0810195208608N01240687EA0001000064000000
B0810235208608N01240687EA0001000064000000
B0810275208608N01240687EA0001000064000000
B0810315208608N01240687EA0001000064000000
B0810355208608N01240687EA0001000064000000
B0810395208608N01240687EA0001000064000000
B0810435208608N01240687EA0001000064000000
B0810475208608N01240687EA0001000064000000
B0810515208608N01240687EA0001000064000000
B0810555208608N01240687EA0001000064000000
B0810595208608N01240687EA0001000064000000
B0811035208608N01240687EA0001000064000000
B0811075208608N01240687EA0001000064000000
B0811115208608N01240687EA0001000064000000
B0811155208608N01240687EA0001000064000000
B0811195208608N01240687EA0001000064000000
B0811235208608N01240687EA0001000064000000
B0811275208608N01240687EA0001000064000000
B0811315208608N01240687EA0001000064000000
B0811355208608N01240687EA0001000064000000
B0811395208608N01240687EA0001000064000000
B0811435208608N01240687EA0001000064000000
B0811475208608N01240687EA0001000064000000
B0811515208608N01240687EA0001000064000000
B0811555208608N01240687EA0001000064000000
B0811595208608N01240687EA0001000064000000
B0812035208608N01240687EA0001000064000000
B0812075208608N01240687EA0001000064000000
B0812115208608N01240687EA0001000064000000
B0812155208608N01240687EA0001000064000000
B0812195208608N01240687EA0001000064000000
B0812235208608N01240687EA0001000064000000
B0812275208608N01240687EA0001000064000000
B0812315208608N01240687EA0001000064000000
B0812355208608N01240687EA0001000064000000
B0812395208608N01240687EA0001000064000000
B0812435208608N01240687EA0001000064000000
B0812475208608N01240687EA0001000064000000
B0812515208608N01240687EA0001000064000000
B0812555208608N01240687EA0001000064000000
B0812595208608N01240687EA0001000064000000
B0813035208608N01240687EA0001000064000000
B0813075208608N01240687EA0001200064000000
B0813115208608N01240687EA0001200064000000
B0813155208608N01240687EA0001200064000000
B0813195208608N01240687EA0001200064000000
B0813235208608N01240687EA0001200064000000
B0813275208608N01240687EA0001200064000000
B0813315208608N01240687EA0001200064000000
B0813355208608N01240687EA0001200064000000
B0813395208608N01240687EA0001200064000000
B0813435208608N01240687EA0001200064000000
B0813475208608N01240687EA0001200064000000
B0813515208608N01240687EA0001200064000000
B0813555208608N01240687EA0001200064000000
B0813595208608N01240687EA0001200064000000
B0814035208608N01240687EA0001200064000000
B0814075208608N01240687EA0001200064000000
B0814115208608N01240687EA0001200064000000
B0814155208608N01240687EA0001200064000000
B0814195208608N01240687EA0001200064000000
B0814235208608N01240687EA0001200064000000
B0814275208608N01240687EA0001200064000000
B0814315208608N01240687EA0001200064000000
B0814355208608N01240687EA0001200064000000
B0814395208608N01240687EA0001200064000000
B0814435208608N01240687EA0001200064000000
B0814475208608N01240687EA0001200064000000
B0814515208608N01240687EA0001200064000000
B0814555208608N01240687EA0001200064000000
B0814595208608N01240687EA0001200064000000
B0815035208608N01240687EA0001200064000000
B0815075208608N01240687EA0001200064000000
B0815115208608N01240687EA0001200064000000
B0815155208608N01240687EA0001200064000000
B0815195208608N01240687EA0001200064000000
B0815235208608N01240687EA0001200064000000
B0815275208608N01240687EA0001200064000000
B0815315208608N01240687EA0001200064000000
B0815355208608N01240687EA0001200064000000
B0815395208608N01240687EA0001200064000000
B0815435208608N01240687EA0001200064000000
B0815475208608N01240687EA0001200064000000
B0815515208608N01240687EA0001200064000000
B0815555208608N01240687EA0001200064000000
B0815595208608N01240687EA0001200064000000
B0816035208608N01240687EA0001200064000000
B0816075208608N01240687EA0001200064000000
B0816115208608N01240687EA0001200064000000
B0816155208608N01240687EA0001200064000000
B0816195208608N01240687EA0001200064000000
B0816235208608N01240687EA0001200064000000
B0816275208608N01240687EA0001200064000000
B0816315208608N01240687EA0001200064000000
B0816355208608N01240687EA0001200064000000
B0816395208608N01240687EA0001200064000000
B0816435208608N01240687EA0001200064000000
B0816475208608N01240687EA0001200064000000
B0816515208608N01240687EA0001200064000000
B0816555208608N01240687EA0001200064000000
B0816595208608N01240687EA0001200064000000
B0817035208608N01240687EA0001200064000000
B0817075208608N01240687EA0001200064000000
B0817115208608N01240687EA0001200064000000
B0817155208608N01240687EA0001200064000000
B0817195208608N01240687EA0001200064000000
B0817235208608N01240687EA0001200064000000
B0817275208608N01240687EA0001200064000000
B0817315208608N01240687EA0001200064000000
B0817355208608N01240687EA0001200064000000
B0817395208608N01240687EA0001200064000000
B0817435208608N01240687EA0001200064000000
B0817475208608N01240687EA0001200064000000
B0817515208608N01240687EA0001200064000000
B0817555208608N01240687EA0001200064000000
B0817595208608N01240687EA0001200064000000
B0818035208608N01240687EA0001200064000000
B0818075208608N01240687EA0001200064000000
B0818115208608N01240687EA0001200064000000
B0818155208608N01240687EA0001200064000000
B0818195208608N01240687EA0001200064000000
B0818235208608N01240687EA0001200064000000
B0818275208608N01240687EA0001200064000000
B0818315208608N01240687EA0001200064000000
B0818355208608N01240687EA0001200064000000
B0818395208608N01240687EA0001200064000000
B0818435208608N01240687EA0001200064000000
B0818475208608N01240687EA0001200064000000
B0818515208608N01240687EA0001200064000000
B0818555208608N01240687EA0001200064000000
B0818595208608N01240687EA0001200064000000
B0819035208608N01240687EA0001200064000000
B0819075208608N01240687EA0001200064000000
B0819115208608N01240687EA0001000064000000
B0819155208608N01240687EA0001000064000000
B0819195208608N01240687EA0001000064000000
B0819235208608N01240687EA0001000064000000
B0819275208608N01240687EA0001000064000000
B0819315208608N01240687EA0001000064000000
B0819355208608N01240687EA0001000064000000
B0819395208608N01240687EA0001000064000000
B0819435208608N01240687EA0001000064000000
B0819475208608N01240687EA0001000064000000
B0819515208608N01240687EA0001000064000000
B0819555208608N01240687EA0001000064000000
B0819595208608N01240687EA0001000064000000
B0820035208608N01240687EA0001000064000000
B0820075208608N01240687EA0001000064000000
B0820115208608N01240687EA0001000064000000
B0820155208608N01240687EA0001000064000000
B0820195208608N01240687EA0001000064000000
B0820235208608N01240687EA0001000064000000
B0820275208608N01240687EA0001000064000000
B0820315208608N01240687EA0001000064000000
B0820355208608N01240687EA0001000064000000
B0820395208608N01240687EA0001000064000000
B0820435208608N01240687EA0001000064000000
B0820475208608N01240687EA0001000064000000
B0820515208608N01240687EA0001000064000000
B0820555208608N01240687EA0001000064000000
B0820595208608N01240687EA0001000064000000
B0821035208608N01240687EA0001000064000000
B0821075208608N01240687EA0001000064000000
B0821115208608N01240687EA0001000064000000
B0821155208608N01240687EA0001000064000000
B0821195208608N01240687EA0001000064000000
B0821235208608N01240687EA0001000064000000
B0821275208608N01240687EA0001000064000000
B0821315208608N01240687EA0001000064000000
B0821355208608N01240687EA0001000064000000
B0821395208608N01240687EA0001000064000000
B0821435208608N01240687EA0001000064000000
B0821475208608N01240687EA0001000064000000
B0821515208608N01240687EA0001000064000000
B0821555208608N01240687EA0001000064000000
B0821595208608N01240687EA0001000064000000
B0822035208608N01240687EA0001000064000000
B0822075208608N01240687EA0001000064000000
B0822115208608N01240687EA0001000064000000
B0822155208608N01240687EA0001000064000000
B0822195208608N01240687EA0001000064000000
B0822235208608N01240687EA0001000064000000
B0822275208608N01240687EA0001000064000000
B0822315208608N01240687EA0001000064000000
B0822355208608N01240687EA0001000064000000
B0822395208608N01240687EA0001000064000000
B0822435208608N01240687EA0001000064000000
B0822475208608N01240687EA0001000064000000
B0822515208608N01240687EA0001000064000000
B0822555208608N01240687EA0001000064000000
B0822595208608N01240687EA0001000064000000
B0823035208608N01240687EA0001000064000000
B0823075208608N01240687EA0001000064000000
B0823115208608N01240687EA0001000064000000
B0823155208608N01240687EA0001000064000000
B0823195208608N01240687EA0001000064000000
B0823235208608N01240687EA0001000064000000
B0823275208608N01240687EA0001000064000000
B0823315208608N01240687EA0001000064000000
B0823355208608N01240687EA0001000064000000
B0823395208608N01240687EA0001000064000000
B0823435208608N01240687EA0001000064000000
B0823475208608N01240687EA0001000064000000
B0823515208608N01240687EA0001000064000000
B0823555208608N01240687EA0001000064000000
B0823595208608N01240687EA0001000064000000
B0824035208608N01240687EA0001000064000000
B0824075208608N01240687EA0001000064000000
B0824115208608N01240687EA0001000064000000
B0824155208608N01240687EA0001000064000000
B0824195208608N01240687EA0001000064000000
B0824235208608N01240687EA0001000064000000
B0824275208608N01240687EA0001000064000000
B0824315208608N01240687EA0001000064000000
B0824355208608N01240687EA0001000064000000
B0824395208608N01240687EA0001000064000000
B0824435208608N01240687EA0001000064000000
B0824475208608N01240687EA0001000064000000
B0824515208608N01240687EA0001000064000000
B0824555208608N01240687EA0001000064000000
B0824595208608N01240687EA0001000064000000
B0825035208608N01240687EA0001000064000000
B0825075208608N01240687EA0001000064000000
B0825115208608N01240687EA0001000064000000
B0825155208608N01240687EA0001000064000000
B0825195208608N01240687EA0001000064000000
B0825235208608N01240687EA0001000064000000
B0825275208608N01240687EA0001000064000000
B0825315208608N01240687EA0001000064000000
B0825355208608N01240687EA0001000064000000
B0825395208608N01240687EA0001000064000000
B0825435208608N01240687EA0001000064000000
B0825475208608N01240687EA0001000064000000
B0825515208608N01240687EA0001000064000000
B0825555208608N01240687EA0001000064000000
B0825595208608N01240687EA0000900064000000
B0826035208608N01240687EA0000900064000000
B0826075208608N01240687EA0000900064000000
B0826115208608N01240687EA0000900064000000
B0826155208608N01240687EA0000900064000000
B0826195208608N01240687EA0000900064000000
B0826235208608N01240687EA0000900064000000
B0826275208608N01240687EA0000900064000000
B0826315208608N01240687EA0000900064000000
B0826355208608N01240687EA0000900064000000
B0826395208608N01240687EA0000900064000000
B0826435208608N01240687EA0000900064000000
B0826475208608N01240687EA0000900064000000
B0826515208608N01240687EA0000900064000000
B0826555208608N01240687EA0000900064000000
B0826595208608N01240687EA0000900064000000
B0827035208608N01240687EA0000900064000000
B0827075208608N01240687EA0000900064000000
B0827115208608N01240687EA0000900064000000
B0827155208608N01240687EA0000900064000000
B0827195208608N01240687EA0000900064000000
B0827235208608N01240687EA0000900064000000
B0827275208608N01240687EA0000900064000000
B0827315208608N01240687EA0000900064000000
B0827355208608N01240687EA0000900064000000
B0827395208608N01240687EA0000900064000000
B0827435208608N01240687EA0000900064000000
B0827475208608N01240687EA0000900064000000
B0827515208608N01240687EA0000900064000000
B0827555208608N01240687EA0000900064000000
B0827595208608N01240687EA0000900064000000
B0828035208608N01240687EA0000900064000000
B0828075208608N01240687EA0000900064000000
B0828115208608N01240687EA0000900064000000
B0828155208608N01240687EA0000900064000000
B0828195208608N01240687EA0000900064000000
B0828235208608N01240687EA0000900064000000
B0828275208608N01240687EA0000900064000000
B0828315208608N01240687EA0000900064000000
B0828355208608N01240687EA0000900064000000
B0828395208608N01240687EA0000900064000000
B0828435208608N01240687EA0000900064000000
B0828475208608N01240687EA0000900064000000
B0828515208608N01240687EA0000900064000000
B0828555208608N01240687EA0000900064000000
B0828595208608N01240687EA0000900064000000
B0829035208608N01240687EA0000900064000000
B0829075208608N01240687EA0000900064000000
B0829115208608N01240687EA0000900072000000
B0829155208608N01240687EA0000900072000000
B0829195208608N01240687EA0000900072000000
B0829235208608N01240687EA0000900072000000
B0829275208608N01240687EA0000900072000000
B0829315208608N01240687EA0000900064000000
B0829355208608N01240687EA0000900064000000
B0829395208608N01240687EA0000900064000000
B0829435208608N01240687EA0000900064000000
B0829475208608N01240687EA0000900064000000
B0829515208608N01240687EA0000900064000000
B0829555208608N01240687EA0000900064000000
B0829595208608N01240687EA0000900064000000
B0830035208608N01240687EA0000900064000000
B0830075208608N01240687EA0000900064000000
B0830115208608N01240687EA0000900064000000
B0830155208608N01240687EA0000900064000000
B0830195208608N01240687EA0000900064000000
B0830235208608N01240687EA0000900064000000
B0830275208608N01240687EA0000900064000000
B0830315208608N01240687EA0000900064000000
B0830355208608N01240687EA0000900064000000
B0830395208608N01240687EA0000900064000000
B0830435208608N01240687EA0000900064000000
B0830475208608N01240687EA0000900064000000
B0830515208608N01240687EA0000900064000000
B0830555208608N01240687EA0000900064000000
B0830595208608N01240687EA0000900064000000
B0831035208608N01240687EA0000900064000000
B0831075208608N01240687EA0000900064000000
B0831115208608N01240687EA0000900064000000
B0831155208608N01240687EA0000900064000000
B0831195208608N01240687EA0000900064000000
B0831235208608N01240687EA0000900064000000
B0831275208608N01240687EA0000900064000000
B0831315208608N01240687EA0000900064000000
B0831355208608N01240687EA0000900064000000
B0831395208608N01240687EA0000900064000000
B0831435208608N01240687EA0000900064000000
B0831475208608N01240687EA0000900064000000
B0831515208608N01240687EA0000900064000000
B0831555208608N01240687EA0000900064000000
B0831595208608N01240687EA0000900064000000
B0832035208608N01240687EA0000900064000000
B0832075208608N01240687EA0000900064000000
B0832115208608N01240687EA0000900064000000
B0832155208608N01240687EA0000900064000000
B0832195208608N01240687EA0000900064000000
B0832235208608N01240687EA0000900064000000
B0832275208608N01240687EA0000900064000000
B0832315208608N01240687EA0000900064000000
B0832355208608N01240687EA0000900064000000
B0832395208608N01240687EA0001000064000000
B0832435208608N01240687EA0001000064000000
B0832475208608N01240687EA0001000064000000
B0832515208608N01240687EA0001000064000000
B0832555208608N01240687EA0001000064000000
B0832595208608N01240687EA0001000064000000
B0833035208608N01240687EA0001000064000000
B0833075208608N01240687EA0001000064000000
B0833115208608N01240687EA0001000064000000
B0833155208608N01240687EA0001000064000000
B0833195208608N01240687EA0001000064000000
B0833235208608N01240687EA0001000064000000
B0833275208608N01240687EA0001000064000000
B0833315208608N01240687EA0001000064000000
B0833355208608N01240687EA0001000064000000
B0833395208608N01240687EA0001000064000000
B0833435208608N01240687EA0001000064000000
B0833475208608N01240687EA0001000064000000
B0833515208608N01240687EA0001000064000000
B0833555208608N01240687EA0001000064000000
B0833595208608N01240687EA0001000064000000
B0834035208608N01240687EA0001000064000000
B0834075208608N01240687EA0001000064000000
B0834115208608N01240687EA0001000064000000
B0834155208608N01240687EA0001000064000000
B0834195208608N01240687EA0001000064000000
B0834235208608N01240687EA0001000064000000
B0834275208608N01240687EA0001000064000000
B0834315208608N01240687EA0001000064000000
B0834355208608N01240687EA0001000064000000
B0834395208608N01240687EA0001000064000000
B0834435208608N01240687EA0001000064000000
B0834475208608N01240687EA0001000064000000
B0834515208608N01240687EA0001000064000000
B0834555208608N01240687EA0001000064000000
B0834595208608N01240687EA0001000064000000
B0835035208608N01240687EA0001000064000000
B0835075208608N01240687EA0001000064000000
B0835115208608N01240687EA0001000064000000
B0835155208608N01240687EA0001000064000000
B0835195208608N01240687EA0001000064000000
B0835235208608N01240687EA0001000064000000
B0835275208608N01240687EA0001000064000000
B0835315208608N01240687EA0001000064000000
B0835355208608N01240687EA0001000064000000
B0835395208608N01240687EA0001000064000000
B0835435208608N01240687EA0001000064000000
B0835475208608N01240687EA0001000064000000
B0835515208608N01240687EA0001000064000000
B0835555208608N01240687EA0001000064000000
B0835595208608N01240687EA0001000064000000
B0836035208608N01240687EA0001000064000000
B0836075208608N01240687EA0001000064000000
B0836115208608N01240687EA0001000064000000
B0836155208608N01240687EA0001000064000000
B0836195208608N01240687EA0001000064000000
B0836235208608N01240687EA0001000064000000
B0836275208608N01240687EA0001000064000000
B0836315208608N01240687EA0001000064000000
B0836355208608N01240687EA0001000064000000
B0836395208608N01240687EA0001000064000000
B0836435208608N01240687EA0001000064000000
B0836475208608N01240687EA0001000064000000
B0836515208608N01240687EA0001000064000000
B0836555208608N01240687EA0001000064000000
B0836595208608N01240687EA0001000064000000
B0837035208608N01240687EA0001000064000000
B0837075208608N01240687EA0001000064000000
B0837115208608N01240687EA0001000064000000
B0837155208608N01240687EA0001000064000000
B0837195208608N01240687EA0001000064000000
B0837235208608N01240687EA0001000064000000
B0837275208608N01240687EA0001000064000000
B0837315208608N01240687EA0001000064000000
B0837355208608N01240687EA0001000064000000
B0837395208608N01240687EA0001000064000000
B0837435208608N01240687EA0001000064000000
B0837475208608N01240687EA0001000064000000
B0837515208608N01240687EA0001000064000000
B0837555208608N01240687EA0001000064000000
B0837595208608N01240687EA0001000064000000
B0838035208608N01240687EA0001000064000000
B0838075208608N01240687EA0001000064000000
B0838115208608N01240687EA0001000064000000
B0838155208608N01240687EA0001000064000000
B0838195208608N01240687EA0001000064000000
B0838235208608N01240687EA0001000064000000
B0838275208608N01240687EA0001000064000000
B0838315208608N01240687EA0001000064000000
B0838355208608N01240687EA0001000064000000
B0838395208608N01240687EA0001000064000000
B0838435208608N01240687EA0001000064000000
B0838475208608N01240687EA0001000064000000
B0838515208608N01240687EA0001000064000000
B0838555208608N01240687EA0001000064000000
B0838595208608N01240687EA0001000064000000
B0839035208608N01240687EA0001000064000000
B0839075208608N01240687EA0001000064000000
B0839115208608N01240687EA0001000064000000
B0839155208608N01240687EA0001000064000000
B0839195208608N01240687EA0001000064000000
B0839235208608N01240687EA0001000064000000
B0839275208608N01240687EA0001000064000000
B0839315208608N01240687EA0001000064000000
B0839355208608N01240687EA0001000064000000
B0839395208608N01240687EA0001000064000000
B0839435208608N01240687EA0001000064000000
B0839475208608N01240687EA0001000064000000
B0839515208608N01240687EA0001000064000000
B0839555208608N01240687EA0001000064000000
B0839595208608N01240687EA0001000064000000
B0840035208608N01240687EA0001000064000000
B0840075208608N01240687EA0001000064000000
B0840115208608N01240687EA0001000064000000
B0840155208608N01240687EA0001000064000000
B0840195208608N01240687EA0001000064000000
B0840235208608N01240687EA0001000064000000
B0840275208608N01240687EA0001000064000000
B0840315208608N01240687EA0001000064000000
B0840355208608N01240687EA0001000064000000
B0840395208608N01240687EA0001000064000000
B0840435208608N01240687EA0001000064000000
B0840475208608N01240687EA0001000064000000
B0840515208608N01240687EA0001000064000000
B0840555208608N01240687EA0001000064000000
B0840595208608N01240687EA0001000064000000
B0841035208608N01240687EA0001000064000000
B0841075208608N01240687EA0001000064000000
B0841115208608N01240687EA0001000064000000
B0841155208608N01240687EA0001000064000000
B0841195208608N01240687EA0001000064000000
B0841235208608N01240687EA0001000064000000
B0841275208608N01240687EA0001000064000000
B0841315208608N01240687EA0001000064000000
B0841355208608N01240687EA0001000064000000
B0841395208608N01240687EA0001000064000000
B0841435208608N01240687EA0001000064000000
B0841475208608N01240687EA0001000064000000
B0841515208608N01240687EA0001000064000000
B0841555208608N01240687EA0001000064000000
B0841595208608N01240687EA0001000064000000
B0842035208608N01240687EA0001000064000000
B0842075208608N01240687EA0001000064000000
B0842115208608N01240687EA0001000064000000
B0842155208608N01240687EA0001000064000000
B0842195208608N01240687EA0001000064000000
B0842235208608N01240687EA0001000064000000
B0842275208608N01240687EA0001000064000000
B0842315208608N01240687EA0001000064000000
B0842355208608N01240687EA0001000064000000
B0842395208608N01240687EA0001000064000000
B0842435208608N01240687EA0001000064000000
B0842475208608N01240687EA0001000064000000
B0842515208608N01240687EA0001000064000000
B0842555208608N01240687EA0001000064000000
B0842595208608N01240687EA0001000064000000
B0843035208608N01240687EA0001000064000000
B0843075208608N01240687EA0001000064000000
B0843115208608N01240687EA0001000064000000
B0843155208608N01240687EA0001000064000000
B0843195208608N01240687EA0001000064000000
B0843235208608N01240687EA0001000064000000
B0843275208608N01240687EA0001000064000000
B0843315208608N01240687EA0001000064000000
B0843355208608N01240687EA0001000064000000
B0843395208608N01240687EA0001000064000000
B0843435208608N01240687EA0001000064000000
B0843475208608N01240687EA0001000064000000
B0843515208608N01240687EA0001000064000000
B0843555208608N01240687EA0001000064000000
B0843595208608N01240687EA0001000064000000
B0844035208608N01240687EA0001000064000000
B0844075208608N01240687EA0001000064000000
B0844115208608N01240687EA0001000064000000
B0844155208608N01240687EA0001000064000000
B0844195208608N01240687EA0001000064000000
B0844235208608N01240687EA0001000064000000
B0844275208608N01240687EA0001000064000000
B0844315208608N01240687EA0001000064000000
B0844355208608N01240687EA0001000064000000
B0844395208608N01240687EA0001000064000000
B0844435208608N01240687EA0001000064000000
B0844475208608N01240687EA0001000064000000
B0844515208608N01240687EA0001000064000000
B0844555208608N01240687EA0001000064000000
B0844595208608N01240687EA0001000064000000
B0845035208608N01240687EA0001000064000000
B0845075208608N01240687EA0001000064000000
B0845115208608N01240687EA0001000064000000
B0845155208608N01240687EA0001000064000000
B0845195208608N01240687EA0001000064000000
B0845235208608N01240687EA0001000064000000
B0845275208612N01240687EA0001000064000000
B0845315208612N01240687EA0001000064000000
B0845355208612N01240687EA0001000064000000
B0845395208612N01240687EA0001000064000000
B0845435208612N01240687EA0001000064000000
B0845475208612N01240687EA0001000064000000
B0845515208612N01240687EA0001000064000000
B0845555208608N01240687EA0001000064000000
B0845595208608N01240687EA0001000064000000
B0846035208608N01240687EA0001000064000000
B0846075208608N01240687EA0001000064000000
B0846115208608N01240687EA0001000064000000
B0846155208608N01240687EA0001000064000000
B0846195208608N01240687EA0001000064000000
B0846235208608N01240687EA0001000064000000
B0846275208608N01240687EA0001000064000000
B0846315208608N01240687EA0001000064000000
B0846355208608N01240687EA0001000064000000
B0846395208608N01240687EA0001000064000000
B0846435208608N01240687EA0001000064000000
B0846475208608N01240687EA0001000064000000
B0846515208608N01240687EA0001000064000000
B0846555208608N01240687EA0001000064000000
B0846595208608N01240687EA0001000064000000
B0847035208608N01240687EA0001000064000000
B0847075208608N01240687EA0001000064000000
B0847115208608N01240687EA0001000064000000
B0847155208608N01240687EA0001000064000000
B0847195208608N01240687EA0001000064000000
B0847235208608N01240687EA0001000064000000
B0847275208608N01240687EA0001000064000000
B0847315208608N01240687EA0001000064000000
B0847355208608N01240687EA0001000064000000
B0847395208608N01240687EA0001000064000000
B0847435208608N01240687EA0001000064000000
B0847475208608N01240687EA0001000064000000
B0847515208608N01240687EA0001000064000000
B0847555208608N01240687EA0001000064000000
B0847595208608N01240687EA0001000064000000
B0848035208608N01240687EA0001000064000000
B0848075208608N01240687EA0001000064000000
B0848115208608N01240687EA0001000064000000
B0848155208608N01240687EA0001000064000000
B0848195208608N01240687EA0001000064000000
B0848235208608N01240687EA0001000064000000
B0848275208608N01240687EA0001000064000000
B0848315208608N01240687EA0001000064000000
B0848355208608N01240687EA0001000064000000
B0848395208608N01240687EA0001000064000000
B0848435208608N01240687EA0001000064000000
B0848475208608N01240687EA0001000064000000
B0848515208608N01240687EA0001000064000000
B0848555208608N01240687EA0001000064000000
B0848595208608N01240687EA0001000064000000
B0849035208608N01240687EA0001000064000000
B0849075208608N01240687EA0001000064000000
B0849115208608N01240687EA0001000064000000
B0849155208608N01240687EA0001000064000000
B0849195208608N01240687EA0001000064000000
B0849235208608N01240687EA0001000064000000
B0849275208608N01240687EA0001000064000000
B0849315208608N01240687EA0001000064000000
B0849355208608N01240687EA0001000064000000
B0849395208608N01240687EA0001000064000000
B0849435208608N01240687EA0001000064000000
B0849475208608N01240687EA0001000064000000
B0849515208608N01240687EA0001000064000000
B0849555208608N01240687EA0001000064000000
B0849595208608N01240687EA0001000064000000
B0850035208608N01240687EA0001000064000000
B0850075208608N01240687EA0001000064000000
B0850115208608N01240687EA0001000064000000
B0850155208612N01240687EA0001000064000000
B0850195208612N01240687EA0001000064000000
B0850235208612N01240687EA0001000064000000
B0850275208612N01240687EA0001000064000000
B0850315208612N01240687EA0001000064000000
B0850355208612N01240687EA0001000064000000
B0850395208612N01240687EA0001000064000000
B0850435208612N01240687EA0001000064000000
B0850475208612N01240687EA0001000064000000
B0850515208612N01240687EA0001000064000000
B0850555208612N01240687EA0001000064000000
B0850595208612N01240687EA0001000064000000
B0851035208612N01240687EA0001000064000000
B0851075208612N01240687EA0001000064000000
B0851115208612N01240687EA0001000064000000
B0851155208612N01240687EA0001000064000000
B0851195208612N01240687EA0001000064000000
B0851235208608N01240687EA0001000064000000
B0851275208608N01240687EA0001000064000000
B0851315208608N01240687EA0001000064000000
B0851355208612N01240687EA0001000064000000
B0851395208612N01240687EA0001000064000000
B0851435208612N01240687EA0001000064000000
B0851475208612N01240687EA0001000064000000
B0851515208612N01240687EA0001000064000000
B0851555208612N01240687EA0001000064000000
B0851595208612N01240687EA0001000064000000
B0852035208612N01240687EA0001000064000000
B0852075208608N01240687EA0001000064000000
B0852115208608N01240687EA0001000064000000
B0852155208608N01240687EA0001000064000000
B0852195208608N01240687EA0001000064000000
B0852235208608N01240687EA0001000064000000
B0852275208612N01240687EA0001000064000000
B0852315208612N01240687EA0001000064000000
B0852355208612N01240687EA0001000064000000
B0852395208612N01240687EA0001000064000000
B0852435208612N01240687EA0001000064000000
B0852475208612N01240687EA0001000064000000
B0852515208612N01240687EA0001000064000000
B0852555208612N01240687EA0001000064000000
B0852595208612N01240687EA0001000064000000
B0853035208608N01240687EA0001000064000000
B0853075208608N01240687EA0001000064000000
B0853115208608N01240687EA0001000064000000
B0853155208608N01240687EA0001000064000000
B0853195208608N01240687EA0001000064000000
B0853235208608N01240687EA0001000064000000
B0853275208608N01240687EA0001000064000000
B0853315208608N01240687EA0001000064000000
B0853355208612N01240687EA0001000064000000
B0853395208612N01240687EA0001000064000000
B0853435208612N01240687EA0001000064000000
B0853475208612N01240687EA0001000064000000
B0853515208612N01240687EA0001000064000000
B0853555208612N01240687EA0001000064000000
B0853595208612N01240687EA0001000064000000
B0854035208612N01240687EA0001000064000000
B0854075208612N01240687EA0001000064000000
B0854115208612N01240687EA0001000064000000
B0854155208612N01240687EA0001000064000000
B0854195208612N01240687EA0001000064000000
B0854235208612N01240687EA0001000064000000
B0854275208612N01240687EA0001000064000000
B0854315208612N01240687EA0001000064000000
B0854355208608N01240687EA0001000064000000
B0854395208608N01240687EA0001000064000000
B0854435208608N01240687EA0001000064000000
B0854475208608N01240687EA0001000064000000
B0854515208612N01240687EA0001000064000000
B0854555208612N01240687EA0001000064000000
B0854595208608N01240687EA0001000064000000
B0855035208612N01240687EA0001000064000000
B0855075208612N01240687EA0001000064000000
B0855115208612N01240687EA0001000064000000
B0855155208612N01240687EA0001000064000000
B0855195208612N01240687EA0001000064000000
B0855235208608N01240687EA0001000064000000
B0855275208612N01240687EA0001000064000000
B0855315208608N01240687EA0001000064000000
B0855355208608N01240687EA0001000064000000
B0855395208608N01240687EA0001000064000000
B0855435208608N01240687EA0001000064000000
B0855475208608N01240687EA0001000064000000
B0855515208608N01240687EA0001000064000000
B0855555208608N01240687EA0001000064000000
B0855595208608N01240687EA0001000064000000
B0856035208608N01240687EA0001000064000000
B0856075208608N01240687EA0001000064000000
B0856115208608N01240687EA0001000064000000
B0856155208612N01240687EA0001000064000000
B0856195208608N01240687EA0001000064000000
B0856235208608N01240687EA0001000064000000
B0856275208608N01240687EA0001000064000000
B0856315208608N01240687EA0001000064000000
B0856355208608N01240687EA0001000064000000
B0856395208608N01240687EA0001000064000000
B0856435208608N01240687EA0001000064000000
B0856475208608N01240687EA0001000064000000
B0856515208608N01240687EA0001000064000000
B0856555208608N01240687EA0001000064000000
B0856595208608N01240687EA0001000064000000
B0857035208608N01240687EA0001000064000000
B0857075208608N01240687EA0001000064000000
B0857115208608N01240687EA0001000064000000
B0857155208608N01240687EA0001000064000000
B0857195208608N01240687EA0001000064000000
B0857235208608N01240687EA0001000064000000
B0857275208608N01240687EA0001000064000000
B0857315208608N01240687EA0001000064000000
B0857355208608N01240687EA0001000064000000
B0857395208608N01240687EA0001000064000000
B0857435208608N01240687EA0001000064000000
B0857475208608N01240687EA0001000064000000
B0857515208608N01240687EA0001000064000000
B0857555208608N01240687EA0001000064000000
B0857595208608N01240687EA0001000064000000
B0858035208608N01240687EA0001000064000000
B0858075208608N01240687EA0001000064000000
B0858115208608N01240687EA0001000064000000
B0858155208608N01240687EA0001000064000000
B0858195208608N01240687EA0001000064000000
B0858235208608N01240687EA0001000064000000
B0858275208608N01240687EA0001000064000000
B0858315208608N01240687EA0001000064000000
B0858355208608N01240687EA0001000064000000
B0858395208608N01240687EA0001000064000000
B0858435208608N01240687EA0001000064000000
B0858475208608N01240687EA0001000064000000
B0858515208608N01240687EA0001000064000000
B0858555208608N01240687EA0001000064000000
B0858595208608N01240687EA0001000064000000
B0859035208608N01240687EA0001000064000000
B0859075208608N01240687EA0001000064000000
B0859115208608N01240687EA0001000064000000
B0859155208608N01240687EA0001000064000000
B0859195208608N01240687EA0001000064000000
B0859235208608N01240687EA0001000064000000
B0859275208608N01240687EA0001000064000000
B0859315208608N01240687EA0001000064000000
B0859355208608N01240687EA0001000064000000
B0859395208608N01240687EA0001000064000000
B0859435208608N01240687EA0001000064000000
B0859475208608N01240687EA0001200064000000
B0859515208608N01240687EA0001200064000000
B0859555208608N01240687EA0001200064000000
B0859595208608N01240687EA0001200064000000
B0900035208608N01240687EA0001200064000000
B0900075208608N01240687EA0001200064000000
B0900115208608N01240687EA0001200064000000
B0900155208608N01240687EA0001200064000000
B0900195208608N01240687EA0001200064000000
B0900235208608N01240687EA0001200064000000
B0900275208608N01240687EA0001200064000000
B0900315208608N01240687EA0001200064000000
B0900355208608N01240687EA0001200064000000
B0900395208608N01240687EA0001200064000000
B0900435208608N01240687EA0001200064000000
B0900475208608N01240687EA0001200064000000
B0900515208608N01240687EA0001200064000000
B0900555208608N01240687EA0001200064000000
B0900595208608N01240687EA0001200064000000
B0901035208608N01240687EA0001200064000000
B0901075208608N01240687EA0001200064000000
B0901115208608N01240687EA0001200064000000
B0901155208608N01240687EA0001200064000000
B0901195208608N01240687EA0001200064000000
B0901235208608N01240687EA0001200064000000
B0901275208608N01240687EA0001200064000000
B0901315208608N01240687EA0001200064000000
B0901355208608N01240687EA0001200064000000
B0901395208608N01240687EA0001200064000000
B0901435208608N01240687EA0001200064000000
B0901475208608N01240687EA0001200064000000
B0901515208608N01240687EA0001200064000000
B0901555208608N01240687EA0001200064000000
B0901595208608N01240687EA0001200064000000
B0902035208608N01240687EA0001200064000000
B0902075208608N01240687EA0001200064000000
B0902115208608N01240687EA0001200064000000
B0902155208608N01240687EA0001200064000000
B0902195208608N01240687EA0001200064000000
B0902235208608N01240687EA0001200064000000
B0902275208608N01240687EA0001200064000000
B0902315208608N01240687EA0001200064000000
B0902355208608N01240687EA0001200064000000
B0902395208608N01240687EA0001200064000000
B0902435208608N01240687EA0001200064000000
B0902475208608N01240687EA0001200064000000
B0902515208608N01240687EA0001200064000000
B0902555208608N01240687EA0001200064000000
B0902595208608N01240687EA0001200064000000
B0903035208608N01240687EA0001200064000000
B0903075208608N01240687EA0001200064000000
B0903115208608N01240687EA0001200064000000
B0903155208608N01240687EA0001200064000000
B0903195208608N01240687EA0001200064000000
B0903235208608N01240687EA0001200064000000
B0903275208608N01240687EA0001200064000000
B0903315208608N01240687EA0001200064000000
B0903355208608N01240687EA0001200064000000
B0903395208608N01240687EA0001200064000000
B0903435208608N01240687EA0001200064000000
B0903475208608N01240687EA0001200064000000
B0903515208608N01240687EA0001200064000000
B0903555208608N01240687EA0001200064000000
B0903595208608N01240687EA0001200064000000
B0904035208608N01240687EA0001200064000000
B0904075208608N01240687EA0001200064000000
B0904115208608N01240687EA0001200064000000
B0904155208608N01240687EA0001200064000000
B0904195208608N01240687EA0001200064000000
B0904235208608N01240687EA0001200064000000
B0904275208608N01240687EA0001200064000000
B0904315208608N01240687EA0001200064000000
B0904355208608N01240687EA0001200064000000
B0904395208608N01240687EA0001200064000000
B0904435208608N01240687EA0001200064000000
B0904475208608N01240687EA0001200064000000
B0904515208608N01240687EA0001200064000000
B0904555208608N01240687EA0001200064000000
B0904595208608N01240687EA0001200064000000
B0905035208608N01240687EA0001200064000000
B0905075208608N01240687EA0001200064000000
B0905115208608N01240687EA0001200064000000
B0905155208608N01240687EA0001200064000000
B0905195208608N01240687EA0001200064000000
B0905235208608N01240687EA0001200064000000
B0905275208608N01240687EA0001200064000000
B0905315208608N01240687EA0001200064000000
B0905355208608N01240687EA0001200064000000
B0905395208608N01240687EA0001200064000000
B0905435208608N01240687EA0001200064000000
B0905475208608N01240687EA0001200064000000
B0905515208608N01240687EA0001200064000000
B0905555208608N01240687EA0001200064000000
B0905595208608N01240687EA0001200064000000
B0906035208608N01240687EA0001200064000000
B0906075208608N01240687EA0001200064000000
B0906115208608N01240687EA0001200064000000
B0906155208608N01240687EA0001200064000000
B0906195208608N01240687EA0001200064000000
B0906235208608N01240687EA0001200064000000
B0906275208608N01240687EA0001200064000000
B0906315208608N01240687EA0001200064000000
B0906355208608N01240687EA0001200064000000
B0906395208608N01240687EA0001200064000000
B0906435208608N01240687EA0001200064000000
B0906475208608N01240687EA0001200064000000
B0906515208608N01240687EA0001200064000000
B0906555208608N01240687EA0001200064000000
B0906595208608N01240687EA0001200064000000
B0907035208608N01240687EA0001200064000000
B0907075208608N01240687EA0001200064000000
B0907115208608N01240687EA0001200064000000
B0907155208608N01240687EA0001200064000000
B0907195208608N01240687EA0001200064000000
B0907235208608N01240687EA0001200064000000
B0907275208608N01240687EA0001200064000000
B0907315208608N01240687EA0001200064000000
B0907355208608N01240687EA0001200064000000
B0907395208608N01240687EA0001200064000000
B0907435208608N01240687EA0001200064000000
B0907475208608N01240687EA0001200064000000
B0907515208608N01240687EA0001200064000000
B0907555208608N01240687EA0001200064000000
B0907595208608N01240687EA0001000064000000
B0908035208608N01240687EA0001000064000000
B0908075208608N01240687EA0001000064000000
B0908115208608N01240687EA0001000064000000
B0908155208608N01240687EA0001200064000000
B0908195208608N01240687EA0001200064000000
B0908235208608N01240687EA0001200064000000
B0908275208608N01240687EA0001200064000000
B0908315208608N01240687EA0001200064000000
B0908355208608N01240687EA0001200064000000
B0908395208608N01240687EA0001200064000000
B0908435208608N01240687EA0001200064000000
B0908475208608N01240687EA0001200064000000
B0908515208608N01240687EA0001200064000000
B0908555208608N01240687EA0001200064000000
B0908595208608N01240687EA0001200064000000
B0909035208608N01240687EA0001200064000000
B0909075208608N01240687EA0001200064000000
B0909115208608N01240687EA0001200064000000
B0909155208608N01240687EA0001200064000000
B0909195208608N01240687EA0001200064000000
B0909235208608N01240687EA0001200064000000
B0909275208608N01240687EA0001200064000000
B0909315208608N01240687EA0001200064000000
B0909355208608N01240687EA0001200064000000
B0909395208608N01240687EA0001200064000000
B0909435208608N01240687EA0001200064000000
B0909475208608N01240687EA0001200064000000
B0909515208608N01240687EA0001200064000000
B0909555208608N01240687EA0001200064000000
B0909595208608N01240687EA0001200064000000
B0910035208608N01240687EA0001200064000000
B0910075208608N01240687EA0001200064000000
B0910115208608N01240687EA0001200064000000
B0910155208608N01240687EA0001200064000000
B0910195208608N01240687EA0001200064000000
B0910235208608N01240687EA0001200064000000
B0910275208608N01240687EA0001200064000000
B0910315208608N01240687EA0001200064000000
B0910355208608N01240687EA0001200064000000
B0910395208608N01240687EA0001200064000000
B0910435208608N01240687EA0001200064000000
B0910475208608N01240687EA0001200064000000
B0910515208608N01240687EA0001200064000000
B0910555208608N01240687EA0001200064000000
B0910595208608N01240687EA0001200064000000
B0911035208608N01240687EA0001200064000000
B0911075208608N01240687EA0001200064000000
B0911115208608N01240687EA0001200064000000
B0911155208608N01240687EA0001200064000000
B0911195208608N01240687EA0001200064000000
B0911235208608N01240687EA0001200064000000
B0911275208608N01240687EA0001200064000000
B0911315208608N01240687EA0001200064000000
B0911355208608N01240687EA0001200064000000
B0911395208608N01240687EA0001200064000000
B0911435208608N01240687EA0001200064000000
B0911475208608N01240687EA0001200064000000
B0911515208608N01240687EA0001200064000000
B0911555208608N01240687EA0001200064000000
B0911595208608N01240687EA0001200064000000
B0912035208608N01240687EA0001200064000000
B0912075208608N01240687EA0001200064000000
B0912115208608N01240687EA0001200064000000
B0912155208608N01240687EA0001200064000000
B0912195208608N01240687EA0001200064000000
B0912235208608N01240687EA0001200064000000
B0912275208608N01240687EA0001200064000000
B0912315208608N01240687EA0001200064000000
B0912355208608N01240687EA0001200064000000
B0912395208608N01240687EA0001200064000000
B0912435208608N01240687EA0001200064000000
B0912475208608N01240687EA0001200064000000
B0912515208608N01240687EA0001200064000000
B0912555208608N01240687EA0001200064000000
B0912595208608N01240687EA0001200064000000
B0913035208608N01240687EA0001200064000000
B0913075208608N01240687EA0001200064000000
B0913115208608N01240687EA0001200064000000
B0913155208608N01240687EA0001200064000000
B0913195208608N01240687EA0001200064000000
B0913235208608N01240687EA0001200064000000
B0913275208608N01240687EA0001200064000000
B0913315208608N01240687EA0001200064000000
B0913355208608N01240687EA0001200064000000
B0913395208608N01240687EA0001200064000000
B0913435208608N01240687EA0001200064000000
B0913475208608N01240687EA0001200064000000
B0913515208608N01240687EA0001200064000000
B0913555208608N01240687EA0001200064000000
B0913595208608N01240687EA0001200064000000
B0914035208608N01240687EA0001200064000000
B0914075208608N01240687EA0001200064000000
B0914115208608N01240687EA0001200064000000
B0914155208608N01240687EA0001200064000000
B0914195208608N01240687EA0001200064000000
B0914235208608N01240687EA0001200064000000
B0914275208608N01240687EA0001200064000000
B0914315208608N01240687EA0001200064000000
B0914355208608N01240687EA0001200064000000
B0914395208608N01240687EA0001200064000000
B0914435208608N01240687EA0001200064000000
B0914475208608N01240687EA0001200064000000
B0914515208608N01240687EA0001200064000000
B0914555208608N01240687EA0001200064000000
B0914595208608N01240687EA0001200064000000
B0915035208608N01240687EA0001200064000000
B0915075208608N01240687EA0001200064000000
B0915115208608N01240687EA0001200064000000
B0915155208608N01240687EA0001200064000000
B0915195208608N01240687EA0001200064000000
B0915235208608N01240687EA0001200064000000
B0915275208608N01240687EA0001200064000000
B0915315208608N01240687EA0001200064000000
B0915355208608N01240687EA0001200064000000
B0915395208608N01240687EA0001200064000000
B0915435208608N01240687EA0001200064000000
B0915475208608N01240687EA0001200064000000
B0915515208608N01240687EA0001200064000000
B0915555208608N01240687EA0001200064000000
B0915595208608N01240687EA0001200064000000
B0916035208608N01240687EA0001200064000000
B0916075208608N01240687EA0001200064000000
B0916115208608N01240687EA0001200064000000
B0916155208608N01240687EA0001200064000000
B0916195208608N01240687EA0001200064000000
B0916235208608N01240687EA0001200064000000
B0916275208608N01240687EA0001200064000000
B0916315208608N01240687EA0001200064000000
B0916355208608N01240687EA0001200064000000
B0916395208608N01240687EA0001200064000000
B0916435208608N01240687EA0001200064000000
B0916475208608N01240687EA0001200064000000
B0916515208608N01240687EA0001200064000000
B0916555208608N01240687EA0001200064000000
B0916595208608N01240687EA0001200064000000
B0917035208608N01240687EA0001200064000000
B0917075208608N01240687EA0001200064000000
B0917115208608N01240687EA0001200064000000
B0917155208608N01240687EA0001200064000000
B0917195208608N01240687EA0001200064000000
B0917235208608N01240687EA0001200064000000
B0917275208608N01240687EA0001200064000000
B0917315208608N01240687EA0001200064000000
B0917355208608N01240687EA0001200064000000
B0917395208608N01240687EA0001200064000000
B0917435208608N01240687EA0001200064000000
B0917475208608N01240687EA0001200064000000
B0917515208608N01240687EA0001200064000000
B0917555208608N01240687EA0001300064000000
B0917595208608N01240687EA0001300064000000
B0918035208608N01240687EA0001300064000000
B0918075208608N01240687EA0001300064000000
B0918115208608N01240687EA0001300064000000
B0918155208608N01240687EA0001300064000000
B0918195208608N01240687EA0001300064000000
B0918235208608N01240687EA0001300064000000
B0918275208608N01240687EA0001300064000000
B0918315208608N01240687EA0001300064000000
B0918355208608N01240687EA0001300064000000
B0918395208608N01240687EA0001300064000000
B0918435208608N01240687EA0001300064000000
B0918475208608N01240687EA0001300064000000
B0918515208608N01240687EA0001300064000000
B0918555208608N01240687EA0001300064000000
B0918595208608N01240687EA0001300064000000
B0919035208608N01240687EA0001300064000000
B0919075208608N01240687EA0001300064000000
B0919115208608N01240687EA0001300064000000
B0919155208608N01240687EA0001300064000000
B0919195208608N01240687EA0001300064000000
B0919235208608N01240687EA0001300064000000
B0919275208608N01240687EA0001300064000000
B0919315208608N01240687EA0001300064000000
B0919355208608N01240687EA0001300064000000
B0919395208608N01240687EA0001300064000000
B0919435208608N01240687EA0001300064000000
B0919475208608N01240687EA0001300064000000
B0919515208608N01240687EA0001300064000000
B0919555208608N01240687EA0001300064000000
B0919595208608N01240687EA0001300064000000
B0920035208608N01240687EA0001300064000000
B0920075208608N01240687EA0001300064000000
B0920115208608N01240687EA0001300064000000
B0920155208608N01240687EA0001300064000000
B0920195208608N01240687EA0001300064000000
B0920235208608N01240687EA0001300064000000
B0920275208608N01240687EA0001300064000000
B0920315208608N01240687EA0001300064000000
B0920355208608N01240687EA0001300064000000
B0920395208608N01240687EA0001300064000000
B0920435208608N01240687EA0001300064000000
B0920475208608N01240687EA0001300064000000
B0920515208608N01240687EA0001300064000000
B0920555208608N01240687EA0001300064000000
B0920595208608N01240687EA0001300064000000
B0921035208608N01240687EA0001300064000000
B0921075208608N01240687EA0001300064000000
B0921115208608N01240687EA0001300064000000
B0921155208608N01240687EA0001300064000000
B0921195208608N01240687EA0001300064000000
B0921235208608N01240687EA0001300064000000
B0921275208608N01240687EA0001300064000000
B0921315208608N01240687EA0001300064000000
B0921355208608N01240687EA0001300064000000
B0921395208608N01240687EA0001300064000000
B0921435208608N01240687EA0001300064000000
B0921475208608N01240687EA0001300064000000
B0921515208608N01240687EA0001300064000000
B0921555208608N01240687EA0001300064000000
B0921595208608N01240687EA0001300064000000
B0922035208608N01240687EA0001300064000000
B0922075208608N01240687EA0001300064000000
B0922115208608N01240687EA0001300064000000
B0922155208608N01240687EA0001300064000000
B0922195208608N01240687EA0001300064000000
B0922235208608N01240687EA0001300064000000
B0922275208608N01240687EA0001300064000000
B0922315208608N01240687EA0001300064000000
B0922355208608N01240687EA0001300064000000
B0922395208608N01240687EA0001300064000000
B0922435208608N01240687EA0001300064000000
B0922475208608N01240687EA0001300064000000
B0922515208608N01240687EA0001300064000000
B0922555208608N01240687EA0001300064000000
B0922595208608N01240687EA0001300064000000
B0923035208608N01240687EA0001300064000000
B0923075208608N01240687EA0001300064000000
B0923115208608N01240687EA0001300064000000
B0923155208608N01240687EA0001300064000000
B0923195208608N01240687EA0001300064000000
B0923235208608N01240687EA0001300064000000
B0923275208608N01240687EA0001300064000000
B0923315208608N01240687EA0001300064000000
B0923355208608N01240687EA0001300064000000
B0923395208608N01240687EA0001300064000000
B0923435208608N01240687EA0001300064000000
B0923475208608N01240687EA0001300064000000
B0923515208608N01240687EA0001400064000000
B0923555208608N01240687EA0001400064000000
B0923595208608N01240687EA0001400064000000
B0924035208608N01240687EA0001400064000000
B0924075208608N01240687EA0001400064000000
B0924115208608N01240687EA0001400064000000
B0924155208608N01240687EA0001400064000000
B0924195208608N01240687EA0001400064000000
B0924235208608N01240687EA0001400064000000
B0924275208608N01240687EA0001400064000000
B0924315208608N01240687EA0001400064000000
B0924355208608N01240687EA0001400064000000
B0924395208608N01240687EA0001400064000000
B0924435208608N01240687EA0001400064000000
B0924475208608N01240687EA0001400064000000
B0924515208608N01240687EA0001400064000000
B0924555208608N01240687EA0001400064000000
B0924595208608N01240687EA0001400064000000
B0925035208608N01240687EA0001400064000000
B0925075208608N01240687EA0001400064000000
B0925115208608N01240687EA0001400064000000
B0925155208608N01240687EA0001400064000000
B0925195208608N01240687EA0001400064000000
B0925235208608N01240687EA0001400064000000
B0925275208608N01240687EA0001400064000000
B0925315208608N01240687EA0001400064000000
B0925355208608N01240687EA0001400064000000
B0925395208608N01240687EA0001400064000000
B0925435208608N01240687EA0001400064000000
B0925475208608N01240687EA0001400064000000
B0925515208608N01240687EA0001400064000000
B0925555208608N01240687EA0001400064000000
B0925595208608N01240687EA0001400064000000
B0926035208608N01240687EA0001400064000000
B0926075208608N01240687EA0001400064000000
B0926115208608N01240687EA0001400064000000
B0926155208608N01240687EA0001400064000000
B0926195208608N01240687EA0001400064000000
B0926235208608N01240687EA0001400064000000
B0926275208608N01240687EA0001400064000000
B0926315208608N01240687EA0001400064000000
B0926355208608N01240687EA0001400064000000
B0926395208608N01240687EA0001400064000000
B0926435208608N01240687EA0001400064000000
B0926475208608N01240687EA0001400064000000
B0926515208608N01240687EA0001400064000000
B0926555208608N01240687EA0001400064000000
B0926595208608N01240687EA0001400064000000
B0927035208608N01240687EA0001400064000000
B0927075208608N01240687EA0001300064000000
B0927115208608N01240687EA0001300064000000
B0927155208608N01240687EA0001300064000000
B0927195208608N01240687EA0001300064000000
B0927235208608N01240687EA0001300064000000
B0927275208608N01240687EA0001300064000000
B0927315208608N01240687EA0001300064000000
B0927355208608N01240687EA0001300064000000
B0927395208608N01240687EA0001300064000000
B0927435208608N01240687EA0001300064000000
B0927475208608N01240687EA0001300064000000
B0927515208608N01240687EA0001300064000000
B0927555208608N01240687EA0001300064000000
B0927595208608N01240687EA0001300064000000
B0928035208608N01240687EA0001300064000000
B0928075208608N01240687EA0001300064000000
B0928115208608N01240687EA0001300064000000
B0928155208608N01240687EA0001300064000000
B0928195208608N01240687EA0001300064000000
B0928235208608N01240687EA0001300064000000
B0928275208608N01240687EA0001300064000000
B0928315208608N01240687EA0001300064000000
B0928355208608N01240687EA0001300064000000
B0928395208608N01240687EA0001300064000000
B0928435208608N01240687EA0001300064000000
B0928475208608N01240687EA0001300064000000
B0928515208608N01240687EA0001300064000000
B0928555208608N01240687EA0001300064000000
B0928595208608N01240687EA0001300064000000
B0929035208608N01240687EA0001300064000000
B0929075208608N01240687EA0001300064000000
B0929115208608N01240687EA0001300064000000
B0929155208608N01240687EA0001300064000000
B0929195208608N01240687EA0001300064000000
B0929235208608N01240687EA0001300064000000
B0929275208608N01240687EA0001300064000000
B0929315208608N01240687EA0001300064000000
B0929355208608N01240687EA0001300064000000
B0929395208608N01240687EA0001300064000000
B0929435208608N01240687EA0001300064000000
B0929475208608N01240687EA0001300064000000
B0929515208608N01240687EA0001300064000000
B0929555208608N01240687EA0001300064000000
B0929595208608N01240687EA0001300064000000
B0930035208608N01240687EA0001300064000000
B0930075208608N01240687EA0001300064000000
B0930115208608N01240687EA0001300064000000
B0930155208608N01240687EA0001300064000000
B0930195208608N01240687EA0001300064000000
B0930235208608N01240687EA0001300064000000
B0930275208608N01240687EA0001300064000000
B0930315208608N01240687EA0001300064000000
B0930355208608N01240687EA0001300064000000
B0930395208608N01240687EA0001300064000000
B0930435208608N01240687EA0001300064000000
B0930475208608N01240687EA0001300064000000
B0930515208608N01240687EA0001300064000000
B0930555208608N01240687EA0001300064000000
B0930595208608N01240687EA0001300064000000
B0931035208608N01240687EA0001300064000000
B0931075208608N01240687EA0001300064000000
B0931115208608N01240687EA0001300064000000
B0931155208608N01240687EA0001300064000000
B0931195208608N01240687EA0001300064000000
B0931235208608N01240687EA0001300064000000
B0931275208608N01240687EA0001300064000000
B0931315208608N01240687EA0001300064000000
B0931355208608N01240687EA0001300064000000
B0931395208608N01240687EA0001300064000000
B0931435208608N01240687EA0001300064000000
B0931475208608N01240687EA0001300064000000
B0931515208608N01240687EA0001300064000000
B0931555208608N01240687EA0001300064000000
B0931595208608N01240687EA0001300064000000
B0932035208608N01240687EA0001300064000000
B0932075208608N01240687EA0001300064000000
B0932115208608N01240687EA0001300064000000
B0932155208608N01240687EA0001300064000000
B0932195208608N01240687EA0001300064000000
B0932235208608N01240687EA0001300064000000
B0932275208608N01240687EA0001300064000000
B0932315208608N01240687EA0001300064000000
B0932355208608N01240687EA0001300064000000
B0932395208608N01240687EA0001300064000000
B0932435208608N01240687EA0001300064000000
B0932475208608N01240687EA0001300064000000
B0932515208608N01240687EA0001300064000000
B0932555208608N01240687EA0001300064000000
B0932595208608N01240687EA0001300064000000
B0933035208608N01240687EA0001300064000000
B0933075208608N01240687EA0001300064000000
B0933115208608N01240687EA0001400064000000
B0933155208608N01240687EA0001300064000000
B0933195208608N01240687EA0001300056000000
B0933235208608N01240687EA0001400056000000
B0933275208608N01240687EA0001400056000000
B0933315208608N01240687EA0001400056000000
B0933355208608N01240687EA0001200056000000
B0933395208608N01240687EA0001200056000000
B0933435208608N01240687EA0001200056000000
B0933475208608N01240687EA0001200056000000
B0933515208608N01240687EA0001200056000000
B0933555208608N01240687EA0001200056000000
B0933595208608N01240687EA0001200056000000
B0934035208608N01240687EA0001200056000000
B0934075208608N01240687EA0001200056000000
B0934115208608N01240687EA0001300056000000
B0934155208608N01240687EA0001300056000000
B0934195208608N01240687EA0001300056000000
B0934235208608N01240687EA0001300056000000
B0934275208608N01240687EA0001300056000000
B0934315208608N01240687EA0001300056000000
B0934355208608N01240687EA0001300056000000
B0934395208608N01240687EA0001300056000000
B0934435208608N01240687EA0001300056000000
B0934475208608N01240687EA0001300056000000
B0934515208608N01240687EA0001300056000000
B0934555208608N01240687EA0001300056000000
B0934595208608N01240687EA0001300056000000
B0935035208608N01240687EA0001300056000000
B0935075208608N01240687EA0001300056000000
B0935115208608N01240687EA0001300056000000
B0935155208608N01240687EA0001300056000000
B0935195208608N01240687EA0001300056000000
B0935235208608N01240687EA0001300056000000
B0935275208608N01240687EA0001300056000000
B0935315208608N01240687EA0001300056000000
B0935355208608N01240687EA0001300056000000
B0935395208608N01240687EA0001300056000000
B0935435208608N01240687EA0001300056000000
B0935475208608N01240687EA0001300056000000
B0935515208608N01240687EA0001300056000000
B0935555208608N01240687EA0001300056000000
B0935595208608N01240687EA0001300056000000
B0936035208608N01240687EA0001300056000000
B0936075208608N01240687EA0001300056000000
B0936115208608N01240687EA0001300056000000
B0936155208608N01240687EA0001300056000000
B0936195208608N01240687EA0001300056000000
B0936235208608N01240687EA0001300056000000
B0936275208608N01240687EA0001300056000000
B0936315208608N01240687EA0001300056000000
B0936355208608N01240687EA0001300056000000
B0936395208608N01240687EA0001300056000000
B0936435208608N01240687EA0001300056000000
B0936475208608N01240687EA0001300056000000
B0936515208608N01240687EA0001300056000000
B0936555208608N01240687EA0001300056000000
B0936595208608N01240687EA0001300056000000
B0937035208608N01240687EA0001300056000000
B0937075208608N01240687EA0001300056000000
B0937115208608N01240687EA0001300056000000
B0937155208608N01240687EA0001300056000000
B0937195208608N01240687EA0001300056000000
B0937235208608N01240687EA0001300056000000
B0937275208608N01240687EA0001300056000000
B0937315208608N01240687EA0001300056000000
B0937355208608N01240687EA0001300056000000
B0937395208608N01240687EA0001300056000000
B0937435208608N01240687EA0001300056000000
B0937475208608N01240687EA0001300056000000
B0937515208608N01240687EA0001300056000000
B0937555208608N01240687EA0001300056000000
B0937595208608N01240687EA0001300056000000
B0938035208608N01240687EA0001300056000000
B0938075208608N01240687EA0001300064000000
B0938115208608N01240687EA0001300064000000
B0938155208608N01240687EA0001300064000000
B0938195208608N01240687EA0001300064000000
B0938235208608N01240687EA0001300064000000
B0938275208608N01240687EA0001300064000000
B0938315208608N01240687EA0001300064000000
B0938355208608N01240687EA0001300064000000
B0938395208608N01240687EA0001300064000000
B0938435208608N01240687EA0001300064000000
B0938475208608N01240687EA0001300064000000
B0938515208608N01240687EA0001300064000000
B0938555208608N01240687EA0001300064000000
B0938595208608N01240687EA0001300064000000
B0939035208608N01240687EA0001300064000000
B0939075208608N01240687EA0001300064000000
B0939115208608N01240687EA0001300064000000
B0939155208608N01240687EA0001300064000000
B0939195208608N01240687EA0001300064000000
B0939235208608N01240687EA0001300064000000
B0939275208608N01240687EA0001300064000000
B0939315208608N01240687EA0001300064000000
B0939355208608N01240687EA0001300064000000
B0939395208608N01240687EA0001300064000000
B0939435208608N01240687EA0001300064000000
B0939475208608N01240687EA0001300064000000
B0939515208608N01240687EA0001300064000000
B0939555208608N01240687EA0001300064000000
B0939595208608N01240687EA0001300064000000
B0940035208608N01240687EA0001300064000000
B0940075208608N01240687EA0001300064000000
B0940115208608N01240687EA0001300064000000
B0940155208608N01240687EA0001300064000000
B0940195208608N01240687EA0001300064000000
B0940235208608N01240687EA0001300064000000
B0940275208608N01240687EA0001300064000000
B0940315208608N01240687EA0001300064000000
B0940355208608N01240687EA0001300064000000
B0940395208608N01240687EA0001300064000000
B0940435208608N01240687EA0001300064000000
B0940475208608N01240687EA0001300064000000
B0940515208608N01240687EA0001300064000000
B0940555208608N01240687EA0001300064000000
B0940595208608N01240687EA0001300064000000
B0941035208608N01240687EA0001300064000000
B0941075208608N01240687EA0001300064000000
B0941115208608N01240687EA0001300064000000
B0941155208608N01240687EA0001300064000000
B0941195208608N01240687EA0001300064000000
B0941235208608N01240687EA0001300064000000
B0941275208608N01240687EA0001300064000000
B0941315208608N01240687EA0001300064000000
B0941355208608N01240687EA0001300064000000
B0941395208608N01240687EA0001300064000000
B0941435208608N01240687EA0001300064000000
B0941475208608N01240687EA0001300064000000
B0941515208608N01240687EA0001300064000000
B0941555208608N01240687EA0001300064000000
B0941595208608N01240687EA0001300064000000
B0942035208608N01240687EA0001300064000000
B0942075208608N01240687EA0001300064000000
B0942115208608N01240687EA0001300064000000
B0942155208608N01240687EA0001300064000000
B0942195208608N01240687EA0001300064000000
B0942235208608N01240687EA0001300064000000
B0942275208608N01240687EA0001300064000000
B0942315208608N01240687EA0001300064000000
B0942355208608N01240687EA0001300064000000
B0942395208608N01240687EA0001300064000000
B0942435208608N01240687EA0001300064000000
B0942475208608N01240687EA0001300064000000
B0942515208608N01240687EA0001300064000000
B0942555208608N01240687EA0001300064000000
B0942595208608N01240687EA0001300064000000
B0943035208608N01240687EA0001300064000000
B0943075208608N01240687EA0001300064000000
B0943115208608N01240687EA0001300064000000
B0943155208608N01240687EA0001300064000000
B0943195208608N01240687EA0001300064000000
B0943235208608N01240687EA0001300064000000
B0943275208608N01240687EA0001300064000000
B0943315208608N01240687EA0001300064000000
B0943355208608N01240687EA0001300064000000
B0943395208608N01240687EA0001300064000000
B0943435208608N01240687EA0001300064000000
B0943475208608N01240687EA0001300064000000
B0943515208608N01240687EA0001300064000000
B0943555208608N01240687EA0001300064000000
B0943595208608N01240687EA0001300064000000
B0944035208608N01240687EA0001300064000000
B0944075208608N01240687EA0001300064000000
B0944115208608N01240687EA0001300064000000
B0944155208608N01240687EA0001300064000000
B0944195208608N01240687EA0001300064000000
B0944235208608N01240687EA0001300064000000
B0944275208608N01240687EA0001300064000000
B0944315208608N01240687EA0001300064000000
B0944355208608N01240687EA0001300064000000
B0944395208608N01240687EA0001300064000000
B0944435208608N01240687EA0001300064000000
B0944475208608N01240687EA0001300064000000
B0944515208608N01240687EA0001300064000000
B0944555208608N01240687EA0001300064000000
B0944595208612N01240687EA0001300064000000
B0945035208608N01240687EA0001300064000000
B0945075208608N01240687EA0001300064000000
B0945115208608N01240687EA0001300064000000
B0945155208608N01240687EA0001300064000000
B0945195208608N01240687EA0001300064000000
B0945235208608N01240687EA0001300064000000
B0945275208608N01240687EA0001300064000000
B0945315208608N01240687EA0001300064000000
B0945355208608N01240687EA0001300064000000
B0945395208608N01240687EA0001300064000000
B0945435208608N01240687EA0001300064000000
B0945475208608N01240687EA0001300064000000
B0945515208608N01240687EA0001300064000000
B0945555208608N01240687EA0001300064000000
B0945595208608N01240687EA0001300064000000
B0946035208608N01240687EA0001300064000000
B0946075208608N01240687EA0001300064000000
B0946115208608N01240687EA0001300064000000
B0946155208608N01240687EA0001400064000000
B0946195208608N01240687EA0001400064000000
B0946235208608N01240687EA0001400064000000
B0946275208608N01240687EA0001400064000000
B0946315208608N01240687EA0001400064000000
B0946355208608N01240687EA0001400064000000
B0946395208608N01240687EA0001400064000000
B0946435208608N01240687EA0001400064000000
B0946475208608N01240687EA0001400064000000
B0946515208608N01240687EA0001400064000000
B0946555208608N01240687EA0001400064000000
B0946595208608N01240687EA0001400064000000
B0947035208608N01240687EA0001400064000000
B0947075208608N01240687EA0001400064000000
B0947115208608N01240687EA0001400064000000
B0947155208608N01240687EA0001400064000000
B0947195208608N01240687EA0001400064000000
B0947235208608N01240687EA0001400064000000
B0947275208608N01240687EA0001400064000000
B0947315208608N01240687EA0001400064000000
B0947355208608N01240687EA0001400064000000
B0947395208608N01240687EA0001400064000000
B0947435208612N01240687EA0001400064000000
B0947475208612N01240687EA0001400064000000
B0947515208612N01240687EA0001400064000000
B0947555208612N01240687EA0001400064000000
B0947595208612N01240687EA0001400064000000
B0948035208612N01240687EA0001400064000000
B0948075208612N01240687EA0001400064000000
B0948115208608N01240687EA0001400064000000
B0948155208608N01240687EA0001400064000000
B0948195208608N01240687EA0001400064000000
B0948235208608N01240687EA0001400064000000
B0948275208608N01240687EA0001400064000000
B0948315208608N01240687EA0001400064000000
B0948355208608N01240687EA0001400064000000
B0948395208608N01240687EA0001400064000000
B0948435208608N01240687EA0001400064000000
B0948475208608N01240687EA0001400064000000
B0948515208608N01240687EA0001400064000000
B0948555208608N01240687EA0001400064000000
B0948595208608N01240687EA0001400064000000
B0949035208608N01240687EA0001400064000000
B0949075208608N01240687EA0001400064000000
B0949115208608N01240687EA0001400064000000
B0949155208608N01240687EA0001400064000000
B0949195208608N01240687EA0001400064000000
B0949235208608N01240687EA0001400064000000
B0949275208608N01240687EA0001400064000000
B0949315208608N01240687EA0001400064000000
B0949355208608N01240687EA0001400064000000
B0949395208608N01240687EA0001400064000000
B0949435208608N01240687EA0001400064000000
B0949475208608N01240687EA0001400064000000
B0949515208608N01240687EA0001400064000000
B0949555208608N01240687EA0001400064000000
B0949595208608N01240687EA0001400064000000
B0950035208608N01240687EA0001400064000000
B0950075208608N01240687EA0001400064000000
B0950115208608N01240687EA0001400064000000
B0950155208608N01240687EA0001400064000000
B0950195208608N01240687EA0001400064000000
B0950235208608N01240687EA0001400064000000
B0950275208608N01240687EA0001400064000000
B0950315208608N01240687EA0001400064000000
B0950355208608N01240687EA0001400064000000
B0950395208608N01240687EA0001400064000000
B0950435208608N01240687EA0001400064000000
B0950475208608N01240687EA0001400064000000
B0950515208608N01240687EA0001400064000000
B0950555208608N01240687EA0001400064000000
B0950595208608N01240687EA0001400064000000
B0951035208608N01240687EA0001400064000000
B0951075208608N01240687EA0001400064000000
B0951115208608N01240687EA0001400064000000
B0951155208608N01240687EA0001400064000000
B0951195208608N01240687EA0001400064000000
B0951235208608N01240687EA0001400064000000
B0951275208612N01240687EA0001400064000000
B0951315208612N01240687EA0001400064000000
B0951355208612N01240687EA0001400064000000
B0951395208612N01240687EA0001400064000000
B0951435208612N01240687EA0001400064000000
B0951475208612N01240687EA0001400064000000
B0951515208612N01240687EA0001400064000000
B0951555208612N01240687EA0001400064000000
B0951595208612N01240687EA0001400064000000
B0952035208612N01240687EA0001400064000000
B0952075208608N01240687EA0001400064000000
B0952115208608N01240687EA0001400064000000
B0952155208608N01240687EA0001500064000000
B0952195208608N01240687EA0001500064000000
B0952235208608N01240687EA0001500064000000
B0952275208608N01240687EA0001500064000000
B0952315208608N01240687EA0001500064000000
B0952355208608N01240687EA0001500064000000
B0952395208608N01240687EA0001500064000000
B0952435208608N01240687EA0001500064000000
B0952475208608N01240687EA0001500064000000
B0952515208608N01240687EA0001500064000000
B0952555208608N01240687EA0001500064000000
B0952595208608N01240687EA0001500064000000
B0953035208608N01240687EA0001500064000000
B0953075208608N01240687EA0001500064000000
B0953115208608N01240687EA0001500064000008
B0953155208612N01240687EA0001500064000004
B0953195208612N01240687EA0001500064000004
B0953235208612N01240687EA0001500064000008
B0953275208612N01240687EA0001500064000000
B0953315208612N01240687EA0001500064000000
B0953355208612N01240687EA0001500064000000
B0953395208612N01240687EA0001500064000000
B0953435208612N01240687EA0001500064000000
B0953475208612N01240687EA0001500064000000
B0953515208612N01240687EA0001500064000000
B0953555208612N01240687EA0001500064000000
B0953595208612N01240687EA0001500064000000
B0954035208612N01240687EA0001500064000000
