AZAN5HD ZANDER/SDI GP941 V2.11
HFDTE160813
HFFXA050
HFPLT Pilot             :JOACHIM HOERSCH                         
HFGTY Glider type       :Discus 2                                
HFGID Glider ID         :          
HFDTM100 GPS Datum      :WGS84
HFRFW Firmware Version  :11
HFRHW Hardware version  :2
HFFTY FR Type           :ZANDER/SDI GP941
HFGPS                   :Garmin,GPS25,12,30000
HFPRS Press Alt Sensor  :Intersema,MS5534A,10000
HFCCL Competition Class :Standard                                
HFCID Competition ID    :          
I023638IAS3941ENL
J020810WDI1113WVE
LZAN 110837 PowerOn
C230513084152230513000102
C5237733N01149200E 227STEND    
C5237733N01149200E 227STEND    
C5330316N01356900E 182PASEW    
C5131666N01421250E 216SCHWRP   
C5237733N01149200E 227STEND    
C5237733N01149200E 227STEND    
B1108415208670N01240520EV0001100000000000
B1108455208670N01240520EV0001100000000012
B1108495208670N01240520EA0001100064000008
B1108535208670N01240520EA0001100064000024
B1108575208670N01240520EA0001100064000016
B1109015208670N01240520EA0001100064000024
B1109055208670N01240525EA0001100064000024
B1109095208670N01240525EA0001100064000056
B1109135208670N01240525EA0001100064000040
B1109175208670N01240525EA0001100064000036
B1109215208670N01240525EA0001100064000048
B1109255208670N01240525EA0001100064000024
B1109295208670N01240525EA0001100064000032
B1109335208670N01240525EA0001100064000020
B1109375208670N01240525EA0001100064000024
B1109415208670N01240525EA0001100064000032
B1109455208670N01240525EA0001100064000024
B1109495208670N01240525EA0001100064000004
B1109535208670N01240525EA0001100064000016
B1109575208670N01240525EA0001100064000012
B1110015208670N01240525EA0001100064000008
B1110055208670N01240525EA0001100064000028
B1110095208670N01240525EA0001100064000020
B1110135208670N01240525EA0001100064000036
B1110175208670N01240525EA0001100064000032
B1110215208670N01240525EA0001100064000016
B1110255208670N01240525EA0001100064000024
B1110295208670N01240525EA0001100064000036
B1110335208670N01240525EA0001100064000024
B1110375208670N01240525EA0001100064000016
B1110415208670N01240525EA0001100064000024
B1110455208670N01240525EA0001100064000008
B1110495208670N01240525EA0001100064000012
B1110535208670N01240525EA0001100064000028
B1110575208670N01240525EA0001100064000016
B1111015208670N01240525EA0001100064000020
B1111055208670N01240525EA0001100064000024
B1111095208670N01240525EA0001100064000056
B1111135208670N01240525EA0001200064000040
B1111175208670N01240525EA0001200064000036
B1111215208670N01240525EA0001200064000048
B1111255208670N01240525EA0001200064000004
B1111295208670N01240525EA0001200064000020
B1111335208670N01240525EA0001200064000008
B1111375208670N01240525EA0001200064000008
B1111415208670N01240525EA0001200064000008
B1111455208670N01240525EA0001200064000008
B1111495208670N01240525EA0001200064000012
B1111535208670N01240525EA0001200064000008
B1111575208670N01240525EA0001200064000004
B1112015208670N01240525EA0001200064000008
B1112055208670N01240525EA0001200064000008
B1112095208670N01240525EA0001200064000008
B1112135208670N01240525EA0001200064000012
B1112175208670N01240525EA0001200064000008
B1112215208670N01240525EA0001200064000008
B1112255208670N01240525EA0001200064000008
B1112295208670N01240525EA0001200064000004
B1112335208670N01240525EA0001200064000008
B1112375208670N01240525EA0001200064000004
B1112415208670N01240525EA0001200064000004
B1112455208670N01240525EA0001200064000004
B1112495208670N01240525EA0001200064000004
B1112535208670N01240525EA0001200064000004
B1112575208670N01240525EA0001200064000004
B1113015208670N01240525EA0001200064000000
B1113055208670N01240525EA0001200064000000
B1113095208670N01240525EA0001200064000000
B1113135208670N01240525EA0001200064000000
B1113175208670N01240525EA0001200064000004
B1113215208670N01240525EA0001200064000000
B1113255208670N01240525EA0001200064000008
B1113295208670N01240525EA0001200064000008
B1113335208670N01240525EA0001200064000004
B1113375208670N01240525EA0001200064000008
B1113415208670N01240525EA0001200064000004
B1113455208670N01240525EA0001200064000004
B1113495208670N01240525EA0001200064000000
B1113535208670N01240525EA0001200064000000
B1113575208670N01240525EA0001200064000000
B1114015208670N01240525EA0001200064000000
B1114055208670N01240525EA0001200064000004
B1114095208670N01240525EA0001200064000000
B1114135208670N01240525EA0001200064000000
B1114175208670N01240525EA0001200064000000
B1114215208670N01240525EA0001200064000004
B1114255208670N01240525EA0001200064000000
B1114295208670N01240525EA0001200064000012
B1114335208670N01240525EA0001200064000008
B1114375208670N01240525EA0001200064000012
B1114415208670N01240525EA0001200064000012
B1114455208670N01240525EA0001200064000008
B1114495208670N01240525EA0001200064000008
B1114535208670N01240525EA0001200064000008
B1114575208670N01240525EA0001200064000008
B1115015208670N01240525EA0001200064000004
B1115055208670N01240525EA0001200064000008
B1115095208670N01240525EA0001200064000000
B1115135208670N01240525EA0001200064000000
B1115175208670N01240525EA0001200064000000
B1115215208670N01240525EA0001200064000000
B1115255208670N01240525EA0001200064000000
B1115295208670N01240525EA0001200064000000
B1115335208670N01240525EA0001200064000004
B1115375208670N01240525EA0001200064000000
B1115415208670N01240525EA0001200064000008
B1115455208670N01240525EA0001200064000008
B1115495208670N01240525EA0001200064000004
B1115535208670N01240525EA0001200064000008
B1115575208670N01240525EA0001200064000004
B1116015208670N01240525EA0001200064000004
B1116055208670N01240525EA0001200064000004
B1116095208670N01240525EA0001200064000004
B1116135208670N01240525EA0001200064000004
B1116175208670N01240525EA0001200064000004
B1116215208670N01240525EA0001200064000008
B1116255208670N01240525EA0001200064000008
B1116295208670N01240525EA0001200064000012
B1116335208670N01240525EA0001200064000008
B1116375208670N01240525EA0001200064000004
B1116415208670N01240525EA0001200064000008
B1116455208670N01240525EA0001200064000004
B1116495208670N01240525EA0001200064000004
B1116535208670N01240525EA0001200064000004
B1116575208670N01240525EA0001200064000004
B1117015208670N01240525EA0001200064000012
B1117055208670N01240525EA0001200064000008
B1117095208670N01240525EA0001200064000004
B1117135208670N01240525EA0001200064000008
B1117175208670N01240525EA0001200064000004
B1117215208670N01240525EA0001200064000004
B1117255208670N01240525EA0001200064000004
B1117295208670N01240525EA0001200064000004
B1117335208670N01240525EA0001200064000004
B1117375208670N01240525EA0001200064000004
B1117415208670N01240525EA0001200064000012
B1117455208670N01240525EA0001200064000008
B1117495208670N01240525EA0001200064000004
B1117535208670N01240525EA0001200064000008
B1117575208670N01240525EA0001200064000004
B1118015208670N01240525EA0001200064000004
B1118055208670N01240525EA0001100064000024
B1118095208670N01240525EA0001100064000016
B1118135208670N01240525EA0001100064000024
B1118175208670N01240525EA0001100064000024
B1118215208670N01240525EA0001100064000028
B1118255208670N01240525EA0001100064000024
B1118295208670N01240525EA0001100064000024
B1118335208670N01240525EA0001100064000024
B1118375208670N01240525EA0001100064000016
B1118415208670N01240525EA0001100064000020
B1118455208670N01240525EA0001100064000000
B1118495208670N01240525EA0001100064000008
B1118535208670N01240525EA0001100064000024
B1118575208670N01240525EA0001100064000012
B1119015208670N01240525EA0001100064000016
B1119055208670N01240525EA0001100064000020
B1119095208670N01240525EA0001100064000000
B1119135208670N01240525EA0001100064000008
B1119175208670N01240525EA0001100064000028
B1119215208670N01240525EA0001100064000016
B1119255208670N01240525EA0001200064000016
B1119295208670N01240525EA0001200064000024
B1119335208670N01240525EA0001200064000072
B1119375208670N01240525EA0001200064000044
B1119415208670N01240525EA0001200064000052
B1119455208670N01240525EA0001200064000064
B1119495208670N01240525EA0001200064000048
B1119535208670N01240525EA0001200064000048
B1119575208670N01240525EA0001200064000032
B1120015208670N01240520EA0001200064000040
B1120055208670N01240520EA0001200064000032
B1120095208670N01240525EA0001200064000032
B1120135208670N01240525EA0001200064000036
B1120175208670N01240525EA0001200064000032
B1120215208670N01240525EA0001200064000040
B1120255208670N01240525EA0001200064000040
B1120295208670N01240525EA0001200064000032
B1120335208670N01240525EA0001200064000036
B1120375208670N01240525EA0001200064000044
B1120415208670N01240525EA0001200064000040
B1120455208670N01240525EA0001200064000040
B1120495208670N01240525EA0001200064000040
B1120535208670N01240525EA0001200064000040
B1120575208670N01240525EA0001200064000040
B1121015208670N01240525EA0001200064000100
B1121055208670N01240525EA0001200064000152
B1121095208670N01240525EA0001200064000144
B1121135208670N01240525EA0001200064000144
B1121175208670N01240525EA0001200064000084
B1121215208670N01240525EA0001200064000112
B1121255208670N01240525EA0001200064000064
B1121295208670N01240525EA0001200064000072
B1121335208670N01240525EA0001200064000056
B1121375208670N01240525EA0001200064000060
B1121415208670N01240525EA0001200064000116
B1121455208670N01240525EA0001200064000088
B1121495208670N01240525EA0001200064000120
B1121535208670N01240525EA0001200064000148
B1121575208670N01240525EA0001200064000120
B1122015208670N01240525EA0001200064000136
B1122055208670N01240525EA0001200064000032
B1122095208670N01240525EA0001200064000076
B1122135208670N01240525EA0001200064000036
B1122175208670N01240525EA0001200064000032
B1122215208670N01240525EA0001200064000060
B1122255208670N01240525EA0001200064000048
B1122295208670N01240525EA0001200064000080
B1122335208670N01240525EA0001200064000072
B1122375208670N01240525EA0001200064000064
B1122415208670N01240525EA0001200064000072
B1122455208670N01240525EA0001200064000052
B1122495208670N01240525EA0001200064000056
B1122535208670N01240525EA0001200064000064
B1122575208670N01240525EA0001200064000056
B1123015208670N01240525EA0001200064000052
B1123055208670N01240525EA0001200064000056
B1123095208670N01240525EA0001200064000056
B1123135208670N01240525EA0001200064000056
B1123175208670N01240525EA0001200064000048
B1123215208670N01240525EA0001200064000052
B1123255208670N01240525EA0001200064000024
B1123295208670N01240525EA0001200064000036
B1123335208670N01240525EA0001200064000028
B1123375208670N01240525EA0001200064000024
B1123415208670N01240525EA0001200064000020
B1123455208670N01240525EA0001200064000024
B1123495208670N01240525EA0001200064000044
B1123535208670N01240525EA0001200064000032
B1123575208670N01240525EA0001200064000024
B1124015208670N01240525EA0001200064000032
B1124055208670N01240525EA0001200064000028
B1124095208670N01240525EA0001200064000024
B1124135208670N01240525EA0001100064000072
B1124175208670N01240525EA0001100064000048
B1124215208670N01240525EA0001100064000056
B1124255208670N01240525EA0001100064000064
B1124295208670N01240525EA0001100064000000
B1124335208670N01240525EA0001100064000028
B1124375208670N01240525EA0001100064000012
B1124415208670N01240525EA0001100064000008
B1124455208670N01240525EA0001100064000008
B1124495208670N01240525EA0001100064000008
B1124535208670N01240525EA0001100064000012
B1124575208670N01240525EA0001100064000008
B1125015208670N01240525EA0001100064000004
B1125055208670N01240525EA0001100064000008
B1125095208670N01240525EA0001100064000008
B1125135208670N01240525EA0001100064000008
B1125175208670N01240525EA0001100064000004
B1125215208670N01240525EA0001100064000008
B1125255208670N01240525EA0001100064000020
B1125295208670N01240525EA0001100064000012
B1125335208670N01240525EA0001100064000000
B1125375208670N01240525EA0001100064000008
B1125415208670N01240525EA0001100064000008
B1125455208670N01240525EA0001100064000004
B1125495208670N01240525EA0001100064000004
B1125535208670N01240525EA0001100064000008
B1125575208670N01240525EA0001100064000008
B1126015208670N01240525EA0001100064000008
B1126055208670N01240525EA0001100064000004
B1126095208670N01240525EA0001100064000008
B1126135208670N01240525EA0001100064000004
B1126175208670N01240525EA0001100064000004
B1126215208670N01240525EA0001100064000004
B1126255208670N01240525EA0001100064000004
B1126295208670N01240525EA0001100064000004
B1126335208670N01240525EA0001100064000004
B1126375208670N01240525EA0001100064000008
B1126415208670N01240525EA0001100064000008
B1126455208670N01240525EA0001100064000004
B1126495208670N01240525EA0001100064000008
B1126535208670N01240525EA0001100064000000
B1126575208670N01240525EA0001100064000000
B1127015208670N01240525EA0001100064000008
B1127055208670N01240525EA0001100064000004
B1127095208670N01240525EA0001100064000004
B1127135208670N01240525EA0001100064000008
B1127175208670N01240525EA0001100064000004
B1127215208670N01240525EA0001100064000004
B1127255208670N01240525EA0001100064000004
B1127295208670N01240525EA0001100064000004
B1127335208670N01240525EA0001100064000008
B1127375208670N01240525EA0001100064000008
B1127415208670N01240525EA0001100064000008
B1127455208670N01240525EA0001100064000008
B1127495208670N01240525EA0001100064000008
B1127535208670N01240525EA0001100064000008
B1127575208670N01240525EA0001100064000004
B1128015208670N01240525EA0001100064000008
B1128055208670N01240525EA0001100064000028
B1128095208670N01240525EA0001100064000016
B1128135208670N01240525EA0001200064000024
B1128175208670N01240525EA0001200064000024
B1128215208670N01240525EA0001200064000064
B1128255208670N01240525EA0001200064000044
B1128295208670N01240525EA0001200064000044
B1128335208670N01240525EA0001200064000056
B1128375208670N01240525EA0001200064000024
B1128415208670N01240525EA0001200064000032
B1128455208670N01240525EA0001200064000020
B1128495208670N01240525EA0001200064000024
B1128535208670N01240525EA0001200064000052
B1128575208670N01240525EA0001200064000036
B1129015208670N01240525EA0001200064000068
B1129055208670N01240525EA0001200064000060
B1129095208670N01240525EA0001200064000068
B1129135208670N01240525EA0001200064000068
B1129175208670N01240525EA0001200064000092
B1129215208670N01240525EA0001200064000080
B1129255208670N01240525EA0001200064000036
B1129295208670N01240525EA0001200064000064
B1129335208670N01240525EA0001200064000072
B1129375208670N01240525EA0001200064000056
B1129415208670N01240525EA0001200064000108
B1129455208670N01240525EA0001200064000088
B1129495208670N01240525EA0001200064005072
B1129535208670N01240525EA0001200064002088
B1129575208670N01240525EA0001200064001076
B1130015208670N01240525EA0001200064000072
B1130055208670N01240525EA0001200064000076
B1130095208670N01240525EA0001200064000076
B1130135208670N01240525EA0001200064000020
B1130175208670N01240525EA0001200064000048
B1130215208670N01240525EA0001200064000028
B1130255208670N01240525EA0001200064000024
B1130295208670N01240525EA0001200064000028
B1130335208670N01240525EA0001200064000028
B1130375208670N01240525EA0001200064000028
B1130415208670N01240525EA0001200064000028
B1130455208670N01240525EA0001200064000088
B1130495208670N01240525EA0001200064000056
B1130535208670N01240525EA0001200064000076
B1130575208670N01240525EA0001200064000080
B1131015208670N01240525EA0001200064000024
B1131055208670N01240525EA0001200064000048
B1131095208670N01240525EA0001200064000004
B1131135208670N01240525EA0001200064000016
B1131175208670N01240525EA0001200064000012
B1131215208670N01240525EA0001300064000008
B1131255208670N01240525EA0001300064000008
B1131295208670N01240525EA0001300064000008
B1131335208670N01240525EA0001300064000012
B1131375208670N01240525EA0001300064000008
B1131415208670N01240525EA0001300064000028
B1131455208670N01240525EA0001200064000020
B1131495208670N01240525EA0001200064000036
B1131535208670N01240525EA0001200064000032
B1131575208670N01240525EA0001200064000024
B1132015208670N01240525EA0001200064000032
B1132055208670N01240525EA0001200064000000
B1132095208670N01240525EA0001200064000012
B1132135208670N01240525EA0001200064000008
B1132175208670N01240525EA0001200064000004
B1132215208670N01240525EA0001200064000056
B1132255208670N01240525EA0001200064000032
B1132295208670N01240525EA0001200064000032
B1132335208670N01240525EA0001200064000044
B1132375208670N01240525EA0001200064000028
B1132415208670N01240525EA0001300064000032
B1132455208670N01240525EA0001300064000000
B1132495208670N01240520EA0001300064000016
B1132535208670N01240520EA0001300064000008
B1132575208670N01240520EA0001300064000004
B1133015208670N01240520EA0001300064000004
B1133055208670N01240520EA0001300064000008
B1133095208670N01240520EA0001300064000004
B1133135208670N01240520EA0001300064000004
B1133175208670N01240520EA0001300064000004
B1133215208670N01240520EA0001300064001004
B1133255208670N01240520EA0001300064000012
B1133295208670N01240520EA0001300064002008
B1133335208670N01240520EA0001300064000028
B1133375208670N01240520EA0001300064000020
B1133415208670N01240520EA0001300064000020
B1133455208670N01240520EA0001300064001024
B1133495208670N01240520EA0001300064000056
B1133535208670N01240525EA0001300064000040
B1133575208670N01240525EA0001300064000048
B1134015208670N01240525EA0001300064000052
B1134055208670N01240525EA0001300064000052
B1134095208675N01240525EA0001300064000048
B1134135208675N01240525EA0001300064000092
B1134175208670N01240525EA0001300064000072
B1134215208670N01240525EA0001300064000056
B1134255208670N01240525EA0001300064000072
B1134295208670N01240525EA0001300064000036
B1134335208670N01240525EA0001300064000048
B1134375208670N01240525EA0001300064000036
B1134415208670N01240525EA0001300064000036
B1134455208670N01240525EA0001300064000032
B1134495208670N01240525EA0001300064000032
B1134535208670N01240525EA0001300064000032
B1134575208670N01240525EA0001300064000032
B1135015208670N01240525EA0001400064000032
B1135055208670N01240525EA0001400064000032
B1135095208670N01240525EA0001400064000036
B1135135208670N01240525EA0001400064000032
B1135175208670N01240525EA0001400064000016
B1135215208670N01240525EA0001400064000024
B1135255208670N01240525EA0001400064000024
B1135295208670N01240525EA0001400064000020
B1135335208670N01240525EA0001300064000036
B1135375208670N01240525EA0001300064000032
B1135415208670N01240525EA0001300064000068
B1135455208670N01240525EA0001300064000052
B1135495208670N01240525EA0001300064000048
B1135535208670N01240525EA0001300064000056
B1135575208670N01240525EA0001300064000036
B1136015208670N01240525EA0001300064000040
B1136055208670N01240525EA0001300064000092
B1136095208670N01240525EA0001300064000064
B1136135208670N01240525EA0001300064000036
B1136175208670N01240525EA0001300064000064
B1136215208670N01240525EA0001300064000040
B1136255208670N01240525EA0001400064000040
B1136295208670N01240525EA0001400064000056
B1136335208670N01240525EA0001400064000048
B1136375208670N01240525EA0001400064008040
B1136415208670N01240525EA0001400064001048
B1136455208670N01240525EA0001400064009040
B1136495208670N01240525EA0001400064010040
B1136535208670N01240525EA0001400064003080
B1136575208670N01240525EA0001400064005060
B1137015208670N01240525EA0001400064005036
B1137055208670N01240525EA0001400064003056
B1137095208670N01240525EA0001400064000028
B1137135208670N01240525EA0001400064000032
B1137175208670N01240525EA0001400064005024
B1137215208670N01240525EA0001400064000024
B1137255208670N01240525EA0001400064002040
B1137295208670N01240525EA0001400064000032
B1137335208670N01240525EA0001400064000064
B1137375208670N01240525EA0001400064000128
B1137415208670N01240525EA0001400064000132
B1137455208670N01240525EA0001400064000132
B1137495208670N01240525EA0001400064000048
B1137535208670N01240525EA0001400064000088
B1137575208670N01240525EA0001400064000000
B1138015208670N01240525EA0001400064000024
B1138055208670N01240525EA0001400064000008
B1138095208670N01240525EA0001400064000004
B1138135208670N01240525EA0001400064000004
B1138175208670N01240525EA0001400064000008
B1138215208670N01240525EA0001400064000004
B1138255208670N01240525EA0001300064001004
B1138295208670N01240525EA0001300064000028
B1138335208670N01240525EA0001300064000016
B1138375208670N01240525EA0001300064000084
B1138415208670N01240525EA0001300064000056
B1138455208670N01240525EA0001300064000092
B1138495208670N01240525EA0001300064000088
B1138535208670N01240525EA0001300064006060
B1138575208670N01240525EA0001300064009076
B1139015208670N01240525EA0001300064000016
B1139055208670N01240525EA0001400064005040
B1139095208670N01240525EA0001400064003016
B1139135208670N01240525EA0001400064008016
B1139175208670N01240525EA0001400064009020
B1139215208670N01240525EA0001400064010016
B1139255208670N01240525EA0001400064000144
B1139295208670N01240525EA0001400064000136
B1139335208670N01240525EA0001400064004100
B1139375208670N01240525EA0001400064000208
B1139415208670N01240525EA0001400064000248
B1139455208670N01240525EA0001400064004160
B1139495208670N01240525EA0001400064006100
B1139535208670N01240525EA0001400064002128
B1139575208670N01240525EA0001400064000064
B1140015208670N01240525EA0001400064003080
B1140055208670N01240525EA0001400064000048
B1140095208670N01240525EA0001400064009056
B1140135208670N01240525EA0001400064005040
B1140175208670N01240525EA0001400064000044
B1140215208670N01240525EA0001400064000056
B1140255208670N01240525EA0001400064006048
B1140295208670N01240525EA0001400064007032
B1140335208670N01240525EA0001400064000044
B1140375208670N01240525EA0001400064003020
B1140415208670N01240525EA0001400064008024
B1140455208670N01240525EA0001400064008020
B1140495208670N01240525EA0001500064007020
B1140535208670N01240525EA0001500064006020
B1140575208670N01240525EA0001500064010020
B1141015208670N01240525EA0001500064000016
B1141055208670N01240525EA0001500064000016
B1141095208670N01240525EA0001500064000024
B1141135208670N01240525EA0001400064002020
B1141175208670N01240525EA0001400064000000
B1141215208670N01240525EA0001400064000012
B1141255208670N01240525EA0001400064000008
B1141295208670N01240525EA0001400064000004
B1141335208670N01240525EA0001400064000028
B1141375208670N01240525EA0001400064000016
B1141415208670N01240525EA0001400064000000
B1141455208670N01240525EA0001400064000016
B1141495208670N01240525EA0001400064000108
B1141535208670N01240525EA0001400064000056
B1141575208670N01240525EA0001400064000076
B1142015208670N01240525EA0001400064000092
B1142055208670N01240525EA0001400064000000
B1142095208670N01240525EA0001400064000040
B1142135208670N01240525EA0001400064000028
B1142175208670N01240525EA0001400064000016
B1142215208670N01240525EA0001400064000016
B1142255208670N01240525EA0001400064000024
B1142295208670N01240525EA0001400064000032
B1142335208670N01240525EA0001400064000024
B1142375208670N01240525EA0001400064000052
B1142415208670N01240525EA0001400064000040
B1142455208670N01240525EA0001400064000056
B1142495208670N01240525EA0001400064000056
B1142535208670N01240525EA0001400064000072
B1142575208670N01240525EA0001400064000064
B1143015208670N01240525EA0001400064000092
B1143055208670N01240525EA0001400064000128
B1143095208670N01240525EA0001400064000192
B1143135208670N01240525EA0001400064000168
B1143175208670N01240525EA0001400064000108
B1143215208670N01240525EA0001400064000136
B1143255208670N01240525EA0001400064000060
B1143295208670N01240525EA0001400064000084
B1143335208670N01240525EA0001400064000060
B1143375208670N01240525EA0001400064000144
B1143415208670N01240525EA0001400064000172
B1143455208670N01240525EA0001400064000172
B1143495208670N01240525EA0001400064000060
B1143535208670N01240525EA0001400064000116
B1143575208670N01240525EA0001400064000032
B1144015208670N01240525EA0001400064000048
B1144055208670N01240525EA0001400064000068
B1144095208670N01240525EA0001400064000212
B1144135208670N01240525EA0001400064000212
B1144175208670N01240525EA0001400064000212
B1144215208670N01240520EA0001400064000036
B1144255208670N01240520EA0001400064000124
B1144295208670N01240520EA0001400064000008
B1144335208670N01240520EA0001400064000024
B1144375208670N01240525EA0001400064000008
B1144415208670N01240525EA0001400064000008
B1144455208670N01240525EA0001400064000004
B1144495208670N01240525EA0001400064000008
B1144535208670N01240525EA0001400064000008
B1144575208670N01240525EA0001400064000008
B1145015208670N01240525EA0001400064000024
B1145055208670N01240520EA0001400064000016
B1145095208670N01240520EA0001400064000032
B1145135208670N01240520EA0001400064000028
B1145175208670N01240520EA0001400064000128
B1145215208670N01240520EA0001400064000128
B1145255208670N01240520EA0001400064000068
B1145295208670N01240520EA0001400064000096
B1145335208670N01240520EA0001400064000060
B1145375208670N01240520EA0001400064000064
B1145415208670N01240520EA0001400064000156
B1145455208670N01240520EA0001400064000200
B1145495208670N01240520EA0001400064000144
B1145535208670N01240520EA0001400064000144
B1145575208670N01240520EA0001400064000056
B1146015208670N01240520EA0001400064000100
B1146055208670N01240520EA0001400064000080
B1146095208670N01240520EA0001400064000068
B1146135208670N01240520EA0001400064000060
B1146175208670N01240520EA0001400064000072
B1146215208670N01240520EA0001400064000072
B1146255208670N01240520EA0001400064000064
B1146295208670N01240520EA0001400064000060
B1146335208670N01240520EA0001400064000064
B1146375208670N01240520EA0001400064000056
B1146415208670N01240520EA0001400064004056
B1146455208670N01240520EA0001400064000048
B1146495208670N01240520EA0001400064000052
B1146535208670N01240520EA0001400064000032
B1146575208670N01240520EA0001400064000040
B1147015208670N01240520EA0001400064000052
B1147055208670N01240520EA0001400064000040
B1147095208670N01240520EA0001400064000048
B1147135208670N01240520EA0001400064000048
B1147175208670N01240520EA0001400064000032
B1147215208670N01240520EA0001400064000040
B1147255208670N01240520EA0001400064000000
B1147295208670N01240525EA0001400064000016
B1147335208670N01240525EA0001400064000028
B1147375208670N01240520EA0001400064000016
B1147415208670N01240520EA0001400064000020
B1147455208670N01240520EA0001400064000024
B1147495208670N01240520EA0001400064000136
B1147535208670N01240520EA0001400064000136
B1147575208670N01240520EA0001400064006064
B1148015208670N01240520EA0001400064005100
B1148055208670N01240520EA0001400064005016
B1148095208670N01240520EA0001400064000040
B1148135208670N01240520EA0001400064000000
B1148175208670N01240520EA0001400064000008
B1148215208670N01240520EA0001400064000008
B1148255208670N01240520EA0001400064000004
B1148295208670N01240520EA0001400064000008
B1148335208670N01240520EA0001400064000008
B1148375208670N01240520EA0001400064000028
B1148415208670N01240520EA0001500064000016
B1148455208670N01240520EA0001500064000060
B1148495208670N01240520EA0001500064000044
B1148535208670N01240520EA0001500064000016
B1148575208670N01240520EA0001500064000040
B1149015208670N01240520EA0001500064000024
B1149055208670N01240520EA0001500064000020
B1149095208670N01240520EA0001500064000060
B1149135208670N01240520EA0001500064000040
B1149175208670N01240520EA0001500064000064
B1149215208670N01240520EA0001500064000064
B1149255208670N01240520EA0001500064001036
B1149295208670N01240520EA0001500064000048
B1149335208670N01240520EA0001500064000040
B1149375208670N01240520EA0001500064000040
B1149415208670N01240520EA0001500064000112
B1149455208670N01240520EA0001500064000244
B1149495208670N01240520EA0001500064005232
B1149535208670N01240520EA0001500064005232
B1149575208670N01240520EA0001500064005168
B1150015208670N01240520EA0001500064000320
B1150055208670N01240520EA0001500064000304
B1150095208670N01240520EA0001500064000168
B1150135208670N01240520EA0001500064000080
B1150175208670N01240520EA0001500064000124
B1150215208670N01240520EA0001500064000016
B1150255208670N01240520EA0001500064000048
B1150295208670N01240520EA0001500064000016
B1150335208670N01240520EA0001500064000016
B1150375208670N01240520EA0001500064000028
B1150415208670N01240520EA0001500064004024
B1150455208670N01240520EA0001500064000096
B1150495208670N01240520EA0001500064000268
B1150535208670N01240520EA0001500064000300
B1150575208670N01240520EA0001500064000212
B1151015208670N01240520EA0001500064000164
B1151055208670N01240520EA0001500064000164
B1151095208670N01240520EA0001500064000080
B1151135208670N01240520EA0001500064000212
B1151175208670N01240520EA0001500064000316
B1151215208670N01240520EA0001500064000212
B1151255208670N01240520EA0001500064000192
B1151295208670N01240520EA0001500064000240
B1151335208670N01240520EA0001500064000240
B1151375208670N01240520EA0001500064000248
B1151415208670N01240520EA0001500064000160
B1151455208670N01240520EA0001500064000160
B1151495208670N01240520EA0001500064000016
B1151535208670N01240520EA0001500064003088
B1151575208670N01240520EA0001500056000000
B1152015208670N01240520EA0001500056000008
B1152055208670N01240520EA0001500056000004
B1152095208670N01240520EA0001500056000000
B1152135208670N01240520EA0001500056000008
B1152175208670N01240520EA0001500056000008
B1152215208670N01240520EA0001500056000004
B1152255208670N01240520EA0001500056000008
B1152295208670N01240520EA0001500056000200
B1152335208670N01240520EA0001500056000208
B1152375208670N01240520EA0001500056000128
B1152415208670N01240520EA0001500056000212
B1152455208670N01240520EA0001500056000148
B1152495208670N01240520EA0001500056009148
B1152535208670N01240520EA0001500056016040
B1152575208670N01240520EA0001500056012096
B1153015208670N01240520EA0001500056020044
B1153055208670N01240520EA0001500056023040
B1153095208670N01240520EA0001500064016036
B1153135208670N01240520EA0001500064010040
B1153175208666N01240508EA0001500064041048
B1153215208658N01240475EA0001100064064332
B1153255208641N01240416EA0001100064089768
B1153295208620N01240345EA0001100064106972
B1153335208600N01240254EA0001100064119868
B1153375208570N01240154EA0001900072121584
K115337234013
B1153415208545N01240058EA0003300080122328
B1153455208529N01239962EA0004900096126240
B1153495208504N01239866EA0005900112122280
B1153535208475N01239770EA0007000128126300
B1153575208450N01239679EA0008300136122232
K115357222020
B1154015208429N01239579EA0009500152125188
B1154055208404N01239483EA0010400160128220
B1154095208379N01239379EA0012000168130208
B1154135208350N01239279EA0013200192122208
B1154175208320N01239175EA0014500200131200
K115417214024
B1154215208295N01239070EA0015800216132220
B1154255208266N01238970EA0017200240126264
B1154295208237N01238875EA0018800248123188
B1154335208216N01238779EA0019800256121188
B1154375208191N01238683EA0020200264121112
K115437200025
B1154415208170N01238579EA0020900272124152
B1154455208154N01238466EA0020900272127112
B1154495208141N01238350EA0021900280127112
B1154535208125N01238241EA0023100296126140
B1154575208108N01238133EA0024500304123140
K115457196024
B1155015208091N01238025EA0025700320120156
B1155055208075N01237916EA0025700320126152
B1155095208054N01237800EA0026000328129096
B1155135208029N01237687EA0027400336126204
B1155175208000N01237579EA0028100344129240
K115517184028
B1155215207975N01237470EA0029700360128160
B1155255207941N01237366EA0030300376127160
B1155295207912N01237262EA0031100376130168
B1155335207879N01237154EA0032600392125136
B1155375207850N01237054EA0034100408124164
K115537176029
B1155415207816N01236954EA0035700424125160
B1155455207787N01236858EA0037700448123132
B1155495207754N01236762EA0039400464126140
B1155535207725N01236666EA0040800480126132
B1155575207695N01236575EA0042000496123160
K115557182029
B1156015207666N01236479EA0042800496126160
B1156055207629N01236387EA0043600512124152
B1156095207591N01236308EA0044600512124196
B1156135207541N01236237EA0045000520129212
B1156175207479N01236191EA0045100528132200
K115617186030
B1156215207420N01236150EA0046300528128168
B1156255207358N01236125EA0047700544123228
B1156295207300N01236104EA0048800560123272
B1156335207237N01236079EA0049000568124188
B1156375207175N01236058EA0049400568126160
K115637174029
B1156415207112N01236033EA0050300576125156
B1156455207050N01236016EA0051100584123164
B1156495206983N01236008EA0051100592127208
B1156535206916N01236008EA0051800592127240
B1156575206854N01236020EA0052400600125316
K115657162026
B1157015206787N01236029EA0052500600126248
B1157055206720N01236033EA0053100608126136
B1157095206658N01236037EA0054900624119136
B1157135206595N01236041EA0055600632125136
B1157175206529N01236045EA0056400640124204
K115717190023
B1157215206466N01236066EA0057200648122276
B1157255206404N01236087EA0058200656121220
B1157295206341N01236112EA0058900664120172
B1157335206275N01236137EA0058900664123152
B1157375206212N01236158EA0059700672124148
K115737194022
B1157415206150N01236183EA0060700680118192
B1157455206091N01236212EA0061000688116172
B1157495206037N01236208EA0060100680114112
B1157535205979N01236175EA0059500680114144
B1157575205925N01236141EA0058000656121056
K115757208025
B1158015205858N01236112EA0056300648130084
B1158055205791N01236125EA0056100640128036
B1158095205733N01236170EA0055800640124048
B1158135205687N01236245EA0055300632118044
B1158175205658N01236350EA0055000624118040
K115817204024
B1158215205650N01236470EA0054400624123060
B1158255205662N01236595EA0054000616121052
B1158295205695N01236716EA0053400608122052
B1158335205729N01236837EA0052800600120056
B1158375205762N01236958EA0051900592121032
K115837204024
B1158415205791N01237079EA0051400584125040
B1158455205825N01237200EA0051000584126056
B1158495205862N01237320EA0050800584125044
B1158535205904N01237429EA0050200576128056
B1158575205945N01237537EA0050700576117056
K115857184016
B1159015206000N01237637EA0050800584114052
B1159055206054N01237737EA0051100584115056
B1159095206116N01237837EA0051200584117064
B1159135206170N01237929EA0052800600118056
B1159175206200N01238037EA0053800616109032
K115917194016
B1159215206166N01238133EA0053800608117048
B1159255206104N01238120EA0054100616118060
B1159295206087N01238029EA0054900624108048
B1159335206133N01237941EA0054700624114056
B1159375206208N01237937EA0055400624111056
K115937194016
B1159415206266N01238016EA0055900632109056
B1159455206270N01238129EA0056000632110056
B1159495206220N01238200EA0056200632115060
B1159535206162N01238158EA0056800640112056
B1159575206166N01238058EA0057300648108060
K115957204013
B1200015206229N01238008EA0057300648109060
B1200055206295N01238070EA0057200640118056
B1200095206312N01238175EA0058400656106056
B1200135206270N01238254EA0058000656113052
B1200175206212N01238212EA0057700648118056
K120017200012
B1200215206220N01238108EA0057800656111052
B1200255206287N01238062EA0057800648113052
B1200295206354N01238108EA0058600664109056
B1200335206379N01238216EA0058900664111056
B1200375206337N01238291EA0059000664116056
K120037186014
B1200415206287N01238241EA0060200672105056
B1200455206300N01238145EA0059900672106052
B1200495206366N01238104EA0059500672115056
B1200535206425N01238179EA0059500672108072
B1200575206412N01238283EA0060200680112064
K120057198011
B1201015206358N01238312EA0061000688110048
B1201055206325N01238237EA0061300688104060
B1201095206354N01238145EA0061200688104052
B1201135206425N01238129EA0061100688111048
B1201175206466N01238220EA0061000688109052
K120117198010
B1201215206441N01238329EA0060800688116052
B1201255206383N01238362EA0062100696112044
B1201295206345N01238287EA0062200696108048
B1201335206362N01238175EA0061500688115060
B1201375206404N01238070EA0061300688115052
K120137200010
B1201415206445N01237970EA0061900696109052
B1201455206487N01237870EA0062600696113056
B1201495206529N01237779EA0063800712109032
B1201535206600N01237733EA0063700712111040
B1201575206670N01237795EA0062700704122056
K120157198010
B1202015206675N01237916EA0063900712115044
B1202055206620N01237966EA0064400720118056
B1202095206579N01237900EA0065000728119056
B1202135206616N01237800EA0065100728124052
B1202175206695N01237833EA0065500728121056
K120217206018
B1202215206708N01237950EA0066400736114064
B1202255206658N01238008EA0066600744119056
B1202295206608N01237950EA0067000744123048
B1202335206645N01237845EA0067400752117056
B1202375206725N01237858EA0067500752120048
K120237196017
B1202415206754N01237970EA0068400760117048
B1202455206712N01238054EA0069100768117072
B1202495206658N01238029EA0069500776114060
B1202535206662N01237925EA0069500776115048
B1202575206733N01237862EA0069500776116060
K120257196018
B1203015206808N01237904EA0069500776114052
B1203055206825N01238020EA0070200784116048
B1203095206779N01238087EA0070800784119060
B1203135206729N01238037EA0071200792116056
B1203175206754N01237933EA0071400792116052
K120317192019
B1203215206829N01237900EA0072100800110056
B1203255206891N01237975EA0072100800116052
B1203295206887N01238083EA0072600800113052
B1203335206829N01238125EA0072500800121056
B1203375206791N01238050EA0073000808115056
K120337190017
B1203415206825N01237950EA0073000808117052
B1203455206900N01237937EA0073700816111056
B1203495206950N01238025EA0074000824111052
B1203535206929N01238125EA0074200824107052
B1203575206875N01238141EA0074000816113056
K120357192016
B1204015206825N01238079EA0075000824111056
B1204055206837N01237983EA0075300832110052
B1204095206916N01237966EA0074800824121056
B1204135206958N01238070EA0075400832115052
B1204175206925N01238154EA0075400832112052
K120417206010
B1204215206862N01238150EA0075700832114056
B1204255206829N01238079EA0076700848105056
B1204295206870N01237983EA0075800840119056
B1204335206950N01237975EA0076700848113056
B1204375207000N01238062EA0076900848114052
K120437192014
B1204415206970N01238158EA0077100848112056
B1204455206912N01238158EA0077000856115056
B1204495206875N01238083EA0078100864103056
B1204535206900N01237983EA0077600856109060
B1204575206970N01237925EA0077300856110056
K120457174015
B1205015207041N01237962EA0077800864113048
B1205055207058N01238070EA0077800864112056
B1205095207020N01238145EA0078100864106048
B1205135206966N01238162EA0078400864106048
B1205175206920N01238112EA0078800872101052
K120517178013
B1205215206916N01238016EA0078500864104048
B1205255206954N01237916EA0077700856110060
B1205295207012N01237833EA0077700856106056
B1205335207079N01237770EA0077300856110040
B1205375207158N01237733EA0077600856106048
K120537174014
B1205415207233N01237741EA0078200864101060
B1205455207283N01237829EA0077700856111048
B1205495207266N01237933EA0078100864115048
B1205535207212N01237920EA0079200872111056
B1205575207208N01237816EA0079500872113056
K120557182023
B1206015207270N01237737EA0080200880110052
B1206055207341N01237779EA0080200880107052
B1206095207362N01237895EA0080200880112056
B1206135207333N01237979EA0081700896110052
B1206175207283N01237950EA0082200904108052
K120617186022
B1206215207279N01237841EA0082400904114060
B1206255207341N01237766EA0082900912113056
B1206295207412N01237812EA0083000912110056
B1206335207429N01237929EA0082900912117056
B1206375207391N01238008EA0084500920111052
K120637186021
B1206415207341N01237987EA0085000936108056
B1206455207341N01237879EA0084400928116052
B1206495207408N01237812EA0085200936112052
B1206535207479N01237862EA0085400936109060
B1206575207508N01237970EA0085800936114056
K120657190022
B1207015207475N01238058EA0086600944114052
B1207055207425N01238070EA0088000960102056
B1207095207395N01237983EA0087000952117064
B1207135207445N01237883EA0088300960117056
B1207175207525N01237895EA0088400968113048
K120717190022
B1207215207570N01238000EA0088400968115056
B1207255207575N01238116EA0090200984109048
B1207295207529N01238166EA0090600992113048
B1207335207479N01238116EA0091700992113048
B1207375207491N01238008EA0092501008109048
K120737186023
B1207415207558N01237945EA0093101016106036
B1207455207629N01238000EA0092101008113040
B1207495207662N01238120EA0092701008114060
B1207535207641N01238216EA0095001032108048
B1207575207587N01238220EA0095001032112036
K120757186022
B1208015207570N01238120EA0095201032119048
B1208055207629N01238041EA0096301048112060
B1208095207712N01238079EA0096601048111048
B1208135207737N01238195EA0097801064113052
B1208175207700N01238275EA0098701072118056
K120817192026
B1208215207645N01238245EA0099301080112036
B1208255207629N01238141EA0099901080113044
B1208295207670N01238041EA0101701096110060
B1208335207754N01238037EA0102201112108048
B1208375207816N01238120EA0102001104115036
K120837182022
B1208415207829N01238241EA0102701112115048
B1208455207787N01238325EA0104101120117044
B1208495207733N01238312EA0105001136111040
B1208535207716N01238204EA0104501128117060
B1208575207762N01238095EA0105401136116052
K120857192022
B1209015207845N01238075EA0106901152110036
B1209055207912N01238162EA0106901152117048
B1209095207912N01238287EA0107801168117044
B1209135207862N01238354EA0109201176115040
B1209175207804N01238329EA0110101192110044
K120917190023
B1209215207779N01238233EA0110401192110044
B1209255207808N01238120EA0110601192111052
B1209295207875N01238050EA0111201200107048
B1209335207954N01238066EA0111801208108036
B1209375208004N01238170EA0111601208113044
K120937184019
B1209415208004N01238291EA0112201216114040
B1209455207958N01238362EA0113301224112040
B1209495207900N01238341EA0114201232112044
B1209535207870N01238254EA0115601240103040
B1209575207883N01238145EA0115601248114056
K120957184020
B1210015207954N01238083EA0115901248112048
B1210055208033N01238133EA0116001256114052
B1210095208066N01238250EA0116701256118056
B1210135208037N01238354EA0117801264115048
B1210175207975N01238366EA0118001272115048
K121017186018
B1210215207933N01238287EA0117901272116060
B1210255207937N01238170EA0118701272112056
B1210295207995N01238083EA0119301280112056
B1210335208079N01238087EA0119301280113056
B1210375208137N01238179EA0119801288111032
K121037184019
B1210415208141N01238295EA0120101296116044
B1210455208095N01238370EA0121301304113044
B1210495208037N01238358EA0121801312112040
B1210535208008N01238254EA0121401304121040
B1210575208050N01238141EA0121301304120040
K121057186019
B1211015208129N01238100EA0122201312116060
B1211055208204N01238158EA0123001320113048
B1211095208229N01238275EA0123001320115052
B1211135208195N01238370EA0123901328112056
B1211175208133N01238375EA0124201336115056
K121117186020
B1211215208091N01238291EA0124301336115056
B1211255208104N01238175EA0125001344112056
B1211295208170N01238100EA0125401344115056
B1211335208254N01238112EA0125701344115052
B1211375208308N01238204EA0126001352112056
K121137184018
B1211415208300N01238325EA0126001352118032
B1211455208245N01238387EA0127101368122040
B1211495208187N01238354EA0128301376111044
B1211535208166N01238245EA0127701368117040
B1211575208220N01238145EA0127601368123056
K121157188018
B1212015208304N01238129EA0128401376115048
B1212055208375N01238191EA0129201384111052
B1212095208395N01238300EA0129501384109056
B1212135208358N01238395EA0128801376119048
B1212175208300N01238425EA0129601392114048
K121217182018
B1212215208250N01238358EA0129501384111052
B1212255208245N01238241EA0128701376116048
B1212295208295N01238133EA0128401376117048
B1212335208375N01238095EA0129201384112048
B1212375208450N01238129EA0130001392111056
K121237172019
B1212415208491N01238233EA0130001392111052
B1212455208475N01238341EA0130101392112048
B1212495208429N01238416EA0130301400116052
B1212535208370N01238420EA0131201408106032
B1212575208333N01238333EA0130101400113040
K121257174018
B1213015208333N01238208EA0129901392115060
B1213055208362N01238091EA0130201400115048
B1213095208441N01238050EA0130601400110052
B1213135208508N01238116EA0130601400113056
B1213175208529N01238233EA0130601400114060
K121317172018
B1213215208508N01238333EA0131201408110056
B1213255208450N01238354EA0132001416112032
B1213295208425N01238258EA0132001416115048
B1213335208470N01238154EA0132601416114060
B1213375208545N01238150EA0133401424106048
K121337186020
B1213415208604N01238229EA0133001424112056
B1213455208604N01238345EA0133001424117056
B1213495208550N01238387EA0133501432117040
B1213535208504N01238320EA0134001432112048
B1213575208525N01238200EA0133801432122060
K121357180019
B1214015208604N01238158EA0134801440112048
B1214055208675N01238220EA0135201448107032
B1214095208704N01238329EA0135301448109048
B1214135208679N01238429EA0135901448109056
B1214175208625N01238433EA0135401448115044
K121417190021
B1214215208595N01238329EA0134901440119056
B1214255208625N01238212EA0135501448117056
B1214295208704N01238183EA0135901448114052
B1214335208766N01238270EA0135901448112056
B1214375208775N01238387EA0136001456108052
K121437184022
B1214415208741N01238479EA0136301456113052
B1214455208687N01238508EA0136401456108048
B1214495208637N01238450EA0135201448113048
B1214535208620N01238337EA0135401448112032
B1214575208645N01238225EA0136001456106040
K121457180017
B1215015208708N01238154EA0135901448105056
B1215055208791N01238141EA0134401440116044
B1215095208879N01238150EA0134401432117048
B1215135208950N01238229EA0134001432118052
B1215175208987N01238345EA0134001432119052
K121517180019
B1215215209000N01238479EA0133901432120048
B1215255208983N01238604EA0133701432127048
B1215295208945N01238712EA0134301432126048
B1215335208900N01238820EA0134301432130048
B1215375208858N01238920EA0133401424129048
K121537184018
B1215415208812N01239029EA0132601408132032
B1215455208766N01239137EA0131501400136040
B1215495208720N01239245EA0131001400136044
B1215535208675N01239354EA0131401400131040
B1215575208629N01239458EA0131601400132060
K121557182017
B1216015208583N01239562EA0131701408130052
B1216055208537N01239666EA0131501400129048
B1216095208491N01239775EA0130401392140056
B1216135208441N01239883EA0130101384139052
B1216175208387N01239987EA0130001384135048
K121617176017
B1216215208333N01240087EA0129501376134048
B1216255208279N01240187EA0128801368137048
B1216295208220N01240275EA0128601368138048
B1216335208154N01240354EA0128201368137048
B1216375208091N01240425EA0127201360136040
K121637206030
B1216415208020N01240487EA0127201360133044
B1216455207954N01240545EA0126801352133060
B1216495207891N01240604EA0126301344134048
B1216535207820N01240662EA0126301344134048
B1216575207754N01240720EA0125801344137056
K121657196024
B1217015207687N01240779EA0125401336135052
B1217055207620N01240845EA0125001336134048
B1217095207554N01240912EA0124501328134052
B1217135207487N01240979EA0123601320136052
B1217175207420N01241050EA0123401320135036
K121717172017
B1217215207358N01241120EA0123401320133044
B1217255207291N01241187EA0123101312131044
B1217295207225N01241258EA0122201304134040
B1217335207166N01241333EA0121601304135060
B1217375207108N01241416EA0121601296130052
K121737168015
B1217415207054N01241504EA0120801296128048
B1217455207004N01241600EA0120201280136056
B1217495206954N01241700EA0119801280136048
B1217535206904N01241795EA0119301272136048
B1217575206854N01241891EA0119001272134052
K121757156015
B1218015206808N01241987EA0118401272131048
B1218055206762N01242083EA0117801264132040
B1218095206712N01242166EA0117201256130048
B1218135206658N01242245EA0116401248132044
B1218175206604N01242320EA0115201240129040
K121817182025
B1218215206545N01242391EA0114201224130040
B1218255206483N01242454EA0113101216133040
B1218295206420N01242508EA0112401208134040
B1218335206350N01242550EA0111801200132040
B1218375206283N01242591EA0111301192138044
K121837196029
B1218415206216N01242625EA0111201192131040
B1218455206150N01242658EA0111201192128060
B1218495206083N01242695EA0111001192125052
B1218535206016N01242733EA0111001192126052
B1218575205945N01242770EA0111901200122056
K121857168020
B1219015205879N01242804EA0113101216121032
B1219055205820N01242850EA0114201224119040
B1219095205795N01242958EA0115101232120044
B1219135205845N01243066EA0115601240123040
B1219175205929N01243075EA0115901240124016
K121917168018
B1219215205983N01242975EA0116701248120032
B1219255205966N01242858EA0117001256118040
B1219295205904N01242808EA0117101256125028
B1219335205841N01242858EA0118901264123040
B1219375205829N01242975EA0119801280121040
K121937178013
B1219415205895N01243062EA0120101280128020
B1219455205979N01243033EA0121301304120032
B1219495206016N01242925EA0122101304119044
B1219535205991N01242812EA0122101304119032
B1219575205929N01242775EA0122401312121032
K121957172013
B1220015205862N01242800EA0124201320117040
B1220055205829N01242887EA0125901344116036
B1220095205862N01243000EA0126801352120032
B1220135205945N01243012EA0127701360121020
B1220175206000N01242912EA0128301368122028
K122017170011
B1220215205983N01242800EA0129201376121028
B1220255205916N01242770EA0130201384119024
B1220295205870N01242854EA0132201400118028
B1220335205891N01242970EA0133301416118028
B1220375205966N01243016EA0134301432119028
K122037178013
B1220415206037N01242950EA0134501432122028
B1220455206045N01242829EA0135301440119024
B1220495205995N01242754EA0136101448121024
B1220535205933N01242783EA0137201456121044
B1220575205920N01242900EA0138801472121032
K122057174014
B1221015205975N01242991EA0139501480121016
B1221055206062N01242966EA0140201488123032
B1221095206104N01242854EA0141101496121024
B1221135206079N01242741EA0141201496125020
B1221175206012N01242716EA0142401504129044
K122117174015
B1221215205979N01242816EA0144001528122032
B1221255206029N01242912EA0145301544117016
B1221295206112N01242900EA0146201552121032
B1221335206162N01242795EA0147201560117028
B1221375206150N01242683EA0147401560119024
K122137166016
B1221415206087N01242637EA0147701568120040
B1221455206029N01242695EA0148701568120032
B1221495206029N01242812EA0149301576117040
B1221535206087N01242895EA0150301592123040
B1221575206175N01242883EA0151501600121024
K122157166014
B1222015206229N01242783EA0151601608121032
B1222055206225N01242658EA0152001608122044
B1222095206170N01242583EA0152201608120032
B1222135206100N01242595EA0151601600122036
B1222175206054N01242687EA0151201600124040
K122217162013
B1222215206058N01242816EA0152001608128060
B1222255206104N01242920EA0153701624122048
B1222295206187N01242945EA0154401632117036
B1222335206258N01242879EA0155201640119048
B1222375206283N01242754EA0155601648122036
K122237174014
B1222415206245N01242662EA0156101648120036
B1222455206179N01242658EA0156101648121036
B1222495206137N01242750EA0156401656121036
B1222535206145N01242870EA0156801656123060
B1222575206208N01242954EA0157801664116048
K122257172016
B1223015206291N01242962EA0158901680112032
B1223055206358N01242887EA0158901680118048
B1223095206375N01242762EA0158901680118036
B1223135206337N01242670EA0158901680119032
B1223175206270N01242658EA0159101680113048
K122317170015
B1223215206225N01242741EA0158401672118040
B1223255206229N01242866EA0159101680122032
B1223295206275N01242966EA0159901688114040
B1223335206358N01242991EA0161001696110036
B1223375206425N01242925EA0162201712107032
K122337176015
B1223415206441N01242816EA0162201712109024
B1223455206404N01242729EA0161601704111032
B1223495206341N01242725EA0160601696112044
B1223535206295N01242812EA0160001688118032
B1223575206320N01242933EA0160001696119044
K122357178015
B1224015206383N01243020EA0161001704115044
B1224055206466N01243041EA0161801712111040
B1224095206533N01242966EA0161701704112040
B1224135206554N01242850EA0160901704115040
B1224175206525N01242745EA0160101696118040
K122417178016
B1224215206458N01242712EA0159801688118036
B1224255206400N01242770EA0159801688116040
B1224295206395N01242887EA0160001696121040
B1224335206450N01242983EA0160001696121040
B1224375206537N01242987EA0160501696123032
K122437170014
B1224415206604N01242900EA0160901704115036
B1224455206620N01242779EA0160401696115036
B1224495206587N01242679EA0159801688117032
B1224535206520N01242658EA0159601688119032
B1224575206470N01242725EA0159501680116032
K122457166016
B1225015206466N01242841EA0159401688118040
B1225055206512N01242950EA0159901688115036
B1225095206587N01243008EA0159901688113040
B1225135206670N01242991EA0159901688115040
B1225175206737N01242908EA0159801688111044
K122517172018
B1225215206762N01242783EA0158701672117040
B1225255206750N01242666EA0157801664116020
B1225295206708N01242575EA0157301664117032
B1225335206645N01242558EA0156301656124024
B1225375206591N01242625EA0156301656120024
K122537168020
B1225415206591N01242745EA0156201656117044
B1225455206641N01242845EA0155601648120032
B1225495206725N01242895EA0155601648115044
B1225535206808N01242879EA0155501648117044
B1225575206887N01242820EA0154501632116044
K122557168020
B1226015206962N01242750EA0154001632118044
B1226055207029N01242675EA0154001632111044
B1226095207100N01242587EA0153201624112044
B1226135207166N01242495EA0151701608120036
B1226175207229N01242395EA0151101600119040
K122617168020
B1226215207291N01242295EA0150701592117036
B1226255207350N01242200EA0150201592114036
B1226295207412N01242100EA0149201584116040
B1226335207475N01242000EA0148601576119040
B1226375207537N01241895EA0148001568117032
K122637182025
B1226415207595N01241791EA0147801568119036
B1226455207650N01241679EA0147601568120040
B1226495207700N01241562EA0147101560121036
B1226535207745N01241445EA0147101560121044
B1226575207791N01241333EA0146801560119040
K122657184029
B1227015207837N01241220EA0146401552121044
B1227055207891N01241120EA0146401552116044
B1227095207954N01241025EA0145801544118044
B1227135208016N01240933EA0145201544121044
B1227175208075N01240841EA0144501536122044
K122717192031
B1227215208137N01240745EA0144501536121044
B1227255208195N01240654EA0144501536119060
B1227295208241N01240545EA0144801536117052
B1227335208279N01240437EA0145301544113048
B1227375208283N01240320EA0144801536112056
K122737198026
B1227415208250N01240220EA0143901528117040
B1227455208187N01240200EA0143501520117044
B1227495208137N01240262EA0143501528111040
B1227535208125N01240375EA0142601520115040
B1227575208150N01240500EA0142301512122036
K122757198026
B1228015208195N01240616EA0142501512121040
B1228055208266N01240683EA0143301520113036
B1228095208345N01240666EA0143601528111036
B1228135208391N01240570EA0143801528110044
B1228175208387N01240466EA0143501528113040
K122817188016
B1228215208329N01240416EA0142901520117044
B1228255208270N01240458EA0142801512121044
B1228295208245N01240570EA0142601512122040
B1228335208270N01240695EA0142601512117040
B1228375208329N01240800EA0141901504121036
K122837196019
B1228415208387N01240916EA0140901496128040
B1228455208441N01241037EA0139601488129060
B1228495208495N01241166EA0138101472135048
B1228535208541N01241304EA0137701464137036
B1228575208579N01241450EA0137101456137048
K122857196019
B1229015208612N01241595EA0136401448142060
B1229055208645N01241745EA0136301448138048
B1229095208670N01241891EA0136201448138052
B1229135208691N01242037EA0135801440136056
B1229175208700N01242183EA0135601440135072
K122917192021
B1229215208695N01242325EA0135301440135064
B1229255208670N01242454EA0135301440133048
B1229295208633N01242566EA0135301432134060
B1229335208587N01242666EA0134401432132048
B1229375208537N01242766EA0133001416140048
K122937186031
B1229415208487N01242866EA0132601408140052
B1229455208445N01242970EA0132301408134048
B1229495208400N01243066EA0131801400136032
B1229535208345N01243150EA0131801400134040
B1229575208287N01243208EA0131501400129056
K122957202043
B1230015208216N01243250EA0131001392133044
B1230055208141N01243270EA0131101392133052
B1230095208066N01243283EA0131101392134056
B1230135207987N01243279EA0132201400132040
B1230175207916N01243266EA0134001424125048
K123017230046
B1230215207854N01243304EA0134301432125044
B1230255207829N01243420EA0135201432126040
B1230295207862N01243545EA0135501440129032
B1230335207941N01243612EA0135501440125040
B1230375208029N01243583EA0135501440124040
K123037228042
B1230415208087N01243479EA0136301448123036
B1230455208095N01243354EA0136601456126040
B1230495208041N01243283EA0137101456126040
B1230535207975N01243320EA0137701464125036
B1230575207954N01243433EA0138501472127040
K123057180021
B1231015207995N01243550EA0139501480120040
B1231055208079N01243595EA0139601480124040
B1231095208162N01243533EA0139601480129036
B1231135208195N01243408EA0140001488127040
B1231175208170N01243291EA0140001488131036
K123117184019
B1231215208108N01243233EA0140001488128036
B1231255208037N01243225EA0140901488128040
B1231295207966N01243225EA0142501512120040
B1231335207916N01243300EA0142501512119040
B1231375207920N01243425EA0142101504131040
K123137180016
B1231415207991N01243500EA0143401520120036
B1231455208075N01243470EA0143501520124040
B1231495208120N01243354EA0143801528124044
B1231535208104N01243225EA0144501536125040
B1231575208050N01243150EA0145001544125032
K123157164013
B1232015207979N01243141EA0145501544120040
B1232055207916N01243183EA0145401544123032
B1232095207845N01243212EA0144501536127032
B1232135207770N01243229EA0143201520132060
B1232175207691N01243237EA0142301512141048
K123217164013
B1232215207612N01243245EA0141901504137032
B1232255207537N01243254EA0142101512132048
B1232295207470N01243304EA0142401512129040
B1232335207441N01243408EA0142601520124036
B1232375207458N01243533EA0142901520125044
K123237216030
B1232415207520N01243629EA0143001520123040
B1232455207600N01243700EA0142901520121040
B1232495207683N01243741EA0142901520123040
B1232535207766N01243720EA0142901520118044
B1232575207837N01243645EA0142101504117040
K123257216030
B1233015207916N01243583EA0141001496119044
B1233055208008N01243579EA0140401488121044
B1233095208095N01243604EA0139501488118036
B1233135208183N01243650EA0139501480122040
B1233175208258N01243716EA0140501496112040
K123317216030
B1233215208337N01243762EA0140401488117040
B1233255208420N01243745EA0140101488115060
B1233295208491N01243670EA0140601496115048
B1233335208520N01243550EA0141101496121036
B1233375208487N01243441EA0141501504122048
K123337216030
B1233415208425N01243404EA0142101512120032
B1233455208366N01243454EA0142801512119032
B1233495208358N01243570EA0143501528120044
B1233535208416N01243670EA0143901528120040
B1233575208508N01243679EA0144201528122032
K123357174017
B1234015208579N01243595EA0145701544122040
B1234055208595N01243475EA0145901552122036
B1234095208550N01243383EA0145201544122032
B1234135208479N01243358EA0145301544127032
B1234175208412N01243404EA0146001552122032
K123417178017
B1234215208387N01243516EA0146501552123040
B1234255208425N01243645EA0146701560126036
B1234295208512N01243691EA0147701568121040
B1234335208595N01243641EA0148601576111040
B1234375208633N01243525EA0148701576118036
K123437184019
B1234415208612N01243408EA0148701576122040
B1234455208550N01243350EA0149101576126040
B1234495208487N01243383EA0149401584120040
B1234535208458N01243491EA0149801584125036
B1234575208491N01243612EA0150101592121040
K123457178021
B1235015208570N01243666EA0150301592117032
B1235055208658N01243633EA0150301592110032
B1235095208716N01243541EA0150201592119036
B1235135208741N01243408EA0150301592121032
B1235175208725N01243287EA0150301592120032
K123517174020
B1235215208683N01243191EA0150201592121032
B1235255208620N01243145EA0150201592122036
B1235295208550N01243133EA0150101584117032
B1235335208483N01243150EA0148801584118040
B1235375208416N01243187EA0147701568120040
K123537170018
B1235415208345N01243225EA0146601552127040
B1235455208275N01243254EA0146601552124040
B1235495208208N01243275EA0146701560121040
B1235535208150N01243320EA0146701552119040
B1235575208095N01243387EA0146401552122044
K123557170018
B1236015208050N01243466EA0146701552117040
B1236055208012N01243562EA0146401552116060
B1236095207979N01243670EA0146201552117052
B1236135207962N01243795EA0145801544118032
B1236175207966N01243925EA0145401544121048
K123617170018
B1236215208008N01244041EA0145201536119040
B1236255208083N01244112EA0145001536123036
B1236295208166N01244091EA0145801544118036
B1236335208225N01244000EA0146501552115040
B1236375208229N01243883EA0145701544121036
K123637170018
B1236415208191N01243783EA0145401536122036
B1236455208129N01243733EA0145501544121040
B1236495208058N01243758EA0145501544120040
B1236535208008N01243854EA0145501544125040
B1236575207962N01243954EA0145201536123040
K123657198013
B1237015207900N01244004EA0144901536119048
B1237055207833N01243987EA0144001528123044
B1237095207766N01243933EA0142901512129032
B1237135207700N01243866EA0141801504137040
B1237175207633N01243795EA0141501496139060
K123717198013
B1237215207566N01243745EA0141501504134048
B1237255207495N01243700EA0141001496131032
B1237295207425N01243654EA0140401488135048
B1237335207354N01243629EA0140201488137060
B1237375207279N01243604EA0140501496134048
K123737164024
B1237415207204N01243583EA0141201496134048
B1237455207133N01243562EA0142801520122056
B1237495207066N01243550EA0143301520122036
B1237535207000N01243533EA0143801528117040
B1237575206937N01243512EA0144201528111040
K123757162019
B1238015206870N01243491EA0143701520117040
B1238055206804N01243470EA0144201528115040
B1238095206750N01243416EA0144401528111040
B1238135206729N01243312EA0143801520113036
B1238175206754N01243195EA0143301520113040
K123817186017
B1238215206816N01243116EA0142301512114044
B1238255206904N01243104EA0140901496121040
B1238295206987N01243166EA0139901488130032
B1238335207058N01243258EA0139901480127040
B1238375207112N01243370EA0140201488121056
K123837186017
B1238415207145N01243483EA0141001496112044
B1238455207145N01243600EA0141601504111032
B1238495207095N01243675EA0141001496122044
B1238535207033N01243650EA0141401496120040
B1238575207012N01243545EA0142201512110036
K123857182017
B1239015207054N01243450EA0141901504112044
B1239055207129N01243404EA0141301496113040
B1239095207208N01243437EA0141001496110036
B1239135207254N01243541EA0141001496117040
B1239175207241N01243654EA0142201504110036
K123917186015
B1239215207183N01243679EA0142201512112036
B1239255207137N01243604EA0142401512110056
B1239295207154N01243491EA0142501512115048
B1239335207229N01243450EA0143301520109044
B1239375207291N01243520EA0143601520109048
K123937186015
B1239415207295N01243633EA0144001528109040
B1239455207245N01243683EA0144101528105040
B1239495207191N01243641EA0144401528109044
B1239535207183N01243533EA0144501536108040
B1239575207233N01243445EA0145001536107040
K123957180014
B1240015207312N01243454EA0144901536112040
B1240055207354N01243550EA0145001536112040
B1240095207337N01243645EA0145901544109040
B1240135207279N01243662EA0146401552110036
B1240175207250N01243570EA0146401552113040
K124017178016
B1240215207295N01243470EA0146301552115040
B1240255207375N01243483EA0146401552112040
B1240295207416N01243583EA0146901552112032
B1240335207400N01243691EA0147701560110036
B1240375207341N01243716EA0147901568113036
K124037190016
B1240415207312N01243625EA0147901568114032
B1240455207358N01243525EA0148101568115044
B1240495207441N01243533EA0148701576114040
B1240535207475N01243637EA0149301576112040
B1240575207445N01243737EA0149801584111040
K124057188017
B1241015207387N01243745EA0150601592107028
B1241055207366N01243645EA0150201584114032
B1241095207416N01243550EA0150501592113060
B1241135207495N01243562EA0151101600111044
B1241175207525N01243670EA0151201600116032
K124117186016
B1241215207487N01243758EA0152001608112048
B1241255207433N01243733EA0152501616107040
B1241295207429N01243620EA0152401616111036
B1241335207491N01243541EA0152401616112036
B1241375207570N01243558EA0153401624109040
K124137178016
B1241415207608N01243662EA0153701624109036
B1241455207575N01243750EA0154201632107036
B1241495207520N01243745EA0154201632109052
B1241535207495N01243650EA0154701640106044
B1241575207537N01243550EA0154901640107048
K124157180018
B1242015207612N01243516EA0155101640104048
B1242055207679N01243570EA0155101640107036
B1242095207704N01243675EA0156101648105040
B1242135207666N01243745EA0156101648106044
B1242175207612N01243716EA0156001648108040
K124217178019
B1242215207595N01243616EA0156001648104032
B1242255207645N01243520EA0155501640110040
B1242295207725N01243512EA0155101640110040
B1242335207787N01243591EA0155801640106036
B1242375207804N01243691EA0157301664094040
K124237178019
B1242415207770N01243762EA0156901656106040
B1242455207716N01243745EA0156501656109040
B1242495207691N01243645EA0157001664104040
B1242535207733N01243550EA0157001656102036
B1242575207808N01243516EA0156801656104040
K124257174019
B1243015207879N01243562EA0157001664105040
B1243055207908N01243666EA0158101672104040
B1243095207875N01243741EA0158501672103044
B1243135207820N01243725EA0158501672110040
B1243175207795N01243625EA0158901680105036
K124317172021
B1243215207829N01243520EA0159401688102040
B1243255207904N01243475EA0158701680110036
B1243295207979N01243533EA0158001664115036
B1243335207987N01243645EA0158001672114040
B1243375207945N01243716EA0158901680112040
K124337164019
B1243415207887N01243691EA0159201688110044
B1243455207866N01243591EA0159701688112040
B1243495207916N01243491EA0159901688111040
B1243535208000N01243491EA0159601688115040
B1243575208054N01243587EA0160001688111052
K124357174019
B1244015208050N01243695EA0160701696109048
B1244055208000N01243741EA0160401696112032
B1244095207950N01243687EA0161201704109040
B1244135207941N01243579EA0162201712104044
B1244175207987N01243487EA0162401720104040
K124417170020
B1244215208066N01243466EA0161701712107036
B1244255208129N01243541EA0161101704112040
B1244295208154N01243650EA0161901712106032
B1244335208133N01243745EA0161901712107032
B1244375208075N01243770EA0162301712111040
K124437172021
B1244415208033N01243704EA0162401720107036
B1244455208033N01243591EA0163401728108040
B1244495208091N01243504EA0163501728106040
B1244535208175N01243495EA0163101728107048
B1244575208245N01243562EA0162801720108044
K124457174022
B1245015208266N01243670EA0162801720109048
B1245055208233N01243754EA0162801720109048
B1245095208175N01243770EA0163701728109032
B1245135208129N01243708EA0164101728106040
B1245175208133N01243587EA0162801720115044
K124517174021
B1245215208195N01243495EA0163701728110040
B1245255208275N01243491EA0162801728105040
B1245295208345N01243566EA0161701712115040
B1245335208366N01243683EA0161901712112040
B1245375208325N01243766EA0161601712114040
K124537174021
B1245415208266N01243804EA0161901712113040
B1245455208204N01243783EA0162401720112040
B1245495208187N01243679EA0162301712119036
B1245535208245N01243587EA0162401712116040
B1245575208329N01243608EA0162401720112040
K124557186018
B1246015208387N01243695EA0162701720112040
B1246055208395N01243812EA0162701720109040
B1246095208354N01243900EA0163201728108040
B1246135208300N01243920EA0164101736102056
B1246175208254N01243879EA0164401744098048
K124617196016
B1246215208237N01243791EA0164101736103048
B1246255208266N01243683EA0163601728110052
B1246295208337N01243633EA0163701736104048
B1246335208412N01243658EA0163201728107048
B1246375208458N01243758EA0162601720110036
K124637192015
B1246415208445N01243875EA0162301720117040
B1246455208400N01243962EA0162201720117040
B1246495208341N01243991EA0163001728111040
B1246535208291N01243937EA0163401728108040
B1246575208279N01243833EA0163101728112040
K124657190016
B1247015208316N01243725EA0163101728110036
B1247055208387N01243679EA0163501728108040
B1247095208462N01243708EA0163501736108040
B1247135208512N01243808EA0163501736109040
B1247175208500N01243920EA0163701736109056
K124717188016
B1247215208445N01243966EA0163401736113048
B1247255208383N01243933EA0163401728116068
B1247295208354N01243837EA0163101728114064
B1247335208383N01243729EA0163201728111032
B1247375208458N01243687EA0163201728110048
K124737184017
B1247415208533N01243737EA0163201728111040
B1247455208570N01243841EA0163501736105036
B1247495208558N01243954EA0162801728110036
B1247535208520N01244050EA0162701720110040
B1247575208466N01244075EA0163001728104040
K124757192016
B1248015208420N01244008EA0161701712113040
B1248055208387N01243908EA0162301720111040
B1248095208370N01243795EA0162701728109040
B1248135208379N01243683EA0163801736105044
B1248175208450N01243629EA0163101728113040
K124817188014
B1248215208525N01243683EA0162801728117052
B1248255208566N01243791EA0163801736108048
B1248295208554N01243895EA0163801736108032
B1248335208495N01243941EA0162801728114040
B1248375208433N01243895EA0162801720113040
K124837180013
B1248415208391N01243804EA0163801736109036
B1248455208379N01243700EA0164301744098032
B1248495208408N01243600EA0163801736107036
B1248535208483N01243558EA0163301728114032
B1248575208554N01243595EA0164001736103032
K124857176013
B1249015208587N01243695EA0164001736105044
B1249055208562N01243795EA0163301736111040
B1249095208500N01243833EA0163201728115040
B1249135208437N01243800EA0164001744111040
B1249175208412N01243700EA0164101744113036
K124917174011
B1249215208445N01243587EA0163801736115040
B1249255208516N01243541EA0163801736109036
B1249295208591N01243591EA0163401728115036
B1249335208612N01243704EA0163301736118036
B1249375208566N01243791EA0164001744114036
K124937168011
B1249415208500N01243804EA0164401752115044
B1249455208445N01243733EA0164801752112040
B1249495208437N01243616EA0164701744111032
B1249535208479N01243516EA0164701744111040
B1249575208550N01243483EA0163301728112036
K124957156010
B1250015208620N01243545EA0162901736112032
B1250055208650N01243658EA0163701736111036
B1250095208637N01243766EA0164801752106036
B1250135208591N01243829EA0165701760111032
B1250175208529N01243795EA0165701760114032
K125017172010
B1250215208512N01243679EA0165301752117036
B1250255208558N01243575EA0165701760113032
B1250295208633N01243545EA0166201768110048
B1250335208695N01243600EA0166301768110040
B1250375208716N01243716EA0166101760117032
K125037168011
B1250415208683N01243820EA0166701768114040
B1250455208620N01243837EA0167001768117036
B1250495208587N01243745EA0167201768115032
B1250535208629N01243641EA0167101768118040
B1250575208708N01243645EA0167101768112040
K125057182011
B1251015208750N01243750EA0167101760118040
B1251055208729N01243858EA0167401768114040
B1251095208662N01243883EA0167801776115040
B1251135208616N01243804EA0168301776113040
B1251175208633N01243687EA0168501776114036
K125117176009
B1251215208712N01243658EA0167401768123040
B1251255208766N01243750EA0168601776117044
B1251295208754N01243866EA0169401784113040
B1251335208700N01243929EA0169801792114040
B1251375208641N01243875EA0169801792117040
K125137186007
B1251415208641N01243758EA0169601784117032
B1251455208712N01243700EA0169501784116036
B1251495208779N01243754EA0169501792113044
B1251535208795N01243866EA0170301792110040
B1251575208754N01243950EA0170301792115044
K125157188009
B1252015208687N01243929EA0170101792111044
B1252055208658N01243825EA0169601784113044
B1252095208683N01243716EA0169501784110044
B1252135208754N01243666EA0168701776111036
B1252175208820N01243729EA0168301776114040
K125217172007
B1252215208837N01243845EA0169401784109040
B1252255208804N01243937EA0169701792107040
B1252295208741N01243966EA0169701792104044
B1252335208683N01243916EA0168701784111040
B1252375208658N01243812EA0167401768109044
K125237184006
B1252415208695N01243712EA0165301752111044
B1252455208775N01243700EA0162801720127036
B1252495208845N01243779EA0163701720127040
B1252535208883N01243887EA0165801744109052
B1252575208870N01244000EA0165601752110044
K125257212005
B1253015208812N01244066EA0164701736113040
B1253055208741N01244062EA0164701744113048
B1253095208704N01243979EA0164101728111040
B1253135208725N01243862EA0162801720117040
B1253175208791N01243795EA0161301704116036
K125317224006
B1253215208870N01243791EA0161101704119040
B1253255208933N01243858EA0161901712113036
B1253295208958N01243970EA0161701712111036
B1253335208929N01244083EA0160701696119032
B1253375208858N01244116EA0160701696114032
K125337214007
B1253415208800N01244054EA0160301688113040
B1253455208800N01243937EA0158901680113036
B1253495208858N01243854EA0157401664118032
B1253535208937N01243845EA0156901656123036
B1253575209008N01243904EA0156801656120032
K125357220005
B1254015209054N01244008EA0156901656113032
B1254055209037N01244120EA0157101656115040
B1254095208979N01244175EA0156201656115036
B1254135208912N01244133EA0155001640119020
B1254175208879N01244029EA0154501632113032
K125417198006
B1254215208908N01243916EA0152901616118044
B1254255208975N01243845EA0151901600119032
B1254295209054N01243820EA0150901600122036
B1254335209137N01243833EA0150701592116040
B1254375209208N01243895EA0150801600118040
K125437188009
B1254415209258N01244000EA0152601616113040
B1254455209237N01244112EA0152601616120036
B1254495209170N01244116EA0153401616117040
B1254535209145N01244008EA0153601624113036
B1254575209187N01243904EA0153501616119036
K125457182012
B1255015209275N01243904EA0153701624122052
B1255055209341N01243983EA0155301640116044
B1255095209358N01244100EA0156401656110036
B1255135209308N01244166EA0156301648116044
B1255175209254N01244108EA0156401648116036
K125517188014
B1255215209262N01243991EA0157001656111036
B1255255209337N01243950EA0157001664121056
B1255295209408N01244012EA0158601672113048
B1255335209433N01244125EA0159101680109032
B1255375209387N01244200EA0158701672113044
K125537190012
B1255415209329N01244154EA0159101680109040
B1255455209329N01244050EA0159401680109036
B1255495209395N01243987EA0159901688111044
B1255535209458N01244045EA0160201688109040
B1255575209462N01244162EA0159801688112056
K125557190008
B1256015209404N01244220EA0159801688111048
B1256055209350N01244158EA0158901672115032
B1256095209354N01244033EA0158201672120044
B1256135209400N01243925EA0158301672119060
B1256175209470N01243850EA0158901680121048
K125617182010
B1256215209550N01243829EA0159801688108048
B1256255209629N01243850EA0159501680115056
B1256295209691N01243929EA0160001688109036
B1256335209695N01244041EA0160201696109040
B1256375209654N01244125EA0160201688112056
K125637178014
B1256415209600N01244183EA0160201688108048
B1256455209541N01244204EA0159801688108032
B1256495209479N01244179EA0159501680110044
B1256535209433N01244100EA0159501680106040
B1256575209416N01243991EA0159201680107036
K125657166012
B1257015209425N01243870EA0158701672114060
B1257055209470N01243770EA0158901680110048
B1257095209545N01243733EA0159201680108032
B1257135209620N01243758EA0159201680113048
B1257175209683N01243833EA0159901688109044
K125717160011
B1257215209708N01243941EA0160301696106040
B1257255209695N01244058EA0159901688112036
B1257295209654N01244141EA0159801688112040
B1257335209591N01244162EA0159801688109036
B1257375209533N01244129EA0159801688101036
K125737174011
B1257415209495N01244037EA0158401672109036
B1257455209495N01243916EA0157801664115036
B1257495209541N01243820EA0157801664111036
B1257535209612N01243779EA0157701664111036
B1257575209691N01243770EA0157501664105044
K125757182010
B1258015209766N01243808EA0157501664110040
B1258055209820N01243895EA0158301672106040
B1258095209837N01244008EA0158201672107040
B1258135209808N01244104EA0157401664111032
B1258175209745N01244145EA0157401664109036
K125817182012
B1258215209687N01244129EA0157601672104040
B1258255209645N01244054EA0157301664106036
B1258295209629N01243945EA0156801656107036
B1258335209658N01243837EA0156501656111040
B1258375209716N01243766EA0156501656108052
K125837182012
B1258415209791N01243745EA0156601656102044
B1258455209870N01243758EA0156501656105056
B1258495209933N01243829EA0156601656104056
B1258535209962N01243941EA0156501656106036
B1258575209958N01244050EA0156001648107048
K125857184013
B1259015209916N01244137EA0154901640111044
B1259055209858N01244187EA0154801640114040
B1259095209795N01244195EA0154801640109040
B1259135209729N01244166EA0154001632111040
B1259175209670N01244104EA0152901616115040
K125917184013
B1259215209637N01244004EA0152201608112040
B1259255209645N01243883EA0150401592117036
B1259295209670N01243762EA0147701576123040
B1259335209708N01243633EA0146101552130036
B1259375209733N01243500EA0144501536131036
K125937184013
B1259415209758N01243362EA0143301520131036
B1259455209783N01243216EA0142001504138036
B1259495209812N01243070EA0140601496140056
B1259535209841N01242920EA0139201480139048
B1259575209875N01242775EA0138701472143048
K125957180018
B1300015209912N01242629EA0138101472143052
B1300055209945N01242483EA0137601464141048
B1300095209983N01242337EA0136701456145048
B1300135210012N01242187EA0136301448150048
B1300175210045N01242041EA0136201448141048
K130017184031
B1300215210079N01241891EA0134901440148052
B1300255210108N01241741EA0134701432150048
B1300295210137N01241595EA0134701432147048
B1300335210166N01241450EA0134701432143048
B1300375210191N01241304EA0134301432145056
K130037188037
B1300415210216N01241158EA0133301424146052
B1300455210245N01241016EA0132301416147052
B1300495210270N01240870EA0131501400150056
B1300535210300N01240729EA0131201400142052
B1300575210325N01240591EA0130901392138052
K130057192038
B1301015210345N01240450EA0129801384146036
B1301055210366N01240312EA0130801392143044
B1301095210375N01240187EA0132601416126044
B1301135210379N01240062EA0132601416124040
B1301175210366N01239945EA0132901424120044
K130117186049
B1301215210329N01239845EA0132901416120044
B1301255210266N01239800EA0132301408124044
B1301295210204N01239825EA0132901416117044
B1301335210162N01239908EA0132301408117040
B1301375210158N01240029EA0131001400120040
K130137186049
B1301415210204N01240145EA0130401392122036
B1301455210279N01240233EA0130301392121040
B1301495210358N01240287EA0131401400115032
B1301535210445N01240279EA0131601408113032
B1301575210504N01240187EA0131701408121036
K130157186049
B1302015210500N01240075EA0132001408118032
B1302055210450N01240012EA0132001408119032
B1302095210387N01240045EA0132601416117032
B1302135210366N01240154EA0132001408124040
B1302175210395N01240275EA0132501408120036
K130217182021
B1302215210462N01240362EA0133501424114044
B1302255210545N01240366EA0133901424112040
B1302295210604N01240279EA0133701424120040
B1302335210595N01240170EA0133701424115040
B1302375210541N01240125EA0133301416122040
K130237186021
B1302415210475N01240166EA0133001416120040
B1302455210454N01240279EA0133801424119036
B1302495210495N01240391EA0133801424111040
B1302535210575N01240450EA0133501424119036
B1302575210662N01240429EA0134001432113036
K130257196021
B1303015210720N01240337EA0134301432117048
B1303055210729N01240220EA0133701424118040
B1303095210700N01240120EA0133401424116036
B1303135210645N01240058EA0133301416119040
B1303175210579N01240050EA0133301424119040
K130317186019
B1303215210520N01240091EA0133501424114040
B1303255210495N01240191EA0133301424115036
B1303295210475N01240300EA0133001416114040
B1303335210425N01240362EA0132601416113060
B1303375210362N01240400EA0132301408119048
K130337186019
B1303415210300N01240445EA0131601408120032
B1303455210237N01240504EA0131201400120048
B1303495210175N01240558EA0130401392117044
B1303535210108N01240579EA0129801384117040
B1303575210045N01240583EA0130601392113036
K130357190040
B1304015209987N01240554EA0131101400102040
B1304055209950N01240479EA0131101400110036
B1304095209937N01240379EA0131401408112036
B1304135209937N01240266EA0132201416112024
B1304175209933N01240150EA0132601416121032
K130417190040
B1304215209895N01240062EA0133301416116044
B1304255209829N01240070EA0134001432123032
B1304295209804N01240179EA0135001440117032
B1304335209845N01240291EA0135001440117040
B1304375209929N01240337EA0136101448116032
K130437190040
B1304415210004N01240291EA0137601464112032
B1304455210033N01240187EA0137701464110024
B1304495209995N01240091EA0136801456129028
B1304535209925N01240083EA0137701472128044
B1304575209883N01240170EA0139001488120032
K130457196019
B1305015209908N01240295EA0139201488118040
B1305055209983N01240366EA0140001488121040
B1305095210062N01240329EA0141701504118032
B1305135210091N01240225EA0141901512110036
B1305175210062N01240116EA0140401496132032
K130517196018
B1305215209995N01240066EA0141701504128032
B1305255209937N01240120EA0142601520119036
B1305295209941N01240250EA0142901520123032
B1305335210016N01240337EA0143801528119020
B1305375210100N01240320EA0144401536122028
K130537194016
B1305415210137N01240208EA0144801544118044
B1305455210108N01240100EA0144901544122032
B1305495210041N01240070EA0145401544123036
B1305535209983N01240141EA0146201552121040
B1305575209991N01240270EA0146901560124044
K130557192016
B1306015210062N01240354EA0147301568121040
B1306055210150N01240337EA0147601568121036
B1306095210200N01240233EA0147801568121040
B1306135210187N01240108EA0147801568128056
B1306175210125N01240050EA0148301576128048
K130617188016
B1306215210062N01240100EA0149701584125032
B1306255210045N01240220EA0150501600121044
B1306295210095N01240337EA0150801600121036
B1306335210179N01240379EA0151101600123032
B1306375210262N01240333EA0152001608118036
K130637190019
B1306415210300N01240220EA0152201616118036
B1306455210275N01240112EA0152201616120032
B1306495210216N01240062EA0152601616122032
B1306535210154N01240091EA0153601624116032
B1306575210120N01240191EA0154501632112032
K130657192018
B1307015210145N01240308EA0154901640111036
B1307055210212N01240387EA0154801632115032
B1307095210300N01240391EA0154601640116032
B1307135210370N01240320EA0155001640116032
B1307175210395N01240208EA0154801640118060
K130717192019
B1307215210375N01240095EA0154001632122048
B1307255210316N01240029EA0153601624123032
B1307295210250N01240029EA0154101632122048
B1307335210195N01240108EA0154901640125040
B1307375210175N01240225EA0155601648117036
K130737194018
B1307415210204N01240350EA0155601648119040
B1307455210270N01240433EA0155601648118040
B1307495210358N01240445EA0155501640118044
B1307535210437N01240383EA0155301640118040
B1307575210479N01240270EA0155301640120040
K130757192018
B1308015210491N01240145EA0154801640121040
B1308055210458N01240041EA0153501624127044
B1308095210391N01239995EA0153601624130040
B1308135210320N01240016EA0155001640124044
B1308175210266N01240091EA0155501648120044
K130817188017
B1308215210245N01240212EA0155401640119040
B1308255210279N01240337EA0155301640121040
B1308295210354N01240408EA0155301640121036
B1308335210441N01240408EA0155101648119040
B1308375210516N01240341EA0154801640119040
K130837188017
B1308415210558N01240229EA0154601640118040
B1308455210562N01240100EA0154501632119040
B1308495210525N01240000EA0154201632123040
B1308535210470N01239941EA0155201648117036
B1308575210408N01239912EA0155601648115040
K130857184017
B1309015210350N01239962EA0155301640115036
B1309055210329N01240075EA0154501640120036
B1309095210350N01240204EA0154101632121040
B1309135210404N01240312EA0154501640118040
B1309175210483N01240354EA0155201648119044
K130917180018
B1309215210554N01240295EA0155601648115040
B1309255210587N01240183EA0155401648117044
B1309295210575N01240062EA0155301648122044
B1309335210520N01239995EA0155301648123036
B1309375210458N01240037EA0155501648120040
K130937188016
B1309415210441N01240154EA0155501648117032
B1309455210483N01240270EA0155201640120032
B1309495210558N01240320EA0155601648115040
B1309535210637N01240300EA0156401656111036
B1309575210691N01240204EA0156401656113060
K130957184017
B1310015210691N01240083EA0156001648121048
B1310055210641N01240004EA0155901648120032
B1310095210575N01240004EA0155901648121048
B1310135210525N01240087EA0155401648122036
B1310175210520N01240220EA0155101640122032
K131017186017
B1310215210575N01240325EA0155101648119040
B1310255210658N01240358EA0155501648119040
B1310295210729N01240300EA0155801656116036
B1310335210762N01240179EA0155601648121040
B1310375210733N01240066EA0155401648125032
K131037188016
B1310415210670N01240029EA0155601648124032
B1310455210608N01240075EA0155401648121036
B1310495210550N01240154EA0154401640126032
B1310535210491N01240237EA0153001624128040
B1310575210429N01240308EA0151501608130040
K131057190016
B1311015210354N01240379EA0150501600136040
B1311055210279N01240429EA0150101592142040
B1311095210200N01240466EA0149801592143060
B1311135210120N01240500EA0149701592140048
B1311175210045N01240529EA0149001584142032
K131117202033
B1311215209966N01240554EA0147701568148048
B1311255209891N01240570EA0147401560145040
B1311295209812N01240591EA0147101560136036
B1311335209733N01240608EA0145801552137044
B1311375209650N01240616EA0144501536148040
K131137216030
B1311415209562N01240620EA0144401528148040
B1311455209479N01240629EA0144801536143040
B1311495209395N01240620EA0146201552134044
B1311535209333N01240562EA0148601568119040
B1311575209320N01240458EA0149501592115044
K131157224027
B1312015209370N01240362EA0149501592117044
B1312055209454N01240358EA0150801600114036
B1312095209512N01240450EA0152301616113040
B1312135209512N01240570EA0153401632115020
B1312175209458N01240645EA0154101640111028
K131217224027
B1312215209395N01240637EA0155201648112024
B1312255209362N01240545EA0155601648110024
B1312295209379N01240433EA0155601648114024
B1312335209445N01240354EA0156401656112024
B1312375209525N01240350EA0157601672109044
K131237192017
B1312415209591N01240433EA0158401680111032
B1312455209608N01240558EA0158901680117016
B1312495209566N01240645EA0159201688116032
B1312535209504N01240633EA0159601696118024
B1312575209470N01240541EA0160301696113020
K131257188021
B1313015209500N01240433EA0160301696111044
B1313055209570N01240370EA0160801696118032
B1313095209654N01240408EA0161901712110016
B1313135209695N01240512EA0162201712109032
B1313175209683N01240637EA0161901712122044
K131317192019
B1313215209629N01240691EA0162401720117032
B1313255209570N01240641EA0163001728116040
B1313295209562N01240533EA0163201728112040
B1313335209612N01240445EA0163501728113032
B1313375209691N01240445EA0163701728111036
K131337196019
B1313415209741N01240554EA0163701728120036
B1313455209712N01240666EA0164401736118032
B1313495209650N01240675EA0164901744116036
B1313535209616N01240587EA0165201744114036
B1313575209645N01240475EA0164501736118036
K131357194017
B1314015209720N01240425EA0165301744114036
B1314055209795N01240475EA0165801752112052
B1314095209820N01240595EA0166401760115044
B1314135209775N01240683EA0166601760116032
B1314175209716N01240654EA0166601760118040
K131417192019
B1314215209708N01240545EA0166901760115032
B1314255209766N01240470EA0167201768112032
B1314295209845N01240487EA0167701768108032
B1314335209895N01240591EA0168101776113032
B1314375209875N01240704EA0168101776116040
K131437196020
B1314415209812N01240725EA0168101776119036
B1314455209775N01240641EA0168101776115036
B1314495209791N01240525EA0167701768121040
B1314535209858N01240445EA0167801768118036
B1314575209941N01240445EA0168301776113036
K131457192020
B1315015210004N01240525EA0168901784108036
B1315055210020N01240650EA0168901784110036
B1315095209987N01240741EA0168201776113040
B1315135209925N01240758EA0167701768121040
B1315175209866N01240720EA0168101776110036
K131517194022
B1315215209837N01240629EA0167001760113040
B1315255209858N01240508EA0166201752119036
B1315295209916N01240420EA0166201752115036
B1315335209995N01240387EA0166401760110032
B1315375210075N01240408EA0166601760104032
K131537188022
B1315415210141N01240487EA0166601760109044
B1315455210179N01240604EA0166701760109040
B1315495210179N01240729EA0166701760114056
B1315535210158N01240845EA0165301752116048
B1315575210125N01240954EA0164101728121036
K131557192023
B1316015210083N01241058EA0163101720120048
B1316055210037N01241150EA0162201712120032
B1316095209979N01241233EA0161701704124032
B1316135209916N01241275EA0161701704118036
B1316175209850N01241250EA0161701704117032
K131617192022
B1316215209800N01241175EA0160901696120044
B1316255209754N01241087EA0160301688121040
B1316295209720N01240983EA0158401672122040
B1316335209704N01240862EA0156501656128040
B1316375209700N01240729EA0155101640129040
K131637192022
B1316415209708N01240595EA0154001624132040
B1316455209720N01240454EA0152901624133032
B1316495209741N01240320EA0152101608133036
B1316535209766N01240187EA0152001608131036
B1316575209787N01240050EA0151101600131032
K131657216025
B1317015209808N01239912EA0149801584134036
B1317055209833N01239770EA0148801576135036
B1317095209854N01239620EA0148301568138032
B1317135209858N01239475EA0147801568138032
B1317175209858N01239329EA0147401560137036
K131717186027
B1317215209854N01239183EA0146801552142032
B1317255209854N01239033EA0146801552142036
B1317295209854N01238891EA0147301560134036
B1317335209854N01238750EA0147701568135036
B1317375209854N01238612EA0147401568133036
K131737180031
B1317415209862N01238470EA0147101560135032
B1317455209875N01238333EA0147101560135032
B1317495209887N01238195EA0147101560133032
B1317535209895N01238066EA0147101560132032
B1317575209908N01237933EA0146701552136032
K131757184034
B1318015209920N01237804EA0146101552128032
B1318055209941N01237670EA0144501536131016
B1318095209954N01237533EA0143201520137024
B1318135209966N01237391EA0142601512139044
B1318175209987N01237250EA0141801504139032
K131817192026
B1318215210016N01237108EA0141201496135036
B1318255210054N01236970EA0140401488139040
B1318295210087N01236829EA0139601480140036
B1318335210129N01236691EA0139601480138036
B1318375210183N01236570EA0138901472131040
K131837190027
B1318415210241N01236450EA0138101464136040
B1318455210308N01236329EA0137101456139036
B1318495210375N01236212EA0136801448144040
B1318535210433N01236091EA0136701448137032
B1318575210487N01235958EA0135801440140032
K131857190028
B1319015210529N01235820EA0134701432141032
B1319055210566N01235670EA0133901424142032
B1319095210600N01235520EA0132901408142032
B1319135210637N01235370EA0132101400146032
B1319175210670N01235220EA0131501400143036
K131917184027
B1319215210704N01235070EA0130601392142032
B1319255210737N01234916EA0129801384145036
B1319295210770N01234762EA0129801376147036
B1319335210804N01234612EA0128701368147032
B1319375210841N01234466EA0128201360147032
K131937180034
B1319415210875N01234316EA0127501360146040
B1319455210908N01234170EA0126901352147036
B1319495210937N01234020EA0126401344143036
B1319535210962N01233875EA0125401336143040
B1319575210983N01233720EA0124301328148036
K131957182037
B1320015210995N01233570EA0123901320150036
B1320055211004N01233416EA0123401312151052
B1320095211016N01233266EA0123101312148044
B1320135211041N01233116EA0122301304146032
B1320175211062N01232966EA0121401288148040
K132017184034
B1320215211087N01232816EA0120501280146036
B1320255211112N01232666EA0119601280147032
B1320295211133N01232516EA0119101264145036
B1320335211154N01232362EA0117901256147036
B1320375211170N01232208EA0117101248150032
K132037186029
B1320415211183N01232054EA0116801248149032
B1320455211191N01231904EA0116601240148040
B1320495211195N01231750EA0116301240148036
B1320535211200N01231600EA0115201232151040
B1320575211200N01231445EA0115001224156040
K132057186031
B1321015211208N01231295EA0115001232153056
B1321055211216N01231145EA0114901232152048
B1321095211229N01230995EA0114701224154040
B1321135211241N01230845EA0114701224149048
B1321175211258N01230700EA0114701224149044
K132117192031
B1321215211283N01230554EA0114701224147040
B1321255211312N01230412EA0114601224139040
B1321295211341N01230270EA0113601216143040
B1321335211370N01230125EA0112601208147044
B1321375211395N01229979EA0112301200145040
K132137190032
B1321415211412N01229837EA0111801200141040
B1321455211420N01229691EA0111001192143040
B1321495211425N01229545EA0110301184144040
B1321535211425N01229400EA0109201168146040
B1321575211420N01229254EA0108301160146032
K132157188034
B1322015211416N01229108EA0107101152147036
B1322055211408N01228962EA0105501136151036
B1322095211395N01228812EA0104901128156032
B1322135211387N01228670EA0104901128150036
B1322175211379N01228525EA0104101120147036
K132217190029
B1322215211366N01228383EA0104101120145040
B1322255211354N01228237EA0104101120142040
B1322295211341N01228091EA0104101120143036
B1322335211325N01227950EA0104201120142040
B1322375211308N01227808EA0104501120139044
K132237182026
B1322415211287N01227670EA0103201112143040
B1322455211270N01227525EA0102301096146060
B1322495211254N01227379EA0101601088147052
B1322535211237N01227233EA0101201088148048
B1322575211220N01227091EA0100901088148056
K132257178023
B1323015211204N01226945EA0101701096141048
B1323055211187N01226804EA0101701088141048
B1323095211170N01226666EA0102101096136032
B1323135211158N01226533EA0102401104134040
B1323175211150N01226395EA0102401096135044
K132317170026
B1323215211141N01226254EA0103601104132040
B1323255211137N01226120EA0105801128121044
B1323295211125N01226004EA0106801144117044
B1323335211070N01225920EA0106301136124040
B1323375211000N01225929EA0106801144128040
K132337166030
B1323415210970N01226029EA0107401152119032
B1323455211000N01226141EA0109201168118036
B1323495211075N01226179EA0110401184114044
B1323535211141N01226108EA0111201192117040
B1323575211145N01225987EA0111801200117040
K132357166030
B1324015211095N01225920EA0111801192121040
B1324055211033N01225962EA0111801192117036
B1324095211025N01226079EA0111601192119040
B1324135211079N01226183EA0113701208124036
B1324175211158N01226187EA0114501224125036
K132417166013
B1324215211191N01226075EA0115201232120040
B1324255211150N01225987EA0115901240118040
B1324295211087N01226016EA0116701240117032
B1324335211075N01226129EA0118701256118036
B1324375211133N01226208EA0119201272119040
K132437180011
B1324415211204N01226162EA0120401280123036
B1324455211212N01226041EA0121001288122032
B1324495211154N01225983EA0121201296122036
B1324535211095N01226041EA0121301288121032
B1324575211104N01226170EA0121201288132032
K132457170007
B1325015211175N01226225EA0124201320119044
B1325055211233N01226141EA0125001328123040
B1325095211204N01226033EA0126001344119036
B1325135211141N01226041EA0126501344116040
B1325175211120N01226150EA0125801336123032
K132517182011
B1325215211170N01226262EA0127401352124032
B1325255211250N01226258EA0129201376116020
B1325295211283N01226154EA0129501376122024
B1325335211237N01226070EA0130601376131028
B1325375211179N01226116EA0132901416112024
K132537196015
B1325415211179N01226233EA0133601416116044
B1325455211245N01226295EA0133601416121036
B1325495211320N01226237EA0134301424123016
B1325535211329N01226120EA0135201440119032
B1325575211275N01226054EA0136101448123028
K132557188010
B1326015211212N01226100EA0137201456123024
B1326055211200N01226216EA0136301448126044
B1326095211262N01226308EA0135601440128036
B1326135211345N01226300EA0136801448123036
B1326175211408N01226225EA0138301464116040
K132617174014
B1326215211458N01226129EA0138301464117036
B1326255211495N01226012EA0137501456124036
B1326295211533N01225875EA0136201440136036
B1326335211566N01225725EA0136101440140036
B1326375211595N01225579EA0135301440139056
K132637168015
B1326415211620N01225425EA0134201424142048
B1326455211645N01225270EA0133001408149032
B1326495211675N01225116EA0132401400152044
B1326535211712N01224962EA0131501392150036
B1326575211750N01224808EA0131001384151032
K132657172025
B1327015211787N01224658EA0130601384152040
B1327055211820N01224508EA0130201384154040
B1327095211858N01224362EA0129601376153044
B1327135211895N01224216EA0128601368153040
B1327175211929N01224066EA0127801360155044
K132717192030
B1327215211962N01223916EA0127401352156044
B1327255212000N01223766EA0126701344157040
B1327295212033N01223616EA0126301344155040
B1327335212066N01223466EA0125501336155044
B1327375212095N01223320EA0124901328154040
K132737200031
B1327415212125N01223166EA0123501312158040
B1327455212154N01223016EA0122801304156040
B1327495212183N01222866EA0122001296156040
B1327535212216N01222716EA0121301288158040
B1327575212245N01222566EA0120701288157056
K132757202032
B1328015212279N01222420EA0120701280162048
B1328055212312N01222270EA0120701280159032
B1328095212345N01222125EA0120301280158044
B1328135212387N01221983EA0120101280149060
B1328175212433N01221845EA0118901264150048
K132817204036
B1328215212475N01221700EA0117701256153032
B1328255212508N01221554EA0116401240152048
B1328295212541N01221404EA0115401232154036
B1328335212575N01221254EA0114701224157032
B1328375212616N01221108EA0114801224148036
K132837200033
B1328415212654N01220966EA0114701224145036
B1328455212695N01220820EA0115501232139040
B1328495212733N01220687EA0115601232134040
B1328535212770N01220562EA0115601232132044
B1328575212808N01220429EA0114301224139040
K132857190035
B1329015212841N01220300EA0113701216132060
B1329055212879N01220162EA0112401200137052
B1329095212912N01220020EA0110901184144032
B1329135212950N01219879EA0109401176142048
B1329175212987N01219733EA0107801160147040
K132917190028
B1329215213025N01219583EA0106601144152036
B1329255213062N01219429EA0105801136156040
B1329295213087N01219275EA0105301128154040
B1329335213112N01219120EA0104601120154044
B1329375213133N01218970EA0104501120152040
K132937190032
B1329415213154N01218820EA0104101112150040
B1329455213175N01218675EA0103401112149040
B1329495213195N01218525EA0102501096148040
B1329535213216N01218375EA0101301080150040
B1329575213241N01218225EA0100001072150036
K132957190034
B1330015213270N01218075EA0098901064151040
B1330055213312N01217929EA0098501056153040
B1330095213366N01217795EA0098001048148040
B1330135213433N01217670EA0097901048148036
B1330175213504N01217545EA0097701048150040
K133017192032
B1330215213579N01217433EA0098801064149036
B1330255213654N01217325EA0100201072135036
B1330295213708N01217212EA0101301088131056
B1330335213695N01217100EA0102101096125048
B1330375213637N01217079EA0102101096124032
K133037192034
B1330415213591N01217162EA0102801104118044
B1330455213600N01217291EA0103101104122036
B1330495213662N01217395EA0103701112122032
B1330535213745N01217441EA0104301120127044
B1330575213820N01217379EA0104501120121040
K133057192034
B1331015213845N01217262EA0105101128126036
B1331055213800N01217191EA0105301128119040
B1331095213737N01217204EA0105801136119036
B1331135213687N01217275EA0106901144115036
B1331175213691N01217395EA0107201144121036
K133117202021
B1331215213766N01217470EA0107201144128036
B1331255213850N01217420EA0107901160126032
B1331295213891N01217308EA0108201160122032
B1331335213900N01217191EA0109101168119032
B1331375213950N01217091EA0108601168123032
K133137196019
B1331415214025N01216995EA0107301152138040
B1331455214095N01216900EA0109001168127036
B1331495214141N01216783EA0110401176128036
B1331535214133N01216666EA0111501192125040
B1331575214075N01216625EA0112701208116044
K133157196019
B1332015214033N01216695EA0113601216118040
B1332055214050N01216825EA0114201224118036
B1332095214120N01216908EA0114701232115040
B1332135214204N01216887EA0115201232114040
B1332175214266N01216804EA0115901240113040
K133217196019
B1332215214283N01216687EA0116201240120036
B1332255214245N01216604EA0116601248122040
B1332295214183N01216620EA0117401256126020
B1332335214129N01216683EA0119501272119028
B1332375214100N01216783EA0119501280114044
K133237190025
B1332415214108N01216908EA0120401288116032
B1332455214166N01217012EA0120901288120020
B1332495214250N01217004EA0121801304114032
B1332535214295N01216908EA0121901304114060
B1332575214279N01216804EA0122401304118040
K133257196023
B1333015214225N01216766EA0123101312124032
B1333055214187N01216854EA0123201320126048
B1333095214229N01216975EA0123901320123016
B1333135214316N01217004EA0125101336119024
B1333175214379N01216920EA0125401336117044
K133317186025
B1333215214375N01216800EA0125901344124032
B1333255214320N01216754EA0126201344132036
B1333295214279N01216854EA0126301344132040
B1333335214304N01216987EA0127701352126036
B1333375214387N01217045EA0128601368122036
K133337190028
B1333415214458N01216979EA0129401376114040
B1333455214462N01216858EA0128501368125040
B1333495214416N01216775EA0129401376130032
B1333535214358N01216816EA0130601384125036
B1333575214354N01216941EA0131101392124044
K133357192025
B1334015214400N01217062EA0131701400121040
B1334055214487N01217108EA0132901416120032
B1334095214554N01217033EA0133901424113040
B1334135214554N01216920EA0133501424118040
B1334175214500N01216870EA0134001424122036
K133417192026
B1334215214445N01216908EA0134701432113032
B1334255214420N01217012EA0136001448110036
B1334295214450N01217129EA0136701456114024
B1334335214533N01217175EA0137301456114028
B1334375214604N01217112EA0137701464118028
K133437204023
B1334415214608N01217004EA0137901464116024
B1334455214554N01216962EA0138301472112044
B1334495214500N01217012EA0138501472118036
B1334535214483N01217133EA0139701480121020
B1334575214545N01217233EA0140901496114032
K133457204024
B1335015214633N01217229EA0141001496118028
B1335055214683N01217129EA0141201496121024
B1335095214700N01217008EA0141501504127040
B1335135214716N01216887EA0141701504121032
