ACAM3FC
HFDTE160813
HFFXA050
HFPLTPILOT:Martin Dietze           
HFGTYGLIDERTYPE:Discus 2    
HFGIDGLIDERID:D-7136      
HFDTM100GPSDATUM:
HFRFWFIRMWAREVERSION:F2.6
HFRHWHARDWAREVERSION:300 Series Version 2
HFFTYFRTYPE:CAMBRIDGE AERO INSTRUMENTS, 302+
HFGPS:GARMIN,LVS-25,12,18000
HFPRSPRESSALTSENSOR:INTERSEMA, MS5534-AP, 20000
I033638FXA3941ENL4247REX
LCAMSBVER:5FWVER:F26300
C160813105807160813000104
C0000000N00000000WTAKEOFF     
C5208650N01240100E001         
C5214950N01215366E246         
C5133481N01300666E213         
C5144010N01336630E107         
C5209481N01246881E010         
C5208650N01240100E001         
C0000000N00000000WLANDING     
B1152325208686N01240508EA0001700060000028000000
B1152345208686N01240510EA0001700060000028000000
B1152365208686N01240510EA0001700061000028000000
B1152385208686N01240510EA0001700061000028000000
B1152405208686N01240510EA0001700061000028000000
B1152425208686N01240510EA0001600061000032000000
B1152445208686N01240510EA0001700061000036000000
B1152465208686N01240510EA0001700061000044000000
B1152485208686N01240510EA0001700061000048000000
B1152505208686N01240510EA0001700061000048000000
B1152525208686N01240510EA0001700061000048000000
B1152545208686N01240508EA0001800060000044000000
B1152565208686N01240508EA0001800060000056000000
B1152585208685N01240506EA0001800060000076000000
B1153005208683N01240499EA0001800060000088000000
B1153035208678N01240481EA0001800061000272000000
B1153075208666N01240442EA0001800061000448000000
B1153115208651N01240389EA0001900061000484000000
B1153155208633N01240321EA0001900062000536000000
B1153195208611N01240242EA0002000063000508000000
B1153235208586N01240152EA0002200064000432000000
B1153275208556N01240055EA0002500067000392000000
B1153315208531N01239949EA0002900075000384000000
B1153355208504N01239847EA0003800089000384000000
B1153395208477N01239750EA0005300104000368000000
B1153435208452N01239649EA0006300111000344000000
B1153475208426N01239548EA0006200117000264000000
B1153515208397N01239449EA0006800129000228000000
B1153555208371N01239349EA0007800139000192000000
B1153595208340N01239250EA0008800145000180000000
B1154035208305N01239154EA0009600156000172000000
B1154075208274N01239060EA0010900174000168000000
B1154115208243N01238969EA0012300183000160000000
B1154155208209N01238877EA0012800189000152000000
B1154195208178N01238784EA0013700199000156000000
B1154235208143N01238697EA0014300206000156000000
B1154275208102N01238609EA0014800208000160000000
B1154315208061N01238518EA0015000217000160000000
B1154355208016N01238426EA0016100229000160000000
B1154395207980N01238331EA0017200241000156000000
B1154435207944N01238240EA0018300250000156000000
B1154475207905N01238151EA0019100257000152000000
B1154515207864N01238062EA0020100268000148000000
B1154555207821N01237975EA0020500271000148000000
B1154595207779N01237887EA0021200287000152000000
B1155035207737N01237798EA0022600299000152000000
B1155075207697N01237712EA0024300310000140000000
B1155115207654N01237627EA0024800316000144000000
B1155155207610N01237542EA0025200320000148000000
B1155195207568N01237455EA0025800326000144000000
B1155235207524N01237370EA0026300332000144000000
B1155275207478N01237289EA0026900338000140000000
B1155315207435N01237201EA0027600346000148000000
B1155355207398N01237105EA0028400358000144000000
B1155395207368N01237003EA0029800373000144000000
B1155435207340N01236901EA0031800390000144000000
B1155475207316N01236801EA0032900404000140000000
B1155515207294N01236704EA0034500416000144000000
B1155555207274N01236604EA0035400423000136000000
B1155595207252N01236499EA0035800427000148000000
B1156035207229N01236391EA0036300433000152000000
B1156075207205N01236282EA0036600438000144000000
B1156115207184N01236174EA0037800452000148000000
B1156155207162N01236070EA0038600458000152000000
B1156195207131N01235976EA0039500466000116000000
B1156235207086N01235908EA0040100472000100000000
B1156275207031N01235862EA0040600475000080000000
B1156315206971N01235840EA0040700476000068000000
B1156355206910N01235831EA0040900479000064000000
B1156395206849N01235836EA0041300483000060000000
B1156435206787N01235853EA0041400483000060000000
B1156475206726N01235882EA0041600486000056000000
B1156515206671N01235936EA0042200492000052000000
B1156555206627N01236018EA0042900500000052000000
B1156595206596N01236119EA0043400505000052000000
B1157035206583N01236235EA0044100511000044000000
B1157075206588N01236353EA0044700517000056000000
B1157115206597N01236473EA0045200526000060000000
B1157155206614N01236600EA0045700522000068000000
B1157195206641N01236730EA0045400526000064000000
B1157235206670N01236853EA0046300538000056000000
B1157275206701N01236974EA0047100541000056000000
B1157315206736N01237096EA0047200544000060000000
B1157355206771N01237217EA0047800552000060000000
B1157395206802N01237338EA0048800562000052000000
B1157435206836N01237456EA0049500569000052000000
B1157475206871N01237575EA0050200577000052000000
B1157515206906N01237696EA0051100586000056000000
B1157555206939N01237816EA0051700590000048000000
B1157595206975N01237933EA0052100597000056000000
B1158035207009N01238050EA0053200609000052000000
B1158075207045N01238164EA0054600624000056000000
B1158115207090N01238281EA0055800636000060000000
B1158155207135N01238401EA0057200652000056000000
B1158195207181N01238517EA0058900669000056000000
B1158235207222N01238630EA0060100682000052000000
B1158275207266N01238744EA0061100687000052000000
B1158315207309N01238864EA0061500697000056000000
B1158355207317N01238973EA0062900710000044000000
B1158395207279N01239031EA0063600713000032000000
B1158435207231N01239004EA0063400709000028000000
B1158475207218N01238911EA0062700702000024000000
B1158515207261N01238813EA0062300697000020000000
B1158555207330N01238748EA0061900697000020000000
B1158595207392N01238679EA0061700694000020000000
B1159035207430N01238584EA0061300689000024000000
B1159075207438N01238480EA0061000687000024000000
B1159115207422N01238385EA0060900687000028000000
B1159155207396N01238300EA0061000689000028000000
B1159195207365N01238222EA0061300691000024000000
B1159235207318N01238176EA0061100684000024000000
B1159275207264N01238203EA0060800684000024000000
B1159315207226N01238285EA0061000688000024000000
B1159355207205N01238381EA0061600696000024000000
B1159395207199N01238487EA0062300699000020000000
B1159435207247N01238573EA0062200694000020000000
B1159475207321N01238571EA0061800693000020000000
B1159515207366N01238492EA0061800692000020000000
B1159555207357N01238397EA0061600696000024000000
B1159595207314N01238341EA0062000699000024000000
B1200035207260N01238311EA0062400704000024000000
B1200075207207N01238287EA0063000707000024000000
B1200115207158N01238340EA0063000707000020000000
B1200155207152N01238450EA0062800704000020000000
B1200195207205N01238539EA0063400719000016000000
B1200235207278N01238543EA0064200714000016000000
B1200275207334N01238469EA0062900702000020000000
B1200315207338N01238365EA0062900711000024000000
B1200355207298N01238307EA0063600716000020000000
B1200395207244N01238301EA0063800712000020000000
B1200435207194N01238348EA0063300708000020000000
B1200475207145N01238417EA0063000707000020000000
B1200515207090N01238450EA0063200710000020000000
B1200555207031N01238431EA0063000706000016000000
B1200595206980N01238376EA0062700705000016000000
B1201035206932N01238318EA0062800702000016000000
B1201075206874N01238332EA0062300701000020000000
B1201115206846N01238431EA0062300697000020000000
B1201155206859N01238558EA0061600690000020000000
B1201195206844N01238674EA0061200691000020000000
B1201235206788N01238727EA0061400688000020000000
B1201275206726N01238709EA0061000687000020000000
B1201315206675N01238648EA0061300694000020000000
B1201355206646N01238562EA0062200701000020000000
B1201395206680N01238471EA0062800702000016000000
B1201435206753N01238454EA0062100693000016000000
B1201475206810N01238534EA0061600690000016000000
B1201515206805N01238639EA0061800695000016000000
B1201555206757N01238678EA0062300698000016000000
B1201595206701N01238664EA0062100694000016000000
B1202035206644N01238628EA0061600691000020000000
B1202075206583N01238595EA0061700697000020000000
B1202115206525N01238553EA0062600705000020000000
B1202155206490N01238471EA0062700699000016000000
B1202195206495N01238358EA0062100693000016000000
B1202235206516N01238241EA0061800696000020000000
B1202275206540N01238123EA0061900697000020000000
B1202315206567N01238004EA0062200703000020000000
B1202355206610N01237898EA0063000710000020000000
B1202395206681N01237843EA0063800721000020000000
B1202435206750N01237891EA0064900728000020000000
B1202475206759N01237995EA0065300729000020000000
B1202515206710N01238043EA0065600735000016000000
B1202555206671N01237982EA0066200738000020000000
B1202595206701N01237886EA0066200738000016000000
B1203035206776N01237872EA0066600743000020000000
B1203075206826N01237956EA0067100748000020000000
B1203115206809N01238056EA0067400749000016000000
B1203155206754N01238075EA0067400754000020000000
B1203195206733N01237986EA0067800754000020000000
B1203235206784N01237900EA0068000760000020000000
B1203275206858N01237913EA0069000769000016000000
B1203315206897N01238007EA0069300768000016000000
B1203355206869N01238099EA0069300769000016000000
B1203395206810N01238093EA0069500774000016000000
B1203435206801N01237995EA0070200778000016000000
B1203475206862N01237926EA0070200778000016000000
B1203515206937N01237950EA0070500786000016000000
B1203555206971N01238049EA0071000787000016000000
B1203595206939N01238134EA0071100790000016000000
B1204035206879N01238144EA0071600794000016000000
B1204075206831N01238093EA0072000802000016000000
B1204115206837N01237997EA0072800805000020000000
B1204155206905N01237959EA0072800804000020000000
B1204195206958N01238040EA0072800805000016000000
B1204235206940N01238137EA0073200809000016000000
B1204275206883N01238154EA0073100807000020000000
B1204315206835N01238098EA0073800819000020000000
B1204355206830N01238002EA0074100814000016000000
B1204395206887N01237923EA0073400810000016000000
B1204435206963N01237941EA0073700816000016000000
B1204475207000N01238041EA0074200822000016000000
B1204515206973N01238131EA0074500818000016000000
B1204555206914N01238123EA0073800816000016000000
B1204595206896N01238024EA0074200823000016000000
B1205035206944N01237937EA0074800825000016000000
B1205075207021N01237936EA0074500823000020000000
B1205115207077N01238019EA0074900830000020000000
B1205155207079N01238125EA0075400831000024000000
B1205195207035N01238185EA0075600833000028000000
B1205235206983N01238153EA0075600833000028000000
B1205275206969N01238056EA0075600834000024000000
B1205315207000N01237954EA0075900837000020000000
B1205355207054N01237868EA0075400825000020000000
B1205395207122N01237789EA0074300826000020000000
B1205435207200N01237747EA0075400838000020000000
B1205475207272N01237795EA0076100838000020000000
B1205515207292N01237906EA0076100842000016000000
B1205555207251N01237964EA0077300858000016000000
B1205595207208N01237908EA0078400863000016000000
B1206035207229N01237803EA0078500865000016000000
B1206075207303N01237763EA0079200875000016000000
B1206115207365N01237828EA0079600873000016000000
B1206155207368N01237942EA0079300875000016000000
B1206195207327N01238004EA0080900894000016000000
B1206235207281N01237969EA0081900896000016000000
B1206275207285N01237863EA0081800897000016000000
B1206315207350N01237796EA0082200905000016000000
B1206355207422N01237834EA0083000910000016000000
B1206395207452N01237942EA0083200910000020000000
B1206435207424N01238033EA0083300916000020000000
B1206475207372N01238032EA0084400927000020000000
B1206515207356N01237939EA0085000931000020000000
B1206555207407N01237852EA0085600937000016000000
B1206595207485N01237871EA0085600934000020000000
B1207035207533N01237973EA0085700941000028000000
B1207075207533N01238080EA0086600948000028000000
B1207115207491N01238144EA0087200960000024000000
B1207155207437N01238140EA0088500972000024000000
B1207195207411N01238058EA0090000985000020000000
B1207235207451N01237962EA0090600988000016000000
B1207275207530N01237956EA0091300997000016000000
B1207315207581N01238049EA0091400996000016000000
B1207355207572N01238151EA0092301010000016000000
B1207395207521N01238171EA0093401014000020000000
B1207435207496N01238085EA0093401017000020000000
B1207475207541N01237993EA0094301028000020000000
B1207515207619N01237989EA0095201034000016000000
B1207555207672N01238076EA0095101029000016000000
B1207595207669N01238185EA0095101042000016000000
B1208035207624N01238242EA0096701056000016000000
B1208075207577N01238199EA0097401054000016000000
B1208115207584N01238090EA0097301057000016000000
B1208155207650N01238028EA0098701082000016000000
B1208195207727N01238059EA0100401085000016000000
B1208235207764N01238166EA0099901084000020000000
B1208275207738N01238264EA0101101103000016000000
B1208315207686N01238277EA0102901111000016000000
B1208355207652N01238198EA0102501107000016000000
B1208395207681N01238088EA0102501111000016000000
B1208435207760N01238049EA0103401128000016000000
B1208475207836N01238107EA0104901135000016000000
B1208515207862N01238223EA0105201142000020000000
B1208555207828N01238313EA0106301152000020000000
B1208595207769N01238314EA0107401165000020000000
B1209035207737N01238233EA0108201165000016000000
B1209075207766N01238123EA0108101166000016000000
B1209115207841N01238077EA0109001180000016000000
B1209155207916N01238129EA0109901182000016000000
B1209195207946N01238245EA0109801189000020000000
B1209235207918N01238342EA0110801200000020000000
B1209275207858N01238354EA0111701210000020000000
B1209315207820N01238275EA0112501214000020000000
B1209355207838N01238160EA0112901218000020000000
B1209395207907N01238092EA0113701227000016000000
B1209435207989N01238114EA0114901238000016000000
B1209475208040N01238215EA0115201238000016000000
B1209515208029N01238328EA0115501244000016000000
B1209555207975N01238380EA0116201251000016000000
B1209595207918N01238341EA0116901254000020000000
B1210035207892N01238240EA0116901262000024000000
B1210075207919N01238131EA0118001269000028000000
B1210115207994N01238082EA0118301270000028000000
B1210155208071N01238131EA0118601275000028000000
B1210195208107N01238244EA0118801274000028000000
B1210235208079N01238345EA0118901279000032000000
B1210275208018N01238372EA0120101295000028000000
B1210315207970N01238322EA0121201296000024000000
B1210355207970N01238210EA0120901297000020000000
B1210395208022N01238116EA0121701306000020000000
B1210435208104N01238105EA0122101309000020000000
B1210475208166N01238185EA0122401313000016000000
B1210515208174N01238298EA0122901318000016000000
B1210555208132N01238370EA0123501326000016000000
B1210595208072N01238359EA0124101328000020000000
B1211035208042N01238266EA0124101327000020000000
B1211075208071N01238158EA0125001341000020000000
B1211115208144N01238111EA0125401340000020000000
B1211155208219N01238159EA0125201340000016000000
B1211195208252N01238272EA0125401344000016000000
B1211235208227N01238374EA0125901351000016000000
B1211275208169N01238409EA0126401350000020000000
B1211315208119N01238340EA0126101348000016000000
B1211355208127N01238219EA0125801346000020000000
B1211395208191N01238134EA0126301357000020000000
B1211435208271N01238131EA0127501368000024000000
B1211475208330N01238210EA0128201369000020000000
B1211515208332N01238324EA0127801365000020000000
B1211555208286N01238396EA0128301376000020000000
B1211595208228N01238388EA0129301388000016000000
B1212035208195N01238306EA0129601378000016000000
B1212075208217N01238192EA0128801376000016000000
B1212115208289N01238131EA0128901382000016000000
B1212155208370N01238144EA0129401386000016000000
B1212195208427N01238228EA0129801389000016000000
B1212235208432N01238342EA0129701386000020000000
B1212275208390N01238423EA0129701390000020000000
B1212315208331N01238430EA0130801399000016000000
B1212355208283N01238371EA0130701392000016000000
B1212395208271N01238259EA0129801386000016000000
B1212435208318N01238157EA0129701387000016000000
B1212475208397N01238124EA0130001392000016000000
B1212515208471N01238176EA0130401393000016000000
B1212555208508N01238285EA0130401395000016000000
B1212595208495N01238391EA0131301407000016000000
B1213035208443N01238432EA0131601405000016000000
B1213075208391N01238387EA0131501404000016000000
B1213115208364N01238285EA0130901398000016000000
B1213155208360N01238162EA0130701397000020000000
B1213195208366N01238042EA0131301410000020000000
B1213235208375N01237932EA0131701403000020000000
B1213275208388N01237812EA0130401385000016000000
B1213315208403N01237686EA0128801374000020000000
B1213355208419N01237559EA0128001365000024000000
B1213395208439N01237427EA0127101355000024000000
B1213435208460N01237293EA0126301354000028000000
B1213475208482N01237163EA0126301353000028000000
B1213515208505N01237032EA0125901348000028000000
B1213555208529N01236901EA0125501350000032000000
B1213595208551N01236781EA0126301356000032000000
B1214035208570N01236665EA0126501351000028000000
B1214075208588N01236546EA0125501339000028000000
B1214115208607N01236424EA0124401327000028000000
B1214155208625N01236299EA0123301317000028000000
B1214195208643N01236171EA0122401308000024000000
B1214235208664N01236045EA0121601304000024000000
B1214275208679N01235922EA0121401302000024000000
B1214315208694N01235800EA0121501305000028000000
B1214355208704N01235683EA0121901311000024000000
B1214395208717N01235567EA0122501312000024000000
B1214435208741N01235445EA0122201309000024000000
B1214475208773N01235321EA0122001311000028000000
B1214515208821N01235211EA0123101327000024000000
B1214555208898N01235174EA0125101345000024000000
B1214595208959N01235245EA0126401352000020000000
B1215035208956N01235355EA0126901356000020000000
B1215075208903N01235395EA0127301361000020000000
B1215115208860N01235328EA0127501363000020000000
B1215155208874N01235224EA0128101372000020000000
B1215195208938N01235165EA0128701373000016000000
B1215235209012N01235204EA0128801378000016000000
B1215275209041N01235313EA0129501387000016000000
B1215315209008N01235398EA0130301391000016000000
B1215355208949N01235391EA0130001388000016000000
B1215395208913N01235306EA0130601400000016000000
B1215435208930N01235206EA0131401404000016000000
B1215475208999N01235163EA0131601403000016000000
B1215515209069N01235219EA0131601407000016000000
B1215555209086N01235330EA0132001409000020000000
B1215595209043N01235407EA0132101412000016000000
B1216035208990N01235378EA0132701419000016000000
B1216075208986N01235278EA0133101418000016000000
B1216115209047N01235211EA0132601417000016000000
B1216155209120N01235251EA0133601427000016000000
B1216195209138N01235364EA0133601424000016000000
B1216235209098N01235450EA0133801430000016000000
B1216275209040N01235460EA0134401432000016000000
B1216315209002N01235384EA0134301432000016000000
B1216355209016N01235281EA0134301431000020000000
B1216395209080N01235222EA0134401431000020000000
B1216435209155N01235255EA0134101429000016000000
B1216475209194N01235360EA0134501439000016000000
B1216515209193N01235472EA0135601448000016000000
B1216555209154N01235551EA0135301437000016000000
B1216595209090N01235546EA0134601439000016000000
B1217035209043N01235482EA0135601446000016000000
B1217075209020N01235389EA0135501438000016000000
B1217115209017N01235278EA0134701434000020000000
B1217155209025N01235161EA0134101428000020000000
B1217195209036N01235042EA0133301415000024000000
B1217235209050N01234917EA0131601399000024000000
B1217275209068N01234787EA0130701400000024000000
B1217315209093N01234660EA0130901402000024000000
B1217355209124N01234532EA0131301406000024000000
B1217395209164N01234409EA0131401411000024000000
B1217435209232N01234332EA0133501434000024000000
B1217475209310N01234362EA0134901436000020000000
B1217515209342N01234476EA0134601432000016000000
B1217555209309N01234566EA0134401435000020000000
B1217595209257N01234550EA0135201441000016000000
B1218035209231N01234463EA0135501445000016000000
B1218075209251N01234358EA0136101452000016000000
B1218115209322N01234309EA0136401453000016000000
B1218155209396N01234358EA0136401452000016000000
B1218195209420N01234472EA0136001445000020000000
B1218235209383N01234559EA0135701448000016000000
B1218275209327N01234570EA0136001453000016000000
B1218315209276N01234533EA0136601455000020000000
B1218355209261N01234436EA0136301449000016000000
B1218395209307N01234338EA0136101454000016000000
B1218435209387N01234311EA0136901461000016000000
B1218475209461N01234358EA0137601468000016000000
B1218515209504N01234457EA0137801465000016000000
B1218555209496N01234566EA0136801455000016000000
B1218595209444N01234619EA0136401456000016000000
B1219035209398N01234570EA0137201465000016000000
B1219075209401N01234466EA0137501462000016000000
B1219115209461N01234388EA0137201462000016000000
B1219155209543N01234397EA0137601466000016000000
B1219195209599N01234483EA0138001469000016000000
B1219235209618N01234598EA0137501464000016000000
B1219275209613N01234717EA0137201462000016000000
B1219315209593N01234827EA0137101464000016000000
B1219355209571N01234934EA0137301463000020000000
B1219395209547N01235043EA0136701453000020000000
B1219435209522N01235160EA0135401435000020000000
B1219475209500N01235287EA0133501419000024000000
B1219515209484N01235424EA0132101411000024000000
B1219555209472N01235560EA0132001414000024000000
B1219595209462N01235693EA0132801428000024000000
B1220035209454N01235815EA0134001430000024000000
B1220075209446N01235939EA0133501420000024000000
B1220115209436N01236071EA0132001405000024000000
B1220155209427N01236207EA0131301413000024000000
B1220195209423N01236322EA0133501428000020000000
B1220235209417N01236437EA0133301420000020000000
B1220275209411N01236560EA0132001408000020000000
B1220315209409N01236689EA0131201399000020000000
B1220355209410N01236821EA0130401394000024000000
B1220395209414N01236955EA0130001388000024000000
B1220435209418N01237091EA0129401381000024000000
B1220475209419N01237228EA0128701375000028000000
B1220515209423N01237365EA0128301376000028000000
B1220555209430N01237494EA0128901380000028000000
B1220595209441N01237621EA0128501370000028000000
B1221035209456N01237751EA0127301358000024000000
B1221075209471N01237885EA0126301350000024000000
B1221115209483N01238020EA0125401341000028000000
B1221155209493N01238157EA0124601335000028000000
B1221195209500N01238293EA0124101330000028000000
B1221235209505N01238426EA0123601325000028000000
B1221275209511N01238556EA0123001317000028000000
B1221315209515N01238684EA0122201309000028000000
B1221355209517N01238813EA0121501303000024000000
B1221395209511N01238937EA0121201301000028000000
B1221435209508N01239057EA0120701294000024000000
B1221475209513N01239184EA0119701284000024000000
B1221515209504N01239304EA0119401281000020000000
B1221555209475N01239414EA0118901278000020000000
B1221595209433N01239511EA0118801274000024000000
B1222035209394N01239622EA0118001272000024000000
B1222075209406N01239744EA0119001287000024000000
B1222115209475N01239793EA0120501297000024000000
B1222155209539N01239737EA0121101298000020000000
B1222195209556N01239628EA0120701295000020000000
B1222235209521N01239551EA0121301303000020000000
B1222275209459N01239550EA0120901294000020000000
B1222315209415N01239640EA0120401292000020000000
B1222355209430N01239758EA0120901304000020000000
B1222395209492N01239810EA0122501316000016000000
B1222435209557N01239766EA0122601309000016000000
B1222475209578N01239655EA0121601304000016000000
B1222515209549N01239563EA0122001310000016000000
B1222555209498N01239506EA0122301312000016000000
B1222595209444N01239467EA0122601315000016000000
B1223035209387N01239436EA0122301303000016000000
B1223075209322N01239406EA0120301283000016000000
B1223115209251N01239380EA0118701272000020000000
B1223155209181N01239359EA0117801266000028000000
B1223195209110N01239343EA0117001257000028000000
B1223235209038N01239333EA0116201250000028000000
B1223275208967N01239329EA0115601242000028000000
B1223315208895N01239323EA0114901236000032000000
B1223355208824N01239328EA0114301229000032000000
B1223395208755N01239346EA0113401219000032000000
B1223435208689N01239382EA0112701213000032000000
B1223475208625N01239434EA0111901206000032000000
B1223515208561N01239472EA0112301218000028000000
B1223555208505N01239460EA0114001229000024000000
B1223595208469N01239384EA0113601223000020000000
B1224035208474N01239272EA0113701230000020000000
B1224075208534N01239200EA0114701239000020000000
B1224115208612N01239228EA0115401244000020000000
B1224155208648N01239336EA0115501242000020000000
B1224195208621N01239432EA0115401246000020000000
B1224235208566N01239442EA0116101251000020000000
B1224275208529N01239369EA0116301254000016000000
B1224315208546N01239267EA0117101261000016000000
B1224355208614N01239219EA0117401263000016000000
B1224395208687N01239273EA0117301260000016000000
B1224435208708N01239393EA0117301262000016000000
B1224475208669N01239472EA0117701272000016000000
B1224515208614N01239464EA0118401271000016000000
B1224555208569N01239397EA0118401276000020000000
B1224595208557N01239297EA0119001283000020000000
B1225035208613N01239226EA0119701289000020000000
B1225075208686N01239268EA0120501296000016000000
B1225115208715N01239382EA0120601294000016000000
B1225155208673N01239460EA0121001303000016000000
B1225195208613N01239449EA0121601307000016000000
B1225235208583N01239360EA0121701308000016000000
B1225275208613N01239258EA0121901309000020000000
B1225315208690N01239224EA0122601323000020000000
B1225355208757N01239284EA0123801327000016000000
B1225395208774N01239406EA0123301319000020000000
B1225435208725N01239467EA0123401331000016000000
B1225475208676N01239419EA0124501333000016000000
B1225515208669N01239312EA0124501336000016000000
B1225555208717N01239224EA0125101341000016000000
B1225595208799N01239225EA0125101336000016000000
B1226035208854N01239324EA0125101344000016000000
B1226075208843N01239436EA0125701346000016000000
B1226115208786N01239475EA0125501342000016000000
B1226155208728N01239438EA0125501347000016000000
B1226195208690N01239355EA0125701345000016000000
B1226235208708N01239245EA0125401339000016000000
B1226275208778N01239180EA0124501329000016000000
B1226315208864N01239199EA0124101331000016000000
B1226355208930N01239281EA0124601336000016000000
B1226395208949N01239403EA0124701339000016000000
B1226435208920N01239506EA0124801336000016000000
B1226475208865N01239574EA0124201328000016000000
B1226515208799N01239623EA0123601331000020000000
B1226555208737N01239666EA0124101324000020000000
B1226595208672N01239707EA0122601308000024000000
B1227035208601N01239744EA0121501309000024000000
B1227075208535N01239784EA0122501323000024000000
B1227115208483N01239854EA0123501323000020000000
B1227155208432N01239928EA0123101320000020000000
B1227195208373N01239973EA0122501311000024000000
B1227235208310N01240013EA0121501303000024000000
B1227275208252N01240066EA0120901295000024000000
B1227315208197N01240143EA0120201293000024000000
B1227355208152N01240235EA0120401297000024000000
B1227395208120N01240346EA0121001303000024000000
B1227435208119N01240477EA0121301305000024000000
B1227475208152N01240601EA0122001316000024000000
B1227515208221N01240673EA0123001322000024000000
B1227555208300N01240659EA0123301327000020000000
B1227595208351N01240568EA0124201336000020000000
B1228035208352N01240456EA0125001341000016000000
B1228075208310N01240376EA0125301341000016000000
B1228115208248N01240372EA0125301343000016000000
B1228155208202N01240447EA0125401346000016000000
B1228195208197N01240568EA0125901349000020000000
B1228235208239N01240681EA0125801350000020000000
B1228275208314N01240742EA0126001351000020000000
B1228315208396N01240732EA0126301359000020000000
B1228355208461N01240667EA0127601369000020000000
B1228395208491N01240560EA0127801366000016000000
B1228435208474N01240448EA0127301361000020000000
B1228475208418N01240389EA0127101362000020000000
B1228515208356N01240415EA0127101364000020000000
B1228555208321N01240512EA0127501366000020000000
B1228595208343N01240637EA0127401366000020000000
B1229035208406N01240720EA0128101374000020000000
B1229075208487N01240724EA0128401374000020000000
B1229115208546N01240641EA0128601379000024000000
B1229155208551N01240528EA0129001382000024000000
B1229195208508N01240451EA0129401386000024000000
B1229235208444N01240439EA0129601385000024000000
B1229275208390N01240510EA0129401387000024000000
B1229315208380N01240633EA0129701389000024000000
B1229355208423N01240749EA0130001393000024000000
B1229395208497N01240806EA0130801399000020000000
B1229435208578N01240790EA0130701396000020000000
B1229475208627N01240698EA0130801399000020000000
B1229515208631N01240581EA0130901398000024000000
B1229555208592N01240489EA0131001405000024000000
B1229595208531N01240450EA0131701410000028000000
B1230035208465N01240476EA0131801407000028000000
B1230075208429N01240578EA0131101401000032000000
B1230115208456N01240706EA0130601395000028000000
B1230155208526N01240796EA0130201391000024000000
B1230195208612N01240832EA0130301396000024000000
B1230235208692N01240794EA0130601397000024000000
B1230275208739N01240695EA0131101403000024000000
B1230315208735N01240578EA0131301401000024000000
B1230355208685N01240499EA0130901401000024000000
B1230395208614N01240485EA0131101404000024000000
B1230435208552N01240549EA0131101400000024000000
B1230475208527N01240669EA0130701398000024000000
B1230515208557N01240796EA0130801397000024000000
B1230555208629N01240877EA0130501393000020000000
B1230595208713N01240889EA0130301394000020000000
B1231035208785N01240831EA0130501395000020000000
B1231075208826N01240728EA0130401394000020000000
B1231115208826N01240614EA0130301394000020000000
B1231155208781N01240537EA0130401395000020000000
B1231195208715N01240546EA0130501397000020000000
B1231235208673N01240637EA0130601395000020000000
B1231275208679N01240760EA0130401393000020000000
B1231315208735N01240859EA0129701385000020000000
B1231355208819N01240885EA0129401384000020000000
B1231395208890N01240832EA0129301383000020000000
B1231435208928N01240728EA0129401384000020000000
B1231475208923N01240616EA0129501385000020000000
B1231515208877N01240541EA0129601386000020000000
B1231555208813N01240543EA0129701391000020000000
B1231595208770N01240629EA0129701385000020000000
B1232035208781N01240757EA0129101379000020000000
B1232075208843N01240853EA0128501372000020000000
B1232115208928N01240874EA0128001370000020000000
B1232155209006N01240818EA0127601361000020000000
B1232195209053N01240707EA0126801363000020000000
B1232235209062N01240586EA0127601367000020000000
B1232275209032N01240484EA0127201355000020000000
B1232315208984N01240395EA0126401355000020000000
B1232355208934N01240311EA0127101368000020000000
B1232395208891N01240229EA0128401376000020000000
B1232435208850N01240147EA0128601376000020000000
B1232475208806N01240070EA0128701378000020000000
B1232515208760N01239999EA0129401385000020000000
B1232555208716N01239926EA0129501385000016000000
B1232595208695N01239827EA0129701385000016000000
B1233035208707N01239709EA0129101378000016000000
B1233075208760N01239615EA0129101380000016000000
B1233115208841N01239593EA0129201381000016000000
B1233155208913N01239639EA0129201380000012000000
B1233195208967N01239723EA0128801376000012000000
B1233235208998N01239828EA0128601377000012000000
B1233275209007N01239938EA0129301385000016000000
B1233315208982N01240023EA0129601384000016000000
B1233355208925N01240030EA0129401381000016000000
B1233395208891N01239944EA0129701389000016000000
B1233435208911N01239832EA0130101387000016000000
B1233475208977N01239765EA0129701386000016000000
B1233515209055N01239779EA0130101393000016000000
B1233555209115N01239845EA0130501394000016000000
B1233595209142N01239945EA0130501394000016000000
B1234035209120N01240034EA0130501394000016000000
B1234075209063N01240057EA0130301390000016000000
B1234115209008N01240001EA0130001391000016000000
B1234155208993N01239893EA0130601403000016000000
B1234195209034N01239793EA0131501399000016000000
B1234235209115N01239759EA0130401390000016000000
B1234275209193N01239805EA0130401400000020000000
B1234315209240N01239896EA0131201400000016000000
B1234355209229N01239997EA0131001398000020000000
B1234395209172N01240034EA0130901396000016000000
B1234435209114N01239986EA0130801397000016000000
B1234475209089N01239875EA0130901398000016000000
B1234515209129N01239767EA0131501404000016000000
B1234555209210N01239741EA0131101399000016000000
B1234595209272N01239814EA0131301409000016000000
B1235035209275N01239915EA0132101408000016000000
B1235075209224N01239967EA0131701405000020000000
B1235115209166N01239927EA0131601406000016000000
B1235155209154N01239815EA0131801407000016000000
B1235195209206N01239724EA0132001407000012000000
B1235235209285N01239709EA0131701403000016000000
B1235275209354N01239767EA0131801411000016000000
B1235315209384N01239861EA0132701416000016000000
B1235355209358N01239945EA0133101420000016000000
B1235395209300N01239953EA0133001413000016000000
B1235435209255N01239867EA0132201411000020000000
B1235475209264N01239746EA0132201410000020000000
B1235515209328N01239662EA0131901405000020000000
B1235555209411N01239640EA0131501402000016000000
B1235595209474N01239702EA0131501405000016000000
B1236035209483N01239806EA0131901407000016000000
B1236075209439N01239879EA0132001410000020000000
B1236115209376N01239860EA0132301411000016000000
B1236155209349N01239752EA0132301413000020000000
B1236195209384N01239637EA0132601414000016000000
B1236235209459N01239589EA0132301405000016000000
B1236275209532N01239640EA0131701409000016000000
B1236315209547N01239748EA0132401416000020000000
B1236355209500N01239810EA0132901418000020000000
B1236395209444N01239759EA0133301426000020000000
B1236435209440N01239641EA0133601421000020000000
B1236475209498N01239545EA0132901416000016000000
B1236515209579N01239546EA0132601416000016000000
B1236555209626N01239639EA0132801421000016000000
B1236595209605N01239731EA0133701430000016000000
B1237035209549N01239758EA0134301434000016000000
B1237075209488N01239741EA0134401428000016000000
B1237115209423N01239698EA0133101413000020000000
B1237155209355N01239641EA0131601401000024000000
B1237195209290N01239571EA0130701395000024000000
B1237235209228N01239496EA0129901386000028000000
B1237275209168N01239411EA0129201380000028000000
B1237315209110N01239325EA0128701376000028000000
B1237355209058N01239234EA0128401367000028000000
B1237395209004N01239137EA0127101354000028000000
B1237435208951N01239041EA0126101346000028000000
B1237475208897N01238946EA0125301339000028000000
B1237515208842N01238849EA0124901340000028000000
B1237555208789N01238753EA0125501345000028000000
B1237595208730N01238667EA0126001356000028000000
B1238035208668N01238606EA0127501372000024000000
B1238075208601N01238588EA0129501390000024000000
B1238115208549N01238643EA0131401410000020000000
B1238155208539N01238753EA0133201425000016000000
B1238195208583N01238857EA0134001431000016000000
B1238235208661N01238891EA0134901446000016000000
B1238275208725N01238835EA0136201453000016000000
B1238315208734N01238730EA0136601454000012000000
B1238355208687N01238661EA0136301454000016000000
B1238395208626N01238684EA0137101469000016000000
B1238435208603N01238788EA0138501479000016000000
B1238475208640N01238900EA0139401485000016000000
B1238515208718N01238943EA0140201494000016000000
B1238555208782N01238883EA0141201505000016000000
B1238595208794N01238778EA0141401503000016000000
B1239035208756N01238697EA0141401509000016000000
B1239075208700N01238688EA0143001528000020000000
B1239115208664N01238765EA0144201528000020000000
B1239155208676N01238888EA0143401521000020000000
B1239195208737N01238986EA0143701534000020000000
B1239235208816N01239022EA0144801540000020000000
B1239275208891N01238983EA0145501547000020000000
B1239315208941N01238892EA0146001552000020000000
B1239355208955N01238782EA0146401552000016000000
B1239395208930N01238683EA0146501556000016000000
B1239435208882N01238617EA0147101561000016000000
B1239475208821N01238612EA0147101562000016000000
B1239515208770N01238675EA0147801573000016000000
B1239555208748N01238782EA0148601575000016000000
B1239595208759N01238904EA0148501575000016000000
B1240035208804N01239012EA0148701577000016000000
B1240075208872N01239086EA0149501589000016000000
B1240115208947N01239116EA0150601594000016000000
B1240155209023N01239085EA0150801596000016000000
B1240195209079N01239003EA0150801598000016000000
B1240235209114N01238900EA0151101600000016000000
B1240275209112N01238790EA0151001597000016000000
B1240315209076N01238700EA0150901599000016000000
B1240355209021N01238639EA0151201605000016000000
B1240395208962N01238608EA0151801609000016000000
B1240435208898N01238626EA0151901609000016000000
B1240475208848N01238699EA0152701621000016000000
B1240515208826N01238810EA0152801615000016000000
B1240555208834N01238938EA0152101606000016000000
B1240595208873N01239054EA0151701610000016000000
B1241035208932N01239148EA0152401617000020000000
B1241075209003N01239212EA0152801616000020000000
B1241115209088N01239225EA0152401611000020000000
B1241155209168N01239178EA0151701608000020000000
B1241195209232N01239094EA0152101616000020000000
B1241235209263N01238983EA0152801619000016000000
B1241275209257N01238868EA0152401614000016000000
B1241315209219N01238775EA0152401615000016000000
B1241355209162N01238722EA0152501616000016000000
B1241395209097N01238719EA0152601617000016000000
B1241435209038N01238769EA0152701624000016000000
B1241475208998N01238860EA0153301623000016000000
B1241515208981N01238979EA0152701615000016000000
B1241555208988N01239109EA0152201616000016000000
B1241595209019N01239232EA0152801623000016000000
B1242035209076N01239330EA0153001617000016000000
B1242075209158N01239382EA0152101612000016000000
B1242115209246N01239382EA0152101612000016000000
B1242155209324N01239337EA0152001612000016000000
B1242195209389N01239259EA0151901609000016000000
B1242235209437N01239160EA0151601607000016000000
B1242275209461N01239046EA0151401609000016000000
B1242315209461N01238931EA0151901609000020000000
B1242355209437N01238826EA0151501608000016000000
B1242395209396N01238743EA0151701610000016000000
B1242435209341N01238686EA0151401606000016000000
B1242475209276N01238669EA0151501605000016000000
B1242515209212N01238696EA0151201603000016000000
B1242555209155N01238760EA0151501610000016000000
B1242595209114N01238853EA0152001613000020000000
B1243035209092N01238969EA0152001613000016000000
B1243075209101N01239098EA0152101612000020000000
B1243115209136N01239221EA0151601603000020000000
B1243155209196N01239325EA0151201609000020000000
B1243195209267N01239395EA0152101613000016000000
B1243235209346N01239424EA0152201612000016000000
B1243275209424N01239414EA0151701605000016000000
B1243315209497N01239364EA0151001598000016000000
B1243355209556N01239280EA0150401594000016000000
B1243395209597N01239178EA0150701599000016000000
B1243435209617N01239070EA0150901601000016000000
B1243475209612N01238963EA0150501587000016000000
B1243515209578N01238868EA0149101582000016000000
B1243555209532N01238787EA0149101582000020000000
B1243595209476N01238726EA0148901580000016000000
B1244035209411N01238692EA0148801584000020000000
B1244075209346N01238691EA0149301585000020000000
B1244115209287N01238748EA0149301583000020000000
B1244155209253N01238856EA0148901581000020000000
B1244195209263N01238983EA0148801583000020000000
B1244235209313N01239090EA0149001581000020000000
B1244275209389N01239147EA0148601578000020000000
B1244315209475N01239145EA0148601582000020000000
B1244355209553N01239104EA0149401592000020000000
B1244395209623N01239043EA0150201595000020000000
B1244435209670N01238948EA0150501597000020000000
B1244475209677N01238836EA0150401595000020000000
B1244515209639N01238747EA0149801589000020000000
B1244555209578N01238706EA0149201583000020000000
B1244595209511N01238700EA0149101587000020000000
B1245035209448N01238725EA0149601591000020000000
B1245075209394N01238792EA0149501588000020000000
B1245115209368N01238903EA0149401589000020000000
B1245155209376N01239024EA0149501588000020000000
B1245195209418N01239135EA0149401587000024000000
B1245235209485N01239210EA0149301586000024000000
B1245275209567N01239230EA0149201584000020000000
B1245315209644N01239190EA0149201586000020000000
B1245355209693N01239096EA0149701592000020000000
B1245395209701N01238985EA0150101595000020000000
B1245435209664N01238899EA0150301597000020000000
B1245475209599N01238878EA0150101593000020000000
B1245515209535N01238931EA0149701590000020000000
B1245555209498N01239042EA0149701592000020000000
B1245595209479N01239168EA0149801593000024000000
B1246035209457N01239293EA0149801591000024000000
B1246075209432N01239415EA0149201582000024000000
B1246115209407N01239544EA0148201573000024000000
B1246155209384N01239672EA0147601573000024000000
B1246195209365N01239796EA0148201579000024000000
B1246235209349N01239914EA0148501579000028000000
B1246275209333N01240031EA0148301576000028000000
B1246315209319N01240148EA0147901572000028000000
B1246355209306N01240264EA0147501570000028000000
B1246395209296N01240381EA0147201566000028000000
B1246435209284N01240495EA0146801563000028000000
B1246475209274N01240611EA0146401559000024000000
B1246515209261N01240725EA0145901554000020000000
B1246555209249N01240844EA0145201545000024000000
B1246595209237N01240965EA0144501540000024000000
B1247035209223N01241084EA0144101536000024000000
B1247075209207N01241202EA0143801532000024000000
B1247115209189N01241317EA0143501529000024000000
B1247155209172N01241433EA0142901523000024000000
B1247195209155N01241550EA0142301517000024000000
B1247235209138N01241664EA0142001516000024000000
B1247275209121N01241778EA0141701509000024000000
B1247315209103N01241895EA0140801502000024000000
B1247355209086N01242011EA0140501499000024000000
B1247395209068N01242127EA0139801492000024000000
B1247435209050N01242244EA0139401488000024000000
B1247475209029N01242357EA0139301485000024000000
B1247515209007N01242469EA0138601477000024000000
B1247555208984N01242583EA0137901468000020000000
B1247595208960N01242696EA0137401469000020000000
B1248035208937N01242800EA0137501465000020000000
B1248075208913N01242904EA0136601457000020000000
B1248115208889N01243009EA0135901450000020000000
B1248155208859N01243115EA0134701436000020000000
B1248195208824N01243223EA0133901429000024000000
B1248235208789N01243334EA0133601431000024000000
B1248275208754N01243442EA0133501426000024000000
B1248315208711N01243542EA0133201422000024000000
B1248355208657N01243628EA0132501418000024000000
B1248395208596N01243701EA0133001431000024000000
B1248435208530N01243744EA0134401443000024000000
B1248475208460N01243743EA0135601456000020000000
B1248515208396N01243687EA0137201471000024000000
B1248555208349N01243588EA0137701475000024000000
B1248595208349N01243461EA0138801484000020000000
B1249035208403N01243364EA0139301487000020000000
B1249075208483N01243355EA0139101485000020000000
B1249115208548N01243427EA0139101489000020000000
B1249155208564N01243539EA0139601498000020000000
B1249195208543N01243644EA0140001503000020000000
B1249235208490N01243708EA0141401517000020000000
B1249275208427N01243682EA0142601525000016015000
B1249315208404N01243580EA0143301528000016015000
B1249355208442N01243476EA0143001523000016000000
B1249395208518N01243440EA0142701524000016000000
B1249435208594N01243484EA0142901529000016000000
B1249475208639N01243581EA0143701535000016000000
B1249515208638N01243692EA0144301546000016000000
B1249555208599N01243774EA0145401552000016015000
B1249595208534N01243788EA0145801556000020015000
B1250035208483N01243710EA0147001568000016015000
B1250075208488N01243589EA0147601572000016015000
B1250115208546N01243500EA0147801572000016000000
B1250155208629N01243493EA0147601575000016000000
B1250195208691N01243570EA0148401584000016000000
B1250235208707N01243683EA0149101591000016015000
B1250275208670N01243778EA0149801595000016015000
B1250315208601N01243808EA0150301601000020015000
B1250355208531N01243774EA0151301617000020015000
B1250395208478N01243695EA0152401620000020015000
B1250435208458N01243578EA0152201612000020015000
B1250475208484N01243459EA0151201602000020015000
B1250515208547N01243373EA0150201586000020015000
B1250555208627N01243329EA0148801578000020015000
B1250595208709N01243342EA0148501580000020015000
B1251035208780N01243406EA0149001586000024015000
B1251075208835N01243497EA0149201583000020015000
B1251115208872N01243613EA0149001583000020015000
B1251155208859N01243731EA0149401589000020015000
B1251195208820N01243828EA0149801593000020015000
B1251235208776N01243918EA0150601604000020000000
B1251275208712N01243962EA0151501610000020000000
B1251315208643N01243955EA0152201616000020000000
B1251355208582N01243899EA0151701605000020000000
B1251395208539N01243800EA0150701588000020000000
B1251435208531N01243672EA0149001575000020000000
B1251475208561N01243545EA0147501557000016000000
B1251515208626N01243451EA0145601543000020000000
B1251555208707N01243416EA0144701533000020000000
B1251595208787N01243440EA0144001528000016000000
B1252035208858N01243505EA0144201538000016000000
B1252075208899N01243606EA0145601554000020015000
B1252115208908N01243724EA0146701561000020000000
B1252155208891N01243840EA0146701563000020000000
B1252195208855N01243947EA0147201570000020000000
B1252235208799N01244025EA0148101579000016000000
B1252275208729N01244035EA0148801580000020015000
B1252315208676N01243962EA0148301570000020000000
B1252355208665N01243844EA0146901557000020000000
B1252395208703N01243728EA0145801544000016000000
B1252435208769N01243656EA0145101542000016015000
B1252475208845N01243669EA0145401545000016015000
B1252515208885N01243769EA0145501546000016015000
B1252555208878N01243886EA0145801551000016000000
B1252595208848N01243992EA0145901553000016000000
B1253035208791N01244056EA0146201551000016015000
B1253075208729N01244031EA0145301538000016015000
B1253115208700N01243931EA0144201527000016015000
B1253155208720N01243812EA0143001513000016015000
B1253195208774N01243713EA0141601501000016000000
B1253235208848N01243659EA0140801496000016000000
B1253275208928N01243661EA0140401490000016000000
B1253315208998N01243722EA0139901485000016015000
B1253355209038N01243828EA0140101491000016015000
B1253395209045N01243951EA0140401498000016015000
B1253435209016N01244059EA0141301507000016000000
B1253475208960N01244125EA0141801510000016000000
B1253515208893N01244129EA0141801505000020000000
B1253555208835N01244069EA0140701494000020000000
B1253595208804N01243968EA0139901484000020000000
B1254035208796N01243849EA0138801475000020000000
B1254075208813N01243730EA0138001466000020000000
B1254115208868N01243641EA0136901454000016000000
B1254155208947N01243610EA0135701440000016000000
B1254195209030N01243631EA0134701432000016000000
B1254235209110N01243680EA0134301433000016000000
B1254275209173N01243765EA0134601437000016000000
B1254315209211N01243873EA0135201444000016000000
B1254355209222N01243995EA0135801450000016000000
B1254395209196N01244101EA0136401456000016000000
B1254435209140N01244155EA0136901459000016000000
B1254475209076N01244135EA0137001459000016000000
B1254515209030N01244051EA0136701453000020000000
B1254555209027N01243931EA0136001444000020000000
B1254595209059N01243814EA0135001432000016000000
B1255035209107N01243706EA0133601423000020000000
B1255075209162N01243602EA0133201418000020000000
B1255115209216N01243496EA0132801417000020000000
B1255155209275N01243388EA0132501412000024000000
B1255195209340N01243292EA0133001424000024000000
B1255235209417N01243236EA0134201432000020000000
B1255275209502N01243238EA0134401433000020000000
B1255315209565N01243315EA0135001441000016000000
B1255355209570N01243419EA0135701446000016015000
B1255395209523N01243458EA0136101448000016000000
B1255435209483N01243389EA0136301452000016000000
B1255475209492N01243273EA0136401453000016000000
B1255515209550N01243182EA0136801458000016000000
B1255555209630N01243152EA0137301464000016000000
B1255595209699N01243206EA0137701466000016000000
B1256035209726N01243307EA0137901468000016000000
B1256075209701N01243397EA0137701465000016000000
B1256115209648N01243419EA0137601466000016000000
B1256155209602N01243354EA0137701469000016000000
B1256195209596N01243240EA0138201472000016000000
B1256235209632N01243126EA0138501477000016000000
B1256275209705N01243074EA0139101481000016000000
B1256315209775N01243120EA0139201479000016000000
B1256355209799N01243224EA0139001481000016000000
B1256395209774N01243310EA0139101477000016000000
B1256435209717N01243327EA0138401472000016000000
B1256475209667N01243268EA0139001482000016000000
B1256515209657N01243158EA0139101478000016000000
B1256555209700N01243050EA0139101486000016000000
B1256595209774N01243004EA0139801487000016000000
B1257035209848N01243041EA0139501479000016000000
B1257075209898N01243132EA0138901480000016000000
B1257115209916N01243238EA0139201481000016000000
B1257155209896N01243333EA0138901478000016000000
B1257195209848N01243379EA0138701474000016000000
B1257235209792N01243354EA0138201472000016000000
B1257275209751N01243271EA0138101472000020000000
B1257315209730N01243152EA0138001469000020000000
B1257355209717N01243026EA0138001476000024000000
B1257395209708N01242904EA0138301471000024000000
B1257435209700N01242781EA0137701466000024000000
B1257475209697N01242657EA0137001460000024000000
B1257515209695N01242532EA0136401453000024000000
B1257555209695N01242404EA0135401445000024000000
B1257595209696N01242274EA0134701437000024000000
B1258035209699N01242140EA0133901430000028000000
B1258075209701N01242005EA0133701434000028000000
B1258115209704N01241875EA0134301432000028000000
B1258155209709N01241741EA0133401421000028000000
B1258195209716N01241604EA0132401413000028000000
B1258235209726N01241469EA0131801409000028000000
B1258275209739N01241335EA0131401405000028000000
B1258315209753N01241202EA0131201403000028000000
B1258355209771N01241074EA0130901400000028000000
B1258395209791N01240948EA0130601394000028000000
B1258435209816N01240820EA0129801390000028000000
B1258475209842N01240699EA0129601380000024000000
B1258515209870N01240575EA0128101366000024000000
B1258555209904N01240454EA0127101360000024000000
B1258595209947N01240342EA0127001359000024000000
B1259035209994N01240231EA0126601357000024000000
B1259075210038N01240123EA0127601376000024000000
B1259115210080N01240022EA0129101382000024000000
B1259155210115N01239914EA0129701390000020000000
B1259195210115N01239804EA0130501400000020000000
B1259235210070N01239728EA0130901397000020000000
B1259275210009N01239741EA0131101406000020015000
B1259315209973N01239822EA0131901410000020015000
B1259355209985N01239931EA0131901405000016015000
B1259395210039N01240019EA0131201401000016000000
B1259435210119N01240035EA0131301404000016000000
B1259475210185N01239975EA0132001412000016000000
B1259515210215N01239873EA0132501414000016000000
B1259555210202N01239766EA0132301414000016000000
B1259595210158N01239698EA0132801419000016000000
B1300035210100N01239713EA0132801417000016000000
B1300075210074N01239805EA0132601415000016015000
B1300115210104N01239910EA0132301408000020000000
B1300155210177N01239957EA0131701407000020000000
B1300195210246N01239909EA0132301416000016000000
B1300235210268N01239804EA0132901420000020000000
B1300275210229N01239720EA0133001419000016000000
B1300315210171N01239732EA0133301428000016015000
B1300355210146N01239822EA0133801427000016015000
B1300395210180N01239926EA0133301420000016000000
B1300435210252N01239966EA0133101421000016000000
B1300475210321N01239918EA0133701433000016000000
B1300515210356N01239821EA0134401433000016000000
B1300555210341N01239715EA0133801425000016000000
B1300595210282N01239676EA0133601427000016000000
B1301035210228N01239711EA0133901430000016000000
B1301075210191N01239795EA0133501423000016000000
B1301115210181N01239908EA0133001422000016000000
B1301155210195N01240025EA0133101422000020000000
B1301195210243N01240125EA0132901419000020000000
B1301235210321N01240169EA0132701416000020000000
B1301275210397N01240129EA0133101430000020000000
B1301315210427N01240032EA0134401436000016000000
B1301355210402N01239939EA0134101428000016000000
B1301395210343N01239909EA0133501426000016015000
B1301435210291N01239969EA0132801417000016015000
B1301475210282N01240083EA0132801423000020015000
B1301515210317N01240196EA0133501430000020000000
B1301555210385N01240265EA0134301435000016000000
B1301595210467N01240264EA0134101431000016000000
B1302035210524N01240186EA0134601443000016000000
B1302075210532N01240082EA0135101441000016000000
B1302115210493N01240004EA0134801439000016000000
B1302155210432N01240017EA0134601438000016015000
B1302195210405N01240117EA0134301435000020015000
B1302235210429N01240234EA0134301440000020000000
B1302275210492N01240317EA0135201445000016000000
B1302315210574N01240334EA0135201443000016000000
B1302355210637N01240260EA0134901441000016000000
B1302395210640N01240149EA0134701439000016000000
B1302435210590N01240088EA0134801439000020000000
B1302475210527N01240101EA0134601441000020000000
B1302515210485N01240185EA0134801442000020000000
B1302555210490N01240307EA0134901445000020000000
B1302595210549N01240404EA0135401447000020000000
B1303035210635N01240433EA0135001444000024000000
B1303075210713N01240376EA0135101444000020000000
B1303115210746N01240261EA0135001442000020000000
B1303155210736N01240146EA0134601437000020000000
B1303195210694N01240051EA0134001433000020000000
B1303235210635N01239983EA0133401427000024000000
B1303275210566N01239952EA0133201427000024000000
B1303315210496N01239949EA0133201425000024000000
B1303355210429N01239962EA0132901422000024000000
B1303395210364N01239975EA0132701423000024000000
B1303435210302N01239990EA0133001424000024000000
B1303475210237N01240008EA0132401415000024000000
B1303515210169N01240031EA0132201421000024000000
B1303555210103N01240045EA0133001426000024000000
B1303595210035N01240040EA0133201426000024000000
B1304035209965N01240018EA0132301413000024000000
B1304075209894N01240000EA0132201419000020000000
B1304115209826N01240039EA0132801428000020000000
B1304155209794N01240148EA0133901440000020000000
B1304195209829N01240269EA0135001451000020000000
B1304235209905N01240326EA0136101462000020000000
B1304275209979N01240285EA0137301473000020000000
B1304315210009N01240179EA0138001474000016000000
B1304355209983N01240075EA0137601471000020000000
B1304395209922N01240043EA0138301484000020000000
B1304435209866N01240097EA0139401496000020000000
B1304475209857N01240213EA0140301500000020000000
B1304515209914N01240313EA0140601503000020000000
B1304555209996N01240324EA0141201514000020000000
B1304595210051N01240240EA0142301520000020000000
B1305035210046N01240130EA0142501518000020000000
B1305075209990N01240073EA0142101520000020015000
B1305115209931N01240122EA0143001533000020015000
B1305155209927N01240239EA0144301544000016000000
B1305195209986N01240338EA0144601543000016000000
B1305235210072N01240347EA0144901555000020000000
B1305275210130N01240266EA0146601565000020000000
B1305315210138N01240148EA0146301554000020000000
B1305355210087N01240073EA0145801559000020000000
B1305395210025N01240088EA0147001571000020000000
B1305435209981N01240172EA0147501572000020000000
B1305475209986N01240299EA0147701576000020000000
B1305515210046N01240398EA0148101580000020000000
B1305555210129N01240411EA0148501586000016000000
B1305595210193N01240339EA0149401594000016000000
B1306035210215N01240225EA0149801597000016000000
B1306075210190N01240121EA0149701591000020000000
B1306115210126N01240083EA0149501590000020015000
B1306155210069N01240153EA0149801599000020015000
B1306195210073N01240279EA0150801608000016000000
B1306235210137N01240373EA0151201614000016000000
B1306275210221N01240382EA0151901620000016000000
B1306315210278N01240295EA0152701626000020000000
B1306355210286N01240177EA0152901624000020000000
B1306395210249N01240084EA0152801621000020000000
B1306435210182N01240083EA0152501624000024000000
B1306475210141N01240177EA0153301634000024015000
B1306515210150N01240304EA0154001636000020015000
B1306555210216N01240396EA0153801633000020000000
B1306595210302N01240382EA0154101640000020000000
B1307035210355N01240286EA0154601641000020000000
B1307075210360N01240165EA0154501640000020000000
B1307115210327N01240073EA0154801645000020000000
B1307155210269N01240043EA0155201649000020000000
B1307195210215N01240086EA0156001660000016000000
B1307235210186N01240178EA0156701661000016000000
B1307275210197N01240298EA0156501656000016000000
B1307315210251N01240400EA0156101656000016000000
B1307355210334N01240437EA0156001649000016000000
B1307395210414N01240391EA0155701653000016000000
B1307435210462N01240292EA0156101656000020000000
B1307475210466N01240175EA0155801649000020000000
B1307515210429N01240083EA0155301644000020000000
B1307555210369N01240052EA0155101648000020000000
B1307595210310N01240082EA0155801655000016000000
B1308035210267N01240164EA0156601660000020000000
B1308075210251N01240278EA0156601657000024000000
B1308115210278N01240394EA0156301659000020000000
B1308155210343N01240461EA0156801662000020000000
B1308195210423N01240458EA0156601652000020000000
B1308235210490N01240385EA0155001640000016000000
B1308275210519N01240265EA0154701645000016000000
B1308315210510N01240148EA0155301648000016000000
B1308355210471N01240056EA0155401650000020000000
B1308395210414N01240009EA0156001658000020000000
B1308435210351N01240003EA0156301658000020000000
B1308475210290N01240008EA0156501659000020000000
B1308515210230N01240021EA0156101651000016000000
B1308555210172N01240069EA0155301637000016000000
B1308595210122N01240152EA0153901627000016000000
B1309035210082N01240251EA0153101623000016000000
B1309075210048N01240352EA0152901621000020000000
B1309115210017N01240456EA0152501615000016000000
B1309155209990N01240562EA0151901610000020000000
B1309195209965N01240671EA0151401606000020000000
B1309235209943N01240780EA0151001602000020000000
B1309275209918N01240890EA0150401596000020000000
B1309315209891N01240997EA0150101594000020000000
B1309355209864N01241104EA0149901592000020000000
B1309395209839N01241210EA0149601592000020000000
B1309435209814N01241310EA0149701593000020000000
B1309475209771N01241373EA0149501584000016000000
B1309515209717N01241381EA0148801575000016000000
B1309555209664N01241349EA0147601564000016000000
B1309595209610N01241300EA0146501553000020000000
B1310035209560N01241243EA0145501548000020000000
B1310075209510N01241183EA0145501550000020000000
B1310115209463N01241122EA0145901555000020000000
B1310155209420N01241066EA0147101576000020000000
B1310195209383N01241014EA0148601576000020000000
B1310235209348N01240939EA0147901565000016000000
B1310275209319N01240846EA0147501573000016000000
B1310315209296N01240760EA0148701590000020000000
B1310355209270N01240685EA0150201589000020000000
B1310395209248N01240591EA0149101586000016000000
B1310435209232N01240489EA0149801596000016000000
B1310475209245N01240382EA0151201612000016000000
B1310515209310N01240333EA0152401619000016000000
B1310555209378N01240398EA0152601620000016015000
B1310595209376N01240516EA0152901621000012015000
B1311035209319N01240555EA0152901620000012000000
B1311075209276N01240484EA0153201628000016000000
B1311115209277N01240380EA0154201644000016000000
B1311155209333N01240311EA0155701652000016000000
B1311195209410N01240333EA0156401658000016000000
B1311235209452N01240437EA0156301655000016000000
B1311275209427N01240545EA0156301657000016000000
B1311315209368N01240568EA0156601660000016000000
B1311355209318N01240521EA0156801662000016000000
B1311395209298N01240421EA0157001667000012000000
B1311435209336N01240324EA0157801679000016000000
B1311475209411N01240300EA0158801688000012000000
B1311515209467N01240381EA0159801694000016000000
B1311555209456N01240498EA0160101696000016000000
B1311595209394N01240524EA0160801712000020000000
B1312035209349N01240455EA0162001715000020000000
B1312075209368N01240344EA0162201717000020000000
B1312115209441N01240294EA0162501720000020000000
B1312155209514N01240350EA0162801725000016015000
B1312195209536N01240468EA0164001737000016000000
B1312235209497N01240559EA0164601744000016000000
B1312275209435N01240545EA0165201748000020000000
B1312315209418N01240442EA0165601754000020000000
B1312355209472N01240359EA0166301758000016000000
B1312395209554N01240376EA0166701767000016000000
B1312435209602N01240480EA0167701777000016000000
B1312475209584N01240591EA0168401781000016000000
B1312515209524N01240624EA0168601783000016000000
B1312555209480N01240552EA0169001789000016000000
B1312595209498N01240441EA0169001785000016000000
B1313035209567N01240376EA0169501795000016000000
B1313075209648N01240407EA0170301800000016000000
B1313115209687N01240519EA0170801806000016015000
B1313155209661N01240628EA0170901804000016000000
B1313195209601N01240659EA0171001813000016000000
B1313235209547N01240614EA0171501813000016000000
B1313275209532N01240507EA0171701808000016000000
B1313315209576N01240408EA0171301808000016000000
B1313355209656N01240385EA0171801814000016000000
B1313395209731N01240435EA0172101819000016000000
B1313435209771N01240546EA0172201816000012000000
B1313475209756N01240664EA0171501807000012000000
B1313515209700N01240720EA0171801824000016000000
B1313555209645N01240699EA0172901825000012000000
B1313595209621N01240604EA0172601817000012000000
B1314035209651N01240497EA0171901812000016000000
B1314075209726N01240447EA0171601813000016000000
B1314115209805N01240478EA0172201822000020000000
B1314155209861N01240569EA0172901828000016000000
B1314195209874N01240686EA0172701818000020000000
B1314235209838N01240776EA0171801816000020000000
B1314275209781N01240780EA0172301817000020000000
B1314315209742N01240699EA0171801806000020000000
B1314355209747N01240581EA0170901803000020000000
B1314395209795N01240482EA0171001806000024000000
B1314435209873N01240445EA0171101807000020000000
B1314475209951N01240480EA0171901819000020000000
B1314515209994N01240584EA0172201818000016015000
B1314555209981N01240701EA0171901811000016000000
B1314595209931N01240771EA0171201809000016000000
B1315035209873N01240788EA0171601814000016000000
B1315075209822N01240734EA0171301803000016000000
B1315115209799N01240629EA0170201792000016000000
B1315155209817N01240510EA0169401791000016000000
B1315195209878N01240428EA0169601796000012000000
B1315235209955N01240395EA0170101799000020000000
B1315275210033N01240419EA0170701805000020000000
B1315315210094N01240499EA0170901804000016000000
B1315355210122N01240619EA0170501798000020000000
B1315395210117N01240746EA0170101796000020000000
B1315435210099N01240867EA0169501785000020000000
B1315475210076N01240985EA0168401778000020000000
B1315515210039N01241096EA0167501764000020000000
B1315555209990N01241191EA0166601760000020000000
B1315595209927N01241244EA0166401760000020000000
B1316035209861N01241226EA0166201752000016000000
B1316075209808N01241153EA0166101759000020000000
B1316115209773N01241056EA0166501760000020000000
B1316155209751N01240950EA0166301751000020000000
B1316195209736N01240835EA0164401731000020000000
B1316235209740N01240707EA0162601714000020000000
B1316275209757N01240578EA0161001700000020000000
B1316315209777N01240448EA0159701688000024000000
B1316355209796N01240318EA0158801678000024000000
B1316395209816N01240188EA0158001673000028000000
B1316435209839N01240058EA0157501667000028000000
B1316475209860N01239927EA0156901658000024000000
B1316515209882N01239793EA0156201654000024000000
B1316555209907N01239658EA0155701651000028000000
B1316595209931N01239523EA0155501649000028000000
B1317035209956N01239386EA0155201646000028000000
B1317075209982N01239251EA0155201648000028000000
B1317115210008N01239122EA0155401648000028000000
B1317155210034N01238994EA0155101641000024000000
B1317195210057N01238859EA0154301631000024000000
B1317235210081N01238729EA0153801635000024000000
B1317275210104N01238605EA0154101636000024000000
B1317315210121N01238483EA0153701628000028000000
B1317355210135N01238355EA0152901621000028000000
B1317395210148N01238228EA0152501617000028000000
B1317435210160N01238102EA0151801608000028000000
B1317475210173N01237973EA0150601594000028000000
B1317515210184N01237842EA0149301584000024000000
B1317555210190N01237709EA0148301577000028000000
B1317595210193N01237583EA0148901585000024000000
B1318035210200N01237457EA0149101581000024000000
B1318075210210N01237321EA0148201567000028000000
B1318115210220N01237175EA0147201566000028000000
B1318155210233N01237035EA0147501570000032000000
B1318195210249N01236901EA0147701569000028000000
B1318235210267N01236766EA0147301563000028000000
B1318275210288N01236628EA0146901564000028000000
B1318315210312N01236500EA0147701573000028000000
B1318355210341N01236379EA0148101569000028000000
B1318395210372N01236255EA0147401561000028000000
B1318435210407N01236129EA0146501559000028000000
B1318475210442N01236012EA0147001562000024000000
B1318515210476N01235895EA0146701556000024000000
B1318555210511N01235781EA0146401552000024000000
B1318595210548N01235666EA0145501541000028000000
B1319035210583N01235542EA0144301532000024000000
B1319075210618N01235416EA0143501522000028000000
B1319115210655N01235286EA0142301511000028000000
B1319155210692N01235151EA0141501502000028000000
B1319195210728N01235011EA0140301494000028000000
B1319235210767N01234874EA0140301503000028000000
B1319275210805N01234756EA0141701514000028000000
B1319315210847N01234647EA0141901506000028000000
B1319355210889N01234536EA0141001496000028000000
B1319395210928N01234418EA0140101482000060000000
B1319435210971N01234293EA0138901466000108000000
B1319475211013N01234159EA0136501453000080000000
B1319515211049N01234028EA0136601460000064000000
B1319555211079N01233895EA0136501454000048000000
B1319595211108N01233764EA0135701447000044000000
B1320035211140N01233640EA0135701451000036000000
B1320075211173N01233527EA0136201454000032000000
B1320115211204N01233418EA0135801440000028000000
B1320155211235N01233300EA0133401414000028000000
B1320195211256N01233167EA0131101396000024000000
B1320235211268N01233029EA0129701383000028000000
B1320275211274N01232888EA0128401370000028000000
B1320315211278N01232745EA0127601362000028000000
B1320355211285N01232604EA0126601354000032000000
B1320395211292N01232461EA0125901346000032000000
B1320435211304N01232321EA0125401342000032000000
B1320475211316N01232182EA0125101340000032000000
B1320515211330N01232041EA0124501332000032000000
B1320555211347N01231901EA0124201338000032000000
B1320595211363N01231774EA0125401344000032000000
B1321035211378N01231647EA0125201336000028000000
B1321075211396N01231520EA0124501330000028000000
B1321115211419N01231393EA0123601324000028000000
B1321155211441N01231267EA0123301322000028000000
B1321195211465N01231142EA0123201320000028000000
B1321235211489N01231020EA0123001318000024000000
B1321275211511N01230897EA0122601311000024000000
B1321315211532N01230773EA0121701303000024000000
B1321355211554N01230645EA0121501303000024000000
B1321395211577N01230519EA0121501301000024000000
B1321435211601N01230388EA0120901295000024000000
B1321475211623N01230255EA0120701299000024000000
B1321515211646N01230137EA0122201324000024000000
B1321555211668N01230029EA0123701319000020000000
B1321595211690N01229912EA0122801312000020000000
B1322035211712N01229794EA0122401313000020000000
B1322075211733N01229679EA0122501311000020000000
B1322115211753N01229565EA0122301305000020000000
B1322155211771N01229448EA0121001294000020000000
B1322195211789N01229328EA0120201284000020000000
B1322235211810N01229207EA0119001275000024000000
B1322275211833N01229084EA0118601276000024000000
B1322315211864N01228973EA0119701291000020000000
B1322355211896N01228872EA0120801295000020000000
B1322395211926N01228773EA0121001295000020000000
B1322435211955N01228670EA0120901296000020000000
B1322475211984N01228568EA0121001295000016000000
B1322515212011N01228461EA0121001300000016000000
B1322555212037N01228364EA0121901306000016000000
B1322595212062N01228261EA0120901290000020000000
B1323035212089N01228145EA0119801278000020000000
B1323075212118N01228020EA0118401269000020000000
B1323115212147N01227889EA0117501260000024000000
B1323155212176N01227757EA0116701255000028000000
B1323195212206N01227623EA0116101247000028000000
B1323235212238N01227489EA0115501242000032000000
B1323275212267N01227356EA0114901234000032000000
B1323315212300N01227224EA0114301224000036000000
B1323355212332N01227090EA0113301218000036000000
B1323395212365N01226956EA0112501208000036000000
B1323435212397N01226822EA0111701200000036000000
B1323475212427N01226685EA0110901194000036000000
B1323515212456N01226549EA0110401189000036000000
B1323555212483N01226412EA0110001183000036000000
B1323595212512N01226277EA0109601180000036000000
B1324035212540N01226142EA0109201178000036000000
B1324075212569N01226012EA0109801204000032000000
B1324115212595N01225905EA0113401217000024000000
B1324155212624N01225794EA0112301191000024000000
B1324195212651N01225664EA0109701172000024000000
B1324235212678N01225531EA0108301162000028000000
B1324275212704N01225398EA0107201150000032000000
B1324315212732N01225263EA0105701137000036000000
B1324355212759N01225127EA0104801127000036000000
B1324395212782N01224989EA0103901117000036000000
B1324435212804N01224851EA0102501105000036000000
B1324475212826N01224711EA0101701099000036000000
B1324515212849N01224574EA0101401101000036000000
B1324555212869N01224452EA0102701111000032000000
B1324595212888N01224331EA0102301099000032000000
B1325035212908N01224204EA0101101086000032000000
B1325075212929N01224072EA0099901077000032000000
B1325115212947N01223938EA0099001071000032000000
B1325155212962N01223803EA0098501065000036000000
B1325195212971N01223667EA0097901061000032000000
B1325235212975N01223530EA0097501057000032000000
B1325275212977N01223394EA0096701047000036000000
B1325315212979N01223256EA0096001038000036000000
B1325355212980N01223122EA0095401031000032000000
B1325395212982N01222989EA0094701022000032000000
B1325435212988N01222856EA0093801013000032000000
B1325475212993N01222719EA0092701005000032000000
B1325515213001N01222581EA0091800995000032000000
B1325555213007N01222441EA0090700984000032000000
B1325595213018N01222298EA0089700969000032000000
B1326035213031N01222152EA0088500962000032000000
B1326075213044N01222012EA0089100983000032000000
B1326115213058N01221907EA0093101018000024000000
B1326155213067N01221806EA0094501023000024000000
B1326195213045N01221713EA0094301021000020000000
B1326235213007N01221640EA0094501024000020000000
B1326275213006N01221540EA0094701025000016000000
B1326315213037N01221435EA0094201014000016000000
B1326355213073N01221324EA0093101008000016000000
B1326395213102N01221205EA0092801008000016000000
B1326435213119N01221085EA0093101012000020000000
B1326475213132N01220960EA0092801003000020000000
B1326515213145N01220835EA0093301026000020000000
B1326555213146N01220726EA0095301031000020000000
B1326595213112N01220639EA0095201032000020000000
B1327035213057N01220638EA0095901041000016000000
B1327075213028N01220724EA0096201038000016000000
B1327115213058N01220830EA0095601034000016000000
B1327155213132N01220863EA0095801043000016000000
B1327195213201N01220816EA0097201053000016000000
B1327235213250N01220725EA0097101048000020000000
B1327275213279N01220612EA0096501046000020000000
B1327315213298N01220497EA0096601044000020000000
B1327355213315N01220376EA0095901030000024000000
B1327395213324N01220245EA0094001011000024000000
B1327435213331N01220109EA0092400999000028000000
B1327475213335N01219971EA0091400990000028000000
B1327515213340N01219834EA0090600982000032000000
B1327555213346N01219699EA0089600973000032000000
B1327595213354N01219563EA0088700961000032000000
B1328035213362N01219426EA0087800956000032000000
B1328075213369N01219291EA0087200947000032000000
B1328115213374N01219151EA0086200938000032000000
B1328155213376N01219006EA0085500932000032000000
B1328195213378N01218862EA0084600919000036000000
B1328235213375N01218712EA0083200907000036000000
B1328275213374N01218563EA0082400903000036000000
B1328315213372N01218415EA0081900897000036000000
B1328355213371N01218269EA0081100886000040000000
B1328395213366N01218120EA0080000872000036000000
B1328435213359N01217968EA0078400858000040000000
B1328475213354N01217810EA0077300849000040000000
B1328515213354N01217653EA0076900847000036000000
B1328555213357N01217498EA0077000853000036000000
B1328595213369N01217362EA0079600888000032000000
B1329035213387N01217241EA0081500891000028000000
B1329075213410N01217128EA0082900915000020000000
B1329115213424N01217026EA0084900929000020000000
B1329155213397N01216947EA0085500933000020000000
B1329195213343N01216948EA0085700940000020000000
B1329235213317N01217041EA0086700944000020000000
B1329275213357N01217143EA0086700948000020000000
B1329315213435N01217159EA0088000964000020000000
B1329355213495N01217089EA0089200975000016000000
B1329395213499N01216996EA0090300984000016000000
B1329435213456N01216959EA0090300979000016000000
B1329475213410N01217021EA0089900975000016000000
B1329515213414N01217137EA0089900980000016000000
B1329555213465N01217227EA0091401001000016000000
B1329595213535N01217256EA0092901008000016000000
B1330035213604N01217206EA0092601003000016000000
B1330075213618N01217106EA0092801015000016000000
B1330115213574N01217068EA0093801016000016000000
B1330155213527N01217136EA0093601019000016000000
B1330195213535N01217250EA0094601036000020000000
B1330235213596N01217323EA0096101044000016000000
B1330275213677N01217308EA0096401043000016000000
B1330315213722N01217212EA0096201046000020000000
B1330355213705N01217124EA0097301058000020000000
B1330395213655N01217108EA0097801059000020000000
B1330435213613N01217184EA0098301063000020000000
B1330475213621N01217303EA0098601072000020000000
B1330515213678N01217393EA0099901088000020000000
B1330555213755N01217414EA0101301095000020000000
B1330595213822N01217364EA0101701097000016000000
B1331035213843N01217266EA0101801102000016000000
B1331075213809N01217204EA0102301103000016000000
B1331115213753N01217225EA0102101107000016000000
B1331155213710N01217289EA0103401120000016000000
B1331195213701N01217397EA0103901121000016000000
B1331235213755N01217498EA0103801119000016000000
B1331275213838N01217503EA0104201129000016000000
B1331315213895N01217424EA0105101136000016000000
B1331355213924N01217319EA0105501142000016000000
B1331395213955N01217217EA0106101140000016000000
B1331435214003N01217113EA0105101127000016000000
B1331475214060N01217006EA0103901124000020000000
B1331515214116N01216902EA0105301147000020000000
B1331555214154N01216792EA0106901153000020000000
B1331595214141N01216686EA0108001170000020000000
B1332035214089N01216652EA0109401186000020000000
B1332075214047N01216721EA0110301183000020000000
B1332115214064N01216846EA0110201194000016000000
B1332155214129N01216921EA0111901209000016000000
B1332195214207N01216908EA0112701214000016000000
B1332235214262N01216826EA0113201218000016000000
B1332275214282N01216720EA0114101232000012000000
B1332315214256N01216638EA0115201240000016000000
B1332355214202N01216630EA0115701247000016000000
B1332395214156N01216683EA0117001260000016000000
B1332435214132N01216781EA0117501261000016000000
B1332475214147N01216903EA0117801270000016000000
B1332515214210N01216991EA0118901280000016000000
B1332555214289N01216977EA0119801287000016000000
B1332595214328N01216881EA0120201287000016000000
B1333035214307N01216782EA0119901291000016000000
B1333075214251N01216760EA0121201306000016000000
B1333115214208N01216834EA0122201309000016000000
B1333155214223N01216957EA0122501317000016000000
B1333195214290N01217035EA0123901330000016000000
B1333235214367N01217009EA0124701337000016000000
B1333275214405N01216913EA0125101337000016000000
B1333315214383N01216820EA0124801337000016000000
B1333355214327N01216820EA0125601350000016000000
B1333395214297N01216913EA0126101348000016000000
B1333435214334N01217032EA0126301358000016000000
B1333475214418N01217073EA0127601370000016000000
B1333515214496N01217020EA0128401373000020000000
B1333555214536N01216911EA0128201371000020000000
B1333595214513N01216804EA0128501378000020000000
B1334035214451N01216800EA0129401395000020000000
B1334075214418N01216889EA0131101401000016000000
B1334115214431N01217015EA0131201403000016000000
B1334155214497N01217098EA0132201418000016000000
B1334195214576N01217078EA0133301424000016000000
B1334235214624N01216983EA0133301421000016000000
B1334275214650N01216866EA0133301427000016000000
B1334315214674N01216749EA0134301436000016000000
B1334355214698N01216630EA0134601433000016000000
B1334395214726N01216504EA0134201433000020000000
B1334435214752N01216380EA0134701441000020000000
B1334475214778N01216261EA0134801434000020000000
B1334515214804N01216132EA0133901429000020000000
B1334555214826N01216001EA0133801430000024000000
B1334595214841N01215865EA0133701432000024000000
B1335035214847N01215734EA0134601440000024000000
B1335075214839N01215604EA0134701438000024000000
B1335115214806N01215496EA0134701438000024000000
B1335155214744N01215453EA0134301429000024000000
B1335195214676N01215485EA0133201418000024000000
B1335235214624N01215570EA0132001405000024000000
B1335275214585N01215680EA0131101400000024000000
B1335315214555N01215794EA0130701396000024000000
B1335355214520N01215902EA0130201389000024000000
B1335395214474N01216002EA0129201376000024000000
B1335435214416N01216093EA0128001366000024000000
B1335475214354N01216180EA0127101358000028000000
B1335515214290N01216266EA0126501355000028000000
B1335555214220N01216333EA0126001346000032000000
B1335595214145N01216385EA0125001337000032000000
B1336035214067N01216424EA0124001328000036000000
B1336075213987N01216458EA0123201323000036000000
B1336115213908N01216487EA0122801319000036000000
B1336155213830N01216513EA0122701320000036000000
B1336195213753N01216538EA0122501319000032000000
B1336235213679N01216561EA0122701317000032000000
B1336275213605N01216583EA0122101307000028000000
B1336315213531N01216604EA0121001296000032000000
B1336355213454N01216619EA0119901285000032000000
B1336395213378N01216619EA0119301291000028000000
B1336435213314N01216600EA0121801315000024000000
B1336475213255N01216575EA0123101323000020000000
B1336515213200N01216545EA0124301337000020000000
B1336555213148N01216515EA0125601346000016000000
B1336595213097N01216488EA0125701345000016000000
B1337035213044N01216452EA0125401336000012000000
B1337075212986N01216410EA0124301326000016000000
B1337115212929N01216357EA0123301318000016000000
B1337155212871N01216289EA0122201307000020000000
B1337195212813N01216213EA0121801311000020000000
B1337235212760N01216135EA0122901327000020000000
B1337275212711N01216064EA0125101349000020000000
B1337315212664N01216002EA0126901365000020000000
B1337355212630N01215919EA0127701368000020000000
B1337395212625N01215812EA0128101376000020000000
B1337435212661N01215717EA0128501373000020000000
B1337475212734N01215691EA0128201371000016000000
B1337515212793N01215764EA0128601376000016000000
B1337555212797N01215880EA0129001379000016000000
B1337595212763N01215977EA0129401384000016000000
B1338035212706N01216028EA0130101395000016000000
B1338075212648N01216005EA0131101404000016000000
B1338115212624N01215914EA0132001412000016000000
B1338155212652N01215816EA0132401412000016000000
B1338195212722N01215781EA0132501412000020000000
B1338235212787N01215837EA0132601416000020000000
B1338275212816N01215947EA0133101420000016000000
B1338315212797N01216058EA0133301422000016000000
B1338355212746N01216129EA0133801433000016000000
B1338395212682N01216155EA0134401434000016000000
B1338435212613N01216145EA0134201436000016000000
B1338475212548N01216118EA0135401452000016000000
B1338515212487N01216079EA0136701461000020000000
B1338555212459N01215984EA0137701472000020000000
B1338595212500N01215897EA0138501480000016000000
B1339035212576N01215906EA0139201484000016000000
B1339075212620N01216008EA0139801495000016000000
B1339115212599N01216112EA0141101506000016000000
B1339155212540N01216159EA0142001515000016000000
B1339195212475N01216170EA0143101528000016000000
B1339235212421N01216114EA0144201538000016000000
B1339275212405N01216006EA0145001544000016000000
B1339315212446N01215908EA0145401545000016000000
B1339355212526N01215906EA0145301545000016000000
B1339395212579N01216002EA0145401552000016000000
B1339435212585N01216124EA0146601566000016000000
B1339475212569N01216236EA0147901576000016000000
B1339515212513N01216292EA0148901587000016000000
B1339555212455N01216250EA0149801592000016000000
B1339595212446N01216140EA0150901608000016000000
B1340035212499N01216059EA0152101615000016000000
B1340075212574N01216072EA0152301615000016000000
B1340115212621N01216176EA0152601622000016000000
B1340155212609N01216298EA0153401632000016000000
B1340195212551N01216367EA0154301644000016000000
B1340235212487N01216344EA0155701654000016000000
B1340275212466N01216240EA0156601663000016000000
B1340315212505N01216141EA0157501671000016000000
B1340355212579N01216122EA0158201675000016000000
B1340395212643N01216198EA0158501683000016000000
B1340435212656N01216320EA0159801695000016000000
B1340475212613N01216418EA0160401702000016000000
B1340515212542N01216430EA0160901705000016000000
B1340555212492N01216349EA0161401715000016000000
B1340595212495N01216235EA0162601725000016000000
B1341035212548N01216153EA0163101724000016000000
B1341075212625N01216163EA0163001725000020000000
B1341115212677N01216258EA0163301731000020000000
B1341155212677N01216385EA0163801733000016000000
B1341195212622N01216478EA0164001738000020000000
B1341235212546N01216501EA0164101731000020000000
B1341275212461N01216473EA0162601711000024000000
B1341315212371N01216434EA0160401695000028000000
B1341355212284N01216391EA0159101684000028000000
B1341395212200N01216349EA0158701688000028000000
B1341435212119N01216310EA0158901686000032000000
B1341475212040N01216274EA0158401680000032000000
B1341515211959N01216237EA0158001674000028000000
B1341555211876N01216206EA0157301669000032000000
B1341595211793N01216181EA0157101669000028000000
B1342035211711N01216157EA0157401673000028000000
B1342075211632N01216140EA0158301693000028000000
B1342115211559N01216132EA0160201706000028000000
B1342155211493N01216132EA0162201730000024000000
B1342195211430N01216132EA0163601731000024000000
B1342235211367N01216133EA0163401724000020000000
B1342275211300N01216132EA0162101708000020000000
B1342315211229N01216132EA0160201689000020000000
B1342355211151N01216135EA0158301671000024000000
B1342395211066N01216144EA0156601658000024000000
B1342435210980N01216154EA0155601649000028000000
B1342475210895N01216164EA0154501640000028000000
B1342515210808N01216174EA0153701631000032000000
B1342555210722N01216184EA0153001631000032000000
B1342595210641N01216193EA0154001643000032000000
B1343035210563N01216203EA0155001654000028000000
B1343075210492N01216211EA0156401670000024000000
B1343115210432N01216216EA0159001693000024000000
B1343155210373N01216220EA0159801695000020000000
B1343195210317N01216216EA0161101714000016000000
B1343235210264N01216205EA0162001711000016000000
B1343275210206N01216189EA0161401709000016000000
B1343315210148N01216163EA0161501710000016000000
B1343355210089N01216141EA0161601712000016000000
B1343395210028N01216136EA0161901715000012000000
B1343435209961N01216148EA0160801692000016000000
B1343475209883N01216174EA0158101671000020000000
B1343515209800N01216211EA0156601659000024000000
B1343555209714N01216257EA0155801654000028000000
B1343595209631N01216305EA0155101643000028000000
B1344035209547N01216356EA0154401640000028000000
B1344075209463N01216404EA0154401641000028000000
B1344115209381N01216449EA0154501640000032000000
B1344155209300N01216495EA0154001634000032000000
B1344195209218N01216535EA0153001620000032000000
B1344235209133N01216574EA0151401608000032000000
B1344275209047N01216614EA0150201594000032000000
B1344315208958N01216648EA0149501589000032000000
B1344355208872N01216670EA0149601605000032000000
B1344395208800N01216690EA0152401630000028000000
B1344435208735N01216705EA0153401626000024000000
B1344475208677N01216720EA0154101654000024000000
B1344515208626N01216739EA0156401654000020000000
B1344555208568N01216766EA0155701644000016000000
B1344595208507N01216798EA0154401630000016000000
B1345035208438N01216833EA0152601615000020000000
B1345075208362N01216873EA0151001590000024000000
B1345115208279N01216922EA0148201563000028000000
B1345155208191N01216983EA0145901551000032000000
B1345195208102N01217051EA0145201545000036000000
B1345235208014N01217121EA0144801545000036000000
B1345275207927N01217189EA0145001544000036000000
B1345315207842N01217259EA0144501541000036000000
B1345355207760N01217328EA0144701542000036000000
B1345395207680N01217396EA0144101532000036000000
B1345435207597N01217463EA0142601516000036000000
B1345475207509N01217531EA0141501507000036000000
B1345515207424N01217602EA0140901501000040000000
B1345555207340N01217671EA0140401498000040000000
B1345595207256N01217740EA0140201494000040000000
B1346035207174N01217809EA0139801491000040000000
B1346075207096N01217878EA0140101506000040000000
B1346115207023N01217943EA0141301502000036000000
B1346155206948N01218013EA0140001486000036000000
B1346195206869N01218088EA0138501470000036000000
B1346235206787N01218166EA0137001461000036000000
B1346275206705N01218244EA0136601458000040000000
B1346315206625N01218326EA0136301455000040000000
B1346355206546N01218407EA0136101452000040000000
B1346395206469N01218491EA0135501441000040000000
B1346435206391N01218577EA0134401432000040000000
B1346475206315N01218664EA0133301422000040000000
B1346515206238N01218753EA0132401412000040000000
B1346555206161N01218842EA0131201400000040000000
B1346595206083N01218932EA0130301393000040000000
B1347035206008N01219023EA0130101391000040000000
B1347075205933N01219117EA0129301378000040000000
B1347115205856N01219213EA0127901366000040000000
B1347155205778N01219308EA0127201363000044000000
B1347195205704N01219405EA0127101364000040000000
B1347235205636N01219511EA0127101360000040000000
B1347275205572N01219619EA0126601355000036000000
B1347315205511N01219724EA0127001366000032000000
B1347355205461N01219825EA0128601393000028000000
B1347395205424N01219920EA0131901416000024000000
B1347435205368N01219940EA0133701428000024000000
B1347475205344N01219858EA0134001428000024000000
B1347515205389N01219775EA0133901421000020000000
B1347555205470N01219784EA0133701431000020000000
B1347595205528N01219866EA0135201445000016000000
B1348035205541N01219977EA0136301453000016000000
B1348075205505N01220064EA0136301448000016000000
B1348115205445N01220055EA0136301455000016000000
B1348155205429N01219960EA0137501464000016000000
B1348195205471N01219869EA0137901471000016000000
B1348235205544N01219832EA0138901479000016000000
B1348275205615N01219886EA0139001479000016000000
B1348315205637N01219999EA0139701490000012000000
B1348355205613N01220100EA0140201489000012000000
B1348395205565N01220181EA0139701484000012000000
B1348435205511N01220267EA0139201481000016000000
B1348475205454N01220354EA0138801473000020000000
B1348515205389N01220444EA0137101461000024000000
B1348555205329N01220529EA0138201484000024000000
B1348595205279N01220609EA0139501484000024000000
B1349035205227N01220694EA0138601472000024000000
B1349075205172N01220783EA0137301458000028000000
B1349115205112N01220883EA0135801434000028000000
B1349155205049N01220998EA0132901410000032000000
B1349195204980N01221119EA0131101395000036000000
B1349235204911N01221244EA0129701383000040000000
B1349275204843N01221376EA0128101367000040000000
B1349315204776N01221513EA0126801355000044000000
B1349355204708N01221647EA0125801349000044000000
B1349395204639N01221778EA0125601349000044000000
B1349435204573N01221907EA0125701353000040000000
B1349475204516N01222013EA0128701382000036000000
B1349515204458N01222117EA0128401366000036000000
B1349555204397N01222222EA0126901354000036000000
B1349595204335N01222319EA0127001372000036000000
B1350035204279N01222406EA0128801381000032000000
B1350075204220N01222494EA0128601367000032000000
B1350115204157N01222592EA0126901361000028000000
B1350155204096N01222688EA0127601366000028000000
B1350195204036N01222785EA0127501363000032000000
B1350235203973N01222883EA0126501349000032000000
B1350275203908N01222984EA0124901335000032000000
B1350315203842N01223088EA0123901326000032000000
B1350355203775N01223192EA0123301319000032000000
B1350395203708N01223295EA0122601314000036000000
B1350435203642N01223398EA0122101306000036000000
B1350475203577N01223502EA0121101296000032000000
B1350515203512N01223610EA0120401292000036000000
B1350555203451N01223720EA0119901288000036000000
B1350595203391N01223829EA0119601282000040000000
B1351035203327N01223938EA0118301269000040000000
B1351075203262N01224052EA0117401259000040000000
B1351115203200N01224166EA0116701251000040000000
B1351155203136N01224283EA0115701245000040000000
B1351195203078N01224404EA0115401241000040000000
B1351235203021N01224531EA0114301222000040000000
B1351275202962N01224668EA0112401207000044000000
B1351315202901N01224806EA0111001197000044000000
B1351355202840N01224943EA0110301189000044000000
B1351395202780N01225085EA0109501175000044000000
B1351435202722N01225229EA0108001167000044000000
B1351475202668N01225376EA0107801166000044000000
B1351515202616N01225523EA0107301158000044000000
B1351555202564N01225669EA0106301147000048000000
B1351595202511N01225814EA0105501140000048000000
B1352035202459N01225959EA0105101140000048000000
B1352075202408N01226102EA0105301145000044000000
B1352115202360N01226243EA0105701146000044000000
B1352155202315N01226388EA0105701146000044000000
B1352195202270N01226533EA0105701140000044000000
B1352235202226N01226679EA0104801130000040000000
B1352275202183N01226824EA0103901123000044000000
B1352315202140N01226969EA0103201116000044000000
B1352355202100N01227114EA0102801111000044000000
B1352395202061N01227260EA0102101103000044000000
B1352435202021N01227400EA0101401103000040000000
B1352475201981N01227525EA0102301113000036000000
B1352515201944N01227647EA0103101116000032000000
B1352555201913N01227776EA0103501123000028000000
B1352595201897N01227900EA0105401150000028000000
B1353035201918N01228020EA0107001151000024000000
B1353075201983N01228113EA0106901151000024000000
B1353115202075N01228134EA0106901156000020000000
B1353155202152N01228070EA0107901170000020000000
B1353195202178N01227962EA0109201175000020000000
B1353235202150N01227868EA0109201172000020000000
B1353275202091N01227833EA0109101178000020000000
B1353315202029N01227833EA0109401177000020000000
B1353355201964N01227840EA0109201175000024000000
B1353395201897N01227844EA0109301181000024000000
B1353435201838N01227858EA0110401190000024000000
B1353475201780N01227877EA0110701193000020000000
B1353515201724N01227916EA0111001192000020000000
B1353555201672N01227984EA0110801191000020000000
B1353595201627N01228070EA0110801194000020000000
B1354035201570N01228127EA0111001195000020000000
B1354075201507N01228161EA0110701191000020000000
B1354115201445N01228191EA0110801195000020000000
B1354155201384N01228215EA0111401200000016000000
B1354195201323N01228241EA0111301195000016000000
B1354235201260N01228265EA0110501186000020000000
B1354275201197N01228282EA0109801178000020000000
B1354315201133N01228300EA0108801167000024000000
B1354355201068N01228322EA0108001161000024000000
B1354395201003N01228348EA0107301153000024000000
B1354435200934N01228375EA0105901135000024000000
B1354475200859N01228405EA0104101120000032000000
B1354515200782N01228433EA0102801112000036000000
B1354555200704N01228457EA0102101102000036000000
B1354595200627N01228487EA0101001091000036000000
B1355035200549N01228518EA0100401086000036000000
B1355075200473N01228553EA0099901081000036000000
B1355115200396N01228590EA0099401075000036000000
B1355155200318N01228626EA0098701068000036000000
B1355195200241N01228668EA0098001062000036000000
B1355235200162N01228712EA0097401056000036000000
B1355275200085N01228755EA0097201055000036000000
B1355315200010N01228797EA0097101057000036000000
B1355355159938N01228841EA0097501057000032000000
B1355395159869N01228885EA0097201055000032000000
B1355435159802N01228933EA0097201055000032000000
B1355475159737N01228982EA0097101049000032000000
B1355515159673N01229034EA0095801033000032000000
B1355555159609N01229099EA0094401023000032000000
B1355595159548N01229155EA0094101022000028000000
B1356035159492N01229206EA0094101017000024000000
B1356075159442N01229272EA0092400997000024000000
B1356115159386N01229336EA0091000986000024000000
B1356155159332N01229406EA0089700971000024000000
B1356195159290N01229500EA0088600958000024000000
B1356235159256N01229605EA0088100967000024000000
B1356275159228N01229716EA0089500979000024000000
B1356315159199N01229820EA0090300987000020000000
B1356355159160N01229913EA0090500976000024000000
B1356395159105N01229980EA0088800961000024000000
B1356435159040N01230022EA0087200944000024000000
B1356475158970N01230058EA0085500930000028000000
B1356515158897N01230077EA0084000914000032000000
B1356555158820N01230084EA0082100894000032000000
B1356595158738N01230082EA0080700878000036000000
B1357035158656N01230082EA0079200866000040000000
B1357075158575N01230087EA0078200858000040000000
B1357115158493N01230090EA0077700856000040000000
B1357155158413N01230078EA0077800858000036000000
B1357195158337N01230073EA0077900857000036000000
B1357235158263N01230078EA0077700854000036000000
B1357275158190N01230087EA0077200846000036000000
B1357315158117N01230099EA0076400839000032000000
B1357355158044N01230113EA0075200821000032000000
B1357395157966N01230130EA0073900817000032000000
B1357435157892N01230143EA0074700827000032000000
B1357475157819N01230158EA0074600817000032000000
B1357515157743N01230173EA0073800814000032000000
B1357555157665N01230189EA0073800819000032000000
B1357595157589N01230199EA0074500833000028000000
B1358035157523N01230198EA0076000835000028000000
B1358075157453N01230195EA0074900816000028000000
B1358115157375N01230197EA0073500813000028000000
B1358155157302N01230195EA0074800834000028000000
B1358195157234N01230195EA0076100836000024000000
B1358235157161N01230203EA0075300827000024000000
B1358275157089N01230234EA0075400835000024000000
B1358315157038N01230321EA0076500845000024000000
B1358355157034N01230444EA0077700857000020000000
B1358395157073N01230550EA0078600864000020000000
B1358435157143N01230596EA0079000867000020000000
B1358475157208N01230548EA0078900859000020000000
B1358515157234N01230438EA0077900853000020000000
B1358555157220N01230327EA0077700858000020000000
B1358595157180N01230247EA0079000869000020000000
B1359035157119N01230227EA0079300867000020000000
B1359075157061N01230285EA0079300873000020000000
B1359115157044N01230397EA0080100882000020000000
B1359155157082N01230506EA0080700882000020000000
B1359195157160N01230535EA0080800887000020000000
B1359235157220N01230464EA0081300892000020000000
B1359275157226N01230355EA0081600892000020000000
B1359315157174N01230297EA0081600894000020000000
B1359355157115N01230346EA0081800898000020000000
B1359395157094N01230459EA0082800908000020000000
B1359435157122N01230576EA0083000910000020000000
B1359475157193N01230627EA0084100922000020000000
B1359515157258N01230575EA0084600921000020000000
B1359555157263N01230466EA0084400920000020000000
B1359595157215N01230405EA0084700930000020000000
B1400035157159N01230453EA0085800938000020000000
B1400075157155N01230566EA0086200941000016000000
B1400115157211N01230649EA0086600946000016000000
B1400155157286N01230649EA0086900948000016000000
B1400195157345N01230583EA0087200951000016000000
B1400235157364N01230480EA0087400950000016000000
B1400275157332N01230397EA0087200949000020000000
B1400315157271N01230386EA0087100950000016000000
B1400355157224N01230461EA0087700957000016000000
B1400395157228N01230579EA0088000956000020000000
B1400435157286N01230665EA0087800955000020000000
B1400475157368N01230683EA0088000960000020000000
B1400515157436N01230630EA0088600963000020000000
B1400555157483N01230533EA0088300960000020000000
B1400595157533N01230437EA0088500962000020000000
B1401035157580N01230332EA0088100959000020000000
B1401075157606N01230214EA0089100974000020000000
B1401115157590N01230099EA0090100988000020000000
B1401155157537N01230039EA0091901008000020000000
B1401195157481N01230072EA0093701021000020000000
B1401235157455N01230169EA0094501026000016000000
B1401275157486N01230276EA0095101036000016000000
B1401315157558N01230315EA0096201045000016000000
B1401355157620N01230255EA0097801065000020000000
B1401395157642N01230150EA0099201073000016000000
B1401435157619N01230052EA0100301086000016000000
B1401475157561N01230030EA0100901091000016000000
B1401515157516N01230108EA0101101093000016000000
B1401555157532N01230223EA0101501099000020000000
B1401595157600N01230277EA0102601114000016000000
B1402035157670N01230243EA0104001126000016000000
B1402075157706N01230149EA0105401141000016000000
B1402115157681N01230054EA0106501147000020000000
B1402155157620N01230030EA0106901152000020000000
B1402195157576N01230104EA0107401156000016000000
B1402235157590N01230217EA0107501157000016000000
B1402275157658N01230277EA0108401172000016000000
B1402315157735N01230260EA0110001188000016000000
B1402355157778N01230169EA0111501205000016000000
B1402395157762N01230067EA0112701212000016000000
B1402435157705N01230029EA0113301217000016000000
B1402475157653N01230086EA0113601220000016000000
B1402515157652N01230198EA0113901225000016000000
B1402555157705N01230276EA0115501247000016000000
B1402595157775N01230286EA0117201259000016000000
B1403035157832N01230220EA0118601274000016000000
B1403075157834N01230115EA0119301277000016000000
B1403115157782N01230050EA0119901285000016000000
B1403155157722N01230069EA0120701292000016000000
B1403195157691N01230163EA0120901292000016000000
B1403235157706N01230275EA0120901298000016000000
B1403275157766N01230338EA0122401315000016000000
B1403315157835N01230310EA0123401320000016000000
B1403355157858N01230204EA0124201331000016000000
B1403395157819N01230120EA0125201336000016000000
B1403435157757N01230137EA0125601344000016000000
B1403475157736N01230238EA0126301348000016000000
B1403515157780N01230327EA0126901356000016000000
B1403555157854N01230321EA0127601367000016000000
B1403595157895N01230227EA0128801373000016000000
B1404035157867N01230129EA0129201381000016000000
B1404075157802N01230120EA0129701382000016000000
B1404115157761N01230207EA0129601382000016000000
B1404155157780N01230316EA0130201393000016000000
B1404195157844N01230376EA0131301401000016000000
B1404235157917N01230347EA0132001409000016000000
B1404275157973N01230264EA0133101419000016000000
B1404315157978N01230150EA0133801425000016000000
B1404355157930N01230074EA0134201430000016000000
B1404395157867N01230095EA0134501432000016000000
B1404435157841N01230194EA0134701432000016000000
B1404475157879N01230297EA0134401429000016000000
B1404515157956N01230337EA0134801440000016000000
B1404555158036N01230311EA0136201456000016000000
B1404595158100N01230236EA0138001474000016000000
B1405035158117N01230126EA0139301481000016000000
B1405075158081N01230033EA0139201469000016000000
B1405115158012N01230008EA0138001468000016000000
B1405155157958N01230071EA0138501475000016000000
B1405195157951N01230180EA0138701474000012000000
B1405235157991N01230281EA0138701478000016000000
B1405275158061N01230341EA0139801496000016000000
B1405315158136N01230336EA0141901513000012000000
B1405355158186N01230254EA0143101521000016000000
B1405395158190N01230146EA0143601522000016000000
B1405435158144N01230073EA0143601522000016000000
B1405475158084N01230082EA0143301518000016000000
B1405515158048N01230168EA0143201521000016000000
B1405555158052N01230279EA0143701526000016000000
B1405595158100N01230370EA0144001533000016000000
B1406035158173N01230410EA0145201547000012000000
B1406075158250N01230403EA0146401558000012000000
B1406115158316N01230342EA0147401565000016000000
B1406155158335N01230236EA0148401579000016000000
B1406195158300N01230154EA0149401582000016000000
B1406235158240N01230155EA0149301582000016000000
B1406275158207N01230240EA0149801588000016000000
B1406315158227N01230342EA0150601596000016000000
B1406355158290N01230397EA0151401605000016000000
B1406395158364N01230383EA0152001607000016000000
B1406435158415N01230293EA0152101612000016000000
B1406475158412N01230184EA0153101622000016000000
B1406515158370N01230103EA0153401622000016000000
B1406555158309N01230074EA0152901615000016000000
B1406595158247N01230099EA0152401614000016000000
B1407035158190N01230142EA0152801619000016000000
B1407075158138N01230191EA0153101623000016000000
