AZAN5FL ZANDER/SDI GP941 V2.11
HFDTE160813
HFFXA050
HFPLT Pilot             :Dirk Gintzel                            
HFGTY Glider type       :LS8                                     
HFGID Glider ID         :D-0109    
HFDTM100 GPS Datum      :WGS84
HFRFW Firmware Version  :11
HFRHW Hardware version  :2
HFFTY FR Type           :ZANDER/SDI GP941
HFGPS                   :Garmin,GPS25,12,30000
HFPRS Press Alt Sensor  :Intersema,MS5534A,10000
HFCCL Competition Class :GK                                      
HFCID Competition ID    :SB        
I023638IAS3941ENL
J020810WDI1113WVE
LZAN 110833 PowerOn
C160813091629160813000104
C5208650N01240100E 001SPLUESSE 
C5208650N01240100E 001SPLUESSE 
C5214950N01215366E 246ZIESAR   
C5133483N01300666E 213TORGAU   
C5132016N01355583E 192SPEEDWAY 
C5209483N01246883E 010CP24     
C5208650N01240100E 001SPLUESSE 
C5208650N01240100E 001SPLUESSE 
B1108375208675N01240545EV0000700000009000
B1108415208675N01240545EV0000700000011004
B1108455208658N01240550EA0000700064012000
B1108495208662N01240545EA0000700072008000
B1108535208662N01240550EA0000700064002000
B1108575208662N01240550EA0000700072000004
B1109015208662N01240550EA0000700072000000
B1109055208662N01240550EA0000700072000004
B1109095208662N01240550EA0000700072000004
B1109135208662N01240550EA0000700072000008
B1109175208666N01240550EA0000700072000008
B1109215208666N01240550EA0000700064000024
B1109255208666N01240550EA0000700064000016
B1109295208666N01240545EA0000700064000000
B1109335208670N01240545EA0000800064000012
B1109375208670N01240545EA0000800064000004
B1109415208670N01240545EA0000800064000000
B1109455208670N01240545EA0000800064000004
B1109495208670N01240545EA0000800064000004
B1109535208670N01240545EA0000800064000008
B1109575208670N01240545EA0000800064000008
B1110015208675N01240545EA0000800064000000
B1110055208675N01240545EA0000800064000004
B1110095208675N01240545EA0000800064000000
B1110135208675N01240545EA0000800064000000
B1110175208675N01240545EA0000800064000004
B1110215208675N01240545EA0000800064000000
B1110255208675N01240545EA0000800064000004
B1110295208675N01240545EA0000800064000004
B1110335208675N01240545EA0000800064000004
B1110375208675N01240545EA0000800064000004
B1110415208675N01240545EA0000800064000004
B1110455208675N01240545EA0000800064000004
B1110495208675N01240545EA0000700064000020
B1110535208675N01240545EA0000700064000012
B1110575208675N01240545EA0000700064000000
B1111015208675N01240545EA0000700064000008
B1111055208679N01240545EA0000700064000012
B1111095208679N01240545EA0000700064000008
B1111135208679N01240545EA0000700064000028
B1111175208679N01240545EA0000700064000020
B1111215208679N01240545EA0000700064000012
B1111255208679N01240545EA0000700064000020
B1111295208679N01240545EA0000700064000008
B1111335208679N01240545EA0000700064000008
B1111375208679N01240545EA0000700064000004
B1111415208679N01240545EA0000600064000008
B1111455208679N01240545EA0000600064000004
B1111495208679N01240545EA0000600064000004
B1111535208679N01240545EA0000600064000000
B1111575208679N01240545EA0000600064000000
B1112015208679N01240545EA0000600064000000
B1112055208679N01240541EA0000600064000000
B1112095208679N01240541EA0000600064000000
B1112135208679N01240541EA0000600064000000
B1112175208679N01240545EA0000600064000000
B1112215208679N01240545EA0000600064000000
B1112255208679N01240545EA0000600064000000
B1112295208679N01240545EA0000600064000000
B1112335208679N01240545EA0000600064000000
B1112375208679N01240545EA0000700064000000
B1112415208679N01240545EA0000700064000000
B1112455208679N01240545EA0000700064000000
B1112495208679N01240545EA0000700064000000
B1112535208679N01240545EA0000700064000000
B1112575208679N01240545EA0000700064000000
B1113015208679N01240545EA0000700072000000
B1113055208679N01240545EA0000700072000000
B1113095208679N01240545EA0000700064000000
B1113135208679N01240545EA0000700064000000
B1113175208679N01240545EA0000600064000000
B1113215208679N01240545EA0000600064000000
B1113255208679N01240545EA0000600064000000
B1113295208675N01240545EA0000600064000028
B1113335208675N01240545EA0000600064000016
B1113375208675N01240545EA0000600064000004
B1113415208675N01240545EA0000600064000016
B1113455208675N01240545EA0000600064000000
B1113495208679N01240545EA0000600064000000
B1113535208679N01240545EA0000600072000000
B1113575208679N01240545EA0000600072000000
B1114015208679N01240545EA0000600072000000
B1114055208679N01240545EA0000600072000000
B1114095208679N01240545EA0000700072000000
B1114135208679N01240545EA0000700072000000
B1114175208679N01240545EA0000700072000000
B1114215208679N01240545EA0000700072000000
B1114255208679N01240545EA0000700072000000
B1114295208679N01240545EA0000700072000000
B1114335208679N01240545EA0000700072000000
B1114375208679N01240545EA0000700072000000
B1114415208679N01240545EA0000700072000000
B1114455208679N01240545EA0000700072000000
B1114495208679N01240545EA0000700072000000
B1114535208679N01240545EA0000700072000000
B1114575208679N01240545EA0000700072000000
B1115015208679N01240545EA0000700072000000
B1115055208679N01240545EA0000700072000000
B1115095208679N01240545EA0000700072000000
B1115135208679N01240545EA0000700072000000
B1115175208679N01240545EA0000700072000000
B1115215208679N01240545EA0000700072000000
B1115255208679N01240545EA0000700072000000
B1115295208679N01240541EA0000700072000000
B1115335208679N01240541EA0000700072000000
B1115375208679N01240541EA0000700072000000
B1115415208679N01240541EA0000700072000000
B1115455208679N01240541EA0000700072000000
B1115495208679N01240541EA0000700072000000
B1115535208679N01240545EA0000700072000000
B1115575208679N01240545EA0000700072000000
B1116015208679N01240545EA0000700072000000
B1116055208679N01240545EA0000700072000000
B1116095208679N01240545EA0000700072000000
B1116135208679N01240545EA0000700072000000
B1116175208679N01240545EA0000700072000000
B1116215208679N01240545EA0000700072000000
B1116255208679N01240545EA0000700072000000
B1116295208679N01240545EA0000700072000000
B1116335208679N01240545EA0000700072000000
B1116375208679N01240545EA0000600072000000
B1116415208679N01240545EA0000600072000000
B1116455208679N01240545EA0000600064000000
B1116495208675N01240545EA0000600064000000
B1116535208675N01240545EA0000600064000000
B1116575208675N01240545EA0000600064000000
B1117015208675N01240545EA0000600064000000
B1117055208675N01240545EA0000600064000000
B1117095208675N01240545EA0000600064000000
B1117135208675N01240545EA0000600064000000
B1117175208675N01240545EA0000600072000000
B1117215208675N01240545EA0000600072000000
B1117255208675N01240545EA0000700072000000
B1117295208675N01240545EA0000700064000000
B1117335208675N01240545EA0000700064000000
B1117375208675N01240545EA0000700064000000
B1117415208675N01240545EA0000700072000000
B1117455208675N01240545EA0000800064000000
B1117495208675N01240545EA0000800064000000
B1117535208675N01240545EA0000800064000008
B1117575208675N01240545EA0000800064000004
B1118015208675N01240545EA0000800064000004
B1118055208675N01240545EA0000800064000008
B1118095208675N01240545EA0000800064000028
B1118135208675N01240545EA0000800064000016
B1118175208675N01240545EA0000800064000020
B1118215208675N01240545EA0000800064000024
B1118255208675N01240545EA0000800064000020
B1118295208675N01240545EA0000800064000020
B1118335208675N01240545EA0000800064000016
B1118375208675N01240545EA0000800064000016
B1118415208675N01240545EA0000800064000024
B1118455208675N01240545EA0000800064000020
B1118495208675N01240545EA0000800064000020
B1118535208675N01240545EA0000800064000024
B1118575208675N01240545EA0000800064000040
B1119015208675N01240545EA0000800064000032
B1119055208675N01240545EA0000800064000004
B1119095208675N01240545EA0000800064000024
B1119135208675N01240545EA0000800064000008
B1119175208675N01240545EA0000800064000008
B1119215208675N01240545EA0000800064000040
B1119255208675N01240545EA0000800064000024
B1119295208675N01240545EA0000800064000000
B1119335208675N01240545EA0000800064000020
B1119375208675N01240545EA0000800064000028
B1119415208675N01240545EA0000800064000016
B1119455208675N01240545EA0000800064000000
B1119495208675N01240545EA0000800064000016
B1119535208675N01240545EA0000800064000028
B1119575208675N01240545EA0000800064000016
B1120015208675N01240545EA0000800064000036
B1120055208675N01240545EA0000800064000032
B1120095208675N01240545EA0000800064000016
B1120135208675N01240545EA0000800064000024
B1120175208675N01240545EA0000800064000016
B1120215208675N01240545EA0000800064000016
B1120255208675N01240545EA0000800064000016
B1120295208675N01240545EA0000800064000016
B1120335208675N01240545EA0000800064000024
B1120375208675N01240545EA0000800064000020
B1120415208675N01240545EA0000800064000040
B1120455208675N01240545EA0000800064000032
B1120495208675N01240545EA0000800064000016
B1120535208675N01240545EA0000800064000028
B1120575208675N01240545EA0000800064000024
B1121015208675N01240545EA0000800064000020
B1121055208675N01240545EA0000800064000040
B1121095208675N01240545EA0000800064000032
B1121135208675N01240545EA0000800064000032
B1121175208675N01240545EA0000800064000036
B1121215208675N01240545EA0000800064000020
B1121255208675N01240545EA0000800064000024
B1121295208675N01240545EA0000800064005024
B1121335208675N01240545EA0000800064009024
B1121375208675N01240545EA0000900064006016
B1121415208675N01240545EA0000900064004020
B1121455208675N01240545EA0001000064002044
B1121495208675N01240545EA0001000064004032
B1121505208675N01240545EA0001000064005036
B1121515208675N01240545EA0001000064005040
B1121525208675N01240545EA0001000064005040
B1121535208675N01240545EA0001000064005040
B1121545208675N01240545EA0001000064005020
B1121555208675N01240545EA0001000064004032
B1121565208675N01240545EA0001000064000028
B1121575208675N01240545EA0001000064000024
B1121585208675N01240545EA0001000064000024
B1121595208675N01240545EA0001000064000024
B1122015208675N01240545EA0001000064000024
B1122055208675N01240545EA0001000064004024
B1122095208675N01240545EA0001000064003020
B1122135208675N01240545EA0001000064004024
B1122175208675N01240545EA0001000064004020
B1122215208675N01240545EA0001000064001020
B1122255208675N01240545EA0001000064004032
B1122295208675N01240545EA0001000064004024
B1122335208675N01240545EA0001000064004028
B1122375208675N01240545EA0001000064004032
B1122385208675N01240545EA0001000064003016
B1122395208675N01240545EA0001000064004024
B1122405208675N01240545EA0001000064003024
B1122415208675N01240545EA0001000064004020
B1122425208675N01240545EA0001000064003024
B1122435208675N01240545EA0000900064003024
B1122445208675N01240545EA0000900064003020
B1122455208675N01240545EA0000900064000024
B1122465208675N01240545EA0000900064000020
B1122475208675N01240545EA0000900064001020
B1122485208675N01240545EA0000900064000016
B1122495208675N01240545EA0000900064000016
B1122505208675N01240545EA0000900064002016
B1122515208675N01240545EA0000900064003016
B1122525208675N01240545EA0000900064002020
B1122535208675N01240545EA0000900064003016
B1122545208675N01240545EA0000900064003024
B1122555208675N01240545EA0000900064003024
B1122565208675N01240545EA0000900064004024
B1122575208675N01240545EA0000900064004024
B1123015208675N01240545EA0000900064004024
B1123055208675N01240545EA0000900064003024
B1123095208675N01240545EA0000900064004000
B1123135208675N01240545EA0000900064004012
C160813112314160813000104
C5208650N01240100E 001SPLUESSE 
C5208650N01240100E 001SPLUESSE 
C5214950N01215366E 246ZIESAR   
C5133483N01300666E 213TORGAU   
C5144016N01336633E 107KLEINKRAU
C5209483N01246883E 010CP24     
C5208650N01240100E 001SPLUESSE 
C5208650N01240100E 001SPLUESSE 
B1123175208675N01240545EA0000900064003028
B1123215208675N01240545EA0001000064003016
B1123255208675N01240545EA0000900064003008
B1123295208675N01240545EA0001000064000016
B1123335208675N01240545EA0001100064000028
B1123375208675N01240545EA0001100064000016
B1123415208675N01240545EA0001100064003016
B1123455208675N01240545EA0001100064006024
B1123495208675N01240545EA0001000064000016
B1123535208675N01240545EA0001000064003016
B1123575208675N01240545EA0001000064002004
B1124015208675N01240545EA0001000064001008
B1124055208675N01240545EA0001000064000012
B1124095208675N01240545EA0001000064002008
B1124135208675N01240545EA0001000064002044
B1124175208675N01240545EA0001000064000028
B1124215208675N01240545EA0001000064004020
B1124255208675N01240545EA0001000064000032
B1124295208675N01240545EA0001000064002000
B1124335208675N01240545EA0001000064003008
B1124375208675N01240545EA0001000064003004
B1124415208675N01240545EA0001000064003000
B1124455208675N01240545EA0001000064000020
B1124495208675N01240545EA0001000064003012
B1124535208675N01240545EA0001000064000000
B1124575208675N01240545EA0001000064004008
B1125015208675N01240545EA0001000064004012
B1125055208675N01240545EA0001000064004008
B1125095208675N01240545EA0001000064003012
B1125135208675N01240545EA0001000064003012
B1125175208675N01240545EA0001000064000004
B1125215208675N01240545EA0001000064004008
B1125255208675N01240545EA0001000064001004
B1125295208675N01240545EA0001000064000004
B1125335208675N01240545EA0001000064000012
B1125375208675N01240545EA0000900064000008
B1125415208675N01240545EA0000900064000004
B1125455208675N01240545EA0000900064000008
B1125495208675N01240545EA0000900064000000
B1125535208675N01240545EA0000900064000000
B1125575208675N01240545EA0000900064000000
B1126015208675N01240545EA0000900064000000
B1126055208675N01240545EA0000900064000000
B1126095208675N01240545EA0000900064000000
B1126135208679N01240545EA0000900064000000
B1126175208679N01240545EA0000800064000000
B1126215208679N01240545EA0000800064000000
B1126255208679N01240545EA0000800064000000
B1126295208679N01240545EA0000800064000000
B1126335208679N01240545EA0000800064000000
B1126375208679N01240545EA0000800064000000
B1126415208679N01240545EA0000800064000000
B1126455208679N01240545EA0000800064000000
B1126495208679N01240545EA0000800064000000
B1126535208679N01240545EA0000800064000000
B1126575208679N01240545EA0000800064000000
B1127015208679N01240545EA0000800064000000
B1127055208679N01240545EA0000800064000000
B1127095208679N01240545EA0000800064000000
B1127135208679N01240545EA0000800064000000
B1127175208679N01240545EA0000800064000000
B1127215208679N01240545EA0000800064000000
B1127255208679N01240545EA0000800064000000
B1127295208679N01240545EA0000800064000000
B1127335208675N01240545EA0000800064000000
B1127375208675N01240545EA0000800064000000
B1127415208675N01240545EA0000800064000000
B1127455208675N01240545EA0000800064000000
B1127495208675N01240545EA0000900064000000
B1127535208675N01240545EA0000900064000000
B1127575208675N01240545EA0000900064000000
B1128015208679N01240545EA0000900064000000
B1128055208679N01240545EA0000900064000000
B1128095208679N01240545EA0000900064000000
B1128135208679N01240545EA0000900064000004
B1128175208679N01240545EA0000900064000000
B1128215208679N01240545EA0000900064000020
B1128255208675N01240545EA0000900064000012
B1128295208675N01240545EA0000900064000004
B1128335208675N01240545EA0000900064000012
B1128375208675N01240545EA0000900064000008
B1128415208675N01240545EA0000900064000008
B1128455208675N01240545EA0000900064000004
B1128495208675N01240545EA0000900064000008
B1128535208675N01240545EA0000900064000004
B1128575208675N01240545EA0000900064000004
B1129015208675N01240545EA0000900064000028
B1129055208675N01240545EA0000900064000016
B1129095208675N01240545EA0000900064000016
B1129135208675N01240545EA0000900064000024
B1129175208675N01240545EA0000900064002000
B1129215208679N01240545EA0000900064004008
B1129255208679N01240545EA0000900064005012
B1129295208679N01240545EA0000900064005008
B1129335208679N01240545EA0000900064004008
B1129375208679N01240545EA0000900064009008
B1129415208675N01240545EA0000900064007028
B1129455208679N01240545EA0000900064004016
B1129495208675N01240545EA0000900064008008
B1129535208675N01240545EA0000900064007016
B1129575208675N01240545EA0000900064009028
B1130015208675N01240545EA0000900064009016
B1130055208675N01240545EA0000900064009000
B1130095208675N01240545EA0000900064005016
B1130135208675N01240545EA0000900064003012
B1130175208675N01240545EA0000900064000008
B1130215208675N01240545EA0000900064000008
B1130255208679N01240545EA0000900064000008
B1130295208679N01240545EA0000900064004004
B1130335208679N01240545EA0000900064004008
B1130375208675N01240545EA0000900064004004
B1130415208679N01240545EA0000900064006004
B1130455208679N01240545EA0000900064004020
B1130495208679N01240545EA0000900064005012
B1130535208679N01240545EA0000900064009020
B1130575208679N01240545EA0000900064001020
B1131015208679N01240545EA0000900064000004
B1131055208679N01240545EA0000900064004012
B1131095208679N01240545EA0000900064004008
B1131135208679N01240545EA0000900064004008
B1131175208675N01240545EA0000900064008004
B1131215208675N01240545EA0000900064008008
B1131255208675N01240545EA0000900064000004
B1131295208675N01240545EA0000900064000004
B1131335208675N01240545EA0000900064000004
B1131375208675N01240545EA0000900064002004
B1131415208675N01240545EA0000900064000008
B1131455208675N01240545EA0000900064000008
B1131495208675N01240545EA0000900064004012
B1131535208675N01240545EA0000900064005008
B1131575208675N01240545EA0000900064004012
B1132015208675N01240545EA0000900064005012
B1132055208675N01240545EA0000900064005004
B1132095208675N01240545EA0000900064004008
B1132135208675N01240545EA0000900064004000
B1132175208675N01240545EA0000900064004000
B1132215208675N01240545EA0000900064004000
B1132255208675N01240545EA0000900064004000
B1132295208675N01240545EA0000900064004012
B1132335208675N01240545EA0000900064002008
B1132375208675N01240545EA0000900064003012
B1132415208675N01240545EA0000900064000012
B1132455208675N01240545EA0001000064002004
B1132495208675N01240545EA0001000064002008
B1132535208675N01240545EA0001000064004000
B1132575208675N01240545EA0001000064004000
B1133015208675N01240545EA0001000064005000
B1133055208675N01240545EA0001000064005000
B1133095208675N01240545EA0001000064008000
B1133135208675N01240545EA0001000064007000
B1133175208675N01240545EA0001000064008000
B1133215208675N01240545EA0001000064006000
B1133255208675N01240545EA0001000064008004
B1133295208675N01240545EA0001000064009000
B1133335208675N01240545EA0001100064006004
B1133375208675N01240545EA0001100064003004
B1133415208675N01240545EA0001100064008008
B1133455208675N01240545EA0001100064005008
B1133495208675N01240545EA0001100064000028
B1133535208675N01240545EA0001100064000016
B1133575208675N01240545EA0001100064000024
B1134015208675N01240545EA0001100064003024
B1134055208675N01240545EA0001100064000020
B1134095208675N01240545EA0001100064003024
B1134135208675N01240545EA0001100064000040
B1134175208675N01240545EA0001100064004032
B1134215208675N01240545EA0001000064003016
B1134255208675N01240545EA0001000064003028
B1134295208675N01240545EA0001000064003008
B1134335208675N01240545EA0001000064001012
B1134375208675N01240545EA0001000064004012
B1134415208675N01240545EA0001000064004008
B1134455208675N01240545EA0001000064004008
B1134495208675N01240545EA0001000064002008
B1134535208675N01240545EA0001000064003008
B1134575208675N01240545EA0001000064004008
B1135015208675N01240545EA0000900064007008
B1135055208675N01240545EA0000900064006008
B1135095208675N01240545EA0000900064005008
B1135135208675N01240545EA0000900064000008
B1135175208675N01240545EA0000900064000008
B1135215208675N01240545EA0000900064002008
B1135255208675N01240545EA0000900064004008
B1135295208675N01240545EA0000900064004008
B1135335208675N01240545EA0000900064000004
B1135375208675N01240545EA0000900064004008
B1135415208675N01240545EA0000900064000028
B1135455208675N01240545EA0000900064000016
B1135495208675N01240545EA0000900064000020
B1135535208675N01240545EA0000900064003024
B1135575208675N01240545EA0001000064001016
B1136015208675N01240545EA0001000064001016
B1136055208675N01240545EA0001000064001032
B1136095208675N01240545EA0001000064001024
B1136135208675N01240545EA0001000064000020
B1136175208675N01240545EA0001000064000024
B1136215208675N01240545EA0001000064003016
B1136255208675N01240545EA0001000064008016
B1136295208675N01240545EA0001000064008016
B1136335208675N01240545EA0001000064007016
B1136375208675N01240545EA0001100064008000
B1136415208675N01240545EA0001100064010008
B1136455208675N01240545EA0001100064012012
B1136495208675N01240545EA0001100064011008
B1136535208675N01240545EA0001100064009044
B1136575208675N01240545EA0001100064014028
B1137015208675N01240545EA0001100064014020
B1137055208675N01240545EA0001100064010032
B1137095208675N01240545EA0001100064011004
B1137135208675N01240545EA0001100064011012
B1137175208675N01240545EA0001100064010008
B1137215208675N01240545EA0001100064013008
B1137255208675N01240545EA0001100064013008
B1137295208675N01240545EA0001100064012008
B1137335208675N01240545EA0001100064009028
B1137375208675N01240545EA0001100064009016
B1137415208675N01240545EA0001100064008036
B1137455208675N01240545EA0001100064006032
B1137495208675N01240545EA0001100064007012
B1137535208675N01240545EA0001100064005024
B1137575208675N01240545EA0001100064006008
B1138015208675N01240545EA0001100064005008
B1138055208675N01240545EA0001100064005000
B1138095208675N01240545EA0001100064004004
B1138135208675N01240545EA0001100064002000
B1138175208675N01240545EA0001100064004000
B1138215208675N01240545EA0001100064005000
B1138255208675N01240545EA0001100064004000
B1138295208675N01240545EA0001100064009000
B1138335208675N01240545EA0001100064005000
B1138375208675N01240545EA0001100064000020
B1138415208675N01240545EA0001100064004008
B1138455208675N01240545EA0001100064005016
B1138495208675N01240545EA0001100064009016
B1138535208675N01240545EA0001100064000000
B1138575208675N01240545EA0001100064009008
B1139015208675N01240545EA0001100064011008
B1139055208675N01240541EA0001100064008004
B1139095208675N01240541EA0001100064010008
B1139135208675N01240541EA0001100064011008
B1139175208675N01240541EA0001100064014024
B1139215208675N01240541EA0001100064008016
B1139255208675N01240541EA0001100064010020
B1139295208675N01240541EA0001100064006024
B1139335208675N01240541EA0001100064003028
B1139375208675N01240541EA0001100064000024
B1139415208675N01240541EA0001100064000056
B1139455208675N01240541EA0001100064006040
B1139495208675N01240541EA0001100064003040
B1139535208675N01240541EA0001100064005048
B1139575208675N01240541EA0001100064005016
B1140015208675N01240541EA0001100064007028
B1140055208675N01240541EA0001100064008016
B1140095208675N01240541EA0001100064007016
B1140135208675N01240541EA0001100064008000
B1140175208675N01240541EA0001100064003008
B1140215208675N01240541EA0001100064000012
B1140255208675N01240541EA0001100064008008
B1140295208675N01240541EA0001100064010012
B1140335208675N01240541EA0001100064006012
B1140375208679N01240541EA0001100064008008
B1140415208679N01240541EA0001100064006008
B1140455208679N01240541EA0001100064010008
B1140495208679N01240541EA0001100064009008
B1140535208679N01240541EA0001100064005004
B1140575208679N01240541EA0001100064013008
B1141015208679N01240541EA0001100064000004
B1141055208679N01240541EA0001100064000004
B1141095208679N01240541EA0001100064000012
B1141135208679N01240541EA0001100064003008
B1141175208679N01240541EA0001100064000008
B1141215208679N01240541EA0001100064000008
B1141255208679N01240541EA0001100064000008
B1141295208679N01240545EA0001100064000008
B1141335208679N01240541EA0001100064002008
B1141375208675N01240541EA0001100064001008
B1141415208675N01240545EA0001100064000004
B1141455208675N01240545EA0001100064004008
B1141495208675N01240545EA0001100064000024
B1141535208675N01240545EA0001100064000016
B1141575208675N01240545EA0001100064003028
B1142015208675N01240545EA0001100064000024
B1142055208675N01240545EA0001100064000004
B1142095208675N01240545EA0001100064000016
B1142135208675N01240545EA0001100064004004
B1142175208675N01240545EA0001100064002004
B1142215208675N01240545EA0001100064006004
B1142255208675N01240545EA0001100064007004
B1142295208675N01240545EA0001100064008004
B1142335208675N01240545EA0001100064005004
B1142375208675N01240545EA0001100064002028
B1142415208675N01240545EA0001100064000016
B1142455208675N01240545EA0001100064002024
B1142495208675N01240545EA0001100064001024
B1142535208675N01240545EA0001100064001020
B1142575208675N01240545EA0001100064000024
B1143015208675N01240545EA0001100064001020
B1143055208675N01240545EA0001100064000020
B1143095208675N01240545EA0001100064004056
B1143135208675N01240545EA0001100064004040
B1143175208675N01240545EA0001100064002032
B1143215208675N01240545EA0001100064000044
B1143255208675N01240545EA0001100064000016
B1143295208675N01240541EA0001100064000024
B1143335208679N01240541EA0001100064000016
B1143375208679N01240541EA0001100064000016
B1143415208679N01240541EA0001100064000032
B1143455208679N01240541EA0001100064002024
B1143495208679N01240541EA0001100064003012
B1143535208679N01240541EA0001200064001024
B1143575208679N01240541EA0001200064000012
B1144015208679N01240541EA0001200064003012
B1144055208679N01240541EA0001200064000028
B1144095208679N01240541EA0001200064000020
B1144135208679N01240541EA0001200064000048
B1144175208679N01240541EA0001200064000040
B1144215208679N01240541EA0001200064000000
B1144255208679N01240541EA0001200064000024
B1144295208679N01240541EA0001200064001012
B1144335208679N01240541EA0001200064000008
B1144375208679N01240537EA0001200064000004
B1144415208679N01240537EA0001200064000008
B1144455208679N01240537EA0001200064000004
B1144495208679N01240537EA0001200064002004
B1144535208679N01240537EA0001200064001004
B1144575208679N01240537EA0001200064000004
B1145015208679N01240537EA0001200064004004
B1145055208679N01240537EA0001200064000004
B1145095208679N01240537EA0001200064000008
B1145135208679N01240537EA0001200064001008
B1145175208679N01240537EA0001200072003044
B1145215208679N01240537EA0001200072000024
B1145255208679N01240537EA0001200072004016
B1145295208679N01240537EA0001100064007032
B1145335208679N01240537EA0001100064007004
B1145375208679N01240537EA0001100064007008
B1145415208679N01240537EA0001100064006044
B1145455208679N01240537EA0001100064006024
B1145495208679N01240537EA0001100064007040
B1145535208679N01240537EA0001100064003040
B1145575208679N01240537EA0001100064000020
B1146015208679N01240537EA0001100064000032
B1146055208679N01240537EA0001100064006016
B1146095208679N01240537EA0001100064001016
B1146135208679N01240537EA0001100064006024
B1146175208679N01240537EA0001100064000020
B1146215208679N01240537EA0001100064000016
B1146255208679N01240537EA0001100064004020
B1146295208679N01240537EA0001100064001024
B1146335208679N01240537EA0001100064002020
B1146375208679N01240537EA0001100064000024
B1146415208679N01240537EA0001100064000024
B1146455208679N01240537EA0001100064000000
B1146495208679N01240537EA0001100064004012
B1146535208675N01240541EA0001100064005012
B1146575208675N01240541EA0001200064005008
B1147015208675N01240541EA0001200064005012
B1147055208675N01240541EA0001200064007012
B1147095208675N01240537EA0001200064006012
B1147135208675N01240537EA0001200064005012
B1147175208675N01240537EA0001200064008012
B1147215208675N01240537EA0001200064004012
B1147255208675N01240537EA0001200064000008
B1147295208675N01240537EA0001200064002008
B1147335208675N01240537EA0001200064002008
B1147375208675N01240537EA0001200064004008
B1147415208675N01240537EA0001200064006008
B1147455208675N01240537EA0001200064006008
B1147495208675N01240537EA0001200064000040
B1147535208675N01240537EA0001200064004024
B1147545208675N01240537EA0001200064002040
B1147555208675N01240537EA0001200064000040
B1147565208675N01240537EA0001200064000016
B1147575208675N01240537EA0001200064000028
B1147585208675N01240537EA0001200064000024
B1147595208675N01240537EA0001200064000020
B1148005208675N01240537EA0001200064000000
B1148015208675N01240537EA0001200064001012
B1148025208675N01240537EA0001200064005012
B1148035208675N01240537EA0001200064006008
B1148045208675N01240537EA0001200064005008
B1148055208675N01240537EA0001200064005008
B1148065208675N01240537EA0001200064004004
B1148075208675N01240537EA0001200064006008
B1148085208675N01240537EA0001200064006000
B1148095208675N01240537EA0001200064006000
B1148105208675N01240537EA0001200064005000
B1148115208675N01240537EA0001200064005000
B1148125208675N01240537EA0001200064004000
B1148135208675N01240537EA0001200064002000
B1148145208675N01240537EA0001200064003000
B1148155208675N01240537EA0001200064004000
B1148165208675N01240537EA0001200064004000
B1148175208675N01240537EA0001200064005000
B1148185208675N01240537EA0001200064005000
B1148195208675N01240537EA0001200064005000
B1148205208675N01240537EA0001200064003004
B1148215208675N01240537EA0001200064003000
B1148225208675N01240537EA0001200064004004
B1148235208675N01240537EA0001200064006004
B1148245208675N01240537EA0001200064007004
B1148255208675N01240537EA0001200064009004
B1148265208675N01240537EA0001200064007004
B1148275208675N01240537EA0001200064007004
B1148285208675N01240537EA0001200064007004
B1148295208675N01240537EA0001200064006004
B1148305208675N01240537EA0001200064007004
B1148335208675N01240537EA0001200064007004
B1148375208675N01240537EA0001200064006004
B1148415208675N01240537EA0001200064003004
B1148455208675N01240537EA0001200064001028
B1148495208675N01240537EA0001200064000016
B1148535208675N01240537EA0001200064002000
B1148575208675N01240537EA0001200064004016
B1149015208675N01240537EA0001200064004008
B1149055208675N01240537EA0001200064005004
B1149095208675N01240537EA0001200064005008
B1149135208675N01240537EA0001200064005008
B1149175208675N01240537EA0001200064007028
B1149215208675N01240537EA0001200064005016
B1149255208675N01240537EA0001200064005020
B1149295208675N01240537EA0001200064004024
B1149335208675N01240537EA0001200064004000
B1149375208675N01240537EA0001200064005008
B1149415208675N01240537EA0001200064006028
B1149455208675N01240537EA0001200064007016
B1149495208675N01240537EA0001200064007060
B1149535208675N01240537EA0001200064008044
B1149575208675N01240541EA0001200064008036
B1150015208675N01240541EA0001200064008048
B1150055208675N01240541EA0001200064006076
B1150095208675N01240541EA0001200064008056
B1150135208675N01240541EA0001200064005028
B1150175208675N01240541EA0001200064005052
B1150215208675N01240541EA0001200064004012
B1150255208675N01240541EA0001200064000020
B1150295208675N01240541EA0001200064004008
B1150335208675N01240541EA0001200064000008
B1150375208675N01240541EA0001200064000012
B1150415208675N01240541EA0001200064000008
B1150455208679N01240541EA0001200064001044
B1150495208679N01240541EA0001200064003028
B1150535208679N01240541EA0001200064003068
B1150575208679N01240541EA0001200064001056
B1151015208679N01240541EA0001200064000048
B1151055208675N01240541EA0001200064000056
B1151095208675N01240541EA0001200064004020
B1151135208679N01240541EA0001200064004032
B1151175208679N01240541EA0001200064000076
B1151215208679N01240541EA0001200064001048
B1151255208679N01240541EA0001200064000072
B1151295208679N01240541EA0001200064000072
B1151335208679N01240541EA0001200064000068
B1151375208675N01240541EA0001200064000072
B1151415208675N01240541EA0001100064004032
B1151455208675N01240541EA0001100064006048
B1151495208675N01240541EA0001100064000004
B1151535208675N01240541EA0001100064002016
B1151575208675N01240541EA0001100064003008
B1152015208675N01240541EA0001100064004008
B1152055208675N01240541EA0001100064000000
B1152095208675N01240541EA0001100064000004
B1152135208675N01240541EA0001100064000004
B1152175208675N01240541EA0001100064005000
B1152215208675N01240541EA0001100064000004
B1152255208675N01240541EA0001100064000004
B1152295208675N01240541EA0001100064000040
B1152335208675N01240541EA0001100064003024
B1152375208675N01240541EA0001100064007020
B1152415208675N01240541EA0001100064005032
B1152455208675N01240541EA0001100064005024
B1152495208675N01240541EA0001100064004024
B1152535208675N01240541EA0001100064007024
B1152575208675N01240541EA0001100064010024
B1153015208675N01240541EA0001100064006020
B1153055208675N01240541EA0001100064007024
B1153095208675N01240541EA0001100064007044
B1153135208675N01240541EA0001100064008032
B1153175208675N01240541EA0001100064003040
B1153215208675N01240541EA0001100064006040
B1153255208675N01240541EA0001100064005040
B1153295208675N01240541EA0001100064007040
B1153335208675N01240541EA0001100064008016
B1153375208675N01240541EA0001100064009028
B1153415208675N01240541EA0001100064011028
B1153455208675N01240541EA0001100064012024
B1153495208675N01240541EA0001100064010016
B1153535208675N01240541EA0001100064009024
B1153575208675N01240541EA0001100064010020
B1154015208675N01240541EA0001100064008016
B1154055208675N01240541EA0001100064012000
B1154095208675N01240541EA0001100064010008
B1154135208675N01240541EA0001100064007076
B1154175208675N01240541EA0001100064005040
B1154215208675N01240541EA0001100064005052
B1154255208675N01240541EA0001200064008064
B1154295208675N01240541EA0001200064008016
B1154335208675N01240541EA0001200064008032
B1154375208675N01240541EA0001200064007024
B1154415208675N01240541EA0001200064005020
B1154455208675N01240541EA0001200064006000
B1154495208675N01240541EA0001200064004012
B1154535208675N01240541EA0001200064005012
B1154575208675N01240541EA0001200064001008
B1155015208675N01240541EA0001200064001024
B1155055208675N01240541EA0001200064004016
B1155095208675N01240541EA0001200064003136
B1155135208675N01240541EA0001200064000136
B1155175208675N01240541EA0001200064000048
B1155215208675N01240541EA0001200064000092
B1155255208675N01240541EA0001200064000064
B1155295208675N01240541EA0001200064000056
B1155335208675N01240541EA0001200064000020
B1155375208675N01240541EA0001200064007040
B1155415208675N01240541EA0001200064009020
B1155455208675N01240541EA0001200064008020
B1155495208675N01240541EA0001200064005020
B1155535208675N01240541EA0001200064004020
B1155575208675N01240541EA0001200064003000
B1156015208675N01240541EA0001200064006008
B1156055208675N01240541EA0001200064003028
B1156095208675N01240541EA0001200064004016
B1156135208675N01240541EA0001200064004000
B1156175208675N01240541EA0001200064000016
B1156215208675N01240541EA0001200064001012
B1156255208675N01240541EA0001200064002008
B1156295208675N01240541EA0001200064004044
B1156335208675N01240541EA0001200064004028
B1156375208675N01240541EA0001200064006076
B1156415208675N01240541EA0001200064010060
B1156455208675N01240545EA0001200064010016
B1156495208675N01240545EA0001200064005048
B1156535208675N01240541EA0001200064002000
B1156575208675N01240545EA0001200064003008
B1157015208675N01240545EA0001200064005004
B1157055208675N01240545EA0001200064005000
B1157095208675N01240545EA0001200064010000
B1157135208675N01240545EA0001300064007000
B1157175208675N01240545EA0001300064000036
B1157215208675N01240545EA0001300064000016
B1157255208675N01240545EA0001300064000060
B1157295208675N01240545EA0001300064000048
B1157335208675N01240545EA0001300064000004
B1157375208675N01240545EA0001300064000032
B1157415208675N01240545EA0001300064000008
B1157455208675N01240545EA0001300064000008
B1157495208675N01240545EA0001300064000004
B1157535208675N01240545EA0001200064000008
B1157575208675N01240545EA0001100064000004
B1158015208675N01240545EA0001100064000004
B1158055208675N01240545EA0001100064000000
B1158095208675N01240545EA0001100064000000
B1158135208675N01240545EA0001100064000000
B1158175208675N01240545EA0001100064000000
B1158215208675N01240545EA0001100064000004
B1158255208675N01240545EA0001100064000000
B1158295208675N01240545EA0001100064000004
B1158335208675N01240545EA0001100064000004
B1158375208675N01240545EA0001100064000008
B1158415208675N01240545EA0001100064000008
B1158455208675N01240545EA0001100064000008
B1158495208675N01240545EA0001100064000008
B1158535208675N01240545EA0001100064002008
B1158575208675N01240545EA0001100064000008
B1159015208675N01240545EA0001100064000012
B1159055208675N01240545EA0001100064003008
B1159095208675N01240545EA0001100064000008
B1159135208675N01240545EA0001100064000008
B1159175208675N01240545EA0001100064000044
B1159215208675N01240545EA0001100064000024
B1159255208675N01240545EA0001100064000104
B1159295208675N01240545EA0001100064000072
B1159335208675N01240545EA0001100064000088
B1159375208675N01240545EA0001100064000096
B1159415208675N01240545EA0001100064000056
B1159455208675N01240545EA0001100064000072
B1159495208675N01240545EA0001100064000040
B1159535208675N01240545EA0001100064000048
B1159575208675N01240545EA0001100064000040
B1200015208675N01240545EA0001100064000040
B1200055208675N01240545EA0001100064000040
B1200095208675N01240545EA0001100064000040
B1200135208675N01240545EA0001100064000040
B1200175208675N01240545EA0001100064000040
B1200215208675N01240545EA0001100064000004
B1200255208675N01240545EA0001200064000024
B1200295208675N01240545EA0001200064000076
B1200335208675N01240545EA0001200064000040
B1200375208675N01240545EA0001200064000020
B1200415208675N01240545EA0001200064000048
B1200455208675N01240545EA0001100064000016
B1200495208675N01240545EA0001100064000016
B1200535208675N01240545EA0001100064004036
B1200575208675N01240545EA0001100064012024
B1201015208675N01240545EA0001100064000016
B1201055208675N01240545EA0001100064000024
B1201095208675N01240545EA0001100064000020
B1201135208675N01240537EA0001100064011016
B1201175208666N01240508EA0001100064029176
B1201215208654N01240458EA0001100064058564
B1201255208633N01240383EA0001100064062904
B1201295208608N01240291EA0001100064082632
B1201335208583N01240183EA0001800072093180
B1201375208554N01240075EA0002900088096180
B1201415208525N01239975EA0005000096090076
K120141114037
B1201455208500N01239883EA0006600120087128
B1201495208475N01239791EA0008300136085060
B1201535208445N01239704EA0009200144090068
B1201575208412N01239616EA0009700152092124
B1202015208383N01239516EA0010300160092092
K120201120043
B1202055208350N01239416EA0010900168092076
B1202095208320N01239312EA0011900176092100
B1202135208287N01239208EA0013200184095060
B1202175208258N01239104EA0014200200094068
B1202215208225N01239004EA0015400216093032
K120221122052
B1202255208195N01238904EA0016700224095048
B1202295208166N01238800EA0017800240092044
B1202335208145N01238687EA0018300240093040
B1202375208125N01238583EA0019400248094036
B1202415208104N01238483EA0020900264089040
K120241126051
B1202455208083N01238379EA0021400272088036
B1202495208058N01238275EA0022200280090036
B1202535208037N01238175EA0023100288093036
B1202575208012N01238070EA0023500296090036
B1203015207991N01237966EA0024500304092056
K120301130053
B1203055207966N01237862EA0025100312088048
B1203095207945N01237762EA0025600320089044
B1203135207916N01237658EA0025800320090048
B1203175207887N01237562EA0026400328089040
B1203215207854N01237462EA0027300328093040
K120321128065
B1203255207820N01237362EA0027900344092044
B1203295207787N01237266EA0029800352094040
B1203335207758N01237170EA0031600376095060
B1203375207733N01237070EA0033000392094052
B1203415207704N01236966EA0033400400092084
K120341126061
B1203455207675N01236858EA0033600400102072
B1203495207650N01236754EA0034100408088072
B1203535207625N01236650EA0035300416095080
B1203575207604N01236545EA0035900424093084
B1204015207579N01236441EA0036700432093080
K120401128062
B1204055207558N01236329EA0037800440094080
B1204095207533N01236220EA0038600448094080
B1204135207508N01236112EA0039400464092048
B1204175207483N01236000EA0040200472092064
K120417128069
B1204215207454N01235895EA0040500472094072
B1204255207425N01235791EA0041700480098060
B1204295207387N01235695EA0043800496095080
B1204335207337N01235633EA0045600520089076
B1204375207283N01235591EA0048200544090056
B1204415207229N01235562EA0048200552087068
K120441126077
B1204455207166N01235550EA0048200552089052
B1204495207100N01235562EA0048500552091056
B1204535207041N01235591EA0049100560093064
B1204575206979N01235633EA0049300560095056
K120457126077
B1205015206920N01235691EA0049400560092084
B1205055206866N01235762EA0049800568092072
B1205095206816N01235841EA0050300576090056
B1205135206770N01235916EA0051000576086072
B1205175206725N01235995EA0051200584091040
K120517100050
B1205215206687N01236100EA0051600584098048
B1205255206662N01236220EA0052800600097104
B1205295206650N01236345EA0055000624091072
B1205335206654N01236470EA0056000632090068
B1205375206670N01236600EA0056000632094088
K120537100050
B1205415206695N01236729EA0056100632092076
B1205455206725N01236854EA0056500632094072
B1205495206754N01236970EA0057600648087084
B1205535206787N01237095EA0058300656088080
B1205575206820N01237216EA0059100664088036
B1206015206850N01237333EA0059400672088060
K120601254014
B1206055206883N01237450EA0059800672089076
B1206095206916N01237570EA0060200680088056
B1206135206950N01237687EA0060400680089040
B1206175206991N01237804EA0060900688087056
K120617248033
B1206215207025N01237912EA0061800696075044
B1206255207062N01238008EA0061100688071040
B1206295207129N01238066EA0060500680073020
B1206335207208N01238066EA0060400680076032
B1206375207283N01238025EA0060900680078016
K120637240035
B1206415207362N01237975EA0062100688082016
B1206455207437N01238004EA0063300712075020
B1206495207466N01238112EA0063500712075016
B1206535207429N01238179EA0064900728077020
B1206575207395N01238129EA0066100736074020
K120657240035
B1207015207420N01238037EA0066800744073020
B1207055207491N01238004EA0068000752074020
B1207095207550N01238070EA0068300760070020
B1207135207554N01238179EA0068200760072020
B1207175207516N01238250EA0068800768075016
K120717200025
B1207215207462N01238250EA0069600776075016
B1207255207433N01238166EA0070700784077024
B1207295207470N01238075EA0072300800071020
B1207335207545N01238079EA0073300808077020
B1207375207579N01238170EA0075000824067024
K120737182017
B1207415207550N01238241EA0075000824076020
B1207455207500N01238212EA0075800832076020
B1207495207495N01238116EA0077300856070024
B1207535207550N01238045EA0077800856070024
B1207575207625N01238070EA0079100864074020
K120757170021
B1208015207650N01238170EA0080000880071024
B1208055207616N01238241EA0080500880076020
B1208095207570N01238208EA0081700896074020
B1208135207575N01238108EA0082600904071016
B1208175207637N01238050EA0082600904072016
K120817180021
B1208215207708N01238104EA0084100920073016
B1208255207720N01238208EA0085000928072016
B1208295207679N01238258EA0085400936075020
B1208335207637N01238200EA0086900944073016
B1208375207645N01238104EA0088000960067020
K120837178020
B1208415207712N01238045EA0088000960072020
B1208455207787N01238075EA0089100968073020
B1208495207820N01238170EA0089800984070020
B1208535207795N01238262EA0090000984076024
B1208575207745N01238275EA0091300984075024
B1209015207716N01238191EA0092901008071020
K120901180019
B1209055207754N01238104EA0093101016071024
B1209095207833N01238095EA0093201016076024
B1209135207887N01238175EA0094501032070024
B1209175207883N01238275EA0094901032075024
K120917182019
B1209215207833N01238316EA0096201040073024
B1209255207791N01238270EA0097601056071020
B1209295207800N01238166EA0098301072071024
B1209335207866N01238116EA0098601072071020
B1209375207937N01238154EA0099601080071020
K120937180018
B1209415207966N01238250EA0100301088070024
B1209455207933N01238325EA0100801088076024
B1209495207883N01238312EA0102101104070020
B1209535207866N01238220EA0102801112072024
B1209575207908N01238129EA0103601120068024
K120957172020
B1210015207983N01238108EA0103701120071024
B1210055208045N01238175EA0104701128070020
B1210095208054N01238279EA0105301136071024
B1210135208016N01238341EA0106001144072024
B1210175207966N01238316EA0107401160071024
K121017180020
B1210215207954N01238225EA0107401160073020
B1210255208004N01238141EA0108301168071024
B1210295208079N01238141EA0109201184068024
B1210335208129N01238220EA0109501184069024
B1210375208125N01238325EA0109501184071020
K121037184020
B1210415208075N01238383EA0109501184077024
B1210455208020N01238341EA0110001192079020
B1210495208008N01238241EA0111101200072020
B1210535208050N01238154EA0111901208069024
B1210575208120N01238129EA0112301208067024
K121057176018
B1211015208183N01238187EA0112701216070020
B1211055208204N01238287EA0112801216068024
B1211095208175N01238370EA0113301224072024
B1211135208125N01238387EA0114201232073024
B1211175208083N01238325EA0114601232071024
K121117176019
B1211215208083N01238220EA0114701232070024
B1211255208133N01238133EA0114901240071020
B1211295208208N01238129EA0115201240072024
B1211335208262N01238208EA0116101248073024
B1211375208262N01238308EA0116901256070024
K121137174020
B1211415208216N01238350EA0117401264071028
B1211455208170N01238300EA0118501272070024
B1211495208175N01238200EA0118901280068016
B1211535208237N01238137EA0118801280071024
B1211575208312N01238166EA0118601272072016
K121157180019
B1212015208358N01238258EA0120001288069016
B1212055208358N01238354EA0120601296069024
B1212095208316N01238408EA0120301288073020
B1212135208262N01238383EA0120801296075016
B1212175208241N01238300EA0121801312066020
B1212215208262N01238200EA0121801312072020
K121221182020
B1212255208329N01238141EA0122601320070016
B1212295208400N01238162EA0122501320067016
B1212335208450N01238254EA0122201312076016
B1212375208462N01238366EA0123501328072020
B1212415208433N01238445EA0123701328070016
K121241182021
B1212455208379N01238466EA0123701328072020
B1212495208337N01238412EA0123701328071020
B1212535208316N01238316EA0123001320073016
B1212575208325N01238204EA0123501328076016
K121257182020
B1213015208375N01238108EA0123901328073024
B1213055208445N01238075EA0124101336071020
B1213095208520N01238108EA0124101336071024
B1213135208575N01238200EA0124101336072024
B1213175208587N01238312EA0125201344073024
K121317182022
B1213215208562N01238395EA0126101352073024
B1213255208512N01238416EA0127501368068020
B1213295208470N01238370EA0128201376067024
B1213335208458N01238270EA0128201376070016
B1213375208495N01238175EA0129201384071016
K121337184022
B1213415208562N01238141EA0129601392067020
B1213455208633N01238183EA0129601384070016
B1213495208670N01238283EA0129601384072016
B1213535208666N01238395EA0129901392073016
B1213575208629N01238466EA0130701400072020
B1214015208575N01238462EA0131101408068016
K121401186019
B1214055208541N01238387EA0131101400069020
B1214095208550N01238283EA0131201408070020
B1214135208595N01238200EA0132101416067020
B1214175208666N01238179EA0132401416066020
K121417182018
B1214215208729N01238229EA0132201416069020
B1214255208762N01238333EA0132401416070020
B1214295208750N01238429EA0132501416070016
B1214335208704N01238479EA0133001424070016
B1214375208654N01238445EA0133401432064020
K121437182018
B1214415208633N01238362EA0132601416071016
B1214455208650N01238258EA0133501424070016
B1214495208704N01238191EA0133901432067016
B1214535208779N01238212EA0133501432067020
B1214575208820N01238304EA0133401424070016
K121457184018
B1215015208816N01238408EA0133901432072020
B1215055208779N01238458EA0135401448065020
B1215095208729N01238437EA0134501440069000
B1215135208700N01238350EA0134301440072008
B1215175208716N01238250EA0134901448065028
K121517180020
B1215215208775N01238187EA0134501440067016
B1215255208854N01238195EA0133901432071020
B1215295208912N01238266EA0134301440068024
B1215335208941N01238366EA0134901448066020
B1215375208929N01238458EA0134901448069020
K121537180022
B1215415208879N01238495EA0134801440070020
B1215455208829N01238470EA0134801440069020
B1215495208800N01238387EA0134501440068020
B1215535208808N01238275EA0133801432078020
B1215575208825N01238154EA0132601424083020
K121557180019
B1216015208841N01238025EA0132201416085020
B1216055208858N01237895EA0131401408084020
B1216095208870N01237766EA0130601400086020
B1216135208883N01237633EA0130201392089024
B1216175208891N01237504EA0130001392088024
B1216215208908N01237370EA0129401384088024
K121621224031
B1216255208920N01237241EA0129101384089024
B1216295208937N01237116EA0129101384089024
B1216335208954N01236991EA0129101384086024
B1216375208966N01236870EA0128401376086028
K121637150063
B1216415208979N01236741EA0127301368090024
B1216455208995N01236612EA0126301352093024
B1216495209008N01236483EA0125101344096024
B1216535209025N01236345EA0124101336095040
B1216575209041N01236216EA0123901328092032
K121657146060
B1217015209058N01236083EA0123401320089032
B1217055209075N01235954EA0123701328091036
B1217095209079N01235837EA0125601344079016
B1217135209079N01235725EA0126701352075024
B1217175209116N01235637EA0127301360070028
K121717146082
B1217215209191N01235620EA0126701360072024
B1217255209262N01235687EA0127001360072016
B1217295209291N01235795EA0128701376071024
B1217335209270N01235883EA0129101384068020
B1217375209220N01235895EA0129101384071016
K121737146082
B1217415209175N01235841EA0129801384070016
B1217455209158N01235754EA0130201392068016
B1217495209175N01235658EA0130201392070020
B1217535209195N01235554EA0128801384075016
B1217575209216N01235445EA0128101376081016
K121757188020
B1218015209229N01235329EA0127401368083016
B1218055209245N01235216EA0127701368081020
B1218095209266N01235104EA0127401368078016
B1218135209283N01235000EA0127401368075020
B1218175209291N01234900EA0126801360073020
K121817148082
B1218215209295N01234795EA0126701352075020
B1218255209295N01234687EA0126701352076020
B1218295209287N01234587EA0127201360073016
B1218335209275N01234495EA0127701368071016
B1218375209295N01234391EA0127901368068020
K121837148083
B1218415209358N01234325EA0128201376068016
B1218455209437N01234316EA0129001376067016
B1218495209504N01234370EA0129101384069016
B1218535209537N01234470EA0129201384069020
B1218575209525N01234570EA0129401384068016
K121857148083
B1219015209491N01234637EA0129601384069020
B1219055209441N01234675EA0129601384070020
B1219095209395N01234666EA0129601392069024
B1219135209366N01234595EA0129601392071024
B1219175209383N01234500EA0130101392064020
K121917188025
B1219215209429N01234416EA0129801392068024
B1219255209500N01234370EA0130401392068024
B1219295209579N01234370EA0130801400068024
B1219335209641N01234441EA0130801400068020
B1219375209654N01234545EA0130801400068024
K121937188025
B1219415209620N01234620EA0130801400069020
B1219455209575N01234633EA0130801400069020
B1219495209537N01234583EA0130801400071016
B1219535209541N01234487EA0130801400069016
B1219575209604N01234416EA0131201408070016
K121957186025
B1220015209679N01234433EA0132201416066016
B1220055209725N01234520EA0131901416067024
B1220095209712N01234620EA0131101408072020
B1220135209670N01234679EA0131301408070016
B1220175209625N01234675EA0132101416067020
K122017188024
B1220215209604N01234604EA0131901416069016
B1220255209604N01234504EA0131601408067016
B1220295209629N01234404EA0131601416071020
B1220335209691N01234333EA0132201416069016
B1220375209770N01234316EA0132501416069020
K122037186025
B1220415209833N01234379EA0133501432066020
B1220455209854N01234475EA0133401424066028
B1220495209825N01234550EA0132801424069024
B1220535209775N01234575EA0132501416075016
B1220575209733N01234520EA0133101424071024
K122057176024
B1221015209745N01234420EA0133601432070020
B1221055209812N01234362EA0133901432069016
B1221095209887N01234400EA0133901432072020
B1221135209916N01234500EA0134101440069020
B1221175209891N01234583EA0134101440070020
K122117180022
B1221215209841N01234591EA0134301440074020
B1221255209808N01234525EA0134801448069024
B1221295209812N01234425EA0135401448069024
B1221335209858N01234341EA0135901456064020
B1221375209929N01234320EA0134301440068024
K122137178023
B1221415210000N01234370EA0133901432072020
B1221455210029N01234470EA0134301440068020
B1221495210008N01234550EA0134501440068020
B1221535209958N01234575EA0134601440070020
B1221575209908N01234545EA0135601448069024
K122157176021
B1222015209879N01234475EA0135401448070024
B1222055209887N01234379EA0135601448066020
B1222095209941N01234308EA0134301440069024
B1222135210020N01234304EA0133901432068020
B1222175210087N01234358EA0133801432066020
K122217178022
B1222215210120N01234458EA0133801432068020
B1222255210100N01234545EA0133501424070020
B1222295210050N01234562EA0133101424074020
B1222335210004N01234516EA0133101424077020
B1222375209966N01234445EA0133201424072016
K122237178024
B1222415209937N01234362EA0132901424071016
B1222455209912N01234262EA0132001416078020
B1222495209883N01234154EA0132001408083016
B1222535209858N01234045EA0132201416082020
B1222575209825N01233954EA0132201416078020
K122257176024
B1223015209770N01233916EA0132201416075020
B1223055209725N01233950EA0132501416068020
B1223095209712N01234045EA0131901408069024
B1223135209737N01234141EA0131901408063024
B1223175209791N01234208EA0131901408064020
K122317176024
B1223215209862N01234220EA0131701408068024
B1223255209929N01234183EA0132101408064020
B1223295209991N01234129EA0132001408064020
B1223335210037N01234050EA0131601400067016
B1223375210058N01233950EA0131201400066016
K122337176024
B1223415210050N01233862EA0130901400065016
B1223455210025N01233787EA0129801392066016
B1223495209983N01233729EA0128801376071020
B1223535209933N01233687EA0128301368074016
B1223575209875N01233650EA0127301368076016
K122357182019
B1224015209820N01233620EA0126501352080016
B1224055209758N01233591EA0125901352081020
B1224095209700N01233566EA0125401344082016
B1224135209633N01233545EA0124501336086024
B1224175209570N01233520EA0124601336083024
K122417118060
B1224215209508N01233491EA0125001344080024
B1224255209450N01233466EA0124801344080024
B1224295209387N01233445EA0123701328083028
B1224335209320N01233429EA0122401312090024
B1224375209250N01233412EA0122101312091028
K122437080060
B1224415209183N01233395EA0121001296092028
B1224455209112N01233370EA0120401296092024
B1224495209041N01233345EA0119201280093024
B1224535208966N01233325EA0118601272095024
B1224575208895N01233304EA0118601272091024
K122457072057
B1225015208825N01233279EA0120001288085024
B1225055208766N01233250EA0121101296077024
B1225095208712N01233237EA0121401304073024
B1225135208666N01233295EA0121501304077024
B1225175208683N01233408EA0122601312074016
K122517068056
B1225215208750N01233466EA0123501320072020
B1225255208816N01233429EA0124001328066024
B1225295208845N01233341EA0123601320067020
B1225335208820N01233254EA0122701320071016
B1225375208770N01233225EA0122401312073020
K122537192019
B1225415208708N01233216EA0122201312077016
B1225455208650N01233216EA0123301320074016
B1225495208600N01233262EA0124701336074020
B1225535208600N01233358EA0125501344067016
B1225575208654N01233441EA0125601344070020
K122557190017
B1226015208733N01233450EA0126901352068020
B1226055208787N01233379EA0128201368068016
B1226095208795N01233283EA0128201368068016
B1226135208754N01233220EA0128401376069020
B1226175208704N01233237EA0129601384068016
K122617182021
B1226215208687N01233325EA0129601384068020
B1226255208712N01233425EA0129601384067020
B1226295208770N01233504EA0130101392072016
B1226335208845N01233512EA0131001400074016
B1226375208887N01233425EA0131601408068016
K122637182020
B1226415208866N01233341EA0131801408070016
B1226455208820N01233345EA0132701416068024
B1226495208808N01233425EA0133001424065020
B1226535208850N01233520EA0133001416072024
B1226575208925N01233541EA0134501432069024
K122657176024
B1227015208979N01233470EA0134901440067020
B1227055208979N01233370EA0134301440074024
B1227095208937N01233325EA0135401448072024
B1227135208900N01233379EA0135901456067024
B1227175208912N01233479EA0135501448071024
K122717180023
B1227215208970N01233562EA0136701456071024
B1227255209045N01233570EA0137301464065016
B1227295209095N01233491EA0137301464068020
B1227335209095N01233400EA0137801472068020
B1227375209054N01233362EA0137701472069016
K122737182025
B1227415209012N01233416EA0137701464076024
B1227455209008N01233525EA0137801472079024
B1227495209041N01233633EA0138701480077024
B1227535209116N01233645EA0139901488071024
B1227575209154N01233554EA0139901496065024
K122757184022
B1228015209129N01233470EA0139701488071024
B1228055209079N01233470EA0141001504069024
B1228095209058N01233550EA0141201504068024
B1228135209091N01233645EA0141601512070024
B1228175209166N01233687EA0142601512070024
K122817178021
B1228215209233N01233645EA0143001520066020
B1228255209262N01233554EA0142901520068024
B1228295209241N01233470EA0142501520072020
B1228335209191N01233450EA0142701520070020
B1228375209154N01233512EA0143001520072020
K122837182021
B1228415209162N01233616EA0143201528066020
B1228455209216N01233700EA0143401528068040
B1228495209295N01233716EA0144101528072032
B1228535209358N01233662EA0144901544064016
B1228575209366N01233566EA0144201536065028
K122857190024
B1229015209329N01233504EA0143801536068024
B1229055209279N01233512EA0144601536069020
B1229095209254N01233587EA0145101544064020
B1229135209266N01233691EA0145001544066024
B1229175209320N01233779EA0144201536070020
K122917188022
B1229215209395N01233820EA0144901544069020
B1229255209475N01233808EA0145401544071016
B1229295209529N01233737EA0145601552065016
B1229335209541N01233637EA0145301544066024
B1229375209516N01233554EA0144501536071020
K122937186023
B1229415209475N01233487EA0144001536073020
B1229455209425N01233437EA0143901536075024
B1229495209370N01233387EA0143601528078016
B1229535209316N01233333EA0143601528079016
B1229575209262N01233279EA0142601520080020
K122957184023
B1230015209204N01233229EA0142501520078016
B1230055209150N01233183EA0142601520077024
B1230095209100N01233141EA0142701528070024
B1230135209050N01233100EA0142701520072024
B1230175209000N01233062EA0142601520071024
K123017082064
B1230215208950N01233020EA0142101520072024
B1230255208895N01232987EA0141501512074024
B1230295208845N01232962EA0141401512069020
B1230335208795N01232941EA0141401512069024
B1230375208741N01232925EA0141201512067016
K123037082060
B1230415208691N01232908EA0141001504067016
B1230455208641N01232895EA0140901504067016
B1230495208591N01232920EA0141101504063016
B1230535208566N01232991EA0140601504067016
B1230575208575N01233091EA0140301496067016
K123057076061
B1231015208604N01233187EA0140601504065020
B1231055208633N01233283EA0140201496066016
B1231095208670N01233379EA0139701488069020
B1231135208712N01233475EA0139201488068020
B1231175208762N01233562EA0139001488068016
K123117076061
B1231215208825N01233641EA0138801488070016
B1231255208887N01233716EA0138801480069016
B1231295208958N01233783EA0138501480071016
B1231335209029N01233854EA0138701480072024
B1231375209100N01233916EA0139801488070020
K123137184039
B1231415209154N01234000EA0139901488072020
B1231455209162N01234116EA0138601480074024
B1231495209158N01234241EA0138301480076016
B1231535209158N01234362EA0138201472076016
B1231575209154N01234483EA0138201480076020
K123157186040
B1232015209150N01234604EA0138201480076016
B1232055209145N01234733EA0137601472078020
B1232095209145N01234858EA0137601472078020
B1232135209141N01234983EA0137601472077024
B1232175209145N01235104EA0137201464078024
K123217276034
B1232215209145N01235233EA0136301456080020
B1232255209150N01235358EA0136101456077024
B1232295209150N01235483EA0136101456077016
B1232335209154N01235608EA0136201456075016
B1232375209158N01235729EA0136201456075020
K123237284040
B1232415209162N01235850EA0135801456076016
B1232455209166N01235970EA0135501448077020
B1232495209175N01236087EA0135401448076020
B1232535209179N01236208EA0134901440077020
B1232575209166N01236312EA0134501440074020
K123257280038
B1233015209129N01236391EA0133801432075020
B1233055209079N01236450EA0132601416079020
B1233095209025N01236508EA0131501408080016
B1233135208970N01236562EA0130801400083016
B1233175208912N01236616EA0130501400083016
K123317280038
B1233215208854N01236670EA0129801392088016
B1233255208791N01236725EA0130401392083024
B1233295208737N01236783EA0131101400081020
B1233335208683N01236833EA0132201416077024
B1233375208629N01236787EA0132601416078024
K123337006035
B1233415208637N01236683EA0132601416070024
B1233455208691N01236608EA0132301416067024
B1233495208762N01236595EA0131501400071024
B1233535208825N01236658EA0131101400068024
B1233575208845N01236758EA0130201392069020
K123357006035
B1234015208825N01236854EA0129801384077024
B1234055208787N01236941EA0129601384081016
B1234095208745N01237025EA0129201384082016
B1234135208695N01237108EA0127801368087028
B1234175208641N01237195EA0126901360092024
K123417006035
B1234215208587N01237275EA0126901360087020
B1234255208529N01237354EA0126201352089024
B1234295208470N01237437EA0126701360089028
B1234335208420N01237516EA0128001368082024
B1234375208370N01237579EA0128401376075028
K123437006041
B1234415208320N01237633EA0127101368074028
B1234455208283N01237720EA0125901344081020
B1234495208250N01237820EA0125901344079024
B1234535208233N01237925EA0126401352074024
B1234575208229N01238029EA0126801360072024
K123457006041
B1235015208220N01238133EA0126701360078028
B1235055208191N01238233EA0127801368080024
B1235095208145N01238291EA0128801376079024
B1235135208091N01238275EA0129901384073024
B1235175208062N01238187EA0130701400070024
K123517006041
B1235215208075N01238079EA0131001400073024
B1235255208133N01238008EA0131601408069016
B1235295208208N01238016EA0131201408067020
B1235335208262N01238091EA0130901400073020
B1235375208262N01238191EA0132201416070016
K123537166017
B1235415208233N01238262EA0132901424071020
B1235455208183N01238258EA0133101424070020
B1235495208158N01238166EA0133601432068020
B1235535208187N01238062EA0133901432073020
B1235575208258N01238020EA0135101440068020
K123557166020
B1236015208325N01238070EA0135101448068020
B1236055208350N01238162EA0135701448069020
B1236095208329N01238245EA0135901448073020
B1236135208295N01238329EA0136201456076016
B1236175208279N01238429EA0137001464073016
K123617164021
B1236215208258N01238533EA0137901472076024
B1236255208245N01238637EA0139301480075020
B1236295208258N01238745EA0140401496068020
B1236335208304N01238837EA0140701496072024
B1236375208379N01238891EA0141701504071016
K123637164021
B1236415208445N01238854EA0142401512070016
B1236455208475N01238758EA0142601520070016
B1236495208454N01238670EA0143401528071016
B1236535208400N01238654EA0144401536073016
B1236575208354N01238720EA0146001552072016
K123657164021
B1237015208362N01238820EA0147201568065020
B1237055208416N01238900EA0147301568069016
B1237095208491N01238916EA0148301576068016
B1237135208554N01238858EA0148501584066016
B1237175208579N01238762EA0148701584072016
K123717194018
B1237215208558N01238662EA0148901584075016
B1237255208508N01238620EA0149901592070024
B1237295208458N01238666EA0151201608074020
B1237335208433N01238766EA0152101616074028
B1237375208458N01238875EA0152801624068024
K123737194018
B1237415208516N01238954EA0153201624071020
B1237455208595N01238975EA0153501632070024
B1237495208662N01238929EA0153501624069020
B1237535208695N01238829EA0153401624074020
B1237575208683N01238729EA0153501632075024
K123757194018
B1238015208637N01238666EA0153701632075024
B1238055208579N01238670EA0154701640075024
B1238095208533N01238741EA0156401656076024
B1238135208529N01238854EA0157201664071024
B1238175208570N01238958EA0157501672073024
K123817198017
B1238215208641N01239016EA0157601672073020
B1238255208720N01239016EA0158101672068024
B1238295208783N01238958EA0157801672069040
B1238335208808N01238854EA0157401672073032
B1238375208800N01238750EA0157301672074024
K123837196018
B1238415208758N01238675EA0157301672076032
B1238455208700N01238658EA0158501680077024
B1238495208650N01238712EA0160301704071024
B1238535208633N01238812EA0160501704071024
B1238575208654N01238920EA0160301696071024
K123857190018
B1239015208712N01239012EA0160601704069016
B1239055208783N01239062EA0161101704070020
B1239095208858N01239050EA0161801712068024
B1239135208920N01238991EA0161401704067020
B1239175208945N01238891EA0160301696071020
K123917192019
B1239215208941N01238783EA0159901696073024
B1239255208916N01238691EA0158901688076020
B1239295208866N01238629EA0159001688078020
B1239335208812N01238616EA0161101704075020
B1239375208762N01238662EA0161101704070020
K123937190019
B1239415208733N01238754EA0160501704072020
B1239455208737N01238866EA0159901696073020
B1239495208770N01238975EA0159401688073020
B1239535208829N01239070EA0159901696075020
B1239575208900N01239116EA0161001696071020
K123957192019
B1240015208975N01239100EA0161001696067020
B1240055209029N01239033EA0160701696068020
B1240095209062N01238937EA0160501696069020
B1240135209066N01238833EA0160001688068016
B1240175209045N01238741EA0159601688072016
K124017192018
B1240215209004N01238662EA0159601688074016
B1240255208950N01238620EA0160601696077016
B1240295208895N01238625EA0161001704070020
B1240335208850N01238687EA0160601696068016
B1240375208829N01238787EA0160301696071024
K124037194017
B1240415208833N01238900EA0159501688074024
B1240455208866N01239008EA0160601696071024
B1240495208916N01239095EA0161001704067024
B1240535208983N01239150EA0161401704069024
B1240575209058N01239162EA0161401696070024
K124057192016
B1241015209133N01239129EA0161001696069020
B1241055209191N01239062EA0161101696070024
B1241095209220N01238962EA0161001696069028
B1241135209225N01238858EA0160301696070024
B1241175209200N01238766EA0160201688072024
K124117190016
B1241215209154N01238700EA0159901688074024
B1241255209100N01238670EA0159901688074020
B1241295209045N01238683EA0160501696068024
B1241335209000N01238733EA0160501696067024
B1241375208954N01238808EA0160201696071024
K124137190016
B1241415208933N01238912EA0159601688072024
B1241455208941N01239029EA0158001672075024
B1241495208962N01239154EA0157501672078020
B1241535209000N01239270EA0157601672077024
B1241575209070N01239345EA0157901672073024
K124157190016
B1242015209150N01239383EA0157601672077024
B1242055209233N01239387EA0157601672074028
B1242095209308N01239350EA0157901672071024
B1242135209370N01239283EA0157101664073024
B1242175209416N01239191EA0156901656072024
K124217190016
B1242215209441N01239091EA0156801656072024
B1242255209450N01238983EA0156401656071024
B1242295209429N01238883EA0155501648075020
B1242335209391N01238795EA0154701640076024
B1242375209341N01238725EA0154701640078020
K124237190016
B1242415209283N01238687EA0154701648072020
B1242455209225N01238695EA0155201648070020
B1242495209170N01238741EA0155701656071020
B1242535209133N01238812EA0156901664068028
B1242575209108N01238900EA0157201672065024
K124257190016
B1243015209108N01239004EA0156601664068016
B1243055209137N01239112EA0155901656068024
B1243095209183N01239208EA0155901656070016
B1243135209245N01239279EA0156101656068016
B1243175209316N01239320EA0156401664067020
K124317190016
B1243215209391N01239325EA0156401656067016
B1243255209458N01239295EA0156401656065024
B1243295209520N01239241EA0156101656065024
B1243335209566N01239162EA0155901656066028
B1243375209587N01239066EA0155601648065024
K124337190016
B1243415209583N01238970EA0154901648068020
B1243455209558N01238879EA0154001632071024
B1243495209516N01238808EA0153601632075016
B1243535209466N01238750EA0153601632074016
B1243575209408N01238720EA0153701632071016
K124357190016
B1244015209350N01238720EA0153801640069016
B1244055209300N01238770EA0154501640067024
B1244095209287N01238866EA0154601640065020
B1244135209304N01238970EA0154501640065028
B1244175209341N01239070EA0154201640068024
K124417190016
B1244215209400N01239137EA0155201648067020
B1244255209466N01239129EA0155201656066024
B1244295209520N01239062EA0155101648069020
B1244335209545N01238962EA0155101648069020
B1244375209537N01238862EA0155701656068016
K124437192012
B1244415209504N01238791EA0156001656066016
B1244455209450N01238783EA0155901656069024
B1244495209408N01238845EA0156201664067020
B1244535209404N01238945EA0156101664067024
B1244575209441N01239041EA0156101664067024
K124457190015
B1245015209512N01239083EA0156401664067028
B1245055209575N01239041EA0156901672067024
B1245095209600N01238941EA0157001672070024
B1245135209570N01238854EA0157501680068024
B1245175209520N01238837EA0157701680067024
K124517192014
B1245215209479N01238908EA0157901680068024
B1245255209483N01239012EA0157901680068024
B1245295209529N01239104EA0157801680068024
B1245335209600N01239129EA0158001680069028
B1245375209666N01239083EA0158501688069024
K124537188016
B1245415209687N01238983EA0158801696068020
B1245455209662N01238895EA0158601696070024
B1245495209608N01238850EA0158701696071024
B1245535209550N01238854EA0158801696071024
B1245575209500N01238904EA0158901696069040
K124557192013
B1246015209466N01238995EA0158501688071032
B1246055209445N01239104EA0157901680076016
B1246095209429N01239216EA0157801680072028
B1246135209416N01239325EA0157101672072020
B1246175209404N01239437EA0155901664076016
K124617196013
B1246215209391N01239554EA0155301656077024
B1246255209375N01239670EA0154601656080024
B1246295209358N01239791EA0154501648079020
B1246335209345N01239908EA0154401648079024
B1246375209337N01240025EA0153601648080020
K124637328038
B1246415209329N01240145EA0153101640081020
B1246455209320N01240266EA0152201632083020
B1246495209308N01240391EA0151301624086020
B1246535209291N01240516EA0150701616086020
B1246575209275N01240641EA0150101608088020
K124657314038
B1247015209258N01240770EA0150001608087020
B1247055209245N01240895EA0149401600087020
B1247095209225N01241020EA0149101600086024
B1247135209204N01241141EA0148701600085024
B1247175209179N01241258EA0148201592085024
K124717314040
B1247215209154N01241379EA0147801584087024
B1247255209133N01241500EA0147201584088020
B1247295209112N01241625EA0146301576088024
B1247335209087N01241745EA0145901568088020
B1247375209062N01241866EA0145701568087020
K124737322042
B1247415209037N01241987EA0145301560088024
B1247445209020N01242079EA0145001560087024
B1247455209012N01242108EA0144801560087024
B1247465209008N01242137EA0144801560087024
B1247475209000N01242170EA0144501552087024
B1247485208995N01242200EA0144501552087024
B1247495208987N01242229EA0144501552088024
B1247505208979N01242258EA0144601552086024
B1247515208975N01242287EA0144601552085024
B1247525208966N01242316EA0144501560084024
B1247535208958N01242345EA0144501560084024
B1247545208950N01242370EA0144501552083024
B1247555208945N01242400EA0144501552085028
B1247575208929N01242458EA0144401552084024
K124757324043
B1248015208904N01242570EA0144401552082028
B1248025208895N01242595EA0144401552081028
B1248035208887N01242620EA0144401552081024
B1248045208879N01242645EA0144401552080024
B1248055208875N01242670EA0144401552080024
B1248065208866N01242695EA0144401552079024
B1248075208858N01242720EA0144401552079024
B1248085208854N01242745EA0144201552080024
B1248095208845N01242770EA0143901544079020
B1248105208841N01242795EA0143901544078024
B1248115208833N01242820EA0143601544078020
B1248125208825N01242845EA0143401544078020
B1248135208820N01242870EA0143101544078020
B1248175208795N01242970EA0142501536081020
K124817332039
B1248215208770N01243079EA0141201520083020
B1248255208741N01243187EA0140801520085020
B1248295208720N01243295EA0140801520079020
B1248335208695N01243404EA0140801512077020
B1248375208675N01243508EA0140601512078028
K124837334041
B1248415208662N01243616EA0140501512076024
B1248455208637N01243716EA0141201520077020
B1248495208608N01243808EA0142101528071024
B1248535208558N01243858EA0142201536070020
B1248575208500N01243866EA0142901536071020
K124857332039
B1249015208441N01243841EA0143601544072016
B1249055208395N01243766EA0144901552071016
B1249095208383N01243662EA0145801568068016
B1249135208408N01243558EA0146901576066016
B1249175208462N01243495EA0146901576067016
K124917332039
B1249215208533N01243495EA0146901576070016
B1249255208591N01243558EA0147501576066016
B1249295208616N01243654EA0147901584067016
B1249335208600N01243741EA0148901600066012
B1249375208550N01243787EA0149901608070016
K124937154012
B1249415208495N01243770EA0150701616069028
B1249455208454N01243700EA0151301624069020
B1249495208445N01243595EA0151301624071016
B1249535208475N01243491EA0151301616070024
B1249575208533N01243429EA0151301616068016
K124957164014
B1250015208608N01243429EA0151401616069016
B1250055208666N01243491EA0151601616068028
B1250095208695N01243583EA0151601616070024
B1250135208691N01243687EA0151801624070024
B1250175208666N01243775EA0152501632071024
K125017168014
B1250215208616N01243825EA0153201632071028
B1250255208550N01243816EA0154001648074024
B1250295208495N01243758EA0154501648074020
B1250335208470N01243658EA0154801648070024
B1250375208475N01243550EA0154001640071016
K125037158011
B1250415208508N01243450EA0152501624070016
B1250455208570N01243379EA0151301608072024
B1250495208645N01243362EA0150301600071020
B1250535208720N01243383EA0150301600075020
B1250575208779N01243450EA0151101608070024
K125057154011
B1251015208808N01243541EA0151401616067020
B1251055208816N01243641EA0151601616069020
B1251095208804N01243741EA0152101616071016
B1251135208770N01243829EA0152801624072016
B1251175208720N01243891EA0153501632072024
K125117162010
B1251215208658N01243895EA0154001640072020
B1251255208600N01243850EA0153701640074016
B1251295208562N01243762EA0153801640072020
B1251335208566N01243658EA0153601640066016
B1251375208608N01243570EA0152201624069016
K125137166010
B1251415208670N01243512EA0151801616068020
B1251455208741N01243495EA0151601616070016
B1251495208808N01243508EA0152101616067016
B1251535208870N01243558EA0152101624071016
B1251575208916N01243645EA0152701632069020
K125157164009
B1252015208929N01243750EA0153201632067016
B1252055208908N01243841EA0153301632067020
B1252095208866N01243916EA0153101632070020
B1252135208808N01243970EA0153301632069020
B1252175208750N01243966EA0154301648067020
K125217166008
B1252215208708N01243891EA0154701648069020
B1252255208716N01243795EA0153601632066020
B1252295208770N01243725EA0152601624072016
B1252335208845N01243725EA0153701632069016
B1252375208895N01243791EA0154701648068024
K125237196006
B1252415208904N01243895EA0154701648070020
B1252455208875N01243995EA0154801648072028
B1252495208820N01244054EA0155201656073024
B1252535208750N01244058EA0154601648076024
B1252575208695N01244000EA0153601640077024
K125257214005
B1253015208670N01243900EA0152801624073024
B1253055208687N01243791EA0152301624069024
B1253095208737N01243708EA0151301616069020
B1253135208800N01243666EA0150501600071024
B1253175208870N01243666EA0150501600069020
K125317164005
B1253215208933N01243708EA0150301600070020
B1253255208970N01243795EA0150401600069016
B1253295208979N01243900EA0150701608071016
B1253335208962N01244004EA0150801608072020
B1253375208925N01244087EA0151101608070016
K125337162006
B1253415208870N01244125EA0151001608069028
B1253455208812N01244095EA0149501600072024
B1253495208787N01244012EA0149101592072028
B1253535208795N01243904EA0147301576071028
B1253575208833N01243808EA0146701560069024
K125357180010
B1254015208895N01243758EA0145701552068024
B1254055208970N01243754EA0144401536070020
B1254095209041N01243779EA0143801528071024
B1254135209112N01243833EA0143801528075016
B1254175209158N01243929EA0144901544073016
K125417186013
B1254215209158N01244041EA0146301560071020
B1254255209120N01244112EA0147001568067016
B1254295209066N01244129EA0147201568068016
B1254335209012N01244087EA0147201568066016
B1254375208979N01244004EA0146301560066016
K125437178012
B1254415208975N01243900EA0144801544067016
B1254455208995N01243795EA0144101536070024
B1254495209041N01243712EA0143601528066020
B1254535209104N01243670EA0142401520067020
B1254575209179N01243675EA0141601512070024
K125457180011
B1255015209258N01243704EA0141601512074016
B1255055209329N01243754EA0142501520076016
B1255095209387N01243833EA0143801536072024
B1255135209420N01243937EA0144401544072020
B1255175209416N01244045EA0145401552074020
K125517178012
B1255215209383N01244137EA0146601560069024
B1255255209333N01244170EA0147201568068016
B1255295209279N01244137EA0147201568067016
B1255335209245N01244050EA0147301576070016
B1255375209245N01243941EA0147801576071016
K125537180013
B1255415209275N01243833EA0148501584073020
B1255455209329N01243754EA0149301592070016
B1255495209404N01243716EA0149901600069016
B1255535209475N01243737EA0150701608071016
B1255575209529N01243812EA0150701608070020
K125557172014
B1256015209562N01243920EA0150801608073016
B1256055209566N01244029EA0151601616072020
B1256095209537N01244120EA0152101624069020
B1256135209491N01244175EA0152101624068020
B1256175209433N01244179EA0152401624069020
K125617170014
B1256215209387N01244125EA0152401624068016
B1256255209358N01244033EA0152401624068016
B1256295209366N01243925EA0152801632067024
B1256335209408N01243837EA0153201632068020
B1256375209466N01243779EA0153201632068016
K125637174012
B1256415209541N01243762EA0153601632070020
B1256455209612N01243800EA0154801648069024
B1256495209662N01243870EA0154801648067020
B1256535209687N01243975EA0155101648067020
B1256575209679N01244075EA0155101648068024
K125657172012
B1257015209645N01244158EA0155001648071020
B1257055209595N01244212EA0155201648070020
B1257095209541N01244212EA0154201648070016
B1257135209483N01244166EA0153601632075016
B1257175209437N01244087EA0153601632074028
K125717170012
B1257215209416N01243979EA0153601632074024
B1257255209420N01243866EA0153101632069020
B1257295209458N01243775EA0152801624067024
B1257335209520N01243725EA0152201616069020
B1257375209595N01243712EA0152201624072020
K125737166012
B1257415209670N01243720EA0152501624070020
B1257455209741N01243762EA0153001624072020
B1257495209795N01243845EA0153201632072024
B1257535209808N01243958EA0153601632069024
B1257575209795N01244058EA0153601632069028
K125757172012
B1258015209750N01244133EA0153101624072024
B1258055209691N01244150EA0153101624074020
B1258095209633N01244104EA0153101624071024
B1258135209600N01244016EA0153101624071020
B1258175209595N01243912EA0153101624069020
K125817178011
B1258215209625N01243808EA0152801624072020
B1258255209679N01243737EA0152801624071020
B1258295209750N01243708EA0153001632066024
B1258335209825N01243733EA0153201632068024
B1258375209887N01243800EA0153201632069024
K125837180012
B1258415209920N01243904EA0153201632071024
B1258455209925N01244012EA0153301632069028
B1258495209900N01244108EA0152901624070024
B1258535209850N01244170EA0152601624071024
B1258575209795N01244195EA0152601624072024
K125857184012
B1259015209737N01244175EA0152501624068020
B1259055209687N01244112EA0151701616070024
B1259095209662N01244016EA0151001608072020
B1259135209658N01243908EA0150301600070020
B1259175209687N01243804EA0149101592070020
K125917180013
B1259215209741N01243729EA0148401584071020
B1259255209808N01243687EA0148501584069016
B1259295209879N01243645EA0149601592073016
B1259335209954N01243625EA0149901600071020
B1259375210016N01243691EA0149901600069016
K125937180013
B1259415210041N01243791EA0149801600069020
B1259455210025N01243891EA0149901600067020
B1259495209991N01243962EA0149801600066028
B1259535209941N01244008EA0149701592069024
B1259575209883N01244016EA0149401592068028
K125957180013
B1300015209833N01243975EA0148701584069028
B1300055209791N01243895EA0147301576072020
B1300095209775N01243795EA0146201560071024
B1300135209783N01243687EA0144401544068020
B1300175209800N01243570EA0141701520081020
K130017180013
B1300215209820N01243445EA0140801504081020
B1300255209850N01243329EA0140301504078020
B1300295209875N01243208EA0139701496079024
B1300335209904N01243087EA0138801488079024
B1300375209929N01242962EA0137701472080020
K130037346016
B1300415209954N01242841EA0137201464079024
B1300455209979N01242720EA0136801464079020
B1300495210004N01242600EA0136701464078020
B1300535210029N01242479EA0136301456081020
B1300575210054N01242362EA0136401464078020
K130057144052
B1301015210070N01242254EA0136901464072020
B1301055210087N01242158EA0137901472067020
B1301095210112N01242062EA0137401472068028
B1301135210158N01241966EA0135501456073024
B1301175210191N01241850EA0133901440080016
K130117148066
B1301215210212N01241729EA0133801432080024
B1301255210225N01241608EA0132901424081020
B1301295210241N01241491EA0133001432078016
B1301335210262N01241379EA0133101432076020
B1301375210291N01241266EA0131901416080020
K130137144053
B1301415210320N01241145EA0131101408084024
B1301455210350N01241025EA0130001400086024
B1301495210375N01240904EA0129501392086020
B1301535210395N01240787EA0129401392079024
B1301575210416N01240679EA0128801384076024
K130157150059
B1302015210450N01240575EA0128301384077024
B1302055210487N01240475EA0128301376071020
B1302095210516N01240370EA0128301376075024
B1302135210545N01240262EA0128401384077020
B1302175210566N01240158EA0129601392073020
K130217154060
B1302215210550N01240066EA0129601392070024
B1302255210500N01240025EA0129901392068024
B1302295210450N01240037EA0130201400067016
B1302335210420N01240108EA0130201400068020
B1302375210416N01240204EA0130701400066024
K130237154060
B1302415210454N01240295EA0130601400065020
B1302455210516N01240358EA0130201400068024
B1302495210595N01240362EA0130501400068024
B1302535210666N01240316EA0131001408065024
B1302575210712N01240237EA0130901408066024
K130257180021
B1303015210725N01240137EA0130901408065020
B1303055210695N01240050EA0130001400071024
B1303095210650N01239995EA0130501400068024
B1303135210604N01239941EA0130501400068024
B1303175210554N01239925EA0130601400065020
K130317176020
B1303215210512N01239962EA0130201400065024
B1303255210491N01240041EA0129701392065024
B1303295210483N01240137EA0128201384067024
B1303335210479N01240237EA0127901376067016
B1303375210454N01240320EA0127901376064020
K130337178020
B1303415210416N01240375EA0128201384063016
B1303455210379N01240425EA0128401384062016
B1303495210333N01240462EA0128201384062016
B1303535210283N01240491EA0127301376066016
B1303575210225N01240525EA0126801368067020
K130357178020
B1304015210170N01240533EA0126701360070016
B1304055210125N01240491EA0126701368069016
B1304095210087N01240433EA0127801376066016
B1304135210058N01240362EA0127901376065024
B1304175210029N01240287EA0127901376068020
K130417178020
B1304215210016N01240200EA0129101384065016
B1304255210004N01240120EA0129101384061020
B1304295209966N01240050EA0127601368075020
B1304335209912N01240054EA0128001376074016
B1304375209870N01240125EA0129301384068024
K130437178020
B1304415209875N01240229EA0129601392069024
B1304455209929N01240308EA0129601392069020
B1304495210000N01240312EA0131001408066024
B1304535210041N01240237EA0131201416066024
B1304575210033N01240145EA0131201408069024
K130457204015
B1305015209987N01240095EA0131201408069020
B1305055209933N01240104EA0132601424066024
B1305095209904N01240183EA0132301416072028
B1305135209933N01240291EA0132401424071024
B1305175210000N01240337EA0133901440065020
K130517200017
B1305215210066N01240304EA0134101440064024
B1305255210100N01240220EA0134101440068028
B1305295210095N01240129EA0134401448063024
B1305335210050N01240070EA0134401440067040
B1305375209995N01240070EA0134901448071032
K130537190017
B1305415209966N01240150EA0135401456067016
B1305455209991N01240254EA0135401456067028
B1305495210054N01240320EA0135401456068024
B1305535210125N01240312EA0136701472062020
B1305575210166N01240237EA0136801472065028
K130557200017
B1306015210150N01240141EA0136001464070024
B1306055210095N01240108EA0136201464070020
B1306095210054N01240162EA0137001472067024
B1306135210058N01240266EA0137201472068024
B1306175210120N01240333EA0137101472067024
K130617196014
B1306215210195N01240337EA0137801472072024
B1306255210241N01240262EA0137901480072024
B1306295210225N01240170EA0138101488069028
B1306335210175N01240154EA0138301488067024
B1306375210129N01240220EA0138301488069028
K130637202014
B1306415210137N01240325EA0139101488064028
B1306455210195N01240395EA0138001480069028
B1306495210270N01240400EA0138601488072028
B1306535210320N01240337EA0139301496063024
B1306575210329N01240237EA0138601488072024
K130657202015
B1307015210295N01240166EA0139101488069016
B1307055210241N01240170EA0139201488071020
B1307095210195N01240241EA0139301496073024
B1307135210195N01240354EA0140201496071020
B1307175210245N01240445EA0140601504067028
K130717202016
B1307215210320N01240466EA0140001496072024
B1307255210383N01240404EA0140201504070020
B1307295210412N01240304EA0140801504067024
B1307335210400N01240200EA0141001512070024
B1307375210354N01240141EA0141101512070024
K130737184019
B1307415210300N01240141EA0141801520068020
B1307455210258N01240204EA0142501528067024
B1307495210250N01240308EA0143101528066024
B1307535210287N01240408EA0143201536068024
B1307575210354N01240462EA0143501536067016
K130757184016
B1308015210429N01240450EA0143401528070020
B1308055210479N01240370EA0143601536067024
B1308095210495N01240262EA0143701536069020
B1308135210475N01240166EA0143701536072028
B1308175210425N01240108EA0144401544072024
K130817186016
B1308215210370N01240112EA0144901552071020
B1308255210329N01240187EA0145501552072024
B1308295210329N01240291EA0146101560067020
B1308335210366N01240383EA0146901568063020
B1308375210433N01240425EA0146201560069020
K130837182017
B1308415210504N01240400EA0146001560067020
B1308455210545N01240308EA0145701552070016
B1308495210562N01240200EA0145801560071016
B1308535210545N01240100EA0146301560071024
B1308575210500N01240041EA0146301560072020
K130857182017
B1309015210445N01240045EA0147001568070028
B1309055210404N01240112EA0147201568067024
B1309095210387N01240208EA0146901568069020
B1309135210412N01240312EA0147001568067024
B1309175210470N01240375EA0147701576067024
K130917182015
B1309215210537N01240375EA0147601576068024
B1309255210600N01240320EA0147401568069020
B1309295210633N01240225EA0147701576068024
B1309335210629N01240120EA0147601576069020
B1309375210595N01240037EA0147701576073020
K130937186014
B1309415210541N01240020EA0148001584071024
B1309455210495N01240075EA0148301584068024
B1309495210479N01240175EA0148101576068024
B1309535210500N01240283EA0147801576070024
B1309575210558N01240362EA0148001576071020
K130957188015
B1310015210633N01240391EA0148801584070024
B1310055210700N01240362EA0149001592064020
B1310095210745N01240283EA0148901584067020
B1310135210754N01240175EA0148901584068020
B1310175210733N01240083EA0148501584071020
K131017186016
B1310215210687N01240025EA0149101592070024
B1310255210637N01240020EA0149401592065024
B1310295210591N01240079EA0148901584069020
B1310335210583N01240183EA0148301584070024
B1310375210612N01240291EA0147901576069020
K131037186017
B1310415210662N01240379EA0147401568072020
B1310455210737N01240429EA0147201568076016
B1310495210812N01240420EA0147701576071016
B1310535210870N01240350EA0147901576067020
B1310575210891N01240250EA0147601576065016
K131057186019
B1311015210879N01240150EA0147001568068028
B1311055210841N01240083EA0146701568070024
B1311095210787N01240062EA0146301568070020
B1311135210729N01240066EA0145001552075024
B1311175210662N01240083EA0144101544080020
K131117184018
B1311215210595N01240108EA0143401536081020
B1311255210529N01240137EA0142501528082020
B1311295210458N01240166EA0141701520085020
B1311335210383N01240191EA0140901512092020
B1311375210312N01240212EA0139701496094020
K131137130041
B1311415210237N01240237EA0139501496092024
B1311455210170N01240254EA0139601496084024
B1311495210100N01240270EA0139301496083028
B1311535210029N01240287EA0138601488086024
B1311575209958N01240304EA0138501480086028
K131157052052
B1312015209887N01240325EA0138301480084028
B1312055209816N01240354EA0138201480086028
B1312095209750N01240395EA0138801480086028
B1312135209691N01240445EA0139301496078028
B1312175209645N01240512EA0139501496072028
K131217042071
B1312215209600N01240587EA0138601488077024
B1312255209541N01240637EA0138601488077024
B1312295209483N01240645EA0139601496079020
B1312335209437N01240591EA0141201512071024
B1312375209433N01240495EA0141601512068008
K131237042071
B1312415209470N01240404EA0142001520067016
B1312455209541N01240362EA0142701528070028
B1312495209612N01240404EA0144101536070016
B1312535209645N01240504EA0144901552067020
B1312575209633N01240604EA0145001552070024
K131257042071
B1313015209591N01240670EA0144801544073016
B1313055209533N01240666EA0145101552076016
B1313095209491N01240595EA0145901560074016
B1313135209495N01240487EA0146301560073016
B1313175209550N01240400EA0146301560071020
K131317182018
B1313215209625N01240366EA0146901568076016
B1313255209695N01240404EA0148401584070020
B1313295209737N01240500EA0149801592069020
B1313335209733N01240608EA0149801592069020
B1313375209687N01240679EA0149401592070020
K131337188017
B1313415209629N01240670EA0150201600073016
B1313455209591N01240595EA0151101608069016
B1313495209600N01240495EA0151001608069024
B1313535209650N01240412EA0150801600070020
B1313575209725N01240383EA0150801608072016
K131357190015
B1314015209795N01240433EA0151901616069020
B1314055209829N01240537EA0152801624073020
B1314095209812N01240637EA0153301632069016
B1314135209766N01240675EA0154501640068020
B1314175209725N01240633EA0155101648066020
K131417186021
B1314215209712N01240545EA0155101648065016
B1314255209733N01240445EA0154401640070016
B1314295209800N01240383EA0154201640073016
B1314335209870N01240395EA0156101656066016
B1314375209929N01240470EA0156101656070024
K131437192020
B1314415209945N01240583EA0157001664070020
B1314455209916N01240670EA0157701672067020
B1314495209866N01240687EA0158001680070024
B1314535209825N01240620EA0158701680071020
B1314575209825N01240525EA0159001688067020
K131457190019
B1315015209866N01240433EA0158801680069024
B1315055209941N01240391EA0158501680069024
B1315095210016N01240412EA0159001688069020
B1315135210079N01240491EA0160401696068024
B1315175210095N01240600EA0161101704065020
K131517190022
B1315215210083N01240700EA0160801704068020
B1315255210045N01240766EA0160801704062016
B1315295209995N01240779EA0159701688068016
B1315335209945N01240737EA0159601696073020
B1315375209920N01240650EA0160301704069016
K131537190022
B1315415209933N01240550EA0160201696066020
B1315455209983N01240470EA0159201688069020
B1315495210054N01240433EA0159301688066020
B1315535210133N01240445EA0160401704069020
B1315575210191N01240520EA0161401712068020
K131557190022
B1316015210212N01240625EA0162001712066020
B1316055210191N01240720EA0161701712069016
B1316095210141N01240775EA0162001712072016
B1316135210087N01240770EA0162501720069016
B1316175210041N01240716EA0163101728071016
K131617188020
B1316215210025N01240620EA0162701728071020
B1316255210037N01240516EA0161901720071016
B1316295210083N01240429EA0161701712069020
B1316335210150N01240379EA0162001720068020
B1316375210229N01240375EA0162501728068020
K131637186019
B1316415210295N01240429EA0163301728070020
B1316455210341N01240520EA0163301736069024
B1316495210345N01240629EA0162701728067024
B1316535210316N01240725EA0162701720072020
B1316575210266N01240779EA0162701728072024
K131657190017
B1317015210208N01240775EA0163401736069020
B1317055210175N01240704EA0164301744065020
B1317095210183N01240612EA0163701736065020
B1317135210229N01240516EA0163501736072020
B1317175210295N01240470EA0165501752068016
K131717192018
B1317215210362N01240500EA0166401760065016
B1317255210395N01240591EA0166401760064008
B1317295210387N01240695EA0165801760070012
B1317335210345N01240766EA0166301760069028
B1317375210291N01240783EA0167001768067016
K131737188016
B1317415210250N01240729EA0167301776067020
B1317455210241N01240637EA0166901768066024
B1317495210258N01240541EA0165801760067020
B1317535210304N01240454EA0165501752071020
B1317575210370N01240391EA0165501760070020
K131757192015
B1318015210445N01240370EA0166901768069020
B1318055210508N01240420EA0167301776065020
B1318095210541N01240512EA0167301768070020
B1318135210533N01240620EA0165901760073016
B1318175210495N01240695EA0166701768066016
K131817188015
B1318215210441N01240700EA0166401768069020
B1318255210400N01240625EA0166201760069016
B1318295210400N01240516EA0166601768071024
B1318335210441N01240420EA0167901776067024
B1318375210508N01240375EA0168801784066024
K131837168015
B1318415210575N01240404EA0169101792067024
B1318455210616N01240495EA0168301784070016
B1318495210612N01240604EA0168301776072020
B1318535210595N01240708EA0167701776070016
B1318575210562N01240808EA0167001768079016
K131857170014
B1319015210520N01240904EA0166901768079024
B1319055210479N01241004EA0167001768078020
B1319095210437N01241104EA0167701784074024
B1319135210400N01241200EA0167901784072024
B1319175210366N01241295EA0167801776071024
K131917036063
B1319215210333N01241395EA0166601768077024
B1319255210283N01241483EA0165901760081020
B1319295210225N01241479EA0166201760076024
B1319335210195N01241391EA0165901768072020
B1319375210208N01241279EA0165201752074020
K131937020052
B1319415210250N01241170EA0163401736080024
B1319455210304N01241058EA0162401728091024
B1319495210362N01240954EA0162801728085020
B1319535210416N01240862EA0163001728079024
B1319575210479N01240779EA0163301728076028
K131957020052
B1320015210541N01240704EA0162301728078024
B1320055210604N01240620EA0160801704082024
B1320095210666N01240512EA0159701696087024
B1320135210720N01240391EA0159401688091024
B1320175210770N01240258EA0159301696092024
K132017080053
B1320215210820N01240129EA0159601696091044
B1320255210870N01239991EA0158901688096032
B1320295210916N01239845EA0157301672101032
B1320335210966N01239695EA0155601656108040
B1320375211012N01239541EA0155301648108032
K132037116049
B1320415211058N01239383EA0154701640107032
B1320455211100N01239229EA0154601640109036
B1320495211137N01239075EA0154701648111032
B1320535211175N01238920EA0155201648108044
B1320575211208N01238775EA0155201648104040
K132057146065
B1321015211241N01238629EA0153401632106044
B1321055211275N01238470EA0152501624109044
B1321095211308N01238316EA0151701616110036
B1321135211337N01238154EA0151101608109040
B1321175211362N01237991EA0150301600109040
K132117150069
B1321215211383N01237825EA0149501592109040
B1321255211400N01237658EA0148701584111036
B1321295211420N01237483EA0148701584112040
B1321335211437N01237312EA0148401584112036
B1321375211458N01237141EA0147901576113036
K132137144079
B1321415211479N01236966EA0147301568113040
B1321455211500N01236791EA0146201560116040
B1321495211516N01236616EA0146001552116040
B1321535211545N01236445EA0146001560115040
B1321575211575N01236283EA0147401568113040
K132157144086
B1322015211600N01236129EA0148301576105040
B1322055211620N01235975EA0147401568106040
B1322095211641N01235816EA0146401560109040
B1322135211662N01235650EA0145301544113036
B1322175211683N01235483EA0144401544110040
K132217146079
B1322215211704N01235316EA0144101536109040
B1322255211720N01235145EA0142801528111040
B1322295211745N01234975EA0141601512112036
B1322335211766N01234800EA0140801504115040
B1322375211791N01234625EA0140301496114036
K132237142079
B1322415211816N01234458EA0141101504110036
B1322455211837N01234304EA0142501520101040
B1322495211858N01234158EA0141501520103040
B1322535211879N01234012EA0140001496106036
B1322575211900N01233858EA0139601488109040
K132257146087
B1323015211920N01233708EA0140501496106032
B1323055211950N01233570EA0141201512099032
B1323095211987N01233433EA0142001512097040
B1323135212020N01233300EA0142101520097036
B1323175212041N01233158EA0142601520097032
K132317150070
B1323215212062N01233012EA0143101528096036
B1323255212079N01232866EA0143501536096016
B1323295212095N01232712EA0142601520100024
B1323335212112N01232550EA0140901504106044
B1323375212129N01232387EA0140001496109032
K132337140060
B1323415212150N01232220EA0139001488113032
B1323455212170N01232054EA0138201480115040
B1323495212195N01231891EA0137901472115044
B1323535212216N01231725EA0136701464117040
B1323575212237N01231558EA0136001456117036
K132357142068
B1324015212262N01231395EA0135301448116040
B1324055212291N01231229EA0135601448116040
B1324095212337N01231104EA0141101488093040
B1324135212395N01231025EA0143101528076028
B1324175212450N01230937EA0143001520083032
K132417144070
B1324215212504N01230837EA0144001528083028
B1324255212525N01230720EA0144901544077028
B1324295212491N01230629EA0145801552075028
B1324335212433N01230629EA0146501560071028
B1324375212408N01230716EA0146801560069016
K132437144070
B1324415212433N01230820EA0146901568067024
B1324455212495N01230879EA0147301568068020
B1324495212570N01230858EA0148001576070016
B1324535212629N01230795EA0148401576070028
B1324575212679N01230704EA0146501560078024
K132457176017
B1325015212712N01230583EA0145001544084020
B1325055212729N01230445EA0143401528093024
B1325095212741N01230300EA0143001528096024
B1325135212745N01230150EA0142001520098024
B1325175212750N01229995EA0141001512101044
K132517178017
B1325215212750N01229841EA0140301504106032
B1325255212750N01229687EA0140501504102036
B1325295212745N01229537EA0140501504101040
B1325335212745N01229391EA0140501504098032
B1325375212745N01229250EA0140101496099032
K132537140091
B1325415212741N01229112EA0140001496100036
B1325455212733N01228975EA0139201488101032
B1325495212725N01228833EA0138601480099016
B1325535212720N01228691EA0138001480100024
B1325575212720N01228545EA0136801464104044
K132557138080
B1326015212720N01228395EA0135501448106032
B1326055212725N01228241EA0134501440109032
B1326095212725N01228079EA0133501432109040
B1326135212729N01227920EA0132601424112032
B1326175212733N01227758EA0132201416112032
K132617140077
B1326215212741N01227595EA0131601416111036
B1326255212750N01227437EA0131201408108032
B1326295212762N01227283EA0131101408106036
B1326335212775N01227133EA0131101400104036
B1326375212787N01226987EA0130801400104032
K132637142092
B1326415212795N01226845EA0130001392102032
B1326455212804N01226695EA0129401384101032
B1326495212812N01226550EA0128601376100032
B1326535212820N01226400EA0127801368102032
B1326575212829N01226250EA0127401368105032
K132657144084
B1327015212837N01226095EA0125901352110032
B1327055212845N01225929EA0123901336116032
B1327095212854N01225754EA0121901312121032
B1327135212862N01225575EA0121201304121032
B1327175212866N01225395EA0121201304118036
K132717138076
B1327215212866N01225220EA0121501304115032
B1327255212862N01225054EA0121501304115040
B1327295212862N01224887EA0121201304113040
B1327335212879N01224729EA0120301296111040
B1327375212891N01224566EA0119801288113040
K132737138096
B1327415212891N01224404EA0119201280113032
B1327455212879N01224245EA0118601272115036
B1327495212866N01224091EA0118501272110036
B1327535212858N01223941EA0118301272108032
B1327575212845N01223791EA0117001256108036
K132757138098
B1328015212837N01223637EA0117201248112036
B1328055212820N01223487EA0116601256108116
B1328095212804N01223333EA0116601256109076
B1328135212791N01223183EA0116401248110040
B1328175212775N01223029EA0116001248110080
K132817134088
B1328215212762N01222875EA0115501240111032
B1328255212754N01222725EA0116201248103036
B1328295212750N01222587EA0116701256095040
B1328335212750N01222458EA0118201272091036
B1328375212745N01222337EA0120201296082016
K132837134087
B1328415212750N01222220EA0120301296089028
B1328455212754N01222095EA0119501288092024
B1328495212762N01221954EA0118601280098020
B1328535212770N01221800EA0116401248107040
B1328575212779N01221641EA0115101240112032
K132857134052
B1329015212791N01221483EA0116201248114032
B1329055212837N01221354EA0119901288092036
B1329095212887N01221254EA0122101304078020
B1329135212908N01221145EA0123101320077024
B1329175212895N01221037EA0124701336075028
K132917136052
B1329215212850N01220987EA0126701360071024
B1329255212808N01221037EA0127901368067016
B1329295212812N01221137EA0127901368070024
B1329335212862N01221212EA0129801384068016
B1329375212925N01221204EA0130201392066016
K132937136052
B1329415212962N01221116EA0130201392072020
B1329455212941N01221020EA0131101400076016
B1329495212891N01221000EA0132601416070016
B1329535212862N01221083EA0133001424070016
B1329575212891N01221179EA0133601424070020
K132957180013
B1330015212958N01221204EA0135301440066016
B1330055213008N01221141EA0135301440070020
B1330095213016N01221037EA0136001448071020
B1330135212975N01220987EA0137301464067016
B1330175212929N01221029EA0137501472069016
K133017176014
B1330215212925N01221129EA0138401480072024
B1330255212979N01221195EA0139601488067020
B1330295213041N01221170EA0140201496067020
B1330335213075N01221083EA0140701504068024
B1330375213045N01221000EA0141201504073016
K133037180014
B1330415212991N01221008EA0142101512069016
B1330455212975N01221100EA0142701520069020
B1330495213012N01221191EA0143801536068016
B1330535213075N01221204EA0144901544067020
