ALXV0ZNFLIGHT:1
HFDTE160813
HFFXA015
HFPLTPILOT:REUTHER  ACHIM    
HFGTYGLIDERTYPE:LS 8
HFGIDGLIDERID:       SE-USD
HFDTM100GPSDATUM:WGS-1984
HFRFWFIRMWAREVERSION:2.10
HFRHWHARDWAREVERSION:1.0
HFFTYFRTYPE:LXNAV,NANO
HFGPS:GLOBALTOP,FGPMMOPA6,66,max18000m
HFPRSPRESSALTSENSOR:INTERSEMA,MS5561C,max16000m
HFCIDCOMPETITIONID:   X
HFCCLCOMPETITIONCLASS:Standard
I043638FXA3941ENL4246GSP4749TRT
C110813173121060713000002
C0000000N00000000ETAKEOFF 
C4920433N01211117ESchwando
C4926382N01148750EAmberg 3
C4837233N01003667EGerstett
C4920433N01211117ESchwando
C0000000N00000000ELANDING 
LLXVVOLTAGE:4.23V
LLXVRECINT:1
LLXVAUTOFINISH:TRUE
LLXVNEARDIS:5000
LLXVOFFINISH:TRUE
LLXVALWAYSRUN:FALSE
LLXVBLUETOOTH:ON
LLXVNMEA:ON
LLXVBAUDRATE:4800bps
LLXVAUTOOFF:OFF
LLXVEC:8
LLXVETC:120
LLXVBB:2.85
LLXVTEMP:37.6
LLXVPRODNR:c99a
B1216335208589N01240687EA000170005400601100000046
F12163329250223311612211005
B1216345208589N01240687EA000170005400601400000046
B1216355208589N01240687EA000170005400600100000046
B1216365208589N01240687EA000180005400600100000046
B1216375208589N01240687EA000170005400600800000046
B1216385208589N01240687EA000170005400600900000046
B1216395208589N01240687EA000170005400600400000046
B1216405208589N01240687EA000170005400601200000046
B1216415208589N01240687EA000170005400600400000046
B1216425208589N01240687EA000170005400600800000046
B1216435208589N01240687EA000170005400600200000046
B1216445208589N01240687EA000170005400600500000046
B1216455208589N01240687EA000170005400601100000046
B1216465208589N01240687EA000170005400601400000046
B1216475208589N01240687EA000180005400600400000046
B1216485208589N01240687EA000180005400611400000046
B1216495208589N01240687EA000180005400630500000046
B1216505208587N01240673EA000190005000645302796249
B1216515208585N01240665EA000190005000657203641247
B1216525208582N01240655EA000190005000644104104246
B1216535208579N01240644EA000200005100670604875246
B1216545208576N01240632EA000200005100648905663247
B1216555208572N01240617EA000200005100674206158246
B1216565208568N01240603EA000200005200654006580247
B1216575208564N01240587EA000200005200655207182246
B1216585208559N01240569EA000210005200666707729245
B1216595208554N01240551EA000210005200652908265245
B1217005208548N01240531EA000210005300638808693246
B1217015208543N01240511EA000220005300656509134246
B1217025208537N01240489EA000230005400654909443246
LLXVTAKEOFF,GSP
B1217035208532N01240466EA000230005500658410027246
B1217045208525N01240443EA000230005500618110457247
B1217055208519N01240418EA000170005400633110952245
B1217065208511N01240392EA000180005400625711304244
B1217075208504N01240367EA000180005400633311582244
B1217085208496N01240341EA000210005500642011851245
B1217095208488N01240313EA000190005500617712297247
B1217105208481N01240285EA000180005600634512490246
B1217115208473N01240256EA000190005800632212603245
B1217125208465N01240227EA000210005800637712785245
B1217135208457N01240197EA000220005800636513098246
B1217145208449N01240167EA000240005900636113194245
B1217155208440N01240137EA000290006200628912907246
B1217165208433N01240107EA000330006500632812988247
B1217175208425N01240077EA000360006800656113089249
B1217185208418N01240047EA000390007100636113159248
B1217195208412N01240017EA000440007600648512449250
B1217205208406N01239990EA000510008200637411902249
B1217215208400N01239964EA000580008900633111285247
B1217225208394N01239938EA000640009600655811426247
B1217235208387N01239913EA000690010200654911372246
B1217245208380N01239888EA000720010500621311415247
B1217255208374N01239863EA000740010800620611235246
B1217265208367N01239838EA000760011100636511096244
B1217275208360N01239815EA000780011400641311104244
B1217285208353N01239791EA000810011600636111269242
B1217295208345N01239767EA000830012000631711309241
B1217305208337N01239744EA000850012300654711400238
B1217315208328N01239720EA000900012600644111517237
B1217325208318N01239696EA000910012800621811867235
B1217335208308N01239673EA000920013000633111810233
B1217345208297N01239651EA000940013200639311736230
B1217355208285N01239629EA000980013400614211435225
B1217365208272N01239609EA001000013600633811632221
B1217375208259N01239590EA001030013900644111802219
B1217385208244N01239573EA001080014400630311799215
B1217395208230N01239557EA001120014800624611878213
B1217405208215N01239542EA001140015100625911773211
B1217415208199N01239528EA001160015400624811561208
B1217425208184N01239516EA001200015700618611460207
B1217435208168N01239504EA001220016000650511828205
B1217445208152N01239492EA001240016200635812162205
B1217455208135N01239479EA001240016400632412281203
B1217465208118N01239469EA001250016500614212581201
B1217475208099N01239458EA001290016600632412616201
B1217485208081N01239447EA001330016900637712421200
B1217495208064N01239437EA001390017300628712053200
B1217505208047N01239428EA001470017800646212045198
B1217515208029N01239419EA001520018100626211745196
B1217525208013N01239412EA001590018400651211643195
B1217535207996N01239404EA001640018600643611717196
B1217545207979N01239397EA001680018900636811450196
B1217555207963N01239389EA001700019100633511456197
B1217565207947N01239380EA001700019300645311534199
B1217575207931N01239370EA001700019500632611526202
B1217585207915N01239359EA001740019800651511634203
B1217595207899N01239347EA001750020100649211747206
B1218005207884N01239335EA001760020300651211927206
B1218015207868N01239323EA001770020600631511810207
B1218025207853N01239310EA001780020800625011688207
B1218035207838N01239297EA001790021000635811517207
B1218045207822N01239284EA001820021200620611461206
B1218055207807N01239271EA001850021400609611304206
B1218065207793N01239260EA001880021700617011182205
B1218075207778N01239248EA001910021900625011126204
B1218085207762N01239236EA001940022200623911302203
B1218095207747N01239225EA001970022400641611424202
B1218105207731N01239214EA001970022600631511662200
B1218115207714N01239204EA001970022800652911873200
B1218125207697N01239194EA001970022900646212082199
B1218135207680N01239185EA001970023000627112410198
B1218145207663N01239176EA001980023000630312423197
B1218155207645N01239168EA002020023200624312371195
B1218165207627N01239160EA002040023400625012247194
B1218175207609N01239153EA002090023700614712103192
B1218185207592N01239147EA002150024000650112190190
B1218195207574N01239142EA002210024300638112103190
B1218205207557N01239137EA002290024500636511825189
B1218215207539N01239134EA002360024900644811460185
B1218225207522N01239132EA002440025200628511104184
B1218235207506N01239131EA002490025500630311202184
B1218245207489N01239128EA002540025900640412112187
B1218255207471N01239124EA002550026300650312301189
B1218265207452N01239118EA002540026400641312640190
B1218275207434N01239111EA002530026600655413120196
B1218285207416N01239101EA002570026900651213122198
B1218295207398N01239091EA002620027300641112323200
B1218305207382N01239081EA002690027700625011749198
B1218315207366N01239072EA002740028000621111065196
B1218325207350N01239066EA002780028300621610607195
B1218335207335N01239059EA002820028600646610435194
B1218345207319N01239053EA002840028900640011156193
B1218355207303N01239046EA002870029200644311434193
B1218365207286N01239040EA002890029400623911317195
B1218375207271N01239033EA002900029700637711046195
B1218385207255N01239026EA002930029900638610987196
B1218395207239N01239019EA002950030200620011094196
B1218405207223N01239012EA002970030600628511041195
B1218415207208N01239005EA003000030900617710878194
B1218425207193N01238999EA003040031300619710564193
B1218435207178N01238993EA003080031700647810572194
B1218445207163N01238987EA003120032000627810468195
B1218455207148N01238980EA003180032200619710438195
B1218465207133N01238973EA003200032600636510357197
B1218475207118N01238964EA003210032900639310309197
B1218485207104N01238957EA003250033200640910451197
B1218495207089N01238950EA003290033400629210922197
B1218505207074N01238942EA003300033700641611076197
B1218515207058N01238935EA003290033800637410902194
B1218525207043N01238928EA003290034000634010900192
B1218535207027N01238924EA003310034200621310689189
B1218545207011N01238921EA003330034600619510894186
B1218555206994N01238919EA003360034800625510761184
B1218565206978N01238917EA003370035100608510672183
B1218575206962N01238916EA003390035400614410622180
B1218585206946N01238916EA003410035700623410552179
B1218595206930N01238917EA003420036000622010520177
B1219005206914N01238919EA003440036300649910448174
B1219015206899N01238922EA003460036500624810559172
B1219025206883N01238926EA003470036800631210733171
B1219035206868N01238930EA003480037000635810724170
B1219045206852N01238935EA003530037200619710668168
B1219055206837N01238940EA003570037400629910713167
B1219065206822N01238946EA003590037700631510718167
B1219075206806N01238952EA003620037900628010722165
B1219085206791N01238960EA003660038200628710917162
B1219095206775N01238968EA003680038400651011007161
B1219105206759N01238977EA003710038700651010915161
B1219115206744N01238985EA003730039000625910785163
B1219125206729N01238993EA003760039300637410835165
B1219135206713N01238999EA003780039500645710963168
B1219145206697N01239004EA003770039800641610841170
B1219155206681N01239008EA003770040000637010774173
B1219165206665N01239011EA003780040100644110874174
B1219175206649N01239013EA003780040300625510976177
B1219185206633N01239015EA003790040500650511096177
B1219195206617N01239016EA003790040600643411139179
B1219205206600N01239015EA003790040800643011143181
B1219215206583N01239014EA003800040900655611146182
B1219225206567N01239012EA003800041100623211271185
B1219235206550N01239009EA003820041200628011265186
B1219245206534N01239006EA003800041300664111339186
B1219255206517N01239003EA003800041400621811374187
B1219265206500N01238998EA003810041700616711423190
B1219275206484N01238991EA003820041900634511321195
LLXVBATT:4.23V 121928
B1219285206467N01238983EA003800042100636111334198
B1219295206451N01238973EA003810042200639311302201
B1219305206436N01238962EA003830042300625011365204
B1219315206421N01238950EA003850042500626411476207
B1219325206405N01238936EA003850042700624811628208
B1219335206390N01238922EA003860043000622911539210
B1219345206375N01238907EA003870043200621811439212
F12193429250223311621100512
B1219355206361N01238891EA003890043300640011515214
B1219365206347N01238874EA003900043400637411600218
B1219375206334N01238855EA003950043600638111486221
B1219385206321N01238836EA003970043900641311708224
B1219395206309N01238815EA004010044100641811902226
B1219405206297N01238794EA004060044500643611980230
B1219415206286N01238770EA004070044700622312188233
B1219425206276N01238745EA004090045000636112199235
B1219435206266N01238720EA004110045300645312167236
B1219445206257N01238694EA004130045600624612004237
B1219455206248N01238668EA004170045900625912164242
B1219465206241N01238642EA004180046100640912166247
B1219475206235N01238614EA004200046400632612210251
B1219485206230N01238585EA004230046600631911943255
B1219495206227N01238556EA004270046900626611958258
B1219505206224N01238527EA004310047100622012227261
B1219515206222N01238497EA004330047400611212156262
B1219525206220N01238468EA004360047600627111921264
B1219535206219N01238438EA004390047900612612043266
B1219545206219N01238408EA004430048200614212351269
B1219555206219N01238378EA004460048400618412347270
B1219565206220N01238348EA004490048600616112242272
B1219575206221N01238319EA004530048900663412049274
B1219585206224N01238290EA004560049100625912347277
B1219595206228N01238260EA004580049400628512547283
B1220005206232N01238231EA004610049600627612549285
B1220015206239N01238202EA004640049800627612327290
B1220025206246N01238174EA004650050100618612610294
B1220035206255N01238147EA004670050300642712838298
B1220045206265N01238119EA004700050500626413103301
B1220055206276N01238092EA004740050700642313291302
B1220065206288N01238066EA004750051100630813431306
B1220075206301N01238042EA004750051300640013339311
B1220085206316N01238018EA004790051500639313372312
B1220095206331N01237995EA004860051800623913448315
B1220105206346N01237973EA004920052100623413455319
B1220115206362N01237952EA004950052300646413620322
B1220125206379N01237932EA004980052500623913722322
B1220135206396N01237912EA005020052900621813926322
B1220145206413N01237891EA005070053200638414111323
B1220155206430N01237870EA005070053600636814250324
B1220165206448N01237850EA005080053900619314295324
B1220175206465N01237829EA005110054200621814378323
B1220185206483N01237809EA005110054400628214410324
B1220195206501N01237788EA005110054600623214560324
B1220205206519N01237768EA005120054800638814517324
B1220215206537N01237747EA005130055000611914823324
B1220225206556N01237726EA005130055200646914945324
B1220235206574N01237705EA005130055400635414910325
B1220245206593N01237685EA005160055500633114629327
B1220255206612N01237667EA005200055800626214630329
B1220265206631N01237650EA005220056100620214855331
B1220275206651N01237633EA005230056400631514764332
B1220285206671N01237617EA005240056600639514797334
B1220295206691N01237601EA005250056800648715220335
B1220305206712N01237586EA005230056900615815366335
B1220315206733N01237571EA005230057000627615575335
B1220325206755N01237555EA005220057000636115581334
B1220335206776N01237539EA005230057000644815681332
B1220345206797N01237521EA005230057100628915690331
B1220355206818N01237503EA005220057200633815724329
B1220365206838N01237484EA005220057200625915436329
B1220375206858N01237465EA005240057300643615116328
B1220385206878N01237446EA005250057500624615068328
B1220395206897N01237426EA005260057700631715151326
B1220405206916N01237405EA005290057900627615099326
B1220415206934N01237385EA005310058000627315114326
B1220425206953N01237365EA005320058200644815127326
B1220435206972N01237344EA005370058500629415070325
B1220445206990N01237322EA005380058600623415040323
B1220455207008N01237301EA005410058800629414818324
B1220465207027N01237281EA005440059000630114621325
B1220475207045N01237262EA005490059200620614273328
B1220485207063N01237244EA005540059400625214145330
B1220495207082N01237229EA005580059700612614191333
B1220505207101N01237216EA005630059900615414058337
B1220515207121N01237203EA005650060100614414210340
B1220525207142N01237194EA005680060500622914052344
B1220535207162N01237185EA005710060700640914158346
B1220545207183N01237179EA005790060900621814076350
B1220555207205N01237176EA005800061200637013943356
B1220565207226N01237174EA005800061400731214284358
B1220575207247N01237174EA005820061600730514189000
B1220585207268N01237176EA005860061800709813717004
B1220595207288N01237179EA005910062100734913409006
B1221005207308N01237184EA005950062300720413368010
B1221015207327N01237191EA005970062600719513435014
B1221025207347N01237201EA005970062900717913643017
B1221035207366N01237212EA006020063200732614010020
B1221045207386N01237225EA006010063300729213761021
B1221055207405N01237238EA006030063500721313765025
B1221065207423N01237254EA006030063800721613989027
B1221075207442N01237270EA006020064000742014490030
B1221085207461N01237288EA006010064100726414610030
B1221095207479N01237307EA006000064200727814616033
B1221105207497N01237328EA006010064300639314662036
B1221115207515N01237351EA006020064500625014710040
B1221125207531N01237376EA006000064700630314871043
B1221135207546N01237402EA006000064800623914389048
B1221145207560N01237429EA006000064900628014074051
B1221155207572N01237457EA006010065000632413702055
B1221165207583N01237486EA006020065000653513858058
B1221175207593N01237516EA006020065100641113821062
B1221185207601N01237546EA006040065300640413570065
B1221195207609N01237577EA006090065400630513507068
B1221205207615N01237609EA006060065500628013500073
B1221215207620N01237642EA006040065600650313835075
B1221225207624N01237675EA006050065700633813617077
B1221235207627N01237708EA006090065800748213366083
B1221245207628N01237740EA006130066000741113207087
B1221255207628N01237773EA006160066300620213307090
B1221265207627N01237805EA006190066700642013118091
B1221275207625N01237837EA006220066900605912672094
B1221285207622N01237867EA006240067100629211854100
B1221295207618N01237894EA006260067400716511343109
B1221305207612N01237920EA006250067500720211256112
B1221315207603N01237944EA006260067800703911004125
B1221325207593N01237965EA006260067900709411056132
B1221335207581N01237985EA006230068000706911063133
B1221345207569N01238006EA006220068000729211434130
B1221355207558N01238028EA006240068100650511743126
B1221365207548N01238053EA006240068300733812169120
B1221375207541N01238080EA006240068500623412407112
B1221385207535N01238109EA006240068600717712692105
B1221395207531N01238140EA006260068700700812875098
B1221405207529N01238171EA006280068800700312697092
B1221415207530N01238202EA006280068900600812870084
B1221425207533N01238234EA006280069100600913042078
B1221435207538N01238265EA006270069100600113255073
B1221445207545N01238296EA006270069000600113813066
B1221455207554N01238326EA006260068900600414145059
B1221465207566N01238356EA006250068900601014254055
B1221475207579N01238383EA006240068800600714204050
B1221485207594N01238409EA006220068600601314465045
B1221495207611N01238434EA006210068600600414547042
B1221505207628N01238457EA006180068300600214634039
B1221515207645N01238479EA006170068100601114762037
B1221525207663N01238501EA006140067900600814940035
B1221535207682N01238522EA006110067700600915068034
B1221545207701N01238543EA006080067500601215262033
B1221555207720N01238563EA006030067300600815338032
B1221565207740N01238582EA006000067100600015412031
B1221575207759N01238602EA005960066900600815422030
B1221585207779N01238621EA005940066700600815416029
B1221595207799N01238639EA005910066500601015577029
B1222005207819N01238657EA005880066300600715572029
B1222015207840N01238675EA005870066100600115468028
B1222025207860N01238693EA005840065900600815555027
B1222035207881N01238710EA005800065600600315624027
B1222045207903N01238727EA005760065500600615833026
B1222055207924N01238743EA005720065300600015831025
B1222065207946N01238759EA005690065100601015970024
B1222075207968N01238775EA005650064800601316072023
B1222085207990N01238790EA005610064500601216172022
B1222095208013N01238804EA005570064100600016254020
B1222105208036N01238817EA005520063800601216524020
B1222115208059N01238830EA005490063400600516615019
B1222125208083N01238842EA005460063200600016767017
B1222135208107N01238854EA005440063000600416697017
B1222145208131N01238866EA005440062700600416619017
B1222155208155N01238877EA005450062500600316343017
B1222165208177N01238888EA005480062300600115650017
B1222175208199N01238899EA005570062200601015116016
B1222185208220N01238909EA005660062300600314441016
B1222195208241N01238919EA005740062400600014378017
B1222205208261N01238934EA005840062500600513954032
B1222215208276N01238955EA005910062600900913024047
B1222225208286N01238980EA005960062700900812238063
B1222235208291N01239007EA006000062800900411497079
B1222245208293N01239035EA006030062901200211801083
B1222255208294N01239063EA006010063001201211450085
B1222265208293N01239089EA005990063101200610172093
B1222275208289N01239110EA005970063101200108654098
B1222285208286N01239130EA005940063201200308422100
B1222295208270N01239145EA005920063201400508305117
B1222305208250N01239157EA005950063200901108478132
B1222315208223N01239139EA005970063301100309927194
B1222325208208N01239120EA005990063301200610594222
B1222335208191N01239095EA006030063500800810944236
B1222345208185N01239065EA006060063500800910941249
F1222342925021031212305
B1222355208178N01239037EA006040063700900510766262
B1222365208175N01239009EA006040064001400810998276
B1222375208175N01238979EA006020063901201312186290
B1222385208180N01238942EA006000064300801412701299
B1222395208190N01238912EA005980064500700713022309
B1222405208203N01238888EA005980064600701013274317
B1222415208220N01238867EA005980064700700913515326
B1222425208238N01238850EA005970064800700513741334
B1222435208258N01238839EA005970064900700314034342
B1222445208280N01238832EA005980064900600214173349
B1222455208301N01238828EA006000065100601314106355
B1222465208323N01238829EA006030065300600414273001
B1222475208345N01238833EA006100065500701214258007
B1222485208366N01238839EA006140065600701314060012
B1222495208385N01238853EA006210065800801113509027
B1222505208402N01238871EA006270066000800213094037
B1222515208416N01238892EA006300066200800512748047
B1222525208426N01238917EA006310066400800712017061
B1222535208433N01238944EA006340066700900611725073
B1222545208436N01238972EA006350066900900511597085
B1222555208435N01239000EA006340067000900311445097
B1222565208431N01239027EA006340067201001011324109
B1222575208422N01239050EA006310067301400211180124
B1222585208409N01239071EA006280067401400611178134
B1222595208396N01239088EA006260067501401210967146
B1223005208379N01239100EA006270067601100111623156
B1223015208364N01239108EA006280067700900111094166
B1223025208347N01239108EA006310067800700910394181
B1223035208332N01239103EA006340068000700810261196
B1223045208318N01239092EA006380068300600310290210
B1223055208304N01239076EA006450068600601510674222
B1223065208294N01239056EA006490069000600610292234
B1223075208286N01239035EA006530069200601010086247
B1223085208283N01239010EA006550069500800910337264
B1223095208284N01238983EA006550069800800910833282
B1223105208290N01238957EA006550070000801111285296
B1223115208301N01238934EA006550070200800411925313
B1223125208316N01238915EA006540070300701512677327
B1223135208334N01238901EA006530070400700713303339
B1223145208355N01238892EA006530070600600913626348
B1223155208376N01238889EA006550070700700813776359
B1223165208396N01238893EA006570070900701513837012
B1223175208416N01238904EA006590071000700013993022
B1223185208435N01238919EA006640071200800113659031
B1223195208452N01238938EA006690071400801413190038
B1223205208466N01238960EA006740071500800713146046
B1223215208477N01238986EA006780071700901212518061
B1223225208482N01239013EA006820071900900111402080
B1223235208484N01239041EA006850072000800911295085
B1223245208484N01239067EA006860072100901010159089
B1223255208484N01239089EA006860072201000808619088
B1223265208485N01239109EA006860072301400407896086
B1223275208479N01239130EA006860072701801008322095
B1223285208474N01239149EA006850072801800907903098
B1223295208459N01239142EA006850072801301103193151
B1223305208440N01239114EA006860072901800808913232
B1223315208430N01239091EA006880073001500610440246
B1223325208424N01239064EA006920073301300911059260
B1223335208422N01239034EA006950073501401211591278
B1223345208422N01239010EA006980074201300311980291
B1223355208426N01238979EA007030074300800712062307
B1223365208436N01238953EA007050074900801312255320
B1223375208440N01238924EA007090076000600312471330
B1223385208458N01238917EA007120076500700413298357
B1223395208478N01238919EA007140076800900613291011
B1223405208497N01238929EA007160077000900913489024
B1223415208514N01238947EA007190077200800913220037
B1223425208528N01238969EA007200077400800513081048
B1223435208540N01238994EA007240077700600912744054
B1223445208549N01239022EA007270077800901212471064
B1223455208555N01239050EA007290078000701512180074
B1223465208555N01239079EA007300078100801311639090
B1223475208553N01239107EA007300078201200711250100
B1223485208548N01239132EA007280078401200910435106
B1223495208543N01239154EA007260078500801108982112
B1223505208530N01239170EA007250078700900909764139
B1223515208514N01239182EA007240078900901210585157
B1223525208496N01239184EA007240079001101410514182
B1223535208479N01239178EA007250079101100610249198
B1223545208465N01239164EA007270079200700110450216
B1223555208453N01239143EA007310079500800110833231
B1223565208441N01239121EA007340079800700010602234
B1223575208437N01239090EA007340080000800411322261
B1223585208434N01239058EA007370080101200811604272
B1223595208435N01239029EA007400080301200811528281
B1224005208441N01239001EA007450080600801411391289
B1224015208448N01238974EA007460080900800711569300
B1224025208459N01238951EA007460081000800712047313
B1224035208474N01238933EA007460081100800812849327
B1224045208492N01238918EA007470081200700913150336
B1224055208511N01238910EA007500081300700413800351
B1224065208533N01238910EA007500081500601313893005
B1224075208553N01238917EA007510081500601513980015
B1224085208572N01238930EA007530081500600313772025
B1224095208589N01238948EA007560081600801113563036
B1224105208603N01238971EA007600081700800113150049
B1224115208614N01238997EA007640081800901512701059
B1224125208622N01239025EA007680082000900412299070
B1224135208626N01239053EA007720082200900011634080
B1224145208627N01239081EA007750082300800211120085
B1224155208625N01239106EA007750082400801009873094
B1224165208623N01239128EA007750082501001408817097
B1224175208613N01239146EA007730082801001308437122
B1224185208603N01239161EA007710083001000208179133
B1224195208583N01239164EA007680083101201210072164
B1224205208564N01239157EA007690083101100110464195
B1224215208548N01239144EA007710083301100810603212
B1224225208536N01239123EA007750083400801511235233
B1224235208526N01239099EA007760083600800711589247
B1224245208518N01239067EA007790084100600111411252
B1224255208515N01239033EA007870084500800111769267
B1224265208520N01239004EA007900085100800710692281
B1224275208533N01238982EA007950085600800311169309
B1224285208548N01238964EA007980086000801312129327
B1224295208566N01238950EA008000086200801012740342
LLXVBATT:4.23V 122430
B1224305208585N01238944EA008000086400701513176354
B1224315208606N01238947EA007990086300900013331010
B1224325208624N01238957EA007970086100900113826024
B1224335208642N01238975EA007970086000800113878036
B1224345208657N01238998EA007990086000800613535047
B1224355208668N01239024EA008030085900800012942058
B1224365208676N01239052EA008050085900900012584068
B1224375208681N01239081EA008080086000900511925077
B1224385208683N01239110EA008110085900800911930087
B1224395208683N01239138EA008120085800801310817092
B1224405208682N01239164EA008130085801400910481091
B1224415208681N01239187EA008130085801000609482091
B1224425208658N01239194EA008140085801000308719143
B1224435208642N01239200EA008150085800901109747163
B1224445208627N01239204EA008160085801001309751175
B1224455208612N01239203EA008180085801000609760183
B1224465208596N01239197EA008200085700901509656189
B1224475208581N01239186EA008230085801001209877200
B1224485208572N01239158EA008250085900701310287229
B1224495208564N01239134EA008280085900700010277239
B1224505208556N01239113EA008310086000800909490241
B1224515208551N01239094EA008330086101901108165246
B1224525208549N01239076EA008370086201401406662259
B1224535208548N01239054EA008400086901201405972265
B1224545208565N01239034EA008420087501400612103337
B1224555208583N01239024EA008430087500900012534350
B1224565208611N01239010EA008420087900900913018000
B1224575208633N01239012EA008420087900700613587011
B1224585208665N01239013EA008410088600701113978018
B1224595208684N01239029EA008420088900800513318036
B1225005208700N01239051EA008480089000800913148044
B1225015208714N01239074EA008510089300800012764052
B1225025208725N01239100EA008560089500801212501058
B1225035208732N01239127EA008590089800901511465072
B1225045208734N01239154EA008630089900901510848081
B1225055208735N01239179EA008650090000801509751087
B1225065208735N01239201EA008660090101000208011089
B1225075208731N01239217EA008640090301000706610104
B1225085208722N01239226EA008630090401700405781139
B1225095208711N01239226EA008600090501700305794175
B1225105208693N01239217EA008580090601200710027198
B1225115208679N01239202EA008600090700701110483212
B1225125208667N01239177EA008610090800801310672227
B1225135208661N01239151EA008660090900800910425241
B1225145208659N01239121EA008700090900800410411253
B1225155208659N01239094EA008750091100801509708268
B1225165208665N01239067EA008780091200801509851286
B1225175208679N01239042EA008810091400801011337307
B1225185208667N01239016EA008820091800701011956329
B1225195208678N01239004EA008820092200701512255340
B1225205208696N01238994EA008820092500701012501348
B1225215208714N01238993EA008820092600901012744000
B1225225208733N01239002EA008830092700800813061013
B1225235208752N01239016EA008820092800801413322027
B1225245208769N01239035EA008820092900800213202039
B1225255208783N01239058EA008850093000801012916048
B1225265208795N01239083EA008880093200800112686056
B1225275208803N01239111EA008910093300900112369070
B1225285208808N01239140EA008940093500901411700079
B1225295208807N01239169EA008960093701201011319096
B1225305208805N01239195EA008970093701200410351101
B1225315208801N01239217EA008960093801400909165107
B1225325208793N01239236EA008960093901001208257123
B1225335208781N01239250EA008970093901400108485139
B1225345208771N01239262EA008960094001001008355141
B1225355208754N01239271EA008960094001001409189154
F122535293125232116
B1225365208736N01239272EA008960094101001109238166
B1225375208718N01239247EA008980094500700110274213
B1225385208704N01239227EA008990094700801010627225
B1225395208691N01239203EA009020095100800910535235
B1225405208682N01239178EA009090095600601310342243
B1225415208675N01239153EA009120096200601010429254
B1225425208673N01239125EA009160096400601410387268
B1225435208674N01239098EA009170096800801310696282
B1225445208681N01239073EA009160097000600011174295
B1225455208690N01239048EA009140097300601411725306
B1225465208703N01239026EA009130097300600312106317
B1225475208719N01239008EA009100097300601312777327
B1225485208737N01238994EA009070097300600713259339
B1225495208757N01238987EA009040097300601313496351
B1225505208777N01238985EA009000097300700213730000
B1225515208799N01238989EA009000097200701113856009
B1225525208819N01238998EA009010097100701413715020
B1225535208837N01239012EA009020097100700913518030
B1225545208853N01239031EA009050097000800513281038
B1225555208867N01239053EA009110097100800412968046
B1225565208879N01239078EA009150097000800012571053
B1225575208888N01239104EA009190097000800612067065
B1225585208893N01239131EA009240097000900111265076
B1225595208895N01239157EA009270097101100010863089
B1226005208894N01239184EA009280097101101110674091
B1226015208889N01239207EA009270097200801409875112
B1226025208879N01239225EA009270097301000909245133
B1226035208867N01239238EA009260097300900009382149
B1226045208852N01239247EA009260097400900009212164
B1226055208838N01239249EA009260097500700909291179
B1226065208823N01239248EA009270097700700409525187
B1226075208809N01239237EA009300097900601509479210
B1226085208797N01239222EA009330098100700709892224
B1226095208786N01239201EA009340098400701210259237
B1226105208779N01239176EA009370098600600510414252
B1226115208777N01239149EA009390098800600510766266
B1226125208779N01239122EA009410099100800510765283
B1226135208784N01239096EA009410099300801511028296
B1226145208795N01239074EA009410099400800011406311
B1226155208808N01239055EA009390099600700012303325
B1226165208825N01239040EA009370099600701113046336
B1226175208844N01239032EA009330099700701413722351
B1226185208865N01239031EA009310099600701514265000
B1226195208886N01239035EA009300099600701413906010
B1226205208907N01239043EA009340099700700613600016
B1226215208926N01239055EA009370099700700613320022
B1226225208944N01239070EA009390099700700213148030
B1226235208959N01239089EA009420099800700412866039
B1226245208972N01239111EA009450099800800412395053
B1226255208980N01239137EA009480099900801311814068
B1226265208984N01239164EA009500100000900611282079
B1226275208985N01239191EA009520100001101110981087
B1226285208984N01239218EA009520099901100610301091
B1226295208981N01239241EA009510099901001008924100
B1226305208968N01239259EA009490100001000008509118
B1226315208945N01239265EA009490100101001009503161
B1226325208929N01239269EA009470100101000709877177
B1226335208914N01239267EA009480100100801110018191
B1226345208899N01239259EA009470100200801110179199
B1226355208884N01239246EA009470100400700010366217
B1226365208873N01239228EA009490100500600910718227
B1226375208862N01239205EA009490100700600810868240
B1226385208855N01239180EA009520100800601011176248
B1226395208849N01239153EA009540101000601111345258
B1226405208848N01239125EA009560101100600911334273
B1226415208852N01239098EA009570101300800911508286
B1226425208860N01239071EA009580101400800911712300
B1226435208871N01239047EA009560101500801112268311
B1226445208885N01239026EA009550101600800212640321
B1226455208902N01239010EA009540101600800912879333
B1226465208921N01238999EA009540101600700613289344
B1226475208941N01238994EA009520101600700813439353
B1226485208962N01238993EA009520101500800413722000
B1226495208982N01238996EA009540101500800613413008
B1226505209001N01239004EA009560101500800813268017
B1226515209019N01239017EA009590101500900812794029
B1226525209035N01239035EA009620101600801212570035
B1226535209049N01239055EA009620101600800512306045
B1226545209060N01239078EA009640101700800311821053
B1226555209069N01239103EA009670101800800011502062
B1226565209076N01239129EA009690101900801411193070
B1226575209080N01239155EA009710101900801410828076
B1226585209083N01239181EA009720102000801210639083
B1226595209082N01239206EA009710102000700410461094
B1227005209078N01239230EA009720102100801110051109
B1227015209071N01239252EA009710102100800809695119
B1227025209062N01239270EA009710102200700709831133
B1227035209049N01239285EA009700102200901509554148
B1227045209035N01239295EA009700102400900709482160
B1227055209021N01239299EA009680102500900109301173
B1227065209007N01239299EA009690102500800809219185
B1227075208993N01239295EA009690102800600809438195
B1227085208978N01239287EA009700102900601009523201
B1227095208965N01239277EA009730102900600909653206
B1227105208952N01239264EA009750103100600409593211
B1227115208940N01239250EA009760103200600109586219
B1227125208930N01239233EA009750103300600109719231
B1227135208922N01239212EA009730103300600509916244
B1227145208917N01239188EA009730103400801310151257
B1227155208915N01239162EA009700103400801010692267
B1227165208916N01239134EA009680103400801211044277
B1227175208920N01239107EA009640103300800011586289
B1227185208928N01239081EA009610103200801212264301
B1227195208939N01239056EA009580103100601312597311
B1227205208954N01239034EA009550102900600112862321
B1227215208970N01239017EA009530102700601413328332
B1227225208989N01239005EA009530102600600813398343
B1227235209009N01238999EA009510102400600513409354
B1227245209029N01239000EA009520102300700713246005
B1227255209049N01239006EA009540102200701513122015
B1227265209067N01239018EA009560102100700613231021
B1227275209085N01239031EA009570102000801212981029
B1227285209100N01239050EA009590101900801012581041
B1227295209112N01239073EA009610101800901512149053
B1227305209120N01239098EA009620101700800511700064
B1227315209126N01239125EA009630101700901211456074
B1227325209129N01239153EA009620101600801411078083
B1227335209128N01239180EA009620101400801310852095
B1227345209125N01239207EA009620101300800110930103
B1227355209119N01239232EA009610101200800810742110
B1227365209113N01239255EA009610101100800810522116
B1227375209104N01239278EA009610101100700510728120
B1227385209095N01239300EA009600101100700410724125
B1227395209085N01239321EA009580101000601410733127
B1227405209074N01239341EA009550101000601010974131
B1227415209062N01239362EA009530100900600711213135
B1227425209050N01239381EA009520100800600011458138
B1227435209036N01239399EA009510100800600211530140
B1227445209022N01239417EA009500100900601211662140
B1227455209008N01239436EA009470100900601111828140
B1227465208994N01239454EA009450100800600411941140
B1227475208979N01239474EA009420100700601212097140
B1227485208964N01239492EA009390100700601312395141
B1227495208950N01239512EA009360100600600112523141
B1227505208935N01239531EA009310100500600112653140
B1227515208919N01239550EA009290100400600912785141
B1227525208904N01239570EA009260100300600813048141
B1227535208888N01239590EA009250100200601113152142
B1227545208872N01239609EA009250100100600813014142
B1227555208856N01239629EA009230100000600213100141
B1227565208840N01239648EA009240099900600213161141
B1227575208825N01239668EA009230099900601313127142
B1227585208809N01239688EA009210099800600713029140
B1227595208794N01239708EA009190099600600713124140
B1228005208779N01239727EA009190099600601112955141
B1228015208764N01239747EA009210099500601012801142
B1228025208748N01239766EA009230099500600612620143
B1228035208734N01239784EA009260099500601212242142
B1228045208719N01239803EA009280099600600411945141
B1228055208705N01239821EA009290099600601112021141
B1228065208691N01239839EA009280099600600211902141
B1228075208677N01239857EA009280099600600911708141
B1228085208664N01239875EA009270099600600511743141
B1228095208650N01239894EA009240099500601511986141
B1228105208636N01239912EA009220099400601112264141
B1228115208621N01239931EA009210099300600912262141
B1228125208607N01239949EA009180099200601212179142
B1228135208592N01239967EA009170099100600612297143
B1228145208578N01239985EA009160099000600012345143
B1228155208563N01240003EA009160098900600012199144
B1228165208548N01240020EA009150098900600212071144
B1228175208534N01240036EA009140098800600811940145
B1228185208519N01240053EA009090098700600211986144
B1228195208504N01240070EA009050098500601012303143
B1228205208489N01240088EA009010098300600212470142
B1228215208474N01240107EA008990098000600212527142
B1228225208459N01240126EA008980097900600612899141
B1228235208444N01240146EA008980097800600912788141
B1228245208429N01240165EA008980097700600812675140
B1228255208415N01240185EA008970097600601212384139
B1228265208400N01240204EA008970097500600712394140
B1228275208386N01240224EA009000097500600212486138
B1228285208372N01240244EA009010097400600312518137
B1228295208358N01240265EA009030097600601112397136
B1228305208345N01240286EA009080097800600512041135
B1228315208333N01240307EA009110098000601412028133
B1228325208321N01240329EA009160098100601011830129
B1228335208311N01240352EA009190098400601511823121
B1228345208304N01240378EA009210098500601211763109
B1228355208300N01240405EA009240098700700811675097
B1228365208300N01240434EA009250098900700411975086
F122836290210312512162305
B1228375208303N01240464EA009280099100601212032076
B1228385208310N01240492EA009290099300701512303064
B1228395208320N01240519EA009300099500801212458053
B1228405208333N01240542EA009300099600800712640043
B1228415208348N01240561EA009300099700801013077034
B1228425208365N01240577EA009300099800801213250026
B1228435208385N01240587EA009290099900800313444012
B1228445208405N01240592EA009280100000600613448006
B1228455208425N01240592EA009270100100600213585358
B1228465208446N01240587EA009270100200600313194350
B1228475208465N01240578EA009280100200601413192342
B1228485208484N01240566EA009290100300600313192337
B1228495208502N01240553EA009310100300600313063333
B1228505208519N01240537EA009350100400601212649328
B1228515208533N01240519EA009370100400600112136320
B1228525208546N01240499EA009390100400700511702312
B1228535208555N01240476EA009420100500800811183297
B1228545208561N01240450EA009430100500700711033286
B1228555208564N01240424EA009430100600900710637277
B1228565208564N01240397EA009420100500900910398266
B1228575208560N01240370EA009410100500700910453253
B1228585208553N01240345EA009400100500801510531238
B1228595208543N01240322EA009390100400700410635227
B1229005208530N01240303EA009370100400700510911217
B1229015208516N01240288EA009360100300800210637209
B1229025208501N01240278EA009340100200800610627200
B1229035208485N01240270EA009340100100701410683193
B1229045208469N01240265EA009350100100700110670188
B1229055208452N01240263EA009350100000700010500182
B1229065208436N01240263EA009360100000700610789179
B1229075208420N01240265EA009380100100600910874174
B1229085208403N01240271EA009390100200601010944163
B1229095208388N01240283EA009410100300601110463150
B1229105208375N01240299EA009440100600600110785138
B1229115208364N01240319EA009470100800600410839126
B1229125208357N01240343EA009480101000600510831115
B1229135208352N01240370EA009490101100701210835099
B1229145208351N01240397EA009500101300700911069088
B1229155208354N01240424EA009520101400600511246076
B1229165208360N01240451EA009540101500700111435064
B1229175208370N01240475EA009550101600600111652051
B1229185208382N01240496EA009540101600601211880042
B1229195208396N01240514EA009530101700700911990038
B1229205208411N01240532EA009530101700700212193033
B1229215208427N01240548EA009520101800701412397028
B1229225208444N01240560EA009500101800700812731022
B1229235208463N01240570EA009470101700700913226016
B1229245208482N01240577EA009460101700601212961011
B1229255208502N01240582EA009450101700600112998007
B1229265208522N01240585EA009450101700600213187005
B1229275208542N01240587EA009470101700600913303004
B1229285208562N01240588EA009470101700601513148001
B1229295208582N01240586EA009480101800601312987354
B1229305208602N01240579EA009490101800601112894346
B1229315208620N01240569EA009500101900601012899337
LLXVBATT:4.23V 122932
B1229325208637N01240555EA009520101900601312605329
B1229335208653N01240538EA009530102100701312281321
B1229345208666N01240517EA009550102100701411797311
B1229355208676N01240493EA009560102200701511719301
B1229365208684N01240467EA009560102200701511795293
B1229375208688N01240439EA009560102300700311441283
B1229385208690N01240411EA009560102300801110981272
B1229395208688N01240385EA009550102300800310802260
B1229405208682N01240358EA009560102300801410768247
B1229415208674N01240334EA009580102400700510505237
B1229425208664N01240313EA009600102500701410179229
B1229435208653N01240296EA009610102600700109914219
B1229445208640N01240283EA009610102700600009777209
B1229455208627N01240272EA009590102700601209575201
B1229465208612N01240265EA009590102700600409579195
B1229475208598N01240260EA009560102700600309758189
B1229485208582N01240259EA009560102700600610233181
B1229495208566N01240261EA009570102700600910348173
B1229505208550N01240266EA009570102800600710398167
B1229515208535N01240274EA009590102800601110359160
B1229525208520N01240284EA009620102900601110678153
B1229535208506N01240297EA009640103000600410463148
B1229545208493N01240312EA009670103100601110653144
B1229555208480N01240330EA009720103400601210668134
B1229565208471N01240350EA009750103600601210450121
B1229575208465N01240373EA009750103700600610755108
B1229585208462N01240400EA009750103800701010944094
B1229595208463N01240427EA009760103800600011174081
B1230005208467N01240455EA009770103900601211676072
B1230015208475N01240479EA009770104000601111519058
B1230025208484N01240502EA009780104000701511213052
B1230035208496N01240522EA009780104100801410989043
B1230045208511N01240537EA009780104100800011080032
B1230055208529N01240545EA009780104100701411836014
B1230065208547N01240549EA009770104100700612386003
B1230075208567N01240547EA009770104100700412872352
B1230085208587N01240539EA009770104100701312805343
B1230095208606N01240528EA009770104100701212916336
B1230105208623N01240512EA009770104100901412571330
B1230115208639N01240494EA009780104100900812510323
B1230125208652N01240473EA009800104100900911945311
B1230135208663N01240449EA009820104200700711580306
B1230145208670N01240422EA009850104300701311411291
B1230155208674N01240395EA009850104300701411345280
B1230165208676N01240367EA009840104500701510826268
B1230175208672N01240340EA009830104500700811000252
B1230185208665N01240314EA009830104600701510987243
B1230195208656N01240292EA009830104601100110661230
B1230205208644N01240275EA009840104501000210368212
B1230215208630N01240265EA009850104600800710539199
B1230225208614N01240259EA009860104700801510589188
B1230235208599N01240259EA009880104700800810009176
B1230245208584N01240266EA009900104800800610166161
B1230255208570N01240278EA009950104900800609933149
B1230265208559N01240293EA009980105000700309247135
B1230275208551N01240316EA010010105200700809973112
B1230285208548N01240342EA010040105300801110007095
B1230295208550N01240371EA010040105400600110587079
B1230305208556N01240400EA010070105400601411912066
B1230315208568N01240425EA010050105300600611993044
B1230325208584N01240443EA010020105300601212442028
B1230335208602N01240456EA010010105300600412382016
B1230345208621N01240464EA010010105401000812167012
B1230355208641N01240460EA010040105501000712497352
B1230365208661N01240450EA010070105701001112586338
B1230375208680N01240436EA010120105901000312377331
B1230385208695N01240418EA010140106001000012130319
B1230395208707N01240397EA010170106100800811296306
B1230405208716N01240373EA010180106100800511284298
B1230415208720N01240347EA010190106100801211145280
B1230425208721N01240319EA010190106200800410690268
B1230435208718N01240291EA010190106300800010498256
B1230445208712N01240265EA010170106401101210337245
B1230455208702N01240243EA010150106501101010477228
B1230465208690N01240226EA010130106600901210576213
B1230475208675N01240213EA010110106600901210961201
B1230485208659N01240205EA010110106600800410553195
B1230495208643N01240201EA010120106700801110616184
B1230505208626N01240204EA010170106700700310933172
B1230515208609N01240211EA010210106900600710902162
B1230525208592N01240223EA010260107100601011295155
B1230535208581N01240243EA010310107300600710301130
B1230545208572N01240266EA010350107500600210142116
B1230555208567N01240291EA010360107800601010151101
B1230565208565N01240317EA010360108200700110342091
B1230575208566N01240344EA010340108200600910668080
B1230585208571N01240371EA010330108300601111085069
B1230595208579N01240397EA010310108400601311365062
B1231005208587N01240422EA010300108300601411467058
B1231015208597N01240447EA010280108300600711669056
B1231025208607N01240472EA010240108200600212010057
B1231035208616N01240497EA010190108000601212268057
B1231045208626N01240523EA010130107800600912746059
B1231055208636N01240550EA010050107700601213292058
B1231065208647N01240578EA010020107500601213585059
B1231075208657N01240607EA010000107300600413824060
B1231085208668N01240636EA009980107100600513821060
B1231095208678N01240666EA009990106900600313696060
B1231105208688N01240694EA010000106900600013515058
B1231115208699N01240722EA010000106800601213428055
B1231125208712N01240747EA010020106700600813379048
B1231135208728N01240768EA010020106700600013107035
B1231145208745N01240784EA010040106600601113107026
B1231155208763N01240795EA010040106600600112955015
B1231165208782N01240801EA010030106600600612942009
B1231175208803N01240799EA010030106500600213467357
B1231185208822N01240792EA010020106500600812605343
B1231195208839N01240780EA010010106400700112575330
B1231205208855N01240761EA009980106300700012382321
B1231215208867N01240739EA009970106200800511784307
B1231225208876N01240714EA009960106000901211745297
B1231235208882N01240685EA009960105800901011639286
B1231245208885N01240658EA009970105701000011004278
B1231255208887N01240631EA009960105600700211002277
B1231265208888N01240603EA009950105600701411065273
B1231275208888N01240575EA009950105600701511339270
B1231285208887N01240547EA009960105700700211308268
B1231295208887N01240518EA009950105800600511230267
B1231305208885N01240490EA009950106000700111369267
B1231315208884N01240461EA009960106100600711658266
B1231325208881N01240431EA009960106200700811776264
B1231335208879N01240400EA009980106400700812043262
B1231345208875N01240370EA010000106600600111969260
B1231355208872N01240341EA010020106800700811828259
B1231365208867N01240311EA010040107100701411789256
B1231375208862N01240283EA010060107200600311686249
F123137292105312516101202
B1231385208854N01240258EA010090107400700511302241
B1231395208844N01240235EA010090107500701011031230
B1231405208832N01240217EA010110107600700810644219
B1231415208818N01240201EA010120107600700810446211
B1231425208804N01240192EA010130107700901310272197
B1231435208788N01240190EA010150107800800410175180
B1231445208772N01240196EA010170108000800510355164
B1231455208757N01240207EA010200108200701409857150
B1231465208746N01240224EA010230108500600109892133
B1231475208738N01240246EA010270108800600010238115
B1231485208734N01240272EA010290109000600910544098
B1231495208734N01240301EA010310109300601511070084
B1231505208738N01240331EA010320109400600012008076
B1231515208749N01240356EA010330109600700912392049
B1231525208764N01240377EA010320109600601312816034
B1231535208781N01240391EA010320109701501013157019
B1231545208800N01240399EA010320109701000512701009
B1231555208819N01240399EA010340109701000012486352
B1231565208837N01240391EA010370109700801512117339
B1231575208853N01240379EA010400109600800211843332
B1231585208869N01240362EA010440109601001212266325
B1231595208881N01240341EA010480109700901011654314
B1232005208887N01240314EA010520109800900010776302
B1232015208884N01240282EA010530109701000310896271
B1232025208881N01240254EA010550109801001510114253
B1232035208875N01240230EA010550109801000110018237
B1232045208865N01240211EA010540109800900410227223
B1232055208852N01240195EA010530110000901110112212
B1232065208838N01240182EA010510109900900310236209
B1232075208822N01240182EA010510110000801509895179
B1232085208805N01240191EA010510110200700110274157
B1232095208791N01240204EA010540110500700710142142
B1232105208780N01240225EA010570110900700110451125
B1232115208772N01240250EA010580111200700210600111
B1232125208768N01240278EA010600111400700511193098
B1232135208768N01240307EA010590111600700111561087
B1232145208771N01240336EA010580111800701312047075
B1232155208779N01240364EA010580111900700812366062
B1232165208790N01240388EA010570112000801212521048
B1232175208804N01240409EA010570112000800612514040
B1232185208820N01240427EA010580112100800812505033
B1232195208836N01240440EA010590112100801312499023
B1232205208855N01240450EA010610112200600212203015
B1232215208875N01240452EA010630112300600412319005
B1232225208894N01240452EA010660112400601312230355
B1232235208913N01240445EA010700112600600011936348
B1232245208931N01240437EA010720112800601312012340
B1232255208947N01240424EA010740113000700411767329
B1232265208962N01240406EA010750113200700611643317
B1232275208974N01240385EA010760113300700311530308
B1232285208983N01240361EA010770113400701111441297
B1232295208989N01240334EA010790113500900711400286
B1232305208992N01240306EA010790113700900010972276
B1232315208990N01240277EA010800113801001510920261
B1232325208985N01240250EA010810113900800910926249
B1232335208977N01240224EA010820114000701110878241
B1232345208968N01240201EA010840114100701410692236
B1232355208957N01240182EA010830114000700110633223
B1232365208944N01240166EA010830114000900810518212
B1232375208930N01240155EA010820114100900010223203
B1232385208915N01240150EA010820114100700710066189
B1232395208900N01240153EA010840114300701209873171
B1232405208885N01240163EA010870114500700810122158
B1232415208871N01240176EA010890114600701409946144
B1232425208859N01240194EA010900114900601509999134
B1232435208849N01240214EA010910115100700909884128
B1232445208841N01240237EA010920115300601409992114
B1232455208838N01240265EA010910115400700010811095
B1232465208838N01240293EA010910115600600511252084
B1232475208841N01240320EA010890115500601411667074
B1232485208847N01240348EA010880115500600711908067
B1232495208856N01240375EA010870115400601012080059
B1232505208866N01240400EA010850115200601212423050
B1232515208879N01240423EA010850115100600113029045
B1232525208894N01240443EA010840115000601112777034
B1232535208912N01240458EA010850115000601312977025
B1232545208930N01240470EA010860114900600813094019
B1232555208950N01240479EA010880114900600212946014
B1232565208969N01240483EA010890114900601012848006
B1232575208989N01240482EA010930114900700912316357
B1232585209008N01240478EA010960115000600812234351
B1232595209026N01240469EA011000115000700111526339
B1233005209041N01240455EA011030115200700911289323
B1233015209053N01240435EA011050115300701310993309
B1233025209062N01240411EA011070115400801110713294
B1233035209066N01240386EA011090115500801510283282
B1233045209069N01240359EA011100115600800410322273
B1233055209069N01240330EA011100115800801410813268
B1233065209068N01240302EA011110116000801110668268
B1233075209065N01240277EA011100116100800509996266
B1233085209060N01240254EA011100115900900008698265
B1233095209060N01240232EA011100116001200608500268
B1233105209031N01240235EA011100115901400609408185
B1233115209015N01240237EA011120115901000509853168
B1233125209000N01240244EA011140115901001309469157
B1233135208986N01240260EA011150115901000809314139
B1233145208981N01240290EA011170116000801311298104
B1233155208979N01240317EA011210116200800911649089
B1233165208981N01240347EA011250116300800611828078
B1233175208990N01240386EA011270117101000511947059
B1233185208996N01240418EA011280117800800611890048
B1233195209006N01240441EA011280117600801311634039
B1233205209021N01240456EA011260117600800012438020
B1233215209039N01240463EA011240117500600112655011
B1233225209057N01240468EA011230117400601112712007
B1233235209077N01240461EA011240117400701412903346
B1233245209095N01240451EA011280117600800712308335
B1233255209111N01240434EA011320117900900612266318
B1233265209124N01240411EA011350118000801411537307
B1233275209132N01240387EA011370118200800811061293
B1233285209136N01240361EA011380118400800110542282
B1233295209138N01240334EA011390118600800410324272
B1233305209135N01240309EA011360118700700809984257
B1233315209130N01240285EA011350118901100510029245
B1233325209122N01240262EA011340119101100609999239
B1233335209107N01240246EA011330119301100610750215
B1233345209091N01240232EA011320119401201411245204
B1233355209074N01240223EA011320119601201111309195
B1233365209057N01240219EA011320119601101211385184
B1233375209039N01240221EA011340119700801311237172
B1233385209022N01240229EA011340119900700111089159
B1233395209007N01240243EA011350120100600210972145
B1233405208994N01240263EA011390120300601211356128
B1233415208986N01240290EA011410120500600511814111
B1233425208982N01240317EA011440120800801011784098
B1233435208981N01240346EA011450120900801311793087
B1233445208983N01240375EA011450121100800512130076
B1233455208990N01240404EA011460121100600812455063
B1233465209001N01240430EA011450121200800712714051
B1233475209014N01240452EA011450121300801412634041
B1233485209029N01240470EA011460121300801312490031
B1233495209046N01240484EA011480121300801412566024
B1233505209064N01240494EA011460121400801112353012
B1233515209084N01240497EA011450121300800512987359
B1233525209103N01240493EA011420121300600412846347
B1233535209122N01240483EA011420121300600413209341
B1233545209139N01240467EA011410121200800912940325
B1233555209153N01240447EA011440121201001412334315
B1233565209165N01240424EA011450121101000311699308
B1233575209176N01240400EA011470121201000011799303
B1233585209185N01240375EA011510121301001111789301
B1233595209194N01240349EA011530121400800811802297
B1234005209201N01240322EA011520121500700111867290
B1234015209205N01240293EA011520121400800911810284
B1234025209209N01240263EA011520121500700111825278
B1234035209210N01240234EA011530121600700711854271
B1234045209209N01240203EA011530121600701311921263
B1234055209206N01240174EA011510121600700711854256
B1234065209199N01240145EA011500121600700711821245
B1234075209189N01240119EA011490121500801312130233
B1234085209176N01240096EA011480121600800312145223
B1234095209162N01240076EA011490121600901212232217
B1234105209146N01240059EA011540121700801212394213
B1234115209130N01240043EA011560121800800112030211
B1234125209115N01240027EA011590121900701411958210
B1234135209099N01240013EA011650122200701511763215
B1234145209085N01239996EA011700122500600111495224
B1234155209074N01239974EA011720122700600311506235
B1234165209066N01239949EA011730122900600911636250
B1234175209064N01239921EA011750123200800811763270
B1234185209068N01239893EA011750123301100312067286
B1234195209076N01239866EA011730123301101512601303
B1234205209089N01239842EA011700123300800013344316
B1234215209106N01239824EA011680123200800614011331
B1234225209126N01239813EA011650123000800614276345
B1234235209147N01239808EA011630122800700214139357
B1234245209168N01239811EA011630122601001113761009
B1234255209187N01239819EA011660122401001113233020
B1234265209204N01239834EA011660122301000812516032
B1234275209218N01239854EA011690122201001012134044
B1234285209229N01239878EA011710122001101211717056
B1234295209236N01239903EA011730121901100811208067
B1234305209242N01239928EA011750121801100910299068
B1234315209239N01239956EA011770121700901510088101
B1234325209234N01239979EA011800121600901310185114
B1234335209225N01240001EA011820121601200810513124
LLXVBATT:4.23V 123434
B1234345209214N01240018EA011830121701100010151141
B1234355209199N01240031EA011840121901001310242155
B1234365209183N01240039EA011860122001000910288167
B1234375209168N01240042EA011870122301001110233177
B1234385209152N01240042EA011880122501000010097187
F123438291623312521
B1234395209136N01240036EA011900122700800910198199
B1234405209123N01240024EA011960123000701109964212
B1234415209111N01240007EA011990123200700910233225
B1234425209102N01239986EA012020123400700010703238
B1234435209095N01239961EA012040123600600110715249
B1234445209091N01239934EA012060123900601310889261
B1234455209090N01239905EA012060124200601011239271
B1234465209093N01239877EA012070124600600911558279
B1234475209098N01239849EA012070124900601311769288
B1234485209106N01239822EA012070125200600712054301
B1234495209118N01239798EA012070125400600212418313
B1234505209134N01239779EA012060125600600312744326
B1234515209151N01239763EA012050125700601213005336
B1234525209170N01239754EA012060125700600513231347
B1234535209190N01239751EA012050125800701513315358
B1234545209210N01239753EA012030125800700213181008
B1234555209229N01239760EA012030125900700812879018
B1234565209247N01239773EA012030125900700012421029
B1234575209262N01239791EA012040125900801112153040
B1234585209274N01239813EA012040125901101211589054
B1234595209282N01239838EA012050125901100111328066
B1235005209287N01239864EA012080125901101011145075
B1235015209290N01239891EA012110125900800910996085
B1235025209290N01239917EA012140126000801010311092
B1235035209287N01239941EA012180126000800510301105
B1235045209279N01239962EA012210126100800109971123
B1235055209269N01239980EA012220126301000909605136
B1235065209255N01239992EA012230126401001009432152
B1235075209241N01239998EA012220126601000209384169
B1235085209226N01239999EA012220126700700309582184
B1235095209211N01239993EA012260126900701009821197
B1235105209197N01239983EA012310127100701009534209
B1235115209185N01239967EA012350127400601009782223
B1235125209175N01239948EA012370127600600709775237
B1235135209169N01239926EA012390127900600609927250
B1235145209167N01239901EA012370128200801510311265
B1235155209169N01239873EA012320128400801311007279
B1235165209174N01239844EA012270128400800812164289
B1235175209182N01239815EA012220128300800212975299
B1235185209193N01239788EA012180128400801513493308
B1235195209207N01239763EA012170128400800913837317
B1235205209225N01239743EA012170128400801213746327
B1235215209243N01239727EA012200128400800213454334
B1235225209261N01239715EA012230128300801313000343
B1235235209280N01239711EA012270128200700012295354
B1235245209298N01239711EA012300128100701312142003
B1235255209316N01239717EA012320128000700611875013
B1235265209333N01239727EA012310128001000911686025
B1235275209347N01239742EA012310128001000011458037
B1235285209359N01239762EA012300127901000311315050
B1235295209370N01239784EA012290127801100511202055
B1235305209374N01239810EA012320127801100110774076
B1235315209376N01239835EA012360127801401510185088
B1235325209375N01239860EA012390127900800109851098
B1235335209371N01239882EA012440128000801108961107
B1235345209366N01239900EA012470128101000108068116
B1235355209356N01239915EA012500128201000508609138
B1235365209345N01239926EA012490128301101108313149
B1235375209332N01239931EA012480128401101408055166
B1235385209319N01239930EA012470128601100208363189
B1235395209304N01239915EA012470128700901409962216
B1235405209291N01239896EA012470129000801410301229
B1235415209280N01239870EA012480129500801410774242
B1235425209273N01239839EA012500130400800011380260
B1235435209271N01239807EA012520130800601511754270
B1235445209273N01239776EA012530131200800612027279
B1235455209278N01239747EA012540131400800612340290
B1235465209287N01239720EA012530131500801312705302
B1235475209299N01239695EA012510131400600412964314
B1235485209314N01239674EA012510131500600113405322
B1235495209331N01239657EA012500131400600313192332
B1235505209349N01239646EA012480131500601313089342
B1235515209368N01239640EA012480131500700913129352
B1235525209388N01239640EA012470131500700613003005
B1235535209407N01239647EA012460131501000012735017
B1235545209424N01239660EA012460131501001512308028
B1235555209438N01239677EA012470131601000911925040
B1235565209449N01239698EA012470131601001111445052
B1235575209457N01239722EA012470131501001211158066
B1235585209461N01239747EA012490131401001210446081
B1235595209462N01239773EA012500131400700810540091
B1236005209460N01239798EA012540131500700110103098
B1236015209457N01239821EA012550131500800409516108
B1236025209449N01239843EA012570131700900310097121
B1236035209439N01239862EA012610131700800109966135
B1236045209426N01239876EA012630131800800809658147
B1236055209413N01239890EA012640132001001209273147
B1236065209401N01239897EA012630132001201508033157
B1236075209386N01239877EA012650132201201508947208
B1236085209373N01239863EA012660132301201309427221
B1236095209364N01239841EA012670132301201110333241
B1236105209358N01239813EA012670132300800011389254
B1236115209354N01239783EA012670132300800912121261
B1236125209353N01239750EA012670132200800513157265
B1236135209360N01239722EA012660132101001212748288
B1236145209370N01239693EA012630132301101413031304
B1236155209384N01239669EA012600132101101213079319
B1236165209401N01239652EA012590132100700513329331
B1236175209420N01239640EA012580132100701413079343
B1236185209441N01239634EA012590132100801112877353
B1236195209460N01239634EA012600132000801412657004
B1236205209478N01239639EA012640132000701512167015
B1236215209493N01239651EA012670131901001211265027
B1236225209507N01239665EA012700131901100610633038
B1236235209516N01239684EA012730131901100110034053
B1236245209524N01239705EA012750131901100009556068
B1236255209527N01239727EA012760131901000009193082
B1236265209528N01239749EA012760131901100709015086
B1236275209528N01239771EA012740131800801408231091
B1236285209522N01239791EA012710131700901108611115
B1236295209514N01239807EA012700131601100507655129
B1236305209503N01239820EA012700131601000907479136
B1236315209492N01239831EA012690131501000008057141
B1236325209478N01239838EA012700131401001108150150
B1236335209458N01239810EA012700131401000909751205
B1236345209440N01239792EA012700131500900210629226
B1236355209429N01239770EA012710131600901311057244
B1236365209424N01239743EA012710131600800111374258
B1236375209423N01239713EA012710131800700411732271
B1236385209425N01239682EA012710132000700411901281
B1236395209430N01239651EA012680132200800412397292
B1236405209438N01239622EA012620132300800913163300
B1236415209452N01239597EA012590132400800713769319
B1236425209470N01239578EA012560132400800714208333
B1236435209490N01239566EA012550132300800213856344
B1236445209510N01239561EA012550132200801513146357
B1236455209529N01239563EA012570132100700412527009
B1236465209546N01239572EA012590132001000711965022
B1236475209562N01239585EA012620131901000611582031
B1236485209574N01239604EA012650131801001010983043
B1236495209582N01239627EA012660131701100110051063
B1236505209586N01239650EA012690131601100709642077
B1236515209587N01239673EA012710131500701509208090
B1236525209584N01239695EA012710131500800708882104
B1236535209578N01239715EA012720131400800909019118
B1236545209569N01239733EA012700131400800709195132
B1236555209557N01239744EA012680131400900708561152
B1236565209543N01239751EA012670131400800108817163
B1236575209530N01239756EA012660131401200208363167
B1236585209513N01239738EA012640131401201010151204
B1236595209498N01239723EA012620131401200310587211
B1237005209484N01239709EA012590131401200610555213
B1237015209470N01239693EA012560131300700910989215
B1237025209456N01239676EA012510131200701411332216
B1237035209442N01239658EA012460131200800911484216
B1237045209427N01239640EA012420131100701011925216
B1237055209411N01239621EA012380131000701212166216
B1237065209396N01239603EA012370130800600912286215
B1237075209380N01239585EA012360130800600412331215
B1237085209365N01239567EA012350130600601312342216
B1237095209350N01239549EA012340130500600012236217
B1237105209336N01239530EA012310130400601112247217
B1237115209321N01239511EA012300130200600512284218
B1237125209307N01239491EA012260130100600012221218
B1237135209292N01239472EA012230129900601312401218
B1237145209278N01239453EA012210129700600712471217
B1237155209263N01239434EA012200129600600812575217
B1237165209247N01239415EA012200129400600212468217
B1237175209233N01239396EA012200129200601512421216
B1237185209218N01239378EA012190129100601312299217
B1237195209204N01239360EA012170129000601512092218
B1237205209189N01239342EA012140128800600312088218
B1237215209175N01239324EA012110128700601312158218
B1237225209161N01239305EA012080128500600512243218
B1237235209147N01239287EA012050128400600512294218
B1237245209132N01239268EA012010128200600112394218
B1237255209117N01239248EA011970128000600212651218
B1237265209103N01239229EA011950127700700512686218
B1237275209088N01239209EA011930127600701412794218
B1237285209072N01239190EA011910127400700812805218
B1237295209057N01239170EA011890127200701212799218
B1237305209042N01239151EA011870127100700412753218
B1237315209027N01239131EA011860126900700112757217
B1237325209012N01239112EA011840126800701112660218
B1237335208998N01239093EA011820126600701412381219
B1237345208983N01239073EA011780126400700412553220
B1237355208969N01239053EA011720126200701512562220
B1237365208955N01239033EA011680125900700612848220
B1237375208940N01239013EA011620125700700913026220
B1237385208925N01238992EA011580125400700513107220
B1237395208910N01238970EA011550125100701513407219
F1237392923212531020510
B1237405208894N01238949EA011520124900700313613218
B1237415208877N01238928EA011520124600701513778218
B1237425208860N01238906EA011510124400700813859218
B1237435208844N01238885EA011520124200600013993219
B1237445208827N01238863EA011530124100601414073219
B1237455208811N01238841EA011540124000600314110218
B1237465208794N01238819EA011550123800601114076219
B1237475208777N01238798EA011570123700600913997220
B1237485208761N01238776EA011590123600601313961219
B1237495208745N01238753EA011600123700601213911220
B1237505208730N01238731EA011630123800600113600222
B1237515208715N01238709EA011640123800600913604222
B1237525208700N01238686EA011670124000600313531221
B1237535208685N01238664EA011710124100601413407221
B1237545208670N01238644EA011760124300700713213219
B1237555208654N01238624EA011790124500700313031215
B1237565208639N01238608EA011830124800701212473208
B1237575208622N01238597EA011880125100700912099197
B1237585208605N01238592EA011930125300700411763187
B1237595208587N01238592EA011990125601000711367175
B1238005208571N01238600EA012070126001001411020158
B1238015208557N01238612EA012110126201001110679146
B1238025208545N01238629EA012190126601300710400136
B1238035208536N01238652EA012210126900701210776118
B1238045208530N01238679EA012230127200700011091106
B1238055208529N01238712EA012270127400600812212089
B1238065208532N01238742EA012290127600601412464075
B1238075208538N01238772EA012340127800601512623067
B1238085208550N01238802EA012390128200601212432052
B1238095208566N01238823EA012440128500701012373032
B1238105208583N01238837EA012500128900700812054020
B1238115208602N01238844EA012530129100701212099008
B1238125208620N01238844EA012570129400700511606356
B1238135208638N01238841EA012600129700800111723348
B1238145208656N01238832EA012610130000800912016340
B1238155208673N01238818EA012600130300800011467330
B1238165208687N01238800EA012590130500801211170322
B1238175208700N01238781EA012590130601001511626319
B1238185208707N01238754EA012600130801000710553308
B1238195208701N01238716EA012620131000800111508272
B1238205208697N01238687EA012640131200901010650253
B1238215208690N01238662EA012660131400900010129238
B1238225208681N01238641EA012670131700800110249225
B1238235208669N01238624EA012680131900801409966217
B1238245208656N01238610EA012700132101100409892212
B1238255208643N01238600EA012730132401000509060205
B1238265208627N01238606EA012780132701001509158172
B1238275208611N01238616EA012800133200900310244152
B1238285208597N01238632EA012850133600900610123145
B1238295208585N01238647EA012890134100700909738138
B1238305208574N01238666EA012920134400700109897129
B1238315208567N01238691EA012930134800701310501106
B1238325208564N01238719EA012960135000801310900091
B1238335208566N01238749EA012980135201101511775079
B1238345208572N01238779EA013000135400601012225067
B1238355208582N01238807EA013030135600600612484054
B1238365208595N01238830EA013040135800601412683042
B1238375208610N01238850EA013070136000600612840035
B1238385208627N01238866EA013110136200600712631026
B1238395208645N01238876EA013160136500601112166015
B1238405208663N01238882EA013230136800600611836006
B1238415208681N01238883EA013260137200601211728358
B1238425208699N01238878EA013290137500600211550346
B1238435208716N01238869EA013300137900701511511335
B1238445208732N01238855EA013310138100800711432325
B1238455208746N01238835EA013300138401000711295313
B1238465208756N01238813EA013290138601001311361303
B1238475208763N01238788EA013280138800800711463287
B1238485208766N01238758EA013280138900800711063274
B1238495208767N01238729EA013290139200900111537270
B1238505208767N01238700EA013310139400900111550268
B1238515208764N01238673EA013330139600900710624262
B1238525208748N01238660EA013370139800700909686222
B1238535208734N01238646EA013380140001000109762212
B1238545208721N01238636EA013400140301000909580205
B1238555208705N01238640EA013440140701000309230174
B1238565208689N01238649EA013460141000901309747155
B1238575208674N01238664EA013490141400901109740147
B1238585208661N01238680EA013530141800700809627140
B1238595208650N01238699EA013550142000800009992126
B1239005208643N01238723EA013570142300800410294109
B1239015208640N01238749EA013580142500800310792095
B1239025208640N01238778EA013590142800800411610086
B1239035208644N01238806EA013590143000800411847073
B1239045208651N01238834EA013610143100800912382065
B1239055208662N01238859EA013640143300801212444053
B1239065208675N01238881EA013660143400800212434043
B1239075208689N01238901EA013680143500801212508036
B1239085208706N01238916EA013700143700600412592029
B1239095208723N01238926EA013730143800600312427016
B1239105208743N01238931EA013770144000600112570004
B1239115208763N01238929EA013790144200600112625354
B1239125208783N01238923EA013800144400601012303348
B1239135208801N01238914EA013820144600600912134340
B1239145208818N01238901EA013810144700600512451332
B1239155208836N01238886EA013810144800601013079335
B1239165208850N01238867EA013810144900800512103315
B1239175208860N01238843EA013800145000801511936300
B1239185208867N01238815EA013800145101001211784286
B1239195208869N01238786EA013810145100800111269275
B1239205208871N01238755EA013830145201000811954273
B1239215208868N01238728EA013850145300800210639259
B1239225208864N01238703EA013880145400801010122258
B1239235208859N01238680EA013900145500801110018254
B1239245208845N01238665EA013910145700800009108231
B1239255208832N01238653EA013920146000800708648220
B1239265208818N01238643EA013930146200800908908211
B1239275208804N01238637EA013930146300700408178200
B1239285208787N01238650EA013940146400701109323163
B1239295208771N01238666EA013960146500801309871146
B1239305208759N01238685EA013980146800900810135134
B1239315208748N01238709EA013990147200700610424123
B1239325208739N01238734EA014010147400700210540115
B1239335208733N01238759EA014030147700701210720109
B1239345208729N01238786EA014030147900701011011099
B1239355208728N01238815EA014020148000700511443087
LLXVBATT:4.23V 123936
B1239365208731N01238843EA014010148100600011956076
B1239375208736N01238873EA014000148200600312736068
B1239385208745N01238902EA013990148300600513365061
B1239395208755N01238930EA014020148300600213585056
B1239405208768N01238957EA014040148400601213672050
B1239415208782N01238981EA014050148600600013630041
B1239425208799N01239000EA014080148800600113535030
B1239435208817N01239014EA014120148900600313161021
B1239445208836N01239022EA014160149100601012766011
B1239455208856N01239025EA014170149300600512987359
B1239465208876N01239021EA014160149500701212888350
B1239475208895N01239012EA014160149700700412901341
B1239485208913N01239000EA014170149800700912751331
B1239495208929N01238982EA014180149900901512534321
B1239505208942N01238960EA014200150000901012060311
B1239515208953N01238936EA014210150000701511897301
B1239525208960N01238908EA014210150100700711839289
B1239535208964N01238878EA014210150000800111938281
B1239545208967N01238847EA014200150100800012559276
B1239555208968N01238815EA014180150100800612836274
B1239565208960N01238790EA014180150000800711054243
B1239575208950N01238768EA014190150001201010989226
B1239585208937N01238751EA014200149901201110616216
B1239595208922N01238738EA014210150000700310381207
B1240005208906N01238730EA014240150200700310240193
B1240015208890N01238727EA014260150300801210059182
B1240025208874N01238731EA014290150500801210177169
B1240035208859N01238741EA014310150700700210309154
B1240045208845N01238756EA014340150800601510663144
B1240055208831N01238775EA014380151100601110613134
B1240065208822N01238797EA014390151400600610809121
B1240075208814N01238823EA014420151600600011009110
B1240085208810N01238851EA014420151800600611334097
B1240095208811N01238881EA014400151900600511760085
B1240105208814N01238911EA014400152000600612260075
B1240115208820N01238940EA014410152000600212646067
B1240125208829N01238968EA014410152100600213113059
B1240135208841N01238994EA014410152100600413326051
B1240145208854N01239018EA014430152200601413318044
B1240155208869N01239040EA014460152300600713318038
B1240165208886N01239059EA014480152500600313307035
B1240175208903N01239075EA014490152600601513302028
B1240185208921N01239088EA014510152600600113315019
B1240195208941N01239095EA014510152700601213305008
B1240205208961N01239096EA014510152800600013163359
B1240215208981N01239093EA014520153000601113018351
B1240225209001N01239085EA014540153100600012912345
B1240235209020N01239075EA014560153300600512686340
B1240245209037N01239063EA014570153400700412740332
B1240255209053N01239046EA014580153500700312288323
B1240265209067N01239026EA014590153500700411936316
B1240275209078N01239005EA014600153500700511782309
B1240285209088N01238980EA014600153600700911675301
B1240295209096N01238953EA014590153600701111688294
B1240305209103N01238925EA014580153700701511773288
B1240315209107N01238897EA014570153600700211634281
B1240325209109N01238868EA014560153500801011237273
B1240335209109N01238841EA014560153400700711093268
B1240345209107N01238813EA014560153300801010870260
B1240355209102N01238787EA014560153300701110611250
B1240365209095N01238764EA014560153200700110355238
B1240375209084N01238743EA014570153200700810394226
B1240385209073N01238726EA014570153100700910274218
B1240395209059N01238713EA014570153101000610046208
B1240405209045N01238704EA014560153000700709814198
F1240402921253110160502
B1240415209030N01238699EA014560153000700010131186
B1240425209014N01238700EA014560153000700510242175
B1240435208998N01238706EA014570153000701110653161
B1240445208982N01238720EA014560153000701211372150
B1240455208966N01238735EA014580153100601011269144
B1240465208953N01238754EA014580153100601511282139
B1240475208939N01238775EA014600153200600711530132
B1240485208928N01238798EA014620153300600311704124
B1240495208919N01238823EA014640153400601111841116
B1240505208912N01238850EA014670153400600311854110
B1240515208907N01238880EA014680153700600311982102
B1240525208904N01238910EA014690153800600012130093
B1240535208905N01238941EA014700153900601112451084
B1240545208908N01238972EA014710154000600012649076
B1240555208914N01239002EA014700154000600912870069
B1240565208923N01239031EA014700154000600913181061
B1240575208935N01239058EA014700154100600013563053
B1240585208948N01239084EA014710154200600213733048
B1240595208963N01239108EA014720154300600813828041
B1241005208980N01239129EA014740154300601413908037
B1241015208998N01239148EA014750154500601013871032
B1241025209016N01239165EA014760154600600513711027
B1241035209035N01239178EA014780154700600813480019
B1241045209054N01239186EA014810154800601112914012
B1241055209073N01239191EA014850154900601412783007
B1241065209093N01239192EA014860155000600712705001
B1241075209113N01239191EA014860155200600413040357
B1241085209132N01239186EA014870155400600912677347
B1241095209151N01239176EA014880155600600912538340
B1241105209169N01239164EA014880155700601212505334
B1241115209185N01239148EA014870155800601012379328
B1241125209200N01239130EA014870155800701512188319
B1241135209213N01239109EA014880155800700911841312
B1241145209224N01239087EA014880155900700711600307
B1241155209234N01239062EA014900156000700011695298
B1241165209242N01239035EA014910156200701211510293
B1241175209248N01239008EA014920156300701411269288
B1241185209252N01238981EA014930156400601211013279
B1241195209253N01238953EA014930156500801210805272
B1241205209253N01238926EA014920156500800410592265
B1241215209251N01238899EA014910156500800710589261
B1241225209247N01238874EA014890156500601210418253
B1241235209241N01238849EA014860156500601510492246
B1241245209233N01238826EA014850156400601510450237
B1241255209223N01238805EA014840156400601310546231
B1241265209212N01238785EA014830156300601110474226
B1241275209200N01238768EA014840156300700210726219
B1241285209186N01238753EA014830156300600510453213
B1241295209172N01238740EA014830156200600210348206
B1241305209158N01238731EA014820156200700810277200
B1241315209142N01238724EA014810156100600210279192
B1241325209126N01238722EA014810156000601510396180
B1241335209110N01238727EA014820156000601210679166
B1241345209095N01238736EA014830156000600110739157
B1241355209080N01238749EA014850156000600810972146
B1241365209066N01238766EA014860156000600010967141
B1241375209053N01238784EA014870156100601211006137
B1241385209041N01238803EA014880156100601410961135
B1241395209030N01238823EA014890156100601010928132
B1241405209019N01238844EA014910156200601211019127
B1241415209009N01238867EA014900156200601511211121
B1241425209001N01238892EA014900156300600011245116
B1241435208994N01238917EA014900156300601111326111
B1241445208988N01238944EA014880156300600011458106
B1241455208984N01238972EA014860156300600011706101
B1241465208981N01239002EA014850156300601512071097
B1241475208979N01239032EA014830156300600312303093
B1241485208979N01239063EA014830156300601012581089
B1241495208981N01239095EA014840156300601312627085
B1241505208983N01239127EA014880156300600312640082
B1241515208987N01239158EA014900156500601212564079
B1241525208992N01239188EA014920156700601312644072
B1241535208999N01239216EA014920156800601512592066
B1241545209009N01239244EA014930156900600512764058
B1241555209020N01239270EA014930157000600013077050
B1241565209034N01239294EA014920157000601113266044
B1241575209049N01239316EA014900157000600313572038
B1241585209067N01239335EA014870157000600813815031
B1241595209085N01239350EA014850157100600114004024
B1242005209105N01239362EA014820157100601414210018
B1242015209126N01239370EA014810157000601514221011
B1242025209147N01239375EA014810157000600814084006
B1242035209168N01239377EA014810156900600313806000
B1242045209189N01239375EA014820157000601013620356
B1242055209210N01239371EA014820157000600013467354
B1242065209230N01239366EA014830156900600513355352
B1242075209251N01239360EA014830157000600313255349
B1242085209270N01239352EA014820157000601513366346
B1242095209290N01239342EA014810157000600513572343
B1242105209310N01239331EA014790156900600513559339
B1242115209329N01239317EA014790156800601413252336
B1242125209346N01239303EA014790156700600713146332
B1242135209363N01239286EA014780156700600812918327
B1242145209379N01239268EA014790156600600512518322
B1242155209393N01239248EA014800156500700812295317
B1242165209406N01239227EA014800156500600512175313
B1242175209418N01239204EA014820156500800811906309
B1242185209428N01239182EA014820156500801311745306
B1242195209438N01239158EA014820156500800211511302
B1242205209447N01239133EA014810156500800611521298
B1242215209454N01239107EA014810156500800111259293
B1242225209459N01239081EA014820156500800311246287
B1242235209463N01239054EA014830156500801110868281
B1242245209466N01239029EA014860156600601210796279
B1242255209467N01239002EA014870156800600510576278
B1242265209469N01238977EA014880157000800010583274
B1242275209469N01238951EA014890157100601110394268
B1242285209468N01238925EA014890157200601110337264
B1242295209465N01238900EA014880157300800010148256
B1242305209461N01238876EA014880157300800910068249
B1242315209454N01238854EA014890157400600610018242
B1242325209446N01238832EA014900157500600809884237
B1242335209438N01238813EA014900157600701309777232
B1242345209428N01238794EA014910157600600209705230
B1242355209418N01238777EA014910157700601009601226
B1242365209408N01238761EA014910157700601209440223
B1242375209397N01238746EA014890157700600709278220
B1242385209386N01238732EA014870157600601409349215
B1242395209373N01238720EA014840157500600709592210
B1242405209359N01238709EA014820157300601209931203
B1242415209345N01238701EA014820157100601010096195
B1242425209330N01238697EA014810157000600710194188
B1242435209314N01238695EA014820157000601010203183
B1242445209298N01238695EA014810156900600610348177
B1242455209282N01238698EA014790156800600710461173
B1242465209266N01238704EA014780156700600610566167
B1242475209251N01238712EA014780156500600710807162
B1242485209235N01238722EA014780156500601411104157
B1242495209219N01238735EA014790156500601011237152
B1242505209204N01238748EA014800156400601210987150
B1242515209190N01238763EA014810156400601211137145
B1242525209176N01238780EA014830156400600311126140
B1242535209164N01238799EA014850156400601511057136
B1242545209152N01238818EA014880156400601210956133
B1242555209141N01238837EA014910156400600510861130
B1242565209132N01238858EA014920156400600610809126
B1242575209123N01238880EA014920156400600910822121
B1242585209115N01238905EA014920156400601011165115
B1242595209108N01238930EA014910156400601111341110
B1243005209104N01238957EA014910156400600811626104
B1243015209100N01238986EA014910156400600412092099
B1243025209099N01239016EA014920156400600412277092
B1243035209100N01239048EA014920156500601012358086
B1243045209102N01239079EA014910156500601412486081
B1243055209107N01239110EA014910156600601112664075
B1243065209113N01239141EA014900156700600812862070
B1243075209121N01239170EA014880156700600112970064
B1243085209132N01239199EA014840156500600513544058
B1243095209143N01239227EA014830156300600513783052
B1243105209157N01239253EA014800156200600913900047
B1243115209172N01239277EA014800156100600813858044
B1243125209188N01239300EA014820156200600513700041
B1243135209205N01239321EA014840156300601313604039
B1243145209221N01239341EA014860156300600313409035
B1243155209238N01239359EA014870156400600713409032
B1243165209256N01239376EA014880156500601013424027
B1243175209275N01239389EA014890156700600713415023
B1243185209294N01239400EA014890156700600813422017
B1243195209314N01239409EA014870156800601113672012
B1243205209334N01239414EA014870156800601513672006
B1243215209354N01239415EA014860156800600113663001
B1243225209375N01239414EA014860156900600313379356
B1243235209395N01239410EA014850156900600613294351
B1243245209414N01239403EA014830156800600813255346
B1243255209433N01239393EA014810156700600813198340
B1243265209452N01239380EA014810156700601112987335
B1243275209469N01239365EA014800156600600113061330
B1243285209485N01239348EA014780156500600613048325
B1243295209501N01239328EA014770156300600712977319
B1243305209514N01239306EA014760156100600612761313
B1243315209526N01239281EA014750156100700912516306
B1243325209537N01239256EA014750156100700412316301
B1243335209545N01239228EA014770156200800112314296
B1243345209552N01239201EA014780156300800211953291
B1243355209558N01239172EA014780156400801211938287
B1243365209563N01239144EA014780156400800111819284
B1243375209567N01239116EA014780156300800211478279
B1243385209568N01239089EA014790156300800211263273
B1243395209568N01239060EA014800156400801311348269
B1243405209567N01239032EA014800156500601411122266
B1243415209565N01239005EA014780156500600211117262
F12434129212325311002051613
B1243425209562N01238977EA014760156600600510941258
B1243435209557N01238951EA014740156500600411009255
B1243445209552N01238925EA014730156600601210939248
B1243455209544N01238900EA014730156500601010870240
B1243465209535N01238878EA014730156500700810741235
B1243475209525N01238857EA014730156400700110726232
B1243485209515N01238837EA014730156400701410672229
B1243495209504N01238817EA014740156400700810702227
B1243505209492N01238799EA014740156400700110711222
B1243515209480N01238782EA014760156400700910561220
B1243525209467N01238766EA014760156500701210570216
B1243535209454N01238752EA014770156600700810444212
B1243545209440N01238739EA014780156600701210212211
B1243555209426N01238727EA014780156600700110303208
B1243565209412N01238717EA014780156600700910177200
B1243575209397N01238710EA014790156600700110366193
B1243585209381N01238707EA014810156700701210600186
B1243595209365N01238706EA014830156700701010589180
B1244005209349N01238707EA014850156800700910487176
B1244015209334N01238710EA014870156900600810351172
B1244025209319N01238715EA014890156900601110240167
B1244035209304N01238723EA014890157000600210064161
B1244045209290N01238733EA014880157100601310377152
B1244055209276N01238748EA014880157100601510798142
B1244065209264N01238767EA014880157200601410965134
B1244075209254N01238789EA014890157300600311070125
B1244085209245N01238813EA014900157400600711115116
B1244095209239N01238839EA014890157500600311044109
B1244105209235N01238867EA014880157500701011452099
B1244115209234N01238896EA014880157500800611828091
B1244125209235N01238927EA014880157500700011949085
B1244135209238N01238957EA014890157500600112295077
B1244145209244N01238986EA014900157500600012255068
B1244155209252N01239013EA014890157500601212268060
B1244165209263N01239038EA014900157500600012403052
B1244175209276N01239061EA014900157500601012546044
B1244185209291N01239080EA014890157500700812727035
B1244195209307N01239097EA014870157500600212901029
B1244205209325N01239111EA014870157500601412998024
B1244215209344N01239121EA014850157500601113331018
B1244225209364N01239130EA014820157400600213561014
B1244235209384N01239137EA014800157300601413698011
B1244245209404N01239142EA014800157300601213383007
B1244255209425N01239144EA014810157300600613539005
B1244265209446N01239145EA014820157400601113402002
B1244275209466N01239144EA014830157400600213259357
B1244285209486N01239141EA014850157400601213216353
B1244295209506N01239135EA014880157500600912768348
B1244305209525N01239128EA014920157700601512829346
B1244315209543N01239119EA014930157800601512618343
B1244325209561N01239110EA014960157900601212716341
B1244335209579N01239099EA014980157900601412722340
B1244345209596N01239087EA014970158000600312709336
B1244355209613N01239073EA014980158100601512786330
B1244365209629N01239056EA014980158200600612357324
B1244375209643N01239037EA014990158300600212214316
LLXVBATT:4.23V 124438
B1244385209655N01239016EA015000158300600511789312
B1244395209665N01238992EA015010158200700711751301
B1244405209672N01238965EA015000158100700911721291
B1244415209677N01238937EA014990158200700111359283
B1244425209679N01238908EA014980158200601111246275
B1244435209679N01238880EA014970158200801510935265
B1244445209676N01238854EA014980158200800710618256
B1244455209671N01238828EA014980158100800310729250
B1244465209663N01238805EA014970158100800510446237
B1244475209653N01238784EA014980158100800510225228
B1244485209641N01238767EA014990158100801309968221
B1244495209629N01238752EA014990158100801109908214
B1244505209616N01238741EA014980158000801509653206
B1244515209602N01238732EA014960158000800209593200
B1244525209587N01238725EA014950157900801209595192
B1244535209573N01238722EA014940157800700009744187
B1244545209557N01238721EA014920157700800910096181
B1244555209541N01238722EA014910157600700710175179
B1244565209525N01238723EA014920157400601410422176
B1244575209508N01238726EA014930157300600010503171
B1244585209493N01238731EA014950157300600210505167
B1244595209477N01238738EA014970157300600210396164
B1245005209462N01238748EA014980157400601510240159
B1245015209447N01238759EA014980157400600010296154
B1245025209433N01238772EA014970157400600410301149
B1245035209420N01238787EA014960157400600210750142
B1245045209408N01238805EA014950157400601511165135
B1245055209396N01238827EA014940157400600411298128
B1245065209386N01238850EA014930157400601011385120
B1245075209378N01238876EA014930157400600311608112
B1245085209373N01238904EA014940157400601211949104
B1245095209370N01238933EA014940157500600612264095
B1245105209370N01238964EA014960157500601112255088
B1245115209372N01238994EA014960157500600312306081
B1245125209375N01239025EA014970157500601512395076
B1245135209381N01239055EA014970157600600412553069
B1245145209390N01239084EA014960157500601312829061
B1245155209400N01239111EA014940157500600913048054
B1245165209413N01239136EA014930157500601213381048
B1245175209428N01239160EA014910157400600513700042
B1245185209444N01239181EA014890157300601013824035
B1245195209462N01239198EA014880157200600514047028
B1245205209482N01239213EA014870157100600614384022
B1245215209502N01239224EA014860157000600714443017
B1245225209524N01239232EA014850157000600914300009
B1245235209546N01239234EA014850156900600114378001
B1245245209568N01239231EA014850156900600714256354
B1245255209590N01239224EA014860156900600814163346
B1245265209610N01239213EA014860156800601114086339
B1245275209630N01239198EA014880156800600513652330
B1245285209647N01239179EA014890156800600113389322
B1245295209662N01239157EA014920156800800513113316
B1245305209675N01239134EA014960156900800912529309
B1245315209686N01239108EA014980156900701512338301
B1245325209694N01239081EA015000156900801512097292
B1245335209699N01239051EA015030157000800811810283
B1245345209701N01239022EA015050157000800911174272
B1245355209699N01238994EA015090157200800510755259
B1245365209694N01238967EA015110157400800910498248
B1245375209686N01238943EA015140157600800810188240
B1245385209676N01238924EA015160157600900909953223
B1245395209663N01238909EA015170157900801409569212
B1245405209650N01238899EA015140157900800909647200
B1245415209634N01238896EA015120158000901010374179
B1245425209618N01238899EA015090157901200810385166
B1245435209602N01238910EA015060157800900310972150
B1245445209588N01238926EA015020157700800111258141
B1245455209576N01238947EA014990157500800611334131
B1245465209566N01238970EA014980157301000610602122
B1245475209561N01238997EA014970157101001010648107
B1245485209561N01239035EA014970156900701013126092
B1245495209566N01239071EA014990156700601012974076
B1245505209575N01239105EA015000156600600013070063
B1245515209588N01239135EA015000156600900214095054
B1245525209603N01239163EA015000156501000913750050
B1245535209626N01239175EA014980156401200514154020
B1245545209648N01239183EA014970156401400714306007
B1245555209670N01239184EA014970156201401214510356
B1245565209693N01239178EA014980156200700214543347
B1245575209716N01239167EA014990156200701514578339
B1245585209737N01239151EA015030156200700514308334
B1245595209757N01239133EA015030156300700414321329
B1246005209775N01239113EA015050156300700914030321
B1246015209788N01239089EA015070156300701213001307
B1246025209799N01239061EA015100156400700512475298
B1246035209806N01239032EA015140156400800512218287
B1246045209808N01239001EA015180156500801111817276
B1246055209809N01238971EA015210156700800411287266
B1246065209805N01238941EA015240156900800711204254
B1246075209798N01238914EA015260157300800810956244
B1246085209788N01238892EA015270157500800210761232
B1246095209776N01238873EA015280157900901210305218
B1246105209763N01238859EA015290158100800710196209
B1246115209749N01238848EA015290158500800610046203
B1246125209734N01238843EA015290158601101509971186
B1246135209718N01238844EA015280158800800110333175
B1246145209703N01238849EA015280158900800710216165
B1246155209687N01238859EA015280159000701310229153
B1246165209674N01238874EA015270159000700110655142
B1246175209662N01238893EA015260159100701310891132
B1246185209651N01238915EA015260159200700411091125
B1246195209642N01238943EA015250159300600611347113
B1246205209637N01238972EA015240159400600011739104
B1246215209633N01239003EA015240159500601412086094
B1246225209633N01239034EA015240159600600912225086
B1246235209636N01239065EA015260159600701212562077
B1246245209642N01239095EA015260159600800812688068
B1246255209651N01239124EA015290159600800612748060
B1246265209662N01239150EA015300159600700613140050
B1246275209676N01239172EA015290159600700412927040
B1246285209692N01239190EA015290159600700812772032
B1246295209709N01239205EA015290159600701112998024
B1246305209728N01239216EA015280159600700513324016
B1246315209748N01239222EA015280159600601413252006
B1246325209768N01239224EA015280159500600913263357
B1246335209789N01239220EA015300159600600013177348
B1246345209809N01239209EA015310159700600912940338
B1246355209827N01239194EA015320159800600012755330
B1246365209844N01239175EA015320159900600012323322
B1246375209857N01239154EA015330160000700311999313
B1246385209868N01239130EA015330160000700411891302
B1246395209876N01239103EA015330160200700611713292
B1246405209882N01239075EA015330160300700511600283
B1246415209884N01239046EA015330160400700611326272
B1246425209882N01239018EA015330160400800611015256
F1246422925310213051621
B1246435209875N01238992EA015360160400800810848243
B1246445209866N01238969EA015370160500801210766233
B1246455209856N01238950EA015400160700800110322223
B1246465209842N01238934EA015410160900801410153213
B1246475209829N01238922EA015420161100700609705203
B1246485209815N01238915EA015430161200700009605191
B1246495209800N01238913EA015430161400701409706180
B1246505209785N01238917EA015440161600600109899168
B1246515209770N01238926EA015440161700601410159157
B1246525209755N01238939EA015440161800601310450147
B1246535209742N01238956EA015460161900600110498137
B1246545209731N01238976EA015490162100600510655128
B1246555209722N01239001EA015510162300700310878114
B1246565209717N01239027EA015510162500601010846102
B1246575209715N01239055EA015510162600600611106092
B1246585209716N01239085EA015500162700600711702080
B1246595209721N01239114EA015470162700601512166070
B1247005209729N01239142EA015460162700600112714061
B1247015209741N01239169EA015460162700601012916052
B1247025209754N01239192EA015460162600600012907043
B1247035209769N01239212EA015460162600600913109034
B1247045209786N01239227EA015460162600601513051025
B1247055209805N01239239EA015460162600600213220017
B1247065209824N01239245EA015450162500600213166007
B1247075209843N01239246EA015460162600600612994356
B1247085209863N01239241EA015470162600600712709347
B1247095209881N01239231EA015500162700600212297338
B1247105209897N01239217EA015520162700600912099329
B1247115209912N01239200EA015520162700600611851322
B1247125209926N01239180EA015530162800700911454313
B1247135209936N01239157EA015530162700700811397302
B1247145209944N01239131EA015520162800700011480292
B1247155209949N01239103EA015510163000700411031282
B1247165209951N01239074EA015510163000801410963272
B1247175209950N01239046EA015510163100801310815262
B1247185209944N01239021EA015500163200800610540245
B1247195209936N01238998EA015510163200801210438236
B1247205209927N01238979EA015540163300800210135228
B1247215209915N01238961EA015560163300801010129221
B1247225209903N01238947EA015580163400800809549211
B1247235209889N01238938EA015580163500800009349199
B1247245209875N01238935EA015580163500800209428186
B1247255209861N01238934EA015570163600800509495177
B1247265209846N01238938EA015560163501101509501168
B1247275209831N01238946EA015550163401101109864159
B1247285209817N01238959EA015530163300800810266148
B1247295209803N01238976EA015530163200800410993139
B1247305209791N01238995EA015560163200701510852133
B1247315209780N01239017EA015580163200700710852126
B1247325209771N01239040EA015590163200601110944117
B1247335209765N01239066EA015590163300600110994108
B1247345209761N01239093EA015590163300600811295099
B1247355209761N01239123EA015570163400600211713090
B1247365209762N01239153EA015560163300600712016081
B1247375209766N01239183EA015550163300600412364073
B1247385209772N01239213EA015540163200600912586065
B1247395209782N01239240EA015540163200600912699056
B1247405209794N01239265EA015550163100600212638048
B1247415209808N01239286EA015560163000600512785040
B1247425209824N01239305EA015570163000601112779032
B1247435209841N01239320EA015580162900600712987025
B1247445209860N01239331EA015560162900600613148017
B1247455209879N01239338EA015540162800600313483009
B1247465209899N01239341EA015520162700600513485000
B1247475209920N01239338EA015510162800601113417350
B1247485209940N01239329EA015500162700601313131341
B1247495209958N01239315EA015500162700600513118331
B1247505209975N01239297EA015500162800701512805326
B1247515209991N01239279EA015500162700700212638322
B1247525210005N01239258EA015510162800700612590317
B1247535210019N01239236EA015520162800700912355313
B1247545210030N01239212EA015530162800701312095306
B1247555210041N01239186EA015530162900700212001299
B1247565210049N01239158EA015520163000700911897292
B1247575210055N01239130EA015520163100601511639283
B1247585210058N01239102EA015520163100600811430275
B1247595210058N01239075EA015510163100600311374267
B1248005210055N01239046EA015520163100601011269261
B1248015210052N01239019EA015530163200600611195252
B1248025210045N01238993EA015540163200600311102244
B1248035210037N01238970EA015550163300700610859235
B1248045210026N01238949EA015550163400701510739225
B1248055210013N01238933EA015560163400600910629215
B1248065209998N01238919EA015560163400700010490206
B1248075209983N01238911EA015570163500701210379195
B1248085209967N01238907EA015580163500700510455184
B1248095209951N01238910EA015610163600700910590170
B1248105209935N01238918EA015620163700701110362159
B1248115209921N01238930EA015620163700700510192151
B1248125209908N01238944EA015620163700701410092142
B1248135209896N01238962EA015630163800701010196134
B1248145209885N01238982EA015620163800601410394126
B1248155209876N01239005EA015610163800601210648118
B1248165209870N01239030EA015600163900601010852110
B1248175209865N01239057EA015580163900600511289101
B1248185209863N01239087EA015560163900601311752094
B1248195209862N01239118EA015560163900600112045088
B1248205209864N01239147EA015560163900601212258079
B1248215209869N01239178EA015560163900600712484071
B1248225209877N01239206EA015560163800600712366061
B1248235209888N01239231EA015570163800700512562050
B1248245209902N01239253EA015570163700701012723042
B1248255209917N01239272EA015580163700701012473033
B1248265209934N01239286EA015580163700600412668023
B1248275209953N01239295EA015570163600600112862014
B1248285209972N01239300EA015550163400601313437005
B1248295209993N01239300EA015510163300600113366356
B1248305210013N01239293EA015470163300701213378346
B1248315210032N01239282EA015450163100701313322336
B1248325210051N01239266EA015450163000700513070328
B1248335210067N01239247EA015460162900600312857321
B1248345210080N01239226EA015470162700601312514315
B1248355210093N01239203EA015490162600600512218309
B1248365210103N01239178EA015490162500600712138302
B1248375210112N01239150EA015510162700701212049294
B1248385210118N01239121EA015530162800700611915289
B1248395210124N01239092EA015550163000800111836285
B1248405210128N01239064EA015580163200800511828283
B1248415210131N01239036EA015600163400700211491278
B1248425210133N01239007EA015610163600801411391271
B1248435210132N01238978EA015610163700700811259264
B1248445210131N01238949EA015620163800701011984265
B1248455210129N01238921EA015620164000800311834263
B1248465210125N01238894EA015630163900801111130260
B1248475210108N01238882EA015630164000801410157221
